{
	"HomeConnect/HouseRental.sol": {
		"HouseRental": {
			"abi": [
				{
					"anonymous": false,
					"inputs": [
						{
							"indexed": false,
							"internalType": "uint256",
							"name": "houseId",
							"type": "uint256"
						},
						{
							"indexed": false,
							"internalType": "address",
							"name": "landlord",
							"type": "address"
						}
					],
					"name": "HouseListed",
					"type": "event"
				},
				{
					"anonymous": false,
					"inputs": [
						{
							"indexed": false,
							"internalType": "uint256",
							"name": "rentalId",
							"type": "uint256"
						},
						{
							"indexed": false,
							"internalType": "address",
							"name": "tenant",
							"type": "address"
						},
						{
							"indexed": false,
							"internalType": "address",
							"name": "landlord",
							"type": "address"
						},
						{
							"indexed": false,
							"internalType": "uint256",
							"name": "houseId",
							"type": "uint256"
						},
						{
							"indexed": false,
							"internalType": "uint256",
							"name": "startDate",
							"type": "uint256"
						},
						{
							"indexed": false,
							"internalType": "uint256",
							"name": "endDate",
							"type": "uint256"
						}
					],
					"name": "HouseRented",
					"type": "event"
				},
				{
					"anonymous": false,
					"inputs": [
						{
							"indexed": false,
							"internalType": "uint256",
							"name": "rentalId",
							"type": "uint256"
						},
						{
							"indexed": false,
							"internalType": "address",
							"name": "tenant",
							"type": "address"
						},
						{
							"indexed": false,
							"internalType": "uint256",
							"name": "amount",
							"type": "uint256"
						}
					],
					"name": "RentPaid",
					"type": "event"
				},
				{
					"anonymous": false,
					"inputs": [
						{
							"indexed": false,
							"internalType": "uint256",
							"name": "rentalId",
							"type": "uint256"
						},
						{
							"indexed": false,
							"internalType": "address",
							"name": "tenant",
							"type": "address"
						},
						{
							"indexed": false,
							"internalType": "uint256",
							"name": "houseId",
							"type": "uint256"
						}
					],
					"name": "RentalCompleted",
					"type": "event"
				},
				{
					"anonymous": false,
					"inputs": [
						{
							"indexed": false,
							"internalType": "uint256",
							"name": "rentalId",
							"type": "uint256"
						},
						{
							"indexed": false,
							"internalType": "address",
							"name": "tenant",
							"type": "address"
						}
					],
					"name": "RentalCompleted",
					"type": "event"
				},
				{
					"anonymous": false,
					"inputs": [
						{
							"indexed": false,
							"internalType": "address",
							"name": "landlord",
							"type": "address"
						},
						{
							"indexed": false,
							"internalType": "address",
							"name": "tenant",
							"type": "address"
						},
						{
							"indexed": false,
							"internalType": "uint256",
							"name": "housId",
							"type": "uint256"
						}
					],
					"name": "RequestAccepted",
					"type": "event"
				},
				{
					"anonymous": false,
					"inputs": [
						{
							"indexed": false,
							"internalType": "address",
							"name": "tenant",
							"type": "address"
						},
						{
							"indexed": false,
							"internalType": "uint256",
							"name": "requestId",
							"type": "uint256"
						}
					],
					"name": "RequestSent",
					"type": "event"
				},
				{
					"inputs": [
						{
							"internalType": "uint256",
							"name": "requestId",
							"type": "uint256"
						}
					],
					"name": "acceptRequest",
					"outputs": [],
					"stateMutability": "nonpayable",
					"type": "function"
				},
				{
					"inputs": [],
					"name": "getAllHouses",
					"outputs": [
						{
							"components": [
								{
									"internalType": "uint256",
									"name": "houseId",
									"type": "uint256"
								},
								{
									"internalType": "address",
									"name": "landlord",
									"type": "address"
								},
								{
									"internalType": "string",
									"name": "description",
									"type": "string"
								},
								{
									"internalType": "uint256",
									"name": "rentPerDay",
									"type": "uint256"
								},
								{
									"internalType": "uint256",
									"name": "deposit",
									"type": "uint256"
								},
								{
									"internalType": "uint256",
									"name": "paymentPeriod",
									"type": "uint256"
								},
								{
									"internalType": "uint256",
									"name": "minRentalPeriod",
									"type": "uint256"
								},
								{
									"internalType": "uint256",
									"name": "maxRentalPeriod",
									"type": "uint256"
								},
								{
									"internalType": "uint256",
									"name": "isAvailable",
									"type": "uint256"
								}
							],
							"internalType": "struct HouseRental.House[]",
							"name": "",
							"type": "tuple[]"
						}
					],
					"stateMutability": "view",
					"type": "function"
				},
				{
					"inputs": [],
					"name": "getRentalData",
					"outputs": [
						{
							"components": [
								{
									"internalType": "uint256",
									"name": "rentalId",
									"type": "uint256"
								},
								{
									"internalType": "address",
									"name": "tenant",
									"type": "address"
								},
								{
									"internalType": "uint256",
									"name": "houseId",
									"type": "uint256"
								},
								{
									"internalType": "uint256",
									"name": "startDate",
									"type": "uint256"
								},
								{
									"internalType": "uint256",
									"name": "endDate",
									"type": "uint256"
								},
								{
									"internalType": "uint256",
									"name": "dueDate",
									"type": "uint256"
								},
								{
									"internalType": "uint256",
									"name": "amountDue",
									"type": "uint256"
								},
								{
									"internalType": "uint256",
									"name": "totalAmountDue",
									"type": "uint256"
								},
								{
									"internalType": "uint256",
									"name": "isActive",
									"type": "uint256"
								}
							],
							"internalType": "struct HouseRental.Rental[]",
							"name": "",
							"type": "tuple[]"
						}
					],
					"stateMutability": "nonpayable",
					"type": "function"
				},
				{
					"inputs": [],
					"name": "getRequests",
					"outputs": [
						{
							"components": [
								{
									"internalType": "uint256",
									"name": "requestId",
									"type": "uint256"
								},
								{
									"internalType": "address",
									"name": "tenant",
									"type": "address"
								},
								{
									"internalType": "uint256",
									"name": "houseId",
									"type": "uint256"
								},
								{
									"internalType": "uint256",
									"name": "startDate",
									"type": "uint256"
								},
								{
									"internalType": "uint256",
									"name": "endDate",
									"type": "uint256"
								},
								{
									"internalType": "uint256",
									"name": "isAccepted",
									"type": "uint256"
								}
							],
							"internalType": "struct HouseRental.Request[]",
							"name": "",
							"type": "tuple[]"
						}
					],
					"stateMutability": "view",
					"type": "function"
				},
				{
					"inputs": [
						{
							"internalType": "uint256",
							"name": "",
							"type": "uint256"
						}
					],
					"name": "houses",
					"outputs": [
						{
							"internalType": "uint256",
							"name": "houseId",
							"type": "uint256"
						},
						{
							"internalType": "address",
							"name": "landlord",
							"type": "address"
						},
						{
							"internalType": "string",
							"name": "description",
							"type": "string"
						},
						{
							"internalType": "uint256",
							"name": "rentPerDay",
							"type": "uint256"
						},
						{
							"internalType": "uint256",
							"name": "deposit",
							"type": "uint256"
						},
						{
							"internalType": "uint256",
							"name": "paymentPeriod",
							"type": "uint256"
						},
						{
							"internalType": "uint256",
							"name": "minRentalPeriod",
							"type": "uint256"
						},
						{
							"internalType": "uint256",
							"name": "maxRentalPeriod",
							"type": "uint256"
						},
						{
							"internalType": "uint256",
							"name": "isAvailable",
							"type": "uint256"
						}
					],
					"stateMutability": "view",
					"type": "function"
				},
				{
					"inputs": [
						{
							"internalType": "address",
							"name": "",
							"type": "address"
						},
						{
							"internalType": "uint256",
							"name": "",
							"type": "uint256"
						}
					],
					"name": "landlordHouses",
					"outputs": [
						{
							"internalType": "uint256",
							"name": "houseId",
							"type": "uint256"
						},
						{
							"internalType": "address",
							"name": "landlord",
							"type": "address"
						},
						{
							"internalType": "string",
							"name": "description",
							"type": "string"
						},
						{
							"internalType": "uint256",
							"name": "rentPerDay",
							"type": "uint256"
						},
						{
							"internalType": "uint256",
							"name": "deposit",
							"type": "uint256"
						},
						{
							"internalType": "uint256",
							"name": "paymentPeriod",
							"type": "uint256"
						},
						{
							"internalType": "uint256",
							"name": "minRentalPeriod",
							"type": "uint256"
						},
						{
							"internalType": "uint256",
							"name": "maxRentalPeriod",
							"type": "uint256"
						},
						{
							"internalType": "uint256",
							"name": "isAvailable",
							"type": "uint256"
						}
					],
					"stateMutability": "view",
					"type": "function"
				},
				{
					"inputs": [
						{
							"internalType": "string",
							"name": "description",
							"type": "string"
						},
						{
							"internalType": "uint256",
							"name": "rentPerDay",
							"type": "uint256"
						},
						{
							"internalType": "uint256",
							"name": "deposit",
							"type": "uint256"
						},
						{
							"internalType": "uint256",
							"name": "paymentPeriod",
							"type": "uint256"
						},
						{
							"internalType": "uint256",
							"name": "minRentalPeriod",
							"type": "uint256"
						},
						{
							"internalType": "uint256",
							"name": "maxRentalPeriod",
							"type": "uint256"
						}
					],
					"name": "listHouse",
					"outputs": [],
					"stateMutability": "nonpayable",
					"type": "function"
				},
				{
					"inputs": [
						{
							"internalType": "uint256",
							"name": "rentalId",
							"type": "uint256"
						}
					],
					"name": "payRent",
					"outputs": [],
					"stateMutability": "payable",
					"type": "function"
				},
				{
					"inputs": [
						{
							"internalType": "uint256",
							"name": "requestId",
							"type": "uint256"
						},
						{
							"internalType": "uint256",
							"name": "houseId",
							"type": "uint256"
						},
						{
							"internalType": "uint256",
							"name": "startDate",
							"type": "uint256"
						},
						{
							"internalType": "uint256",
							"name": "endDate",
							"type": "uint256"
						}
					],
					"name": "rentHouse",
					"outputs": [],
					"stateMutability": "payable",
					"type": "function"
				},
				{
					"inputs": [
						{
							"internalType": "uint256",
							"name": "",
							"type": "uint256"
						}
					],
					"name": "rentals",
					"outputs": [
						{
							"internalType": "uint256",
							"name": "rentalId",
							"type": "uint256"
						},
						{
							"internalType": "address",
							"name": "tenant",
							"type": "address"
						},
						{
							"internalType": "uint256",
							"name": "houseId",
							"type": "uint256"
						},
						{
							"internalType": "uint256",
							"name": "startDate",
							"type": "uint256"
						},
						{
							"internalType": "uint256",
							"name": "endDate",
							"type": "uint256"
						},
						{
							"internalType": "uint256",
							"name": "dueDate",
							"type": "uint256"
						},
						{
							"internalType": "uint256",
							"name": "amountDue",
							"type": "uint256"
						},
						{
							"internalType": "uint256",
							"name": "totalAmountDue",
							"type": "uint256"
						},
						{
							"internalType": "uint256",
							"name": "isActive",
							"type": "uint256"
						}
					],
					"stateMutability": "view",
					"type": "function"
				},
				{
					"inputs": [
						{
							"internalType": "address",
							"name": "",
							"type": "address"
						},
						{
							"internalType": "uint256",
							"name": "",
							"type": "uint256"
						}
					],
					"name": "requests",
					"outputs": [
						{
							"internalType": "uint256",
							"name": "requestId",
							"type": "uint256"
						},
						{
							"internalType": "address",
							"name": "tenant",
							"type": "address"
						},
						{
							"internalType": "uint256",
							"name": "houseId",
							"type": "uint256"
						},
						{
							"internalType": "uint256",
							"name": "startDate",
							"type": "uint256"
						},
						{
							"internalType": "uint256",
							"name": "endDate",
							"type": "uint256"
						},
						{
							"internalType": "uint256",
							"name": "isAccepted",
							"type": "uint256"
						}
					],
					"stateMutability": "view",
					"type": "function"
				},
				{
					"inputs": [
						{
							"internalType": "uint256",
							"name": "houseId",
							"type": "uint256"
						},
						{
							"internalType": "uint256",
							"name": "startDate",
							"type": "uint256"
						},
						{
							"internalType": "uint256",
							"name": "endDate",
							"type": "uint256"
						}
					],
					"name": "sendRequest",
					"outputs": [],
					"stateMutability": "nonpayable",
					"type": "function"
				},
				{
					"inputs": [
						{
							"internalType": "address",
							"name": "",
							"type": "address"
						},
						{
							"internalType": "uint256",
							"name": "",
							"type": "uint256"
						}
					],
					"name": "tenantRentals",
					"outputs": [
						{
							"internalType": "uint256",
							"name": "rentalId",
							"type": "uint256"
						},
						{
							"internalType": "address",
							"name": "tenant",
							"type": "address"
						},
						{
							"internalType": "uint256",
							"name": "houseId",
							"type": "uint256"
						},
						{
							"internalType": "uint256",
							"name": "startDate",
							"type": "uint256"
						},
						{
							"internalType": "uint256",
							"name": "endDate",
							"type": "uint256"
						},
						{
							"internalType": "uint256",
							"name": "dueDate",
							"type": "uint256"
						},
						{
							"internalType": "uint256",
							"name": "amountDue",
							"type": "uint256"
						},
						{
							"internalType": "uint256",
							"name": "totalAmountDue",
							"type": "uint256"
						},
						{
							"internalType": "uint256",
							"name": "isActive",
							"type": "uint256"
						}
					],
					"stateMutability": "view",
					"type": "function"
				},
				{
					"inputs": [
						{
							"internalType": "address",
							"name": "tenant",
							"type": "address"
						}
					],
					"name": "updateRentalData",
					"outputs": [],
					"stateMutability": "nonpayable",
					"type": "function"
				}
			],
			"devdoc": {
				"kind": "dev",
				"methods": {},
				"version": 1
			},
			"evm": {
				"assembly": "    /* \"HomeConnect/HouseRental.sol\":62:6781  contract HouseRental {... */\n  mstore(0x40, 0x80)\n  callvalue\n  dup1\n  iszero\n  tag_1\n  jumpi\n  0x00\n  dup1\n  revert\ntag_1:\n  pop\n  dataSize(sub_0)\n  dup1\n  dataOffset(sub_0)\n  0x00\n  codecopy\n  0x00\n  return\nstop\n\nsub_0: assembly {\n        /* \"HomeConnect/HouseRental.sol\":62:6781  contract HouseRental {... */\n      mstore(0x40, 0x80)\n      jumpi(tag_1, lt(calldatasize, 0x04))\n      shr(0xe0, calldataload(0x00))\n      dup1\n      0x9ecebe2a\n      gt\n      tag_16\n      jumpi\n      dup1\n      0xb5c3005c\n      gt\n      tag_17\n      jumpi\n      dup1\n      0xb5c3005c\n      eq\n      tag_12\n      jumpi\n      dup1\n      0xd87deea8\n      eq\n      tag_13\n      jumpi\n      dup1\n      0xd9e8843f\n      eq\n      tag_14\n      jumpi\n      dup1\n      0xdc388605\n      eq\n      tag_15\n      jumpi\n      jump(tag_1)\n    tag_17:\n      dup1\n      0x9ecebe2a\n      eq\n      tag_9\n      jumpi\n      dup1\n      0xaeda852f\n      eq\n      tag_10\n      jumpi\n      dup1\n      0xaf94a1d1\n      eq\n      tag_11\n      jumpi\n      jump(tag_1)\n    tag_16:\n      dup1\n      0x4ba1f098\n      gt\n      tag_18\n      jumpi\n      dup1\n      0x4ba1f098\n      eq\n      tag_5\n      jumpi\n      dup1\n      0x7607d62f\n      eq\n      tag_6\n      jumpi\n      dup1\n      0x8813ce12\n      eq\n      tag_7\n      jumpi\n      dup1\n      0x8f7d8e73\n      eq\n      tag_8\n      jumpi\n      jump(tag_1)\n    tag_18:\n      dup1\n      0x296da249\n      eq\n      tag_2\n      jumpi\n      dup1\n      0x337a8e3c\n      eq\n      tag_3\n      jumpi\n      dup1\n      0x39e110e1\n      eq\n      tag_4\n      jumpi\n    tag_1:\n      0x00\n      dup1\n      revert\n        /* \"HomeConnect/HouseRental.sol\":1612:2272  function listHouse(string memory description, uint256 rentPerDay, uint256 deposit,... */\n    tag_2:\n      callvalue\n      dup1\n      iszero\n      tag_19\n      jumpi\n      0x00\n      dup1\n      revert\n    tag_19:\n      pop\n      tag_20\n      0x04\n      dup1\n      calldatasize\n      sub\n      dup2\n      add\n      swap1\n      tag_21\n      swap2\n      swap1\n      tag_22\n      jump\t// in\n    tag_21:\n      tag_23\n      jump\t// in\n    tag_20:\n      stop\n        /* \"HomeConnect/HouseRental.sol\":5003:6044  function updateRentalData(address tenant) public  {... */\n    tag_3:\n      callvalue\n      dup1\n      iszero\n      tag_24\n      jumpi\n      0x00\n      dup1\n      revert\n    tag_24:\n      pop\n      tag_25\n      0x04\n      dup1\n      calldatasize\n      sub\n      dup2\n      add\n      swap1\n      tag_26\n      swap2\n      swap1\n      tag_27\n      jump\t// in\n    tag_26:\n      tag_28\n      jump\t// in\n    tag_25:\n      stop\n        /* \"HomeConnect/HouseRental.sol\":950:999  mapping(address => House[]) public landlordHouses */\n    tag_4:\n      callvalue\n      dup1\n      iszero\n      tag_29\n      jumpi\n      0x00\n      dup1\n      revert\n    tag_29:\n      pop\n      tag_30\n      0x04\n      dup1\n      calldatasize\n      sub\n      dup2\n      add\n      swap1\n      tag_31\n      swap2\n      swap1\n      tag_32\n      jump\t// in\n    tag_31:\n      tag_33\n      jump\t// in\n    tag_30:\n      mload(0x40)\n      tag_34\n      swap10\n      swap9\n      swap8\n      swap7\n      swap6\n      swap5\n      swap4\n      swap3\n      swap2\n      swap1\n      tag_35\n      jump\t// in\n    tag_34:\n      mload(0x40)\n      dup1\n      swap2\n      sub\n      swap1\n      return\n        /* \"HomeConnect/HouseRental.sol\":3121:3547  function acceptRequest (uint256 requestId) public {... */\n    tag_5:\n      callvalue\n      dup1\n      iszero\n      tag_36\n      jumpi\n      0x00\n      dup1\n      revert\n    tag_36:\n      pop\n      tag_37\n      0x04\n      dup1\n      calldatasize\n      sub\n      dup2\n      add\n      swap1\n      tag_38\n      swap2\n      swap1\n      tag_39\n      jump\t// in\n    tag_38:\n      tag_40\n      jump\t// in\n    tag_37:\n      stop\n        /* \"HomeConnect/HouseRental.sol\":1006:1055  mapping(address => Rental[]) public tenantRentals */\n    tag_6:\n      callvalue\n      dup1\n      iszero\n      tag_41\n      jumpi\n      0x00\n      dup1\n      revert\n    tag_41:\n      pop\n      tag_42\n      0x04\n      dup1\n      calldatasize\n      sub\n      dup2\n      add\n      swap1\n      tag_43\n      swap2\n      swap1\n      tag_32\n      jump\t// in\n    tag_43:\n      tag_44\n      jump\t// in\n    tag_42:\n      mload(0x40)\n      tag_45\n      swap10\n      swap9\n      swap8\n      swap7\n      swap6\n      swap5\n      swap4\n      swap3\n      swap2\n      swap1\n      tag_46\n      jump\t// in\n    tag_45:\n      mload(0x40)\n      dup1\n      swap2\n      sub\n      swap1\n      return\n        /* \"HomeConnect/HouseRental.sol\":3013:3117  function getRequests () public view returns (Request[] memory) {... */\n    tag_7:\n      callvalue\n      dup1\n      iszero\n      tag_47\n      jumpi\n      0x00\n      dup1\n      revert\n    tag_47:\n      pop\n      tag_48\n      tag_49\n      jump\t// in\n    tag_48:\n      mload(0x40)\n      tag_50\n      swap2\n      swap1\n      tag_51\n      jump\t// in\n    tag_50:\n      mload(0x40)\n      dup1\n      swap2\n      sub\n      swap1\n      return\n        /* \"HomeConnect/HouseRental.sol\":3553:4999  function rentHouse(uint256 requestId, uint256 houseId, uint256 startDate, uint256 endDate) public payable {... */\n    tag_8:\n      tag_52\n      0x04\n      dup1\n      calldatasize\n      sub\n      dup2\n      add\n      swap1\n      tag_53\n      swap2\n      swap1\n      tag_54\n      jump\t// in\n    tag_53:\n      tag_55\n      jump\t// in\n    tag_52:\n      stop\n        /* \"HomeConnect/HouseRental.sol\":898:943  mapping(address => Request[]) public requests */\n    tag_9:\n      callvalue\n      dup1\n      iszero\n      tag_56\n      jumpi\n      0x00\n      dup1\n      revert\n    tag_56:\n      pop\n      tag_57\n      0x04\n      dup1\n      calldatasize\n      sub\n      dup2\n      add\n      swap1\n      tag_58\n      swap2\n      swap1\n      tag_32\n      jump\t// in\n    tag_58:\n      tag_59\n      jump\t// in\n    tag_57:\n      mload(0x40)\n      tag_60\n      swap7\n      swap6\n      swap5\n      swap4\n      swap3\n      swap2\n      swap1\n      tag_61\n      jump\t// in\n    tag_60:\n      mload(0x40)\n      dup1\n      swap2\n      sub\n      swap1\n      return\n        /* \"HomeConnect/HouseRental.sol\":840:861  House[] public houses */\n    tag_10:\n      callvalue\n      dup1\n      iszero\n      tag_62\n      jumpi\n      0x00\n      dup1\n      revert\n    tag_62:\n      pop\n      tag_63\n      0x04\n      dup1\n      calldatasize\n      sub\n      dup2\n      add\n      swap1\n      tag_64\n      swap2\n      swap1\n      tag_39\n      jump\t// in\n    tag_64:\n      tag_65\n      jump\t// in\n    tag_63:\n      mload(0x40)\n      tag_66\n      swap10\n      swap9\n      swap8\n      swap7\n      swap6\n      swap5\n      swap4\n      swap3\n      swap2\n      swap1\n      tag_35\n      jump\t// in\n    tag_66:\n      mload(0x40)\n      dup1\n      swap2\n      sub\n      swap1\n      return\n        /* \"HomeConnect/HouseRental.sol\":868:891  Rental[] public rentals */\n    tag_11:\n      callvalue\n      dup1\n      iszero\n      tag_67\n      jumpi\n      0x00\n      dup1\n      revert\n    tag_67:\n      pop\n      tag_68\n      0x04\n      dup1\n      calldatasize\n      sub\n      dup2\n      add\n      swap1\n      tag_69\n      swap2\n      swap1\n      tag_39\n      jump\t// in\n    tag_69:\n      tag_70\n      jump\t// in\n    tag_68:\n      mload(0x40)\n      tag_71\n      swap10\n      swap9\n      swap8\n      swap7\n      swap6\n      swap5\n      swap4\n      swap3\n      swap2\n      swap1\n      tag_46\n      jump\t// in\n    tag_71:\n      mload(0x40)\n      dup1\n      swap2\n      sub\n      swap1\n      return\n        /* \"HomeConnect/HouseRental.sol\":2388:3009  function  sendRequest (uint256 houseId,uint256 startDate, uint256 endDate) public {... */\n    tag_12:\n      callvalue\n      dup1\n      iszero\n      tag_72\n      jumpi\n      0x00\n      dup1\n      revert\n    tag_72:\n      pop\n      tag_73\n      0x04\n      dup1\n      calldatasize\n      sub\n      dup2\n      add\n      swap1\n      tag_74\n      swap2\n      swap1\n      tag_75\n      jump\t// in\n    tag_74:\n      tag_76\n      jump\t// in\n    tag_73:\n      stop\n        /* \"HomeConnect/HouseRental.sol\":2276:2362  function getAllHouses() public view returns(House[] memory){... */\n    tag_13:\n      callvalue\n      dup1\n      iszero\n      tag_77\n      jumpi\n      0x00\n      dup1\n      revert\n    tag_77:\n      pop\n      tag_78\n      tag_79\n      jump\t// in\n    tag_78:\n      mload(0x40)\n      tag_80\n      swap2\n      swap1\n      tag_81\n      jump\t// in\n    tag_80:\n      mload(0x40)\n      dup1\n      swap2\n      sub\n      swap1\n      return\n        /* \"HomeConnect/HouseRental.sol\":6189:6758  function payRent(uint256 rentalId) public payable {... */\n    tag_14:\n      tag_82\n      0x04\n      dup1\n      calldatasize\n      sub\n      dup2\n      add\n      swap1\n      tag_83\n      swap2\n      swap1\n      tag_39\n      jump\t// in\n    tag_83:\n      tag_84\n      jump\t// in\n    tag_82:\n      stop\n        /* \"HomeConnect/HouseRental.sol\":6048:6185  function getRentalData() public returns (Rental[] memory) {... */\n    tag_15:\n      callvalue\n      dup1\n      iszero\n      tag_85\n      jumpi\n      0x00\n      dup1\n      revert\n    tag_85:\n      pop\n      tag_86\n      tag_87\n      jump\t// in\n    tag_86:\n      mload(0x40)\n      tag_88\n      swap2\n      swap1\n      tag_89\n      jump\t// in\n    tag_88:\n      mload(0x40)\n      dup1\n      swap2\n      sub\n      swap1\n      return\n        /* \"HomeConnect/HouseRental.sol\":1612:2272  function listHouse(string memory description, uint256 rentPerDay, uint256 deposit,... */\n    tag_23:\n        /* \"HomeConnect/HouseRental.sol\":1800:1815  uint256 houseId */\n      0x00\n        /* \"HomeConnect/HouseRental.sol\":1818:1824  houses */\n      dup1\n        /* \"HomeConnect/HouseRental.sol\":1818:1831  houses.length */\n      dup1\n      sload\n      swap1\n      pop\n        /* \"HomeConnect/HouseRental.sol\":1800:1831  uint256 houseId = houses.length */\n      swap1\n      pop\n        /* \"HomeConnect/HouseRental.sol\":1839:1845  houses */\n      0x00\n        /* \"HomeConnect/HouseRental.sol\":1851:2168  House({... */\n      mload(0x40)\n      dup1\n      0x0120\n      add\n      0x40\n      mstore\n      dup1\n        /* \"HomeConnect/HouseRental.sol\":1877:1884  houseId */\n      dup4\n        /* \"HomeConnect/HouseRental.sol\":1851:2168  House({... */\n      dup2\n      mstore\n      0x20\n      add\n        /* \"HomeConnect/HouseRental.sol\":1905:1915  msg.sender */\n      caller\n        /* \"HomeConnect/HouseRental.sol\":1851:2168  House({... */\n      0xffffffffffffffffffffffffffffffffffffffff\n      and\n      dup2\n      mstore\n      0x20\n      add\n        /* \"HomeConnect/HouseRental.sol\":1939:1950  description */\n      dup10\n        /* \"HomeConnect/HouseRental.sol\":1851:2168  House({... */\n      dup2\n      mstore\n      0x20\n      add\n        /* \"HomeConnect/HouseRental.sol\":1973:1983  rentPerDay */\n      dup9\n        /* \"HomeConnect/HouseRental.sol\":1851:2168  House({... */\n      dup2\n      mstore\n      0x20\n      add\n        /* \"HomeConnect/HouseRental.sol\":2003:2010  deposit */\n      dup8\n        /* \"HomeConnect/HouseRental.sol\":1851:2168  House({... */\n      dup2\n      mstore\n      0x20\n      add\n        /* \"HomeConnect/HouseRental.sol\":2036:2049  paymentPeriod */\n      dup7\n        /* \"HomeConnect/HouseRental.sol\":1851:2168  House({... */\n      dup2\n      mstore\n      0x20\n      add\n        /* \"HomeConnect/HouseRental.sol\":2077:2092  minRentalPeriod */\n      dup6\n        /* \"HomeConnect/HouseRental.sol\":1851:2168  House({... */\n      dup2\n      mstore\n      0x20\n      add\n        /* \"HomeConnect/HouseRental.sol\":2120:2135  maxRentalPeriod */\n      dup5\n        /* \"HomeConnect/HouseRental.sol\":1851:2168  House({... */\n      dup2\n      mstore\n      0x20\n      add\n        /* \"HomeConnect/HouseRental.sol\":2159:2160  1 */\n      0x01\n        /* \"HomeConnect/HouseRental.sol\":1851:2168  House({... */\n      dup2\n      mstore\n      pop\n        /* \"HomeConnect/HouseRental.sol\":1839:2169  houses.push(House({... */\n      swap1\n      dup1\n      0x01\n      dup2\n      sload\n      add\n      dup1\n      dup3\n      sstore\n      dup1\n      swap2\n      pop\n      pop\n      0x01\n      swap1\n      sub\n      swap1\n      0x00\n      mstore\n      keccak256(0x00, 0x20)\n      swap1\n      0x09\n      mul\n      add\n      0x00\n      swap1\n      swap2\n      swap1\n      swap2\n      swap1\n      swap2\n      pop\n      0x00\n      dup3\n      add\n      mload\n      dup2\n      0x00\n      add\n      sstore\n      0x20\n      dup3\n      add\n      mload\n      dup2\n      0x01\n      add\n      exp(0x0100, 0x00)\n      dup2\n      sload\n      dup2\n      0xffffffffffffffffffffffffffffffffffffffff\n      mul\n      not\n      and\n      swap1\n      dup4\n      0xffffffffffffffffffffffffffffffffffffffff\n      and\n      mul\n      or\n      swap1\n      sstore\n      pop\n      0x40\n      dup3\n      add\n      mload\n      dup2\n      0x02\n      add\n      swap1\n      dup2\n      tag_92\n      swap2\n      swap1\n      tag_93\n      jump\t// in\n    tag_92:\n      pop\n      0x60\n      dup3\n      add\n      mload\n      dup2\n      0x03\n      add\n      sstore\n      0x80\n      dup3\n      add\n      mload\n      dup2\n      0x04\n      add\n      sstore\n      0xa0\n      dup3\n      add\n      mload\n      dup2\n      0x05\n      add\n      sstore\n      0xc0\n      dup3\n      add\n      mload\n      dup2\n      0x06\n      add\n      sstore\n      0xe0\n      dup3\n      add\n      mload\n      dup2\n      0x07\n      add\n      sstore\n      0x0100\n      dup3\n      add\n      mload\n      dup2\n      0x08\n      add\n      sstore\n      pop\n      pop\n        /* \"HomeConnect/HouseRental.sol\":2176:2190  landlordHouses */\n      0x03\n        /* \"HomeConnect/HouseRental.sol\":2176:2202  landlordHouses[msg.sender] */\n      0x00\n        /* \"HomeConnect/HouseRental.sol\":2191:2201  msg.sender */\n      caller\n        /* \"HomeConnect/HouseRental.sol\":2176:2202  landlordHouses[msg.sender] */\n      0xffffffffffffffffffffffffffffffffffffffff\n      and\n      0xffffffffffffffffffffffffffffffffffffffff\n      and\n      dup2\n      mstore\n      0x20\n      add\n      swap1\n      dup2\n      mstore\n      0x20\n      add\n      0x00\n      keccak256\n        /* \"HomeConnect/HouseRental.sol\":2208:2214  houses */\n      0x00\n        /* \"HomeConnect/HouseRental.sol\":2215:2222  houseId */\n      dup3\n        /* \"HomeConnect/HouseRental.sol\":2208:2223  houses[houseId] */\n      dup2\n      sload\n      dup2\n      lt\n      tag_94\n      jumpi\n      tag_95\n      tag_96\n      jump\t// in\n    tag_95:\n    tag_94:\n      swap1\n      0x00\n      mstore\n      keccak256(0x00, 0x20)\n      swap1\n      0x09\n      mul\n      add\n        /* \"HomeConnect/HouseRental.sol\":2176:2224  landlordHouses[msg.sender].push(houses[houseId]) */\n      swap1\n      dup1\n      0x01\n      dup2\n      sload\n      add\n      dup1\n      dup3\n      sstore\n      dup1\n      swap2\n      pop\n      pop\n      0x01\n      swap1\n      sub\n      swap1\n      0x00\n      mstore\n      keccak256(0x00, 0x20)\n      swap1\n      0x09\n      mul\n      add\n      0x00\n      swap1\n      swap2\n      swap1\n      swap2\n      swap1\n      swap2\n      pop\n      0x00\n      dup3\n      add\n      sload\n      dup2\n      0x00\n      add\n      sstore\n      0x01\n      dup3\n      add\n      0x00\n      swap1\n      sload\n      swap1\n      0x0100\n      exp\n      swap1\n      div\n      0xffffffffffffffffffffffffffffffffffffffff\n      and\n      dup2\n      0x01\n      add\n      exp(0x0100, 0x00)\n      dup2\n      sload\n      dup2\n      0xffffffffffffffffffffffffffffffffffffffff\n      mul\n      not\n      and\n      swap1\n      dup4\n      0xffffffffffffffffffffffffffffffffffffffff\n      and\n      mul\n      or\n      swap1\n      sstore\n      pop\n      0x02\n      dup3\n      add\n      dup2\n      0x02\n      add\n      swap1\n      dup2\n      tag_99\n      swap2\n      swap1\n      tag_100\n      jump\t// in\n    tag_99:\n      pop\n      0x03\n      dup3\n      add\n      sload\n      dup2\n      0x03\n      add\n      sstore\n      0x04\n      dup3\n      add\n      sload\n      dup2\n      0x04\n      add\n      sstore\n      0x05\n      dup3\n      add\n      sload\n      dup2\n      0x05\n      add\n      sstore\n      0x06\n      dup3\n      add\n      sload\n      dup2\n      0x06\n      add\n      sstore\n      0x07\n      dup3\n      add\n      sload\n      dup2\n      0x07\n      add\n      sstore\n      0x08\n      dup3\n      add\n      sload\n      dup2\n      0x08\n      add\n      sstore\n      pop\n      pop\n        /* \"HomeConnect/HouseRental.sol\":2236:2268  HouseListed(houseId, msg.sender) */\n      0x940aaeb497467fb446ec8c9138170d69447f46abda147045ef232ebf4515229f\n        /* \"HomeConnect/HouseRental.sol\":2248:2255  houseId */\n      dup2\n        /* \"HomeConnect/HouseRental.sol\":2257:2267  msg.sender */\n      caller\n        /* \"HomeConnect/HouseRental.sol\":2236:2268  HouseListed(houseId, msg.sender) */\n      mload(0x40)\n      tag_101\n      swap3\n      swap2\n      swap1\n      tag_102\n      jump\t// in\n    tag_101:\n      mload(0x40)\n      dup1\n      swap2\n      sub\n      swap1\n      log1\n        /* \"HomeConnect/HouseRental.sol\":1793:2272  {... */\n      pop\n        /* \"HomeConnect/HouseRental.sol\":1612:2272  function listHouse(string memory description, uint256 rentPerDay, uint256 deposit,... */\n      pop\n      pop\n      pop\n      pop\n      pop\n      pop\n      jump\t// out\n        /* \"HomeConnect/HouseRental.sol\":5003:6044  function updateRentalData(address tenant) public  {... */\n    tag_28:\n        /* \"HomeConnect/HouseRental.sol\":5060:5079  uint256 currentDate */\n      0x00\n        /* \"HomeConnect/HouseRental.sol\":5082:5097  block.timestamp */\n      timestamp\n        /* \"HomeConnect/HouseRental.sol\":5060:5097  uint256 currentDate = block.timestamp */\n      swap1\n      pop\n        /* \"HomeConnect/HouseRental.sol\":5111:5120  uint256 i */\n      0x00\n        /* \"HomeConnect/HouseRental.sol\":5106:6036  for (uint256 i = 0; i < tenantRentals[tenant].length; i++) {... */\n    tag_104:\n        /* \"HomeConnect/HouseRental.sol\":5130:5143  tenantRentals */\n      0x04\n        /* \"HomeConnect/HouseRental.sol\":5130:5151  tenantRentals[tenant] */\n      0x00\n        /* \"HomeConnect/HouseRental.sol\":5144:5150  tenant */\n      dup5\n        /* \"HomeConnect/HouseRental.sol\":5130:5151  tenantRentals[tenant] */\n      0xffffffffffffffffffffffffffffffffffffffff\n      and\n      0xffffffffffffffffffffffffffffffffffffffff\n      and\n      dup2\n      mstore\n      0x20\n      add\n      swap1\n      dup2\n      mstore\n      0x20\n      add\n      0x00\n      keccak256\n        /* \"HomeConnect/HouseRental.sol\":5130:5158  tenantRentals[tenant].length */\n      dup1\n      sload\n      swap1\n      pop\n        /* \"HomeConnect/HouseRental.sol\":5126:5127  i */\n      dup2\n        /* \"HomeConnect/HouseRental.sol\":5126:5158  i < tenantRentals[tenant].length */\n      lt\n        /* \"HomeConnect/HouseRental.sol\":5106:6036  for (uint256 i = 0; i < tenantRentals[tenant].length; i++) {... */\n      iszero\n      tag_105\n      jumpi\n        /* \"HomeConnect/HouseRental.sol\":5216:5217  1 */\n      0x01\n        /* \"HomeConnect/HouseRental.sol\":5181:5194  tenantRentals */\n      0x04\n        /* \"HomeConnect/HouseRental.sol\":5181:5202  tenantRentals[tenant] */\n      0x00\n        /* \"HomeConnect/HouseRental.sol\":5195:5201  tenant */\n      dup6\n        /* \"HomeConnect/HouseRental.sol\":5181:5202  tenantRentals[tenant] */\n      0xffffffffffffffffffffffffffffffffffffffff\n      and\n      0xffffffffffffffffffffffffffffffffffffffff\n      and\n      dup2\n      mstore\n      0x20\n      add\n      swap1\n      dup2\n      mstore\n      0x20\n      add\n      0x00\n      keccak256\n        /* \"HomeConnect/HouseRental.sol\":5203:5204  i */\n      dup3\n        /* \"HomeConnect/HouseRental.sol\":5181:5205  tenantRentals[tenant][i] */\n      dup2\n      sload\n      dup2\n      lt\n      tag_107\n      jumpi\n      tag_108\n      tag_96\n      jump\t// in\n    tag_108:\n    tag_107:\n      swap1\n      0x00\n      mstore\n      keccak256(0x00, 0x20)\n      swap1\n      0x09\n      mul\n      add\n        /* \"HomeConnect/HouseRental.sol\":5181:5214  tenantRentals[tenant][i].isActive */\n      0x08\n      add\n      sload\n        /* \"HomeConnect/HouseRental.sol\":5181:5217  tenantRentals[tenant][i].isActive==1 */\n      sub\n        /* \"HomeConnect/HouseRental.sol\":5178:6029  if(tenantRentals[tenant][i].isActive==1){... */\n      tag_110\n      jumpi\n        /* \"HomeConnect/HouseRental.sol\":5233:5248  uint256 dueDate */\n      0x00\n        /* \"HomeConnect/HouseRental.sol\":5251:5264  tenantRentals */\n      0x04\n        /* \"HomeConnect/HouseRental.sol\":5251:5272  tenantRentals[tenant] */\n      0x00\n        /* \"HomeConnect/HouseRental.sol\":5265:5271  tenant */\n      dup6\n        /* \"HomeConnect/HouseRental.sol\":5251:5272  tenantRentals[tenant] */\n      0xffffffffffffffffffffffffffffffffffffffff\n      and\n      0xffffffffffffffffffffffffffffffffffffffff\n      and\n      dup2\n      mstore\n      0x20\n      add\n      swap1\n      dup2\n      mstore\n      0x20\n      add\n      0x00\n      keccak256\n        /* \"HomeConnect/HouseRental.sol\":5273:5274  i */\n      dup3\n        /* \"HomeConnect/HouseRental.sol\":5251:5275  tenantRentals[tenant][i] */\n      dup2\n      sload\n      dup2\n      lt\n      tag_111\n      jumpi\n      tag_112\n      tag_96\n      jump\t// in\n    tag_112:\n    tag_111:\n      swap1\n      0x00\n      mstore\n      keccak256(0x00, 0x20)\n      swap1\n      0x09\n      mul\n      add\n        /* \"HomeConnect/HouseRental.sol\":5251:5283  tenantRentals[tenant][i].dueDate */\n      0x05\n      add\n      sload\n        /* \"HomeConnect/HouseRental.sol\":5233:5283  uint256 dueDate = tenantRentals[tenant][i].dueDate */\n      swap1\n      pop\n        /* \"HomeConnect/HouseRental.sol\":5312:6018  while(currentDate > dueDate){... */\n    tag_114:\n        /* \"HomeConnect/HouseRental.sol\":5332:5339  dueDate */\n      dup1\n        /* \"HomeConnect/HouseRental.sol\":5318:5329  currentDate */\n      dup4\n        /* \"HomeConnect/HouseRental.sol\":5318:5339  currentDate > dueDate */\n      gt\n        /* \"HomeConnect/HouseRental.sol\":5312:6018  while(currentDate > dueDate){... */\n      iszero\n      tag_115\n      jumpi\n        /* \"HomeConnect/HouseRental.sol\":5359:5379  Rental memory rental */\n      0x00\n        /* \"HomeConnect/HouseRental.sol\":5382:5395  tenantRentals */\n      0x04\n        /* \"HomeConnect/HouseRental.sol\":5382:5403  tenantRentals[tenant] */\n      0x00\n        /* \"HomeConnect/HouseRental.sol\":5396:5402  tenant */\n      dup7\n        /* \"HomeConnect/HouseRental.sol\":5382:5403  tenantRentals[tenant] */\n      0xffffffffffffffffffffffffffffffffffffffff\n      and\n      0xffffffffffffffffffffffffffffffffffffffff\n      and\n      dup2\n      mstore\n      0x20\n      add\n      swap1\n      dup2\n      mstore\n      0x20\n      add\n      0x00\n      keccak256\n        /* \"HomeConnect/HouseRental.sol\":5404:5405  i */\n      dup4\n        /* \"HomeConnect/HouseRental.sol\":5382:5406  tenantRentals[tenant][i] */\n      dup2\n      sload\n      dup2\n      lt\n      tag_116\n      jumpi\n      tag_117\n      tag_96\n      jump\t// in\n    tag_117:\n    tag_116:\n      swap1\n      0x00\n      mstore\n      keccak256(0x00, 0x20)\n      swap1\n      0x09\n      mul\n      add\n        /* \"HomeConnect/HouseRental.sol\":5359:5406  Rental memory rental = tenantRentals[tenant][i] */\n      mload(0x40)\n      dup1\n      0x0120\n      add\n      0x40\n      mstore\n      swap1\n      dup2\n      0x00\n      dup3\n      add\n      sload\n      dup2\n      mstore\n      0x20\n      add\n      0x01\n      dup3\n      add\n      0x00\n      swap1\n      sload\n      swap1\n      0x0100\n      exp\n      swap1\n      div\n      0xffffffffffffffffffffffffffffffffffffffff\n      and\n      0xffffffffffffffffffffffffffffffffffffffff\n      and\n      0xffffffffffffffffffffffffffffffffffffffff\n      and\n      dup2\n      mstore\n      0x20\n      add\n      0x02\n      dup3\n      add\n      sload\n      dup2\n      mstore\n      0x20\n      add\n      0x03\n      dup3\n      add\n      sload\n      dup2\n      mstore\n      0x20\n      add\n      0x04\n      dup3\n      add\n      sload\n      dup2\n      mstore\n      0x20\n      add\n      0x05\n      dup3\n      add\n      sload\n      dup2\n      mstore\n      0x20\n      add\n      0x06\n      dup3\n      add\n      sload\n      dup2\n      mstore\n      0x20\n      add\n      0x07\n      dup3\n      add\n      sload\n      dup2\n      mstore\n      0x20\n      add\n      0x08\n      dup3\n      add\n      sload\n      dup2\n      mstore\n      pop\n      pop\n      swap1\n      pop\n        /* \"HomeConnect/HouseRental.sol\":5425:5440  uint256 houseId */\n      0x00\n        /* \"HomeConnect/HouseRental.sol\":5443:5449  rental */\n      dup2\n        /* \"HomeConnect/HouseRental.sol\":5443:5457  rental.houseId */\n      0x40\n      add\n      mload\n        /* \"HomeConnect/HouseRental.sol\":5425:5457  uint256 houseId = rental.houseId */\n      swap1\n      pop\n        /* \"HomeConnect/HouseRental.sol\":5476:5497  uint256 paymentPeriod */\n      0x00\n        /* \"HomeConnect/HouseRental.sol\":5500:5506  houses */\n      dup1\n        /* \"HomeConnect/HouseRental.sol\":5507:5514  houseId */\n      dup3\n        /* \"HomeConnect/HouseRental.sol\":5500:5515  houses[houseId] */\n      dup2\n      sload\n      dup2\n      lt\n      tag_119\n      jumpi\n      tag_120\n      tag_96\n      jump\t// in\n    tag_120:\n    tag_119:\n      swap1\n      0x00\n      mstore\n      keccak256(0x00, 0x20)\n      swap1\n      0x09\n      mul\n      add\n        /* \"HomeConnect/HouseRental.sol\":5500:5529  houses[houseId].paymentPeriod */\n      0x05\n      add\n      sload\n        /* \"HomeConnect/HouseRental.sol\":5476:5529  uint256 paymentPeriod = houses[houseId].paymentPeriod */\n      swap1\n      pop\n        /* \"HomeConnect/HouseRental.sol\":5548:5566  uint256 rentPerDay */\n      0x00\n        /* \"HomeConnect/HouseRental.sol\":5569:5575  houses */\n      dup1\n        /* \"HomeConnect/HouseRental.sol\":5576:5583  houseId */\n      dup4\n        /* \"HomeConnect/HouseRental.sol\":5569:5584  houses[houseId] */\n      dup2\n      sload\n      dup2\n      lt\n      tag_122\n      jumpi\n      tag_123\n      tag_96\n      jump\t// in\n    tag_123:\n    tag_122:\n      swap1\n      0x00\n      mstore\n      keccak256(0x00, 0x20)\n      swap1\n      0x09\n      mul\n      add\n        /* \"HomeConnect/HouseRental.sol\":5569:5595  houses[houseId].rentPerDay */\n      0x03\n      add\n      sload\n        /* \"HomeConnect/HouseRental.sol\":5548:5595  uint256 rentPerDay = houses[houseId].rentPerDay */\n      swap1\n      pop\n        /* \"HomeConnect/HouseRental.sol\":5663:5668  86400 */\n      0x015180\n        /* \"HomeConnect/HouseRental.sol\":5649:5662  paymentPeriod */\n      dup3\n        /* \"HomeConnect/HouseRental.sol\":5649:5668  paymentPeriod*86400 */\n      tag_125\n      swap2\n      swap1\n      tag_126\n      jump\t// in\n    tag_125:\n        /* \"HomeConnect/HouseRental.sol\":5614:5627  tenantRentals */\n      0x04\n        /* \"HomeConnect/HouseRental.sol\":5614:5635  tenantRentals[tenant] */\n      0x00\n        /* \"HomeConnect/HouseRental.sol\":5628:5634  tenant */\n      dup11\n        /* \"HomeConnect/HouseRental.sol\":5614:5635  tenantRentals[tenant] */\n      0xffffffffffffffffffffffffffffffffffffffff\n      and\n      0xffffffffffffffffffffffffffffffffffffffff\n      and\n      dup2\n      mstore\n      0x20\n      add\n      swap1\n      dup2\n      mstore\n      0x20\n      add\n      0x00\n      keccak256\n        /* \"HomeConnect/HouseRental.sol\":5636:5637  i */\n      dup8\n        /* \"HomeConnect/HouseRental.sol\":5614:5638  tenantRentals[tenant][i] */\n      dup2\n      sload\n      dup2\n      lt\n      tag_127\n      jumpi\n      tag_128\n      tag_96\n      jump\t// in\n    tag_128:\n    tag_127:\n      swap1\n      0x00\n      mstore\n      keccak256(0x00, 0x20)\n      swap1\n      0x09\n      mul\n      add\n        /* \"HomeConnect/HouseRental.sol\":5614:5646  tenantRentals[tenant][i].dueDate */\n      0x05\n      add\n      0x00\n        /* \"HomeConnect/HouseRental.sol\":5614:5668  tenantRentals[tenant][i].dueDate+= paymentPeriod*86400 */\n      dup3\n      dup3\n      sload\n      tag_130\n      swap2\n      swap1\n      tag_131\n      jump\t// in\n    tag_130:\n      swap3\n      pop\n      pop\n      dup2\n      swap1\n      sstore\n      pop\n        /* \"HomeConnect/HouseRental.sol\":5738:5748  rentPerDay */\n      dup1\n        /* \"HomeConnect/HouseRental.sol\":5724:5737  paymentPeriod */\n      dup3\n        /* \"HomeConnect/HouseRental.sol\":5724:5748  paymentPeriod*rentPerDay */\n      tag_132\n      swap2\n      swap1\n      tag_126\n      jump\t// in\n    tag_132:\n        /* \"HomeConnect/HouseRental.sol\":5687:5700  tenantRentals */\n      0x04\n        /* \"HomeConnect/HouseRental.sol\":5687:5708  tenantRentals[tenant] */\n      0x00\n        /* \"HomeConnect/HouseRental.sol\":5701:5707  tenant */\n      dup11\n        /* \"HomeConnect/HouseRental.sol\":5687:5708  tenantRentals[tenant] */\n      0xffffffffffffffffffffffffffffffffffffffff\n      and\n      0xffffffffffffffffffffffffffffffffffffffff\n      and\n      dup2\n      mstore\n      0x20\n      add\n      swap1\n      dup2\n      mstore\n      0x20\n      add\n      0x00\n      keccak256\n        /* \"HomeConnect/HouseRental.sol\":5709:5710  i */\n      dup8\n        /* \"HomeConnect/HouseRental.sol\":5687:5711  tenantRentals[tenant][i] */\n      dup2\n      sload\n      dup2\n      lt\n      tag_133\n      jumpi\n      tag_134\n      tag_96\n      jump\t// in\n    tag_134:\n    tag_133:\n      swap1\n      0x00\n      mstore\n      keccak256(0x00, 0x20)\n      swap1\n      0x09\n      mul\n      add\n        /* \"HomeConnect/HouseRental.sol\":5687:5721  tenantRentals[tenant][i].amountDue */\n      0x06\n      add\n      0x00\n        /* \"HomeConnect/HouseRental.sol\":5687:5748  tenantRentals[tenant][i].amountDue+= paymentPeriod*rentPerDay */\n      dup3\n      dup3\n      sload\n      tag_136\n      swap2\n      swap1\n      tag_131\n      jump\t// in\n    tag_136:\n      swap3\n      pop\n      pop\n      dup2\n      swap1\n      sstore\n      pop\n        /* \"HomeConnect/HouseRental.sol\":5803:5816  tenantRentals */\n      0x04\n        /* \"HomeConnect/HouseRental.sol\":5803:5824  tenantRentals[tenant] */\n      0x00\n        /* \"HomeConnect/HouseRental.sol\":5817:5823  tenant */\n      dup10\n        /* \"HomeConnect/HouseRental.sol\":5803:5824  tenantRentals[tenant] */\n      0xffffffffffffffffffffffffffffffffffffffff\n      and\n      0xffffffffffffffffffffffffffffffffffffffff\n      and\n      dup2\n      mstore\n      0x20\n      add\n      swap1\n      dup2\n      mstore\n      0x20\n      add\n      0x00\n      keccak256\n        /* \"HomeConnect/HouseRental.sol\":5825:5826  i */\n      dup7\n        /* \"HomeConnect/HouseRental.sol\":5803:5827  tenantRentals[tenant][i] */\n      dup2\n      sload\n      dup2\n      lt\n      tag_137\n      jumpi\n      tag_138\n      tag_96\n      jump\t// in\n    tag_138:\n    tag_137:\n      swap1\n      0x00\n      mstore\n      keccak256(0x00, 0x20)\n      swap1\n      0x09\n      mul\n      add\n        /* \"HomeConnect/HouseRental.sol\":5803:5835  tenantRentals[tenant][i].endDate */\n      0x04\n      add\n      sload\n        /* \"HomeConnect/HouseRental.sol\":5770:5783  tenantRentals */\n      0x04\n        /* \"HomeConnect/HouseRental.sol\":5770:5791  tenantRentals[tenant] */\n      0x00\n        /* \"HomeConnect/HouseRental.sol\":5784:5790  tenant */\n      dup11\n        /* \"HomeConnect/HouseRental.sol\":5770:5791  tenantRentals[tenant] */\n      0xffffffffffffffffffffffffffffffffffffffff\n      and\n      0xffffffffffffffffffffffffffffffffffffffff\n      and\n      dup2\n      mstore\n      0x20\n      add\n      swap1\n      dup2\n      mstore\n      0x20\n      add\n      0x00\n      keccak256\n        /* \"HomeConnect/HouseRental.sol\":5792:5793  i */\n      dup8\n        /* \"HomeConnect/HouseRental.sol\":5770:5794  tenantRentals[tenant][i] */\n      dup2\n      sload\n      dup2\n      lt\n      tag_140\n      jumpi\n      tag_141\n      tag_96\n      jump\t// in\n    tag_141:\n    tag_140:\n      swap1\n      0x00\n      mstore\n      keccak256(0x00, 0x20)\n      swap1\n      0x09\n      mul\n      add\n        /* \"HomeConnect/HouseRental.sol\":5770:5802  tenantRentals[tenant][i].dueDate */\n      0x05\n      add\n      sload\n        /* \"HomeConnect/HouseRental.sol\":5770:5835  tenantRentals[tenant][i].dueDate>tenantRentals[tenant][i].endDate */\n      gt\n        /* \"HomeConnect/HouseRental.sol\":5767:5942  if(tenantRentals[tenant][i].dueDate>tenantRentals[tenant][i].endDate){... */\n      iszero\n      tag_143\n      jumpi\n        /* \"HomeConnect/HouseRental.sol\":5893:5894  0 */\n      0x00\n        /* \"HomeConnect/HouseRental.sol\":5859:5872  tenantRentals */\n      0x04\n        /* \"HomeConnect/HouseRental.sol\":5859:5880  tenantRentals[tenant] */\n      0x00\n        /* \"HomeConnect/HouseRental.sol\":5873:5879  tenant */\n      dup11\n        /* \"HomeConnect/HouseRental.sol\":5859:5880  tenantRentals[tenant] */\n      0xffffffffffffffffffffffffffffffffffffffff\n      and\n      0xffffffffffffffffffffffffffffffffffffffff\n      and\n      dup2\n      mstore\n      0x20\n      add\n      swap1\n      dup2\n      mstore\n      0x20\n      add\n      0x00\n      keccak256\n        /* \"HomeConnect/HouseRental.sol\":5881:5882  i */\n      dup8\n        /* \"HomeConnect/HouseRental.sol\":5859:5883  tenantRentals[tenant][i] */\n      dup2\n      sload\n      dup2\n      lt\n      tag_144\n      jumpi\n      tag_145\n      tag_96\n      jump\t// in\n    tag_145:\n    tag_144:\n      swap1\n      0x00\n      mstore\n      keccak256(0x00, 0x20)\n      swap1\n      0x09\n      mul\n      add\n        /* \"HomeConnect/HouseRental.sol\":5859:5892  tenantRentals[tenant][i].isActive */\n      0x08\n      add\n        /* \"HomeConnect/HouseRental.sol\":5859:5894  tenantRentals[tenant][i].isActive=0 */\n      dup2\n      swap1\n      sstore\n      pop\n        /* \"HomeConnect/HouseRental.sol\":5917:5922  break */\n      pop\n      pop\n      pop\n      pop\n      jump(tag_115)\n        /* \"HomeConnect/HouseRental.sol\":5767:5942  if(tenantRentals[tenant][i].dueDate>tenantRentals[tenant][i].endDate){... */\n    tag_143:\n        /* \"HomeConnect/HouseRental.sol\":5970:5983  tenantRentals */\n      0x04\n        /* \"HomeConnect/HouseRental.sol\":5970:5991  tenantRentals[tenant] */\n      0x00\n        /* \"HomeConnect/HouseRental.sol\":5984:5990  tenant */\n      dup10\n        /* \"HomeConnect/HouseRental.sol\":5970:5991  tenantRentals[tenant] */\n      0xffffffffffffffffffffffffffffffffffffffff\n      and\n      0xffffffffffffffffffffffffffffffffffffffff\n      and\n      dup2\n      mstore\n      0x20\n      add\n      swap1\n      dup2\n      mstore\n      0x20\n      add\n      0x00\n      keccak256\n        /* \"HomeConnect/HouseRental.sol\":5992:5993  i */\n      dup7\n        /* \"HomeConnect/HouseRental.sol\":5970:5994  tenantRentals[tenant][i] */\n      dup2\n      sload\n      dup2\n      lt\n      tag_147\n      jumpi\n      tag_148\n      tag_96\n      jump\t// in\n    tag_148:\n    tag_147:\n      swap1\n      0x00\n      mstore\n      keccak256(0x00, 0x20)\n      swap1\n      0x09\n      mul\n      add\n        /* \"HomeConnect/HouseRental.sol\":5970:6002  tenantRentals[tenant][i].dueDate */\n      0x05\n      add\n      sload\n        /* \"HomeConnect/HouseRental.sol\":5960:6002  dueDate = tenantRentals[tenant][i].dueDate */\n      swap5\n      pop\n        /* \"HomeConnect/HouseRental.sol\":5340:6018  {... */\n      pop\n      pop\n      pop\n      pop\n        /* \"HomeConnect/HouseRental.sol\":5312:6018  while(currentDate > dueDate){... */\n      jump(tag_114)\n    tag_115:\n        /* \"HomeConnect/HouseRental.sol\":5218:6029  {... */\n      pop\n        /* \"HomeConnect/HouseRental.sol\":5178:6029  if(tenantRentals[tenant][i].isActive==1){... */\n    tag_110:\n        /* \"HomeConnect/HouseRental.sol\":5160:5163  i++ */\n      dup1\n      dup1\n      0x01\n      add\n      swap2\n      pop\n      pop\n        /* \"HomeConnect/HouseRental.sol\":5106:6036  for (uint256 i = 0; i < tenantRentals[tenant].length; i++) {... */\n      jump(tag_104)\n    tag_105:\n      pop\n        /* \"HomeConnect/HouseRental.sol\":5053:6044  {... */\n      pop\n        /* \"HomeConnect/HouseRental.sol\":5003:6044  function updateRentalData(address tenant) public  {... */\n      pop\n      jump\t// out\n        /* \"HomeConnect/HouseRental.sol\":950:999  mapping(address => House[]) public landlordHouses */\n    tag_33:\n      mstore(0x20, 0x03)\n      dup2\n      0x00\n      mstore\n      keccak256(0x00, 0x40)\n      dup2\n      dup2\n      sload\n      dup2\n      lt\n      tag_150\n      jumpi\n      0x00\n      dup1\n      revert\n    tag_150:\n      swap1\n      0x00\n      mstore\n      keccak256(0x00, 0x20)\n      swap1\n      0x09\n      mul\n      add\n      0x00\n      swap2\n      pop\n      swap2\n      pop\n      pop\n      dup1\n      0x00\n      add\n      sload\n      swap1\n      dup1\n      0x01\n      add\n      0x00\n      swap1\n      sload\n      swap1\n      0x0100\n      exp\n      swap1\n      div\n      0xffffffffffffffffffffffffffffffffffffffff\n      and\n      swap1\n      dup1\n      0x02\n      add\n      dup1\n      sload\n      tag_152\n      swap1\n      tag_153\n      jump\t// in\n    tag_152:\n      dup1\n      0x1f\n      add\n      0x20\n      dup1\n      swap2\n      div\n      mul\n      0x20\n      add\n      mload(0x40)\n      swap1\n      dup2\n      add\n      0x40\n      mstore\n      dup1\n      swap3\n      swap2\n      swap1\n      dup2\n      dup2\n      mstore\n      0x20\n      add\n      dup3\n      dup1\n      sload\n      tag_154\n      swap1\n      tag_153\n      jump\t// in\n    tag_154:\n      dup1\n      iszero\n      tag_155\n      jumpi\n      dup1\n      0x1f\n      lt\n      tag_156\n      jumpi\n      0x0100\n      dup1\n      dup4\n      sload\n      div\n      mul\n      dup4\n      mstore\n      swap2\n      0x20\n      add\n      swap2\n      jump(tag_155)\n    tag_156:\n      dup3\n      add\n      swap2\n      swap1\n      0x00\n      mstore\n      keccak256(0x00, 0x20)\n      swap1\n    tag_157:\n      dup2\n      sload\n      dup2\n      mstore\n      swap1\n      0x01\n      add\n      swap1\n      0x20\n      add\n      dup1\n      dup4\n      gt\n      tag_157\n      jumpi\n      dup3\n      swap1\n      sub\n      0x1f\n      and\n      dup3\n      add\n      swap2\n    tag_155:\n      pop\n      pop\n      pop\n      pop\n      pop\n      swap1\n      dup1\n      0x03\n      add\n      sload\n      swap1\n      dup1\n      0x04\n      add\n      sload\n      swap1\n      dup1\n      0x05\n      add\n      sload\n      swap1\n      dup1\n      0x06\n      add\n      sload\n      swap1\n      dup1\n      0x07\n      add\n      sload\n      swap1\n      dup1\n      0x08\n      add\n      sload\n      swap1\n      pop\n      dup10\n      jump\t// out\n        /* \"HomeConnect/HouseRental.sol\":3121:3547  function acceptRequest (uint256 requestId) public {... */\n    tag_40:\n        /* \"HomeConnect/HouseRental.sol\":3178:3193  uint256 houseId */\n      0x00\n        /* \"HomeConnect/HouseRental.sol\":3196:3204  requests */\n      0x02\n        /* \"HomeConnect/HouseRental.sol\":3196:3216  requests[msg.sender] */\n      0x00\n        /* \"HomeConnect/HouseRental.sol\":3205:3215  msg.sender */\n      caller\n        /* \"HomeConnect/HouseRental.sol\":3196:3216  requests[msg.sender] */\n      0xffffffffffffffffffffffffffffffffffffffff\n      and\n      0xffffffffffffffffffffffffffffffffffffffff\n      and\n      dup2\n      mstore\n      0x20\n      add\n      swap1\n      dup2\n      mstore\n      0x20\n      add\n      0x00\n      keccak256\n        /* \"HomeConnect/HouseRental.sol\":3217:3226  requestId */\n      dup3\n        /* \"HomeConnect/HouseRental.sol\":3196:3227  requests[msg.sender][requestId] */\n      dup2\n      sload\n      dup2\n      lt\n      tag_159\n      jumpi\n      tag_160\n      tag_96\n      jump\t// in\n    tag_160:\n    tag_159:\n      swap1\n      0x00\n      mstore\n      keccak256(0x00, 0x20)\n      swap1\n      0x06\n      mul\n      add\n        /* \"HomeConnect/HouseRental.sol\":3196:3235  requests[msg.sender][requestId].houseId */\n      0x02\n      add\n      sload\n        /* \"HomeConnect/HouseRental.sol\":3178:3235  uint256 houseId = requests[msg.sender][requestId].houseId */\n      swap1\n      pop\n        /* \"HomeConnect/HouseRental.sol\":3281:3282  1 */\n      0x01\n        /* \"HomeConnect/HouseRental.sol\":3250:3256  houses */\n      0x00\n        /* \"HomeConnect/HouseRental.sol\":3257:3264  houseId */\n      dup3\n        /* \"HomeConnect/HouseRental.sol\":3250:3265  houses[houseId] */\n      dup2\n      sload\n      dup2\n      lt\n      tag_162\n      jumpi\n      tag_163\n      tag_96\n      jump\t// in\n    tag_163:\n    tag_162:\n      swap1\n      0x00\n      mstore\n      keccak256(0x00, 0x20)\n      swap1\n      0x09\n      mul\n      add\n        /* \"HomeConnect/HouseRental.sol\":3250:3277  houses[houseId].isAvailable */\n      0x08\n      add\n      sload\n        /* \"HomeConnect/HouseRental.sol\":3250:3282  houses[houseId].isAvailable == 1 */\n      eq\n        /* \"HomeConnect/HouseRental.sol\":3242:3329  require(houses[houseId].isAvailable == 1, \"another request has already been accepted!\") */\n      tag_165\n      jumpi\n      mload(0x40)\n      0x08c379a000000000000000000000000000000000000000000000000000000000\n      dup2\n      mstore\n      0x04\n      add\n      tag_166\n      swap1\n      tag_167\n      jump\t// in\n    tag_166:\n      mload(0x40)\n      dup1\n      swap2\n      sub\n      swap1\n      revert\n    tag_165:\n        /* \"HomeConnect/HouseRental.sol\":3336:3350  address tenant */\n      0x00\n        /* \"HomeConnect/HouseRental.sol\":3353:3361  requests */\n      0x02\n        /* \"HomeConnect/HouseRental.sol\":3353:3373  requests[msg.sender] */\n      0x00\n        /* \"HomeConnect/HouseRental.sol\":3362:3372  msg.sender */\n      caller\n        /* \"HomeConnect/HouseRental.sol\":3353:3373  requests[msg.sender] */\n      0xffffffffffffffffffffffffffffffffffffffff\n      and\n      0xffffffffffffffffffffffffffffffffffffffff\n      and\n      dup2\n      mstore\n      0x20\n      add\n      swap1\n      dup2\n      mstore\n      0x20\n      add\n      0x00\n      keccak256\n        /* \"HomeConnect/HouseRental.sol\":3374:3383  requestId */\n      dup4\n        /* \"HomeConnect/HouseRental.sol\":3353:3384  requests[msg.sender][requestId] */\n      dup2\n      sload\n      dup2\n      lt\n      tag_168\n      jumpi\n      tag_169\n      tag_96\n      jump\t// in\n    tag_169:\n    tag_168:\n      swap1\n      0x00\n      mstore\n      keccak256(0x00, 0x20)\n      swap1\n      0x06\n      mul\n      add\n        /* \"HomeConnect/HouseRental.sol\":3353:3391  requests[msg.sender][requestId].tenant */\n      0x01\n      add\n      0x00\n      swap1\n      sload\n      swap1\n      0x0100\n      exp\n      swap1\n      div\n      0xffffffffffffffffffffffffffffffffffffffff\n      and\n        /* \"HomeConnect/HouseRental.sol\":3336:3391  address tenant = requests[msg.sender][requestId].tenant */\n      swap1\n      pop\n        /* \"HomeConnect/HouseRental.sol\":3443:3444  1 */\n      0x01\n        /* \"HomeConnect/HouseRental.sol\":3398:3406  requests */\n      0x02\n        /* \"HomeConnect/HouseRental.sol\":3398:3418  requests[msg.sender] */\n      0x00\n        /* \"HomeConnect/HouseRental.sol\":3407:3417  msg.sender */\n      caller\n        /* \"HomeConnect/HouseRental.sol\":3398:3418  requests[msg.sender] */\n      0xffffffffffffffffffffffffffffffffffffffff\n      and\n      0xffffffffffffffffffffffffffffffffffffffff\n      and\n      dup2\n      mstore\n      0x20\n      add\n      swap1\n      dup2\n      mstore\n      0x20\n      add\n      0x00\n      keccak256\n        /* \"HomeConnect/HouseRental.sol\":3419:3428  requestId */\n      dup5\n        /* \"HomeConnect/HouseRental.sol\":3398:3429  requests[msg.sender][requestId] */\n      dup2\n      sload\n      dup2\n      lt\n      tag_171\n      jumpi\n      tag_172\n      tag_96\n      jump\t// in\n    tag_172:\n    tag_171:\n      swap1\n      0x00\n      mstore\n      keccak256(0x00, 0x20)\n      swap1\n      0x06\n      mul\n      add\n        /* \"HomeConnect/HouseRental.sol\":3398:3440  requests[msg.sender][requestId].isAccepted */\n      0x05\n      add\n        /* \"HomeConnect/HouseRental.sol\":3398:3444  requests[msg.sender][requestId].isAccepted = 1 */\n      dup2\n      swap1\n      sstore\n      pop\n        /* \"HomeConnect/HouseRental.sol\":3482:3483  2 */\n      0x02\n        /* \"HomeConnect/HouseRental.sol\":3452:3458  houses */\n      0x00\n        /* \"HomeConnect/HouseRental.sol\":3459:3466  houseId */\n      dup4\n        /* \"HomeConnect/HouseRental.sol\":3452:3467  houses[houseId] */\n      dup2\n      sload\n      dup2\n      lt\n      tag_174\n      jumpi\n      tag_175\n      tag_96\n      jump\t// in\n    tag_175:\n    tag_174:\n      swap1\n      0x00\n      mstore\n      keccak256(0x00, 0x20)\n      swap1\n      0x09\n      mul\n      add\n        /* \"HomeConnect/HouseRental.sol\":3452:3479  houses[houseId].isAvailable */\n      0x08\n      add\n        /* \"HomeConnect/HouseRental.sol\":3452:3483  houses[houseId].isAvailable = 2 */\n      dup2\n      swap1\n      sstore\n      pop\n        /* \"HomeConnect/HouseRental.sol\":3496:3541  RequestAccepted (msg.sender, tenant, houseId) */\n      0xd0e9a8bd0419492ff92821e0c185c3727b503f71880830c1122a578619af8e75\n        /* \"HomeConnect/HouseRental.sol\":3513:3523  msg.sender */\n      caller\n        /* \"HomeConnect/HouseRental.sol\":3525:3531  tenant */\n      dup3\n        /* \"HomeConnect/HouseRental.sol\":3533:3540  houseId */\n      dup5\n        /* \"HomeConnect/HouseRental.sol\":3496:3541  RequestAccepted (msg.sender, tenant, houseId) */\n      mload(0x40)\n      tag_177\n      swap4\n      swap3\n      swap2\n      swap1\n      tag_178\n      jump\t// in\n    tag_177:\n      mload(0x40)\n      dup1\n      swap2\n      sub\n      swap1\n      log1\n        /* \"HomeConnect/HouseRental.sol\":3171:3547  {... */\n      pop\n      pop\n        /* \"HomeConnect/HouseRental.sol\":3121:3547  function acceptRequest (uint256 requestId) public {... */\n      pop\n      jump\t// out\n        /* \"HomeConnect/HouseRental.sol\":1006:1055  mapping(address => Rental[]) public tenantRentals */\n    tag_44:\n      mstore(0x20, 0x04)\n      dup2\n      0x00\n      mstore\n      keccak256(0x00, 0x40)\n      dup2\n      dup2\n      sload\n      dup2\n      lt\n      tag_179\n      jumpi\n      0x00\n      dup1\n      revert\n    tag_179:\n      swap1\n      0x00\n      mstore\n      keccak256(0x00, 0x20)\n      swap1\n      0x09\n      mul\n      add\n      0x00\n      swap2\n      pop\n      swap2\n      pop\n      pop\n      dup1\n      0x00\n      add\n      sload\n      swap1\n      dup1\n      0x01\n      add\n      0x00\n      swap1\n      sload\n      swap1\n      0x0100\n      exp\n      swap1\n      div\n      0xffffffffffffffffffffffffffffffffffffffff\n      and\n      swap1\n      dup1\n      0x02\n      add\n      sload\n      swap1\n      dup1\n      0x03\n      add\n      sload\n      swap1\n      dup1\n      0x04\n      add\n      sload\n      swap1\n      dup1\n      0x05\n      add\n      sload\n      swap1\n      dup1\n      0x06\n      add\n      sload\n      swap1\n      dup1\n      0x07\n      add\n      sload\n      swap1\n      dup1\n      0x08\n      add\n      sload\n      swap1\n      pop\n      dup10\n      jump\t// out\n        /* \"HomeConnect/HouseRental.sol\":3013:3117  function getRequests () public view returns (Request[] memory) {... */\n    tag_49:\n        /* \"HomeConnect/HouseRental.sol\":3058:3074  Request[] memory */\n      0x60\n        /* \"HomeConnect/HouseRental.sol\":3092:3100  requests */\n      0x02\n        /* \"HomeConnect/HouseRental.sol\":3092:3112  requests[msg.sender] */\n      0x00\n        /* \"HomeConnect/HouseRental.sol\":3101:3111  msg.sender */\n      caller\n        /* \"HomeConnect/HouseRental.sol\":3092:3112  requests[msg.sender] */\n      0xffffffffffffffffffffffffffffffffffffffff\n      and\n      0xffffffffffffffffffffffffffffffffffffffff\n      and\n      dup2\n      mstore\n      0x20\n      add\n      swap1\n      dup2\n      mstore\n      0x20\n      add\n      0x00\n      keccak256\n        /* \"HomeConnect/HouseRental.sol\":3085:3112  return requests[msg.sender] */\n      dup1\n      sload\n      dup1\n      0x20\n      mul\n      0x20\n      add\n      mload(0x40)\n      swap1\n      dup2\n      add\n      0x40\n      mstore\n      dup1\n      swap3\n      swap2\n      swap1\n      dup2\n      dup2\n      mstore\n      0x20\n      add\n      0x00\n      swap1\n    tag_182:\n      dup3\n      dup3\n      lt\n      iszero\n      tag_183\n      jumpi\n      dup4\n      dup3\n      swap1\n      0x00\n      mstore\n      keccak256(0x00, 0x20)\n      swap1\n      0x06\n      mul\n      add\n      mload(0x40)\n      dup1\n      0xc0\n      add\n      0x40\n      mstore\n      swap1\n      dup2\n      0x00\n      dup3\n      add\n      sload\n      dup2\n      mstore\n      0x20\n      add\n      0x01\n      dup3\n      add\n      0x00\n      swap1\n      sload\n      swap1\n      0x0100\n      exp\n      swap1\n      div\n      0xffffffffffffffffffffffffffffffffffffffff\n      and\n      0xffffffffffffffffffffffffffffffffffffffff\n      and\n      0xffffffffffffffffffffffffffffffffffffffff\n      and\n      dup2\n      mstore\n      0x20\n      add\n      0x02\n      dup3\n      add\n      sload\n      dup2\n      mstore\n      0x20\n      add\n      0x03\n      dup3\n      add\n      sload\n      dup2\n      mstore\n      0x20\n      add\n      0x04\n      dup3\n      add\n      sload\n      dup2\n      mstore\n      0x20\n      add\n      0x05\n      dup3\n      add\n      sload\n      dup2\n      mstore\n      pop\n      pop\n      dup2\n      mstore\n      0x20\n      add\n      swap1\n      0x01\n      add\n      swap1\n      jump(tag_182)\n    tag_183:\n      pop\n      pop\n      pop\n      pop\n      swap1\n      pop\n        /* \"HomeConnect/HouseRental.sol\":3013:3117  function getRequests () public view returns (Request[] memory) {... */\n      swap1\n      jump\t// out\n        /* \"HomeConnect/HouseRental.sol\":3553:4999  function rentHouse(uint256 requestId, uint256 houseId, uint256 startDate, uint256 endDate) public payable {... */\n    tag_55:\n        /* \"HomeConnect/HouseRental.sol\":3666:3682  address landlord */\n      0x00\n        /* \"HomeConnect/HouseRental.sol\":3684:3690  houses */\n      dup1\n        /* \"HomeConnect/HouseRental.sol\":3691:3698  houseId */\n      dup5\n        /* \"HomeConnect/HouseRental.sol\":3684:3699  houses[houseId] */\n      dup2\n      sload\n      dup2\n      lt\n      tag_186\n      jumpi\n      tag_187\n      tag_96\n      jump\t// in\n    tag_187:\n    tag_186:\n      swap1\n      0x00\n      mstore\n      keccak256(0x00, 0x20)\n      swap1\n      0x09\n      mul\n      add\n        /* \"HomeConnect/HouseRental.sol\":3684:3708  houses[houseId].landlord */\n      0x01\n      add\n      0x00\n      swap1\n      sload\n      swap1\n      0x0100\n      exp\n      swap1\n      div\n      0xffffffffffffffffffffffffffffffffffffffff\n      and\n        /* \"HomeConnect/HouseRental.sol\":3666:3708  address landlord= houses[houseId].landlord */\n      swap1\n      pop\n        /* \"HomeConnect/HouseRental.sol\":3768:3769  1 */\n      0x01\n        /* \"HomeConnect/HouseRental.sol\":3724:3732  requests */\n      0x02\n        /* \"HomeConnect/HouseRental.sol\":3724:3742  requests[landlord] */\n      0x00\n        /* \"HomeConnect/HouseRental.sol\":3733:3741  landlord */\n      dup4\n        /* \"HomeConnect/HouseRental.sol\":3724:3742  requests[landlord] */\n      0xffffffffffffffffffffffffffffffffffffffff\n      and\n      0xffffffffffffffffffffffffffffffffffffffff\n      and\n      dup2\n      mstore\n      0x20\n      add\n      swap1\n      dup2\n      mstore\n      0x20\n      add\n      0x00\n      keccak256\n        /* \"HomeConnect/HouseRental.sol\":3743:3752  requestId */\n      dup7\n        /* \"HomeConnect/HouseRental.sol\":3724:3753  requests[landlord][requestId] */\n      dup2\n      sload\n      dup2\n      lt\n      tag_189\n      jumpi\n      tag_190\n      tag_96\n      jump\t// in\n    tag_190:\n    tag_189:\n      swap1\n      0x00\n      mstore\n      keccak256(0x00, 0x20)\n      swap1\n      0x06\n      mul\n      add\n        /* \"HomeConnect/HouseRental.sol\":3724:3764  requests[landlord][requestId].isAccepted */\n      0x05\n      add\n      sload\n        /* \"HomeConnect/HouseRental.sol\":3724:3769  requests[landlord][requestId].isAccepted == 1 */\n      eq\n        /* \"HomeConnect/HouseRental.sol\":3716:3807  require(requests[landlord][requestId].isAccepted == 1, \"your request hasn't been accepted\") */\n      tag_192\n      jumpi\n      mload(0x40)\n      0x08c379a000000000000000000000000000000000000000000000000000000000\n      dup2\n      mstore\n      0x04\n      add\n      tag_193\n      swap1\n      tag_194\n      jump\t// in\n    tag_193:\n      mload(0x40)\n      dup1\n      swap2\n      sub\n      swap1\n      revert\n    tag_192:\n        /* \"HomeConnect/HouseRental.sol\":3814:3835  uint256 paymentPeriod */\n      0x00\n        /* \"HomeConnect/HouseRental.sol\":3838:3844  houses */\n      dup1\n        /* \"HomeConnect/HouseRental.sol\":3845:3852  houseId */\n      dup6\n        /* \"HomeConnect/HouseRental.sol\":3838:3853  houses[houseId] */\n      dup2\n      sload\n      dup2\n      lt\n      tag_195\n      jumpi\n      tag_196\n      tag_96\n      jump\t// in\n    tag_196:\n    tag_195:\n      swap1\n      0x00\n      mstore\n      keccak256(0x00, 0x20)\n      swap1\n      0x09\n      mul\n      add\n        /* \"HomeConnect/HouseRental.sol\":3838:3867  houses[houseId].paymentPeriod */\n      0x05\n      add\n      sload\n        /* \"HomeConnect/HouseRental.sol\":3814:3867  uint256 paymentPeriod = houses[houseId].paymentPeriod */\n      swap1\n      pop\n        /* \"HomeConnect/HouseRental.sol\":3875:3893  uint256 rentPerDay */\n      0x00\n        /* \"HomeConnect/HouseRental.sol\":3895:3901  houses */\n      dup1\n        /* \"HomeConnect/HouseRental.sol\":3902:3909  houseId */\n      dup7\n        /* \"HomeConnect/HouseRental.sol\":3895:3910  houses[houseId] */\n      dup2\n      sload\n      dup2\n      lt\n      tag_198\n      jumpi\n      tag_199\n      tag_96\n      jump\t// in\n    tag_199:\n    tag_198:\n      swap1\n      0x00\n      mstore\n      keccak256(0x00, 0x20)\n      swap1\n      0x09\n      mul\n      add\n        /* \"HomeConnect/HouseRental.sol\":3895:3921  houses[houseId].rentPerDay */\n      0x03\n      add\n      sload\n        /* \"HomeConnect/HouseRental.sol\":3875:3921  uint256 rentPerDay= houses[houseId].rentPerDay */\n      swap1\n      pop\n        /* \"HomeConnect/HouseRental.sol\":3929:3944  uint256 deposit */\n      0x00\n        /* \"HomeConnect/HouseRental.sol\":3947:3953  houses */\n      dup1\n        /* \"HomeConnect/HouseRental.sol\":3954:3961  houseId */\n      dup8\n        /* \"HomeConnect/HouseRental.sol\":3947:3962  houses[houseId] */\n      dup2\n      sload\n      dup2\n      lt\n      tag_201\n      jumpi\n      tag_202\n      tag_96\n      jump\t// in\n    tag_202:\n    tag_201:\n      swap1\n      0x00\n      mstore\n      keccak256(0x00, 0x20)\n      swap1\n      0x09\n      mul\n      add\n        /* \"HomeConnect/HouseRental.sol\":3947:3970  houses[houseId].deposit */\n      0x04\n      add\n      sload\n        /* \"HomeConnect/HouseRental.sol\":3929:3970  uint256 deposit = houses[houseId].deposit */\n      swap1\n      pop\n        /* \"HomeConnect/HouseRental.sol\":4026:4033  deposit */\n      dup1\n        /* \"HomeConnect/HouseRental.sol\":4010:4023  paymentPeriod */\n      dup4\n        /* \"HomeConnect/HouseRental.sol\":3998:4008  rentPerDay */\n      dup4\n        /* \"HomeConnect/HouseRental.sol\":3998:4023  rentPerDay *paymentPeriod */\n      tag_204\n      swap2\n      swap1\n      tag_126\n      jump\t// in\n    tag_204:\n        /* \"HomeConnect/HouseRental.sol\":3998:4033  rentPerDay *paymentPeriod + deposit */\n      tag_205\n      swap2\n      swap1\n      tag_131\n      jump\t// in\n    tag_205:\n        /* \"HomeConnect/HouseRental.sol\":3985:3994  msg.value */\n      callvalue\n        /* \"HomeConnect/HouseRental.sol\":3985:4033  msg.value == rentPerDay *paymentPeriod + deposit */\n      eq\n        /* \"HomeConnect/HouseRental.sol\":3977:4056  require(msg.value == rentPerDay *paymentPeriod + deposit, \"Incorrect payment \") */\n      tag_206\n      jumpi\n      mload(0x40)\n      0x08c379a000000000000000000000000000000000000000000000000000000000\n      dup2\n      mstore\n      0x04\n      add\n      tag_207\n      swap1\n      tag_208\n      jump\t// in\n    tag_207:\n      mload(0x40)\n      dup1\n      swap2\n      sub\n      swap1\n      revert\n    tag_206:\n        /* \"HomeConnect/HouseRental.sol\":4122:4145  uint256 numberOfPeriods */\n      0x00\n        /* \"HomeConnect/HouseRental.sol\":4195:4196  1 */\n      0x01\n        /* \"HomeConnect/HouseRental.sol\":4180:4193  paymentPeriod */\n      dup5\n        /* \"HomeConnect/HouseRental.sol\":4173:4178  86400 */\n      0x015180\n        /* \"HomeConnect/HouseRental.sol\":4162:4169  endDate */\n      dup9\n        /* \"HomeConnect/HouseRental.sol\":4150:4159  startDate */\n      dup11\n        /* \"HomeConnect/HouseRental.sol\":4150:4169  startDate - endDate */\n      tag_209\n      swap2\n      swap1\n      tag_210\n      jump\t// in\n    tag_209:\n        /* \"HomeConnect/HouseRental.sol\":4149:4178  (startDate - endDate) / 86400 */\n      tag_211\n      swap2\n      swap1\n      tag_212\n      jump\t// in\n    tag_211:\n        /* \"HomeConnect/HouseRental.sol\":4149:4193  (startDate - endDate) / 86400/ paymentPeriod */\n      tag_213\n      swap2\n      swap1\n      tag_212\n      jump\t// in\n    tag_213:\n        /* \"HomeConnect/HouseRental.sol\":4148:4196  ((startDate - endDate) / 86400/ paymentPeriod)+1 */\n      tag_214\n      swap2\n      swap1\n      tag_131\n      jump\t// in\n    tag_214:\n        /* \"HomeConnect/HouseRental.sol\":4122:4196  uint256 numberOfPeriods = ((startDate - endDate) / 86400/ paymentPeriod)+1 */\n      swap1\n      pop\n        /* \"HomeConnect/HouseRental.sol\":4203:4218  uint256 dueDate */\n      0x00\n        /* \"HomeConnect/HouseRental.sol\":4248:4253  86400 */\n      0x015180\n        /* \"HomeConnect/HouseRental.sol\":4233:4246  paymentPeriod */\n      dup6\n        /* \"HomeConnect/HouseRental.sol\":4233:4253  paymentPeriod* 86400 */\n      tag_215\n      swap2\n      swap1\n      tag_126\n      jump\t// in\n    tag_215:\n        /* \"HomeConnect/HouseRental.sol\":4221:4230  startDate */\n      dup9\n        /* \"HomeConnect/HouseRental.sol\":4221:4253  startDate + paymentPeriod* 86400 */\n      tag_216\n      swap2\n      swap1\n      tag_131\n      jump\t// in\n    tag_216:\n        /* \"HomeConnect/HouseRental.sol\":4203:4253  uint256 dueDate = startDate + paymentPeriod* 86400 */\n      swap1\n      pop\n        /* \"HomeConnect/HouseRental.sol\":4261:4283  uint256 totalAmountDue */\n      0x00\n        /* \"HomeConnect/HouseRental.sol\":4322:4332  rentPerDay */\n      dup5\n        /* \"HomeConnect/HouseRental.sol\":4306:4319  paymentPeriod */\n      dup7\n        /* \"HomeConnect/HouseRental.sol\":4303:4304  1 */\n      0x01\n        /* \"HomeConnect/HouseRental.sol\":4287:4302  numberOfPeriods */\n      dup6\n        /* \"HomeConnect/HouseRental.sol\":4287:4304  numberOfPeriods-1 */\n      tag_217\n      swap2\n      swap1\n      tag_210\n      jump\t// in\n    tag_217:\n        /* \"HomeConnect/HouseRental.sol\":4286:4319  (numberOfPeriods-1)*paymentPeriod */\n      tag_218\n      swap2\n      swap1\n      tag_126\n      jump\t// in\n    tag_218:\n        /* \"HomeConnect/HouseRental.sol\":4286:4332  (numberOfPeriods-1)*paymentPeriod * rentPerDay */\n      tag_219\n      swap2\n      swap1\n      tag_126\n      jump\t// in\n    tag_219:\n        /* \"HomeConnect/HouseRental.sol\":4261:4332  uint256 totalAmountDue = (numberOfPeriods-1)*paymentPeriod * rentPerDay */\n      swap1\n      pop\n        /* \"HomeConnect/HouseRental.sol\":4340:4356  uint256 rentalId */\n      0x00\n        /* \"HomeConnect/HouseRental.sol\":4359:4366  rentals */\n      0x01\n        /* \"HomeConnect/HouseRental.sol\":4359:4373  rentals.length */\n      dup1\n      sload\n      swap1\n      pop\n        /* \"HomeConnect/HouseRental.sol\":4340:4373  uint256 rentalId = rentals.length */\n      swap1\n      pop\n        /* \"HomeConnect/HouseRental.sol\":4380:4387  rentals */\n      0x01\n        /* \"HomeConnect/HouseRental.sol\":4393:4664  Rental({... */\n      mload(0x40)\n      dup1\n      0x0120\n      add\n      0x40\n      mstore\n      dup1\n        /* \"HomeConnect/HouseRental.sol\":4421:4429  rentalId */\n      dup4\n        /* \"HomeConnect/HouseRental.sol\":4393:4664  Rental({... */\n      dup2\n      mstore\n      0x20\n      add\n        /* \"HomeConnect/HouseRental.sol\":4448:4458  msg.sender */\n      caller\n        /* \"HomeConnect/HouseRental.sol\":4393:4664  Rental({... */\n      0xffffffffffffffffffffffffffffffffffffffff\n      and\n      dup2\n      mstore\n      0x20\n      add\n        /* \"HomeConnect/HouseRental.sol\":4478:4485  houseId */\n      dup14\n        /* \"HomeConnect/HouseRental.sol\":4393:4664  Rental({... */\n      dup2\n      mstore\n      0x20\n      add\n        /* \"HomeConnect/HouseRental.sol\":4507:4516  startDate */\n      dup13\n        /* \"HomeConnect/HouseRental.sol\":4393:4664  Rental({... */\n      dup2\n      mstore\n      0x20\n      add\n        /* \"HomeConnect/HouseRental.sol\":4536:4543  endDate */\n      dup12\n        /* \"HomeConnect/HouseRental.sol\":4393:4664  Rental({... */\n      dup2\n      mstore\n      0x20\n      add\n        /* \"HomeConnect/HouseRental.sol\":4563:4570  dueDate */\n      dup6\n        /* \"HomeConnect/HouseRental.sol\":4393:4664  Rental({... */\n      dup2\n      mstore\n      0x20\n      add\n        /* \"HomeConnect/HouseRental.sol\":4592:4593  0 */\n      0x00\n        /* \"HomeConnect/HouseRental.sol\":4393:4664  Rental({... */\n      dup2\n      mstore\n      0x20\n      add\n        /* \"HomeConnect/HouseRental.sol\":4620:4634  totalAmountDue */\n      dup5\n        /* \"HomeConnect/HouseRental.sol\":4393:4664  Rental({... */\n      dup2\n      mstore\n      0x20\n      add\n        /* \"HomeConnect/HouseRental.sol\":4655:4656  1 */\n      0x01\n        /* \"HomeConnect/HouseRental.sol\":4393:4664  Rental({... */\n      dup2\n      mstore\n      pop\n        /* \"HomeConnect/HouseRental.sol\":4380:4665  rentals.push(Rental({... */\n      swap1\n      dup1\n      0x01\n      dup2\n      sload\n      add\n      dup1\n      dup3\n      sstore\n      dup1\n      swap2\n      pop\n      pop\n      0x01\n      swap1\n      sub\n      swap1\n      0x00\n      mstore\n      keccak256(0x00, 0x20)\n      swap1\n      0x09\n      mul\n      add\n      0x00\n      swap1\n      swap2\n      swap1\n      swap2\n      swap1\n      swap2\n      pop\n      0x00\n      dup3\n      add\n      mload\n      dup2\n      0x00\n      add\n      sstore\n      0x20\n      dup3\n      add\n      mload\n      dup2\n      0x01\n      add\n      exp(0x0100, 0x00)\n      dup2\n      sload\n      dup2\n      0xffffffffffffffffffffffffffffffffffffffff\n      mul\n      not\n      and\n      swap1\n      dup4\n      0xffffffffffffffffffffffffffffffffffffffff\n      and\n      mul\n      or\n      swap1\n      sstore\n      pop\n      0x40\n      dup3\n      add\n      mload\n      dup2\n      0x02\n      add\n      sstore\n      0x60\n      dup3\n      add\n      mload\n      dup2\n      0x03\n      add\n      sstore\n      0x80\n      dup3\n      add\n      mload\n      dup2\n      0x04\n      add\n      sstore\n      0xa0\n      dup3\n      add\n      mload\n      dup2\n      0x05\n      add\n      sstore\n      0xc0\n      dup3\n      add\n      mload\n      dup2\n      0x06\n      add\n      sstore\n      0xe0\n      dup3\n      add\n      mload\n      dup2\n      0x07\n      add\n      sstore\n      0x0100\n      dup3\n      add\n      mload\n      dup2\n      0x08\n      add\n      sstore\n      pop\n      pop\n        /* \"HomeConnect/HouseRental.sol\":4674:4687  tenantRentals */\n      0x04\n        /* \"HomeConnect/HouseRental.sol\":4674:4699  tenantRentals[msg.sender] */\n      0x00\n        /* \"HomeConnect/HouseRental.sol\":4688:4698  msg.sender */\n      caller\n        /* \"HomeConnect/HouseRental.sol\":4674:4699  tenantRentals[msg.sender] */\n      0xffffffffffffffffffffffffffffffffffffffff\n      and\n      0xffffffffffffffffffffffffffffffffffffffff\n      and\n      dup2\n      mstore\n      0x20\n      add\n      swap1\n      dup2\n      mstore\n      0x20\n      add\n      0x00\n      keccak256\n        /* \"HomeConnect/HouseRental.sol\":4705:4712  rentals */\n      0x01\n        /* \"HomeConnect/HouseRental.sol\":4713:4721  rentalId */\n      dup3\n        /* \"HomeConnect/HouseRental.sol\":4705:4722  rentals[rentalId] */\n      dup2\n      sload\n      dup2\n      lt\n      tag_221\n      jumpi\n      tag_222\n      tag_96\n      jump\t// in\n    tag_222:\n    tag_221:\n      swap1\n      0x00\n      mstore\n      keccak256(0x00, 0x20)\n      swap1\n      0x09\n      mul\n      add\n        /* \"HomeConnect/HouseRental.sol\":4674:4723  tenantRentals[msg.sender].push(rentals[rentalId]) */\n      swap1\n      dup1\n      0x01\n      dup2\n      sload\n      add\n      dup1\n      dup3\n      sstore\n      dup1\n      swap2\n      pop\n      pop\n      0x01\n      swap1\n      sub\n      swap1\n      0x00\n      mstore\n      keccak256(0x00, 0x20)\n      swap1\n      0x09\n      mul\n      add\n      0x00\n      swap1\n      swap2\n      swap1\n      swap2\n      swap1\n      swap2\n      pop\n      0x00\n      dup3\n      add\n      sload\n      dup2\n      0x00\n      add\n      sstore\n      0x01\n      dup3\n      add\n      0x00\n      swap1\n      sload\n      swap1\n      0x0100\n      exp\n      swap1\n      div\n      0xffffffffffffffffffffffffffffffffffffffff\n      and\n      dup2\n      0x01\n      add\n      exp(0x0100, 0x00)\n      dup2\n      sload\n      dup2\n      0xffffffffffffffffffffffffffffffffffffffff\n      mul\n      not\n      and\n      swap1\n      dup4\n      0xffffffffffffffffffffffffffffffffffffffff\n      and\n      mul\n      or\n      swap1\n      sstore\n      pop\n      0x02\n      dup3\n      add\n      sload\n      dup2\n      0x02\n      add\n      sstore\n      0x03\n      dup3\n      add\n      sload\n      dup2\n      0x03\n      add\n      sstore\n      0x04\n      dup3\n      add\n      sload\n      dup2\n      0x04\n      add\n      sstore\n      0x05\n      dup3\n      add\n      sload\n      dup2\n      0x05\n      add\n      sstore\n      0x06\n      dup3\n      add\n      sload\n      dup2\n      0x06\n      add\n      sstore\n      0x07\n      dup3\n      add\n      sload\n      dup2\n      0x07\n      add\n      sstore\n      0x08\n      dup3\n      add\n      sload\n      dup2\n      0x08\n      add\n      sstore\n      pop\n      pop\n        /* \"HomeConnect/HouseRental.sol\":4760:4761  0 */\n      0x00\n        /* \"HomeConnect/HouseRental.sol\":4730:4736  houses */\n      dup1\n        /* \"HomeConnect/HouseRental.sol\":4737:4744  houseId */\n      dup13\n        /* \"HomeConnect/HouseRental.sol\":4730:4745  houses[houseId] */\n      dup2\n      sload\n      dup2\n      lt\n      tag_225\n      jumpi\n      tag_226\n      tag_96\n      jump\t// in\n    tag_226:\n    tag_225:\n      swap1\n      0x00\n      mstore\n      keccak256(0x00, 0x20)\n      swap1\n      0x09\n      mul\n      add\n        /* \"HomeConnect/HouseRental.sol\":4730:4757  houses[houseId].isAvailable */\n      0x08\n      add\n        /* \"HomeConnect/HouseRental.sol\":4730:4761  houses[houseId].isAvailable = 0 */\n      dup2\n      swap1\n      sstore\n      pop\n        /* \"HomeConnect/HouseRental.sol\":4782:4788  houses */\n      0x00\n        /* \"HomeConnect/HouseRental.sol\":4789:4796  houseId */\n      dup12\n        /* \"HomeConnect/HouseRental.sol\":4782:4797  houses[houseId] */\n      dup2\n      sload\n      dup2\n      lt\n      tag_228\n      jumpi\n      tag_229\n      tag_96\n      jump\t// in\n    tag_229:\n    tag_228:\n      swap1\n      0x00\n      mstore\n      keccak256(0x00, 0x20)\n      swap1\n      0x09\n      mul\n      add\n        /* \"HomeConnect/HouseRental.sol\":4782:4806  houses[houseId].landlord */\n      0x01\n      add\n      0x00\n      swap1\n      sload\n      swap1\n      0x0100\n      exp\n      swap1\n      div\n      0xffffffffffffffffffffffffffffffffffffffff\n      and\n        /* \"HomeConnect/HouseRental.sol\":4774:4816  payable(houses[houseId].landlord).transfer */\n      0xffffffffffffffffffffffffffffffffffffffff\n      and\n        /* \"HomeConnect/HouseRental.sol\":4774:4853  payable(houses[houseId].landlord).transfer(msg.value - houses[houseId].deposit) */\n      0x08fc\n        /* \"HomeConnect/HouseRental.sol\":4829:4835  houses */\n      0x00\n        /* \"HomeConnect/HouseRental.sol\":4836:4843  houseId */\n      dup14\n        /* \"HomeConnect/HouseRental.sol\":4829:4844  houses[houseId] */\n      dup2\n      sload\n      dup2\n      lt\n      tag_231\n      jumpi\n      tag_232\n      tag_96\n      jump\t// in\n    tag_232:\n    tag_231:\n      swap1\n      0x00\n      mstore\n      keccak256(0x00, 0x20)\n      swap1\n      0x09\n      mul\n      add\n        /* \"HomeConnect/HouseRental.sol\":4829:4852  houses[houseId].deposit */\n      0x04\n      add\n      sload\n        /* \"HomeConnect/HouseRental.sol\":4817:4826  msg.value */\n      callvalue\n        /* \"HomeConnect/HouseRental.sol\":4817:4852  msg.value - houses[houseId].deposit */\n      tag_234\n      swap2\n      swap1\n      tag_210\n      jump\t// in\n    tag_234:\n        /* \"HomeConnect/HouseRental.sol\":4774:4853  payable(houses[houseId].landlord).transfer(msg.value - houses[houseId].deposit) */\n      swap1\n      dup2\n      iszero\n      mul\n      swap1\n      mload(0x40)\n      0x00\n      mload(0x40)\n      dup1\n      dup4\n      sub\n      dup2\n      dup6\n      dup9\n      dup9\n      call\n      swap4\n      pop\n      pop\n      pop\n      pop\n      iszero\n      dup1\n      iszero\n      tag_236\n      jumpi\n      returndatasize\n      0x00\n      dup1\n      returndatacopy\n      revert(0x00, returndatasize)\n    tag_236:\n      pop\n        /* \"HomeConnect/HouseRental.sol\":4923:4995  HouseRented(rentalId, msg.sender, landlord, houseId, startDate, endDate) */\n      0xb80f428704aea624db48e5fa450e946b9e04a896c332c3fb87ddb996f046958f\n        /* \"HomeConnect/HouseRental.sol\":4935:4943  rentalId */\n      dup2\n        /* \"HomeConnect/HouseRental.sol\":4945:4955  msg.sender */\n      caller\n        /* \"HomeConnect/HouseRental.sol\":4957:4965  landlord */\n      dup11\n        /* \"HomeConnect/HouseRental.sol\":4967:4974  houseId */\n      dup15\n        /* \"HomeConnect/HouseRental.sol\":4976:4985  startDate */\n      dup15\n        /* \"HomeConnect/HouseRental.sol\":4987:4994  endDate */\n      dup15\n        /* \"HomeConnect/HouseRental.sol\":4923:4995  HouseRented(rentalId, msg.sender, landlord, houseId, startDate, endDate) */\n      mload(0x40)\n      tag_237\n      swap7\n      swap6\n      swap5\n      swap4\n      swap3\n      swap2\n      swap1\n      tag_238\n      jump\t// in\n    tag_237:\n      mload(0x40)\n      dup1\n      swap2\n      sub\n      swap1\n      log1\n        /* \"HomeConnect/HouseRental.sol\":3659:4999  {... */\n      pop\n      pop\n      pop\n      pop\n      pop\n      pop\n      pop\n      pop\n        /* \"HomeConnect/HouseRental.sol\":3553:4999  function rentHouse(uint256 requestId, uint256 houseId, uint256 startDate, uint256 endDate) public payable {... */\n      pop\n      pop\n      pop\n      pop\n      jump\t// out\n        /* \"HomeConnect/HouseRental.sol\":898:943  mapping(address => Request[]) public requests */\n    tag_59:\n      mstore(0x20, 0x02)\n      dup2\n      0x00\n      mstore\n      keccak256(0x00, 0x40)\n      dup2\n      dup2\n      sload\n      dup2\n      lt\n      tag_239\n      jumpi\n      0x00\n      dup1\n      revert\n    tag_239:\n      swap1\n      0x00\n      mstore\n      keccak256(0x00, 0x20)\n      swap1\n      0x06\n      mul\n      add\n      0x00\n      swap2\n      pop\n      swap2\n      pop\n      pop\n      dup1\n      0x00\n      add\n      sload\n      swap1\n      dup1\n      0x01\n      add\n      0x00\n      swap1\n      sload\n      swap1\n      0x0100\n      exp\n      swap1\n      div\n      0xffffffffffffffffffffffffffffffffffffffff\n      and\n      swap1\n      dup1\n      0x02\n      add\n      sload\n      swap1\n      dup1\n      0x03\n      add\n      sload\n      swap1\n      dup1\n      0x04\n      add\n      sload\n      swap1\n      dup1\n      0x05\n      add\n      sload\n      swap1\n      pop\n      dup7\n      jump\t// out\n        /* \"HomeConnect/HouseRental.sol\":840:861  House[] public houses */\n    tag_65:\n      0x00\n      dup2\n      dup2\n      sload\n      dup2\n      lt\n      tag_241\n      jumpi\n      0x00\n      dup1\n      revert\n    tag_241:\n      swap1\n      0x00\n      mstore\n      keccak256(0x00, 0x20)\n      swap1\n      0x09\n      mul\n      add\n      0x00\n      swap2\n      pop\n      swap1\n      pop\n      dup1\n      0x00\n      add\n      sload\n      swap1\n      dup1\n      0x01\n      add\n      0x00\n      swap1\n      sload\n      swap1\n      0x0100\n      exp\n      swap1\n      div\n      0xffffffffffffffffffffffffffffffffffffffff\n      and\n      swap1\n      dup1\n      0x02\n      add\n      dup1\n      sload\n      tag_243\n      swap1\n      tag_153\n      jump\t// in\n    tag_243:\n      dup1\n      0x1f\n      add\n      0x20\n      dup1\n      swap2\n      div\n      mul\n      0x20\n      add\n      mload(0x40)\n      swap1\n      dup2\n      add\n      0x40\n      mstore\n      dup1\n      swap3\n      swap2\n      swap1\n      dup2\n      dup2\n      mstore\n      0x20\n      add\n      dup3\n      dup1\n      sload\n      tag_244\n      swap1\n      tag_153\n      jump\t// in\n    tag_244:\n      dup1\n      iszero\n      tag_245\n      jumpi\n      dup1\n      0x1f\n      lt\n      tag_246\n      jumpi\n      0x0100\n      dup1\n      dup4\n      sload\n      div\n      mul\n      dup4\n      mstore\n      swap2\n      0x20\n      add\n      swap2\n      jump(tag_245)\n    tag_246:\n      dup3\n      add\n      swap2\n      swap1\n      0x00\n      mstore\n      keccak256(0x00, 0x20)\n      swap1\n    tag_247:\n      dup2\n      sload\n      dup2\n      mstore\n      swap1\n      0x01\n      add\n      swap1\n      0x20\n      add\n      dup1\n      dup4\n      gt\n      tag_247\n      jumpi\n      dup3\n      swap1\n      sub\n      0x1f\n      and\n      dup3\n      add\n      swap2\n    tag_245:\n      pop\n      pop\n      pop\n      pop\n      pop\n      swap1\n      dup1\n      0x03\n      add\n      sload\n      swap1\n      dup1\n      0x04\n      add\n      sload\n      swap1\n      dup1\n      0x05\n      add\n      sload\n      swap1\n      dup1\n      0x06\n      add\n      sload\n      swap1\n      dup1\n      0x07\n      add\n      sload\n      swap1\n      dup1\n      0x08\n      add\n      sload\n      swap1\n      pop\n      dup10\n      jump\t// out\n        /* \"HomeConnect/HouseRental.sol\":868:891  Rental[] public rentals */\n    tag_70:\n      0x01\n      dup2\n      dup2\n      sload\n      dup2\n      lt\n      tag_248\n      jumpi\n      0x00\n      dup1\n      revert\n    tag_248:\n      swap1\n      0x00\n      mstore\n      keccak256(0x00, 0x20)\n      swap1\n      0x09\n      mul\n      add\n      0x00\n      swap2\n      pop\n      swap1\n      pop\n      dup1\n      0x00\n      add\n      sload\n      swap1\n      dup1\n      0x01\n      add\n      0x00\n      swap1\n      sload\n      swap1\n      0x0100\n      exp\n      swap1\n      div\n      0xffffffffffffffffffffffffffffffffffffffff\n      and\n      swap1\n      dup1\n      0x02\n      add\n      sload\n      swap1\n      dup1\n      0x03\n      add\n      sload\n      swap1\n      dup1\n      0x04\n      add\n      sload\n      swap1\n      dup1\n      0x05\n      add\n      sload\n      swap1\n      dup1\n      0x06\n      add\n      sload\n      swap1\n      dup1\n      0x07\n      add\n      sload\n      swap1\n      dup1\n      0x08\n      add\n      sload\n      swap1\n      pop\n      dup10\n      jump\t// out\n        /* \"HomeConnect/HouseRental.sol\":2388:3009  function  sendRequest (uint256 houseId,uint256 startDate, uint256 endDate) public {... */\n    tag_76:\n        /* \"HomeConnect/HouseRental.sol\":2516:2517  1 */\n      0x01\n        /* \"HomeConnect/HouseRental.sol\":2485:2491  houses */\n      0x00\n        /* \"HomeConnect/HouseRental.sol\":2492:2499  houseId */\n      dup5\n        /* \"HomeConnect/HouseRental.sol\":2485:2500  houses[houseId] */\n      dup2\n      sload\n      dup2\n      lt\n      tag_251\n      jumpi\n      tag_252\n      tag_96\n      jump\t// in\n    tag_252:\n    tag_251:\n      swap1\n      0x00\n      mstore\n      keccak256(0x00, 0x20)\n      swap1\n      0x09\n      mul\n      add\n        /* \"HomeConnect/HouseRental.sol\":2485:2512  houses[houseId].isAvailable */\n      0x08\n      add\n      sload\n        /* \"HomeConnect/HouseRental.sol\":2485:2517  houses[houseId].isAvailable == 1 */\n      eq\n        /* \"HomeConnect/HouseRental.sol\":2477:2544  require(houses[houseId].isAvailable == 1, \"House is not available\") */\n      tag_254\n      jumpi\n      mload(0x40)\n      0x08c379a000000000000000000000000000000000000000000000000000000000\n      dup2\n      mstore\n      0x04\n      add\n      tag_255\n      swap1\n      tag_256\n      jump\t// in\n    tag_255:\n      mload(0x40)\n      dup1\n      swap2\n      sub\n      swap1\n      revert\n    tag_254:\n        /* \"HomeConnect/HouseRental.sol\":2551:2571  uint256 rentalPeriod */\n      0x00\n        /* \"HomeConnect/HouseRental.sol\":2584:2591  endDate */\n      dup2\n        /* \"HomeConnect/HouseRental.sol\":2574:2583  startDate */\n      dup4\n        /* \"HomeConnect/HouseRental.sol\":2574:2591  startDate-endDate */\n      tag_257\n      swap2\n      swap1\n      tag_210\n      jump\t// in\n    tag_257:\n        /* \"HomeConnect/HouseRental.sol\":2551:2591  uint256 rentalPeriod = startDate-endDate */\n      swap1\n      pop\n        /* \"HomeConnect/HouseRental.sol\":2638:2650  rentalPeriod */\n      dup1\n        /* \"HomeConnect/HouseRental.sol\":2606:2612  houses */\n      0x00\n        /* \"HomeConnect/HouseRental.sol\":2613:2620  houseId */\n      dup6\n        /* \"HomeConnect/HouseRental.sol\":2606:2621  houses[houseId] */\n      dup2\n      sload\n      dup2\n      lt\n      tag_258\n      jumpi\n      tag_259\n      tag_96\n      jump\t// in\n    tag_259:\n    tag_258:\n      swap1\n      0x00\n      mstore\n      keccak256(0x00, 0x20)\n      swap1\n      0x09\n      mul\n      add\n        /* \"HomeConnect/HouseRental.sol\":2606:2637  houses[houseId].maxRentalPeriod */\n      0x07\n      add\n      sload\n        /* \"HomeConnect/HouseRental.sol\":2606:2650  houses[houseId].maxRentalPeriod>rentalPeriod */\n      gt\n        /* \"HomeConnect/HouseRental.sol\":2606:2699  houses[houseId].maxRentalPeriod>rentalPeriod && rentalPeriod >houses[houseId].minRentalPeriod */\n      dup1\n      iszero\n      tag_261\n      jumpi\n      pop\n        /* \"HomeConnect/HouseRental.sol\":2668:2674  houses */\n      0x00\n        /* \"HomeConnect/HouseRental.sol\":2675:2682  houseId */\n      dup5\n        /* \"HomeConnect/HouseRental.sol\":2668:2683  houses[houseId] */\n      dup2\n      sload\n      dup2\n      lt\n      tag_262\n      jumpi\n      tag_263\n      tag_96\n      jump\t// in\n    tag_263:\n    tag_262:\n      swap1\n      0x00\n      mstore\n      keccak256(0x00, 0x20)\n      swap1\n      0x09\n      mul\n      add\n        /* \"HomeConnect/HouseRental.sol\":2668:2699  houses[houseId].minRentalPeriod */\n      0x06\n      add\n      sload\n        /* \"HomeConnect/HouseRental.sol\":2654:2666  rentalPeriod */\n      dup2\n        /* \"HomeConnect/HouseRental.sol\":2654:2699  rentalPeriod >houses[houseId].minRentalPeriod */\n      gt\n        /* \"HomeConnect/HouseRental.sol\":2606:2699  houses[houseId].maxRentalPeriod>rentalPeriod && rentalPeriod >houses[houseId].minRentalPeriod */\n    tag_261:\n        /* \"HomeConnect/HouseRental.sol\":2598:2700  require(houses[houseId].maxRentalPeriod>rentalPeriod && rentalPeriod >houses[houseId].minRentalPeriod) */\n      tag_265\n      jumpi\n      0x00\n      dup1\n      revert\n    tag_265:\n        /* \"HomeConnect/HouseRental.sol\":2707:2723  address landlord */\n      0x00\n        /* \"HomeConnect/HouseRental.sol\":2726:2732  houses */\n      dup1\n        /* \"HomeConnect/HouseRental.sol\":2733:2740  houseId */\n      dup6\n        /* \"HomeConnect/HouseRental.sol\":2726:2741  houses[houseId] */\n      dup2\n      sload\n      dup2\n      lt\n      tag_266\n      jumpi\n      tag_267\n      tag_96\n      jump\t// in\n    tag_267:\n    tag_266:\n      swap1\n      0x00\n      mstore\n      keccak256(0x00, 0x20)\n      swap1\n      0x09\n      mul\n      add\n        /* \"HomeConnect/HouseRental.sol\":2726:2750  houses[houseId].landlord */\n      0x01\n      add\n      0x00\n      swap1\n      sload\n      swap1\n      0x0100\n      exp\n      swap1\n      div\n      0xffffffffffffffffffffffffffffffffffffffff\n      and\n        /* \"HomeConnect/HouseRental.sol\":2707:2750  address landlord = houses[houseId].landlord */\n      swap1\n      pop\n        /* \"HomeConnect/HouseRental.sol\":2759:2776  uint256 requestId */\n      0x00\n        /* \"HomeConnect/HouseRental.sol\":2779:2787  requests */\n      0x02\n        /* \"HomeConnect/HouseRental.sol\":2779:2797  requests[landlord] */\n      0x00\n        /* \"HomeConnect/HouseRental.sol\":2788:2796  landlord */\n      dup4\n        /* \"HomeConnect/HouseRental.sol\":2779:2797  requests[landlord] */\n      0xffffffffffffffffffffffffffffffffffffffff\n      and\n      0xffffffffffffffffffffffffffffffffffffffff\n      and\n      dup2\n      mstore\n      0x20\n      add\n      swap1\n      dup2\n      mstore\n      0x20\n      add\n      0x00\n      keccak256\n        /* \"HomeConnect/HouseRental.sol\":2779:2804  requests[landlord].length */\n      dup1\n      sload\n      swap1\n      pop\n        /* \"HomeConnect/HouseRental.sol\":2759:2804  uint256 requestId = requests[landlord].length */\n      swap1\n      pop\n        /* \"HomeConnect/HouseRental.sol\":2812:2820  requests */\n      0x02\n        /* \"HomeConnect/HouseRental.sol\":2812:2830  requests[landlord] */\n      0x00\n        /* \"HomeConnect/HouseRental.sol\":2821:2829  landlord */\n      dup4\n        /* \"HomeConnect/HouseRental.sol\":2812:2830  requests[landlord] */\n      0xffffffffffffffffffffffffffffffffffffffff\n      and\n      0xffffffffffffffffffffffffffffffffffffffff\n      and\n      dup2\n      mstore\n      0x20\n      add\n      swap1\n      dup2\n      mstore\n      0x20\n      add\n      0x00\n      keccak256\n        /* \"HomeConnect/HouseRental.sol\":2836:2958  Request({requestId: requestId,tenant: msg.sender, houseId: houseId, startDate: startDate, endDate: endDate, isAccepted:0}) */\n      mload(0x40)\n      dup1\n      0xc0\n      add\n      0x40\n      mstore\n      dup1\n        /* \"HomeConnect/HouseRental.sol\":2856:2865  requestId */\n      dup4\n        /* \"HomeConnect/HouseRental.sol\":2836:2958  Request({requestId: requestId,tenant: msg.sender, houseId: houseId, startDate: startDate, endDate: endDate, isAccepted:0}) */\n      dup2\n      mstore\n      0x20\n      add\n        /* \"HomeConnect/HouseRental.sol\":2874:2884  msg.sender */\n      caller\n        /* \"HomeConnect/HouseRental.sol\":2836:2958  Request({requestId: requestId,tenant: msg.sender, houseId: houseId, startDate: startDate, endDate: endDate, isAccepted:0}) */\n      0xffffffffffffffffffffffffffffffffffffffff\n      and\n      dup2\n      mstore\n      0x20\n      add\n        /* \"HomeConnect/HouseRental.sol\":2895:2902  houseId */\n      dup9\n        /* \"HomeConnect/HouseRental.sol\":2836:2958  Request({requestId: requestId,tenant: msg.sender, houseId: houseId, startDate: startDate, endDate: endDate, isAccepted:0}) */\n      dup2\n      mstore\n      0x20\n      add\n        /* \"HomeConnect/HouseRental.sol\":2915:2924  startDate */\n      dup8\n        /* \"HomeConnect/HouseRental.sol\":2836:2958  Request({requestId: requestId,tenant: msg.sender, houseId: houseId, startDate: startDate, endDate: endDate, isAccepted:0}) */\n      dup2\n      mstore\n      0x20\n      add\n        /* \"HomeConnect/HouseRental.sol\":2935:2942  endDate */\n      dup7\n        /* \"HomeConnect/HouseRental.sol\":2836:2958  Request({requestId: requestId,tenant: msg.sender, houseId: houseId, startDate: startDate, endDate: endDate, isAccepted:0}) */\n      dup2\n      mstore\n      0x20\n      add\n        /* \"HomeConnect/HouseRental.sol\":2955:2956  0 */\n      0x00\n        /* \"HomeConnect/HouseRental.sol\":2836:2958  Request({requestId: requestId,tenant: msg.sender, houseId: houseId, startDate: startDate, endDate: endDate, isAccepted:0}) */\n      dup2\n      mstore\n      pop\n        /* \"HomeConnect/HouseRental.sol\":2812:2959  requests[landlord].push(Request({requestId: requestId,tenant: msg.sender, houseId: houseId, startDate: startDate, endDate: endDate, isAccepted:0})) */\n      swap1\n      dup1\n      0x01\n      dup2\n      sload\n      add\n      dup1\n      dup3\n      sstore\n      dup1\n      swap2\n      pop\n      pop\n      0x01\n      swap1\n      sub\n      swap1\n      0x00\n      mstore\n      keccak256(0x00, 0x20)\n      swap1\n      0x06\n      mul\n      add\n      0x00\n      swap1\n      swap2\n      swap1\n      swap2\n      swap1\n      swap2\n      pop\n      0x00\n      dup3\n      add\n      mload\n      dup2\n      0x00\n      add\n      sstore\n      0x20\n      dup3\n      add\n      mload\n      dup2\n      0x01\n      add\n      exp(0x0100, 0x00)\n      dup2\n      sload\n      dup2\n      0xffffffffffffffffffffffffffffffffffffffff\n      mul\n      not\n      and\n      swap1\n      dup4\n      0xffffffffffffffffffffffffffffffffffffffff\n      and\n      mul\n      or\n      swap1\n      sstore\n      pop\n      0x40\n      dup3\n      add\n      mload\n      dup2\n      0x02\n      add\n      sstore\n      0x60\n      dup3\n      add\n      mload\n      dup2\n      0x03\n      add\n      sstore\n      0x80\n      dup3\n      add\n      mload\n      dup2\n      0x04\n      add\n      sstore\n      0xa0\n      dup3\n      add\n      mload\n      dup2\n      0x05\n      add\n      sstore\n      pop\n      pop\n        /* \"HomeConnect/HouseRental.sol\":2971:3005  RequestSent(msg.sender, requestId) */\n      0x0c27e43af6588b65dccc4465720ef720b7cf45f5fba352df8607ae1cfea9089b\n        /* \"HomeConnect/HouseRental.sol\":2983:2993  msg.sender */\n      caller\n        /* \"HomeConnect/HouseRental.sol\":2995:3004  requestId */\n      dup3\n        /* \"HomeConnect/HouseRental.sol\":2971:3005  RequestSent(msg.sender, requestId) */\n      mload(0x40)\n      tag_270\n      swap3\n      swap2\n      swap1\n      tag_271\n      jump\t// in\n    tag_270:\n      mload(0x40)\n      dup1\n      swap2\n      sub\n      swap1\n      log1\n        /* \"HomeConnect/HouseRental.sol\":2470:3009  {... */\n      pop\n      pop\n      pop\n        /* \"HomeConnect/HouseRental.sol\":2388:3009  function  sendRequest (uint256 houseId,uint256 startDate, uint256 endDate) public {... */\n      pop\n      pop\n      pop\n      jump\t// out\n        /* \"HomeConnect/HouseRental.sol\":2276:2362  function getAllHouses() public view returns(House[] memory){... */\n    tag_79:\n        /* \"HomeConnect/HouseRental.sol\":2320:2334  House[] memory */\n      0x60\n        /* \"HomeConnect/HouseRental.sol\":2351:2357  houses */\n      0x00\n        /* \"HomeConnect/HouseRental.sol\":2344:2357  return houses */\n      dup1\n      sload\n      dup1\n      0x20\n      mul\n      0x20\n      add\n      mload(0x40)\n      swap1\n      dup2\n      add\n      0x40\n      mstore\n      dup1\n      swap3\n      swap2\n      swap1\n      dup2\n      dup2\n      mstore\n      0x20\n      add\n      0x00\n      swap1\n    tag_273:\n      dup3\n      dup3\n      lt\n      iszero\n      tag_274\n      jumpi\n      dup4\n      dup3\n      swap1\n      0x00\n      mstore\n      keccak256(0x00, 0x20)\n      swap1\n      0x09\n      mul\n      add\n      mload(0x40)\n      dup1\n      0x0120\n      add\n      0x40\n      mstore\n      swap1\n      dup2\n      0x00\n      dup3\n      add\n      sload\n      dup2\n      mstore\n      0x20\n      add\n      0x01\n      dup3\n      add\n      0x00\n      swap1\n      sload\n      swap1\n      0x0100\n      exp\n      swap1\n      div\n      0xffffffffffffffffffffffffffffffffffffffff\n      and\n      0xffffffffffffffffffffffffffffffffffffffff\n      and\n      0xffffffffffffffffffffffffffffffffffffffff\n      and\n      dup2\n      mstore\n      0x20\n      add\n      0x02\n      dup3\n      add\n      dup1\n      sload\n      tag_276\n      swap1\n      tag_153\n      jump\t// in\n    tag_276:\n      dup1\n      0x1f\n      add\n      0x20\n      dup1\n      swap2\n      div\n      mul\n      0x20\n      add\n      mload(0x40)\n      swap1\n      dup2\n      add\n      0x40\n      mstore\n      dup1\n      swap3\n      swap2\n      swap1\n      dup2\n      dup2\n      mstore\n      0x20\n      add\n      dup3\n      dup1\n      sload\n      tag_277\n      swap1\n      tag_153\n      jump\t// in\n    tag_277:\n      dup1\n      iszero\n      tag_278\n      jumpi\n      dup1\n      0x1f\n      lt\n      tag_279\n      jumpi\n      0x0100\n      dup1\n      dup4\n      sload\n      div\n      mul\n      dup4\n      mstore\n      swap2\n      0x20\n      add\n      swap2\n      jump(tag_278)\n    tag_279:\n      dup3\n      add\n      swap2\n      swap1\n      0x00\n      mstore\n      keccak256(0x00, 0x20)\n      swap1\n    tag_280:\n      dup2\n      sload\n      dup2\n      mstore\n      swap1\n      0x01\n      add\n      swap1\n      0x20\n      add\n      dup1\n      dup4\n      gt\n      tag_280\n      jumpi\n      dup3\n      swap1\n      sub\n      0x1f\n      and\n      dup3\n      add\n      swap2\n    tag_278:\n      pop\n      pop\n      pop\n      pop\n      pop\n      dup2\n      mstore\n      0x20\n      add\n      0x03\n      dup3\n      add\n      sload\n      dup2\n      mstore\n      0x20\n      add\n      0x04\n      dup3\n      add\n      sload\n      dup2\n      mstore\n      0x20\n      add\n      0x05\n      dup3\n      add\n      sload\n      dup2\n      mstore\n      0x20\n      add\n      0x06\n      dup3\n      add\n      sload\n      dup2\n      mstore\n      0x20\n      add\n      0x07\n      dup3\n      add\n      sload\n      dup2\n      mstore\n      0x20\n      add\n      0x08\n      dup3\n      add\n      sload\n      dup2\n      mstore\n      pop\n      pop\n      dup2\n      mstore\n      0x20\n      add\n      swap1\n      0x01\n      add\n      swap1\n      jump(tag_273)\n    tag_274:\n      pop\n      pop\n      pop\n      pop\n      swap1\n      pop\n        /* \"HomeConnect/HouseRental.sol\":2276:2362  function getAllHouses() public view returns(House[] memory){... */\n      swap1\n      jump\t// out\n        /* \"HomeConnect/HouseRental.sol\":6189:6758  function payRent(uint256 rentalId) public payable {... */\n    tag_84:\n        /* \"HomeConnect/HouseRental.sol\":6286:6287  0 */\n      0x00\n        /* \"HomeConnect/HouseRental.sol\":6256:6263  rentals */\n      0x01\n        /* \"HomeConnect/HouseRental.sol\":6264:6272  rentalId */\n      dup3\n        /* \"HomeConnect/HouseRental.sol\":6256:6273  rentals[rentalId] */\n      dup2\n      sload\n      dup2\n      lt\n      tag_282\n      jumpi\n      tag_283\n      tag_96\n      jump\t// in\n    tag_283:\n    tag_282:\n      swap1\n      0x00\n      mstore\n      keccak256(0x00, 0x20)\n      swap1\n      0x09\n      mul\n      add\n        /* \"HomeConnect/HouseRental.sol\":6256:6283  rentals[rentalId].amountDue */\n      0x06\n      add\n      sload\n        /* \"HomeConnect/HouseRental.sol\":6256:6287  rentals[rentalId].amountDue > 0 */\n      gt\n        /* \"HomeConnect/HouseRental.sol\":6248:6325  require(rentals[rentalId].amountDue > 0, \"You don't have an amount due yet!\") */\n      tag_285\n      jumpi\n      mload(0x40)\n      0x08c379a000000000000000000000000000000000000000000000000000000000\n      dup2\n      mstore\n      0x04\n      add\n      tag_286\n      swap1\n      tag_287\n      jump\t// in\n    tag_286:\n      mload(0x40)\n      dup1\n      swap2\n      sub\n      swap1\n      revert\n    tag_285:\n        /* \"HomeConnect/HouseRental.sol\":6332:6347  uint256 houseId */\n      0x00\n        /* \"HomeConnect/HouseRental.sol\":6350:6357  rentals */\n      0x01\n        /* \"HomeConnect/HouseRental.sol\":6358:6366  rentalId */\n      dup3\n        /* \"HomeConnect/HouseRental.sol\":6350:6367  rentals[rentalId] */\n      dup2\n      sload\n      dup2\n      lt\n      tag_288\n      jumpi\n      tag_289\n      tag_96\n      jump\t// in\n    tag_289:\n    tag_288:\n      swap1\n      0x00\n      mstore\n      keccak256(0x00, 0x20)\n      swap1\n      0x09\n      mul\n      add\n        /* \"HomeConnect/HouseRental.sol\":6350:6375  rentals[rentalId].houseId */\n      0x02\n      add\n      sload\n        /* \"HomeConnect/HouseRental.sol\":6332:6375  uint256 houseId = rentals[rentalId].houseId */\n      swap1\n      pop\n        /* \"HomeConnect/HouseRental.sol\":6390:6396  houses */\n      0x00\n        /* \"HomeConnect/HouseRental.sol\":6397:6404  houseId */\n      dup2\n        /* \"HomeConnect/HouseRental.sol\":6390:6405  houses[houseId] */\n      dup2\n      sload\n      dup2\n      lt\n      tag_291\n      jumpi\n      tag_292\n      tag_96\n      jump\t// in\n    tag_292:\n    tag_291:\n      swap1\n      0x00\n      mstore\n      keccak256(0x00, 0x20)\n      swap1\n      0x09\n      mul\n      add\n        /* \"HomeConnect/HouseRental.sol\":6390:6414  houses[houseId].landlord */\n      0x01\n      add\n      0x00\n      swap1\n      sload\n      swap1\n      0x0100\n      exp\n      swap1\n      div\n      0xffffffffffffffffffffffffffffffffffffffff\n      and\n        /* \"HomeConnect/HouseRental.sol\":6382:6424  payable(houses[houseId].landlord).transfer */\n      0xffffffffffffffffffffffffffffffffffffffff\n      and\n        /* \"HomeConnect/HouseRental.sol\":6382:6435  payable(houses[houseId].landlord).transfer(msg.value) */\n      0x08fc\n        /* \"HomeConnect/HouseRental.sol\":6425:6434  msg.value */\n      callvalue\n        /* \"HomeConnect/HouseRental.sol\":6382:6435  payable(houses[houseId].landlord).transfer(msg.value) */\n      swap1\n      dup2\n      iszero\n      mul\n      swap1\n      mload(0x40)\n      0x00\n      mload(0x40)\n      dup1\n      dup4\n      sub\n      dup2\n      dup6\n      dup9\n      dup9\n      call\n      swap4\n      pop\n      pop\n      pop\n      pop\n      iszero\n      dup1\n      iszero\n      tag_295\n      jumpi\n      returndatasize\n      0x00\n      dup1\n      returndatacopy\n      revert(0x00, returndatasize)\n    tag_295:\n      pop\n        /* \"HomeConnect/HouseRental.sol\":6471:6480  msg.value */\n      callvalue\n        /* \"HomeConnect/HouseRental.sol\":6442:6449  rentals */\n      0x01\n        /* \"HomeConnect/HouseRental.sol\":6450:6458  rentalId */\n      dup4\n        /* \"HomeConnect/HouseRental.sol\":6442:6459  rentals[rentalId] */\n      dup2\n      sload\n      dup2\n      lt\n      tag_296\n      jumpi\n      tag_297\n      tag_96\n      jump\t// in\n    tag_297:\n    tag_296:\n      swap1\n      0x00\n      mstore\n      keccak256(0x00, 0x20)\n      swap1\n      0x09\n      mul\n      add\n        /* \"HomeConnect/HouseRental.sol\":6442:6469  rentals[rentalId].amountDue */\n      0x06\n      add\n      0x00\n        /* \"HomeConnect/HouseRental.sol\":6442:6480  rentals[rentalId].amountDue-=msg.value */\n      dup3\n      dup3\n      sload\n      tag_299\n      swap2\n      swap1\n      tag_210\n      jump\t// in\n    tag_299:\n      swap3\n      pop\n      pop\n      dup2\n      swap1\n      sstore\n      pop\n        /* \"HomeConnect/HouseRental.sol\":6522:6531  msg.value */\n      callvalue\n        /* \"HomeConnect/HouseRental.sol\":6488:6495  rentals */\n      0x01\n        /* \"HomeConnect/HouseRental.sol\":6496:6504  rentalId */\n      dup4\n        /* \"HomeConnect/HouseRental.sol\":6488:6505  rentals[rentalId] */\n      dup2\n      sload\n      dup2\n      lt\n      tag_300\n      jumpi\n      tag_301\n      tag_96\n      jump\t// in\n    tag_301:\n    tag_300:\n      swap1\n      0x00\n      mstore\n      keccak256(0x00, 0x20)\n      swap1\n      0x09\n      mul\n      add\n        /* \"HomeConnect/HouseRental.sol\":6488:6520  rentals[rentalId].totalAmountDue */\n      0x07\n      add\n      0x00\n        /* \"HomeConnect/HouseRental.sol\":6488:6531  rentals[rentalId].totalAmountDue-=msg.value */\n      dup3\n      dup3\n      sload\n      tag_303\n      swap2\n      swap1\n      tag_210\n      jump\t// in\n    tag_303:\n      swap3\n      pop\n      pop\n      dup2\n      swap1\n      sstore\n      pop\n        /* \"HomeConnect/HouseRental.sol\":6544:6583  RentPaid(rentalId,msg.sender,msg.value) */\n      0x63e55317e25c0cab3a2de23ee0e244496daea0c1c2b8e272bbc01722b96bb9ae\n        /* \"HomeConnect/HouseRental.sol\":6553:6561  rentalId */\n      dup3\n        /* \"HomeConnect/HouseRental.sol\":6562:6572  msg.sender */\n      caller\n        /* \"HomeConnect/HouseRental.sol\":6573:6582  msg.value */\n      callvalue\n        /* \"HomeConnect/HouseRental.sol\":6544:6583  RentPaid(rentalId,msg.sender,msg.value) */\n      mload(0x40)\n      tag_304\n      swap4\n      swap3\n      swap2\n      swap1\n      tag_305\n      jump\t// in\n    tag_304:\n      mload(0x40)\n      dup1\n      swap2\n      sub\n      swap1\n      log1\n        /* \"HomeConnect/HouseRental.sol\":6630:6631  0 */\n      0x00\n        /* \"HomeConnect/HouseRental.sol\":6596:6603  rentals */\n      0x01\n        /* \"HomeConnect/HouseRental.sol\":6604:6612  rentalId */\n      dup4\n        /* \"HomeConnect/HouseRental.sol\":6596:6613  rentals[rentalId] */\n      dup2\n      sload\n      dup2\n      lt\n      tag_306\n      jumpi\n      tag_307\n      tag_96\n      jump\t// in\n    tag_307:\n    tag_306:\n      swap1\n      0x00\n      mstore\n      keccak256(0x00, 0x20)\n      swap1\n      0x09\n      mul\n      add\n        /* \"HomeConnect/HouseRental.sol\":6596:6628  rentals[rentalId].totalAmountDue */\n      0x07\n      add\n      sload\n        /* \"HomeConnect/HouseRental.sol\":6596:6631  rentals[rentalId].totalAmountDue==0 */\n      sub\n        /* \"HomeConnect/HouseRental.sol\":6592:6755  if (rentals[rentalId].totalAmountDue==0){... */\n      tag_309\n      jumpi\n        /* \"HomeConnect/HouseRental.sol\":6647:6657  msg.sender */\n      caller\n        /* \"HomeConnect/HouseRental.sol\":6639:6667  payable(msg.sender).transfer */\n      0xffffffffffffffffffffffffffffffffffffffff\n      and\n        /* \"HomeConnect/HouseRental.sol\":6639:6692  payable(msg.sender).transfer(houses[houseId].deposit) */\n      0x08fc\n        /* \"HomeConnect/HouseRental.sol\":6668:6674  houses */\n      0x00\n        /* \"HomeConnect/HouseRental.sol\":6675:6682  houseId */\n      dup4\n        /* \"HomeConnect/HouseRental.sol\":6668:6683  houses[houseId] */\n      dup2\n      sload\n      dup2\n      lt\n      tag_310\n      jumpi\n      tag_311\n      tag_96\n      jump\t// in\n    tag_311:\n    tag_310:\n      swap1\n      0x00\n      mstore\n      keccak256(0x00, 0x20)\n      swap1\n      0x09\n      mul\n      add\n        /* \"HomeConnect/HouseRental.sol\":6668:6691  houses[houseId].deposit */\n      0x04\n      add\n      sload\n        /* \"HomeConnect/HouseRental.sol\":6639:6692  payable(msg.sender).transfer(houses[houseId].deposit) */\n      swap1\n      dup2\n      iszero\n      mul\n      swap1\n      mload(0x40)\n      0x00\n      mload(0x40)\n      dup1\n      dup4\n      sub\n      dup2\n      dup6\n      dup9\n      dup9\n      call\n      swap4\n      pop\n      pop\n      pop\n      pop\n      iszero\n      dup1\n      iszero\n      tag_314\n      jumpi\n      returndatasize\n      0x00\n      dup1\n      returndatacopy\n      revert(0x00, returndatasize)\n    tag_314:\n      pop\n        /* \"HomeConnect/HouseRental.sol\":6708:6745  RentalCompleted(rentalId, msg.sender) */\n      0xc8891cc8407e9bc09a78421bd234c3fd57d71a2cc5f1ac6d5602070add66d0dd\n        /* \"HomeConnect/HouseRental.sol\":6724:6732  rentalId */\n      dup3\n        /* \"HomeConnect/HouseRental.sol\":6734:6744  msg.sender */\n      caller\n        /* \"HomeConnect/HouseRental.sol\":6708:6745  RentalCompleted(rentalId, msg.sender) */\n      mload(0x40)\n      tag_315\n      swap3\n      swap2\n      swap1\n      tag_102\n      jump\t// in\n    tag_315:\n      mload(0x40)\n      dup1\n      swap2\n      sub\n      swap1\n      log1\n        /* \"HomeConnect/HouseRental.sol\":6592:6755  if (rentals[rentalId].totalAmountDue==0){... */\n    tag_309:\n        /* \"HomeConnect/HouseRental.sol\":6239:6758  {... */\n      pop\n        /* \"HomeConnect/HouseRental.sol\":6189:6758  function payRent(uint256 rentalId) public payable {... */\n      pop\n      jump\t// out\n        /* \"HomeConnect/HouseRental.sol\":6048:6185  function getRentalData() public returns (Rental[] memory) {... */\n    tag_87:\n        /* \"HomeConnect/HouseRental.sol\":6089:6104  Rental[] memory */\n      0x60\n        /* \"HomeConnect/HouseRental.sol\":6114:6142  updateRentalData(msg.sender) */\n      tag_317\n        /* \"HomeConnect/HouseRental.sol\":6131:6141  msg.sender */\n      caller\n        /* \"HomeConnect/HouseRental.sol\":6114:6130  updateRentalData */\n      tag_28\n        /* \"HomeConnect/HouseRental.sol\":6114:6142  updateRentalData(msg.sender) */\n      jump\t// in\n    tag_317:\n        /* \"HomeConnect/HouseRental.sol\":6155:6168  tenantRentals */\n      0x04\n        /* \"HomeConnect/HouseRental.sol\":6155:6180  tenantRentals[msg.sender] */\n      0x00\n        /* \"HomeConnect/HouseRental.sol\":6169:6179  msg.sender */\n      caller\n        /* \"HomeConnect/HouseRental.sol\":6155:6180  tenantRentals[msg.sender] */\n      0xffffffffffffffffffffffffffffffffffffffff\n      and\n      0xffffffffffffffffffffffffffffffffffffffff\n      and\n      dup2\n      mstore\n      0x20\n      add\n      swap1\n      dup2\n      mstore\n      0x20\n      add\n      0x00\n      keccak256\n        /* \"HomeConnect/HouseRental.sol\":6148:6180  return tenantRentals[msg.sender] */\n      dup1\n      sload\n      dup1\n      0x20\n      mul\n      0x20\n      add\n      mload(0x40)\n      swap1\n      dup2\n      add\n      0x40\n      mstore\n      dup1\n      swap3\n      swap2\n      swap1\n      dup2\n      dup2\n      mstore\n      0x20\n      add\n      0x00\n      swap1\n    tag_318:\n      dup3\n      dup3\n      lt\n      iszero\n      tag_319\n      jumpi\n      dup4\n      dup3\n      swap1\n      0x00\n      mstore\n      keccak256(0x00, 0x20)\n      swap1\n      0x09\n      mul\n      add\n      mload(0x40)\n      dup1\n      0x0120\n      add\n      0x40\n      mstore\n      swap1\n      dup2\n      0x00\n      dup3\n      add\n      sload\n      dup2\n      mstore\n      0x20\n      add\n      0x01\n      dup3\n      add\n      0x00\n      swap1\n      sload\n      swap1\n      0x0100\n      exp\n      swap1\n      div\n      0xffffffffffffffffffffffffffffffffffffffff\n      and\n      0xffffffffffffffffffffffffffffffffffffffff\n      and\n      0xffffffffffffffffffffffffffffffffffffffff\n      and\n      dup2\n      mstore\n      0x20\n      add\n      0x02\n      dup3\n      add\n      sload\n      dup2\n      mstore\n      0x20\n      add\n      0x03\n      dup3\n      add\n      sload\n      dup2\n      mstore\n      0x20\n      add\n      0x04\n      dup3\n      add\n      sload\n      dup2\n      mstore\n      0x20\n      add\n      0x05\n      dup3\n      add\n      sload\n      dup2\n      mstore\n      0x20\n      add\n      0x06\n      dup3\n      add\n      sload\n      dup2\n      mstore\n      0x20\n      add\n      0x07\n      dup3\n      add\n      sload\n      dup2\n      mstore\n      0x20\n      add\n      0x08\n      dup3\n      add\n      sload\n      dup2\n      mstore\n      pop\n      pop\n      dup2\n      mstore\n      0x20\n      add\n      swap1\n      0x01\n      add\n      swap1\n      jump(tag_318)\n    tag_319:\n      pop\n      pop\n      pop\n      pop\n      swap1\n      pop\n        /* \"HomeConnect/HouseRental.sol\":6048:6185  function getRentalData() public returns (Rental[] memory) {... */\n      swap1\n      jump\t// out\n        /* \"#utility.yul\":7:82   */\n    tag_321:\n        /* \"#utility.yul\":40:46   */\n      0x00\n        /* \"#utility.yul\":73:75   */\n      0x40\n        /* \"#utility.yul\":67:76   */\n      mload\n        /* \"#utility.yul\":57:76   */\n      swap1\n      pop\n        /* \"#utility.yul\":7:82   */\n      swap1\n      jump\t// out\n        /* \"#utility.yul\":88:205   */\n    tag_322:\n        /* \"#utility.yul\":197:198   */\n      0x00\n        /* \"#utility.yul\":194:195   */\n      dup1\n        /* \"#utility.yul\":187:199   */\n      revert\n        /* \"#utility.yul\":211:328   */\n    tag_323:\n        /* \"#utility.yul\":320:321   */\n      0x00\n        /* \"#utility.yul\":317:318   */\n      dup1\n        /* \"#utility.yul\":310:322   */\n      revert\n        /* \"#utility.yul\":334:451   */\n    tag_324:\n        /* \"#utility.yul\":443:444   */\n      0x00\n        /* \"#utility.yul\":440:441   */\n      dup1\n        /* \"#utility.yul\":433:445   */\n      revert\n        /* \"#utility.yul\":457:574   */\n    tag_325:\n        /* \"#utility.yul\":566:567   */\n      0x00\n        /* \"#utility.yul\":563:564   */\n      dup1\n        /* \"#utility.yul\":556:568   */\n      revert\n        /* \"#utility.yul\":580:682   */\n    tag_326:\n        /* \"#utility.yul\":621:627   */\n      0x00\n        /* \"#utility.yul\":672:674   */\n      0x1f\n        /* \"#utility.yul\":668:675   */\n      not\n        /* \"#utility.yul\":663:665   */\n      0x1f\n        /* \"#utility.yul\":656:661   */\n      dup4\n        /* \"#utility.yul\":652:666   */\n      add\n        /* \"#utility.yul\":648:676   */\n      and\n        /* \"#utility.yul\":638:676   */\n      swap1\n      pop\n        /* \"#utility.yul\":580:682   */\n      swap2\n      swap1\n      pop\n      jump\t// out\n        /* \"#utility.yul\":688:868   */\n    tag_327:\n        /* \"#utility.yul\":736:813   */\n      0x4e487b7100000000000000000000000000000000000000000000000000000000\n        /* \"#utility.yul\":733:734   */\n      0x00\n        /* \"#utility.yul\":726:814   */\n      mstore\n        /* \"#utility.yul\":833:837   */\n      0x41\n        /* \"#utility.yul\":830:831   */\n      0x04\n        /* \"#utility.yul\":823:838   */\n      mstore\n        /* \"#utility.yul\":857:861   */\n      0x24\n        /* \"#utility.yul\":854:855   */\n      0x00\n        /* \"#utility.yul\":847:862   */\n      revert\n        /* \"#utility.yul\":874:1155   */\n    tag_328:\n        /* \"#utility.yul\":957:984   */\n      tag_410\n        /* \"#utility.yul\":979:983   */\n      dup3\n        /* \"#utility.yul\":957:984   */\n      tag_326\n      jump\t// in\n    tag_410:\n        /* \"#utility.yul\":949:955   */\n      dup2\n        /* \"#utility.yul\":945:985   */\n      add\n        /* \"#utility.yul\":1087:1093   */\n      dup2\n        /* \"#utility.yul\":1075:1085   */\n      dup2\n        /* \"#utility.yul\":1072:1094   */\n      lt\n        /* \"#utility.yul\":1051:1069   */\n      0xffffffffffffffff\n        /* \"#utility.yul\":1039:1049   */\n      dup3\n        /* \"#utility.yul\":1036:1070   */\n      gt\n        /* \"#utility.yul\":1033:1095   */\n      or\n        /* \"#utility.yul\":1030:1118   */\n      iszero\n      tag_411\n      jumpi\n        /* \"#utility.yul\":1098:1116   */\n      tag_412\n      tag_327\n      jump\t// in\n    tag_412:\n        /* \"#utility.yul\":1030:1118   */\n    tag_411:\n        /* \"#utility.yul\":1138:1148   */\n      dup1\n        /* \"#utility.yul\":1134:1136   */\n      0x40\n        /* \"#utility.yul\":1127:1149   */\n      mstore\n        /* \"#utility.yul\":917:1155   */\n      pop\n        /* \"#utility.yul\":874:1155   */\n      pop\n      pop\n      jump\t// out\n        /* \"#utility.yul\":1161:1290   */\n    tag_329:\n        /* \"#utility.yul\":1195:1201   */\n      0x00\n        /* \"#utility.yul\":1222:1242   */\n      tag_414\n      tag_321\n      jump\t// in\n    tag_414:\n        /* \"#utility.yul\":1212:1242   */\n      swap1\n      pop\n        /* \"#utility.yul\":1251:1284   */\n      tag_415\n        /* \"#utility.yul\":1279:1283   */\n      dup3\n        /* \"#utility.yul\":1271:1277   */\n      dup3\n        /* \"#utility.yul\":1251:1284   */\n      tag_328\n      jump\t// in\n    tag_415:\n        /* \"#utility.yul\":1161:1290   */\n      swap2\n      swap1\n      pop\n      jump\t// out\n        /* \"#utility.yul\":1296:1604   */\n    tag_330:\n        /* \"#utility.yul\":1358:1362   */\n      0x00\n        /* \"#utility.yul\":1448:1466   */\n      0xffffffffffffffff\n        /* \"#utility.yul\":1440:1446   */\n      dup3\n        /* \"#utility.yul\":1437:1467   */\n      gt\n        /* \"#utility.yul\":1434:1490   */\n      iszero\n      tag_417\n      jumpi\n        /* \"#utility.yul\":1470:1488   */\n      tag_418\n      tag_327\n      jump\t// in\n    tag_418:\n        /* \"#utility.yul\":1434:1490   */\n    tag_417:\n        /* \"#utility.yul\":1508:1537   */\n      tag_419\n        /* \"#utility.yul\":1530:1536   */\n      dup3\n        /* \"#utility.yul\":1508:1537   */\n      tag_326\n      jump\t// in\n    tag_419:\n        /* \"#utility.yul\":1500:1537   */\n      swap1\n      pop\n        /* \"#utility.yul\":1592:1596   */\n      0x20\n        /* \"#utility.yul\":1586:1590   */\n      dup2\n        /* \"#utility.yul\":1582:1597   */\n      add\n        /* \"#utility.yul\":1574:1597   */\n      swap1\n      pop\n        /* \"#utility.yul\":1296:1604   */\n      swap2\n      swap1\n      pop\n      jump\t// out\n        /* \"#utility.yul\":1610:1756   */\n    tag_331:\n        /* \"#utility.yul\":1707:1713   */\n      dup3\n        /* \"#utility.yul\":1702:1705   */\n      dup2\n        /* \"#utility.yul\":1697:1700   */\n      dup4\n        /* \"#utility.yul\":1684:1714   */\n      calldatacopy\n        /* \"#utility.yul\":1748:1749   */\n      0x00\n        /* \"#utility.yul\":1739:1745   */\n      dup4\n        /* \"#utility.yul\":1734:1737   */\n      dup4\n        /* \"#utility.yul\":1730:1746   */\n      add\n        /* \"#utility.yul\":1723:1750   */\n      mstore\n        /* \"#utility.yul\":1610:1756   */\n      pop\n      pop\n      pop\n      jump\t// out\n        /* \"#utility.yul\":1762:2187   */\n    tag_332:\n        /* \"#utility.yul\":1840:1845   */\n      0x00\n        /* \"#utility.yul\":1865:1931   */\n      tag_422\n        /* \"#utility.yul\":1881:1930   */\n      tag_423\n        /* \"#utility.yul\":1923:1929   */\n      dup5\n        /* \"#utility.yul\":1881:1930   */\n      tag_330\n      jump\t// in\n    tag_423:\n        /* \"#utility.yul\":1865:1931   */\n      tag_329\n      jump\t// in\n    tag_422:\n        /* \"#utility.yul\":1856:1931   */\n      swap1\n      pop\n        /* \"#utility.yul\":1954:1960   */\n      dup3\n        /* \"#utility.yul\":1947:1952   */\n      dup2\n        /* \"#utility.yul\":1940:1961   */\n      mstore\n        /* \"#utility.yul\":1992:1996   */\n      0x20\n        /* \"#utility.yul\":1985:1990   */\n      dup2\n        /* \"#utility.yul\":1981:1997   */\n      add\n        /* \"#utility.yul\":2030:2033   */\n      dup5\n        /* \"#utility.yul\":2021:2027   */\n      dup5\n        /* \"#utility.yul\":2016:2019   */\n      dup5\n        /* \"#utility.yul\":2012:2028   */\n      add\n        /* \"#utility.yul\":2009:2034   */\n      gt\n        /* \"#utility.yul\":2006:2118   */\n      iszero\n      tag_424\n      jumpi\n        /* \"#utility.yul\":2037:2116   */\n      tag_425\n      tag_325\n      jump\t// in\n    tag_425:\n        /* \"#utility.yul\":2006:2118   */\n    tag_424:\n        /* \"#utility.yul\":2127:2181   */\n      tag_426\n        /* \"#utility.yul\":2174:2180   */\n      dup5\n        /* \"#utility.yul\":2169:2172   */\n      dup3\n        /* \"#utility.yul\":2164:2167   */\n      dup6\n        /* \"#utility.yul\":2127:2181   */\n      tag_331\n      jump\t// in\n    tag_426:\n        /* \"#utility.yul\":1846:2187   */\n      pop\n        /* \"#utility.yul\":1762:2187   */\n      swap4\n      swap3\n      pop\n      pop\n      pop\n      jump\t// out\n        /* \"#utility.yul\":2207:2547   */\n    tag_333:\n        /* \"#utility.yul\":2263:2268   */\n      0x00\n        /* \"#utility.yul\":2312:2315   */\n      dup3\n        /* \"#utility.yul\":2305:2309   */\n      0x1f\n        /* \"#utility.yul\":2297:2303   */\n      dup4\n        /* \"#utility.yul\":2293:2310   */\n      add\n        /* \"#utility.yul\":2289:2316   */\n      slt\n        /* \"#utility.yul\":2279:2401   */\n      tag_428\n      jumpi\n        /* \"#utility.yul\":2320:2399   */\n      tag_429\n      tag_324\n      jump\t// in\n    tag_429:\n        /* \"#utility.yul\":2279:2401   */\n    tag_428:\n        /* \"#utility.yul\":2437:2443   */\n      dup2\n        /* \"#utility.yul\":2424:2444   */\n      calldataload\n        /* \"#utility.yul\":2462:2541   */\n      tag_430\n        /* \"#utility.yul\":2537:2540   */\n      dup5\n        /* \"#utility.yul\":2529:2535   */\n      dup3\n        /* \"#utility.yul\":2522:2526   */\n      0x20\n        /* \"#utility.yul\":2514:2520   */\n      dup7\n        /* \"#utility.yul\":2510:2527   */\n      add\n        /* \"#utility.yul\":2462:2541   */\n      tag_332\n      jump\t// in\n    tag_430:\n        /* \"#utility.yul\":2453:2541   */\n      swap2\n      pop\n        /* \"#utility.yul\":2269:2547   */\n      pop\n        /* \"#utility.yul\":2207:2547   */\n      swap3\n      swap2\n      pop\n      pop\n      jump\t// out\n        /* \"#utility.yul\":2553:2630   */\n    tag_334:\n        /* \"#utility.yul\":2590:2597   */\n      0x00\n        /* \"#utility.yul\":2619:2624   */\n      dup2\n        /* \"#utility.yul\":2608:2624   */\n      swap1\n      pop\n        /* \"#utility.yul\":2553:2630   */\n      swap2\n      swap1\n      pop\n      jump\t// out\n        /* \"#utility.yul\":2636:2758   */\n    tag_335:\n        /* \"#utility.yul\":2709:2733   */\n      tag_433\n        /* \"#utility.yul\":2727:2732   */\n      dup2\n        /* \"#utility.yul\":2709:2733   */\n      tag_334\n      jump\t// in\n    tag_433:\n        /* \"#utility.yul\":2702:2707   */\n      dup2\n        /* \"#utility.yul\":2699:2734   */\n      eq\n        /* \"#utility.yul\":2689:2752   */\n      tag_434\n      jumpi\n        /* \"#utility.yul\":2748:2749   */\n      0x00\n        /* \"#utility.yul\":2745:2746   */\n      dup1\n        /* \"#utility.yul\":2738:2750   */\n      revert\n        /* \"#utility.yul\":2689:2752   */\n    tag_434:\n        /* \"#utility.yul\":2636:2758   */\n      pop\n      jump\t// out\n        /* \"#utility.yul\":2764:2903   */\n    tag_336:\n        /* \"#utility.yul\":2810:2815   */\n      0x00\n        /* \"#utility.yul\":2848:2854   */\n      dup2\n        /* \"#utility.yul\":2835:2855   */\n      calldataload\n        /* \"#utility.yul\":2826:2855   */\n      swap1\n      pop\n        /* \"#utility.yul\":2864:2897   */\n      tag_436\n        /* \"#utility.yul\":2891:2896   */\n      dup2\n        /* \"#utility.yul\":2864:2897   */\n      tag_335\n      jump\t// in\n    tag_436:\n        /* \"#utility.yul\":2764:2903   */\n      swap3\n      swap2\n      pop\n      pop\n      jump\t// out\n        /* \"#utility.yul\":2909:4146   */\n    tag_22:\n        /* \"#utility.yul\":3023:3029   */\n      0x00\n        /* \"#utility.yul\":3031:3037   */\n      dup1\n        /* \"#utility.yul\":3039:3045   */\n      0x00\n        /* \"#utility.yul\":3047:3053   */\n      dup1\n        /* \"#utility.yul\":3055:3061   */\n      0x00\n        /* \"#utility.yul\":3063:3069   */\n      dup1\n        /* \"#utility.yul\":3112:3115   */\n      0xc0\n        /* \"#utility.yul\":3100:3109   */\n      dup8\n        /* \"#utility.yul\":3091:3098   */\n      dup10\n        /* \"#utility.yul\":3087:3110   */\n      sub\n        /* \"#utility.yul\":3083:3116   */\n      slt\n        /* \"#utility.yul\":3080:3200   */\n      iszero\n      tag_438\n      jumpi\n        /* \"#utility.yul\":3119:3198   */\n      tag_439\n      tag_322\n      jump\t// in\n    tag_439:\n        /* \"#utility.yul\":3080:3200   */\n    tag_438:\n        /* \"#utility.yul\":3267:3268   */\n      0x00\n        /* \"#utility.yul\":3256:3265   */\n      dup8\n        /* \"#utility.yul\":3252:3269   */\n      add\n        /* \"#utility.yul\":3239:3270   */\n      calldataload\n        /* \"#utility.yul\":3297:3315   */\n      0xffffffffffffffff\n        /* \"#utility.yul\":3289:3295   */\n      dup2\n        /* \"#utility.yul\":3286:3316   */\n      gt\n        /* \"#utility.yul\":3283:3400   */\n      iszero\n      tag_440\n      jumpi\n        /* \"#utility.yul\":3319:3398   */\n      tag_441\n      tag_323\n      jump\t// in\n    tag_441:\n        /* \"#utility.yul\":3283:3400   */\n    tag_440:\n        /* \"#utility.yul\":3424:3487   */\n      tag_442\n        /* \"#utility.yul\":3479:3486   */\n      dup10\n        /* \"#utility.yul\":3470:3476   */\n      dup3\n        /* \"#utility.yul\":3459:3468   */\n      dup11\n        /* \"#utility.yul\":3455:3477   */\n      add\n        /* \"#utility.yul\":3424:3487   */\n      tag_333\n      jump\t// in\n    tag_442:\n        /* \"#utility.yul\":3414:3487   */\n      swap7\n      pop\n        /* \"#utility.yul\":3210:3497   */\n      pop\n        /* \"#utility.yul\":3536:3538   */\n      0x20\n        /* \"#utility.yul\":3562:3615   */\n      tag_443\n        /* \"#utility.yul\":3607:3614   */\n      dup10\n        /* \"#utility.yul\":3598:3604   */\n      dup3\n        /* \"#utility.yul\":3587:3596   */\n      dup11\n        /* \"#utility.yul\":3583:3605   */\n      add\n        /* \"#utility.yul\":3562:3615   */\n      tag_336\n      jump\t// in\n    tag_443:\n        /* \"#utility.yul\":3552:3615   */\n      swap6\n      pop\n        /* \"#utility.yul\":3507:3625   */\n      pop\n        /* \"#utility.yul\":3664:3666   */\n      0x40\n        /* \"#utility.yul\":3690:3743   */\n      tag_444\n        /* \"#utility.yul\":3735:3742   */\n      dup10\n        /* \"#utility.yul\":3726:3732   */\n      dup3\n        /* \"#utility.yul\":3715:3724   */\n      dup11\n        /* \"#utility.yul\":3711:3733   */\n      add\n        /* \"#utility.yul\":3690:3743   */\n      tag_336\n      jump\t// in\n    tag_444:\n        /* \"#utility.yul\":3680:3743   */\n      swap5\n      pop\n        /* \"#utility.yul\":3635:3753   */\n      pop\n        /* \"#utility.yul\":3792:3794   */\n      0x60\n        /* \"#utility.yul\":3818:3871   */\n      tag_445\n        /* \"#utility.yul\":3863:3870   */\n      dup10\n        /* \"#utility.yul\":3854:3860   */\n      dup3\n        /* \"#utility.yul\":3843:3852   */\n      dup11\n        /* \"#utility.yul\":3839:3861   */\n      add\n        /* \"#utility.yul\":3818:3871   */\n      tag_336\n      jump\t// in\n    tag_445:\n        /* \"#utility.yul\":3808:3871   */\n      swap4\n      pop\n        /* \"#utility.yul\":3763:3881   */\n      pop\n        /* \"#utility.yul\":3920:3923   */\n      0x80\n        /* \"#utility.yul\":3947:4000   */\n      tag_446\n        /* \"#utility.yul\":3992:3999   */\n      dup10\n        /* \"#utility.yul\":3983:3989   */\n      dup3\n        /* \"#utility.yul\":3972:3981   */\n      dup11\n        /* \"#utility.yul\":3968:3990   */\n      add\n        /* \"#utility.yul\":3947:4000   */\n      tag_336\n      jump\t// in\n    tag_446:\n        /* \"#utility.yul\":3937:4000   */\n      swap3\n      pop\n        /* \"#utility.yul\":3891:4010   */\n      pop\n        /* \"#utility.yul\":4049:4052   */\n      0xa0\n        /* \"#utility.yul\":4076:4129   */\n      tag_447\n        /* \"#utility.yul\":4121:4128   */\n      dup10\n        /* \"#utility.yul\":4112:4118   */\n      dup3\n        /* \"#utility.yul\":4101:4110   */\n      dup11\n        /* \"#utility.yul\":4097:4119   */\n      add\n        /* \"#utility.yul\":4076:4129   */\n      tag_336\n      jump\t// in\n    tag_447:\n        /* \"#utility.yul\":4066:4129   */\n      swap2\n      pop\n        /* \"#utility.yul\":4020:4139   */\n      pop\n        /* \"#utility.yul\":2909:4146   */\n      swap3\n      swap6\n      pop\n      swap3\n      swap6\n      pop\n      swap3\n      swap6\n      jump\t// out\n        /* \"#utility.yul\":4152:4278   */\n    tag_337:\n        /* \"#utility.yul\":4189:4196   */\n      0x00\n        /* \"#utility.yul\":4229:4271   */\n      0xffffffffffffffffffffffffffffffffffffffff\n        /* \"#utility.yul\":4222:4227   */\n      dup3\n        /* \"#utility.yul\":4218:4272   */\n      and\n        /* \"#utility.yul\":4207:4272   */\n      swap1\n      pop\n        /* \"#utility.yul\":4152:4278   */\n      swap2\n      swap1\n      pop\n      jump\t// out\n        /* \"#utility.yul\":4284:4380   */\n    tag_338:\n        /* \"#utility.yul\":4321:4328   */\n      0x00\n        /* \"#utility.yul\":4350:4374   */\n      tag_450\n        /* \"#utility.yul\":4368:4373   */\n      dup3\n        /* \"#utility.yul\":4350:4374   */\n      tag_337\n      jump\t// in\n    tag_450:\n        /* \"#utility.yul\":4339:4374   */\n      swap1\n      pop\n        /* \"#utility.yul\":4284:4380   */\n      swap2\n      swap1\n      pop\n      jump\t// out\n        /* \"#utility.yul\":4386:4508   */\n    tag_339:\n        /* \"#utility.yul\":4459:4483   */\n      tag_452\n        /* \"#utility.yul\":4477:4482   */\n      dup2\n        /* \"#utility.yul\":4459:4483   */\n      tag_338\n      jump\t// in\n    tag_452:\n        /* \"#utility.yul\":4452:4457   */\n      dup2\n        /* \"#utility.yul\":4449:4484   */\n      eq\n        /* \"#utility.yul\":4439:4502   */\n      tag_453\n      jumpi\n        /* \"#utility.yul\":4498:4499   */\n      0x00\n        /* \"#utility.yul\":4495:4496   */\n      dup1\n        /* \"#utility.yul\":4488:4500   */\n      revert\n        /* \"#utility.yul\":4439:4502   */\n    tag_453:\n        /* \"#utility.yul\":4386:4508   */\n      pop\n      jump\t// out\n        /* \"#utility.yul\":4514:4653   */\n    tag_340:\n        /* \"#utility.yul\":4560:4565   */\n      0x00\n        /* \"#utility.yul\":4598:4604   */\n      dup2\n        /* \"#utility.yul\":4585:4605   */\n      calldataload\n        /* \"#utility.yul\":4576:4605   */\n      swap1\n      pop\n        /* \"#utility.yul\":4614:4647   */\n      tag_455\n        /* \"#utility.yul\":4641:4646   */\n      dup2\n        /* \"#utility.yul\":4614:4647   */\n      tag_339\n      jump\t// in\n    tag_455:\n        /* \"#utility.yul\":4514:4653   */\n      swap3\n      swap2\n      pop\n      pop\n      jump\t// out\n        /* \"#utility.yul\":4659:4988   */\n    tag_27:\n        /* \"#utility.yul\":4718:4724   */\n      0x00\n        /* \"#utility.yul\":4767:4769   */\n      0x20\n        /* \"#utility.yul\":4755:4764   */\n      dup3\n        /* \"#utility.yul\":4746:4753   */\n      dup5\n        /* \"#utility.yul\":4742:4765   */\n      sub\n        /* \"#utility.yul\":4738:4770   */\n      slt\n        /* \"#utility.yul\":4735:4854   */\n      iszero\n      tag_457\n      jumpi\n        /* \"#utility.yul\":4773:4852   */\n      tag_458\n      tag_322\n      jump\t// in\n    tag_458:\n        /* \"#utility.yul\":4735:4854   */\n    tag_457:\n        /* \"#utility.yul\":4893:4894   */\n      0x00\n        /* \"#utility.yul\":4918:4971   */\n      tag_459\n        /* \"#utility.yul\":4963:4970   */\n      dup5\n        /* \"#utility.yul\":4954:4960   */\n      dup3\n        /* \"#utility.yul\":4943:4952   */\n      dup6\n        /* \"#utility.yul\":4939:4961   */\n      add\n        /* \"#utility.yul\":4918:4971   */\n      tag_340\n      jump\t// in\n    tag_459:\n        /* \"#utility.yul\":4908:4971   */\n      swap2\n      pop\n        /* \"#utility.yul\":4864:4981   */\n      pop\n        /* \"#utility.yul\":4659:4988   */\n      swap3\n      swap2\n      pop\n      pop\n      jump\t// out\n        /* \"#utility.yul\":4994:5468   */\n    tag_32:\n        /* \"#utility.yul\":5062:5068   */\n      0x00\n        /* \"#utility.yul\":5070:5076   */\n      dup1\n        /* \"#utility.yul\":5119:5121   */\n      0x40\n        /* \"#utility.yul\":5107:5116   */\n      dup4\n        /* \"#utility.yul\":5098:5105   */\n      dup6\n        /* \"#utility.yul\":5094:5117   */\n      sub\n        /* \"#utility.yul\":5090:5122   */\n      slt\n        /* \"#utility.yul\":5087:5206   */\n      iszero\n      tag_461\n      jumpi\n        /* \"#utility.yul\":5125:5204   */\n      tag_462\n      tag_322\n      jump\t// in\n    tag_462:\n        /* \"#utility.yul\":5087:5206   */\n    tag_461:\n        /* \"#utility.yul\":5245:5246   */\n      0x00\n        /* \"#utility.yul\":5270:5323   */\n      tag_463\n        /* \"#utility.yul\":5315:5322   */\n      dup6\n        /* \"#utility.yul\":5306:5312   */\n      dup3\n        /* \"#utility.yul\":5295:5304   */\n      dup7\n        /* \"#utility.yul\":5291:5313   */\n      add\n        /* \"#utility.yul\":5270:5323   */\n      tag_340\n      jump\t// in\n    tag_463:\n        /* \"#utility.yul\":5260:5323   */\n      swap3\n      pop\n        /* \"#utility.yul\":5216:5333   */\n      pop\n        /* \"#utility.yul\":5372:5374   */\n      0x20\n        /* \"#utility.yul\":5398:5451   */\n      tag_464\n        /* \"#utility.yul\":5443:5450   */\n      dup6\n        /* \"#utility.yul\":5434:5440   */\n      dup3\n        /* \"#utility.yul\":5423:5432   */\n      dup7\n        /* \"#utility.yul\":5419:5441   */\n      add\n        /* \"#utility.yul\":5398:5451   */\n      tag_336\n      jump\t// in\n    tag_464:\n        /* \"#utility.yul\":5388:5451   */\n      swap2\n      pop\n        /* \"#utility.yul\":5343:5461   */\n      pop\n        /* \"#utility.yul\":4994:5468   */\n      swap3\n      pop\n      swap3\n      swap1\n      pop\n      jump\t// out\n        /* \"#utility.yul\":5474:5592   */\n    tag_341:\n        /* \"#utility.yul\":5561:5585   */\n      tag_466\n        /* \"#utility.yul\":5579:5584   */\n      dup2\n        /* \"#utility.yul\":5561:5585   */\n      tag_334\n      jump\t// in\n    tag_466:\n        /* \"#utility.yul\":5556:5559   */\n      dup3\n        /* \"#utility.yul\":5549:5586   */\n      mstore\n        /* \"#utility.yul\":5474:5592   */\n      pop\n      pop\n      jump\t// out\n        /* \"#utility.yul\":5598:5716   */\n    tag_342:\n        /* \"#utility.yul\":5685:5709   */\n      tag_468\n        /* \"#utility.yul\":5703:5708   */\n      dup2\n        /* \"#utility.yul\":5685:5709   */\n      tag_338\n      jump\t// in\n    tag_468:\n        /* \"#utility.yul\":5680:5683   */\n      dup3\n        /* \"#utility.yul\":5673:5710   */\n      mstore\n        /* \"#utility.yul\":5598:5716   */\n      pop\n      pop\n      jump\t// out\n        /* \"#utility.yul\":5722:5821   */\n    tag_343:\n        /* \"#utility.yul\":5774:5780   */\n      0x00\n        /* \"#utility.yul\":5808:5813   */\n      dup2\n        /* \"#utility.yul\":5802:5814   */\n      mload\n        /* \"#utility.yul\":5792:5814   */\n      swap1\n      pop\n        /* \"#utility.yul\":5722:5821   */\n      swap2\n      swap1\n      pop\n      jump\t// out\n        /* \"#utility.yul\":5827:5996   */\n    tag_344:\n        /* \"#utility.yul\":5911:5922   */\n      0x00\n        /* \"#utility.yul\":5945:5951   */\n      dup3\n        /* \"#utility.yul\":5940:5943   */\n      dup3\n        /* \"#utility.yul\":5933:5952   */\n      mstore\n        /* \"#utility.yul\":5985:5989   */\n      0x20\n        /* \"#utility.yul\":5980:5983   */\n      dup3\n        /* \"#utility.yul\":5976:5990   */\n      add\n        /* \"#utility.yul\":5961:5990   */\n      swap1\n      pop\n        /* \"#utility.yul\":5827:5996   */\n      swap3\n      swap2\n      pop\n      pop\n      jump\t// out\n        /* \"#utility.yul\":6002:6248   */\n    tag_345:\n        /* \"#utility.yul\":6083:6084   */\n      0x00\n        /* \"#utility.yul\":6093:6206   */\n    tag_472:\n        /* \"#utility.yul\":6107:6113   */\n      dup4\n        /* \"#utility.yul\":6104:6105   */\n      dup2\n        /* \"#utility.yul\":6101:6114   */\n      lt\n        /* \"#utility.yul\":6093:6206   */\n      iszero\n      tag_474\n      jumpi\n        /* \"#utility.yul\":6192:6193   */\n      dup1\n        /* \"#utility.yul\":6187:6190   */\n      dup3\n        /* \"#utility.yul\":6183:6194   */\n      add\n        /* \"#utility.yul\":6177:6195   */\n      mload\n        /* \"#utility.yul\":6173:6174   */\n      dup2\n        /* \"#utility.yul\":6168:6171   */\n      dup5\n        /* \"#utility.yul\":6164:6175   */\n      add\n        /* \"#utility.yul\":6157:6196   */\n      mstore\n        /* \"#utility.yul\":6129:6131   */\n      0x20\n        /* \"#utility.yul\":6126:6127   */\n      dup2\n        /* \"#utility.yul\":6122:6132   */\n      add\n        /* \"#utility.yul\":6117:6132   */\n      swap1\n      pop\n        /* \"#utility.yul\":6093:6206   */\n      jump(tag_472)\n    tag_474:\n        /* \"#utility.yul\":6240:6241   */\n      0x00\n        /* \"#utility.yul\":6231:6237   */\n      dup5\n        /* \"#utility.yul\":6226:6229   */\n      dup5\n        /* \"#utility.yul\":6222:6238   */\n      add\n        /* \"#utility.yul\":6215:6242   */\n      mstore\n        /* \"#utility.yul\":6064:6248   */\n      pop\n        /* \"#utility.yul\":6002:6248   */\n      pop\n      pop\n      pop\n      jump\t// out\n        /* \"#utility.yul\":6254:6631   */\n    tag_346:\n        /* \"#utility.yul\":6342:6345   */\n      0x00\n        /* \"#utility.yul\":6370:6409   */\n      tag_476\n        /* \"#utility.yul\":6403:6408   */\n      dup3\n        /* \"#utility.yul\":6370:6409   */\n      tag_343\n      jump\t// in\n    tag_476:\n        /* \"#utility.yul\":6425:6496   */\n      tag_477\n        /* \"#utility.yul\":6489:6495   */\n      dup2\n        /* \"#utility.yul\":6484:6487   */\n      dup6\n        /* \"#utility.yul\":6425:6496   */\n      tag_344\n      jump\t// in\n    tag_477:\n        /* \"#utility.yul\":6418:6496   */\n      swap4\n      pop\n        /* \"#utility.yul\":6505:6570   */\n      tag_478\n        /* \"#utility.yul\":6563:6569   */\n      dup2\n        /* \"#utility.yul\":6558:6561   */\n      dup6\n        /* \"#utility.yul\":6551:6555   */\n      0x20\n        /* \"#utility.yul\":6544:6549   */\n      dup7\n        /* \"#utility.yul\":6540:6556   */\n      add\n        /* \"#utility.yul\":6505:6570   */\n      tag_345\n      jump\t// in\n    tag_478:\n        /* \"#utility.yul\":6595:6624   */\n      tag_479\n        /* \"#utility.yul\":6617:6623   */\n      dup2\n        /* \"#utility.yul\":6595:6624   */\n      tag_326\n      jump\t// in\n    tag_479:\n        /* \"#utility.yul\":6590:6593   */\n      dup5\n        /* \"#utility.yul\":6586:6625   */\n      add\n        /* \"#utility.yul\":6579:6625   */\n      swap2\n      pop\n        /* \"#utility.yul\":6346:6631   */\n      pop\n        /* \"#utility.yul\":6254:6631   */\n      swap3\n      swap2\n      pop\n      pop\n      jump\t// out\n        /* \"#utility.yul\":6637:7836   */\n    tag_35:\n        /* \"#utility.yul\":6974:6978   */\n      0x00\n        /* \"#utility.yul\":7012:7015   */\n      0x0120\n        /* \"#utility.yul\":7001:7010   */\n      dup3\n        /* \"#utility.yul\":6997:7016   */\n      add\n        /* \"#utility.yul\":6989:7016   */\n      swap1\n      pop\n        /* \"#utility.yul\":7026:7097   */\n      tag_481\n        /* \"#utility.yul\":7094:7095   */\n      0x00\n        /* \"#utility.yul\":7083:7092   */\n      dup4\n        /* \"#utility.yul\":7079:7096   */\n      add\n        /* \"#utility.yul\":7070:7076   */\n      dup13\n        /* \"#utility.yul\":7026:7097   */\n      tag_341\n      jump\t// in\n    tag_481:\n        /* \"#utility.yul\":7107:7179   */\n      tag_482\n        /* \"#utility.yul\":7175:7177   */\n      0x20\n        /* \"#utility.yul\":7164:7173   */\n      dup4\n        /* \"#utility.yul\":7160:7178   */\n      add\n        /* \"#utility.yul\":7151:7157   */\n      dup12\n        /* \"#utility.yul\":7107:7179   */\n      tag_342\n      jump\t// in\n    tag_482:\n        /* \"#utility.yul\":7226:7235   */\n      dup2\n        /* \"#utility.yul\":7220:7224   */\n      dup2\n        /* \"#utility.yul\":7216:7236   */\n      sub\n        /* \"#utility.yul\":7211:7213   */\n      0x40\n        /* \"#utility.yul\":7200:7209   */\n      dup4\n        /* \"#utility.yul\":7196:7214   */\n      add\n        /* \"#utility.yul\":7189:7237   */\n      mstore\n        /* \"#utility.yul\":7254:7332   */\n      tag_483\n        /* \"#utility.yul\":7327:7331   */\n      dup2\n        /* \"#utility.yul\":7318:7324   */\n      dup11\n        /* \"#utility.yul\":7254:7332   */\n      tag_346\n      jump\t// in\n    tag_483:\n        /* \"#utility.yul\":7246:7332   */\n      swap1\n      pop\n        /* \"#utility.yul\":7342:7414   */\n      tag_484\n        /* \"#utility.yul\":7410:7412   */\n      0x60\n        /* \"#utility.yul\":7399:7408   */\n      dup4\n        /* \"#utility.yul\":7395:7413   */\n      add\n        /* \"#utility.yul\":7386:7392   */\n      dup10\n        /* \"#utility.yul\":7342:7414   */\n      tag_341\n      jump\t// in\n    tag_484:\n        /* \"#utility.yul\":7424:7497   */\n      tag_485\n        /* \"#utility.yul\":7492:7495   */\n      0x80\n        /* \"#utility.yul\":7481:7490   */\n      dup4\n        /* \"#utility.yul\":7477:7496   */\n      add\n        /* \"#utility.yul\":7468:7474   */\n      dup9\n        /* \"#utility.yul\":7424:7497   */\n      tag_341\n      jump\t// in\n    tag_485:\n        /* \"#utility.yul\":7507:7580   */\n      tag_486\n        /* \"#utility.yul\":7575:7578   */\n      0xa0\n        /* \"#utility.yul\":7564:7573   */\n      dup4\n        /* \"#utility.yul\":7560:7579   */\n      add\n        /* \"#utility.yul\":7551:7557   */\n      dup8\n        /* \"#utility.yul\":7507:7580   */\n      tag_341\n      jump\t// in\n    tag_486:\n        /* \"#utility.yul\":7590:7663   */\n      tag_487\n        /* \"#utility.yul\":7658:7661   */\n      0xc0\n        /* \"#utility.yul\":7647:7656   */\n      dup4\n        /* \"#utility.yul\":7643:7662   */\n      add\n        /* \"#utility.yul\":7634:7640   */\n      dup7\n        /* \"#utility.yul\":7590:7663   */\n      tag_341\n      jump\t// in\n    tag_487:\n        /* \"#utility.yul\":7673:7746   */\n      tag_488\n        /* \"#utility.yul\":7741:7744   */\n      0xe0\n        /* \"#utility.yul\":7730:7739   */\n      dup4\n        /* \"#utility.yul\":7726:7745   */\n      add\n        /* \"#utility.yul\":7717:7723   */\n      dup6\n        /* \"#utility.yul\":7673:7746   */\n      tag_341\n      jump\t// in\n    tag_488:\n        /* \"#utility.yul\":7756:7829   */\n      tag_489\n        /* \"#utility.yul\":7824:7827   */\n      0x0100\n        /* \"#utility.yul\":7813:7822   */\n      dup4\n        /* \"#utility.yul\":7809:7828   */\n      add\n        /* \"#utility.yul\":7800:7806   */\n      dup5\n        /* \"#utility.yul\":7756:7829   */\n      tag_341\n      jump\t// in\n    tag_489:\n        /* \"#utility.yul\":6637:7836   */\n      swap11\n      swap10\n      pop\n      pop\n      pop\n      pop\n      pop\n      pop\n      pop\n      pop\n      pop\n      pop\n      jump\t// out\n        /* \"#utility.yul\":7842:8171   */\n    tag_39:\n        /* \"#utility.yul\":7901:7907   */\n      0x00\n        /* \"#utility.yul\":7950:7952   */\n      0x20\n        /* \"#utility.yul\":7938:7947   */\n      dup3\n        /* \"#utility.yul\":7929:7936   */\n      dup5\n        /* \"#utility.yul\":7925:7948   */\n      sub\n        /* \"#utility.yul\":7921:7953   */\n      slt\n        /* \"#utility.yul\":7918:8037   */\n      iszero\n      tag_491\n      jumpi\n        /* \"#utility.yul\":7956:8035   */\n      tag_492\n      tag_322\n      jump\t// in\n    tag_492:\n        /* \"#utility.yul\":7918:8037   */\n    tag_491:\n        /* \"#utility.yul\":8076:8077   */\n      0x00\n        /* \"#utility.yul\":8101:8154   */\n      tag_493\n        /* \"#utility.yul\":8146:8153   */\n      dup5\n        /* \"#utility.yul\":8137:8143   */\n      dup3\n        /* \"#utility.yul\":8126:8135   */\n      dup6\n        /* \"#utility.yul\":8122:8144   */\n      add\n        /* \"#utility.yul\":8101:8154   */\n      tag_336\n      jump\t// in\n    tag_493:\n        /* \"#utility.yul\":8091:8154   */\n      swap2\n      pop\n        /* \"#utility.yul\":8047:8164   */\n      pop\n        /* \"#utility.yul\":7842:8171   */\n      swap3\n      swap2\n      pop\n      pop\n      jump\t// out\n        /* \"#utility.yul\":8177:9285   */\n    tag_46:\n        /* \"#utility.yul\":8494:8498   */\n      0x00\n        /* \"#utility.yul\":8532:8535   */\n      0x0120\n        /* \"#utility.yul\":8521:8530   */\n      dup3\n        /* \"#utility.yul\":8517:8536   */\n      add\n        /* \"#utility.yul\":8509:8536   */\n      swap1\n      pop\n        /* \"#utility.yul\":8546:8617   */\n      tag_495\n        /* \"#utility.yul\":8614:8615   */\n      0x00\n        /* \"#utility.yul\":8603:8612   */\n      dup4\n        /* \"#utility.yul\":8599:8616   */\n      add\n        /* \"#utility.yul\":8590:8596   */\n      dup13\n        /* \"#utility.yul\":8546:8617   */\n      tag_341\n      jump\t// in\n    tag_495:\n        /* \"#utility.yul\":8627:8699   */\n      tag_496\n        /* \"#utility.yul\":8695:8697   */\n      0x20\n        /* \"#utility.yul\":8684:8693   */\n      dup4\n        /* \"#utility.yul\":8680:8698   */\n      add\n        /* \"#utility.yul\":8671:8677   */\n      dup12\n        /* \"#utility.yul\":8627:8699   */\n      tag_342\n      jump\t// in\n    tag_496:\n        /* \"#utility.yul\":8709:8781   */\n      tag_497\n        /* \"#utility.yul\":8777:8779   */\n      0x40\n        /* \"#utility.yul\":8766:8775   */\n      dup4\n        /* \"#utility.yul\":8762:8780   */\n      add\n        /* \"#utility.yul\":8753:8759   */\n      dup11\n        /* \"#utility.yul\":8709:8781   */\n      tag_341\n      jump\t// in\n    tag_497:\n        /* \"#utility.yul\":8791:8863   */\n      tag_498\n        /* \"#utility.yul\":8859:8861   */\n      0x60\n        /* \"#utility.yul\":8848:8857   */\n      dup4\n        /* \"#utility.yul\":8844:8862   */\n      add\n        /* \"#utility.yul\":8835:8841   */\n      dup10\n        /* \"#utility.yul\":8791:8863   */\n      tag_341\n      jump\t// in\n    tag_498:\n        /* \"#utility.yul\":8873:8946   */\n      tag_499\n        /* \"#utility.yul\":8941:8944   */\n      0x80\n        /* \"#utility.yul\":8930:8939   */\n      dup4\n        /* \"#utility.yul\":8926:8945   */\n      add\n        /* \"#utility.yul\":8917:8923   */\n      dup9\n        /* \"#utility.yul\":8873:8946   */\n      tag_341\n      jump\t// in\n    tag_499:\n        /* \"#utility.yul\":8956:9029   */\n      tag_500\n        /* \"#utility.yul\":9024:9027   */\n      0xa0\n        /* \"#utility.yul\":9013:9022   */\n      dup4\n        /* \"#utility.yul\":9009:9028   */\n      add\n        /* \"#utility.yul\":9000:9006   */\n      dup8\n        /* \"#utility.yul\":8956:9029   */\n      tag_341\n      jump\t// in\n    tag_500:\n        /* \"#utility.yul\":9039:9112   */\n      tag_501\n        /* \"#utility.yul\":9107:9110   */\n      0xc0\n        /* \"#utility.yul\":9096:9105   */\n      dup4\n        /* \"#utility.yul\":9092:9111   */\n      add\n        /* \"#utility.yul\":9083:9089   */\n      dup7\n        /* \"#utility.yul\":9039:9112   */\n      tag_341\n      jump\t// in\n    tag_501:\n        /* \"#utility.yul\":9122:9195   */\n      tag_502\n        /* \"#utility.yul\":9190:9193   */\n      0xe0\n        /* \"#utility.yul\":9179:9188   */\n      dup4\n        /* \"#utility.yul\":9175:9194   */\n      add\n        /* \"#utility.yul\":9166:9172   */\n      dup6\n        /* \"#utility.yul\":9122:9195   */\n      tag_341\n      jump\t// in\n    tag_502:\n        /* \"#utility.yul\":9205:9278   */\n      tag_503\n        /* \"#utility.yul\":9273:9276   */\n      0x0100\n        /* \"#utility.yul\":9262:9271   */\n      dup4\n        /* \"#utility.yul\":9258:9277   */\n      add\n        /* \"#utility.yul\":9249:9255   */\n      dup5\n        /* \"#utility.yul\":9205:9278   */\n      tag_341\n      jump\t// in\n    tag_503:\n        /* \"#utility.yul\":8177:9285   */\n      swap11\n      swap10\n      pop\n      pop\n      pop\n      pop\n      pop\n      pop\n      pop\n      pop\n      pop\n      pop\n      jump\t// out\n        /* \"#utility.yul\":9291:9428   */\n    tag_347:\n        /* \"#utility.yul\":9381:9387   */\n      0x00\n        /* \"#utility.yul\":9415:9420   */\n      dup2\n        /* \"#utility.yul\":9409:9421   */\n      mload\n        /* \"#utility.yul\":9399:9421   */\n      swap1\n      pop\n        /* \"#utility.yul\":9291:9428   */\n      swap2\n      swap1\n      pop\n      jump\t// out\n        /* \"#utility.yul\":9434:9641   */\n    tag_348:\n        /* \"#utility.yul\":9556:9567   */\n      0x00\n        /* \"#utility.yul\":9590:9596   */\n      dup3\n        /* \"#utility.yul\":9585:9588   */\n      dup3\n        /* \"#utility.yul\":9578:9597   */\n      mstore\n        /* \"#utility.yul\":9630:9634   */\n      0x20\n        /* \"#utility.yul\":9625:9628   */\n      dup3\n        /* \"#utility.yul\":9621:9635   */\n      add\n        /* \"#utility.yul\":9606:9635   */\n      swap1\n      pop\n        /* \"#utility.yul\":9434:9641   */\n      swap3\n      swap2\n      pop\n      pop\n      jump\t// out\n        /* \"#utility.yul\":9647:9802   */\n    tag_349:\n        /* \"#utility.yul\":9737:9741   */\n      0x00\n        /* \"#utility.yul\":9760:9763   */\n      dup2\n        /* \"#utility.yul\":9752:9763   */\n      swap1\n      pop\n        /* \"#utility.yul\":9790:9794   */\n      0x20\n        /* \"#utility.yul\":9785:9788   */\n      dup3\n        /* \"#utility.yul\":9781:9795   */\n      add\n        /* \"#utility.yul\":9773:9795   */\n      swap1\n      pop\n        /* \"#utility.yul\":9647:9802   */\n      swap2\n      swap1\n      pop\n      jump\t// out\n        /* \"#utility.yul\":9808:9916   */\n    tag_350:\n        /* \"#utility.yul\":9885:9909   */\n      tag_508\n        /* \"#utility.yul\":9903:9908   */\n      dup2\n        /* \"#utility.yul\":9885:9909   */\n      tag_334\n      jump\t// in\n    tag_508:\n        /* \"#utility.yul\":9880:9883   */\n      dup3\n        /* \"#utility.yul\":9873:9910   */\n      mstore\n        /* \"#utility.yul\":9808:9916   */\n      pop\n      pop\n      jump\t// out\n        /* \"#utility.yul\":9922:10030   */\n    tag_351:\n        /* \"#utility.yul\":9999:10023   */\n      tag_510\n        /* \"#utility.yul\":10017:10022   */\n      dup2\n        /* \"#utility.yul\":9999:10023   */\n      tag_338\n      jump\t// in\n    tag_510:\n        /* \"#utility.yul\":9994:9997   */\n      dup3\n        /* \"#utility.yul\":9987:10024   */\n      mstore\n        /* \"#utility.yul\":9922:10030   */\n      pop\n      pop\n      jump\t// out\n        /* \"#utility.yul\":10100:11313   */\n    tag_352:\n        /* \"#utility.yul\":10233:10237   */\n      0xc0\n        /* \"#utility.yul\":10228:10231   */\n      dup3\n        /* \"#utility.yul\":10224:10238   */\n      add\n        /* \"#utility.yul\":10325:10329   */\n      0x00\n        /* \"#utility.yul\":10318:10323   */\n      dup3\n        /* \"#utility.yul\":10314:10330   */\n      add\n        /* \"#utility.yul\":10308:10331   */\n      mload\n        /* \"#utility.yul\":10344:10407   */\n      tag_512\n        /* \"#utility.yul\":10401:10405   */\n      0x00\n        /* \"#utility.yul\":10396:10399   */\n      dup6\n        /* \"#utility.yul\":10392:10406   */\n      add\n        /* \"#utility.yul\":10378:10390   */\n      dup3\n        /* \"#utility.yul\":10344:10407   */\n      tag_350\n      jump\t// in\n    tag_512:\n        /* \"#utility.yul\":10248:10417   */\n      pop\n        /* \"#utility.yul\":10501:10505   */\n      0x20\n        /* \"#utility.yul\":10494:10499   */\n      dup3\n        /* \"#utility.yul\":10490:10506   */\n      add\n        /* \"#utility.yul\":10484:10507   */\n      mload\n        /* \"#utility.yul\":10520:10583   */\n      tag_513\n        /* \"#utility.yul\":10577:10581   */\n      0x20\n        /* \"#utility.yul\":10572:10575   */\n      dup6\n        /* \"#utility.yul\":10568:10582   */\n      add\n        /* \"#utility.yul\":10554:10566   */\n      dup3\n        /* \"#utility.yul\":10520:10583   */\n      tag_351\n      jump\t// in\n    tag_513:\n        /* \"#utility.yul\":10427:10593   */\n      pop\n        /* \"#utility.yul\":10678:10682   */\n      0x40\n        /* \"#utility.yul\":10671:10676   */\n      dup3\n        /* \"#utility.yul\":10667:10683   */\n      add\n        /* \"#utility.yul\":10661:10684   */\n      mload\n        /* \"#utility.yul\":10697:10760   */\n      tag_514\n        /* \"#utility.yul\":10754:10758   */\n      0x40\n        /* \"#utility.yul\":10749:10752   */\n      dup6\n        /* \"#utility.yul\":10745:10759   */\n      add\n        /* \"#utility.yul\":10731:10743   */\n      dup3\n        /* \"#utility.yul\":10697:10760   */\n      tag_350\n      jump\t// in\n    tag_514:\n        /* \"#utility.yul\":10603:10770   */\n      pop\n        /* \"#utility.yul\":10857:10861   */\n      0x60\n        /* \"#utility.yul\":10850:10855   */\n      dup3\n        /* \"#utility.yul\":10846:10862   */\n      add\n        /* \"#utility.yul\":10840:10863   */\n      mload\n        /* \"#utility.yul\":10876:10939   */\n      tag_515\n        /* \"#utility.yul\":10933:10937   */\n      0x60\n        /* \"#utility.yul\":10928:10931   */\n      dup6\n        /* \"#utility.yul\":10924:10938   */\n      add\n        /* \"#utility.yul\":10910:10922   */\n      dup3\n        /* \"#utility.yul\":10876:10939   */\n      tag_350\n      jump\t// in\n    tag_515:\n        /* \"#utility.yul\":10780:10949   */\n      pop\n        /* \"#utility.yul\":11034:11038   */\n      0x80\n        /* \"#utility.yul\":11027:11032   */\n      dup3\n        /* \"#utility.yul\":11023:11039   */\n      add\n        /* \"#utility.yul\":11017:11040   */\n      mload\n        /* \"#utility.yul\":11053:11116   */\n      tag_516\n        /* \"#utility.yul\":11110:11114   */\n      0x80\n        /* \"#utility.yul\":11105:11108   */\n      dup6\n        /* \"#utility.yul\":11101:11115   */\n      add\n        /* \"#utility.yul\":11087:11099   */\n      dup3\n        /* \"#utility.yul\":11053:11116   */\n      tag_350\n      jump\t// in\n    tag_516:\n        /* \"#utility.yul\":10959:11126   */\n      pop\n        /* \"#utility.yul\":11214:11218   */\n      0xa0\n        /* \"#utility.yul\":11207:11212   */\n      dup3\n        /* \"#utility.yul\":11203:11219   */\n      add\n        /* \"#utility.yul\":11197:11220   */\n      mload\n        /* \"#utility.yul\":11233:11296   */\n      tag_517\n        /* \"#utility.yul\":11290:11294   */\n      0xa0\n        /* \"#utility.yul\":11285:11288   */\n      dup6\n        /* \"#utility.yul\":11281:11295   */\n      add\n        /* \"#utility.yul\":11267:11279   */\n      dup3\n        /* \"#utility.yul\":11233:11296   */\n      tag_350\n      jump\t// in\n    tag_517:\n        /* \"#utility.yul\":11136:11306   */\n      pop\n        /* \"#utility.yul\":10202:11313   */\n      pop\n        /* \"#utility.yul\":10100:11313   */\n      pop\n      pop\n      jump\t// out\n        /* \"#utility.yul\":11319:11590   */\n    tag_353:\n        /* \"#utility.yul\":11434:11444   */\n      0x00\n        /* \"#utility.yul\":11455:11547   */\n      tag_519\n        /* \"#utility.yul\":11543:11546   */\n      dup4\n        /* \"#utility.yul\":11535:11541   */\n      dup4\n        /* \"#utility.yul\":11455:11547   */\n      tag_352\n      jump\t// in\n    tag_519:\n        /* \"#utility.yul\":11579:11583   */\n      0xc0\n        /* \"#utility.yul\":11574:11577   */\n      dup4\n        /* \"#utility.yul\":11570:11584   */\n      add\n        /* \"#utility.yul\":11556:11584   */\n      swap1\n      pop\n        /* \"#utility.yul\":11319:11590   */\n      swap3\n      swap2\n      pop\n      pop\n      jump\t// out\n        /* \"#utility.yul\":11596:11732   */\n    tag_354:\n        /* \"#utility.yul\":11689:11693   */\n      0x00\n        /* \"#utility.yul\":11721:11725   */\n      0x20\n        /* \"#utility.yul\":11716:11719   */\n      dup3\n        /* \"#utility.yul\":11712:11726   */\n      add\n        /* \"#utility.yul\":11704:11726   */\n      swap1\n      pop\n        /* \"#utility.yul\":11596:11732   */\n      swap2\n      swap1\n      pop\n      jump\t// out\n        /* \"#utility.yul\":11806:12722   */\n    tag_355:\n        /* \"#utility.yul\":11971:11974   */\n      0x00\n        /* \"#utility.yul\":12000:12077   */\n      tag_522\n        /* \"#utility.yul\":12071:12076   */\n      dup3\n        /* \"#utility.yul\":12000:12077   */\n      tag_347\n      jump\t// in\n    tag_522:\n        /* \"#utility.yul\":12093:12202   */\n      tag_523\n        /* \"#utility.yul\":12195:12201   */\n      dup2\n        /* \"#utility.yul\":12190:12193   */\n      dup6\n        /* \"#utility.yul\":12093:12202   */\n      tag_348\n      jump\t// in\n    tag_523:\n        /* \"#utility.yul\":12086:12202   */\n      swap4\n      pop\n        /* \"#utility.yul\":12226:12305   */\n      tag_524\n        /* \"#utility.yul\":12299:12304   */\n      dup4\n        /* \"#utility.yul\":12226:12305   */\n      tag_349\n      jump\t// in\n    tag_524:\n        /* \"#utility.yul\":12328:12335   */\n      dup1\n        /* \"#utility.yul\":12359:12360   */\n      0x00\n        /* \"#utility.yul\":12344:12697   */\n    tag_525:\n        /* \"#utility.yul\":12369:12375   */\n      dup4\n        /* \"#utility.yul\":12366:12367   */\n      dup2\n        /* \"#utility.yul\":12363:12376   */\n      lt\n        /* \"#utility.yul\":12344:12697   */\n      iszero\n      tag_527\n      jumpi\n        /* \"#utility.yul\":12445:12451   */\n      dup2\n        /* \"#utility.yul\":12439:12452   */\n      mload\n        /* \"#utility.yul\":12472:12581   */\n      tag_528\n        /* \"#utility.yul\":12577:12580   */\n      dup9\n        /* \"#utility.yul\":12562:12575   */\n      dup3\n        /* \"#utility.yul\":12472:12581   */\n      tag_353\n      jump\t// in\n    tag_528:\n        /* \"#utility.yul\":12465:12581   */\n      swap8\n      pop\n        /* \"#utility.yul\":12604:12687   */\n      tag_529\n        /* \"#utility.yul\":12680:12686   */\n      dup4\n        /* \"#utility.yul\":12604:12687   */\n      tag_354\n      jump\t// in\n    tag_529:\n        /* \"#utility.yul\":12594:12687   */\n      swap3\n      pop\n        /* \"#utility.yul\":12404:12697   */\n      pop\n        /* \"#utility.yul\":12391:12392   */\n      0x01\n        /* \"#utility.yul\":12388:12389   */\n      dup2\n        /* \"#utility.yul\":12384:12393   */\n      add\n        /* \"#utility.yul\":12379:12393   */\n      swap1\n      pop\n        /* \"#utility.yul\":12344:12697   */\n      jump(tag_525)\n    tag_527:\n        /* \"#utility.yul\":12348:12362   */\n      pop\n        /* \"#utility.yul\":12713:12716   */\n      dup6\n        /* \"#utility.yul\":12706:12716   */\n      swap4\n      pop\n        /* \"#utility.yul\":11976:12722   */\n      pop\n      pop\n      pop\n        /* \"#utility.yul\":11806:12722   */\n      swap3\n      swap2\n      pop\n      pop\n      jump\t// out\n        /* \"#utility.yul\":12728:13193   */\n    tag_51:\n        /* \"#utility.yul\":12917:12921   */\n      0x00\n        /* \"#utility.yul\":12955:12957   */\n      0x20\n        /* \"#utility.yul\":12944:12953   */\n      dup3\n        /* \"#utility.yul\":12940:12958   */\n      add\n        /* \"#utility.yul\":12932:12958   */\n      swap1\n      pop\n        /* \"#utility.yul\":13004:13013   */\n      dup2\n        /* \"#utility.yul\":12998:13002   */\n      dup2\n        /* \"#utility.yul\":12994:13014   */\n      sub\n        /* \"#utility.yul\":12990:12991   */\n      0x00\n        /* \"#utility.yul\":12979:12988   */\n      dup4\n        /* \"#utility.yul\":12975:12992   */\n      add\n        /* \"#utility.yul\":12968:13015   */\n      mstore\n        /* \"#utility.yul\":13032:13186   */\n      tag_531\n        /* \"#utility.yul\":13181:13185   */\n      dup2\n        /* \"#utility.yul\":13172:13178   */\n      dup5\n        /* \"#utility.yul\":13032:13186   */\n      tag_355\n      jump\t// in\n    tag_531:\n        /* \"#utility.yul\":13024:13186   */\n      swap1\n      pop\n        /* \"#utility.yul\":12728:13193   */\n      swap3\n      swap2\n      pop\n      pop\n      jump\t// out\n        /* \"#utility.yul\":13199:13964   */\n    tag_54:\n        /* \"#utility.yul\":13285:13291   */\n      0x00\n        /* \"#utility.yul\":13293:13299   */\n      dup1\n        /* \"#utility.yul\":13301:13307   */\n      0x00\n        /* \"#utility.yul\":13309:13315   */\n      dup1\n        /* \"#utility.yul\":13358:13361   */\n      0x80\n        /* \"#utility.yul\":13346:13355   */\n      dup6\n        /* \"#utility.yul\":13337:13344   */\n      dup8\n        /* \"#utility.yul\":13333:13356   */\n      sub\n        /* \"#utility.yul\":13329:13362   */\n      slt\n        /* \"#utility.yul\":13326:13446   */\n      iszero\n      tag_533\n      jumpi\n        /* \"#utility.yul\":13365:13444   */\n      tag_534\n      tag_322\n      jump\t// in\n    tag_534:\n        /* \"#utility.yul\":13326:13446   */\n    tag_533:\n        /* \"#utility.yul\":13485:13486   */\n      0x00\n        /* \"#utility.yul\":13510:13563   */\n      tag_535\n        /* \"#utility.yul\":13555:13562   */\n      dup8\n        /* \"#utility.yul\":13546:13552   */\n      dup3\n        /* \"#utility.yul\":13535:13544   */\n      dup9\n        /* \"#utility.yul\":13531:13553   */\n      add\n        /* \"#utility.yul\":13510:13563   */\n      tag_336\n      jump\t// in\n    tag_535:\n        /* \"#utility.yul\":13500:13563   */\n      swap5\n      pop\n        /* \"#utility.yul\":13456:13573   */\n      pop\n        /* \"#utility.yul\":13612:13614   */\n      0x20\n        /* \"#utility.yul\":13638:13691   */\n      tag_536\n        /* \"#utility.yul\":13683:13690   */\n      dup8\n        /* \"#utility.yul\":13674:13680   */\n      dup3\n        /* \"#utility.yul\":13663:13672   */\n      dup9\n        /* \"#utility.yul\":13659:13681   */\n      add\n        /* \"#utility.yul\":13638:13691   */\n      tag_336\n      jump\t// in\n    tag_536:\n        /* \"#utility.yul\":13628:13691   */\n      swap4\n      pop\n        /* \"#utility.yul\":13583:13701   */\n      pop\n        /* \"#utility.yul\":13740:13742   */\n      0x40\n        /* \"#utility.yul\":13766:13819   */\n      tag_537\n        /* \"#utility.yul\":13811:13818   */\n      dup8\n        /* \"#utility.yul\":13802:13808   */\n      dup3\n        /* \"#utility.yul\":13791:13800   */\n      dup9\n        /* \"#utility.yul\":13787:13809   */\n      add\n        /* \"#utility.yul\":13766:13819   */\n      tag_336\n      jump\t// in\n    tag_537:\n        /* \"#utility.yul\":13756:13819   */\n      swap3\n      pop\n        /* \"#utility.yul\":13711:13829   */\n      pop\n        /* \"#utility.yul\":13868:13870   */\n      0x60\n        /* \"#utility.yul\":13894:13947   */\n      tag_538\n        /* \"#utility.yul\":13939:13946   */\n      dup8\n        /* \"#utility.yul\":13930:13936   */\n      dup3\n        /* \"#utility.yul\":13919:13928   */\n      dup9\n        /* \"#utility.yul\":13915:13937   */\n      add\n        /* \"#utility.yul\":13894:13947   */\n      tag_336\n      jump\t// in\n    tag_538:\n        /* \"#utility.yul\":13884:13947   */\n      swap2\n      pop\n        /* \"#utility.yul\":13839:13957   */\n      pop\n        /* \"#utility.yul\":13199:13964   */\n      swap3\n      swap6\n      swap2\n      swap5\n      pop\n      swap3\n      pop\n      jump\t// out\n        /* \"#utility.yul\":13970:14745   */\n    tag_61:\n        /* \"#utility.yul\":14203:14207   */\n      0x00\n        /* \"#utility.yul\":14241:14244   */\n      0xc0\n        /* \"#utility.yul\":14230:14239   */\n      dup3\n        /* \"#utility.yul\":14226:14245   */\n      add\n        /* \"#utility.yul\":14218:14245   */\n      swap1\n      pop\n        /* \"#utility.yul\":14255:14326   */\n      tag_540\n        /* \"#utility.yul\":14323:14324   */\n      0x00\n        /* \"#utility.yul\":14312:14321   */\n      dup4\n        /* \"#utility.yul\":14308:14325   */\n      add\n        /* \"#utility.yul\":14299:14305   */\n      dup10\n        /* \"#utility.yul\":14255:14326   */\n      tag_341\n      jump\t// in\n    tag_540:\n        /* \"#utility.yul\":14336:14408   */\n      tag_541\n        /* \"#utility.yul\":14404:14406   */\n      0x20\n        /* \"#utility.yul\":14393:14402   */\n      dup4\n        /* \"#utility.yul\":14389:14407   */\n      add\n        /* \"#utility.yul\":14380:14386   */\n      dup9\n        /* \"#utility.yul\":14336:14408   */\n      tag_342\n      jump\t// in\n    tag_541:\n        /* \"#utility.yul\":14418:14490   */\n      tag_542\n        /* \"#utility.yul\":14486:14488   */\n      0x40\n        /* \"#utility.yul\":14475:14484   */\n      dup4\n        /* \"#utility.yul\":14471:14489   */\n      add\n        /* \"#utility.yul\":14462:14468   */\n      dup8\n        /* \"#utility.yul\":14418:14490   */\n      tag_341\n      jump\t// in\n    tag_542:\n        /* \"#utility.yul\":14500:14572   */\n      tag_543\n        /* \"#utility.yul\":14568:14570   */\n      0x60\n        /* \"#utility.yul\":14557:14566   */\n      dup4\n        /* \"#utility.yul\":14553:14571   */\n      add\n        /* \"#utility.yul\":14544:14550   */\n      dup7\n        /* \"#utility.yul\":14500:14572   */\n      tag_341\n      jump\t// in\n    tag_543:\n        /* \"#utility.yul\":14582:14655   */\n      tag_544\n        /* \"#utility.yul\":14650:14653   */\n      0x80\n        /* \"#utility.yul\":14639:14648   */\n      dup4\n        /* \"#utility.yul\":14635:14654   */\n      add\n        /* \"#utility.yul\":14626:14632   */\n      dup6\n        /* \"#utility.yul\":14582:14655   */\n      tag_341\n      jump\t// in\n    tag_544:\n        /* \"#utility.yul\":14665:14738   */\n      tag_545\n        /* \"#utility.yul\":14733:14736   */\n      0xa0\n        /* \"#utility.yul\":14722:14731   */\n      dup4\n        /* \"#utility.yul\":14718:14737   */\n      add\n        /* \"#utility.yul\":14709:14715   */\n      dup5\n        /* \"#utility.yul\":14665:14738   */\n      tag_341\n      jump\t// in\n    tag_545:\n        /* \"#utility.yul\":13970:14745   */\n      swap8\n      swap7\n      pop\n      pop\n      pop\n      pop\n      pop\n      pop\n      pop\n      jump\t// out\n        /* \"#utility.yul\":14751:15370   */\n    tag_75:\n        /* \"#utility.yul\":14828:14834   */\n      0x00\n        /* \"#utility.yul\":14836:14842   */\n      dup1\n        /* \"#utility.yul\":14844:14850   */\n      0x00\n        /* \"#utility.yul\":14893:14895   */\n      0x60\n        /* \"#utility.yul\":14881:14890   */\n      dup5\n        /* \"#utility.yul\":14872:14879   */\n      dup7\n        /* \"#utility.yul\":14868:14891   */\n      sub\n        /* \"#utility.yul\":14864:14896   */\n      slt\n        /* \"#utility.yul\":14861:14980   */\n      iszero\n      tag_547\n      jumpi\n        /* \"#utility.yul\":14899:14978   */\n      tag_548\n      tag_322\n      jump\t// in\n    tag_548:\n        /* \"#utility.yul\":14861:14980   */\n    tag_547:\n        /* \"#utility.yul\":15019:15020   */\n      0x00\n        /* \"#utility.yul\":15044:15097   */\n      tag_549\n        /* \"#utility.yul\":15089:15096   */\n      dup7\n        /* \"#utility.yul\":15080:15086   */\n      dup3\n        /* \"#utility.yul\":15069:15078   */\n      dup8\n        /* \"#utility.yul\":15065:15087   */\n      add\n        /* \"#utility.yul\":15044:15097   */\n      tag_336\n      jump\t// in\n    tag_549:\n        /* \"#utility.yul\":15034:15097   */\n      swap4\n      pop\n        /* \"#utility.yul\":14990:15107   */\n      pop\n        /* \"#utility.yul\":15146:15148   */\n      0x20\n        /* \"#utility.yul\":15172:15225   */\n      tag_550\n        /* \"#utility.yul\":15217:15224   */\n      dup7\n        /* \"#utility.yul\":15208:15214   */\n      dup3\n        /* \"#utility.yul\":15197:15206   */\n      dup8\n        /* \"#utility.yul\":15193:15215   */\n      add\n        /* \"#utility.yul\":15172:15225   */\n      tag_336\n      jump\t// in\n    tag_550:\n        /* \"#utility.yul\":15162:15225   */\n      swap3\n      pop\n        /* \"#utility.yul\":15117:15235   */\n      pop\n        /* \"#utility.yul\":15274:15276   */\n      0x40\n        /* \"#utility.yul\":15300:15353   */\n      tag_551\n        /* \"#utility.yul\":15345:15352   */\n      dup7\n        /* \"#utility.yul\":15336:15342   */\n      dup3\n        /* \"#utility.yul\":15325:15334   */\n      dup8\n        /* \"#utility.yul\":15321:15343   */\n      add\n        /* \"#utility.yul\":15300:15353   */\n      tag_336\n      jump\t// in\n    tag_551:\n        /* \"#utility.yul\":15290:15353   */\n      swap2\n      pop\n        /* \"#utility.yul\":15245:15363   */\n      pop\n        /* \"#utility.yul\":14751:15370   */\n      swap3\n      pop\n      swap3\n      pop\n      swap3\n      jump\t// out\n        /* \"#utility.yul\":15376:15511   */\n    tag_356:\n        /* \"#utility.yul\":15464:15470   */\n      0x00\n        /* \"#utility.yul\":15498:15503   */\n      dup2\n        /* \"#utility.yul\":15492:15504   */\n      mload\n        /* \"#utility.yul\":15482:15504   */\n      swap1\n      pop\n        /* \"#utility.yul\":15376:15511   */\n      swap2\n      swap1\n      pop\n      jump\t// out\n        /* \"#utility.yul\":15517:15722   */\n    tag_357:\n        /* \"#utility.yul\":15637:15648   */\n      0x00\n        /* \"#utility.yul\":15671:15677   */\n      dup3\n        /* \"#utility.yul\":15666:15669   */\n      dup3\n        /* \"#utility.yul\":15659:15678   */\n      mstore\n        /* \"#utility.yul\":15711:15715   */\n      0x20\n        /* \"#utility.yul\":15706:15709   */\n      dup3\n        /* \"#utility.yul\":15702:15716   */\n      add\n        /* \"#utility.yul\":15687:15716   */\n      swap1\n      pop\n        /* \"#utility.yul\":15517:15722   */\n      swap3\n      swap2\n      pop\n      pop\n      jump\t// out\n        /* \"#utility.yul\":15728:15881   */\n    tag_358:\n        /* \"#utility.yul\":15816:15820   */\n      0x00\n        /* \"#utility.yul\":15839:15842   */\n      dup2\n        /* \"#utility.yul\":15831:15842   */\n      swap1\n      pop\n        /* \"#utility.yul\":15869:15873   */\n      0x20\n        /* \"#utility.yul\":15864:15867   */\n      dup3\n        /* \"#utility.yul\":15860:15874   */\n      add\n        /* \"#utility.yul\":15852:15874   */\n      swap1\n      pop\n        /* \"#utility.yul\":15728:15881   */\n      swap2\n      swap1\n      pop\n      jump\t// out\n        /* \"#utility.yul\":15887:16046   */\n    tag_359:\n        /* \"#utility.yul\":15961:15972   */\n      0x00\n        /* \"#utility.yul\":15995:16001   */\n      dup3\n        /* \"#utility.yul\":15990:15993   */\n      dup3\n        /* \"#utility.yul\":15983:16002   */\n      mstore\n        /* \"#utility.yul\":16035:16039   */\n      0x20\n        /* \"#utility.yul\":16030:16033   */\n      dup3\n        /* \"#utility.yul\":16026:16040   */\n      add\n        /* \"#utility.yul\":16011:16040   */\n      swap1\n      pop\n        /* \"#utility.yul\":15887:16046   */\n      swap3\n      swap2\n      pop\n      pop\n      jump\t// out\n        /* \"#utility.yul\":16052:16409   */\n    tag_360:\n        /* \"#utility.yul\":16130:16133   */\n      0x00\n        /* \"#utility.yul\":16158:16197   */\n      tag_557\n        /* \"#utility.yul\":16191:16196   */\n      dup3\n        /* \"#utility.yul\":16158:16197   */\n      tag_343\n      jump\t// in\n    tag_557:\n        /* \"#utility.yul\":16213:16274   */\n      tag_558\n        /* \"#utility.yul\":16267:16273   */\n      dup2\n        /* \"#utility.yul\":16262:16265   */\n      dup6\n        /* \"#utility.yul\":16213:16274   */\n      tag_359\n      jump\t// in\n    tag_558:\n        /* \"#utility.yul\":16206:16274   */\n      swap4\n      pop\n        /* \"#utility.yul\":16283:16348   */\n      tag_559\n        /* \"#utility.yul\":16341:16347   */\n      dup2\n        /* \"#utility.yul\":16336:16339   */\n      dup6\n        /* \"#utility.yul\":16329:16333   */\n      0x20\n        /* \"#utility.yul\":16322:16327   */\n      dup7\n        /* \"#utility.yul\":16318:16334   */\n      add\n        /* \"#utility.yul\":16283:16348   */\n      tag_345\n      jump\t// in\n    tag_559:\n        /* \"#utility.yul\":16373:16402   */\n      tag_560\n        /* \"#utility.yul\":16395:16401   */\n      dup2\n        /* \"#utility.yul\":16373:16402   */\n      tag_326\n      jump\t// in\n    tag_560:\n        /* \"#utility.yul\":16368:16371   */\n      dup5\n        /* \"#utility.yul\":16364:16403   */\n      add\n        /* \"#utility.yul\":16357:16403   */\n      swap2\n      pop\n        /* \"#utility.yul\":16134:16409   */\n      pop\n        /* \"#utility.yul\":16052:16409   */\n      swap3\n      swap2\n      pop\n      pop\n      jump\t// out\n        /* \"#utility.yul\":16475:18348   */\n    tag_361:\n        /* \"#utility.yul\":16576:16579   */\n      0x00\n        /* \"#utility.yul\":16612:16618   */\n      0x0120\n        /* \"#utility.yul\":16607:16610   */\n      dup4\n        /* \"#utility.yul\":16603:16619   */\n      add\n        /* \"#utility.yul\":16704:16708   */\n      0x00\n        /* \"#utility.yul\":16697:16702   */\n      dup4\n        /* \"#utility.yul\":16693:16709   */\n      add\n        /* \"#utility.yul\":16687:16710   */\n      mload\n        /* \"#utility.yul\":16723:16786   */\n      tag_562\n        /* \"#utility.yul\":16780:16784   */\n      0x00\n        /* \"#utility.yul\":16775:16778   */\n      dup7\n        /* \"#utility.yul\":16771:16785   */\n      add\n        /* \"#utility.yul\":16757:16769   */\n      dup3\n        /* \"#utility.yul\":16723:16786   */\n      tag_350\n      jump\t// in\n    tag_562:\n        /* \"#utility.yul\":16629:16796   */\n      pop\n        /* \"#utility.yul\":16882:16886   */\n      0x20\n        /* \"#utility.yul\":16875:16880   */\n      dup4\n        /* \"#utility.yul\":16871:16887   */\n      add\n        /* \"#utility.yul\":16865:16888   */\n      mload\n        /* \"#utility.yul\":16901:16964   */\n      tag_563\n        /* \"#utility.yul\":16958:16962   */\n      0x20\n        /* \"#utility.yul\":16953:16956   */\n      dup7\n        /* \"#utility.yul\":16949:16963   */\n      add\n        /* \"#utility.yul\":16935:16947   */\n      dup3\n        /* \"#utility.yul\":16901:16964   */\n      tag_351\n      jump\t// in\n    tag_563:\n        /* \"#utility.yul\":16806:16974   */\n      pop\n        /* \"#utility.yul\":17063:17067   */\n      0x40\n        /* \"#utility.yul\":17056:17061   */\n      dup4\n        /* \"#utility.yul\":17052:17068   */\n      add\n        /* \"#utility.yul\":17046:17069   */\n      mload\n        /* \"#utility.yul\":17116:17119   */\n      dup5\n        /* \"#utility.yul\":17110:17114   */\n      dup3\n        /* \"#utility.yul\":17106:17120   */\n      sub\n        /* \"#utility.yul\":17099:17103   */\n      0x40\n        /* \"#utility.yul\":17094:17097   */\n      dup7\n        /* \"#utility.yul\":17090:17104   */\n      add\n        /* \"#utility.yul\":17083:17121   */\n      mstore\n        /* \"#utility.yul\":17142:17215   */\n      tag_564\n        /* \"#utility.yul\":17210:17214   */\n      dup3\n        /* \"#utility.yul\":17196:17208   */\n      dup3\n        /* \"#utility.yul\":17142:17215   */\n      tag_360\n      jump\t// in\n    tag_564:\n        /* \"#utility.yul\":17134:17215   */\n      swap2\n      pop\n        /* \"#utility.yul\":16984:17226   */\n      pop\n        /* \"#utility.yul\":17314:17318   */\n      0x60\n        /* \"#utility.yul\":17307:17312   */\n      dup4\n        /* \"#utility.yul\":17303:17319   */\n      add\n        /* \"#utility.yul\":17297:17320   */\n      mload\n        /* \"#utility.yul\":17333:17396   */\n      tag_565\n        /* \"#utility.yul\":17390:17394   */\n      0x60\n        /* \"#utility.yul\":17385:17388   */\n      dup7\n        /* \"#utility.yul\":17381:17395   */\n      add\n        /* \"#utility.yul\":17367:17379   */\n      dup3\n        /* \"#utility.yul\":17333:17396   */\n      tag_350\n      jump\t// in\n    tag_565:\n        /* \"#utility.yul\":17236:17406   */\n      pop\n        /* \"#utility.yul\":17491:17495   */\n      0x80\n        /* \"#utility.yul\":17484:17489   */\n      dup4\n        /* \"#utility.yul\":17480:17496   */\n      add\n        /* \"#utility.yul\":17474:17497   */\n      mload\n        /* \"#utility.yul\":17510:17573   */\n      tag_566\n        /* \"#utility.yul\":17567:17571   */\n      0x80\n        /* \"#utility.yul\":17562:17565   */\n      dup7\n        /* \"#utility.yul\":17558:17572   */\n      add\n        /* \"#utility.yul\":17544:17556   */\n      dup3\n        /* \"#utility.yul\":17510:17573   */\n      tag_350\n      jump\t// in\n    tag_566:\n        /* \"#utility.yul\":17416:17583   */\n      pop\n        /* \"#utility.yul\":17674:17678   */\n      0xa0\n        /* \"#utility.yul\":17667:17672   */\n      dup4\n        /* \"#utility.yul\":17663:17679   */\n      add\n        /* \"#utility.yul\":17657:17680   */\n      mload\n        /* \"#utility.yul\":17693:17756   */\n      tag_567\n        /* \"#utility.yul\":17750:17754   */\n      0xa0\n        /* \"#utility.yul\":17745:17748   */\n      dup7\n        /* \"#utility.yul\":17741:17755   */\n      add\n        /* \"#utility.yul\":17727:17739   */\n      dup3\n        /* \"#utility.yul\":17693:17756   */\n      tag_350\n      jump\t// in\n    tag_567:\n        /* \"#utility.yul\":17593:17766   */\n      pop\n        /* \"#utility.yul\":17859:17863   */\n      0xc0\n        /* \"#utility.yul\":17852:17857   */\n      dup4\n        /* \"#utility.yul\":17848:17864   */\n      add\n        /* \"#utility.yul\":17842:17865   */\n      mload\n        /* \"#utility.yul\":17878:17941   */\n      tag_568\n        /* \"#utility.yul\":17935:17939   */\n      0xc0\n        /* \"#utility.yul\":17930:17933   */\n      dup7\n        /* \"#utility.yul\":17926:17940   */\n      add\n        /* \"#utility.yul\":17912:17924   */\n      dup3\n        /* \"#utility.yul\":17878:17941   */\n      tag_350\n      jump\t// in\n    tag_568:\n        /* \"#utility.yul\":17776:17951   */\n      pop\n        /* \"#utility.yul\":18044:18048   */\n      0xe0\n        /* \"#utility.yul\":18037:18042   */\n      dup4\n        /* \"#utility.yul\":18033:18049   */\n      add\n        /* \"#utility.yul\":18027:18050   */\n      mload\n        /* \"#utility.yul\":18063:18126   */\n      tag_569\n        /* \"#utility.yul\":18120:18124   */\n      0xe0\n        /* \"#utility.yul\":18115:18118   */\n      dup7\n        /* \"#utility.yul\":18111:18125   */\n      add\n        /* \"#utility.yul\":18097:18109   */\n      dup3\n        /* \"#utility.yul\":18063:18126   */\n      tag_350\n      jump\t// in\n    tag_569:\n        /* \"#utility.yul\":17961:18136   */\n      pop\n        /* \"#utility.yul\":18225:18231   */\n      0x0100\n        /* \"#utility.yul\":18218:18223   */\n      dup4\n        /* \"#utility.yul\":18214:18232   */\n      add\n        /* \"#utility.yul\":18208:18233   */\n      mload\n        /* \"#utility.yul\":18246:18311   */\n      tag_570\n        /* \"#utility.yul\":18303:18309   */\n      0x0100\n        /* \"#utility.yul\":18298:18301   */\n      dup7\n        /* \"#utility.yul\":18294:18310   */\n      add\n        /* \"#utility.yul\":18280:18292   */\n      dup3\n        /* \"#utility.yul\":18246:18311   */\n      tag_350\n      jump\t// in\n    tag_570:\n        /* \"#utility.yul\":18146:18321   */\n      pop\n        /* \"#utility.yul\":18338:18342   */\n      dup1\n        /* \"#utility.yul\":18331:18342   */\n      swap2\n      pop\n        /* \"#utility.yul\":16581:18348   */\n      pop\n        /* \"#utility.yul\":16475:18348   */\n      swap3\n      swap2\n      pop\n      pop\n      jump\t// out\n        /* \"#utility.yul\":18354:18594   */\n    tag_362:\n        /* \"#utility.yul\":18465:18475   */\n      0x00\n        /* \"#utility.yul\":18500:18588   */\n      tag_572\n        /* \"#utility.yul\":18584:18587   */\n      dup4\n        /* \"#utility.yul\":18576:18582   */\n      dup4\n        /* \"#utility.yul\":18500:18588   */\n      tag_361\n      jump\t// in\n    tag_572:\n        /* \"#utility.yul\":18486:18588   */\n      swap1\n      pop\n        /* \"#utility.yul\":18354:18594   */\n      swap3\n      swap2\n      pop\n      pop\n      jump\t// out\n        /* \"#utility.yul\":18600:18734   */\n    tag_363:\n        /* \"#utility.yul\":18691:18695   */\n      0x00\n        /* \"#utility.yul\":18723:18727   */\n      0x20\n        /* \"#utility.yul\":18718:18721   */\n      dup3\n        /* \"#utility.yul\":18714:18728   */\n      add\n        /* \"#utility.yul\":18706:18728   */\n      swap1\n      pop\n        /* \"#utility.yul\":18600:18734   */\n      swap2\n      swap1\n      pop\n      jump\t// out\n        /* \"#utility.yul\":18804:19883   */\n    tag_364:\n        /* \"#utility.yul\":18965:18968   */\n      0x00\n        /* \"#utility.yul\":18994:19069   */\n      tag_575\n        /* \"#utility.yul\":19063:19068   */\n      dup3\n        /* \"#utility.yul\":18994:19069   */\n      tag_356\n      jump\t// in\n    tag_575:\n        /* \"#utility.yul\":19085:19192   */\n      tag_576\n        /* \"#utility.yul\":19185:19191   */\n      dup2\n        /* \"#utility.yul\":19180:19183   */\n      dup6\n        /* \"#utility.yul\":19085:19192   */\n      tag_357\n      jump\t// in\n    tag_576:\n        /* \"#utility.yul\":19078:19192   */\n      swap4\n      pop\n        /* \"#utility.yul\":19218:19221   */\n      dup4\n        /* \"#utility.yul\":19263:19267   */\n      0x20\n        /* \"#utility.yul\":19255:19261   */\n      dup3\n        /* \"#utility.yul\":19251:19268   */\n      mul\n        /* \"#utility.yul\":19246:19249   */\n      dup6\n        /* \"#utility.yul\":19242:19269   */\n      add\n        /* \"#utility.yul\":19293:19370   */\n      tag_577\n        /* \"#utility.yul\":19364:19369   */\n      dup6\n        /* \"#utility.yul\":19293:19370   */\n      tag_358\n      jump\t// in\n    tag_577:\n        /* \"#utility.yul\":19393:19400   */\n      dup1\n        /* \"#utility.yul\":19424:19425   */\n      0x00\n        /* \"#utility.yul\":19409:19838   */\n    tag_578:\n        /* \"#utility.yul\":19434:19440   */\n      dup6\n        /* \"#utility.yul\":19431:19432   */\n      dup2\n        /* \"#utility.yul\":19428:19441   */\n      lt\n        /* \"#utility.yul\":19409:19838   */\n      iszero\n      tag_580\n      jumpi\n        /* \"#utility.yul\":19505:19514   */\n      dup5\n        /* \"#utility.yul\":19499:19503   */\n      dup5\n        /* \"#utility.yul\":19495:19515   */\n      sub\n        /* \"#utility.yul\":19490:19493   */\n      dup10\n        /* \"#utility.yul\":19483:19516   */\n      mstore\n        /* \"#utility.yul\":19556:19562   */\n      dup2\n        /* \"#utility.yul\":19550:19563   */\n      mload\n        /* \"#utility.yul\":19584:19690   */\n      tag_581\n        /* \"#utility.yul\":19685:19689   */\n      dup6\n        /* \"#utility.yul\":19670:19683   */\n      dup3\n        /* \"#utility.yul\":19584:19690   */\n      tag_362\n      jump\t// in\n    tag_581:\n        /* \"#utility.yul\":19576:19690   */\n      swap5\n      pop\n        /* \"#utility.yul\":19713:19794   */\n      tag_582\n        /* \"#utility.yul\":19787:19793   */\n      dup4\n        /* \"#utility.yul\":19713:19794   */\n      tag_363\n      jump\t// in\n    tag_582:\n        /* \"#utility.yul\":19703:19794   */\n      swap3\n      pop\n        /* \"#utility.yul\":19823:19827   */\n      0x20\n        /* \"#utility.yul\":19818:19821   */\n      dup11\n        /* \"#utility.yul\":19814:19828   */\n      add\n        /* \"#utility.yul\":19807:19828   */\n      swap10\n      pop\n        /* \"#utility.yul\":19469:19838   */\n      pop\n        /* \"#utility.yul\":19456:19457   */\n      0x01\n        /* \"#utility.yul\":19453:19454   */\n      dup2\n        /* \"#utility.yul\":19449:19458   */\n      add\n        /* \"#utility.yul\":19444:19458   */\n      swap1\n      pop\n        /* \"#utility.yul\":19409:19838   */\n      jump(tag_578)\n    tag_580:\n        /* \"#utility.yul\":19413:19427   */\n      pop\n        /* \"#utility.yul\":19854:19858   */\n      dup3\n        /* \"#utility.yul\":19847:19858   */\n      swap8\n      pop\n        /* \"#utility.yul\":19874:19877   */\n      dup8\n        /* \"#utility.yul\":19867:19877   */\n      swap6\n      pop\n        /* \"#utility.yul\":18970:19883   */\n      pop\n      pop\n      pop\n      pop\n      pop\n        /* \"#utility.yul\":18804:19883   */\n      swap3\n      swap2\n      pop\n      pop\n      jump\t// out\n        /* \"#utility.yul\":19889:20346   */\n    tag_81:\n        /* \"#utility.yul\":20074:20078   */\n      0x00\n        /* \"#utility.yul\":20112:20114   */\n      0x20\n        /* \"#utility.yul\":20101:20110   */\n      dup3\n        /* \"#utility.yul\":20097:20115   */\n      add\n        /* \"#utility.yul\":20089:20115   */\n      swap1\n      pop\n        /* \"#utility.yul\":20161:20170   */\n      dup2\n        /* \"#utility.yul\":20155:20159   */\n      dup2\n        /* \"#utility.yul\":20151:20171   */\n      sub\n        /* \"#utility.yul\":20147:20148   */\n      0x00\n        /* \"#utility.yul\":20136:20145   */\n      dup4\n        /* \"#utility.yul\":20132:20149   */\n      add\n        /* \"#utility.yul\":20125:20172   */\n      mstore\n        /* \"#utility.yul\":20189:20339   */\n      tag_584\n        /* \"#utility.yul\":20334:20338   */\n      dup2\n        /* \"#utility.yul\":20325:20331   */\n      dup5\n        /* \"#utility.yul\":20189:20339   */\n      tag_364\n      jump\t// in\n    tag_584:\n        /* \"#utility.yul\":20181:20339   */\n      swap1\n      pop\n        /* \"#utility.yul\":19889:20346   */\n      swap3\n      swap2\n      pop\n      pop\n      jump\t// out\n        /* \"#utility.yul\":20352:20488   */\n    tag_365:\n        /* \"#utility.yul\":20441:20447   */\n      0x00\n        /* \"#utility.yul\":20475:20480   */\n      dup2\n        /* \"#utility.yul\":20469:20481   */\n      mload\n        /* \"#utility.yul\":20459:20481   */\n      swap1\n      pop\n        /* \"#utility.yul\":20352:20488   */\n      swap2\n      swap1\n      pop\n      jump\t// out\n        /* \"#utility.yul\":20494:20700   */\n    tag_366:\n        /* \"#utility.yul\":20615:20626   */\n      0x00\n        /* \"#utility.yul\":20649:20655   */\n      dup3\n        /* \"#utility.yul\":20644:20647   */\n      dup3\n        /* \"#utility.yul\":20637:20656   */\n      mstore\n        /* \"#utility.yul\":20689:20693   */\n      0x20\n        /* \"#utility.yul\":20684:20687   */\n      dup3\n        /* \"#utility.yul\":20680:20694   */\n      add\n        /* \"#utility.yul\":20665:20694   */\n      swap1\n      pop\n        /* \"#utility.yul\":20494:20700   */\n      swap3\n      swap2\n      pop\n      pop\n      jump\t// out\n        /* \"#utility.yul\":20706:20860   */\n    tag_367:\n        /* \"#utility.yul\":20795:20799   */\n      0x00\n        /* \"#utility.yul\":20818:20821   */\n      dup2\n        /* \"#utility.yul\":20810:20821   */\n      swap1\n      pop\n        /* \"#utility.yul\":20848:20852   */\n      0x20\n        /* \"#utility.yul\":20843:20846   */\n      dup3\n        /* \"#utility.yul\":20839:20853   */\n      add\n        /* \"#utility.yul\":20831:20853   */\n      swap1\n      pop\n        /* \"#utility.yul\":20706:20860   */\n      swap2\n      swap1\n      pop\n      jump\t// out\n        /* \"#utility.yul\":20928:22682   */\n    tag_368:\n        /* \"#utility.yul\":21059:21065   */\n      0x0120\n        /* \"#utility.yul\":21054:21057   */\n      dup3\n        /* \"#utility.yul\":21050:21066   */\n      add\n        /* \"#utility.yul\":21152:21156   */\n      0x00\n        /* \"#utility.yul\":21145:21150   */\n      dup3\n        /* \"#utility.yul\":21141:21157   */\n      add\n        /* \"#utility.yul\":21135:21158   */\n      mload\n        /* \"#utility.yul\":21171:21234   */\n      tag_589\n        /* \"#utility.yul\":21228:21232   */\n      0x00\n        /* \"#utility.yul\":21223:21226   */\n      dup6\n        /* \"#utility.yul\":21219:21233   */\n      add\n        /* \"#utility.yul\":21205:21217   */\n      dup3\n        /* \"#utility.yul\":21171:21234   */\n      tag_350\n      jump\t// in\n    tag_589:\n        /* \"#utility.yul\":21076:21244   */\n      pop\n        /* \"#utility.yul\":21328:21332   */\n      0x20\n        /* \"#utility.yul\":21321:21326   */\n      dup3\n        /* \"#utility.yul\":21317:21333   */\n      add\n        /* \"#utility.yul\":21311:21334   */\n      mload\n        /* \"#utility.yul\":21347:21410   */\n      tag_590\n        /* \"#utility.yul\":21404:21408   */\n      0x20\n        /* \"#utility.yul\":21399:21402   */\n      dup6\n        /* \"#utility.yul\":21395:21409   */\n      add\n        /* \"#utility.yul\":21381:21393   */\n      dup3\n        /* \"#utility.yul\":21347:21410   */\n      tag_351\n      jump\t// in\n    tag_590:\n        /* \"#utility.yul\":21254:21420   */\n      pop\n        /* \"#utility.yul\":21505:21509   */\n      0x40\n        /* \"#utility.yul\":21498:21503   */\n      dup3\n        /* \"#utility.yul\":21494:21510   */\n      add\n        /* \"#utility.yul\":21488:21511   */\n      mload\n        /* \"#utility.yul\":21524:21587   */\n      tag_591\n        /* \"#utility.yul\":21581:21585   */\n      0x40\n        /* \"#utility.yul\":21576:21579   */\n      dup6\n        /* \"#utility.yul\":21572:21586   */\n      add\n        /* \"#utility.yul\":21558:21570   */\n      dup3\n        /* \"#utility.yul\":21524:21587   */\n      tag_350\n      jump\t// in\n    tag_591:\n        /* \"#utility.yul\":21430:21597   */\n      pop\n        /* \"#utility.yul\":21684:21688   */\n      0x60\n        /* \"#utility.yul\":21677:21682   */\n      dup3\n        /* \"#utility.yul\":21673:21689   */\n      add\n        /* \"#utility.yul\":21667:21690   */\n      mload\n        /* \"#utility.yul\":21703:21766   */\n      tag_592\n        /* \"#utility.yul\":21760:21764   */\n      0x60\n        /* \"#utility.yul\":21755:21758   */\n      dup6\n        /* \"#utility.yul\":21751:21765   */\n      add\n        /* \"#utility.yul\":21737:21749   */\n      dup3\n        /* \"#utility.yul\":21703:21766   */\n      tag_350\n      jump\t// in\n    tag_592:\n        /* \"#utility.yul\":21607:21776   */\n      pop\n        /* \"#utility.yul\":21861:21865   */\n      0x80\n        /* \"#utility.yul\":21854:21859   */\n      dup3\n        /* \"#utility.yul\":21850:21866   */\n      add\n        /* \"#utility.yul\":21844:21867   */\n      mload\n        /* \"#utility.yul\":21880:21943   */\n      tag_593\n        /* \"#utility.yul\":21937:21941   */\n      0x80\n        /* \"#utility.yul\":21932:21935   */\n      dup6\n        /* \"#utility.yul\":21928:21942   */\n      add\n        /* \"#utility.yul\":21914:21926   */\n      dup3\n        /* \"#utility.yul\":21880:21943   */\n      tag_350\n      jump\t// in\n    tag_593:\n        /* \"#utility.yul\":21786:21953   */\n      pop\n        /* \"#utility.yul\":22038:22042   */\n      0xa0\n        /* \"#utility.yul\":22031:22036   */\n      dup3\n        /* \"#utility.yul\":22027:22043   */\n      add\n        /* \"#utility.yul\":22021:22044   */\n      mload\n        /* \"#utility.yul\":22057:22120   */\n      tag_594\n        /* \"#utility.yul\":22114:22118   */\n      0xa0\n        /* \"#utility.yul\":22109:22112   */\n      dup6\n        /* \"#utility.yul\":22105:22119   */\n      add\n        /* \"#utility.yul\":22091:22103   */\n      dup3\n        /* \"#utility.yul\":22057:22120   */\n      tag_350\n      jump\t// in\n    tag_594:\n        /* \"#utility.yul\":21963:22130   */\n      pop\n        /* \"#utility.yul\":22217:22221   */\n      0xc0\n        /* \"#utility.yul\":22210:22215   */\n      dup3\n        /* \"#utility.yul\":22206:22222   */\n      add\n        /* \"#utility.yul\":22200:22223   */\n      mload\n        /* \"#utility.yul\":22236:22299   */\n      tag_595\n        /* \"#utility.yul\":22293:22297   */\n      0xc0\n        /* \"#utility.yul\":22288:22291   */\n      dup6\n        /* \"#utility.yul\":22284:22298   */\n      add\n        /* \"#utility.yul\":22270:22282   */\n      dup3\n        /* \"#utility.yul\":22236:22299   */\n      tag_350\n      jump\t// in\n    tag_595:\n        /* \"#utility.yul\":22140:22309   */\n      pop\n        /* \"#utility.yul\":22401:22405   */\n      0xe0\n        /* \"#utility.yul\":22394:22399   */\n      dup3\n        /* \"#utility.yul\":22390:22406   */\n      add\n        /* \"#utility.yul\":22384:22407   */\n      mload\n        /* \"#utility.yul\":22420:22483   */\n      tag_596\n        /* \"#utility.yul\":22477:22481   */\n      0xe0\n        /* \"#utility.yul\":22472:22475   */\n      dup6\n        /* \"#utility.yul\":22468:22482   */\n      add\n        /* \"#utility.yul\":22454:22466   */\n      dup3\n        /* \"#utility.yul\":22420:22483   */\n      tag_350\n      jump\t// in\n    tag_596:\n        /* \"#utility.yul\":22319:22493   */\n      pop\n        /* \"#utility.yul\":22579:22585   */\n      0x0100\n        /* \"#utility.yul\":22572:22577   */\n      dup3\n        /* \"#utility.yul\":22568:22586   */\n      add\n        /* \"#utility.yul\":22562:22587   */\n      mload\n        /* \"#utility.yul\":22600:22665   */\n      tag_597\n        /* \"#utility.yul\":22657:22663   */\n      0x0100\n        /* \"#utility.yul\":22652:22655   */\n      dup6\n        /* \"#utility.yul\":22648:22664   */\n      add\n        /* \"#utility.yul\":22634:22646   */\n      dup3\n        /* \"#utility.yul\":22600:22665   */\n      tag_350\n      jump\t// in\n    tag_597:\n        /* \"#utility.yul\":22503:22675   */\n      pop\n        /* \"#utility.yul\":21028:22682   */\n      pop\n        /* \"#utility.yul\":20928:22682   */\n      pop\n      pop\n      jump\t// out\n        /* \"#utility.yul\":22688:22957   */\n    tag_369:\n        /* \"#utility.yul\":22801:22811   */\n      0x00\n        /* \"#utility.yul\":22822:22912   */\n      tag_599\n        /* \"#utility.yul\":22908:22911   */\n      dup4\n        /* \"#utility.yul\":22900:22906   */\n      dup4\n        /* \"#utility.yul\":22822:22912   */\n      tag_368\n      jump\t// in\n    tag_599:\n        /* \"#utility.yul\":22944:22950   */\n      0x0120\n        /* \"#utility.yul\":22939:22942   */\n      dup4\n        /* \"#utility.yul\":22935:22951   */\n      add\n        /* \"#utility.yul\":22921:22951   */\n      swap1\n      pop\n        /* \"#utility.yul\":22688:22957   */\n      swap3\n      swap2\n      pop\n      pop\n      jump\t// out\n        /* \"#utility.yul\":22963:23098   */\n    tag_370:\n        /* \"#utility.yul\":23055:23059   */\n      0x00\n        /* \"#utility.yul\":23087:23091   */\n      0x20\n        /* \"#utility.yul\":23082:23085   */\n      dup3\n        /* \"#utility.yul\":23078:23092   */\n      add\n        /* \"#utility.yul\":23070:23092   */\n      swap1\n      pop\n        /* \"#utility.yul\":22963:23098   */\n      swap2\n      swap1\n      pop\n      jump\t// out\n        /* \"#utility.yul\":23170:24078   */\n    tag_371:\n        /* \"#utility.yul\":23333:23336   */\n      0x00\n        /* \"#utility.yul\":23362:23438   */\n      tag_602\n        /* \"#utility.yul\":23432:23437   */\n      dup3\n        /* \"#utility.yul\":23362:23438   */\n      tag_365\n      jump\t// in\n    tag_602:\n        /* \"#utility.yul\":23454:23562   */\n      tag_603\n        /* \"#utility.yul\":23555:23561   */\n      dup2\n        /* \"#utility.yul\":23550:23553   */\n      dup6\n        /* \"#utility.yul\":23454:23562   */\n      tag_366\n      jump\t// in\n    tag_603:\n        /* \"#utility.yul\":23447:23562   */\n      swap4\n      pop\n        /* \"#utility.yul\":23586:23664   */\n      tag_604\n        /* \"#utility.yul\":23658:23663   */\n      dup4\n        /* \"#utility.yul\":23586:23664   */\n      tag_367\n      jump\t// in\n    tag_604:\n        /* \"#utility.yul\":23687:23694   */\n      dup1\n        /* \"#utility.yul\":23718:23719   */\n      0x00\n        /* \"#utility.yul\":23703:24053   */\n    tag_605:\n        /* \"#utility.yul\":23728:23734   */\n      dup4\n        /* \"#utility.yul\":23725:23726   */\n      dup2\n        /* \"#utility.yul\":23722:23735   */\n      lt\n        /* \"#utility.yul\":23703:24053   */\n      iszero\n      tag_607\n      jumpi\n        /* \"#utility.yul\":23804:23810   */\n      dup2\n        /* \"#utility.yul\":23798:23811   */\n      mload\n        /* \"#utility.yul\":23831:23938   */\n      tag_608\n        /* \"#utility.yul\":23934:23937   */\n      dup9\n        /* \"#utility.yul\":23919:23932   */\n      dup3\n        /* \"#utility.yul\":23831:23938   */\n      tag_369\n      jump\t// in\n    tag_608:\n        /* \"#utility.yul\":23824:23938   */\n      swap8\n      pop\n        /* \"#utility.yul\":23961:24043   */\n      tag_609\n        /* \"#utility.yul\":24036:24042   */\n      dup4\n        /* \"#utility.yul\":23961:24043   */\n      tag_370\n      jump\t// in\n    tag_609:\n        /* \"#utility.yul\":23951:24043   */\n      swap3\n      pop\n        /* \"#utility.yul\":23763:24053   */\n      pop\n        /* \"#utility.yul\":23750:23751   */\n      0x01\n        /* \"#utility.yul\":23747:23748   */\n      dup2\n        /* \"#utility.yul\":23743:23752   */\n      add\n        /* \"#utility.yul\":23738:23752   */\n      swap1\n      pop\n        /* \"#utility.yul\":23703:24053   */\n      jump(tag_605)\n    tag_607:\n        /* \"#utility.yul\":23707:23721   */\n      pop\n        /* \"#utility.yul\":24069:24072   */\n      dup6\n        /* \"#utility.yul\":24062:24072   */\n      swap4\n      pop\n        /* \"#utility.yul\":23338:24078   */\n      pop\n      pop\n      pop\n        /* \"#utility.yul\":23170:24078   */\n      swap3\n      swap2\n      pop\n      pop\n      jump\t// out\n        /* \"#utility.yul\":24084:24545   */\n    tag_89:\n        /* \"#utility.yul\":24271:24275   */\n      0x00\n        /* \"#utility.yul\":24309:24311   */\n      0x20\n        /* \"#utility.yul\":24298:24307   */\n      dup3\n        /* \"#utility.yul\":24294:24312   */\n      add\n        /* \"#utility.yul\":24286:24312   */\n      swap1\n      pop\n        /* \"#utility.yul\":24358:24367   */\n      dup2\n        /* \"#utility.yul\":24352:24356   */\n      dup2\n        /* \"#utility.yul\":24348:24368   */\n      sub\n        /* \"#utility.yul\":24344:24345   */\n      0x00\n        /* \"#utility.yul\":24333:24342   */\n      dup4\n        /* \"#utility.yul\":24329:24346   */\n      add\n        /* \"#utility.yul\":24322:24369   */\n      mstore\n        /* \"#utility.yul\":24386:24538   */\n      tag_611\n        /* \"#utility.yul\":24533:24537   */\n      dup2\n        /* \"#utility.yul\":24524:24530   */\n      dup5\n        /* \"#utility.yul\":24386:24538   */\n      tag_371\n      jump\t// in\n    tag_611:\n        /* \"#utility.yul\":24378:24538   */\n      swap1\n      pop\n        /* \"#utility.yul\":24084:24545   */\n      swap3\n      swap2\n      pop\n      pop\n      jump\t// out\n        /* \"#utility.yul\":24551:24731   */\n    tag_372:\n        /* \"#utility.yul\":24599:24676   */\n      0x4e487b7100000000000000000000000000000000000000000000000000000000\n        /* \"#utility.yul\":24596:24597   */\n      0x00\n        /* \"#utility.yul\":24589:24677   */\n      mstore\n        /* \"#utility.yul\":24696:24700   */\n      0x22\n        /* \"#utility.yul\":24693:24694   */\n      0x04\n        /* \"#utility.yul\":24686:24701   */\n      mstore\n        /* \"#utility.yul\":24720:24724   */\n      0x24\n        /* \"#utility.yul\":24717:24718   */\n      0x00\n        /* \"#utility.yul\":24710:24725   */\n      revert\n        /* \"#utility.yul\":24737:25057   */\n    tag_153:\n        /* \"#utility.yul\":24781:24787   */\n      0x00\n        /* \"#utility.yul\":24818:24819   */\n      0x02\n        /* \"#utility.yul\":24812:24816   */\n      dup3\n        /* \"#utility.yul\":24808:24820   */\n      div\n        /* \"#utility.yul\":24798:24820   */\n      swap1\n      pop\n        /* \"#utility.yul\":24865:24866   */\n      0x01\n        /* \"#utility.yul\":24859:24863   */\n      dup3\n        /* \"#utility.yul\":24855:24867   */\n      and\n        /* \"#utility.yul\":24886:24904   */\n      dup1\n        /* \"#utility.yul\":24876:24957   */\n      tag_614\n      jumpi\n        /* \"#utility.yul\":24942:24946   */\n      0x7f\n        /* \"#utility.yul\":24934:24940   */\n      dup3\n        /* \"#utility.yul\":24930:24947   */\n      and\n        /* \"#utility.yul\":24920:24947   */\n      swap2\n      pop\n        /* \"#utility.yul\":24876:24957   */\n    tag_614:\n        /* \"#utility.yul\":25004:25006   */\n      0x20\n        /* \"#utility.yul\":24996:25002   */\n      dup3\n        /* \"#utility.yul\":24993:25007   */\n      lt\n        /* \"#utility.yul\":24973:24991   */\n      dup2\n        /* \"#utility.yul\":24970:25008   */\n      sub\n        /* \"#utility.yul\":24967:25051   */\n      tag_615\n      jumpi\n        /* \"#utility.yul\":25023:25041   */\n      tag_616\n      tag_372\n      jump\t// in\n    tag_616:\n        /* \"#utility.yul\":24967:25051   */\n    tag_615:\n        /* \"#utility.yul\":24788:25057   */\n      pop\n        /* \"#utility.yul\":24737:25057   */\n      swap2\n      swap1\n      pop\n      jump\t// out\n        /* \"#utility.yul\":25063:25204   */\n    tag_373:\n        /* \"#utility.yul\":25112:25116   */\n      0x00\n        /* \"#utility.yul\":25135:25138   */\n      dup2\n        /* \"#utility.yul\":25127:25138   */\n      swap1\n      pop\n        /* \"#utility.yul\":25158:25161   */\n      dup2\n        /* \"#utility.yul\":25155:25156   */\n      0x00\n        /* \"#utility.yul\":25148:25162   */\n      mstore\n        /* \"#utility.yul\":25192:25196   */\n      0x20\n        /* \"#utility.yul\":25189:25190   */\n      0x00\n        /* \"#utility.yul\":25179:25197   */\n      keccak256\n        /* \"#utility.yul\":25171:25197   */\n      swap1\n      pop\n        /* \"#utility.yul\":25063:25204   */\n      swap2\n      swap1\n      pop\n      jump\t// out\n        /* \"#utility.yul\":25210:25303   */\n    tag_374:\n        /* \"#utility.yul\":25247:25253   */\n      0x00\n        /* \"#utility.yul\":25294:25296   */\n      0x20\n        /* \"#utility.yul\":25289:25291   */\n      0x1f\n        /* \"#utility.yul\":25282:25287   */\n      dup4\n        /* \"#utility.yul\":25278:25292   */\n      add\n        /* \"#utility.yul\":25274:25297   */\n      div\n        /* \"#utility.yul\":25264:25297   */\n      swap1\n      pop\n        /* \"#utility.yul\":25210:25303   */\n      swap2\n      swap1\n      pop\n      jump\t// out\n        /* \"#utility.yul\":25309:25416   */\n    tag_375:\n        /* \"#utility.yul\":25353:25361   */\n      0x00\n        /* \"#utility.yul\":25403:25408   */\n      dup3\n        /* \"#utility.yul\":25397:25401   */\n      dup3\n        /* \"#utility.yul\":25393:25409   */\n      shl\n        /* \"#utility.yul\":25372:25409   */\n      swap1\n      pop\n        /* \"#utility.yul\":25309:25416   */\n      swap3\n      swap2\n      pop\n      pop\n      jump\t// out\n        /* \"#utility.yul\":25422:25815   */\n    tag_376:\n        /* \"#utility.yul\":25491:25497   */\n      0x00\n        /* \"#utility.yul\":25541:25542   */\n      0x08\n        /* \"#utility.yul\":25529:25539   */\n      dup4\n        /* \"#utility.yul\":25525:25543   */\n      mul\n        /* \"#utility.yul\":25564:25661   */\n      tag_621\n        /* \"#utility.yul\":25594:25660   */\n      0xffffffffffffffffffffffffffffffffffffffffffffffffffffffffffffffff\n        /* \"#utility.yul\":25583:25592   */\n      dup3\n        /* \"#utility.yul\":25564:25661   */\n      tag_375\n      jump\t// in\n    tag_621:\n        /* \"#utility.yul\":25682:25721   */\n      tag_622\n        /* \"#utility.yul\":25712:25720   */\n      dup7\n        /* \"#utility.yul\":25701:25710   */\n      dup4\n        /* \"#utility.yul\":25682:25721   */\n      tag_375\n      jump\t// in\n    tag_622:\n        /* \"#utility.yul\":25670:25721   */\n      swap6\n      pop\n        /* \"#utility.yul\":25754:25758   */\n      dup1\n        /* \"#utility.yul\":25750:25759   */\n      not\n        /* \"#utility.yul\":25743:25748   */\n      dup5\n        /* \"#utility.yul\":25739:25760   */\n      and\n        /* \"#utility.yul\":25730:25760   */\n      swap4\n      pop\n        /* \"#utility.yul\":25803:25807   */\n      dup1\n        /* \"#utility.yul\":25793:25801   */\n      dup7\n        /* \"#utility.yul\":25789:25808   */\n      and\n        /* \"#utility.yul\":25782:25787   */\n      dup5\n        /* \"#utility.yul\":25779:25809   */\n      or\n        /* \"#utility.yul\":25769:25809   */\n      swap3\n      pop\n        /* \"#utility.yul\":25498:25815   */\n      pop\n      pop\n        /* \"#utility.yul\":25422:25815   */\n      swap4\n      swap3\n      pop\n      pop\n      pop\n      jump\t// out\n        /* \"#utility.yul\":25821:25881   */\n    tag_377:\n        /* \"#utility.yul\":25849:25852   */\n      0x00\n        /* \"#utility.yul\":25870:25875   */\n      dup2\n        /* \"#utility.yul\":25863:25875   */\n      swap1\n      pop\n        /* \"#utility.yul\":25821:25881   */\n      swap2\n      swap1\n      pop\n      jump\t// out\n        /* \"#utility.yul\":25887:26029   */\n    tag_378:\n        /* \"#utility.yul\":25937:25946   */\n      0x00\n        /* \"#utility.yul\":25970:26023   */\n      tag_625\n        /* \"#utility.yul\":25988:26022   */\n      tag_626\n        /* \"#utility.yul\":25997:26021   */\n      tag_627\n        /* \"#utility.yul\":26015:26020   */\n      dup5\n        /* \"#utility.yul\":25997:26021   */\n      tag_334\n      jump\t// in\n    tag_627:\n        /* \"#utility.yul\":25988:26022   */\n      tag_377\n      jump\t// in\n    tag_626:\n        /* \"#utility.yul\":25970:26023   */\n      tag_334\n      jump\t// in\n    tag_625:\n        /* \"#utility.yul\":25957:26023   */\n      swap1\n      pop\n        /* \"#utility.yul\":25887:26029   */\n      swap2\n      swap1\n      pop\n      jump\t// out\n        /* \"#utility.yul\":26035:26110   */\n    tag_379:\n        /* \"#utility.yul\":26078:26081   */\n      0x00\n        /* \"#utility.yul\":26099:26104   */\n      dup2\n        /* \"#utility.yul\":26092:26104   */\n      swap1\n      pop\n        /* \"#utility.yul\":26035:26110   */\n      swap2\n      swap1\n      pop\n      jump\t// out\n        /* \"#utility.yul\":26116:26385   */\n    tag_380:\n        /* \"#utility.yul\":26226:26265   */\n      tag_630\n        /* \"#utility.yul\":26257:26264   */\n      dup4\n        /* \"#utility.yul\":26226:26265   */\n      tag_378\n      jump\t// in\n    tag_630:\n        /* \"#utility.yul\":26287:26378   */\n      tag_631\n        /* \"#utility.yul\":26336:26377   */\n      tag_632\n        /* \"#utility.yul\":26360:26376   */\n      dup3\n        /* \"#utility.yul\":26336:26377   */\n      tag_379\n      jump\t// in\n    tag_632:\n        /* \"#utility.yul\":26328:26334   */\n      dup5\n        /* \"#utility.yul\":26321:26325   */\n      dup5\n        /* \"#utility.yul\":26315:26326   */\n      sload\n        /* \"#utility.yul\":26287:26378   */\n      tag_376\n      jump\t// in\n    tag_631:\n        /* \"#utility.yul\":26281:26285   */\n      dup3\n        /* \"#utility.yul\":26274:26379   */\n      sstore\n        /* \"#utility.yul\":26192:26385   */\n      pop\n        /* \"#utility.yul\":26116:26385   */\n      pop\n      pop\n      pop\n      jump\t// out\n        /* \"#utility.yul\":26391:26464   */\n    tag_381:\n        /* \"#utility.yul\":26436:26439   */\n      0x00\n        /* \"#utility.yul\":26391:26464   */\n      swap1\n      jump\t// out\n        /* \"#utility.yul\":26470:26659   */\n    tag_382:\n        /* \"#utility.yul\":26547:26579   */\n      tag_635\n      tag_381\n      jump\t// in\n    tag_635:\n        /* \"#utility.yul\":26588:26653   */\n      tag_636\n        /* \"#utility.yul\":26646:26652   */\n      dup2\n        /* \"#utility.yul\":26638:26644   */\n      dup5\n        /* \"#utility.yul\":26632:26636   */\n      dup5\n        /* \"#utility.yul\":26588:26653   */\n      tag_380\n      jump\t// in\n    tag_636:\n        /* \"#utility.yul\":26523:26659   */\n      pop\n        /* \"#utility.yul\":26470:26659   */\n      pop\n      pop\n      jump\t// out\n        /* \"#utility.yul\":26665:26851   */\n    tag_383:\n        /* \"#utility.yul\":26725:26845   */\n    tag_638:\n        /* \"#utility.yul\":26742:26745   */\n      dup2\n        /* \"#utility.yul\":26735:26740   */\n      dup2\n        /* \"#utility.yul\":26732:26746   */\n      lt\n        /* \"#utility.yul\":26725:26845   */\n      iszero\n      tag_640\n      jumpi\n        /* \"#utility.yul\":26796:26835   */\n      tag_641\n        /* \"#utility.yul\":26833:26834   */\n      0x00\n        /* \"#utility.yul\":26826:26831   */\n      dup3\n        /* \"#utility.yul\":26796:26835   */\n      tag_382\n      jump\t// in\n    tag_641:\n        /* \"#utility.yul\":26769:26770   */\n      0x01\n        /* \"#utility.yul\":26762:26767   */\n      dup2\n        /* \"#utility.yul\":26758:26771   */\n      add\n        /* \"#utility.yul\":26749:26771   */\n      swap1\n      pop\n        /* \"#utility.yul\":26725:26845   */\n      jump(tag_638)\n    tag_640:\n        /* \"#utility.yul\":26665:26851   */\n      pop\n      pop\n      jump\t// out\n        /* \"#utility.yul\":26857:27400   */\n    tag_384:\n        /* \"#utility.yul\":26958:26960   */\n      0x1f\n        /* \"#utility.yul\":26953:26956   */\n      dup3\n        /* \"#utility.yul\":26950:26961   */\n      gt\n        /* \"#utility.yul\":26947:27393   */\n      iszero\n      tag_643\n      jumpi\n        /* \"#utility.yul\":26992:27030   */\n      tag_644\n        /* \"#utility.yul\":27024:27029   */\n      dup2\n        /* \"#utility.yul\":26992:27030   */\n      tag_373\n      jump\t// in\n    tag_644:\n        /* \"#utility.yul\":27076:27105   */\n      tag_645\n        /* \"#utility.yul\":27094:27104   */\n      dup5\n        /* \"#utility.yul\":27076:27105   */\n      tag_374\n      jump\t// in\n    tag_645:\n        /* \"#utility.yul\":27066:27074   */\n      dup2\n        /* \"#utility.yul\":27062:27106   */\n      add\n        /* \"#utility.yul\":27259:27261   */\n      0x20\n        /* \"#utility.yul\":27247:27257   */\n      dup6\n        /* \"#utility.yul\":27244:27262   */\n      lt\n        /* \"#utility.yul\":27241:27290   */\n      iszero\n      tag_646\n      jumpi\n        /* \"#utility.yul\":27280:27288   */\n      dup2\n        /* \"#utility.yul\":27265:27288   */\n      swap1\n      pop\n        /* \"#utility.yul\":27241:27290   */\n    tag_646:\n        /* \"#utility.yul\":27303:27383   */\n      tag_647\n        /* \"#utility.yul\":27359:27381   */\n      tag_648\n        /* \"#utility.yul\":27377:27380   */\n      dup6\n        /* \"#utility.yul\":27359:27381   */\n      tag_374\n      jump\t// in\n    tag_648:\n        /* \"#utility.yul\":27349:27357   */\n      dup4\n        /* \"#utility.yul\":27345:27382   */\n      add\n        /* \"#utility.yul\":27332:27343   */\n      dup3\n        /* \"#utility.yul\":27303:27383   */\n      tag_383\n      jump\t// in\n    tag_647:\n        /* \"#utility.yul\":26962:27393   */\n      pop\n      pop\n        /* \"#utility.yul\":26947:27393   */\n    tag_643:\n        /* \"#utility.yul\":26857:27400   */\n      pop\n      pop\n      pop\n      jump\t// out\n        /* \"#utility.yul\":27406:27523   */\n    tag_385:\n        /* \"#utility.yul\":27460:27468   */\n      0x00\n        /* \"#utility.yul\":27510:27515   */\n      dup3\n        /* \"#utility.yul\":27504:27508   */\n      dup3\n        /* \"#utility.yul\":27500:27516   */\n      shr\n        /* \"#utility.yul\":27479:27516   */\n      swap1\n      pop\n        /* \"#utility.yul\":27406:27523   */\n      swap3\n      swap2\n      pop\n      pop\n      jump\t// out\n        /* \"#utility.yul\":27529:27698   */\n    tag_386:\n        /* \"#utility.yul\":27573:27579   */\n      0x00\n        /* \"#utility.yul\":27606:27657   */\n      tag_651\n        /* \"#utility.yul\":27654:27655   */\n      0x00\n        /* \"#utility.yul\":27650:27656   */\n      not\n        /* \"#utility.yul\":27642:27647   */\n      dup5\n        /* \"#utility.yul\":27639:27640   */\n      0x08\n        /* \"#utility.yul\":27635:27648   */\n      mul\n        /* \"#utility.yul\":27606:27657   */\n      tag_385\n      jump\t// in\n    tag_651:\n        /* \"#utility.yul\":27602:27658   */\n      not\n        /* \"#utility.yul\":27687:27691   */\n      dup1\n        /* \"#utility.yul\":27681:27685   */\n      dup4\n        /* \"#utility.yul\":27677:27692   */\n      and\n        /* \"#utility.yul\":27667:27692   */\n      swap2\n      pop\n        /* \"#utility.yul\":27580:27698   */\n      pop\n        /* \"#utility.yul\":27529:27698   */\n      swap3\n      swap2\n      pop\n      pop\n      jump\t// out\n        /* \"#utility.yul\":27703:27998   */\n    tag_387:\n        /* \"#utility.yul\":27779:27783   */\n      0x00\n        /* \"#utility.yul\":27925:27954   */\n      tag_653\n        /* \"#utility.yul\":27950:27953   */\n      dup4\n        /* \"#utility.yul\":27944:27948   */\n      dup4\n        /* \"#utility.yul\":27925:27954   */\n      tag_386\n      jump\t// in\n    tag_653:\n        /* \"#utility.yul\":27917:27954   */\n      swap2\n      pop\n        /* \"#utility.yul\":27987:27990   */\n      dup3\n        /* \"#utility.yul\":27984:27985   */\n      0x02\n        /* \"#utility.yul\":27980:27991   */\n      mul\n        /* \"#utility.yul\":27974:27978   */\n      dup3\n        /* \"#utility.yul\":27971:27992   */\n      or\n        /* \"#utility.yul\":27963:27992   */\n      swap1\n      pop\n        /* \"#utility.yul\":27703:27998   */\n      swap3\n      swap2\n      pop\n      pop\n      jump\t// out\n        /* \"#utility.yul\":28003:29398   */\n    tag_93:\n        /* \"#utility.yul\":28120:28157   */\n      tag_655\n        /* \"#utility.yul\":28153:28156   */\n      dup3\n        /* \"#utility.yul\":28120:28157   */\n      tag_343\n      jump\t// in\n    tag_655:\n        /* \"#utility.yul\":28222:28240   */\n      0xffffffffffffffff\n        /* \"#utility.yul\":28214:28220   */\n      dup2\n        /* \"#utility.yul\":28211:28241   */\n      gt\n        /* \"#utility.yul\":28208:28264   */\n      iszero\n      tag_656\n      jumpi\n        /* \"#utility.yul\":28244:28262   */\n      tag_657\n      tag_327\n      jump\t// in\n    tag_657:\n        /* \"#utility.yul\":28208:28264   */\n    tag_656:\n        /* \"#utility.yul\":28288:28326   */\n      tag_658\n        /* \"#utility.yul\":28320:28324   */\n      dup3\n        /* \"#utility.yul\":28314:28325   */\n      sload\n        /* \"#utility.yul\":28288:28326   */\n      tag_153\n      jump\t// in\n    tag_658:\n        /* \"#utility.yul\":28373:28440   */\n      tag_659\n        /* \"#utility.yul\":28433:28439   */\n      dup3\n        /* \"#utility.yul\":28425:28431   */\n      dup3\n        /* \"#utility.yul\":28419:28423   */\n      dup6\n        /* \"#utility.yul\":28373:28440   */\n      tag_384\n      jump\t// in\n    tag_659:\n        /* \"#utility.yul\":28467:28468   */\n      0x00\n        /* \"#utility.yul\":28491:28495   */\n      0x20\n        /* \"#utility.yul\":28478:28495   */\n      swap1\n      pop\n        /* \"#utility.yul\":28523:28525   */\n      0x1f\n        /* \"#utility.yul\":28515:28521   */\n      dup4\n        /* \"#utility.yul\":28512:28526   */\n      gt\n        /* \"#utility.yul\":28540:28541   */\n      0x01\n        /* \"#utility.yul\":28535:29153   */\n      dup2\n      eq\n      tag_661\n      jumpi\n        /* \"#utility.yul\":29197:29198   */\n      0x00\n        /* \"#utility.yul\":29214:29220   */\n      dup5\n        /* \"#utility.yul\":29211:29288   */\n      iszero\n      tag_662\n      jumpi\n        /* \"#utility.yul\":29263:29272   */\n      dup3\n        /* \"#utility.yul\":29258:29261   */\n      dup8\n        /* \"#utility.yul\":29254:29273   */\n      add\n        /* \"#utility.yul\":29248:29274   */\n      mload\n        /* \"#utility.yul\":29239:29274   */\n      swap1\n      pop\n        /* \"#utility.yul\":29211:29288   */\n    tag_662:\n        /* \"#utility.yul\":29314:29381   */\n      tag_663\n        /* \"#utility.yul\":29374:29380   */\n      dup6\n        /* \"#utility.yul\":29367:29372   */\n      dup3\n        /* \"#utility.yul\":29314:29381   */\n      tag_387\n      jump\t// in\n    tag_663:\n        /* \"#utility.yul\":29308:29312   */\n      dup7\n        /* \"#utility.yul\":29301:29382   */\n      sstore\n        /* \"#utility.yul\":29170:29392   */\n      pop\n        /* \"#utility.yul\":28505:29392   */\n      jump(tag_660)\n        /* \"#utility.yul\":28535:29153   */\n    tag_661:\n        /* \"#utility.yul\":28587:28591   */\n      0x1f\n        /* \"#utility.yul\":28583:28592   */\n      not\n        /* \"#utility.yul\":28575:28581   */\n      dup5\n        /* \"#utility.yul\":28571:28593   */\n      and\n        /* \"#utility.yul\":28621:28658   */\n      tag_664\n        /* \"#utility.yul\":28653:28657   */\n      dup7\n        /* \"#utility.yul\":28621:28658   */\n      tag_373\n      jump\t// in\n    tag_664:\n        /* \"#utility.yul\":28680:28681   */\n      0x00\n        /* \"#utility.yul\":28694:28902   */\n    tag_665:\n        /* \"#utility.yul\":28708:28715   */\n      dup3\n        /* \"#utility.yul\":28705:28706   */\n      dup2\n        /* \"#utility.yul\":28702:28716   */\n      lt\n        /* \"#utility.yul\":28694:28902   */\n      iszero\n      tag_667\n      jumpi\n        /* \"#utility.yul\":28787:28796   */\n      dup5\n        /* \"#utility.yul\":28782:28785   */\n      dup10\n        /* \"#utility.yul\":28778:28797   */\n      add\n        /* \"#utility.yul\":28772:28798   */\n      mload\n        /* \"#utility.yul\":28764:28770   */\n      dup3\n        /* \"#utility.yul\":28757:28799   */\n      sstore\n        /* \"#utility.yul\":28838:28839   */\n      0x01\n        /* \"#utility.yul\":28830:28836   */\n      dup3\n        /* \"#utility.yul\":28826:28840   */\n      add\n        /* \"#utility.yul\":28816:28840   */\n      swap2\n      pop\n        /* \"#utility.yul\":28885:28887   */\n      0x20\n        /* \"#utility.yul\":28874:28883   */\n      dup6\n        /* \"#utility.yul\":28870:28888   */\n      add\n        /* \"#utility.yul\":28857:28888   */\n      swap5\n      pop\n        /* \"#utility.yul\":28731:28735   */\n      0x20\n        /* \"#utility.yul\":28728:28729   */\n      dup2\n        /* \"#utility.yul\":28724:28736   */\n      add\n        /* \"#utility.yul\":28719:28736   */\n      swap1\n      pop\n        /* \"#utility.yul\":28694:28902   */\n      jump(tag_665)\n    tag_667:\n        /* \"#utility.yul\":28930:28936   */\n      dup7\n        /* \"#utility.yul\":28921:28928   */\n      dup4\n        /* \"#utility.yul\":28918:28937   */\n      lt\n        /* \"#utility.yul\":28915:29094   */\n      iszero\n      tag_668\n      jumpi\n        /* \"#utility.yul\":28988:28997   */\n      dup5\n        /* \"#utility.yul\":28983:28986   */\n      dup10\n        /* \"#utility.yul\":28979:28998   */\n      add\n        /* \"#utility.yul\":28973:28999   */\n      mload\n        /* \"#utility.yul\":29031:29079   */\n      tag_669\n        /* \"#utility.yul\":29073:29077   */\n      0x1f\n        /* \"#utility.yul\":29065:29071   */\n      dup10\n        /* \"#utility.yul\":29061:29078   */\n      and\n        /* \"#utility.yul\":29050:29059   */\n      dup3\n        /* \"#utility.yul\":29031:29079   */\n      tag_386\n      jump\t// in\n    tag_669:\n        /* \"#utility.yul\":29023:29029   */\n      dup4\n        /* \"#utility.yul\":29016:29080   */\n      sstore\n        /* \"#utility.yul\":28938:29094   */\n      pop\n        /* \"#utility.yul\":28915:29094   */\n    tag_668:\n        /* \"#utility.yul\":29140:29141   */\n      0x01\n        /* \"#utility.yul\":29136:29137   */\n      0x02\n        /* \"#utility.yul\":29128:29134   */\n      dup9\n        /* \"#utility.yul\":29124:29138   */\n      mul\n        /* \"#utility.yul\":29120:29142   */\n      add\n        /* \"#utility.yul\":29114:29118   */\n      dup9\n        /* \"#utility.yul\":29107:29143   */\n      sstore\n        /* \"#utility.yul\":28542:29153   */\n      pop\n      pop\n      pop\n        /* \"#utility.yul\":28505:29392   */\n    tag_660:\n      pop\n        /* \"#utility.yul\":28095:29398   */\n      pop\n      pop\n      pop\n        /* \"#utility.yul\":28003:29398   */\n      pop\n      pop\n      jump\t// out\n        /* \"#utility.yul\":29404:29584   */\n    tag_96:\n        /* \"#utility.yul\":29452:29529   */\n      0x4e487b7100000000000000000000000000000000000000000000000000000000\n        /* \"#utility.yul\":29449:29450   */\n      0x00\n        /* \"#utility.yul\":29442:29530   */\n      mstore\n        /* \"#utility.yul\":29549:29553   */\n      0x32\n        /* \"#utility.yul\":29546:29547   */\n      0x04\n        /* \"#utility.yul\":29539:29554   */\n      mstore\n        /* \"#utility.yul\":29573:29577   */\n      0x24\n        /* \"#utility.yul\":29570:29571   */\n      0x00\n        /* \"#utility.yul\":29563:29578   */\n      revert\n        /* \"#utility.yul\":29590:29739   */\n    tag_388:\n        /* \"#utility.yul\":29639:29645   */\n      0x00\n        /* \"#utility.yul\":29673:29678   */\n      dup2\n        /* \"#utility.yul\":29667:29679   */\n      sload\n        /* \"#utility.yul\":29657:29679   */\n      swap1\n      pop\n        /* \"#utility.yul\":29699:29732   */\n      tag_672\n        /* \"#utility.yul\":29725:29731   */\n      dup2\n        /* \"#utility.yul\":29699:29732   */\n      tag_153\n      jump\t// in\n    tag_672:\n        /* \"#utility.yul\":29689:29732   */\n      swap1\n      pop\n        /* \"#utility.yul\":29590:29739   */\n      swap2\n      swap1\n      pop\n      jump\t// out\n        /* \"#utility.yul\":29745:31196   */\n    tag_100:\n        /* \"#utility.yul\":29856:29859   */\n      dup2\n        /* \"#utility.yul\":29850:29854   */\n      dup2\n        /* \"#utility.yul\":29847:29860   */\n      sub\n        /* \"#utility.yul\":29844:29870   */\n      tag_674\n      jumpi\n        /* \"#utility.yul\":29863:29868   */\n      pop\n      pop\n      jump(tag_673)\n        /* \"#utility.yul\":29844:29870   */\n    tag_674:\n        /* \"#utility.yul\":29894:29928   */\n      tag_675\n        /* \"#utility.yul\":29924:29927   */\n      dup3\n        /* \"#utility.yul\":29894:29928   */\n      tag_388\n      jump\t// in\n    tag_675:\n        /* \"#utility.yul\":29993:30011   */\n      0xffffffffffffffff\n        /* \"#utility.yul\":29985:29991   */\n      dup2\n        /* \"#utility.yul\":29982:30012   */\n      gt\n        /* \"#utility.yul\":29979:30035   */\n      iszero\n      tag_676\n      jumpi\n        /* \"#utility.yul\":30015:30033   */\n      tag_677\n      tag_327\n      jump\t// in\n    tag_677:\n        /* \"#utility.yul\":29979:30035   */\n    tag_676:\n        /* \"#utility.yul\":30059:30097   */\n      tag_678\n        /* \"#utility.yul\":30091:30095   */\n      dup3\n        /* \"#utility.yul\":30085:30096   */\n      sload\n        /* \"#utility.yul\":30059:30097   */\n      tag_153\n      jump\t// in\n    tag_678:\n        /* \"#utility.yul\":30144:30211   */\n      tag_679\n        /* \"#utility.yul\":30204:30210   */\n      dup3\n        /* \"#utility.yul\":30196:30202   */\n      dup3\n        /* \"#utility.yul\":30190:30194   */\n      dup6\n        /* \"#utility.yul\":30144:30211   */\n      tag_384\n      jump\t// in\n    tag_679:\n        /* \"#utility.yul\":30238:30239   */\n      0x00\n        /* \"#utility.yul\":30267:30269   */\n      0x1f\n        /* \"#utility.yul\":30259:30265   */\n      dup4\n        /* \"#utility.yul\":30256:30270   */\n      gt\n        /* \"#utility.yul\":30284:30285   */\n      0x01\n        /* \"#utility.yul\":30279:30951   */\n      dup2\n      eq\n      tag_681\n      jumpi\n        /* \"#utility.yul\":30995:30996   */\n      0x00\n        /* \"#utility.yul\":31012:31018   */\n      dup5\n        /* \"#utility.yul\":31009:31086   */\n      iszero\n      tag_682\n      jumpi\n        /* \"#utility.yul\":31061:31070   */\n      dup3\n        /* \"#utility.yul\":31056:31059   */\n      dup8\n        /* \"#utility.yul\":31052:31071   */\n      add\n        /* \"#utility.yul\":31046:31072   */\n      sload\n        /* \"#utility.yul\":31037:31072   */\n      swap1\n      pop\n        /* \"#utility.yul\":31009:31086   */\n    tag_682:\n        /* \"#utility.yul\":31112:31179   */\n      tag_683\n        /* \"#utility.yul\":31172:31178   */\n      dup6\n        /* \"#utility.yul\":31165:31170   */\n      dup3\n        /* \"#utility.yul\":31112:31179   */\n      tag_387\n      jump\t// in\n    tag_683:\n        /* \"#utility.yul\":31106:31110   */\n      dup7\n        /* \"#utility.yul\":31099:31180   */\n      sstore\n        /* \"#utility.yul\":30968:31190   */\n      pop\n        /* \"#utility.yul\":30249:31190   */\n      jump(tag_680)\n        /* \"#utility.yul\":30279:30951   */\n    tag_681:\n        /* \"#utility.yul\":30331:30335   */\n      0x1f\n        /* \"#utility.yul\":30327:30336   */\n      not\n        /* \"#utility.yul\":30319:30325   */\n      dup5\n        /* \"#utility.yul\":30315:30337   */\n      and\n        /* \"#utility.yul\":30357:30393   */\n      tag_684\n        /* \"#utility.yul\":30389:30392   */\n      dup8\n        /* \"#utility.yul\":30357:30393   */\n      tag_373\n      jump\t// in\n    tag_684:\n        /* \"#utility.yul\":30350:30393   */\n      swap7\n      pop\n        /* \"#utility.yul\":30420:30457   */\n      tag_685\n        /* \"#utility.yul\":30452:30456   */\n      dup7\n        /* \"#utility.yul\":30420:30457   */\n      tag_373\n      jump\t// in\n    tag_685:\n        /* \"#utility.yul\":30479:30480   */\n      0x00\n        /* \"#utility.yul\":30493:30700   */\n    tag_686:\n        /* \"#utility.yul\":30507:30514   */\n      dup3\n        /* \"#utility.yul\":30504:30505   */\n      dup2\n        /* \"#utility.yul\":30501:30515   */\n      lt\n        /* \"#utility.yul\":30493:30700   */\n      iszero\n      tag_688\n      jumpi\n        /* \"#utility.yul\":30586:30595   */\n      dup5\n        /* \"#utility.yul\":30581:30584   */\n      dup10\n        /* \"#utility.yul\":30577:30596   */\n      add\n        /* \"#utility.yul\":30571:30597   */\n      sload\n        /* \"#utility.yul\":30563:30569   */\n      dup3\n        /* \"#utility.yul\":30556:30598   */\n      sstore\n        /* \"#utility.yul\":30637:30638   */\n      0x01\n        /* \"#utility.yul\":30629:30635   */\n      dup3\n        /* \"#utility.yul\":30625:30639   */\n      add\n        /* \"#utility.yul\":30615:30639   */\n      swap2\n      pop\n        /* \"#utility.yul\":30684:30685   */\n      0x01\n        /* \"#utility.yul\":30673:30682   */\n      dup6\n        /* \"#utility.yul\":30669:30686   */\n      add\n        /* \"#utility.yul\":30656:30686   */\n      swap5\n      pop\n        /* \"#utility.yul\":30530:30534   */\n      0x20\n        /* \"#utility.yul\":30527:30528   */\n      dup2\n        /* \"#utility.yul\":30523:30535   */\n      add\n        /* \"#utility.yul\":30518:30535   */\n      swap1\n      pop\n        /* \"#utility.yul\":30493:30700   */\n      jump(tag_686)\n    tag_688:\n        /* \"#utility.yul\":30728:30734   */\n      dup7\n        /* \"#utility.yul\":30719:30726   */\n      dup4\n        /* \"#utility.yul\":30716:30735   */\n      lt\n        /* \"#utility.yul\":30713:30892   */\n      iszero\n      tag_689\n      jumpi\n        /* \"#utility.yul\":30786:30795   */\n      dup5\n        /* \"#utility.yul\":30781:30784   */\n      dup10\n        /* \"#utility.yul\":30777:30796   */\n      add\n        /* \"#utility.yul\":30771:30797   */\n      sload\n        /* \"#utility.yul\":30829:30877   */\n      tag_690\n        /* \"#utility.yul\":30871:30875   */\n      0x1f\n        /* \"#utility.yul\":30863:30869   */\n      dup10\n        /* \"#utility.yul\":30859:30876   */\n      and\n        /* \"#utility.yul\":30848:30857   */\n      dup3\n        /* \"#utility.yul\":30829:30877   */\n      tag_386\n      jump\t// in\n    tag_690:\n        /* \"#utility.yul\":30821:30827   */\n      dup4\n        /* \"#utility.yul\":30814:30878   */\n      sstore\n        /* \"#utility.yul\":30736:30892   */\n      pop\n        /* \"#utility.yul\":30713:30892   */\n    tag_689:\n        /* \"#utility.yul\":30938:30939   */\n      0x01\n        /* \"#utility.yul\":30934:30935   */\n      0x02\n        /* \"#utility.yul\":30926:30932   */\n      dup9\n        /* \"#utility.yul\":30922:30936   */\n      mul\n        /* \"#utility.yul\":30918:30940   */\n      add\n        /* \"#utility.yul\":30912:30916   */\n      dup9\n        /* \"#utility.yul\":30905:30941   */\n      sstore\n        /* \"#utility.yul\":30286:30951   */\n      pop\n      pop\n      pop\n        /* \"#utility.yul\":30249:31190   */\n    tag_680:\n      pop\n        /* \"#utility.yul\":29834:31196   */\n      pop\n      pop\n      pop\n        /* \"#utility.yul\":29745:31196   */\n      pop\n      pop\n    tag_673:\n      jump\t// out\n        /* \"#utility.yul\":31202:31534   */\n    tag_102:\n        /* \"#utility.yul\":31323:31327   */\n      0x00\n        /* \"#utility.yul\":31361:31363   */\n      0x40\n        /* \"#utility.yul\":31350:31359   */\n      dup3\n        /* \"#utility.yul\":31346:31364   */\n      add\n        /* \"#utility.yul\":31338:31364   */\n      swap1\n      pop\n        /* \"#utility.yul\":31374:31445   */\n      tag_692\n        /* \"#utility.yul\":31442:31443   */\n      0x00\n        /* \"#utility.yul\":31431:31440   */\n      dup4\n        /* \"#utility.yul\":31427:31444   */\n      add\n        /* \"#utility.yul\":31418:31424   */\n      dup6\n        /* \"#utility.yul\":31374:31445   */\n      tag_341\n      jump\t// in\n    tag_692:\n        /* \"#utility.yul\":31455:31527   */\n      tag_693\n        /* \"#utility.yul\":31523:31525   */\n      0x20\n        /* \"#utility.yul\":31512:31521   */\n      dup4\n        /* \"#utility.yul\":31508:31526   */\n      add\n        /* \"#utility.yul\":31499:31505   */\n      dup5\n        /* \"#utility.yul\":31455:31527   */\n      tag_342\n      jump\t// in\n    tag_693:\n        /* \"#utility.yul\":31202:31534   */\n      swap4\n      swap3\n      pop\n      pop\n      pop\n      jump\t// out\n        /* \"#utility.yul\":31540:31720   */\n    tag_389:\n        /* \"#utility.yul\":31588:31665   */\n      0x4e487b7100000000000000000000000000000000000000000000000000000000\n        /* \"#utility.yul\":31585:31586   */\n      0x00\n        /* \"#utility.yul\":31578:31666   */\n      mstore\n        /* \"#utility.yul\":31685:31689   */\n      0x11\n        /* \"#utility.yul\":31682:31683   */\n      0x04\n        /* \"#utility.yul\":31675:31690   */\n      mstore\n        /* \"#utility.yul\":31709:31713   */\n      0x24\n        /* \"#utility.yul\":31706:31707   */\n      0x00\n        /* \"#utility.yul\":31699:31714   */\n      revert\n        /* \"#utility.yul\":31726:32136   */\n    tag_126:\n        /* \"#utility.yul\":31766:31773   */\n      0x00\n        /* \"#utility.yul\":31789:31809   */\n      tag_696\n        /* \"#utility.yul\":31807:31808   */\n      dup3\n        /* \"#utility.yul\":31789:31809   */\n      tag_334\n      jump\t// in\n    tag_696:\n        /* \"#utility.yul\":31784:31809   */\n      swap2\n      pop\n        /* \"#utility.yul\":31823:31843   */\n      tag_697\n        /* \"#utility.yul\":31841:31842   */\n      dup4\n        /* \"#utility.yul\":31823:31843   */\n      tag_334\n      jump\t// in\n    tag_697:\n        /* \"#utility.yul\":31818:31843   */\n      swap3\n      pop\n        /* \"#utility.yul\":31878:31879   */\n      dup3\n        /* \"#utility.yul\":31875:31876   */\n      dup3\n        /* \"#utility.yul\":31871:31880   */\n      mul\n        /* \"#utility.yul\":31900:31930   */\n      tag_698\n        /* \"#utility.yul\":31918:31929   */\n      dup2\n        /* \"#utility.yul\":31900:31930   */\n      tag_334\n      jump\t// in\n    tag_698:\n        /* \"#utility.yul\":31889:31930   */\n      swap2\n      pop\n        /* \"#utility.yul\":32079:32080   */\n      dup3\n        /* \"#utility.yul\":32070:32077   */\n      dup3\n        /* \"#utility.yul\":32066:32081   */\n      div\n        /* \"#utility.yul\":32063:32064   */\n      dup5\n        /* \"#utility.yul\":32060:32082   */\n      eq\n        /* \"#utility.yul\":32040:32041   */\n      dup4\n        /* \"#utility.yul\":32033:32042   */\n      iszero\n        /* \"#utility.yul\":32013:32096   */\n      or\n        /* \"#utility.yul\":31990:32129   */\n      tag_699\n      jumpi\n        /* \"#utility.yul\":32109:32127   */\n      tag_700\n      tag_389\n      jump\t// in\n    tag_700:\n        /* \"#utility.yul\":31990:32129   */\n    tag_699:\n        /* \"#utility.yul\":31774:32136   */\n      pop\n        /* \"#utility.yul\":31726:32136   */\n      swap3\n      swap2\n      pop\n      pop\n      jump\t// out\n        /* \"#utility.yul\":32142:32333   */\n    tag_131:\n        /* \"#utility.yul\":32182:32185   */\n      0x00\n        /* \"#utility.yul\":32201:32221   */\n      tag_702\n        /* \"#utility.yul\":32219:32220   */\n      dup3\n        /* \"#utility.yul\":32201:32221   */\n      tag_334\n      jump\t// in\n    tag_702:\n        /* \"#utility.yul\":32196:32221   */\n      swap2\n      pop\n        /* \"#utility.yul\":32235:32255   */\n      tag_703\n        /* \"#utility.yul\":32253:32254   */\n      dup4\n        /* \"#utility.yul\":32235:32255   */\n      tag_334\n      jump\t// in\n    tag_703:\n        /* \"#utility.yul\":32230:32255   */\n      swap3\n      pop\n        /* \"#utility.yul\":32278:32279   */\n      dup3\n        /* \"#utility.yul\":32275:32276   */\n      dup3\n        /* \"#utility.yul\":32271:32280   */\n      add\n        /* \"#utility.yul\":32264:32280   */\n      swap1\n      pop\n        /* \"#utility.yul\":32299:32302   */\n      dup1\n        /* \"#utility.yul\":32296:32297   */\n      dup3\n        /* \"#utility.yul\":32293:32303   */\n      gt\n        /* \"#utility.yul\":32290:32326   */\n      iszero\n      tag_704\n      jumpi\n        /* \"#utility.yul\":32306:32324   */\n      tag_705\n      tag_389\n      jump\t// in\n    tag_705:\n        /* \"#utility.yul\":32290:32326   */\n    tag_704:\n        /* \"#utility.yul\":32142:32333   */\n      swap3\n      swap2\n      pop\n      pop\n      jump\t// out\n        /* \"#utility.yul\":32339:32568   */\n    tag_390:\n        /* \"#utility.yul\":32479:32513   */\n      0x616e6f7468657220726571756573742068617320616c7265616479206265656e\n        /* \"#utility.yul\":32475:32476   */\n      0x00\n        /* \"#utility.yul\":32467:32473   */\n      dup3\n        /* \"#utility.yul\":32463:32477   */\n      add\n        /* \"#utility.yul\":32456:32514   */\n      mstore\n        /* \"#utility.yul\":32548:32560   */\n      0x2061636365707465642100000000000000000000000000000000000000000000\n        /* \"#utility.yul\":32543:32545   */\n      0x20\n        /* \"#utility.yul\":32535:32541   */\n      dup3\n        /* \"#utility.yul\":32531:32546   */\n      add\n        /* \"#utility.yul\":32524:32561   */\n      mstore\n        /* \"#utility.yul\":32339:32568   */\n      pop\n      jump\t// out\n        /* \"#utility.yul\":32574:32940   */\n    tag_391:\n        /* \"#utility.yul\":32716:32719   */\n      0x00\n        /* \"#utility.yul\":32737:32804   */\n      tag_708\n        /* \"#utility.yul\":32801:32803   */\n      0x2a\n        /* \"#utility.yul\":32796:32799   */\n      dup4\n        /* \"#utility.yul\":32737:32804   */\n      tag_344\n      jump\t// in\n    tag_708:\n        /* \"#utility.yul\":32730:32804   */\n      swap2\n      pop\n        /* \"#utility.yul\":32813:32906   */\n      tag_709\n        /* \"#utility.yul\":32902:32905   */\n      dup3\n        /* \"#utility.yul\":32813:32906   */\n      tag_390\n      jump\t// in\n    tag_709:\n        /* \"#utility.yul\":32931:32933   */\n      0x40\n        /* \"#utility.yul\":32926:32929   */\n      dup3\n        /* \"#utility.yul\":32922:32934   */\n      add\n        /* \"#utility.yul\":32915:32934   */\n      swap1\n      pop\n        /* \"#utility.yul\":32574:32940   */\n      swap2\n      swap1\n      pop\n      jump\t// out\n        /* \"#utility.yul\":32946:33365   */\n    tag_167:\n        /* \"#utility.yul\":33112:33116   */\n      0x00\n        /* \"#utility.yul\":33150:33152   */\n      0x20\n        /* \"#utility.yul\":33139:33148   */\n      dup3\n        /* \"#utility.yul\":33135:33153   */\n      add\n        /* \"#utility.yul\":33127:33153   */\n      swap1\n      pop\n        /* \"#utility.yul\":33199:33208   */\n      dup2\n        /* \"#utility.yul\":33193:33197   */\n      dup2\n        /* \"#utility.yul\":33189:33209   */\n      sub\n        /* \"#utility.yul\":33185:33186   */\n      0x00\n        /* \"#utility.yul\":33174:33183   */\n      dup4\n        /* \"#utility.yul\":33170:33187   */\n      add\n        /* \"#utility.yul\":33163:33210   */\n      mstore\n        /* \"#utility.yul\":33227:33358   */\n      tag_711\n        /* \"#utility.yul\":33353:33357   */\n      dup2\n        /* \"#utility.yul\":33227:33358   */\n      tag_391\n      jump\t// in\n    tag_711:\n        /* \"#utility.yul\":33219:33358   */\n      swap1\n      pop\n        /* \"#utility.yul\":32946:33365   */\n      swap2\n      swap1\n      pop\n      jump\t// out\n        /* \"#utility.yul\":33371:33813   */\n    tag_178:\n        /* \"#utility.yul\":33520:33524   */\n      0x00\n        /* \"#utility.yul\":33558:33560   */\n      0x60\n        /* \"#utility.yul\":33547:33556   */\n      dup3\n        /* \"#utility.yul\":33543:33561   */\n      add\n        /* \"#utility.yul\":33535:33561   */\n      swap1\n      pop\n        /* \"#utility.yul\":33571:33642   */\n      tag_713\n        /* \"#utility.yul\":33639:33640   */\n      0x00\n        /* \"#utility.yul\":33628:33637   */\n      dup4\n        /* \"#utility.yul\":33624:33641   */\n      add\n        /* \"#utility.yul\":33615:33621   */\n      dup7\n        /* \"#utility.yul\":33571:33642   */\n      tag_342\n      jump\t// in\n    tag_713:\n        /* \"#utility.yul\":33652:33724   */\n      tag_714\n        /* \"#utility.yul\":33720:33722   */\n      0x20\n        /* \"#utility.yul\":33709:33718   */\n      dup4\n        /* \"#utility.yul\":33705:33723   */\n      add\n        /* \"#utility.yul\":33696:33702   */\n      dup6\n        /* \"#utility.yul\":33652:33724   */\n      tag_342\n      jump\t// in\n    tag_714:\n        /* \"#utility.yul\":33734:33806   */\n      tag_715\n        /* \"#utility.yul\":33802:33804   */\n      0x40\n        /* \"#utility.yul\":33791:33800   */\n      dup4\n        /* \"#utility.yul\":33787:33805   */\n      add\n        /* \"#utility.yul\":33778:33784   */\n      dup5\n        /* \"#utility.yul\":33734:33806   */\n      tag_341\n      jump\t// in\n    tag_715:\n        /* \"#utility.yul\":33371:33813   */\n      swap5\n      swap4\n      pop\n      pop\n      pop\n      pop\n      jump\t// out\n        /* \"#utility.yul\":33819:34039   */\n    tag_392:\n        /* \"#utility.yul\":33959:33993   */\n      0x796f75722072657175657374206861736e2774206265656e2061636365707465\n        /* \"#utility.yul\":33955:33956   */\n      0x00\n        /* \"#utility.yul\":33947:33953   */\n      dup3\n        /* \"#utility.yul\":33943:33957   */\n      add\n        /* \"#utility.yul\":33936:33994   */\n      mstore\n        /* \"#utility.yul\":34028:34031   */\n      0x6400000000000000000000000000000000000000000000000000000000000000\n        /* \"#utility.yul\":34023:34025   */\n      0x20\n        /* \"#utility.yul\":34015:34021   */\n      dup3\n        /* \"#utility.yul\":34011:34026   */\n      add\n        /* \"#utility.yul\":34004:34032   */\n      mstore\n        /* \"#utility.yul\":33819:34039   */\n      pop\n      jump\t// out\n        /* \"#utility.yul\":34045:34411   */\n    tag_393:\n        /* \"#utility.yul\":34187:34190   */\n      0x00\n        /* \"#utility.yul\":34208:34275   */\n      tag_718\n        /* \"#utility.yul\":34272:34274   */\n      0x21\n        /* \"#utility.yul\":34267:34270   */\n      dup4\n        /* \"#utility.yul\":34208:34275   */\n      tag_344\n      jump\t// in\n    tag_718:\n        /* \"#utility.yul\":34201:34275   */\n      swap2\n      pop\n        /* \"#utility.yul\":34284:34377   */\n      tag_719\n        /* \"#utility.yul\":34373:34376   */\n      dup3\n        /* \"#utility.yul\":34284:34377   */\n      tag_392\n      jump\t// in\n    tag_719:\n        /* \"#utility.yul\":34402:34404   */\n      0x40\n        /* \"#utility.yul\":34397:34400   */\n      dup3\n        /* \"#utility.yul\":34393:34405   */\n      add\n        /* \"#utility.yul\":34386:34405   */\n      swap1\n      pop\n        /* \"#utility.yul\":34045:34411   */\n      swap2\n      swap1\n      pop\n      jump\t// out\n        /* \"#utility.yul\":34417:34836   */\n    tag_194:\n        /* \"#utility.yul\":34583:34587   */\n      0x00\n        /* \"#utility.yul\":34621:34623   */\n      0x20\n        /* \"#utility.yul\":34610:34619   */\n      dup3\n        /* \"#utility.yul\":34606:34624   */\n      add\n        /* \"#utility.yul\":34598:34624   */\n      swap1\n      pop\n        /* \"#utility.yul\":34670:34679   */\n      dup2\n        /* \"#utility.yul\":34664:34668   */\n      dup2\n        /* \"#utility.yul\":34660:34680   */\n      sub\n        /* \"#utility.yul\":34656:34657   */\n      0x00\n        /* \"#utility.yul\":34645:34654   */\n      dup4\n        /* \"#utility.yul\":34641:34658   */\n      add\n        /* \"#utility.yul\":34634:34681   */\n      mstore\n        /* \"#utility.yul\":34698:34829   */\n      tag_721\n        /* \"#utility.yul\":34824:34828   */\n      dup2\n        /* \"#utility.yul\":34698:34829   */\n      tag_393\n      jump\t// in\n    tag_721:\n        /* \"#utility.yul\":34690:34829   */\n      swap1\n      pop\n        /* \"#utility.yul\":34417:34836   */\n      swap2\n      swap1\n      pop\n      jump\t// out\n        /* \"#utility.yul\":34842:35010   */\n    tag_394:\n        /* \"#utility.yul\":34982:35002   */\n      0x496e636f7272656374207061796d656e74200000000000000000000000000000\n        /* \"#utility.yul\":34978:34979   */\n      0x00\n        /* \"#utility.yul\":34970:34976   */\n      dup3\n        /* \"#utility.yul\":34966:34980   */\n      add\n        /* \"#utility.yul\":34959:35003   */\n      mstore\n        /* \"#utility.yul\":34842:35010   */\n      pop\n      jump\t// out\n        /* \"#utility.yul\":35016:35382   */\n    tag_395:\n        /* \"#utility.yul\":35158:35161   */\n      0x00\n        /* \"#utility.yul\":35179:35246   */\n      tag_724\n        /* \"#utility.yul\":35243:35245   */\n      0x12\n        /* \"#utility.yul\":35238:35241   */\n      dup4\n        /* \"#utility.yul\":35179:35246   */\n      tag_344\n      jump\t// in\n    tag_724:\n        /* \"#utility.yul\":35172:35246   */\n      swap2\n      pop\n        /* \"#utility.yul\":35255:35348   */\n      tag_725\n        /* \"#utility.yul\":35344:35347   */\n      dup3\n        /* \"#utility.yul\":35255:35348   */\n      tag_394\n      jump\t// in\n    tag_725:\n        /* \"#utility.yul\":35373:35375   */\n      0x20\n        /* \"#utility.yul\":35368:35371   */\n      dup3\n        /* \"#utility.yul\":35364:35376   */\n      add\n        /* \"#utility.yul\":35357:35376   */\n      swap1\n      pop\n        /* \"#utility.yul\":35016:35382   */\n      swap2\n      swap1\n      pop\n      jump\t// out\n        /* \"#utility.yul\":35388:35807   */\n    tag_208:\n        /* \"#utility.yul\":35554:35558   */\n      0x00\n        /* \"#utility.yul\":35592:35594   */\n      0x20\n        /* \"#utility.yul\":35581:35590   */\n      dup3\n        /* \"#utility.yul\":35577:35595   */\n      add\n        /* \"#utility.yul\":35569:35595   */\n      swap1\n      pop\n        /* \"#utility.yul\":35641:35650   */\n      dup2\n        /* \"#utility.yul\":35635:35639   */\n      dup2\n        /* \"#utility.yul\":35631:35651   */\n      sub\n        /* \"#utility.yul\":35627:35628   */\n      0x00\n        /* \"#utility.yul\":35616:35625   */\n      dup4\n        /* \"#utility.yul\":35612:35629   */\n      add\n        /* \"#utility.yul\":35605:35652   */\n      mstore\n        /* \"#utility.yul\":35669:35800   */\n      tag_727\n        /* \"#utility.yul\":35795:35799   */\n      dup2\n        /* \"#utility.yul\":35669:35800   */\n      tag_395\n      jump\t// in\n    tag_727:\n        /* \"#utility.yul\":35661:35800   */\n      swap1\n      pop\n        /* \"#utility.yul\":35388:35807   */\n      swap2\n      swap1\n      pop\n      jump\t// out\n        /* \"#utility.yul\":35813:36007   */\n    tag_210:\n        /* \"#utility.yul\":35853:35857   */\n      0x00\n        /* \"#utility.yul\":35873:35893   */\n      tag_729\n        /* \"#utility.yul\":35891:35892   */\n      dup3\n        /* \"#utility.yul\":35873:35893   */\n      tag_334\n      jump\t// in\n    tag_729:\n        /* \"#utility.yul\":35868:35893   */\n      swap2\n      pop\n        /* \"#utility.yul\":35907:35927   */\n      tag_730\n        /* \"#utility.yul\":35925:35926   */\n      dup4\n        /* \"#utility.yul\":35907:35927   */\n      tag_334\n      jump\t// in\n    tag_730:\n        /* \"#utility.yul\":35902:35927   */\n      swap3\n      pop\n        /* \"#utility.yul\":35951:35952   */\n      dup3\n        /* \"#utility.yul\":35948:35949   */\n      dup3\n        /* \"#utility.yul\":35944:35953   */\n      sub\n        /* \"#utility.yul\":35936:35953   */\n      swap1\n      pop\n        /* \"#utility.yul\":35975:35976   */\n      dup2\n        /* \"#utility.yul\":35969:35973   */\n      dup2\n        /* \"#utility.yul\":35966:35977   */\n      gt\n        /* \"#utility.yul\":35963:36000   */\n      iszero\n      tag_731\n      jumpi\n        /* \"#utility.yul\":35980:35998   */\n      tag_732\n      tag_389\n      jump\t// in\n    tag_732:\n        /* \"#utility.yul\":35963:36000   */\n    tag_731:\n        /* \"#utility.yul\":35813:36007   */\n      swap3\n      swap2\n      pop\n      pop\n      jump\t// out\n        /* \"#utility.yul\":36013:36193   */\n    tag_396:\n        /* \"#utility.yul\":36061:36138   */\n      0x4e487b7100000000000000000000000000000000000000000000000000000000\n        /* \"#utility.yul\":36058:36059   */\n      0x00\n        /* \"#utility.yul\":36051:36139   */\n      mstore\n        /* \"#utility.yul\":36158:36162   */\n      0x12\n        /* \"#utility.yul\":36155:36156   */\n      0x04\n        /* \"#utility.yul\":36148:36163   */\n      mstore\n        /* \"#utility.yul\":36182:36186   */\n      0x24\n        /* \"#utility.yul\":36179:36180   */\n      0x00\n        /* \"#utility.yul\":36172:36187   */\n      revert\n        /* \"#utility.yul\":36199:36384   */\n    tag_212:\n        /* \"#utility.yul\":36239:36240   */\n      0x00\n        /* \"#utility.yul\":36256:36276   */\n      tag_735\n        /* \"#utility.yul\":36274:36275   */\n      dup3\n        /* \"#utility.yul\":36256:36276   */\n      tag_334\n      jump\t// in\n    tag_735:\n        /* \"#utility.yul\":36251:36276   */\n      swap2\n      pop\n        /* \"#utility.yul\":36290:36310   */\n      tag_736\n        /* \"#utility.yul\":36308:36309   */\n      dup4\n        /* \"#utility.yul\":36290:36310   */\n      tag_334\n      jump\t// in\n    tag_736:\n        /* \"#utility.yul\":36285:36310   */\n      swap3\n      pop\n        /* \"#utility.yul\":36329:36330   */\n      dup3\n        /* \"#utility.yul\":36319:36354   */\n      tag_737\n      jumpi\n        /* \"#utility.yul\":36334:36352   */\n      tag_738\n      tag_396\n      jump\t// in\n    tag_738:\n        /* \"#utility.yul\":36319:36354   */\n    tag_737:\n        /* \"#utility.yul\":36376:36377   */\n      dup3\n        /* \"#utility.yul\":36373:36374   */\n      dup3\n        /* \"#utility.yul\":36369:36378   */\n      div\n        /* \"#utility.yul\":36364:36378   */\n      swap1\n      pop\n        /* \"#utility.yul\":36199:36384   */\n      swap3\n      swap2\n      pop\n      pop\n      jump\t// out\n        /* \"#utility.yul\":36390:37165   */\n    tag_238:\n        /* \"#utility.yul\":36623:36627   */\n      0x00\n        /* \"#utility.yul\":36661:36664   */\n      0xc0\n        /* \"#utility.yul\":36650:36659   */\n      dup3\n        /* \"#utility.yul\":36646:36665   */\n      add\n        /* \"#utility.yul\":36638:36665   */\n      swap1\n      pop\n        /* \"#utility.yul\":36675:36746   */\n      tag_740\n        /* \"#utility.yul\":36743:36744   */\n      0x00\n        /* \"#utility.yul\":36732:36741   */\n      dup4\n        /* \"#utility.yul\":36728:36745   */\n      add\n        /* \"#utility.yul\":36719:36725   */\n      dup10\n        /* \"#utility.yul\":36675:36746   */\n      tag_341\n      jump\t// in\n    tag_740:\n        /* \"#utility.yul\":36756:36828   */\n      tag_741\n        /* \"#utility.yul\":36824:36826   */\n      0x20\n        /* \"#utility.yul\":36813:36822   */\n      dup4\n        /* \"#utility.yul\":36809:36827   */\n      add\n        /* \"#utility.yul\":36800:36806   */\n      dup9\n        /* \"#utility.yul\":36756:36828   */\n      tag_342\n      jump\t// in\n    tag_741:\n        /* \"#utility.yul\":36838:36910   */\n      tag_742\n        /* \"#utility.yul\":36906:36908   */\n      0x40\n        /* \"#utility.yul\":36895:36904   */\n      dup4\n        /* \"#utility.yul\":36891:36909   */\n      add\n        /* \"#utility.yul\":36882:36888   */\n      dup8\n        /* \"#utility.yul\":36838:36910   */\n      tag_342\n      jump\t// in\n    tag_742:\n        /* \"#utility.yul\":36920:36992   */\n      tag_743\n        /* \"#utility.yul\":36988:36990   */\n      0x60\n        /* \"#utility.yul\":36977:36986   */\n      dup4\n        /* \"#utility.yul\":36973:36991   */\n      add\n        /* \"#utility.yul\":36964:36970   */\n      dup7\n        /* \"#utility.yul\":36920:36992   */\n      tag_341\n      jump\t// in\n    tag_743:\n        /* \"#utility.yul\":37002:37075   */\n      tag_744\n        /* \"#utility.yul\":37070:37073   */\n      0x80\n        /* \"#utility.yul\":37059:37068   */\n      dup4\n        /* \"#utility.yul\":37055:37074   */\n      add\n        /* \"#utility.yul\":37046:37052   */\n      dup6\n        /* \"#utility.yul\":37002:37075   */\n      tag_341\n      jump\t// in\n    tag_744:\n        /* \"#utility.yul\":37085:37158   */\n      tag_745\n        /* \"#utility.yul\":37153:37156   */\n      0xa0\n        /* \"#utility.yul\":37142:37151   */\n      dup4\n        /* \"#utility.yul\":37138:37157   */\n      add\n        /* \"#utility.yul\":37129:37135   */\n      dup5\n        /* \"#utility.yul\":37085:37158   */\n      tag_341\n      jump\t// in\n    tag_745:\n        /* \"#utility.yul\":36390:37165   */\n      swap8\n      swap7\n      pop\n      pop\n      pop\n      pop\n      pop\n      pop\n      pop\n      jump\t// out\n        /* \"#utility.yul\":37171:37343   */\n    tag_397:\n        /* \"#utility.yul\":37311:37335   */\n      0x486f757365206973206e6f7420617661696c61626c6500000000000000000000\n        /* \"#utility.yul\":37307:37308   */\n      0x00\n        /* \"#utility.yul\":37299:37305   */\n      dup3\n        /* \"#utility.yul\":37295:37309   */\n      add\n        /* \"#utility.yul\":37288:37336   */\n      mstore\n        /* \"#utility.yul\":37171:37343   */\n      pop\n      jump\t// out\n        /* \"#utility.yul\":37349:37715   */\n    tag_398:\n        /* \"#utility.yul\":37491:37494   */\n      0x00\n        /* \"#utility.yul\":37512:37579   */\n      tag_748\n        /* \"#utility.yul\":37576:37578   */\n      0x16\n        /* \"#utility.yul\":37571:37574   */\n      dup4\n        /* \"#utility.yul\":37512:37579   */\n      tag_344\n      jump\t// in\n    tag_748:\n        /* \"#utility.yul\":37505:37579   */\n      swap2\n      pop\n        /* \"#utility.yul\":37588:37681   */\n      tag_749\n        /* \"#utility.yul\":37677:37680   */\n      dup3\n        /* \"#utility.yul\":37588:37681   */\n      tag_397\n      jump\t// in\n    tag_749:\n        /* \"#utility.yul\":37706:37708   */\n      0x20\n        /* \"#utility.yul\":37701:37704   */\n      dup3\n        /* \"#utility.yul\":37697:37709   */\n      add\n        /* \"#utility.yul\":37690:37709   */\n      swap1\n      pop\n        /* \"#utility.yul\":37349:37715   */\n      swap2\n      swap1\n      pop\n      jump\t// out\n        /* \"#utility.yul\":37721:38140   */\n    tag_256:\n        /* \"#utility.yul\":37887:37891   */\n      0x00\n        /* \"#utility.yul\":37925:37927   */\n      0x20\n        /* \"#utility.yul\":37914:37923   */\n      dup3\n        /* \"#utility.yul\":37910:37928   */\n      add\n        /* \"#utility.yul\":37902:37928   */\n      swap1\n      pop\n        /* \"#utility.yul\":37974:37983   */\n      dup2\n        /* \"#utility.yul\":37968:37972   */\n      dup2\n        /* \"#utility.yul\":37964:37984   */\n      sub\n        /* \"#utility.yul\":37960:37961   */\n      0x00\n        /* \"#utility.yul\":37949:37958   */\n      dup4\n        /* \"#utility.yul\":37945:37962   */\n      add\n        /* \"#utility.yul\":37938:37985   */\n      mstore\n        /* \"#utility.yul\":38002:38133   */\n      tag_751\n        /* \"#utility.yul\":38128:38132   */\n      dup2\n        /* \"#utility.yul\":38002:38133   */\n      tag_398\n      jump\t// in\n    tag_751:\n        /* \"#utility.yul\":37994:38133   */\n      swap1\n      pop\n        /* \"#utility.yul\":37721:38140   */\n      swap2\n      swap1\n      pop\n      jump\t// out\n        /* \"#utility.yul\":38146:38478   */\n    tag_271:\n        /* \"#utility.yul\":38267:38271   */\n      0x00\n        /* \"#utility.yul\":38305:38307   */\n      0x40\n        /* \"#utility.yul\":38294:38303   */\n      dup3\n        /* \"#utility.yul\":38290:38308   */\n      add\n        /* \"#utility.yul\":38282:38308   */\n      swap1\n      pop\n        /* \"#utility.yul\":38318:38389   */\n      tag_753\n        /* \"#utility.yul\":38386:38387   */\n      0x00\n        /* \"#utility.yul\":38375:38384   */\n      dup4\n        /* \"#utility.yul\":38371:38388   */\n      add\n        /* \"#utility.yul\":38362:38368   */\n      dup6\n        /* \"#utility.yul\":38318:38389   */\n      tag_342\n      jump\t// in\n    tag_753:\n        /* \"#utility.yul\":38399:38471   */\n      tag_754\n        /* \"#utility.yul\":38467:38469   */\n      0x20\n        /* \"#utility.yul\":38456:38465   */\n      dup4\n        /* \"#utility.yul\":38452:38470   */\n      add\n        /* \"#utility.yul\":38443:38449   */\n      dup5\n        /* \"#utility.yul\":38399:38471   */\n      tag_341\n      jump\t// in\n    tag_754:\n        /* \"#utility.yul\":38146:38478   */\n      swap4\n      swap3\n      pop\n      pop\n      pop\n      jump\t// out\n        /* \"#utility.yul\":38484:38704   */\n    tag_399:\n        /* \"#utility.yul\":38624:38658   */\n      0x596f7520646f6e2774206861766520616e20616d6f756e742064756520796574\n        /* \"#utility.yul\":38620:38621   */\n      0x00\n        /* \"#utility.yul\":38612:38618   */\n      dup3\n        /* \"#utility.yul\":38608:38622   */\n      add\n        /* \"#utility.yul\":38601:38659   */\n      mstore\n        /* \"#utility.yul\":38693:38696   */\n      0x2100000000000000000000000000000000000000000000000000000000000000\n        /* \"#utility.yul\":38688:38690   */\n      0x20\n        /* \"#utility.yul\":38680:38686   */\n      dup3\n        /* \"#utility.yul\":38676:38691   */\n      add\n        /* \"#utility.yul\":38669:38697   */\n      mstore\n        /* \"#utility.yul\":38484:38704   */\n      pop\n      jump\t// out\n        /* \"#utility.yul\":38710:39076   */\n    tag_400:\n        /* \"#utility.yul\":38852:38855   */\n      0x00\n        /* \"#utility.yul\":38873:38940   */\n      tag_757\n        /* \"#utility.yul\":38937:38939   */\n      0x21\n        /* \"#utility.yul\":38932:38935   */\n      dup4\n        /* \"#utility.yul\":38873:38940   */\n      tag_344\n      jump\t// in\n    tag_757:\n        /* \"#utility.yul\":38866:38940   */\n      swap2\n      pop\n        /* \"#utility.yul\":38949:39042   */\n      tag_758\n        /* \"#utility.yul\":39038:39041   */\n      dup3\n        /* \"#utility.yul\":38949:39042   */\n      tag_399\n      jump\t// in\n    tag_758:\n        /* \"#utility.yul\":39067:39069   */\n      0x40\n        /* \"#utility.yul\":39062:39065   */\n      dup3\n        /* \"#utility.yul\":39058:39070   */\n      add\n        /* \"#utility.yul\":39051:39070   */\n      swap1\n      pop\n        /* \"#utility.yul\":38710:39076   */\n      swap2\n      swap1\n      pop\n      jump\t// out\n        /* \"#utility.yul\":39082:39501   */\n    tag_287:\n        /* \"#utility.yul\":39248:39252   */\n      0x00\n        /* \"#utility.yul\":39286:39288   */\n      0x20\n        /* \"#utility.yul\":39275:39284   */\n      dup3\n        /* \"#utility.yul\":39271:39289   */\n      add\n        /* \"#utility.yul\":39263:39289   */\n      swap1\n      pop\n        /* \"#utility.yul\":39335:39344   */\n      dup2\n        /* \"#utility.yul\":39329:39333   */\n      dup2\n        /* \"#utility.yul\":39325:39345   */\n      sub\n        /* \"#utility.yul\":39321:39322   */\n      0x00\n        /* \"#utility.yul\":39310:39319   */\n      dup4\n        /* \"#utility.yul\":39306:39323   */\n      add\n        /* \"#utility.yul\":39299:39346   */\n      mstore\n        /* \"#utility.yul\":39363:39494   */\n      tag_760\n        /* \"#utility.yul\":39489:39493   */\n      dup2\n        /* \"#utility.yul\":39363:39494   */\n      tag_400\n      jump\t// in\n    tag_760:\n        /* \"#utility.yul\":39355:39494   */\n      swap1\n      pop\n        /* \"#utility.yul\":39082:39501   */\n      swap2\n      swap1\n      pop\n      jump\t// out\n        /* \"#utility.yul\":39507:39949   */\n    tag_305:\n        /* \"#utility.yul\":39656:39660   */\n      0x00\n        /* \"#utility.yul\":39694:39696   */\n      0x60\n        /* \"#utility.yul\":39683:39692   */\n      dup3\n        /* \"#utility.yul\":39679:39697   */\n      add\n        /* \"#utility.yul\":39671:39697   */\n      swap1\n      pop\n        /* \"#utility.yul\":39707:39778   */\n      tag_762\n        /* \"#utility.yul\":39775:39776   */\n      0x00\n        /* \"#utility.yul\":39764:39773   */\n      dup4\n        /* \"#utility.yul\":39760:39777   */\n      add\n        /* \"#utility.yul\":39751:39757   */\n      dup7\n        /* \"#utility.yul\":39707:39778   */\n      tag_341\n      jump\t// in\n    tag_762:\n        /* \"#utility.yul\":39788:39860   */\n      tag_763\n        /* \"#utility.yul\":39856:39858   */\n      0x20\n        /* \"#utility.yul\":39845:39854   */\n      dup4\n        /* \"#utility.yul\":39841:39859   */\n      add\n        /* \"#utility.yul\":39832:39838   */\n      dup6\n        /* \"#utility.yul\":39788:39860   */\n      tag_342\n      jump\t// in\n    tag_763:\n        /* \"#utility.yul\":39870:39942   */\n      tag_764\n        /* \"#utility.yul\":39938:39940   */\n      0x40\n        /* \"#utility.yul\":39927:39936   */\n      dup4\n        /* \"#utility.yul\":39923:39941   */\n      add\n        /* \"#utility.yul\":39914:39920   */\n      dup5\n        /* \"#utility.yul\":39870:39942   */\n      tag_341\n      jump\t// in\n    tag_764:\n        /* \"#utility.yul\":39507:39949   */\n      swap5\n      swap4\n      pop\n      pop\n      pop\n      pop\n      jump\t// out\n\n    auxdata: 0xa26469706673582212206cea84a35c4ecac0051293f6e4da4833db85c2d70a83baa10f9c9eb14de68f4864736f6c63430008160033\n}\n",
				"bytecode": {
					"linkReferences": {},
					"object": "608060405234801561000f575f80fd5b5061333f8061001d5f395ff3fe6080604052600436106100dc575f3560e01c80639ecebe2a1161007e578063b5c3005c11610058578063b5c3005c146102ef578063d87deea814610317578063d9e8843f14610341578063dc3886051461035d576100dc565b80639ecebe2a14610226578063aeda852f14610267578063af94a1d1146102ab576100dc565b80634ba1f098116100ba5780634ba1f098146101745780637607d62f1461019c5780638813ce12146101e05780638f7d8e731461020a576100dc565b8063296da249146100e0578063337a8e3c1461010857806339e110e114610130575b5f80fd5b3480156100eb575f80fd5b506101066004803603810190610101919061213a565b610387565b005b348015610113575f80fd5b5061012e60048036038101906101299190612239565b610634565b005b34801561013b575f80fd5b5061015660048036038101906101519190612264565b610b64565b60405161016b9998979695949392919061233a565b60405180910390f35b34801561017f575f80fd5b5061019a600480360381019061019591906123cc565b610c6d565b005b3480156101a7575f80fd5b506101c260048036038101906101bd9190612264565b610e81565b6040516101d7999897969594939291906123f7565b60405180910390f35b3480156101eb575f80fd5b506101f4610f04565b60405161020191906125c1565b60405180910390f35b610224600480360381019061021f91906125e1565b611021565b005b348015610231575f80fd5b5061024c60048036038101906102479190612264565b6115c7565b60405161025e96959493929190612645565b60405180910390f35b348015610272575f80fd5b5061028d600480360381019061028891906123cc565b611638565b6040516102a29998979695949392919061233a565b60405180910390f35b3480156102b6575f80fd5b506102d160048036038101906102cc91906123cc565b611735565b6040516102e6999897969594939291906123f7565b60405180910390f35b3480156102fa575f80fd5b50610315600480360381019061031091906126a4565b6117ad565b005b348015610322575f80fd5b5061032b611a63565b60405161033891906128b9565b60405180910390f35b61035b600480360381019061035691906123cc565b611be9565b005b348015610368575f80fd5b50610371611e75565b60405161037e9190612a37565b60405180910390f35b5f808054905090505f6040518061012001604052808381526020013373ffffffffffffffffffffffffffffffffffffffff1681526020018981526020018881526020018781526020018681526020018581526020018481526020016001815250908060018154018082558091505060019003905f5260205f2090600902015f909190919091505f820151815f01556020820151816001015f6101000a81548173ffffffffffffffffffffffffffffffffffffffff021916908373ffffffffffffffffffffffffffffffffffffffff16021790555060408201518160020190816104709190612c51565b50606082015181600301556080820151816004015560a0820151816005015560c0820151816006015560e082015181600701556101008201518160080155505060035f3373ffffffffffffffffffffffffffffffffffffffff1673ffffffffffffffffffffffffffffffffffffffff1681526020019081526020015f205f8281548110610500576104ff612d20565b5b905f5260205f209060090201908060018154018082558091505060019003905f5260205f2090600902015f909190919091505f820154815f0155600182015f9054906101000a900473ffffffffffffffffffffffffffffffffffffffff16816001015f6101000a81548173ffffffffffffffffffffffffffffffffffffffff021916908373ffffffffffffffffffffffffffffffffffffffff160217905550600282018160020190816105b39190612d62565b5060038201548160030155600482015481600401556005820154816005015560068201548160060155600782015481600701556008820154816008015550507f940aaeb497467fb446ec8c9138170d69447f46abda147045ef232ebf4515229f8133604051610623929190612e47565b60405180910390a150505050505050565b5f4290505f5b60045f8473ffffffffffffffffffffffffffffffffffffffff1673ffffffffffffffffffffffffffffffffffffffff1681526020019081526020015f2080549050811015610b5f57600160045f8573ffffffffffffffffffffffffffffffffffffffff1673ffffffffffffffffffffffffffffffffffffffff1681526020019081526020015f2082815481106106d3576106d2612d20565b5b905f5260205f2090600902016008015403610b52575f60045f8573ffffffffffffffffffffffffffffffffffffffff1673ffffffffffffffffffffffffffffffffffffffff1681526020019081526020015f20828154811061073857610737612d20565b5b905f5260205f2090600902016005015490505b80831115610b50575f60045f8673ffffffffffffffffffffffffffffffffffffffff1673ffffffffffffffffffffffffffffffffffffffff1681526020019081526020015f2083815481106107a3576107a2612d20565b5b905f5260205f209060090201604051806101200160405290815f8201548152602001600182015f9054906101000a900473ffffffffffffffffffffffffffffffffffffffff1673ffffffffffffffffffffffffffffffffffffffff1673ffffffffffffffffffffffffffffffffffffffff16815260200160028201548152602001600382015481526020016004820154815260200160058201548152602001600682015481526020016007820154815260200160088201548152505090505f816040015190505f80828154811061087d5761087c612d20565b5b905f5260205f2090600902016005015490505f8083815481106108a3576108a2612d20565b5b905f5260205f20906009020160030154905062015180826108c49190612e9b565b60045f8a73ffffffffffffffffffffffffffffffffffffffff1673ffffffffffffffffffffffffffffffffffffffff1681526020019081526020015f20878154811061091357610912612d20565b5b905f5260205f2090600902016005015f8282546109309190612edc565b9250508190555080826109439190612e9b565b60045f8a73ffffffffffffffffffffffffffffffffffffffff1673ffffffffffffffffffffffffffffffffffffffff1681526020019081526020015f20878154811061099257610991612d20565b5b905f5260205f2090600902016006015f8282546109af9190612edc565b9250508190555060045f8973ffffffffffffffffffffffffffffffffffffffff1673ffffffffffffffffffffffffffffffffffffffff1681526020019081526020015f208681548110610a0557610a04612d20565b5b905f5260205f2090600902016004015460045f8a73ffffffffffffffffffffffffffffffffffffffff1673ffffffffffffffffffffffffffffffffffffffff1681526020019081526020015f208781548110610a6457610a63612d20565b5b905f5260205f209060090201600501541115610ae6575f60045f8a73ffffffffffffffffffffffffffffffffffffffff1673ffffffffffffffffffffffffffffffffffffffff1681526020019081526020015f208781548110610aca57610ac9612d20565b5b905f5260205f2090600902016008018190555050505050610b50565b60045f8973ffffffffffffffffffffffffffffffffffffffff1673ffffffffffffffffffffffffffffffffffffffff1681526020019081526020015f208681548110610b3557610b34612d20565b5b905f5260205f2090600902016005015494505050505061074b565b505b808060010191505061063a565b505050565b6003602052815f5260405f208181548110610b7d575f80fd5b905f5260205f2090600902015f9150915050805f015490806001015f9054906101000a900473ffffffffffffffffffffffffffffffffffffffff1690806002018054610bc890612a84565b80601f0160208091040260200160405190810160405280929190818152602001828054610bf490612a84565b8015610c3f5780601f10610c1657610100808354040283529160200191610c3f565b820191905f5260205f20905b815481529060010190602001808311610c2257829003601f168201915b5050505050908060030154908060040154908060050154908060060154908060070154908060080154905089565b5f60025f3373ffffffffffffffffffffffffffffffffffffffff1673ffffffffffffffffffffffffffffffffffffffff1681526020019081526020015f208281548110610cbd57610cbc612d20565b5b905f5260205f20906006020160020154905060015f8281548110610ce457610ce3612d20565b5b905f5260205f2090600902016008015414610d34576040517f08c379a0000000000000000000000000000000000000000000000000000000008152600401610d2b90612f7f565b60405180910390fd5b5f60025f3373ffffffffffffffffffffffffffffffffffffffff1673ffffffffffffffffffffffffffffffffffffffff1681526020019081526020015f208381548110610d8457610d83612d20565b5b905f5260205f2090600602016001015f9054906101000a900473ffffffffffffffffffffffffffffffffffffffff169050600160025f3373ffffffffffffffffffffffffffffffffffffffff1673ffffffffffffffffffffffffffffffffffffffff1681526020019081526020015f208481548110610e0657610e05612d20565b5b905f5260205f2090600602016005018190555060025f8381548110610e2e57610e2d612d20565b5b905f5260205f209060090201600801819055507fd0e9a8bd0419492ff92821e0c185c3727b503f71880830c1122a578619af8e75338284604051610e7493929190612f9d565b60405180910390a1505050565b6004602052815f5260405f208181548110610e9a575f80fd5b905f5260205f2090600902015f9150915050805f015490806001015f9054906101000a900473ffffffffffffffffffffffffffffffffffffffff16908060020154908060030154908060040154908060050154908060060154908060070154908060080154905089565b606060025f3373ffffffffffffffffffffffffffffffffffffffff1673ffffffffffffffffffffffffffffffffffffffff1681526020019081526020015f20805480602002602001604051908101604052809291908181526020015f905b82821015611018578382905f5260205f2090600602016040518060c00160405290815f8201548152602001600182015f9054906101000a900473ffffffffffffffffffffffffffffffffffffffff1673ffffffffffffffffffffffffffffffffffffffff1673ffffffffffffffffffffffffffffffffffffffff16815260200160028201548152602001600382015481526020016004820154815260200160058201548152505081526020019060010190610f62565b50505050905090565b5f80848154811061103557611034612d20565b5b905f5260205f2090600902016001015f9054906101000a900473ffffffffffffffffffffffffffffffffffffffff169050600160025f8373ffffffffffffffffffffffffffffffffffffffff1673ffffffffffffffffffffffffffffffffffffffff1681526020019081526020015f2086815481106110b7576110b6612d20565b5b905f5260205f2090600602016005015414611107576040517f08c379a00000000000000000000000000000000000000000000000000000000081526004016110fe90613042565b60405180910390fd5b5f80858154811061111b5761111a612d20565b5b905f5260205f2090600902016005015490505f80868154811061114157611140612d20565b5b905f5260205f2090600902016003015490505f80878154811061116757611166612d20565b5b905f5260205f2090600902016004015490508083836111869190612e9b565b6111909190612edc565b34146111d1576040517f08c379a00000000000000000000000000000000000000000000000000000000081526004016111c8906130aa565b60405180910390fd5b5f60018462015180888a6111e591906130c8565b6111ef9190613128565b6111f99190613128565b6112039190612edc565b90505f62015180856112159190612e9b565b886112209190612edc565b90505f848660018561123291906130c8565b61123c9190612e9b565b6112469190612e9b565b90505f600180549050905060016040518061012001604052808381526020013373ffffffffffffffffffffffffffffffffffffffff1681526020018d81526020018c81526020018b81526020018581526020015f81526020018481526020016001815250908060018154018082558091505060019003905f5260205f2090600902015f909190919091505f820151815f01556020820151816001015f6101000a81548173ffffffffffffffffffffffffffffffffffffffff021916908373ffffffffffffffffffffffffffffffffffffffff16021790555060408201518160020155606082015181600301556080820151816004015560a0820151816005015560c0820151816006015560e082015181600701556101008201518160080155505060045f3373ffffffffffffffffffffffffffffffffffffffff1673ffffffffffffffffffffffffffffffffffffffff1681526020019081526020015f20600182815481106113b8576113b7612d20565b5b905f5260205f209060090201908060018154018082558091505060019003905f5260205f2090600902015f909190919091505f820154815f0155600182015f9054906101000a900473ffffffffffffffffffffffffffffffffffffffff16816001015f6101000a81548173ffffffffffffffffffffffffffffffffffffffff021916908373ffffffffffffffffffffffffffffffffffffffff1602179055506002820154816002015560038201548160030155600482015481600401556005820154816005015560068201548160060155600782015481600701556008820154816008015550505f808c815481106114b3576114b2612d20565b5b905f5260205f209060090201600801819055505f8b815481106114d9576114d8612d20565b5b905f5260205f2090600902016001015f9054906101000a900473ffffffffffffffffffffffffffffffffffffffff1673ffffffffffffffffffffffffffffffffffffffff166108fc5f8d8154811061153457611533612d20565b5b905f5260205f209060090201600401543461154f91906130c8565b90811502906040515f60405180830381858888f19350505050158015611577573d5f803e3d5ffd5b507fb80f428704aea624db48e5fa450e946b9e04a896c332c3fb87ddb996f046958f81338a8e8e8e6040516115b196959493929190613158565b60405180910390a1505050505050505050505050565b6002602052815f5260405f2081815481106115e0575f80fd5b905f5260205f2090600602015f9150915050805f015490806001015f9054906101000a900473ffffffffffffffffffffffffffffffffffffffff16908060020154908060030154908060040154908060050154905086565b5f8181548110611646575f80fd5b905f5260205f2090600902015f91509050805f015490806001015f9054906101000a900473ffffffffffffffffffffffffffffffffffffffff169080600201805461169090612a84565b80601f01602080910402602001604051908101604052809291908181526020018280546116bc90612a84565b80156117075780601f106116de57610100808354040283529160200191611707565b820191905f5260205f20905b8154815290600101906020018083116116ea57829003601f168201915b5050505050908060030154908060040154908060050154908060060154908060070154908060080154905089565b60018181548110611744575f80fd5b905f5260205f2090600902015f91509050805f015490806001015f9054906101000a900473ffffffffffffffffffffffffffffffffffffffff16908060020154908060030154908060040154908060050154908060060154908060070154908060080154905089565b60015f84815481106117c2576117c1612d20565b5b905f5260205f2090600902016008015414611812576040517f08c379a000000000000000000000000000000000000000000000000000000000815260040161180990613201565b60405180910390fd5b5f818361181f91906130c8565b9050805f858154811061183557611834612d20565b5b905f5260205f2090600902016007015411801561187357505f84815481106118605761185f612d20565b5b905f5260205f2090600902016006015481115b61187b575f80fd5b5f80858154811061188f5761188e612d20565b5b905f5260205f2090600902016001015f9054906101000a900473ffffffffffffffffffffffffffffffffffffffff1690505f60025f8373ffffffffffffffffffffffffffffffffffffffff1673ffffffffffffffffffffffffffffffffffffffff1681526020019081526020015f2080549050905060025f8373ffffffffffffffffffffffffffffffffffffffff1673ffffffffffffffffffffffffffffffffffffffff1681526020019081526020015f206040518060c001604052808381526020013373ffffffffffffffffffffffffffffffffffffffff1681526020018881526020018781526020018681526020015f815250908060018154018082558091505060019003905f5260205f2090600602015f909190919091505f820151815f01556020820151816001015f6101000a81548173ffffffffffffffffffffffffffffffffffffffff021916908373ffffffffffffffffffffffffffffffffffffffff16021790555060408201518160020155606082015181600301556080820151816004015560a0820151816005015550507f0c27e43af6588b65dccc4465720ef720b7cf45f5fba352df8607ae1cfea9089b3382604051611a5392919061321f565b60405180910390a1505050505050565b60605f805480602002602001604051908101604052809291908181526020015f905b82821015611be0578382905f5260205f209060090201604051806101200160405290815f8201548152602001600182015f9054906101000a900473ffffffffffffffffffffffffffffffffffffffff1673ffffffffffffffffffffffffffffffffffffffff1673ffffffffffffffffffffffffffffffffffffffff168152602001600282018054611b1590612a84565b80601f0160208091040260200160405190810160405280929190818152602001828054611b4190612a84565b8015611b8c5780601f10611b6357610100808354040283529160200191611b8c565b820191905f5260205f20905b815481529060010190602001808311611b6f57829003601f168201915b50505050508152602001600382015481526020016004820154815260200160058201548152602001600682015481526020016007820154815260200160088201548152505081526020019060010190611a85565b50505050905090565b5f60018281548110611bfe57611bfd612d20565b5b905f5260205f2090600902016006015411611c4e576040517f08c379a0000000000000000000000000000000000000000000000000000000008152600401611c45906132b6565b60405180910390fd5b5f60018281548110611c6357611c62612d20565b5b905f5260205f2090600902016002015490505f8181548110611c8857611c87612d20565b5b905f5260205f2090600902016001015f9054906101000a900473ffffffffffffffffffffffffffffffffffffffff1673ffffffffffffffffffffffffffffffffffffffff166108fc3490811502906040515f60405180830381858888f19350505050158015611cf9573d5f803e3d5ffd5b503460018381548110611d0f57611d0e612d20565b5b905f5260205f2090600902016006015f828254611d2c91906130c8565b925050819055503460018381548110611d4857611d47612d20565b5b905f5260205f2090600902016007015f828254611d6591906130c8565b925050819055507f63e55317e25c0cab3a2de23ee0e244496daea0c1c2b8e272bbc01722b96bb9ae823334604051611d9f939291906132d4565b60405180910390a15f60018381548110611dbc57611dbb612d20565b5b905f5260205f2090600902016007015403611e71573373ffffffffffffffffffffffffffffffffffffffff166108fc5f8381548110611dfe57611dfd612d20565b5b905f5260205f2090600902016004015490811502906040515f60405180830381858888f19350505050158015611e36573d5f803e3d5ffd5b507fc8891cc8407e9bc09a78421bd234c3fd57d71a2cc5f1ac6d5602070add66d0dd8233604051611e68929190612e47565b60405180910390a15b5050565b6060611e8033610634565b60045f3373ffffffffffffffffffffffffffffffffffffffff1673ffffffffffffffffffffffffffffffffffffffff1681526020019081526020015f20805480602002602001604051908101604052809291908181526020015f905b82821015611fb1578382905f5260205f209060090201604051806101200160405290815f8201548152602001600182015f9054906101000a900473ffffffffffffffffffffffffffffffffffffffff1673ffffffffffffffffffffffffffffffffffffffff1673ffffffffffffffffffffffffffffffffffffffff16815260200160028201548152602001600382015481526020016004820154815260200160058201548152602001600682015481526020016007820154815260200160088201548152505081526020019060010190611edc565b50505050905090565b5f604051905090565b5f80fd5b5f80fd5b5f80fd5b5f80fd5b5f601f19601f8301169050919050565b7f4e487b71000000000000000000000000000000000000000000000000000000005f52604160045260245ffd5b61201982611fd3565b810181811067ffffffffffffffff8211171561203857612037611fe3565b5b80604052505050565b5f61204a611fba565b90506120568282612010565b919050565b5f67ffffffffffffffff82111561207557612074611fe3565b5b61207e82611fd3565b9050602081019050919050565b828183375f83830152505050565b5f6120ab6120a68461205b565b612041565b9050828152602081018484840111156120c7576120c6611fcf565b5b6120d284828561208b565b509392505050565b5f82601f8301126120ee576120ed611fcb565b5b81356120fe848260208601612099565b91505092915050565b5f819050919050565b61211981612107565b8114612123575f80fd5b50565b5f8135905061213481612110565b92915050565b5f805f805f8060c0878903121561215457612153611fc3565b5b5f87013567ffffffffffffffff81111561217157612170611fc7565b5b61217d89828a016120da565b965050602061218e89828a01612126565b955050604061219f89828a01612126565b94505060606121b089828a01612126565b93505060806121c189828a01612126565b92505060a06121d289828a01612126565b9150509295509295509295565b5f73ffffffffffffffffffffffffffffffffffffffff82169050919050565b5f612208826121df565b9050919050565b612218816121fe565b8114612222575f80fd5b50565b5f813590506122338161220f565b92915050565b5f6020828403121561224e5761224d611fc3565b5b5f61225b84828501612225565b91505092915050565b5f806040838503121561227a57612279611fc3565b5b5f61228785828601612225565b925050602061229885828601612126565b9150509250929050565b6122ab81612107565b82525050565b6122ba816121fe565b82525050565b5f81519050919050565b5f82825260208201905092915050565b5f5b838110156122f75780820151818401526020810190506122dc565b5f8484015250505050565b5f61230c826122c0565b61231681856122ca565b93506123268185602086016122da565b61232f81611fd3565b840191505092915050565b5f6101208201905061234e5f83018c6122a2565b61235b602083018b6122b1565b818103604083015261236d818a612302565b905061237c60608301896122a2565b61238960808301886122a2565b61239660a08301876122a2565b6123a360c08301866122a2565b6123b060e08301856122a2565b6123be6101008301846122a2565b9a9950505050505050505050565b5f602082840312156123e1576123e0611fc3565b5b5f6123ee84828501612126565b91505092915050565b5f6101208201905061240b5f83018c6122a2565b612418602083018b6122b1565b612425604083018a6122a2565b61243260608301896122a2565b61243f60808301886122a2565b61244c60a08301876122a2565b61245960c08301866122a2565b61246660e08301856122a2565b6124746101008301846122a2565b9a9950505050505050505050565b5f81519050919050565b5f82825260208201905092915050565b5f819050602082019050919050565b6124b481612107565b82525050565b6124c3816121fe565b82525050565b60c082015f8201516124dd5f8501826124ab565b5060208201516124f060208501826124ba565b50604082015161250360408501826124ab565b50606082015161251660608501826124ab565b50608082015161252960808501826124ab565b5060a082015161253c60a08501826124ab565b50505050565b5f61254d83836124c9565b60c08301905092915050565b5f602082019050919050565b5f61256f82612482565b612579818561248c565b93506125848361249c565b805f5b838110156125b457815161259b8882612542565b97506125a683612559565b925050600181019050612587565b5085935050505092915050565b5f6020820190508181035f8301526125d98184612565565b905092915050565b5f805f80608085870312156125f9576125f8611fc3565b5b5f61260687828801612126565b945050602061261787828801612126565b935050604061262887828801612126565b925050606061263987828801612126565b91505092959194509250565b5f60c0820190506126585f8301896122a2565b61266560208301886122b1565b61267260408301876122a2565b61267f60608301866122a2565b61268c60808301856122a2565b61269960a08301846122a2565b979650505050505050565b5f805f606084860312156126bb576126ba611fc3565b5b5f6126c886828701612126565b93505060206126d986828701612126565b92505060406126ea86828701612126565b9150509250925092565b5f81519050919050565b5f82825260208201905092915050565b5f819050602082019050919050565b5f82825260208201905092915050565b5f612737826122c0565b612741818561271d565b93506127518185602086016122da565b61275a81611fd3565b840191505092915050565b5f61012083015f83015161277b5f8601826124ab565b50602083015161278e60208601826124ba565b50604083015184820360408601526127a6828261272d565b91505060608301516127bb60608601826124ab565b5060808301516127ce60808601826124ab565b5060a08301516127e160a08601826124ab565b5060c08301516127f460c08601826124ab565b5060e083015161280760e08601826124ab565b5061010083015161281c6101008601826124ab565b508091505092915050565b5f6128328383612765565b905092915050565b5f602082019050919050565b5f612850826126f4565b61285a81856126fe565b93508360208202850161286c8561270e565b805f5b858110156128a757848403895281516128888582612827565b94506128938361283a565b925060208a0199505060018101905061286f565b50829750879550505050505092915050565b5f6020820190508181035f8301526128d18184612846565b905092915050565b5f81519050919050565b5f82825260208201905092915050565b5f819050602082019050919050565b61012082015f8201516129175f8501826124ab565b50602082015161292a60208501826124ba565b50604082015161293d60408501826124ab565b50606082015161295060608501826124ab565b50608082015161296360808501826124ab565b5060a082015161297660a08501826124ab565b5060c082015161298960c08501826124ab565b5060e082015161299c60e08501826124ab565b506101008201516129b16101008501826124ab565b50505050565b5f6129c28383612902565b6101208301905092915050565b5f602082019050919050565b5f6129e5826128d9565b6129ef81856128e3565b93506129fa836128f3565b805f5b83811015612a2a578151612a1188826129b7565b9750612a1c836129cf565b9250506001810190506129fd565b5085935050505092915050565b5f6020820190508181035f830152612a4f81846129db565b905092915050565b7f4e487b71000000000000000000000000000000000000000000000000000000005f52602260045260245ffd5b5f6002820490506001821680612a9b57607f821691505b602082108103612aae57612aad612a57565b5b50919050565b5f819050815f5260205f209050919050565b5f6020601f8301049050919050565b5f82821b905092915050565b5f60088302612b107fffffffffffffffffffffffffffffffffffffffffffffffffffffffffffffffff82612ad5565b612b1a8683612ad5565b95508019841693508086168417925050509392505050565b5f819050919050565b5f612b55612b50612b4b84612107565b612b32565b612107565b9050919050565b5f819050919050565b612b6e83612b3b565b612b82612b7a82612b5c565b848454612ae1565b825550505050565b5f90565b612b96612b8a565b612ba1818484612b65565b505050565b5b81811015612bc457612bb95f82612b8e565b600181019050612ba7565b5050565b601f821115612c0957612bda81612ab4565b612be384612ac6565b81016020851015612bf2578190505b612c06612bfe85612ac6565b830182612ba6565b50505b505050565b5f82821c905092915050565b5f612c295f1984600802612c0e565b1980831691505092915050565b5f612c418383612c1a565b9150826002028217905092915050565b612c5a826122c0565b67ffffffffffffffff811115612c7357612c72611fe3565b5b612c7d8254612a84565b612c88828285612bc8565b5f60209050601f831160018114612cb9575f8415612ca7578287015190505b612cb18582612c36565b865550612d18565b601f198416612cc786612ab4565b5f5b82811015612cee57848901518255600182019150602085019450602081019050612cc9565b86831015612d0b5784890151612d07601f891682612c1a565b8355505b6001600288020188555050505b505050505050565b7f4e487b71000000000000000000000000000000000000000000000000000000005f52603260045260245ffd5b5f81549050612d5b81612a84565b9050919050565b818103612d70575050612e45565b612d7982612d4d565b67ffffffffffffffff811115612d9257612d91611fe3565b5b612d9c8254612a84565b612da7828285612bc8565b5f601f831160018114612dd4575f8415612dc2578287015490505b612dcc8582612c36565b865550612e3e565b601f198416612de287612ab4565b9650612ded86612ab4565b5f5b82811015612e1457848901548255600182019150600185019450602081019050612def565b86831015612e315784890154612e2d601f891682612c1a565b8355505b6001600288020188555050505b5050505050505b565b5f604082019050612e5a5f8301856122a2565b612e6760208301846122b1565b9392505050565b7f4e487b71000000000000000000000000000000000000000000000000000000005f52601160045260245ffd5b5f612ea582612107565b9150612eb083612107565b9250828202612ebe81612107565b91508282048414831517612ed557612ed4612e6e565b5b5092915050565b5f612ee682612107565b9150612ef183612107565b9250828201905080821115612f0957612f08612e6e565b5b92915050565b7f616e6f7468657220726571756573742068617320616c7265616479206265656e5f8201527f2061636365707465642100000000000000000000000000000000000000000000602082015250565b5f612f69602a836122ca565b9150612f7482612f0f565b604082019050919050565b5f6020820190508181035f830152612f9681612f5d565b9050919050565b5f606082019050612fb05f8301866122b1565b612fbd60208301856122b1565b612fca60408301846122a2565b949350505050565b7f796f75722072657175657374206861736e2774206265656e20616363657074655f8201527f6400000000000000000000000000000000000000000000000000000000000000602082015250565b5f61302c6021836122ca565b915061303782612fd2565b604082019050919050565b5f6020820190508181035f83015261305981613020565b9050919050565b7f496e636f7272656374207061796d656e742000000000000000000000000000005f82015250565b5f6130946012836122ca565b915061309f82613060565b602082019050919050565b5f6020820190508181035f8301526130c181613088565b9050919050565b5f6130d282612107565b91506130dd83612107565b92508282039050818111156130f5576130f4612e6e565b5b92915050565b7f4e487b71000000000000000000000000000000000000000000000000000000005f52601260045260245ffd5b5f61313282612107565b915061313d83612107565b92508261314d5761314c6130fb565b5b828204905092915050565b5f60c08201905061316b5f8301896122a2565b61317860208301886122b1565b61318560408301876122b1565b61319260608301866122a2565b61319f60808301856122a2565b6131ac60a08301846122a2565b979650505050505050565b7f486f757365206973206e6f7420617661696c61626c65000000000000000000005f82015250565b5f6131eb6016836122ca565b91506131f6826131b7565b602082019050919050565b5f6020820190508181035f830152613218816131df565b9050919050565b5f6040820190506132325f8301856122b1565b61323f60208301846122a2565b9392505050565b7f596f7520646f6e2774206861766520616e20616d6f756e7420647565207965745f8201527f2100000000000000000000000000000000000000000000000000000000000000602082015250565b5f6132a06021836122ca565b91506132ab82613246565b604082019050919050565b5f6020820190508181035f8301526132cd81613294565b9050919050565b5f6060820190506132e75f8301866122a2565b6132f460208301856122b1565b61330160408301846122a2565b94935050505056fea26469706673582212206cea84a35c4ecac0051293f6e4da4833db85c2d70a83baa10f9c9eb14de68f4864736f6c63430008160033",
					"opcodes": "PUSH1 0x80 PUSH1 0x40 MSTORE CALLVALUE DUP1 ISZERO PUSH2 0xF JUMPI PUSH0 DUP1 REVERT JUMPDEST POP PUSH2 0x333F DUP1 PUSH2 0x1D PUSH0 CODECOPY PUSH0 RETURN INVALID PUSH1 0x80 PUSH1 0x40 MSTORE PUSH1 0x4 CALLDATASIZE LT PUSH2 0xDC JUMPI PUSH0 CALLDATALOAD PUSH1 0xE0 SHR DUP1 PUSH4 0x9ECEBE2A GT PUSH2 0x7E JUMPI DUP1 PUSH4 0xB5C3005C GT PUSH2 0x58 JUMPI DUP1 PUSH4 0xB5C3005C EQ PUSH2 0x2EF JUMPI DUP1 PUSH4 0xD87DEEA8 EQ PUSH2 0x317 JUMPI DUP1 PUSH4 0xD9E8843F EQ PUSH2 0x341 JUMPI DUP1 PUSH4 0xDC388605 EQ PUSH2 0x35D JUMPI PUSH2 0xDC JUMP JUMPDEST DUP1 PUSH4 0x9ECEBE2A EQ PUSH2 0x226 JUMPI DUP1 PUSH4 0xAEDA852F EQ PUSH2 0x267 JUMPI DUP1 PUSH4 0xAF94A1D1 EQ PUSH2 0x2AB JUMPI PUSH2 0xDC JUMP JUMPDEST DUP1 PUSH4 0x4BA1F098 GT PUSH2 0xBA JUMPI DUP1 PUSH4 0x4BA1F098 EQ PUSH2 0x174 JUMPI DUP1 PUSH4 0x7607D62F EQ PUSH2 0x19C JUMPI DUP1 PUSH4 0x8813CE12 EQ PUSH2 0x1E0 JUMPI DUP1 PUSH4 0x8F7D8E73 EQ PUSH2 0x20A JUMPI PUSH2 0xDC JUMP JUMPDEST DUP1 PUSH4 0x296DA249 EQ PUSH2 0xE0 JUMPI DUP1 PUSH4 0x337A8E3C EQ PUSH2 0x108 JUMPI DUP1 PUSH4 0x39E110E1 EQ PUSH2 0x130 JUMPI JUMPDEST PUSH0 DUP1 REVERT JUMPDEST CALLVALUE DUP1 ISZERO PUSH2 0xEB JUMPI PUSH0 DUP1 REVERT JUMPDEST POP PUSH2 0x106 PUSH1 0x4 DUP1 CALLDATASIZE SUB DUP2 ADD SWAP1 PUSH2 0x101 SWAP2 SWAP1 PUSH2 0x213A JUMP JUMPDEST PUSH2 0x387 JUMP JUMPDEST STOP JUMPDEST CALLVALUE DUP1 ISZERO PUSH2 0x113 JUMPI PUSH0 DUP1 REVERT JUMPDEST POP PUSH2 0x12E PUSH1 0x4 DUP1 CALLDATASIZE SUB DUP2 ADD SWAP1 PUSH2 0x129 SWAP2 SWAP1 PUSH2 0x2239 JUMP JUMPDEST PUSH2 0x634 JUMP JUMPDEST STOP JUMPDEST CALLVALUE DUP1 ISZERO PUSH2 0x13B JUMPI PUSH0 DUP1 REVERT JUMPDEST POP PUSH2 0x156 PUSH1 0x4 DUP1 CALLDATASIZE SUB DUP2 ADD SWAP1 PUSH2 0x151 SWAP2 SWAP1 PUSH2 0x2264 JUMP JUMPDEST PUSH2 0xB64 JUMP JUMPDEST PUSH1 0x40 MLOAD PUSH2 0x16B SWAP10 SWAP9 SWAP8 SWAP7 SWAP6 SWAP5 SWAP4 SWAP3 SWAP2 SWAP1 PUSH2 0x233A JUMP JUMPDEST PUSH1 0x40 MLOAD DUP1 SWAP2 SUB SWAP1 RETURN JUMPDEST CALLVALUE DUP1 ISZERO PUSH2 0x17F JUMPI PUSH0 DUP1 REVERT JUMPDEST POP PUSH2 0x19A PUSH1 0x4 DUP1 CALLDATASIZE SUB DUP2 ADD SWAP1 PUSH2 0x195 SWAP2 SWAP1 PUSH2 0x23CC JUMP JUMPDEST PUSH2 0xC6D JUMP JUMPDEST STOP JUMPDEST CALLVALUE DUP1 ISZERO PUSH2 0x1A7 JUMPI PUSH0 DUP1 REVERT JUMPDEST POP PUSH2 0x1C2 PUSH1 0x4 DUP1 CALLDATASIZE SUB DUP2 ADD SWAP1 PUSH2 0x1BD SWAP2 SWAP1 PUSH2 0x2264 JUMP JUMPDEST PUSH2 0xE81 JUMP JUMPDEST PUSH1 0x40 MLOAD PUSH2 0x1D7 SWAP10 SWAP9 SWAP8 SWAP7 SWAP6 SWAP5 SWAP4 SWAP3 SWAP2 SWAP1 PUSH2 0x23F7 JUMP JUMPDEST PUSH1 0x40 MLOAD DUP1 SWAP2 SUB SWAP1 RETURN JUMPDEST CALLVALUE DUP1 ISZERO PUSH2 0x1EB JUMPI PUSH0 DUP1 REVERT JUMPDEST POP PUSH2 0x1F4 PUSH2 0xF04 JUMP JUMPDEST PUSH1 0x40 MLOAD PUSH2 0x201 SWAP2 SWAP1 PUSH2 0x25C1 JUMP JUMPDEST PUSH1 0x40 MLOAD DUP1 SWAP2 SUB SWAP1 RETURN JUMPDEST PUSH2 0x224 PUSH1 0x4 DUP1 CALLDATASIZE SUB DUP2 ADD SWAP1 PUSH2 0x21F SWAP2 SWAP1 PUSH2 0x25E1 JUMP JUMPDEST PUSH2 0x1021 JUMP JUMPDEST STOP JUMPDEST CALLVALUE DUP1 ISZERO PUSH2 0x231 JUMPI PUSH0 DUP1 REVERT JUMPDEST POP PUSH2 0x24C PUSH1 0x4 DUP1 CALLDATASIZE SUB DUP2 ADD SWAP1 PUSH2 0x247 SWAP2 SWAP1 PUSH2 0x2264 JUMP JUMPDEST PUSH2 0x15C7 JUMP JUMPDEST PUSH1 0x40 MLOAD PUSH2 0x25E SWAP7 SWAP6 SWAP5 SWAP4 SWAP3 SWAP2 SWAP1 PUSH2 0x2645 JUMP JUMPDEST PUSH1 0x40 MLOAD DUP1 SWAP2 SUB SWAP1 RETURN JUMPDEST CALLVALUE DUP1 ISZERO PUSH2 0x272 JUMPI PUSH0 DUP1 REVERT JUMPDEST POP PUSH2 0x28D PUSH1 0x4 DUP1 CALLDATASIZE SUB DUP2 ADD SWAP1 PUSH2 0x288 SWAP2 SWAP1 PUSH2 0x23CC JUMP JUMPDEST PUSH2 0x1638 JUMP JUMPDEST PUSH1 0x40 MLOAD PUSH2 0x2A2 SWAP10 SWAP9 SWAP8 SWAP7 SWAP6 SWAP5 SWAP4 SWAP3 SWAP2 SWAP1 PUSH2 0x233A JUMP JUMPDEST PUSH1 0x40 MLOAD DUP1 SWAP2 SUB SWAP1 RETURN JUMPDEST CALLVALUE DUP1 ISZERO PUSH2 0x2B6 JUMPI PUSH0 DUP1 REVERT JUMPDEST POP PUSH2 0x2D1 PUSH1 0x4 DUP1 CALLDATASIZE SUB DUP2 ADD SWAP1 PUSH2 0x2CC SWAP2 SWAP1 PUSH2 0x23CC JUMP JUMPDEST PUSH2 0x1735 JUMP JUMPDEST PUSH1 0x40 MLOAD PUSH2 0x2E6 SWAP10 SWAP9 SWAP8 SWAP7 SWAP6 SWAP5 SWAP4 SWAP3 SWAP2 SWAP1 PUSH2 0x23F7 JUMP JUMPDEST PUSH1 0x40 MLOAD DUP1 SWAP2 SUB SWAP1 RETURN JUMPDEST CALLVALUE DUP1 ISZERO PUSH2 0x2FA JUMPI PUSH0 DUP1 REVERT JUMPDEST POP PUSH2 0x315 PUSH1 0x4 DUP1 CALLDATASIZE SUB DUP2 ADD SWAP1 PUSH2 0x310 SWAP2 SWAP1 PUSH2 0x26A4 JUMP JUMPDEST PUSH2 0x17AD JUMP JUMPDEST STOP JUMPDEST CALLVALUE DUP1 ISZERO PUSH2 0x322 JUMPI PUSH0 DUP1 REVERT JUMPDEST POP PUSH2 0x32B PUSH2 0x1A63 JUMP JUMPDEST PUSH1 0x40 MLOAD PUSH2 0x338 SWAP2 SWAP1 PUSH2 0x28B9 JUMP JUMPDEST PUSH1 0x40 MLOAD DUP1 SWAP2 SUB SWAP1 RETURN JUMPDEST PUSH2 0x35B PUSH1 0x4 DUP1 CALLDATASIZE SUB DUP2 ADD SWAP1 PUSH2 0x356 SWAP2 SWAP1 PUSH2 0x23CC JUMP JUMPDEST PUSH2 0x1BE9 JUMP JUMPDEST STOP JUMPDEST CALLVALUE DUP1 ISZERO PUSH2 0x368 JUMPI PUSH0 DUP1 REVERT JUMPDEST POP PUSH2 0x371 PUSH2 0x1E75 JUMP JUMPDEST PUSH1 0x40 MLOAD PUSH2 0x37E SWAP2 SWAP1 PUSH2 0x2A37 JUMP JUMPDEST PUSH1 0x40 MLOAD DUP1 SWAP2 SUB SWAP1 RETURN JUMPDEST PUSH0 DUP1 DUP1 SLOAD SWAP1 POP SWAP1 POP PUSH0 PUSH1 0x40 MLOAD DUP1 PUSH2 0x120 ADD PUSH1 0x40 MSTORE DUP1 DUP4 DUP2 MSTORE PUSH1 0x20 ADD CALLER PUSH20 0xFFFFFFFFFFFFFFFFFFFFFFFFFFFFFFFFFFFFFFFF AND DUP2 MSTORE PUSH1 0x20 ADD DUP10 DUP2 MSTORE PUSH1 0x20 ADD DUP9 DUP2 MSTORE PUSH1 0x20 ADD DUP8 DUP2 MSTORE PUSH1 0x20 ADD DUP7 DUP2 MSTORE PUSH1 0x20 ADD DUP6 DUP2 MSTORE PUSH1 0x20 ADD DUP5 DUP2 MSTORE PUSH1 0x20 ADD PUSH1 0x1 DUP2 MSTORE POP SWAP1 DUP1 PUSH1 0x1 DUP2 SLOAD ADD DUP1 DUP3 SSTORE DUP1 SWAP2 POP POP PUSH1 0x1 SWAP1 SUB SWAP1 PUSH0 MSTORE PUSH1 0x20 PUSH0 KECCAK256 SWAP1 PUSH1 0x9 MUL ADD PUSH0 SWAP1 SWAP2 SWAP1 SWAP2 SWAP1 SWAP2 POP PUSH0 DUP3 ADD MLOAD DUP2 PUSH0 ADD SSTORE PUSH1 0x20 DUP3 ADD MLOAD DUP2 PUSH1 0x1 ADD PUSH0 PUSH2 0x100 EXP DUP2 SLOAD DUP2 PUSH20 0xFFFFFFFFFFFFFFFFFFFFFFFFFFFFFFFFFFFFFFFF MUL NOT AND SWAP1 DUP4 PUSH20 0xFFFFFFFFFFFFFFFFFFFFFFFFFFFFFFFFFFFFFFFF AND MUL OR SWAP1 SSTORE POP PUSH1 0x40 DUP3 ADD MLOAD DUP2 PUSH1 0x2 ADD SWAP1 DUP2 PUSH2 0x470 SWAP2 SWAP1 PUSH2 0x2C51 JUMP JUMPDEST POP PUSH1 0x60 DUP3 ADD MLOAD DUP2 PUSH1 0x3 ADD SSTORE PUSH1 0x80 DUP3 ADD MLOAD DUP2 PUSH1 0x4 ADD SSTORE PUSH1 0xA0 DUP3 ADD MLOAD DUP2 PUSH1 0x5 ADD SSTORE PUSH1 0xC0 DUP3 ADD MLOAD DUP2 PUSH1 0x6 ADD SSTORE PUSH1 0xE0 DUP3 ADD MLOAD DUP2 PUSH1 0x7 ADD SSTORE PUSH2 0x100 DUP3 ADD MLOAD DUP2 PUSH1 0x8 ADD SSTORE POP POP PUSH1 0x3 PUSH0 CALLER PUSH20 0xFFFFFFFFFFFFFFFFFFFFFFFFFFFFFFFFFFFFFFFF AND PUSH20 0xFFFFFFFFFFFFFFFFFFFFFFFFFFFFFFFFFFFFFFFF AND DUP2 MSTORE PUSH1 0x20 ADD SWAP1 DUP2 MSTORE PUSH1 0x20 ADD PUSH0 KECCAK256 PUSH0 DUP3 DUP2 SLOAD DUP2 LT PUSH2 0x500 JUMPI PUSH2 0x4FF PUSH2 0x2D20 JUMP JUMPDEST JUMPDEST SWAP1 PUSH0 MSTORE PUSH1 0x20 PUSH0 KECCAK256 SWAP1 PUSH1 0x9 MUL ADD SWAP1 DUP1 PUSH1 0x1 DUP2 SLOAD ADD DUP1 DUP3 SSTORE DUP1 SWAP2 POP POP PUSH1 0x1 SWAP1 SUB SWAP1 PUSH0 MSTORE PUSH1 0x20 PUSH0 KECCAK256 SWAP1 PUSH1 0x9 MUL ADD PUSH0 SWAP1 SWAP2 SWAP1 SWAP2 SWAP1 SWAP2 POP PUSH0 DUP3 ADD SLOAD DUP2 PUSH0 ADD SSTORE PUSH1 0x1 DUP3 ADD PUSH0 SWAP1 SLOAD SWAP1 PUSH2 0x100 EXP SWAP1 DIV PUSH20 0xFFFFFFFFFFFFFFFFFFFFFFFFFFFFFFFFFFFFFFFF AND DUP2 PUSH1 0x1 ADD PUSH0 PUSH2 0x100 EXP DUP2 SLOAD DUP2 PUSH20 0xFFFFFFFFFFFFFFFFFFFFFFFFFFFFFFFFFFFFFFFF MUL NOT AND SWAP1 DUP4 PUSH20 0xFFFFFFFFFFFFFFFFFFFFFFFFFFFFFFFFFFFFFFFF AND MUL OR SWAP1 SSTORE POP PUSH1 0x2 DUP3 ADD DUP2 PUSH1 0x2 ADD SWAP1 DUP2 PUSH2 0x5B3 SWAP2 SWAP1 PUSH2 0x2D62 JUMP JUMPDEST POP PUSH1 0x3 DUP3 ADD SLOAD DUP2 PUSH1 0x3 ADD SSTORE PUSH1 0x4 DUP3 ADD SLOAD DUP2 PUSH1 0x4 ADD SSTORE PUSH1 0x5 DUP3 ADD SLOAD DUP2 PUSH1 0x5 ADD SSTORE PUSH1 0x6 DUP3 ADD SLOAD DUP2 PUSH1 0x6 ADD SSTORE PUSH1 0x7 DUP3 ADD SLOAD DUP2 PUSH1 0x7 ADD SSTORE PUSH1 0x8 DUP3 ADD SLOAD DUP2 PUSH1 0x8 ADD SSTORE POP POP PUSH32 0x940AAEB497467FB446EC8C9138170D69447F46ABDA147045EF232EBF4515229F DUP2 CALLER PUSH1 0x40 MLOAD PUSH2 0x623 SWAP3 SWAP2 SWAP1 PUSH2 0x2E47 JUMP JUMPDEST PUSH1 0x40 MLOAD DUP1 SWAP2 SUB SWAP1 LOG1 POP POP POP POP POP POP POP JUMP JUMPDEST PUSH0 TIMESTAMP SWAP1 POP PUSH0 JUMPDEST PUSH1 0x4 PUSH0 DUP5 PUSH20 0xFFFFFFFFFFFFFFFFFFFFFFFFFFFFFFFFFFFFFFFF AND PUSH20 0xFFFFFFFFFFFFFFFFFFFFFFFFFFFFFFFFFFFFFFFF AND DUP2 MSTORE PUSH1 0x20 ADD SWAP1 DUP2 MSTORE PUSH1 0x20 ADD PUSH0 KECCAK256 DUP1 SLOAD SWAP1 POP DUP2 LT ISZERO PUSH2 0xB5F JUMPI PUSH1 0x1 PUSH1 0x4 PUSH0 DUP6 PUSH20 0xFFFFFFFFFFFFFFFFFFFFFFFFFFFFFFFFFFFFFFFF AND PUSH20 0xFFFFFFFFFFFFFFFFFFFFFFFFFFFFFFFFFFFFFFFF AND DUP2 MSTORE PUSH1 0x20 ADD SWAP1 DUP2 MSTORE PUSH1 0x20 ADD PUSH0 KECCAK256 DUP3 DUP2 SLOAD DUP2 LT PUSH2 0x6D3 JUMPI PUSH2 0x6D2 PUSH2 0x2D20 JUMP JUMPDEST JUMPDEST SWAP1 PUSH0 MSTORE PUSH1 0x20 PUSH0 KECCAK256 SWAP1 PUSH1 0x9 MUL ADD PUSH1 0x8 ADD SLOAD SUB PUSH2 0xB52 JUMPI PUSH0 PUSH1 0x4 PUSH0 DUP6 PUSH20 0xFFFFFFFFFFFFFFFFFFFFFFFFFFFFFFFFFFFFFFFF AND PUSH20 0xFFFFFFFFFFFFFFFFFFFFFFFFFFFFFFFFFFFFFFFF AND DUP2 MSTORE PUSH1 0x20 ADD SWAP1 DUP2 MSTORE PUSH1 0x20 ADD PUSH0 KECCAK256 DUP3 DUP2 SLOAD DUP2 LT PUSH2 0x738 JUMPI PUSH2 0x737 PUSH2 0x2D20 JUMP JUMPDEST JUMPDEST SWAP1 PUSH0 MSTORE PUSH1 0x20 PUSH0 KECCAK256 SWAP1 PUSH1 0x9 MUL ADD PUSH1 0x5 ADD SLOAD SWAP1 POP JUMPDEST DUP1 DUP4 GT ISZERO PUSH2 0xB50 JUMPI PUSH0 PUSH1 0x4 PUSH0 DUP7 PUSH20 0xFFFFFFFFFFFFFFFFFFFFFFFFFFFFFFFFFFFFFFFF AND PUSH20 0xFFFFFFFFFFFFFFFFFFFFFFFFFFFFFFFFFFFFFFFF AND DUP2 MSTORE PUSH1 0x20 ADD SWAP1 DUP2 MSTORE PUSH1 0x20 ADD PUSH0 KECCAK256 DUP4 DUP2 SLOAD DUP2 LT PUSH2 0x7A3 JUMPI PUSH2 0x7A2 PUSH2 0x2D20 JUMP JUMPDEST JUMPDEST SWAP1 PUSH0 MSTORE PUSH1 0x20 PUSH0 KECCAK256 SWAP1 PUSH1 0x9 MUL ADD PUSH1 0x40 MLOAD DUP1 PUSH2 0x120 ADD PUSH1 0x40 MSTORE SWAP1 DUP2 PUSH0 DUP3 ADD SLOAD DUP2 MSTORE PUSH1 0x20 ADD PUSH1 0x1 DUP3 ADD PUSH0 SWAP1 SLOAD SWAP1 PUSH2 0x100 EXP SWAP1 DIV PUSH20 0xFFFFFFFFFFFFFFFFFFFFFFFFFFFFFFFFFFFFFFFF AND PUSH20 0xFFFFFFFFFFFFFFFFFFFFFFFFFFFFFFFFFFFFFFFF AND PUSH20 0xFFFFFFFFFFFFFFFFFFFFFFFFFFFFFFFFFFFFFFFF AND DUP2 MSTORE PUSH1 0x20 ADD PUSH1 0x2 DUP3 ADD SLOAD DUP2 MSTORE PUSH1 0x20 ADD PUSH1 0x3 DUP3 ADD SLOAD DUP2 MSTORE PUSH1 0x20 ADD PUSH1 0x4 DUP3 ADD SLOAD DUP2 MSTORE PUSH1 0x20 ADD PUSH1 0x5 DUP3 ADD SLOAD DUP2 MSTORE PUSH1 0x20 ADD PUSH1 0x6 DUP3 ADD SLOAD DUP2 MSTORE PUSH1 0x20 ADD PUSH1 0x7 DUP3 ADD SLOAD DUP2 MSTORE PUSH1 0x20 ADD PUSH1 0x8 DUP3 ADD SLOAD DUP2 MSTORE POP POP SWAP1 POP PUSH0 DUP2 PUSH1 0x40 ADD MLOAD SWAP1 POP PUSH0 DUP1 DUP3 DUP2 SLOAD DUP2 LT PUSH2 0x87D JUMPI PUSH2 0x87C PUSH2 0x2D20 JUMP JUMPDEST JUMPDEST SWAP1 PUSH0 MSTORE PUSH1 0x20 PUSH0 KECCAK256 SWAP1 PUSH1 0x9 MUL ADD PUSH1 0x5 ADD SLOAD SWAP1 POP PUSH0 DUP1 DUP4 DUP2 SLOAD DUP2 LT PUSH2 0x8A3 JUMPI PUSH2 0x8A2 PUSH2 0x2D20 JUMP JUMPDEST JUMPDEST SWAP1 PUSH0 MSTORE PUSH1 0x20 PUSH0 KECCAK256 SWAP1 PUSH1 0x9 MUL ADD PUSH1 0x3 ADD SLOAD SWAP1 POP PUSH3 0x15180 DUP3 PUSH2 0x8C4 SWAP2 SWAP1 PUSH2 0x2E9B JUMP JUMPDEST PUSH1 0x4 PUSH0 DUP11 PUSH20 0xFFFFFFFFFFFFFFFFFFFFFFFFFFFFFFFFFFFFFFFF AND PUSH20 0xFFFFFFFFFFFFFFFFFFFFFFFFFFFFFFFFFFFFFFFF AND DUP2 MSTORE PUSH1 0x20 ADD SWAP1 DUP2 MSTORE PUSH1 0x20 ADD PUSH0 KECCAK256 DUP8 DUP2 SLOAD DUP2 LT PUSH2 0x913 JUMPI PUSH2 0x912 PUSH2 0x2D20 JUMP JUMPDEST JUMPDEST SWAP1 PUSH0 MSTORE PUSH1 0x20 PUSH0 KECCAK256 SWAP1 PUSH1 0x9 MUL ADD PUSH1 0x5 ADD PUSH0 DUP3 DUP3 SLOAD PUSH2 0x930 SWAP2 SWAP1 PUSH2 0x2EDC JUMP JUMPDEST SWAP3 POP POP DUP2 SWAP1 SSTORE POP DUP1 DUP3 PUSH2 0x943 SWAP2 SWAP1 PUSH2 0x2E9B JUMP JUMPDEST PUSH1 0x4 PUSH0 DUP11 PUSH20 0xFFFFFFFFFFFFFFFFFFFFFFFFFFFFFFFFFFFFFFFF AND PUSH20 0xFFFFFFFFFFFFFFFFFFFFFFFFFFFFFFFFFFFFFFFF AND DUP2 MSTORE PUSH1 0x20 ADD SWAP1 DUP2 MSTORE PUSH1 0x20 ADD PUSH0 KECCAK256 DUP8 DUP2 SLOAD DUP2 LT PUSH2 0x992 JUMPI PUSH2 0x991 PUSH2 0x2D20 JUMP JUMPDEST JUMPDEST SWAP1 PUSH0 MSTORE PUSH1 0x20 PUSH0 KECCAK256 SWAP1 PUSH1 0x9 MUL ADD PUSH1 0x6 ADD PUSH0 DUP3 DUP3 SLOAD PUSH2 0x9AF SWAP2 SWAP1 PUSH2 0x2EDC JUMP JUMPDEST SWAP3 POP POP DUP2 SWAP1 SSTORE POP PUSH1 0x4 PUSH0 DUP10 PUSH20 0xFFFFFFFFFFFFFFFFFFFFFFFFFFFFFFFFFFFFFFFF AND PUSH20 0xFFFFFFFFFFFFFFFFFFFFFFFFFFFFFFFFFFFFFFFF AND DUP2 MSTORE PUSH1 0x20 ADD SWAP1 DUP2 MSTORE PUSH1 0x20 ADD PUSH0 KECCAK256 DUP7 DUP2 SLOAD DUP2 LT PUSH2 0xA05 JUMPI PUSH2 0xA04 PUSH2 0x2D20 JUMP JUMPDEST JUMPDEST SWAP1 PUSH0 MSTORE PUSH1 0x20 PUSH0 KECCAK256 SWAP1 PUSH1 0x9 MUL ADD PUSH1 0x4 ADD SLOAD PUSH1 0x4 PUSH0 DUP11 PUSH20 0xFFFFFFFFFFFFFFFFFFFFFFFFFFFFFFFFFFFFFFFF AND PUSH20 0xFFFFFFFFFFFFFFFFFFFFFFFFFFFFFFFFFFFFFFFF AND DUP2 MSTORE PUSH1 0x20 ADD SWAP1 DUP2 MSTORE PUSH1 0x20 ADD PUSH0 KECCAK256 DUP8 DUP2 SLOAD DUP2 LT PUSH2 0xA64 JUMPI PUSH2 0xA63 PUSH2 0x2D20 JUMP JUMPDEST JUMPDEST SWAP1 PUSH0 MSTORE PUSH1 0x20 PUSH0 KECCAK256 SWAP1 PUSH1 0x9 MUL ADD PUSH1 0x5 ADD SLOAD GT ISZERO PUSH2 0xAE6 JUMPI PUSH0 PUSH1 0x4 PUSH0 DUP11 PUSH20 0xFFFFFFFFFFFFFFFFFFFFFFFFFFFFFFFFFFFFFFFF AND PUSH20 0xFFFFFFFFFFFFFFFFFFFFFFFFFFFFFFFFFFFFFFFF AND DUP2 MSTORE PUSH1 0x20 ADD SWAP1 DUP2 MSTORE PUSH1 0x20 ADD PUSH0 KECCAK256 DUP8 DUP2 SLOAD DUP2 LT PUSH2 0xACA JUMPI PUSH2 0xAC9 PUSH2 0x2D20 JUMP JUMPDEST JUMPDEST SWAP1 PUSH0 MSTORE PUSH1 0x20 PUSH0 KECCAK256 SWAP1 PUSH1 0x9 MUL ADD PUSH1 0x8 ADD DUP2 SWAP1 SSTORE POP POP POP POP POP PUSH2 0xB50 JUMP JUMPDEST PUSH1 0x4 PUSH0 DUP10 PUSH20 0xFFFFFFFFFFFFFFFFFFFFFFFFFFFFFFFFFFFFFFFF AND PUSH20 0xFFFFFFFFFFFFFFFFFFFFFFFFFFFFFFFFFFFFFFFF AND DUP2 MSTORE PUSH1 0x20 ADD SWAP1 DUP2 MSTORE PUSH1 0x20 ADD PUSH0 KECCAK256 DUP7 DUP2 SLOAD DUP2 LT PUSH2 0xB35 JUMPI PUSH2 0xB34 PUSH2 0x2D20 JUMP JUMPDEST JUMPDEST SWAP1 PUSH0 MSTORE PUSH1 0x20 PUSH0 KECCAK256 SWAP1 PUSH1 0x9 MUL ADD PUSH1 0x5 ADD SLOAD SWAP5 POP POP POP POP POP PUSH2 0x74B JUMP JUMPDEST POP JUMPDEST DUP1 DUP1 PUSH1 0x1 ADD SWAP2 POP POP PUSH2 0x63A JUMP JUMPDEST POP POP POP JUMP JUMPDEST PUSH1 0x3 PUSH1 0x20 MSTORE DUP2 PUSH0 MSTORE PUSH1 0x40 PUSH0 KECCAK256 DUP2 DUP2 SLOAD DUP2 LT PUSH2 0xB7D JUMPI PUSH0 DUP1 REVERT JUMPDEST SWAP1 PUSH0 MSTORE PUSH1 0x20 PUSH0 KECCAK256 SWAP1 PUSH1 0x9 MUL ADD PUSH0 SWAP2 POP SWAP2 POP POP DUP1 PUSH0 ADD SLOAD SWAP1 DUP1 PUSH1 0x1 ADD PUSH0 SWAP1 SLOAD SWAP1 PUSH2 0x100 EXP SWAP1 DIV PUSH20 0xFFFFFFFFFFFFFFFFFFFFFFFFFFFFFFFFFFFFFFFF AND SWAP1 DUP1 PUSH1 0x2 ADD DUP1 SLOAD PUSH2 0xBC8 SWAP1 PUSH2 0x2A84 JUMP JUMPDEST DUP1 PUSH1 0x1F ADD PUSH1 0x20 DUP1 SWAP2 DIV MUL PUSH1 0x20 ADD PUSH1 0x40 MLOAD SWAP1 DUP2 ADD PUSH1 0x40 MSTORE DUP1 SWAP3 SWAP2 SWAP1 DUP2 DUP2 MSTORE PUSH1 0x20 ADD DUP3 DUP1 SLOAD PUSH2 0xBF4 SWAP1 PUSH2 0x2A84 JUMP JUMPDEST DUP1 ISZERO PUSH2 0xC3F JUMPI DUP1 PUSH1 0x1F LT PUSH2 0xC16 JUMPI PUSH2 0x100 DUP1 DUP4 SLOAD DIV MUL DUP4 MSTORE SWAP2 PUSH1 0x20 ADD SWAP2 PUSH2 0xC3F JUMP JUMPDEST DUP3 ADD SWAP2 SWAP1 PUSH0 MSTORE PUSH1 0x20 PUSH0 KECCAK256 SWAP1 JUMPDEST DUP2 SLOAD DUP2 MSTORE SWAP1 PUSH1 0x1 ADD SWAP1 PUSH1 0x20 ADD DUP1 DUP4 GT PUSH2 0xC22 JUMPI DUP3 SWAP1 SUB PUSH1 0x1F AND DUP3 ADD SWAP2 JUMPDEST POP POP POP POP POP SWAP1 DUP1 PUSH1 0x3 ADD SLOAD SWAP1 DUP1 PUSH1 0x4 ADD SLOAD SWAP1 DUP1 PUSH1 0x5 ADD SLOAD SWAP1 DUP1 PUSH1 0x6 ADD SLOAD SWAP1 DUP1 PUSH1 0x7 ADD SLOAD SWAP1 DUP1 PUSH1 0x8 ADD SLOAD SWAP1 POP DUP10 JUMP JUMPDEST PUSH0 PUSH1 0x2 PUSH0 CALLER PUSH20 0xFFFFFFFFFFFFFFFFFFFFFFFFFFFFFFFFFFFFFFFF AND PUSH20 0xFFFFFFFFFFFFFFFFFFFFFFFFFFFFFFFFFFFFFFFF AND DUP2 MSTORE PUSH1 0x20 ADD SWAP1 DUP2 MSTORE PUSH1 0x20 ADD PUSH0 KECCAK256 DUP3 DUP2 SLOAD DUP2 LT PUSH2 0xCBD JUMPI PUSH2 0xCBC PUSH2 0x2D20 JUMP JUMPDEST JUMPDEST SWAP1 PUSH0 MSTORE PUSH1 0x20 PUSH0 KECCAK256 SWAP1 PUSH1 0x6 MUL ADD PUSH1 0x2 ADD SLOAD SWAP1 POP PUSH1 0x1 PUSH0 DUP3 DUP2 SLOAD DUP2 LT PUSH2 0xCE4 JUMPI PUSH2 0xCE3 PUSH2 0x2D20 JUMP JUMPDEST JUMPDEST SWAP1 PUSH0 MSTORE PUSH1 0x20 PUSH0 KECCAK256 SWAP1 PUSH1 0x9 MUL ADD PUSH1 0x8 ADD SLOAD EQ PUSH2 0xD34 JUMPI PUSH1 0x40 MLOAD PUSH32 0x8C379A000000000000000000000000000000000000000000000000000000000 DUP2 MSTORE PUSH1 0x4 ADD PUSH2 0xD2B SWAP1 PUSH2 0x2F7F JUMP JUMPDEST PUSH1 0x40 MLOAD DUP1 SWAP2 SUB SWAP1 REVERT JUMPDEST PUSH0 PUSH1 0x2 PUSH0 CALLER PUSH20 0xFFFFFFFFFFFFFFFFFFFFFFFFFFFFFFFFFFFFFFFF AND PUSH20 0xFFFFFFFFFFFFFFFFFFFFFFFFFFFFFFFFFFFFFFFF AND DUP2 MSTORE PUSH1 0x20 ADD SWAP1 DUP2 MSTORE PUSH1 0x20 ADD PUSH0 KECCAK256 DUP4 DUP2 SLOAD DUP2 LT PUSH2 0xD84 JUMPI PUSH2 0xD83 PUSH2 0x2D20 JUMP JUMPDEST JUMPDEST SWAP1 PUSH0 MSTORE PUSH1 0x20 PUSH0 KECCAK256 SWAP1 PUSH1 0x6 MUL ADD PUSH1 0x1 ADD PUSH0 SWAP1 SLOAD SWAP1 PUSH2 0x100 EXP SWAP1 DIV PUSH20 0xFFFFFFFFFFFFFFFFFFFFFFFFFFFFFFFFFFFFFFFF AND SWAP1 POP PUSH1 0x1 PUSH1 0x2 PUSH0 CALLER PUSH20 0xFFFFFFFFFFFFFFFFFFFFFFFFFFFFFFFFFFFFFFFF AND PUSH20 0xFFFFFFFFFFFFFFFFFFFFFFFFFFFFFFFFFFFFFFFF AND DUP2 MSTORE PUSH1 0x20 ADD SWAP1 DUP2 MSTORE PUSH1 0x20 ADD PUSH0 KECCAK256 DUP5 DUP2 SLOAD DUP2 LT PUSH2 0xE06 JUMPI PUSH2 0xE05 PUSH2 0x2D20 JUMP JUMPDEST JUMPDEST SWAP1 PUSH0 MSTORE PUSH1 0x20 PUSH0 KECCAK256 SWAP1 PUSH1 0x6 MUL ADD PUSH1 0x5 ADD DUP2 SWAP1 SSTORE POP PUSH1 0x2 PUSH0 DUP4 DUP2 SLOAD DUP2 LT PUSH2 0xE2E JUMPI PUSH2 0xE2D PUSH2 0x2D20 JUMP JUMPDEST JUMPDEST SWAP1 PUSH0 MSTORE PUSH1 0x20 PUSH0 KECCAK256 SWAP1 PUSH1 0x9 MUL ADD PUSH1 0x8 ADD DUP2 SWAP1 SSTORE POP PUSH32 0xD0E9A8BD0419492FF92821E0C185C3727B503F71880830C1122A578619AF8E75 CALLER DUP3 DUP5 PUSH1 0x40 MLOAD PUSH2 0xE74 SWAP4 SWAP3 SWAP2 SWAP1 PUSH2 0x2F9D JUMP JUMPDEST PUSH1 0x40 MLOAD DUP1 SWAP2 SUB SWAP1 LOG1 POP POP POP JUMP JUMPDEST PUSH1 0x4 PUSH1 0x20 MSTORE DUP2 PUSH0 MSTORE PUSH1 0x40 PUSH0 KECCAK256 DUP2 DUP2 SLOAD DUP2 LT PUSH2 0xE9A JUMPI PUSH0 DUP1 REVERT JUMPDEST SWAP1 PUSH0 MSTORE PUSH1 0x20 PUSH0 KECCAK256 SWAP1 PUSH1 0x9 MUL ADD PUSH0 SWAP2 POP SWAP2 POP POP DUP1 PUSH0 ADD SLOAD SWAP1 DUP1 PUSH1 0x1 ADD PUSH0 SWAP1 SLOAD SWAP1 PUSH2 0x100 EXP SWAP1 DIV PUSH20 0xFFFFFFFFFFFFFFFFFFFFFFFFFFFFFFFFFFFFFFFF AND SWAP1 DUP1 PUSH1 0x2 ADD SLOAD SWAP1 DUP1 PUSH1 0x3 ADD SLOAD SWAP1 DUP1 PUSH1 0x4 ADD SLOAD SWAP1 DUP1 PUSH1 0x5 ADD SLOAD SWAP1 DUP1 PUSH1 0x6 ADD SLOAD SWAP1 DUP1 PUSH1 0x7 ADD SLOAD SWAP1 DUP1 PUSH1 0x8 ADD SLOAD SWAP1 POP DUP10 JUMP JUMPDEST PUSH1 0x60 PUSH1 0x2 PUSH0 CALLER PUSH20 0xFFFFFFFFFFFFFFFFFFFFFFFFFFFFFFFFFFFFFFFF AND PUSH20 0xFFFFFFFFFFFFFFFFFFFFFFFFFFFFFFFFFFFFFFFF AND DUP2 MSTORE PUSH1 0x20 ADD SWAP1 DUP2 MSTORE PUSH1 0x20 ADD PUSH0 KECCAK256 DUP1 SLOAD DUP1 PUSH1 0x20 MUL PUSH1 0x20 ADD PUSH1 0x40 MLOAD SWAP1 DUP2 ADD PUSH1 0x40 MSTORE DUP1 SWAP3 SWAP2 SWAP1 DUP2 DUP2 MSTORE PUSH1 0x20 ADD PUSH0 SWAP1 JUMPDEST DUP3 DUP3 LT ISZERO PUSH2 0x1018 JUMPI DUP4 DUP3 SWAP1 PUSH0 MSTORE PUSH1 0x20 PUSH0 KECCAK256 SWAP1 PUSH1 0x6 MUL ADD PUSH1 0x40 MLOAD DUP1 PUSH1 0xC0 ADD PUSH1 0x40 MSTORE SWAP1 DUP2 PUSH0 DUP3 ADD SLOAD DUP2 MSTORE PUSH1 0x20 ADD PUSH1 0x1 DUP3 ADD PUSH0 SWAP1 SLOAD SWAP1 PUSH2 0x100 EXP SWAP1 DIV PUSH20 0xFFFFFFFFFFFFFFFFFFFFFFFFFFFFFFFFFFFFFFFF AND PUSH20 0xFFFFFFFFFFFFFFFFFFFFFFFFFFFFFFFFFFFFFFFF AND PUSH20 0xFFFFFFFFFFFFFFFFFFFFFFFFFFFFFFFFFFFFFFFF AND DUP2 MSTORE PUSH1 0x20 ADD PUSH1 0x2 DUP3 ADD SLOAD DUP2 MSTORE PUSH1 0x20 ADD PUSH1 0x3 DUP3 ADD SLOAD DUP2 MSTORE PUSH1 0x20 ADD PUSH1 0x4 DUP3 ADD SLOAD DUP2 MSTORE PUSH1 0x20 ADD PUSH1 0x5 DUP3 ADD SLOAD DUP2 MSTORE POP POP DUP2 MSTORE PUSH1 0x20 ADD SWAP1 PUSH1 0x1 ADD SWAP1 PUSH2 0xF62 JUMP JUMPDEST POP POP POP POP SWAP1 POP SWAP1 JUMP JUMPDEST PUSH0 DUP1 DUP5 DUP2 SLOAD DUP2 LT PUSH2 0x1035 JUMPI PUSH2 0x1034 PUSH2 0x2D20 JUMP JUMPDEST JUMPDEST SWAP1 PUSH0 MSTORE PUSH1 0x20 PUSH0 KECCAK256 SWAP1 PUSH1 0x9 MUL ADD PUSH1 0x1 ADD PUSH0 SWAP1 SLOAD SWAP1 PUSH2 0x100 EXP SWAP1 DIV PUSH20 0xFFFFFFFFFFFFFFFFFFFFFFFFFFFFFFFFFFFFFFFF AND SWAP1 POP PUSH1 0x1 PUSH1 0x2 PUSH0 DUP4 PUSH20 0xFFFFFFFFFFFFFFFFFFFFFFFFFFFFFFFFFFFFFFFF AND PUSH20 0xFFFFFFFFFFFFFFFFFFFFFFFFFFFFFFFFFFFFFFFF AND DUP2 MSTORE PUSH1 0x20 ADD SWAP1 DUP2 MSTORE PUSH1 0x20 ADD PUSH0 KECCAK256 DUP7 DUP2 SLOAD DUP2 LT PUSH2 0x10B7 JUMPI PUSH2 0x10B6 PUSH2 0x2D20 JUMP JUMPDEST JUMPDEST SWAP1 PUSH0 MSTORE PUSH1 0x20 PUSH0 KECCAK256 SWAP1 PUSH1 0x6 MUL ADD PUSH1 0x5 ADD SLOAD EQ PUSH2 0x1107 JUMPI PUSH1 0x40 MLOAD PUSH32 0x8C379A000000000000000000000000000000000000000000000000000000000 DUP2 MSTORE PUSH1 0x4 ADD PUSH2 0x10FE SWAP1 PUSH2 0x3042 JUMP JUMPDEST PUSH1 0x40 MLOAD DUP1 SWAP2 SUB SWAP1 REVERT JUMPDEST PUSH0 DUP1 DUP6 DUP2 SLOAD DUP2 LT PUSH2 0x111B JUMPI PUSH2 0x111A PUSH2 0x2D20 JUMP JUMPDEST JUMPDEST SWAP1 PUSH0 MSTORE PUSH1 0x20 PUSH0 KECCAK256 SWAP1 PUSH1 0x9 MUL ADD PUSH1 0x5 ADD SLOAD SWAP1 POP PUSH0 DUP1 DUP7 DUP2 SLOAD DUP2 LT PUSH2 0x1141 JUMPI PUSH2 0x1140 PUSH2 0x2D20 JUMP JUMPDEST JUMPDEST SWAP1 PUSH0 MSTORE PUSH1 0x20 PUSH0 KECCAK256 SWAP1 PUSH1 0x9 MUL ADD PUSH1 0x3 ADD SLOAD SWAP1 POP PUSH0 DUP1 DUP8 DUP2 SLOAD DUP2 LT PUSH2 0x1167 JUMPI PUSH2 0x1166 PUSH2 0x2D20 JUMP JUMPDEST JUMPDEST SWAP1 PUSH0 MSTORE PUSH1 0x20 PUSH0 KECCAK256 SWAP1 PUSH1 0x9 MUL ADD PUSH1 0x4 ADD SLOAD SWAP1 POP DUP1 DUP4 DUP4 PUSH2 0x1186 SWAP2 SWAP1 PUSH2 0x2E9B JUMP JUMPDEST PUSH2 0x1190 SWAP2 SWAP1 PUSH2 0x2EDC JUMP JUMPDEST CALLVALUE EQ PUSH2 0x11D1 JUMPI PUSH1 0x40 MLOAD PUSH32 0x8C379A000000000000000000000000000000000000000000000000000000000 DUP2 MSTORE PUSH1 0x4 ADD PUSH2 0x11C8 SWAP1 PUSH2 0x30AA JUMP JUMPDEST PUSH1 0x40 MLOAD DUP1 SWAP2 SUB SWAP1 REVERT JUMPDEST PUSH0 PUSH1 0x1 DUP5 PUSH3 0x15180 DUP9 DUP11 PUSH2 0x11E5 SWAP2 SWAP1 PUSH2 0x30C8 JUMP JUMPDEST PUSH2 0x11EF SWAP2 SWAP1 PUSH2 0x3128 JUMP JUMPDEST PUSH2 0x11F9 SWAP2 SWAP1 PUSH2 0x3128 JUMP JUMPDEST PUSH2 0x1203 SWAP2 SWAP1 PUSH2 0x2EDC JUMP JUMPDEST SWAP1 POP PUSH0 PUSH3 0x15180 DUP6 PUSH2 0x1215 SWAP2 SWAP1 PUSH2 0x2E9B JUMP JUMPDEST DUP9 PUSH2 0x1220 SWAP2 SWAP1 PUSH2 0x2EDC JUMP JUMPDEST SWAP1 POP PUSH0 DUP5 DUP7 PUSH1 0x1 DUP6 PUSH2 0x1232 SWAP2 SWAP1 PUSH2 0x30C8 JUMP JUMPDEST PUSH2 0x123C SWAP2 SWAP1 PUSH2 0x2E9B JUMP JUMPDEST PUSH2 0x1246 SWAP2 SWAP1 PUSH2 0x2E9B JUMP JUMPDEST SWAP1 POP PUSH0 PUSH1 0x1 DUP1 SLOAD SWAP1 POP SWAP1 POP PUSH1 0x1 PUSH1 0x40 MLOAD DUP1 PUSH2 0x120 ADD PUSH1 0x40 MSTORE DUP1 DUP4 DUP2 MSTORE PUSH1 0x20 ADD CALLER PUSH20 0xFFFFFFFFFFFFFFFFFFFFFFFFFFFFFFFFFFFFFFFF AND DUP2 MSTORE PUSH1 0x20 ADD DUP14 DUP2 MSTORE PUSH1 0x20 ADD DUP13 DUP2 MSTORE PUSH1 0x20 ADD DUP12 DUP2 MSTORE PUSH1 0x20 ADD DUP6 DUP2 MSTORE PUSH1 0x20 ADD PUSH0 DUP2 MSTORE PUSH1 0x20 ADD DUP5 DUP2 MSTORE PUSH1 0x20 ADD PUSH1 0x1 DUP2 MSTORE POP SWAP1 DUP1 PUSH1 0x1 DUP2 SLOAD ADD DUP1 DUP3 SSTORE DUP1 SWAP2 POP POP PUSH1 0x1 SWAP1 SUB SWAP1 PUSH0 MSTORE PUSH1 0x20 PUSH0 KECCAK256 SWAP1 PUSH1 0x9 MUL ADD PUSH0 SWAP1 SWAP2 SWAP1 SWAP2 SWAP1 SWAP2 POP PUSH0 DUP3 ADD MLOAD DUP2 PUSH0 ADD SSTORE PUSH1 0x20 DUP3 ADD MLOAD DUP2 PUSH1 0x1 ADD PUSH0 PUSH2 0x100 EXP DUP2 SLOAD DUP2 PUSH20 0xFFFFFFFFFFFFFFFFFFFFFFFFFFFFFFFFFFFFFFFF MUL NOT AND SWAP1 DUP4 PUSH20 0xFFFFFFFFFFFFFFFFFFFFFFFFFFFFFFFFFFFFFFFF AND MUL OR SWAP1 SSTORE POP PUSH1 0x40 DUP3 ADD MLOAD DUP2 PUSH1 0x2 ADD SSTORE PUSH1 0x60 DUP3 ADD MLOAD DUP2 PUSH1 0x3 ADD SSTORE PUSH1 0x80 DUP3 ADD MLOAD DUP2 PUSH1 0x4 ADD SSTORE PUSH1 0xA0 DUP3 ADD MLOAD DUP2 PUSH1 0x5 ADD SSTORE PUSH1 0xC0 DUP3 ADD MLOAD DUP2 PUSH1 0x6 ADD SSTORE PUSH1 0xE0 DUP3 ADD MLOAD DUP2 PUSH1 0x7 ADD SSTORE PUSH2 0x100 DUP3 ADD MLOAD DUP2 PUSH1 0x8 ADD SSTORE POP POP PUSH1 0x4 PUSH0 CALLER PUSH20 0xFFFFFFFFFFFFFFFFFFFFFFFFFFFFFFFFFFFFFFFF AND PUSH20 0xFFFFFFFFFFFFFFFFFFFFFFFFFFFFFFFFFFFFFFFF AND DUP2 MSTORE PUSH1 0x20 ADD SWAP1 DUP2 MSTORE PUSH1 0x20 ADD PUSH0 KECCAK256 PUSH1 0x1 DUP3 DUP2 SLOAD DUP2 LT PUSH2 0x13B8 JUMPI PUSH2 0x13B7 PUSH2 0x2D20 JUMP JUMPDEST JUMPDEST SWAP1 PUSH0 MSTORE PUSH1 0x20 PUSH0 KECCAK256 SWAP1 PUSH1 0x9 MUL ADD SWAP1 DUP1 PUSH1 0x1 DUP2 SLOAD ADD DUP1 DUP3 SSTORE DUP1 SWAP2 POP POP PUSH1 0x1 SWAP1 SUB SWAP1 PUSH0 MSTORE PUSH1 0x20 PUSH0 KECCAK256 SWAP1 PUSH1 0x9 MUL ADD PUSH0 SWAP1 SWAP2 SWAP1 SWAP2 SWAP1 SWAP2 POP PUSH0 DUP3 ADD SLOAD DUP2 PUSH0 ADD SSTORE PUSH1 0x1 DUP3 ADD PUSH0 SWAP1 SLOAD SWAP1 PUSH2 0x100 EXP SWAP1 DIV PUSH20 0xFFFFFFFFFFFFFFFFFFFFFFFFFFFFFFFFFFFFFFFF AND DUP2 PUSH1 0x1 ADD PUSH0 PUSH2 0x100 EXP DUP2 SLOAD DUP2 PUSH20 0xFFFFFFFFFFFFFFFFFFFFFFFFFFFFFFFFFFFFFFFF MUL NOT AND SWAP1 DUP4 PUSH20 0xFFFFFFFFFFFFFFFFFFFFFFFFFFFFFFFFFFFFFFFF AND MUL OR SWAP1 SSTORE POP PUSH1 0x2 DUP3 ADD SLOAD DUP2 PUSH1 0x2 ADD SSTORE PUSH1 0x3 DUP3 ADD SLOAD DUP2 PUSH1 0x3 ADD SSTORE PUSH1 0x4 DUP3 ADD SLOAD DUP2 PUSH1 0x4 ADD SSTORE PUSH1 0x5 DUP3 ADD SLOAD DUP2 PUSH1 0x5 ADD SSTORE PUSH1 0x6 DUP3 ADD SLOAD DUP2 PUSH1 0x6 ADD SSTORE PUSH1 0x7 DUP3 ADD SLOAD DUP2 PUSH1 0x7 ADD SSTORE PUSH1 0x8 DUP3 ADD SLOAD DUP2 PUSH1 0x8 ADD SSTORE POP POP PUSH0 DUP1 DUP13 DUP2 SLOAD DUP2 LT PUSH2 0x14B3 JUMPI PUSH2 0x14B2 PUSH2 0x2D20 JUMP JUMPDEST JUMPDEST SWAP1 PUSH0 MSTORE PUSH1 0x20 PUSH0 KECCAK256 SWAP1 PUSH1 0x9 MUL ADD PUSH1 0x8 ADD DUP2 SWAP1 SSTORE POP PUSH0 DUP12 DUP2 SLOAD DUP2 LT PUSH2 0x14D9 JUMPI PUSH2 0x14D8 PUSH2 0x2D20 JUMP JUMPDEST JUMPDEST SWAP1 PUSH0 MSTORE PUSH1 0x20 PUSH0 KECCAK256 SWAP1 PUSH1 0x9 MUL ADD PUSH1 0x1 ADD PUSH0 SWAP1 SLOAD SWAP1 PUSH2 0x100 EXP SWAP1 DIV PUSH20 0xFFFFFFFFFFFFFFFFFFFFFFFFFFFFFFFFFFFFFFFF AND PUSH20 0xFFFFFFFFFFFFFFFFFFFFFFFFFFFFFFFFFFFFFFFF AND PUSH2 0x8FC PUSH0 DUP14 DUP2 SLOAD DUP2 LT PUSH2 0x1534 JUMPI PUSH2 0x1533 PUSH2 0x2D20 JUMP JUMPDEST JUMPDEST SWAP1 PUSH0 MSTORE PUSH1 0x20 PUSH0 KECCAK256 SWAP1 PUSH1 0x9 MUL ADD PUSH1 0x4 ADD SLOAD CALLVALUE PUSH2 0x154F SWAP2 SWAP1 PUSH2 0x30C8 JUMP JUMPDEST SWAP1 DUP2 ISZERO MUL SWAP1 PUSH1 0x40 MLOAD PUSH0 PUSH1 0x40 MLOAD DUP1 DUP4 SUB DUP2 DUP6 DUP9 DUP9 CALL SWAP4 POP POP POP POP ISZERO DUP1 ISZERO PUSH2 0x1577 JUMPI RETURNDATASIZE PUSH0 DUP1 RETURNDATACOPY RETURNDATASIZE PUSH0 REVERT JUMPDEST POP PUSH32 0xB80F428704AEA624DB48E5FA450E946B9E04A896C332C3FB87DDB996F046958F DUP2 CALLER DUP11 DUP15 DUP15 DUP15 PUSH1 0x40 MLOAD PUSH2 0x15B1 SWAP7 SWAP6 SWAP5 SWAP4 SWAP3 SWAP2 SWAP1 PUSH2 0x3158 JUMP JUMPDEST PUSH1 0x40 MLOAD DUP1 SWAP2 SUB SWAP1 LOG1 POP POP POP POP POP POP POP POP POP POP POP POP JUMP JUMPDEST PUSH1 0x2 PUSH1 0x20 MSTORE DUP2 PUSH0 MSTORE PUSH1 0x40 PUSH0 KECCAK256 DUP2 DUP2 SLOAD DUP2 LT PUSH2 0x15E0 JUMPI PUSH0 DUP1 REVERT JUMPDEST SWAP1 PUSH0 MSTORE PUSH1 0x20 PUSH0 KECCAK256 SWAP1 PUSH1 0x6 MUL ADD PUSH0 SWAP2 POP SWAP2 POP POP DUP1 PUSH0 ADD SLOAD SWAP1 DUP1 PUSH1 0x1 ADD PUSH0 SWAP1 SLOAD SWAP1 PUSH2 0x100 EXP SWAP1 DIV PUSH20 0xFFFFFFFFFFFFFFFFFFFFFFFFFFFFFFFFFFFFFFFF AND SWAP1 DUP1 PUSH1 0x2 ADD SLOAD SWAP1 DUP1 PUSH1 0x3 ADD SLOAD SWAP1 DUP1 PUSH1 0x4 ADD SLOAD SWAP1 DUP1 PUSH1 0x5 ADD SLOAD SWAP1 POP DUP7 JUMP JUMPDEST PUSH0 DUP2 DUP2 SLOAD DUP2 LT PUSH2 0x1646 JUMPI PUSH0 DUP1 REVERT JUMPDEST SWAP1 PUSH0 MSTORE PUSH1 0x20 PUSH0 KECCAK256 SWAP1 PUSH1 0x9 MUL ADD PUSH0 SWAP2 POP SWAP1 POP DUP1 PUSH0 ADD SLOAD SWAP1 DUP1 PUSH1 0x1 ADD PUSH0 SWAP1 SLOAD SWAP1 PUSH2 0x100 EXP SWAP1 DIV PUSH20 0xFFFFFFFFFFFFFFFFFFFFFFFFFFFFFFFFFFFFFFFF AND SWAP1 DUP1 PUSH1 0x2 ADD DUP1 SLOAD PUSH2 0x1690 SWAP1 PUSH2 0x2A84 JUMP JUMPDEST DUP1 PUSH1 0x1F ADD PUSH1 0x20 DUP1 SWAP2 DIV MUL PUSH1 0x20 ADD PUSH1 0x40 MLOAD SWAP1 DUP2 ADD PUSH1 0x40 MSTORE DUP1 SWAP3 SWAP2 SWAP1 DUP2 DUP2 MSTORE PUSH1 0x20 ADD DUP3 DUP1 SLOAD PUSH2 0x16BC SWAP1 PUSH2 0x2A84 JUMP JUMPDEST DUP1 ISZERO PUSH2 0x1707 JUMPI DUP1 PUSH1 0x1F LT PUSH2 0x16DE JUMPI PUSH2 0x100 DUP1 DUP4 SLOAD DIV MUL DUP4 MSTORE SWAP2 PUSH1 0x20 ADD SWAP2 PUSH2 0x1707 JUMP JUMPDEST DUP3 ADD SWAP2 SWAP1 PUSH0 MSTORE PUSH1 0x20 PUSH0 KECCAK256 SWAP1 JUMPDEST DUP2 SLOAD DUP2 MSTORE SWAP1 PUSH1 0x1 ADD SWAP1 PUSH1 0x20 ADD DUP1 DUP4 GT PUSH2 0x16EA JUMPI DUP3 SWAP1 SUB PUSH1 0x1F AND DUP3 ADD SWAP2 JUMPDEST POP POP POP POP POP SWAP1 DUP1 PUSH1 0x3 ADD SLOAD SWAP1 DUP1 PUSH1 0x4 ADD SLOAD SWAP1 DUP1 PUSH1 0x5 ADD SLOAD SWAP1 DUP1 PUSH1 0x6 ADD SLOAD SWAP1 DUP1 PUSH1 0x7 ADD SLOAD SWAP1 DUP1 PUSH1 0x8 ADD SLOAD SWAP1 POP DUP10 JUMP JUMPDEST PUSH1 0x1 DUP2 DUP2 SLOAD DUP2 LT PUSH2 0x1744 JUMPI PUSH0 DUP1 REVERT JUMPDEST SWAP1 PUSH0 MSTORE PUSH1 0x20 PUSH0 KECCAK256 SWAP1 PUSH1 0x9 MUL ADD PUSH0 SWAP2 POP SWAP1 POP DUP1 PUSH0 ADD SLOAD SWAP1 DUP1 PUSH1 0x1 ADD PUSH0 SWAP1 SLOAD SWAP1 PUSH2 0x100 EXP SWAP1 DIV PUSH20 0xFFFFFFFFFFFFFFFFFFFFFFFFFFFFFFFFFFFFFFFF AND SWAP1 DUP1 PUSH1 0x2 ADD SLOAD SWAP1 DUP1 PUSH1 0x3 ADD SLOAD SWAP1 DUP1 PUSH1 0x4 ADD SLOAD SWAP1 DUP1 PUSH1 0x5 ADD SLOAD SWAP1 DUP1 PUSH1 0x6 ADD SLOAD SWAP1 DUP1 PUSH1 0x7 ADD SLOAD SWAP1 DUP1 PUSH1 0x8 ADD SLOAD SWAP1 POP DUP10 JUMP JUMPDEST PUSH1 0x1 PUSH0 DUP5 DUP2 SLOAD DUP2 LT PUSH2 0x17C2 JUMPI PUSH2 0x17C1 PUSH2 0x2D20 JUMP JUMPDEST JUMPDEST SWAP1 PUSH0 MSTORE PUSH1 0x20 PUSH0 KECCAK256 SWAP1 PUSH1 0x9 MUL ADD PUSH1 0x8 ADD SLOAD EQ PUSH2 0x1812 JUMPI PUSH1 0x40 MLOAD PUSH32 0x8C379A000000000000000000000000000000000000000000000000000000000 DUP2 MSTORE PUSH1 0x4 ADD PUSH2 0x1809 SWAP1 PUSH2 0x3201 JUMP JUMPDEST PUSH1 0x40 MLOAD DUP1 SWAP2 SUB SWAP1 REVERT JUMPDEST PUSH0 DUP2 DUP4 PUSH2 0x181F SWAP2 SWAP1 PUSH2 0x30C8 JUMP JUMPDEST SWAP1 POP DUP1 PUSH0 DUP6 DUP2 SLOAD DUP2 LT PUSH2 0x1835 JUMPI PUSH2 0x1834 PUSH2 0x2D20 JUMP JUMPDEST JUMPDEST SWAP1 PUSH0 MSTORE PUSH1 0x20 PUSH0 KECCAK256 SWAP1 PUSH1 0x9 MUL ADD PUSH1 0x7 ADD SLOAD GT DUP1 ISZERO PUSH2 0x1873 JUMPI POP PUSH0 DUP5 DUP2 SLOAD DUP2 LT PUSH2 0x1860 JUMPI PUSH2 0x185F PUSH2 0x2D20 JUMP JUMPDEST JUMPDEST SWAP1 PUSH0 MSTORE PUSH1 0x20 PUSH0 KECCAK256 SWAP1 PUSH1 0x9 MUL ADD PUSH1 0x6 ADD SLOAD DUP2 GT JUMPDEST PUSH2 0x187B JUMPI PUSH0 DUP1 REVERT JUMPDEST PUSH0 DUP1 DUP6 DUP2 SLOAD DUP2 LT PUSH2 0x188F JUMPI PUSH2 0x188E PUSH2 0x2D20 JUMP JUMPDEST JUMPDEST SWAP1 PUSH0 MSTORE PUSH1 0x20 PUSH0 KECCAK256 SWAP1 PUSH1 0x9 MUL ADD PUSH1 0x1 ADD PUSH0 SWAP1 SLOAD SWAP1 PUSH2 0x100 EXP SWAP1 DIV PUSH20 0xFFFFFFFFFFFFFFFFFFFFFFFFFFFFFFFFFFFFFFFF AND SWAP1 POP PUSH0 PUSH1 0x2 PUSH0 DUP4 PUSH20 0xFFFFFFFFFFFFFFFFFFFFFFFFFFFFFFFFFFFFFFFF AND PUSH20 0xFFFFFFFFFFFFFFFFFFFFFFFFFFFFFFFFFFFFFFFF AND DUP2 MSTORE PUSH1 0x20 ADD SWAP1 DUP2 MSTORE PUSH1 0x20 ADD PUSH0 KECCAK256 DUP1 SLOAD SWAP1 POP SWAP1 POP PUSH1 0x2 PUSH0 DUP4 PUSH20 0xFFFFFFFFFFFFFFFFFFFFFFFFFFFFFFFFFFFFFFFF AND PUSH20 0xFFFFFFFFFFFFFFFFFFFFFFFFFFFFFFFFFFFFFFFF AND DUP2 MSTORE PUSH1 0x20 ADD SWAP1 DUP2 MSTORE PUSH1 0x20 ADD PUSH0 KECCAK256 PUSH1 0x40 MLOAD DUP1 PUSH1 0xC0 ADD PUSH1 0x40 MSTORE DUP1 DUP4 DUP2 MSTORE PUSH1 0x20 ADD CALLER PUSH20 0xFFFFFFFFFFFFFFFFFFFFFFFFFFFFFFFFFFFFFFFF AND DUP2 MSTORE PUSH1 0x20 ADD DUP9 DUP2 MSTORE PUSH1 0x20 ADD DUP8 DUP2 MSTORE PUSH1 0x20 ADD DUP7 DUP2 MSTORE PUSH1 0x20 ADD PUSH0 DUP2 MSTORE POP SWAP1 DUP1 PUSH1 0x1 DUP2 SLOAD ADD DUP1 DUP3 SSTORE DUP1 SWAP2 POP POP PUSH1 0x1 SWAP1 SUB SWAP1 PUSH0 MSTORE PUSH1 0x20 PUSH0 KECCAK256 SWAP1 PUSH1 0x6 MUL ADD PUSH0 SWAP1 SWAP2 SWAP1 SWAP2 SWAP1 SWAP2 POP PUSH0 DUP3 ADD MLOAD DUP2 PUSH0 ADD SSTORE PUSH1 0x20 DUP3 ADD MLOAD DUP2 PUSH1 0x1 ADD PUSH0 PUSH2 0x100 EXP DUP2 SLOAD DUP2 PUSH20 0xFFFFFFFFFFFFFFFFFFFFFFFFFFFFFFFFFFFFFFFF MUL NOT AND SWAP1 DUP4 PUSH20 0xFFFFFFFFFFFFFFFFFFFFFFFFFFFFFFFFFFFFFFFF AND MUL OR SWAP1 SSTORE POP PUSH1 0x40 DUP3 ADD MLOAD DUP2 PUSH1 0x2 ADD SSTORE PUSH1 0x60 DUP3 ADD MLOAD DUP2 PUSH1 0x3 ADD SSTORE PUSH1 0x80 DUP3 ADD MLOAD DUP2 PUSH1 0x4 ADD SSTORE PUSH1 0xA0 DUP3 ADD MLOAD DUP2 PUSH1 0x5 ADD SSTORE POP POP PUSH32 0xC27E43AF6588B65DCCC4465720EF720B7CF45F5FBA352DF8607AE1CFEA9089B CALLER DUP3 PUSH1 0x40 MLOAD PUSH2 0x1A53 SWAP3 SWAP2 SWAP1 PUSH2 0x321F JUMP JUMPDEST PUSH1 0x40 MLOAD DUP1 SWAP2 SUB SWAP1 LOG1 POP POP POP POP POP POP JUMP JUMPDEST PUSH1 0x60 PUSH0 DUP1 SLOAD DUP1 PUSH1 0x20 MUL PUSH1 0x20 ADD PUSH1 0x40 MLOAD SWAP1 DUP2 ADD PUSH1 0x40 MSTORE DUP1 SWAP3 SWAP2 SWAP1 DUP2 DUP2 MSTORE PUSH1 0x20 ADD PUSH0 SWAP1 JUMPDEST DUP3 DUP3 LT ISZERO PUSH2 0x1BE0 JUMPI DUP4 DUP3 SWAP1 PUSH0 MSTORE PUSH1 0x20 PUSH0 KECCAK256 SWAP1 PUSH1 0x9 MUL ADD PUSH1 0x40 MLOAD DUP1 PUSH2 0x120 ADD PUSH1 0x40 MSTORE SWAP1 DUP2 PUSH0 DUP3 ADD SLOAD DUP2 MSTORE PUSH1 0x20 ADD PUSH1 0x1 DUP3 ADD PUSH0 SWAP1 SLOAD SWAP1 PUSH2 0x100 EXP SWAP1 DIV PUSH20 0xFFFFFFFFFFFFFFFFFFFFFFFFFFFFFFFFFFFFFFFF AND PUSH20 0xFFFFFFFFFFFFFFFFFFFFFFFFFFFFFFFFFFFFFFFF AND PUSH20 0xFFFFFFFFFFFFFFFFFFFFFFFFFFFFFFFFFFFFFFFF AND DUP2 MSTORE PUSH1 0x20 ADD PUSH1 0x2 DUP3 ADD DUP1 SLOAD PUSH2 0x1B15 SWAP1 PUSH2 0x2A84 JUMP JUMPDEST DUP1 PUSH1 0x1F ADD PUSH1 0x20 DUP1 SWAP2 DIV MUL PUSH1 0x20 ADD PUSH1 0x40 MLOAD SWAP1 DUP2 ADD PUSH1 0x40 MSTORE DUP1 SWAP3 SWAP2 SWAP1 DUP2 DUP2 MSTORE PUSH1 0x20 ADD DUP3 DUP1 SLOAD PUSH2 0x1B41 SWAP1 PUSH2 0x2A84 JUMP JUMPDEST DUP1 ISZERO PUSH2 0x1B8C JUMPI DUP1 PUSH1 0x1F LT PUSH2 0x1B63 JUMPI PUSH2 0x100 DUP1 DUP4 SLOAD DIV MUL DUP4 MSTORE SWAP2 PUSH1 0x20 ADD SWAP2 PUSH2 0x1B8C JUMP JUMPDEST DUP3 ADD SWAP2 SWAP1 PUSH0 MSTORE PUSH1 0x20 PUSH0 KECCAK256 SWAP1 JUMPDEST DUP2 SLOAD DUP2 MSTORE SWAP1 PUSH1 0x1 ADD SWAP1 PUSH1 0x20 ADD DUP1 DUP4 GT PUSH2 0x1B6F JUMPI DUP3 SWAP1 SUB PUSH1 0x1F AND DUP3 ADD SWAP2 JUMPDEST POP POP POP POP POP DUP2 MSTORE PUSH1 0x20 ADD PUSH1 0x3 DUP3 ADD SLOAD DUP2 MSTORE PUSH1 0x20 ADD PUSH1 0x4 DUP3 ADD SLOAD DUP2 MSTORE PUSH1 0x20 ADD PUSH1 0x5 DUP3 ADD SLOAD DUP2 MSTORE PUSH1 0x20 ADD PUSH1 0x6 DUP3 ADD SLOAD DUP2 MSTORE PUSH1 0x20 ADD PUSH1 0x7 DUP3 ADD SLOAD DUP2 MSTORE PUSH1 0x20 ADD PUSH1 0x8 DUP3 ADD SLOAD DUP2 MSTORE POP POP DUP2 MSTORE PUSH1 0x20 ADD SWAP1 PUSH1 0x1 ADD SWAP1 PUSH2 0x1A85 JUMP JUMPDEST POP POP POP POP SWAP1 POP SWAP1 JUMP JUMPDEST PUSH0 PUSH1 0x1 DUP3 DUP2 SLOAD DUP2 LT PUSH2 0x1BFE JUMPI PUSH2 0x1BFD PUSH2 0x2D20 JUMP JUMPDEST JUMPDEST SWAP1 PUSH0 MSTORE PUSH1 0x20 PUSH0 KECCAK256 SWAP1 PUSH1 0x9 MUL ADD PUSH1 0x6 ADD SLOAD GT PUSH2 0x1C4E JUMPI PUSH1 0x40 MLOAD PUSH32 0x8C379A000000000000000000000000000000000000000000000000000000000 DUP2 MSTORE PUSH1 0x4 ADD PUSH2 0x1C45 SWAP1 PUSH2 0x32B6 JUMP JUMPDEST PUSH1 0x40 MLOAD DUP1 SWAP2 SUB SWAP1 REVERT JUMPDEST PUSH0 PUSH1 0x1 DUP3 DUP2 SLOAD DUP2 LT PUSH2 0x1C63 JUMPI PUSH2 0x1C62 PUSH2 0x2D20 JUMP JUMPDEST JUMPDEST SWAP1 PUSH0 MSTORE PUSH1 0x20 PUSH0 KECCAK256 SWAP1 PUSH1 0x9 MUL ADD PUSH1 0x2 ADD SLOAD SWAP1 POP PUSH0 DUP2 DUP2 SLOAD DUP2 LT PUSH2 0x1C88 JUMPI PUSH2 0x1C87 PUSH2 0x2D20 JUMP JUMPDEST JUMPDEST SWAP1 PUSH0 MSTORE PUSH1 0x20 PUSH0 KECCAK256 SWAP1 PUSH1 0x9 MUL ADD PUSH1 0x1 ADD PUSH0 SWAP1 SLOAD SWAP1 PUSH2 0x100 EXP SWAP1 DIV PUSH20 0xFFFFFFFFFFFFFFFFFFFFFFFFFFFFFFFFFFFFFFFF AND PUSH20 0xFFFFFFFFFFFFFFFFFFFFFFFFFFFFFFFFFFFFFFFF AND PUSH2 0x8FC CALLVALUE SWAP1 DUP2 ISZERO MUL SWAP1 PUSH1 0x40 MLOAD PUSH0 PUSH1 0x40 MLOAD DUP1 DUP4 SUB DUP2 DUP6 DUP9 DUP9 CALL SWAP4 POP POP POP POP ISZERO DUP1 ISZERO PUSH2 0x1CF9 JUMPI RETURNDATASIZE PUSH0 DUP1 RETURNDATACOPY RETURNDATASIZE PUSH0 REVERT JUMPDEST POP CALLVALUE PUSH1 0x1 DUP4 DUP2 SLOAD DUP2 LT PUSH2 0x1D0F JUMPI PUSH2 0x1D0E PUSH2 0x2D20 JUMP JUMPDEST JUMPDEST SWAP1 PUSH0 MSTORE PUSH1 0x20 PUSH0 KECCAK256 SWAP1 PUSH1 0x9 MUL ADD PUSH1 0x6 ADD PUSH0 DUP3 DUP3 SLOAD PUSH2 0x1D2C SWAP2 SWAP1 PUSH2 0x30C8 JUMP JUMPDEST SWAP3 POP POP DUP2 SWAP1 SSTORE POP CALLVALUE PUSH1 0x1 DUP4 DUP2 SLOAD DUP2 LT PUSH2 0x1D48 JUMPI PUSH2 0x1D47 PUSH2 0x2D20 JUMP JUMPDEST JUMPDEST SWAP1 PUSH0 MSTORE PUSH1 0x20 PUSH0 KECCAK256 SWAP1 PUSH1 0x9 MUL ADD PUSH1 0x7 ADD PUSH0 DUP3 DUP3 SLOAD PUSH2 0x1D65 SWAP2 SWAP1 PUSH2 0x30C8 JUMP JUMPDEST SWAP3 POP POP DUP2 SWAP1 SSTORE POP PUSH32 0x63E55317E25C0CAB3A2DE23EE0E244496DAEA0C1C2B8E272BBC01722B96BB9AE DUP3 CALLER CALLVALUE PUSH1 0x40 MLOAD PUSH2 0x1D9F SWAP4 SWAP3 SWAP2 SWAP1 PUSH2 0x32D4 JUMP JUMPDEST PUSH1 0x40 MLOAD DUP1 SWAP2 SUB SWAP1 LOG1 PUSH0 PUSH1 0x1 DUP4 DUP2 SLOAD DUP2 LT PUSH2 0x1DBC JUMPI PUSH2 0x1DBB PUSH2 0x2D20 JUMP JUMPDEST JUMPDEST SWAP1 PUSH0 MSTORE PUSH1 0x20 PUSH0 KECCAK256 SWAP1 PUSH1 0x9 MUL ADD PUSH1 0x7 ADD SLOAD SUB PUSH2 0x1E71 JUMPI CALLER PUSH20 0xFFFFFFFFFFFFFFFFFFFFFFFFFFFFFFFFFFFFFFFF AND PUSH2 0x8FC PUSH0 DUP4 DUP2 SLOAD DUP2 LT PUSH2 0x1DFE JUMPI PUSH2 0x1DFD PUSH2 0x2D20 JUMP JUMPDEST JUMPDEST SWAP1 PUSH0 MSTORE PUSH1 0x20 PUSH0 KECCAK256 SWAP1 PUSH1 0x9 MUL ADD PUSH1 0x4 ADD SLOAD SWAP1 DUP2 ISZERO MUL SWAP1 PUSH1 0x40 MLOAD PUSH0 PUSH1 0x40 MLOAD DUP1 DUP4 SUB DUP2 DUP6 DUP9 DUP9 CALL SWAP4 POP POP POP POP ISZERO DUP1 ISZERO PUSH2 0x1E36 JUMPI RETURNDATASIZE PUSH0 DUP1 RETURNDATACOPY RETURNDATASIZE PUSH0 REVERT JUMPDEST POP PUSH32 0xC8891CC8407E9BC09A78421BD234C3FD57D71A2CC5F1AC6D5602070ADD66D0DD DUP3 CALLER PUSH1 0x40 MLOAD PUSH2 0x1E68 SWAP3 SWAP2 SWAP1 PUSH2 0x2E47 JUMP JUMPDEST PUSH1 0x40 MLOAD DUP1 SWAP2 SUB SWAP1 LOG1 JUMPDEST POP POP JUMP JUMPDEST PUSH1 0x60 PUSH2 0x1E80 CALLER PUSH2 0x634 JUMP JUMPDEST PUSH1 0x4 PUSH0 CALLER PUSH20 0xFFFFFFFFFFFFFFFFFFFFFFFFFFFFFFFFFFFFFFFF AND PUSH20 0xFFFFFFFFFFFFFFFFFFFFFFFFFFFFFFFFFFFFFFFF AND DUP2 MSTORE PUSH1 0x20 ADD SWAP1 DUP2 MSTORE PUSH1 0x20 ADD PUSH0 KECCAK256 DUP1 SLOAD DUP1 PUSH1 0x20 MUL PUSH1 0x20 ADD PUSH1 0x40 MLOAD SWAP1 DUP2 ADD PUSH1 0x40 MSTORE DUP1 SWAP3 SWAP2 SWAP1 DUP2 DUP2 MSTORE PUSH1 0x20 ADD PUSH0 SWAP1 JUMPDEST DUP3 DUP3 LT ISZERO PUSH2 0x1FB1 JUMPI DUP4 DUP3 SWAP1 PUSH0 MSTORE PUSH1 0x20 PUSH0 KECCAK256 SWAP1 PUSH1 0x9 MUL ADD PUSH1 0x40 MLOAD DUP1 PUSH2 0x120 ADD PUSH1 0x40 MSTORE SWAP1 DUP2 PUSH0 DUP3 ADD SLOAD DUP2 MSTORE PUSH1 0x20 ADD PUSH1 0x1 DUP3 ADD PUSH0 SWAP1 SLOAD SWAP1 PUSH2 0x100 EXP SWAP1 DIV PUSH20 0xFFFFFFFFFFFFFFFFFFFFFFFFFFFFFFFFFFFFFFFF AND PUSH20 0xFFFFFFFFFFFFFFFFFFFFFFFFFFFFFFFFFFFFFFFF AND PUSH20 0xFFFFFFFFFFFFFFFFFFFFFFFFFFFFFFFFFFFFFFFF AND DUP2 MSTORE PUSH1 0x20 ADD PUSH1 0x2 DUP3 ADD SLOAD DUP2 MSTORE PUSH1 0x20 ADD PUSH1 0x3 DUP3 ADD SLOAD DUP2 MSTORE PUSH1 0x20 ADD PUSH1 0x4 DUP3 ADD SLOAD DUP2 MSTORE PUSH1 0x20 ADD PUSH1 0x5 DUP3 ADD SLOAD DUP2 MSTORE PUSH1 0x20 ADD PUSH1 0x6 DUP3 ADD SLOAD DUP2 MSTORE PUSH1 0x20 ADD PUSH1 0x7 DUP3 ADD SLOAD DUP2 MSTORE PUSH1 0x20 ADD PUSH1 0x8 DUP3 ADD SLOAD DUP2 MSTORE POP POP DUP2 MSTORE PUSH1 0x20 ADD SWAP1 PUSH1 0x1 ADD SWAP1 PUSH2 0x1EDC JUMP JUMPDEST POP POP POP POP SWAP1 POP SWAP1 JUMP JUMPDEST PUSH0 PUSH1 0x40 MLOAD SWAP1 POP SWAP1 JUMP JUMPDEST PUSH0 DUP1 REVERT JUMPDEST PUSH0 DUP1 REVERT JUMPDEST PUSH0 DUP1 REVERT JUMPDEST PUSH0 DUP1 REVERT JUMPDEST PUSH0 PUSH1 0x1F NOT PUSH1 0x1F DUP4 ADD AND SWAP1 POP SWAP2 SWAP1 POP JUMP JUMPDEST PUSH32 0x4E487B7100000000000000000000000000000000000000000000000000000000 PUSH0 MSTORE PUSH1 0x41 PUSH1 0x4 MSTORE PUSH1 0x24 PUSH0 REVERT JUMPDEST PUSH2 0x2019 DUP3 PUSH2 0x1FD3 JUMP JUMPDEST DUP2 ADD DUP2 DUP2 LT PUSH8 0xFFFFFFFFFFFFFFFF DUP3 GT OR ISZERO PUSH2 0x2038 JUMPI PUSH2 0x2037 PUSH2 0x1FE3 JUMP JUMPDEST JUMPDEST DUP1 PUSH1 0x40 MSTORE POP POP POP JUMP JUMPDEST PUSH0 PUSH2 0x204A PUSH2 0x1FBA JUMP JUMPDEST SWAP1 POP PUSH2 0x2056 DUP3 DUP3 PUSH2 0x2010 JUMP JUMPDEST SWAP2 SWAP1 POP JUMP JUMPDEST PUSH0 PUSH8 0xFFFFFFFFFFFFFFFF DUP3 GT ISZERO PUSH2 0x2075 JUMPI PUSH2 0x2074 PUSH2 0x1FE3 JUMP JUMPDEST JUMPDEST PUSH2 0x207E DUP3 PUSH2 0x1FD3 JUMP JUMPDEST SWAP1 POP PUSH1 0x20 DUP2 ADD SWAP1 POP SWAP2 SWAP1 POP JUMP JUMPDEST DUP3 DUP2 DUP4 CALLDATACOPY PUSH0 DUP4 DUP4 ADD MSTORE POP POP POP JUMP JUMPDEST PUSH0 PUSH2 0x20AB PUSH2 0x20A6 DUP5 PUSH2 0x205B JUMP JUMPDEST PUSH2 0x2041 JUMP JUMPDEST SWAP1 POP DUP3 DUP2 MSTORE PUSH1 0x20 DUP2 ADD DUP5 DUP5 DUP5 ADD GT ISZERO PUSH2 0x20C7 JUMPI PUSH2 0x20C6 PUSH2 0x1FCF JUMP JUMPDEST JUMPDEST PUSH2 0x20D2 DUP5 DUP3 DUP6 PUSH2 0x208B JUMP JUMPDEST POP SWAP4 SWAP3 POP POP POP JUMP JUMPDEST PUSH0 DUP3 PUSH1 0x1F DUP4 ADD SLT PUSH2 0x20EE JUMPI PUSH2 0x20ED PUSH2 0x1FCB JUMP JUMPDEST JUMPDEST DUP2 CALLDATALOAD PUSH2 0x20FE DUP5 DUP3 PUSH1 0x20 DUP7 ADD PUSH2 0x2099 JUMP JUMPDEST SWAP2 POP POP SWAP3 SWAP2 POP POP JUMP JUMPDEST PUSH0 DUP2 SWAP1 POP SWAP2 SWAP1 POP JUMP JUMPDEST PUSH2 0x2119 DUP2 PUSH2 0x2107 JUMP JUMPDEST DUP2 EQ PUSH2 0x2123 JUMPI PUSH0 DUP1 REVERT JUMPDEST POP JUMP JUMPDEST PUSH0 DUP2 CALLDATALOAD SWAP1 POP PUSH2 0x2134 DUP2 PUSH2 0x2110 JUMP JUMPDEST SWAP3 SWAP2 POP POP JUMP JUMPDEST PUSH0 DUP1 PUSH0 DUP1 PUSH0 DUP1 PUSH1 0xC0 DUP8 DUP10 SUB SLT ISZERO PUSH2 0x2154 JUMPI PUSH2 0x2153 PUSH2 0x1FC3 JUMP JUMPDEST JUMPDEST PUSH0 DUP8 ADD CALLDATALOAD PUSH8 0xFFFFFFFFFFFFFFFF DUP2 GT ISZERO PUSH2 0x2171 JUMPI PUSH2 0x2170 PUSH2 0x1FC7 JUMP JUMPDEST JUMPDEST PUSH2 0x217D DUP10 DUP3 DUP11 ADD PUSH2 0x20DA JUMP JUMPDEST SWAP7 POP POP PUSH1 0x20 PUSH2 0x218E DUP10 DUP3 DUP11 ADD PUSH2 0x2126 JUMP JUMPDEST SWAP6 POP POP PUSH1 0x40 PUSH2 0x219F DUP10 DUP3 DUP11 ADD PUSH2 0x2126 JUMP JUMPDEST SWAP5 POP POP PUSH1 0x60 PUSH2 0x21B0 DUP10 DUP3 DUP11 ADD PUSH2 0x2126 JUMP JUMPDEST SWAP4 POP POP PUSH1 0x80 PUSH2 0x21C1 DUP10 DUP3 DUP11 ADD PUSH2 0x2126 JUMP JUMPDEST SWAP3 POP POP PUSH1 0xA0 PUSH2 0x21D2 DUP10 DUP3 DUP11 ADD PUSH2 0x2126 JUMP JUMPDEST SWAP2 POP POP SWAP3 SWAP6 POP SWAP3 SWAP6 POP SWAP3 SWAP6 JUMP JUMPDEST PUSH0 PUSH20 0xFFFFFFFFFFFFFFFFFFFFFFFFFFFFFFFFFFFFFFFF DUP3 AND SWAP1 POP SWAP2 SWAP1 POP JUMP JUMPDEST PUSH0 PUSH2 0x2208 DUP3 PUSH2 0x21DF JUMP JUMPDEST SWAP1 POP SWAP2 SWAP1 POP JUMP JUMPDEST PUSH2 0x2218 DUP2 PUSH2 0x21FE JUMP JUMPDEST DUP2 EQ PUSH2 0x2222 JUMPI PUSH0 DUP1 REVERT JUMPDEST POP JUMP JUMPDEST PUSH0 DUP2 CALLDATALOAD SWAP1 POP PUSH2 0x2233 DUP2 PUSH2 0x220F JUMP JUMPDEST SWAP3 SWAP2 POP POP JUMP JUMPDEST PUSH0 PUSH1 0x20 DUP3 DUP5 SUB SLT ISZERO PUSH2 0x224E JUMPI PUSH2 0x224D PUSH2 0x1FC3 JUMP JUMPDEST JUMPDEST PUSH0 PUSH2 0x225B DUP5 DUP3 DUP6 ADD PUSH2 0x2225 JUMP JUMPDEST SWAP2 POP POP SWAP3 SWAP2 POP POP JUMP JUMPDEST PUSH0 DUP1 PUSH1 0x40 DUP4 DUP6 SUB SLT ISZERO PUSH2 0x227A JUMPI PUSH2 0x2279 PUSH2 0x1FC3 JUMP JUMPDEST JUMPDEST PUSH0 PUSH2 0x2287 DUP6 DUP3 DUP7 ADD PUSH2 0x2225 JUMP JUMPDEST SWAP3 POP POP PUSH1 0x20 PUSH2 0x2298 DUP6 DUP3 DUP7 ADD PUSH2 0x2126 JUMP JUMPDEST SWAP2 POP POP SWAP3 POP SWAP3 SWAP1 POP JUMP JUMPDEST PUSH2 0x22AB DUP2 PUSH2 0x2107 JUMP JUMPDEST DUP3 MSTORE POP POP JUMP JUMPDEST PUSH2 0x22BA DUP2 PUSH2 0x21FE JUMP JUMPDEST DUP3 MSTORE POP POP JUMP JUMPDEST PUSH0 DUP2 MLOAD SWAP1 POP SWAP2 SWAP1 POP JUMP JUMPDEST PUSH0 DUP3 DUP3 MSTORE PUSH1 0x20 DUP3 ADD SWAP1 POP SWAP3 SWAP2 POP POP JUMP JUMPDEST PUSH0 JUMPDEST DUP4 DUP2 LT ISZERO PUSH2 0x22F7 JUMPI DUP1 DUP3 ADD MLOAD DUP2 DUP5 ADD MSTORE PUSH1 0x20 DUP2 ADD SWAP1 POP PUSH2 0x22DC JUMP JUMPDEST PUSH0 DUP5 DUP5 ADD MSTORE POP POP POP POP JUMP JUMPDEST PUSH0 PUSH2 0x230C DUP3 PUSH2 0x22C0 JUMP JUMPDEST PUSH2 0x2316 DUP2 DUP6 PUSH2 0x22CA JUMP JUMPDEST SWAP4 POP PUSH2 0x2326 DUP2 DUP6 PUSH1 0x20 DUP7 ADD PUSH2 0x22DA JUMP JUMPDEST PUSH2 0x232F DUP2 PUSH2 0x1FD3 JUMP JUMPDEST DUP5 ADD SWAP2 POP POP SWAP3 SWAP2 POP POP JUMP JUMPDEST PUSH0 PUSH2 0x120 DUP3 ADD SWAP1 POP PUSH2 0x234E PUSH0 DUP4 ADD DUP13 PUSH2 0x22A2 JUMP JUMPDEST PUSH2 0x235B PUSH1 0x20 DUP4 ADD DUP12 PUSH2 0x22B1 JUMP JUMPDEST DUP2 DUP2 SUB PUSH1 0x40 DUP4 ADD MSTORE PUSH2 0x236D DUP2 DUP11 PUSH2 0x2302 JUMP JUMPDEST SWAP1 POP PUSH2 0x237C PUSH1 0x60 DUP4 ADD DUP10 PUSH2 0x22A2 JUMP JUMPDEST PUSH2 0x2389 PUSH1 0x80 DUP4 ADD DUP9 PUSH2 0x22A2 JUMP JUMPDEST PUSH2 0x2396 PUSH1 0xA0 DUP4 ADD DUP8 PUSH2 0x22A2 JUMP JUMPDEST PUSH2 0x23A3 PUSH1 0xC0 DUP4 ADD DUP7 PUSH2 0x22A2 JUMP JUMPDEST PUSH2 0x23B0 PUSH1 0xE0 DUP4 ADD DUP6 PUSH2 0x22A2 JUMP JUMPDEST PUSH2 0x23BE PUSH2 0x100 DUP4 ADD DUP5 PUSH2 0x22A2 JUMP JUMPDEST SWAP11 SWAP10 POP POP POP POP POP POP POP POP POP POP JUMP JUMPDEST PUSH0 PUSH1 0x20 DUP3 DUP5 SUB SLT ISZERO PUSH2 0x23E1 JUMPI PUSH2 0x23E0 PUSH2 0x1FC3 JUMP JUMPDEST JUMPDEST PUSH0 PUSH2 0x23EE DUP5 DUP3 DUP6 ADD PUSH2 0x2126 JUMP JUMPDEST SWAP2 POP POP SWAP3 SWAP2 POP POP JUMP JUMPDEST PUSH0 PUSH2 0x120 DUP3 ADD SWAP1 POP PUSH2 0x240B PUSH0 DUP4 ADD DUP13 PUSH2 0x22A2 JUMP JUMPDEST PUSH2 0x2418 PUSH1 0x20 DUP4 ADD DUP12 PUSH2 0x22B1 JUMP JUMPDEST PUSH2 0x2425 PUSH1 0x40 DUP4 ADD DUP11 PUSH2 0x22A2 JUMP JUMPDEST PUSH2 0x2432 PUSH1 0x60 DUP4 ADD DUP10 PUSH2 0x22A2 JUMP JUMPDEST PUSH2 0x243F PUSH1 0x80 DUP4 ADD DUP9 PUSH2 0x22A2 JUMP JUMPDEST PUSH2 0x244C PUSH1 0xA0 DUP4 ADD DUP8 PUSH2 0x22A2 JUMP JUMPDEST PUSH2 0x2459 PUSH1 0xC0 DUP4 ADD DUP7 PUSH2 0x22A2 JUMP JUMPDEST PUSH2 0x2466 PUSH1 0xE0 DUP4 ADD DUP6 PUSH2 0x22A2 JUMP JUMPDEST PUSH2 0x2474 PUSH2 0x100 DUP4 ADD DUP5 PUSH2 0x22A2 JUMP JUMPDEST SWAP11 SWAP10 POP POP POP POP POP POP POP POP POP POP JUMP JUMPDEST PUSH0 DUP2 MLOAD SWAP1 POP SWAP2 SWAP1 POP JUMP JUMPDEST PUSH0 DUP3 DUP3 MSTORE PUSH1 0x20 DUP3 ADD SWAP1 POP SWAP3 SWAP2 POP POP JUMP JUMPDEST PUSH0 DUP2 SWAP1 POP PUSH1 0x20 DUP3 ADD SWAP1 POP SWAP2 SWAP1 POP JUMP JUMPDEST PUSH2 0x24B4 DUP2 PUSH2 0x2107 JUMP JUMPDEST DUP3 MSTORE POP POP JUMP JUMPDEST PUSH2 0x24C3 DUP2 PUSH2 0x21FE JUMP JUMPDEST DUP3 MSTORE POP POP JUMP JUMPDEST PUSH1 0xC0 DUP3 ADD PUSH0 DUP3 ADD MLOAD PUSH2 0x24DD PUSH0 DUP6 ADD DUP3 PUSH2 0x24AB JUMP JUMPDEST POP PUSH1 0x20 DUP3 ADD MLOAD PUSH2 0x24F0 PUSH1 0x20 DUP6 ADD DUP3 PUSH2 0x24BA JUMP JUMPDEST POP PUSH1 0x40 DUP3 ADD MLOAD PUSH2 0x2503 PUSH1 0x40 DUP6 ADD DUP3 PUSH2 0x24AB JUMP JUMPDEST POP PUSH1 0x60 DUP3 ADD MLOAD PUSH2 0x2516 PUSH1 0x60 DUP6 ADD DUP3 PUSH2 0x24AB JUMP JUMPDEST POP PUSH1 0x80 DUP3 ADD MLOAD PUSH2 0x2529 PUSH1 0x80 DUP6 ADD DUP3 PUSH2 0x24AB JUMP JUMPDEST POP PUSH1 0xA0 DUP3 ADD MLOAD PUSH2 0x253C PUSH1 0xA0 DUP6 ADD DUP3 PUSH2 0x24AB JUMP JUMPDEST POP POP POP POP JUMP JUMPDEST PUSH0 PUSH2 0x254D DUP4 DUP4 PUSH2 0x24C9 JUMP JUMPDEST PUSH1 0xC0 DUP4 ADD SWAP1 POP SWAP3 SWAP2 POP POP JUMP JUMPDEST PUSH0 PUSH1 0x20 DUP3 ADD SWAP1 POP SWAP2 SWAP1 POP JUMP JUMPDEST PUSH0 PUSH2 0x256F DUP3 PUSH2 0x2482 JUMP JUMPDEST PUSH2 0x2579 DUP2 DUP6 PUSH2 0x248C JUMP JUMPDEST SWAP4 POP PUSH2 0x2584 DUP4 PUSH2 0x249C JUMP JUMPDEST DUP1 PUSH0 JUMPDEST DUP4 DUP2 LT ISZERO PUSH2 0x25B4 JUMPI DUP2 MLOAD PUSH2 0x259B DUP9 DUP3 PUSH2 0x2542 JUMP JUMPDEST SWAP8 POP PUSH2 0x25A6 DUP4 PUSH2 0x2559 JUMP JUMPDEST SWAP3 POP POP PUSH1 0x1 DUP2 ADD SWAP1 POP PUSH2 0x2587 JUMP JUMPDEST POP DUP6 SWAP4 POP POP POP POP SWAP3 SWAP2 POP POP JUMP JUMPDEST PUSH0 PUSH1 0x20 DUP3 ADD SWAP1 POP DUP2 DUP2 SUB PUSH0 DUP4 ADD MSTORE PUSH2 0x25D9 DUP2 DUP5 PUSH2 0x2565 JUMP JUMPDEST SWAP1 POP SWAP3 SWAP2 POP POP JUMP JUMPDEST PUSH0 DUP1 PUSH0 DUP1 PUSH1 0x80 DUP6 DUP8 SUB SLT ISZERO PUSH2 0x25F9 JUMPI PUSH2 0x25F8 PUSH2 0x1FC3 JUMP JUMPDEST JUMPDEST PUSH0 PUSH2 0x2606 DUP8 DUP3 DUP9 ADD PUSH2 0x2126 JUMP JUMPDEST SWAP5 POP POP PUSH1 0x20 PUSH2 0x2617 DUP8 DUP3 DUP9 ADD PUSH2 0x2126 JUMP JUMPDEST SWAP4 POP POP PUSH1 0x40 PUSH2 0x2628 DUP8 DUP3 DUP9 ADD PUSH2 0x2126 JUMP JUMPDEST SWAP3 POP POP PUSH1 0x60 PUSH2 0x2639 DUP8 DUP3 DUP9 ADD PUSH2 0x2126 JUMP JUMPDEST SWAP2 POP POP SWAP3 SWAP6 SWAP2 SWAP5 POP SWAP3 POP JUMP JUMPDEST PUSH0 PUSH1 0xC0 DUP3 ADD SWAP1 POP PUSH2 0x2658 PUSH0 DUP4 ADD DUP10 PUSH2 0x22A2 JUMP JUMPDEST PUSH2 0x2665 PUSH1 0x20 DUP4 ADD DUP9 PUSH2 0x22B1 JUMP JUMPDEST PUSH2 0x2672 PUSH1 0x40 DUP4 ADD DUP8 PUSH2 0x22A2 JUMP JUMPDEST PUSH2 0x267F PUSH1 0x60 DUP4 ADD DUP7 PUSH2 0x22A2 JUMP JUMPDEST PUSH2 0x268C PUSH1 0x80 DUP4 ADD DUP6 PUSH2 0x22A2 JUMP JUMPDEST PUSH2 0x2699 PUSH1 0xA0 DUP4 ADD DUP5 PUSH2 0x22A2 JUMP JUMPDEST SWAP8 SWAP7 POP POP POP POP POP POP POP JUMP JUMPDEST PUSH0 DUP1 PUSH0 PUSH1 0x60 DUP5 DUP7 SUB SLT ISZERO PUSH2 0x26BB JUMPI PUSH2 0x26BA PUSH2 0x1FC3 JUMP JUMPDEST JUMPDEST PUSH0 PUSH2 0x26C8 DUP7 DUP3 DUP8 ADD PUSH2 0x2126 JUMP JUMPDEST SWAP4 POP POP PUSH1 0x20 PUSH2 0x26D9 DUP7 DUP3 DUP8 ADD PUSH2 0x2126 JUMP JUMPDEST SWAP3 POP POP PUSH1 0x40 PUSH2 0x26EA DUP7 DUP3 DUP8 ADD PUSH2 0x2126 JUMP JUMPDEST SWAP2 POP POP SWAP3 POP SWAP3 POP SWAP3 JUMP JUMPDEST PUSH0 DUP2 MLOAD SWAP1 POP SWAP2 SWAP1 POP JUMP JUMPDEST PUSH0 DUP3 DUP3 MSTORE PUSH1 0x20 DUP3 ADD SWAP1 POP SWAP3 SWAP2 POP POP JUMP JUMPDEST PUSH0 DUP2 SWAP1 POP PUSH1 0x20 DUP3 ADD SWAP1 POP SWAP2 SWAP1 POP JUMP JUMPDEST PUSH0 DUP3 DUP3 MSTORE PUSH1 0x20 DUP3 ADD SWAP1 POP SWAP3 SWAP2 POP POP JUMP JUMPDEST PUSH0 PUSH2 0x2737 DUP3 PUSH2 0x22C0 JUMP JUMPDEST PUSH2 0x2741 DUP2 DUP6 PUSH2 0x271D JUMP JUMPDEST SWAP4 POP PUSH2 0x2751 DUP2 DUP6 PUSH1 0x20 DUP7 ADD PUSH2 0x22DA JUMP JUMPDEST PUSH2 0x275A DUP2 PUSH2 0x1FD3 JUMP JUMPDEST DUP5 ADD SWAP2 POP POP SWAP3 SWAP2 POP POP JUMP JUMPDEST PUSH0 PUSH2 0x120 DUP4 ADD PUSH0 DUP4 ADD MLOAD PUSH2 0x277B PUSH0 DUP7 ADD DUP3 PUSH2 0x24AB JUMP JUMPDEST POP PUSH1 0x20 DUP4 ADD MLOAD PUSH2 0x278E PUSH1 0x20 DUP7 ADD DUP3 PUSH2 0x24BA JUMP JUMPDEST POP PUSH1 0x40 DUP4 ADD MLOAD DUP5 DUP3 SUB PUSH1 0x40 DUP7 ADD MSTORE PUSH2 0x27A6 DUP3 DUP3 PUSH2 0x272D JUMP JUMPDEST SWAP2 POP POP PUSH1 0x60 DUP4 ADD MLOAD PUSH2 0x27BB PUSH1 0x60 DUP7 ADD DUP3 PUSH2 0x24AB JUMP JUMPDEST POP PUSH1 0x80 DUP4 ADD MLOAD PUSH2 0x27CE PUSH1 0x80 DUP7 ADD DUP3 PUSH2 0x24AB JUMP JUMPDEST POP PUSH1 0xA0 DUP4 ADD MLOAD PUSH2 0x27E1 PUSH1 0xA0 DUP7 ADD DUP3 PUSH2 0x24AB JUMP JUMPDEST POP PUSH1 0xC0 DUP4 ADD MLOAD PUSH2 0x27F4 PUSH1 0xC0 DUP7 ADD DUP3 PUSH2 0x24AB JUMP JUMPDEST POP PUSH1 0xE0 DUP4 ADD MLOAD PUSH2 0x2807 PUSH1 0xE0 DUP7 ADD DUP3 PUSH2 0x24AB JUMP JUMPDEST POP PUSH2 0x100 DUP4 ADD MLOAD PUSH2 0x281C PUSH2 0x100 DUP7 ADD DUP3 PUSH2 0x24AB JUMP JUMPDEST POP DUP1 SWAP2 POP POP SWAP3 SWAP2 POP POP JUMP JUMPDEST PUSH0 PUSH2 0x2832 DUP4 DUP4 PUSH2 0x2765 JUMP JUMPDEST SWAP1 POP SWAP3 SWAP2 POP POP JUMP JUMPDEST PUSH0 PUSH1 0x20 DUP3 ADD SWAP1 POP SWAP2 SWAP1 POP JUMP JUMPDEST PUSH0 PUSH2 0x2850 DUP3 PUSH2 0x26F4 JUMP JUMPDEST PUSH2 0x285A DUP2 DUP6 PUSH2 0x26FE JUMP JUMPDEST SWAP4 POP DUP4 PUSH1 0x20 DUP3 MUL DUP6 ADD PUSH2 0x286C DUP6 PUSH2 0x270E JUMP JUMPDEST DUP1 PUSH0 JUMPDEST DUP6 DUP2 LT ISZERO PUSH2 0x28A7 JUMPI DUP5 DUP5 SUB DUP10 MSTORE DUP2 MLOAD PUSH2 0x2888 DUP6 DUP3 PUSH2 0x2827 JUMP JUMPDEST SWAP5 POP PUSH2 0x2893 DUP4 PUSH2 0x283A JUMP JUMPDEST SWAP3 POP PUSH1 0x20 DUP11 ADD SWAP10 POP POP PUSH1 0x1 DUP2 ADD SWAP1 POP PUSH2 0x286F JUMP JUMPDEST POP DUP3 SWAP8 POP DUP8 SWAP6 POP POP POP POP POP POP SWAP3 SWAP2 POP POP JUMP JUMPDEST PUSH0 PUSH1 0x20 DUP3 ADD SWAP1 POP DUP2 DUP2 SUB PUSH0 DUP4 ADD MSTORE PUSH2 0x28D1 DUP2 DUP5 PUSH2 0x2846 JUMP JUMPDEST SWAP1 POP SWAP3 SWAP2 POP POP JUMP JUMPDEST PUSH0 DUP2 MLOAD SWAP1 POP SWAP2 SWAP1 POP JUMP JUMPDEST PUSH0 DUP3 DUP3 MSTORE PUSH1 0x20 DUP3 ADD SWAP1 POP SWAP3 SWAP2 POP POP JUMP JUMPDEST PUSH0 DUP2 SWAP1 POP PUSH1 0x20 DUP3 ADD SWAP1 POP SWAP2 SWAP1 POP JUMP JUMPDEST PUSH2 0x120 DUP3 ADD PUSH0 DUP3 ADD MLOAD PUSH2 0x2917 PUSH0 DUP6 ADD DUP3 PUSH2 0x24AB JUMP JUMPDEST POP PUSH1 0x20 DUP3 ADD MLOAD PUSH2 0x292A PUSH1 0x20 DUP6 ADD DUP3 PUSH2 0x24BA JUMP JUMPDEST POP PUSH1 0x40 DUP3 ADD MLOAD PUSH2 0x293D PUSH1 0x40 DUP6 ADD DUP3 PUSH2 0x24AB JUMP JUMPDEST POP PUSH1 0x60 DUP3 ADD MLOAD PUSH2 0x2950 PUSH1 0x60 DUP6 ADD DUP3 PUSH2 0x24AB JUMP JUMPDEST POP PUSH1 0x80 DUP3 ADD MLOAD PUSH2 0x2963 PUSH1 0x80 DUP6 ADD DUP3 PUSH2 0x24AB JUMP JUMPDEST POP PUSH1 0xA0 DUP3 ADD MLOAD PUSH2 0x2976 PUSH1 0xA0 DUP6 ADD DUP3 PUSH2 0x24AB JUMP JUMPDEST POP PUSH1 0xC0 DUP3 ADD MLOAD PUSH2 0x2989 PUSH1 0xC0 DUP6 ADD DUP3 PUSH2 0x24AB JUMP JUMPDEST POP PUSH1 0xE0 DUP3 ADD MLOAD PUSH2 0x299C PUSH1 0xE0 DUP6 ADD DUP3 PUSH2 0x24AB JUMP JUMPDEST POP PUSH2 0x100 DUP3 ADD MLOAD PUSH2 0x29B1 PUSH2 0x100 DUP6 ADD DUP3 PUSH2 0x24AB JUMP JUMPDEST POP POP POP POP JUMP JUMPDEST PUSH0 PUSH2 0x29C2 DUP4 DUP4 PUSH2 0x2902 JUMP JUMPDEST PUSH2 0x120 DUP4 ADD SWAP1 POP SWAP3 SWAP2 POP POP JUMP JUMPDEST PUSH0 PUSH1 0x20 DUP3 ADD SWAP1 POP SWAP2 SWAP1 POP JUMP JUMPDEST PUSH0 PUSH2 0x29E5 DUP3 PUSH2 0x28D9 JUMP JUMPDEST PUSH2 0x29EF DUP2 DUP6 PUSH2 0x28E3 JUMP JUMPDEST SWAP4 POP PUSH2 0x29FA DUP4 PUSH2 0x28F3 JUMP JUMPDEST DUP1 PUSH0 JUMPDEST DUP4 DUP2 LT ISZERO PUSH2 0x2A2A JUMPI DUP2 MLOAD PUSH2 0x2A11 DUP9 DUP3 PUSH2 0x29B7 JUMP JUMPDEST SWAP8 POP PUSH2 0x2A1C DUP4 PUSH2 0x29CF JUMP JUMPDEST SWAP3 POP POP PUSH1 0x1 DUP2 ADD SWAP1 POP PUSH2 0x29FD JUMP JUMPDEST POP DUP6 SWAP4 POP POP POP POP SWAP3 SWAP2 POP POP JUMP JUMPDEST PUSH0 PUSH1 0x20 DUP3 ADD SWAP1 POP DUP2 DUP2 SUB PUSH0 DUP4 ADD MSTORE PUSH2 0x2A4F DUP2 DUP5 PUSH2 0x29DB JUMP JUMPDEST SWAP1 POP SWAP3 SWAP2 POP POP JUMP JUMPDEST PUSH32 0x4E487B7100000000000000000000000000000000000000000000000000000000 PUSH0 MSTORE PUSH1 0x22 PUSH1 0x4 MSTORE PUSH1 0x24 PUSH0 REVERT JUMPDEST PUSH0 PUSH1 0x2 DUP3 DIV SWAP1 POP PUSH1 0x1 DUP3 AND DUP1 PUSH2 0x2A9B JUMPI PUSH1 0x7F DUP3 AND SWAP2 POP JUMPDEST PUSH1 0x20 DUP3 LT DUP2 SUB PUSH2 0x2AAE JUMPI PUSH2 0x2AAD PUSH2 0x2A57 JUMP JUMPDEST JUMPDEST POP SWAP2 SWAP1 POP JUMP JUMPDEST PUSH0 DUP2 SWAP1 POP DUP2 PUSH0 MSTORE PUSH1 0x20 PUSH0 KECCAK256 SWAP1 POP SWAP2 SWAP1 POP JUMP JUMPDEST PUSH0 PUSH1 0x20 PUSH1 0x1F DUP4 ADD DIV SWAP1 POP SWAP2 SWAP1 POP JUMP JUMPDEST PUSH0 DUP3 DUP3 SHL SWAP1 POP SWAP3 SWAP2 POP POP JUMP JUMPDEST PUSH0 PUSH1 0x8 DUP4 MUL PUSH2 0x2B10 PUSH32 0xFFFFFFFFFFFFFFFFFFFFFFFFFFFFFFFFFFFFFFFFFFFFFFFFFFFFFFFFFFFFFFFF DUP3 PUSH2 0x2AD5 JUMP JUMPDEST PUSH2 0x2B1A DUP7 DUP4 PUSH2 0x2AD5 JUMP JUMPDEST SWAP6 POP DUP1 NOT DUP5 AND SWAP4 POP DUP1 DUP7 AND DUP5 OR SWAP3 POP POP POP SWAP4 SWAP3 POP POP POP JUMP JUMPDEST PUSH0 DUP2 SWAP1 POP SWAP2 SWAP1 POP JUMP JUMPDEST PUSH0 PUSH2 0x2B55 PUSH2 0x2B50 PUSH2 0x2B4B DUP5 PUSH2 0x2107 JUMP JUMPDEST PUSH2 0x2B32 JUMP JUMPDEST PUSH2 0x2107 JUMP JUMPDEST SWAP1 POP SWAP2 SWAP1 POP JUMP JUMPDEST PUSH0 DUP2 SWAP1 POP SWAP2 SWAP1 POP JUMP JUMPDEST PUSH2 0x2B6E DUP4 PUSH2 0x2B3B JUMP JUMPDEST PUSH2 0x2B82 PUSH2 0x2B7A DUP3 PUSH2 0x2B5C JUMP JUMPDEST DUP5 DUP5 SLOAD PUSH2 0x2AE1 JUMP JUMPDEST DUP3 SSTORE POP POP POP POP JUMP JUMPDEST PUSH0 SWAP1 JUMP JUMPDEST PUSH2 0x2B96 PUSH2 0x2B8A JUMP JUMPDEST PUSH2 0x2BA1 DUP2 DUP5 DUP5 PUSH2 0x2B65 JUMP JUMPDEST POP POP POP JUMP JUMPDEST JUMPDEST DUP2 DUP2 LT ISZERO PUSH2 0x2BC4 JUMPI PUSH2 0x2BB9 PUSH0 DUP3 PUSH2 0x2B8E JUMP JUMPDEST PUSH1 0x1 DUP2 ADD SWAP1 POP PUSH2 0x2BA7 JUMP JUMPDEST POP POP JUMP JUMPDEST PUSH1 0x1F DUP3 GT ISZERO PUSH2 0x2C09 JUMPI PUSH2 0x2BDA DUP2 PUSH2 0x2AB4 JUMP JUMPDEST PUSH2 0x2BE3 DUP5 PUSH2 0x2AC6 JUMP JUMPDEST DUP2 ADD PUSH1 0x20 DUP6 LT ISZERO PUSH2 0x2BF2 JUMPI DUP2 SWAP1 POP JUMPDEST PUSH2 0x2C06 PUSH2 0x2BFE DUP6 PUSH2 0x2AC6 JUMP JUMPDEST DUP4 ADD DUP3 PUSH2 0x2BA6 JUMP JUMPDEST POP POP JUMPDEST POP POP POP JUMP JUMPDEST PUSH0 DUP3 DUP3 SHR SWAP1 POP SWAP3 SWAP2 POP POP JUMP JUMPDEST PUSH0 PUSH2 0x2C29 PUSH0 NOT DUP5 PUSH1 0x8 MUL PUSH2 0x2C0E JUMP JUMPDEST NOT DUP1 DUP4 AND SWAP2 POP POP SWAP3 SWAP2 POP POP JUMP JUMPDEST PUSH0 PUSH2 0x2C41 DUP4 DUP4 PUSH2 0x2C1A JUMP JUMPDEST SWAP2 POP DUP3 PUSH1 0x2 MUL DUP3 OR SWAP1 POP SWAP3 SWAP2 POP POP JUMP JUMPDEST PUSH2 0x2C5A DUP3 PUSH2 0x22C0 JUMP JUMPDEST PUSH8 0xFFFFFFFFFFFFFFFF DUP2 GT ISZERO PUSH2 0x2C73 JUMPI PUSH2 0x2C72 PUSH2 0x1FE3 JUMP JUMPDEST JUMPDEST PUSH2 0x2C7D DUP3 SLOAD PUSH2 0x2A84 JUMP JUMPDEST PUSH2 0x2C88 DUP3 DUP3 DUP6 PUSH2 0x2BC8 JUMP JUMPDEST PUSH0 PUSH1 0x20 SWAP1 POP PUSH1 0x1F DUP4 GT PUSH1 0x1 DUP2 EQ PUSH2 0x2CB9 JUMPI PUSH0 DUP5 ISZERO PUSH2 0x2CA7 JUMPI DUP3 DUP8 ADD MLOAD SWAP1 POP JUMPDEST PUSH2 0x2CB1 DUP6 DUP3 PUSH2 0x2C36 JUMP JUMPDEST DUP7 SSTORE POP PUSH2 0x2D18 JUMP JUMPDEST PUSH1 0x1F NOT DUP5 AND PUSH2 0x2CC7 DUP7 PUSH2 0x2AB4 JUMP JUMPDEST PUSH0 JUMPDEST DUP3 DUP2 LT ISZERO PUSH2 0x2CEE JUMPI DUP5 DUP10 ADD MLOAD DUP3 SSTORE PUSH1 0x1 DUP3 ADD SWAP2 POP PUSH1 0x20 DUP6 ADD SWAP5 POP PUSH1 0x20 DUP2 ADD SWAP1 POP PUSH2 0x2CC9 JUMP JUMPDEST DUP7 DUP4 LT ISZERO PUSH2 0x2D0B JUMPI DUP5 DUP10 ADD MLOAD PUSH2 0x2D07 PUSH1 0x1F DUP10 AND DUP3 PUSH2 0x2C1A JUMP JUMPDEST DUP4 SSTORE POP JUMPDEST PUSH1 0x1 PUSH1 0x2 DUP9 MUL ADD DUP9 SSTORE POP POP POP JUMPDEST POP POP POP POP POP POP JUMP JUMPDEST PUSH32 0x4E487B7100000000000000000000000000000000000000000000000000000000 PUSH0 MSTORE PUSH1 0x32 PUSH1 0x4 MSTORE PUSH1 0x24 PUSH0 REVERT JUMPDEST PUSH0 DUP2 SLOAD SWAP1 POP PUSH2 0x2D5B DUP2 PUSH2 0x2A84 JUMP JUMPDEST SWAP1 POP SWAP2 SWAP1 POP JUMP JUMPDEST DUP2 DUP2 SUB PUSH2 0x2D70 JUMPI POP POP PUSH2 0x2E45 JUMP JUMPDEST PUSH2 0x2D79 DUP3 PUSH2 0x2D4D JUMP JUMPDEST PUSH8 0xFFFFFFFFFFFFFFFF DUP2 GT ISZERO PUSH2 0x2D92 JUMPI PUSH2 0x2D91 PUSH2 0x1FE3 JUMP JUMPDEST JUMPDEST PUSH2 0x2D9C DUP3 SLOAD PUSH2 0x2A84 JUMP JUMPDEST PUSH2 0x2DA7 DUP3 DUP3 DUP6 PUSH2 0x2BC8 JUMP JUMPDEST PUSH0 PUSH1 0x1F DUP4 GT PUSH1 0x1 DUP2 EQ PUSH2 0x2DD4 JUMPI PUSH0 DUP5 ISZERO PUSH2 0x2DC2 JUMPI DUP3 DUP8 ADD SLOAD SWAP1 POP JUMPDEST PUSH2 0x2DCC DUP6 DUP3 PUSH2 0x2C36 JUMP JUMPDEST DUP7 SSTORE POP PUSH2 0x2E3E JUMP JUMPDEST PUSH1 0x1F NOT DUP5 AND PUSH2 0x2DE2 DUP8 PUSH2 0x2AB4 JUMP JUMPDEST SWAP7 POP PUSH2 0x2DED DUP7 PUSH2 0x2AB4 JUMP JUMPDEST PUSH0 JUMPDEST DUP3 DUP2 LT ISZERO PUSH2 0x2E14 JUMPI DUP5 DUP10 ADD SLOAD DUP3 SSTORE PUSH1 0x1 DUP3 ADD SWAP2 POP PUSH1 0x1 DUP6 ADD SWAP5 POP PUSH1 0x20 DUP2 ADD SWAP1 POP PUSH2 0x2DEF JUMP JUMPDEST DUP7 DUP4 LT ISZERO PUSH2 0x2E31 JUMPI DUP5 DUP10 ADD SLOAD PUSH2 0x2E2D PUSH1 0x1F DUP10 AND DUP3 PUSH2 0x2C1A JUMP JUMPDEST DUP4 SSTORE POP JUMPDEST PUSH1 0x1 PUSH1 0x2 DUP9 MUL ADD DUP9 SSTORE POP POP POP JUMPDEST POP POP POP POP POP POP JUMPDEST JUMP JUMPDEST PUSH0 PUSH1 0x40 DUP3 ADD SWAP1 POP PUSH2 0x2E5A PUSH0 DUP4 ADD DUP6 PUSH2 0x22A2 JUMP JUMPDEST PUSH2 0x2E67 PUSH1 0x20 DUP4 ADD DUP5 PUSH2 0x22B1 JUMP JUMPDEST SWAP4 SWAP3 POP POP POP JUMP JUMPDEST PUSH32 0x4E487B7100000000000000000000000000000000000000000000000000000000 PUSH0 MSTORE PUSH1 0x11 PUSH1 0x4 MSTORE PUSH1 0x24 PUSH0 REVERT JUMPDEST PUSH0 PUSH2 0x2EA5 DUP3 PUSH2 0x2107 JUMP JUMPDEST SWAP2 POP PUSH2 0x2EB0 DUP4 PUSH2 0x2107 JUMP JUMPDEST SWAP3 POP DUP3 DUP3 MUL PUSH2 0x2EBE DUP2 PUSH2 0x2107 JUMP JUMPDEST SWAP2 POP DUP3 DUP3 DIV DUP5 EQ DUP4 ISZERO OR PUSH2 0x2ED5 JUMPI PUSH2 0x2ED4 PUSH2 0x2E6E JUMP JUMPDEST JUMPDEST POP SWAP3 SWAP2 POP POP JUMP JUMPDEST PUSH0 PUSH2 0x2EE6 DUP3 PUSH2 0x2107 JUMP JUMPDEST SWAP2 POP PUSH2 0x2EF1 DUP4 PUSH2 0x2107 JUMP JUMPDEST SWAP3 POP DUP3 DUP3 ADD SWAP1 POP DUP1 DUP3 GT ISZERO PUSH2 0x2F09 JUMPI PUSH2 0x2F08 PUSH2 0x2E6E JUMP JUMPDEST JUMPDEST SWAP3 SWAP2 POP POP JUMP JUMPDEST PUSH32 0x616E6F7468657220726571756573742068617320616C7265616479206265656E PUSH0 DUP3 ADD MSTORE PUSH32 0x2061636365707465642100000000000000000000000000000000000000000000 PUSH1 0x20 DUP3 ADD MSTORE POP JUMP JUMPDEST PUSH0 PUSH2 0x2F69 PUSH1 0x2A DUP4 PUSH2 0x22CA JUMP JUMPDEST SWAP2 POP PUSH2 0x2F74 DUP3 PUSH2 0x2F0F JUMP JUMPDEST PUSH1 0x40 DUP3 ADD SWAP1 POP SWAP2 SWAP1 POP JUMP JUMPDEST PUSH0 PUSH1 0x20 DUP3 ADD SWAP1 POP DUP2 DUP2 SUB PUSH0 DUP4 ADD MSTORE PUSH2 0x2F96 DUP2 PUSH2 0x2F5D JUMP JUMPDEST SWAP1 POP SWAP2 SWAP1 POP JUMP JUMPDEST PUSH0 PUSH1 0x60 DUP3 ADD SWAP1 POP PUSH2 0x2FB0 PUSH0 DUP4 ADD DUP7 PUSH2 0x22B1 JUMP JUMPDEST PUSH2 0x2FBD PUSH1 0x20 DUP4 ADD DUP6 PUSH2 0x22B1 JUMP JUMPDEST PUSH2 0x2FCA PUSH1 0x40 DUP4 ADD DUP5 PUSH2 0x22A2 JUMP JUMPDEST SWAP5 SWAP4 POP POP POP POP JUMP JUMPDEST PUSH32 0x796F75722072657175657374206861736E2774206265656E2061636365707465 PUSH0 DUP3 ADD MSTORE PUSH32 0x6400000000000000000000000000000000000000000000000000000000000000 PUSH1 0x20 DUP3 ADD MSTORE POP JUMP JUMPDEST PUSH0 PUSH2 0x302C PUSH1 0x21 DUP4 PUSH2 0x22CA JUMP JUMPDEST SWAP2 POP PUSH2 0x3037 DUP3 PUSH2 0x2FD2 JUMP JUMPDEST PUSH1 0x40 DUP3 ADD SWAP1 POP SWAP2 SWAP1 POP JUMP JUMPDEST PUSH0 PUSH1 0x20 DUP3 ADD SWAP1 POP DUP2 DUP2 SUB PUSH0 DUP4 ADD MSTORE PUSH2 0x3059 DUP2 PUSH2 0x3020 JUMP JUMPDEST SWAP1 POP SWAP2 SWAP1 POP JUMP JUMPDEST PUSH32 0x496E636F7272656374207061796D656E74200000000000000000000000000000 PUSH0 DUP3 ADD MSTORE POP JUMP JUMPDEST PUSH0 PUSH2 0x3094 PUSH1 0x12 DUP4 PUSH2 0x22CA JUMP JUMPDEST SWAP2 POP PUSH2 0x309F DUP3 PUSH2 0x3060 JUMP JUMPDEST PUSH1 0x20 DUP3 ADD SWAP1 POP SWAP2 SWAP1 POP JUMP JUMPDEST PUSH0 PUSH1 0x20 DUP3 ADD SWAP1 POP DUP2 DUP2 SUB PUSH0 DUP4 ADD MSTORE PUSH2 0x30C1 DUP2 PUSH2 0x3088 JUMP JUMPDEST SWAP1 POP SWAP2 SWAP1 POP JUMP JUMPDEST PUSH0 PUSH2 0x30D2 DUP3 PUSH2 0x2107 JUMP JUMPDEST SWAP2 POP PUSH2 0x30DD DUP4 PUSH2 0x2107 JUMP JUMPDEST SWAP3 POP DUP3 DUP3 SUB SWAP1 POP DUP2 DUP2 GT ISZERO PUSH2 0x30F5 JUMPI PUSH2 0x30F4 PUSH2 0x2E6E JUMP JUMPDEST JUMPDEST SWAP3 SWAP2 POP POP JUMP JUMPDEST PUSH32 0x4E487B7100000000000000000000000000000000000000000000000000000000 PUSH0 MSTORE PUSH1 0x12 PUSH1 0x4 MSTORE PUSH1 0x24 PUSH0 REVERT JUMPDEST PUSH0 PUSH2 0x3132 DUP3 PUSH2 0x2107 JUMP JUMPDEST SWAP2 POP PUSH2 0x313D DUP4 PUSH2 0x2107 JUMP JUMPDEST SWAP3 POP DUP3 PUSH2 0x314D JUMPI PUSH2 0x314C PUSH2 0x30FB JUMP JUMPDEST JUMPDEST DUP3 DUP3 DIV SWAP1 POP SWAP3 SWAP2 POP POP JUMP JUMPDEST PUSH0 PUSH1 0xC0 DUP3 ADD SWAP1 POP PUSH2 0x316B PUSH0 DUP4 ADD DUP10 PUSH2 0x22A2 JUMP JUMPDEST PUSH2 0x3178 PUSH1 0x20 DUP4 ADD DUP9 PUSH2 0x22B1 JUMP JUMPDEST PUSH2 0x3185 PUSH1 0x40 DUP4 ADD DUP8 PUSH2 0x22B1 JUMP JUMPDEST PUSH2 0x3192 PUSH1 0x60 DUP4 ADD DUP7 PUSH2 0x22A2 JUMP JUMPDEST PUSH2 0x319F PUSH1 0x80 DUP4 ADD DUP6 PUSH2 0x22A2 JUMP JUMPDEST PUSH2 0x31AC PUSH1 0xA0 DUP4 ADD DUP5 PUSH2 0x22A2 JUMP JUMPDEST SWAP8 SWAP7 POP POP POP POP POP POP POP JUMP JUMPDEST PUSH32 0x486F757365206973206E6F7420617661696C61626C6500000000000000000000 PUSH0 DUP3 ADD MSTORE POP JUMP JUMPDEST PUSH0 PUSH2 0x31EB PUSH1 0x16 DUP4 PUSH2 0x22CA JUMP JUMPDEST SWAP2 POP PUSH2 0x31F6 DUP3 PUSH2 0x31B7 JUMP JUMPDEST PUSH1 0x20 DUP3 ADD SWAP1 POP SWAP2 SWAP1 POP JUMP JUMPDEST PUSH0 PUSH1 0x20 DUP3 ADD SWAP1 POP DUP2 DUP2 SUB PUSH0 DUP4 ADD MSTORE PUSH2 0x3218 DUP2 PUSH2 0x31DF JUMP JUMPDEST SWAP1 POP SWAP2 SWAP1 POP JUMP JUMPDEST PUSH0 PUSH1 0x40 DUP3 ADD SWAP1 POP PUSH2 0x3232 PUSH0 DUP4 ADD DUP6 PUSH2 0x22B1 JUMP JUMPDEST PUSH2 0x323F PUSH1 0x20 DUP4 ADD DUP5 PUSH2 0x22A2 JUMP JUMPDEST SWAP4 SWAP3 POP POP POP JUMP JUMPDEST PUSH32 0x596F7520646F6E2774206861766520616E20616D6F756E742064756520796574 PUSH0 DUP3 ADD MSTORE PUSH32 0x2100000000000000000000000000000000000000000000000000000000000000 PUSH1 0x20 DUP3 ADD MSTORE POP JUMP JUMPDEST PUSH0 PUSH2 0x32A0 PUSH1 0x21 DUP4 PUSH2 0x22CA JUMP JUMPDEST SWAP2 POP PUSH2 0x32AB DUP3 PUSH2 0x3246 JUMP JUMPDEST PUSH1 0x40 DUP3 ADD SWAP1 POP SWAP2 SWAP1 POP JUMP JUMPDEST PUSH0 PUSH1 0x20 DUP3 ADD SWAP1 POP DUP2 DUP2 SUB PUSH0 DUP4 ADD MSTORE PUSH2 0x32CD DUP2 PUSH2 0x3294 JUMP JUMPDEST SWAP1 POP SWAP2 SWAP1 POP JUMP JUMPDEST PUSH0 PUSH1 0x60 DUP3 ADD SWAP1 POP PUSH2 0x32E7 PUSH0 DUP4 ADD DUP7 PUSH2 0x22A2 JUMP JUMPDEST PUSH2 0x32F4 PUSH1 0x20 DUP4 ADD DUP6 PUSH2 0x22B1 JUMP JUMPDEST PUSH2 0x3301 PUSH1 0x40 DUP4 ADD DUP5 PUSH2 0x22A2 JUMP JUMPDEST SWAP5 SWAP4 POP POP POP POP JUMP INVALID LOG2 PUSH5 0x6970667358 0x22 SLT KECCAK256 PUSH13 0xEA84A35C4ECAC0051293F6E4DA BASEFEE CALLER 0xDB DUP6 0xC2 0xD7 EXP DUP4 0xBA LOG1 0xF SWAP13 SWAP15 0xB1 0x4D 0xE6 DUP16 BASEFEE PUSH5 0x736F6C6343 STOP ADDMOD AND STOP CALLER "
				},
				"gasEstimates": {
					"creation": {
						"codeDepositCost": "2623800",
						"executionCost": "2837",
						"totalCost": "2626637"
					},
					"external": {
						"acceptRequest(uint256)": "infinite",
						"getAllHouses()": "infinite",
						"getRentalData()": "infinite",
						"getRequests()": "infinite",
						"houses(uint256)": "infinite",
						"landlordHouses(address,uint256)": "infinite",
						"listHouse(string,uint256,uint256,uint256,uint256,uint256)": "infinite",
						"payRent(uint256)": "infinite",
						"rentHouse(uint256,uint256,uint256,uint256)": "infinite",
						"rentals(uint256)": "infinite",
						"requests(address,uint256)": "infinite",
						"sendRequest(uint256,uint256,uint256)": "infinite",
						"tenantRentals(address,uint256)": "infinite",
						"updateRentalData(address)": "infinite"
					}
				},
				"methodIdentifiers": {
					"acceptRequest(uint256)": "4ba1f098",
					"getAllHouses()": "d87deea8",
					"getRentalData()": "dc388605",
					"getRequests()": "8813ce12",
					"houses(uint256)": "aeda852f",
					"landlordHouses(address,uint256)": "39e110e1",
					"listHouse(string,uint256,uint256,uint256,uint256,uint256)": "296da249",
					"payRent(uint256)": "d9e8843f",
					"rentHouse(uint256,uint256,uint256,uint256)": "8f7d8e73",
					"rentals(uint256)": "af94a1d1",
					"requests(address,uint256)": "9ecebe2a",
					"sendRequest(uint256,uint256,uint256)": "b5c3005c",
					"tenantRentals(address,uint256)": "7607d62f",
					"updateRentalData(address)": "337a8e3c"
				}
			},
			"storageLayout": {
				"storage": [
					{
						"astId": 56,
						"contract": "HomeConnect/HouseRental.sol:HouseRental",
						"label": "houses",
						"offset": 0,
						"slot": "0",
						"type": "t_array(t_struct(House)20_storage)dyn_storage"
					},
					{
						"astId": 60,
						"contract": "HomeConnect/HouseRental.sol:HouseRental",
						"label": "rentals",
						"offset": 0,
						"slot": "1",
						"type": "t_array(t_struct(Rental)39_storage)dyn_storage"
					},
					{
						"astId": 66,
						"contract": "HomeConnect/HouseRental.sol:HouseRental",
						"label": "requests",
						"offset": 0,
						"slot": "2",
						"type": "t_mapping(t_address,t_array(t_struct(Request)52_storage)dyn_storage)"
					},
					{
						"astId": 72,
						"contract": "HomeConnect/HouseRental.sol:HouseRental",
						"label": "landlordHouses",
						"offset": 0,
						"slot": "3",
						"type": "t_mapping(t_address,t_array(t_struct(House)20_storage)dyn_storage)"
					},
					{
						"astId": 78,
						"contract": "HomeConnect/HouseRental.sol:HouseRental",
						"label": "tenantRentals",
						"offset": 0,
						"slot": "4",
						"type": "t_mapping(t_address,t_array(t_struct(Rental)39_storage)dyn_storage)"
					}
				],
				"types": {
					"t_address": {
						"encoding": "inplace",
						"label": "address",
						"numberOfBytes": "20"
					},
					"t_array(t_struct(House)20_storage)dyn_storage": {
						"base": "t_struct(House)20_storage",
						"encoding": "dynamic_array",
						"label": "struct HouseRental.House[]",
						"numberOfBytes": "32"
					},
					"t_array(t_struct(Rental)39_storage)dyn_storage": {
						"base": "t_struct(Rental)39_storage",
						"encoding": "dynamic_array",
						"label": "struct HouseRental.Rental[]",
						"numberOfBytes": "32"
					},
					"t_array(t_struct(Request)52_storage)dyn_storage": {
						"base": "t_struct(Request)52_storage",
						"encoding": "dynamic_array",
						"label": "struct HouseRental.Request[]",
						"numberOfBytes": "32"
					},
					"t_mapping(t_address,t_array(t_struct(House)20_storage)dyn_storage)": {
						"encoding": "mapping",
						"key": "t_address",
						"label": "mapping(address => struct HouseRental.House[])",
						"numberOfBytes": "32",
						"value": "t_array(t_struct(House)20_storage)dyn_storage"
					},
					"t_mapping(t_address,t_array(t_struct(Rental)39_storage)dyn_storage)": {
						"encoding": "mapping",
						"key": "t_address",
						"label": "mapping(address => struct HouseRental.Rental[])",
						"numberOfBytes": "32",
						"value": "t_array(t_struct(Rental)39_storage)dyn_storage"
					},
					"t_mapping(t_address,t_array(t_struct(Request)52_storage)dyn_storage)": {
						"encoding": "mapping",
						"key": "t_address",
						"label": "mapping(address => struct HouseRental.Request[])",
						"numberOfBytes": "32",
						"value": "t_array(t_struct(Request)52_storage)dyn_storage"
					},
					"t_string_storage": {
						"encoding": "bytes",
						"label": "string",
						"numberOfBytes": "32"
					},
					"t_struct(House)20_storage": {
						"encoding": "inplace",
						"label": "struct HouseRental.House",
						"members": [
							{
								"astId": 3,
								"contract": "HomeConnect/HouseRental.sol:HouseRental",
								"label": "houseId",
								"offset": 0,
								"slot": "0",
								"type": "t_uint256"
							},
							{
								"astId": 5,
								"contract": "HomeConnect/HouseRental.sol:HouseRental",
								"label": "landlord",
								"offset": 0,
								"slot": "1",
								"type": "t_address"
							},
							{
								"astId": 7,
								"contract": "HomeConnect/HouseRental.sol:HouseRental",
								"label": "description",
								"offset": 0,
								"slot": "2",
								"type": "t_string_storage"
							},
							{
								"astId": 9,
								"contract": "HomeConnect/HouseRental.sol:HouseRental",
								"label": "rentPerDay",
								"offset": 0,
								"slot": "3",
								"type": "t_uint256"
							},
							{
								"astId": 11,
								"contract": "HomeConnect/HouseRental.sol:HouseRental",
								"label": "deposit",
								"offset": 0,
								"slot": "4",
								"type": "t_uint256"
							},
							{
								"astId": 13,
								"contract": "HomeConnect/HouseRental.sol:HouseRental",
								"label": "paymentPeriod",
								"offset": 0,
								"slot": "5",
								"type": "t_uint256"
							},
							{
								"astId": 15,
								"contract": "HomeConnect/HouseRental.sol:HouseRental",
								"label": "minRentalPeriod",
								"offset": 0,
								"slot": "6",
								"type": "t_uint256"
							},
							{
								"astId": 17,
								"contract": "HomeConnect/HouseRental.sol:HouseRental",
								"label": "maxRentalPeriod",
								"offset": 0,
								"slot": "7",
								"type": "t_uint256"
							},
							{
								"astId": 19,
								"contract": "HomeConnect/HouseRental.sol:HouseRental",
								"label": "isAvailable",
								"offset": 0,
								"slot": "8",
								"type": "t_uint256"
							}
						],
						"numberOfBytes": "288"
					},
					"t_struct(Rental)39_storage": {
						"encoding": "inplace",
						"label": "struct HouseRental.Rental",
						"members": [
							{
								"astId": 22,
								"contract": "HomeConnect/HouseRental.sol:HouseRental",
								"label": "rentalId",
								"offset": 0,
								"slot": "0",
								"type": "t_uint256"
							},
							{
								"astId": 24,
								"contract": "HomeConnect/HouseRental.sol:HouseRental",
								"label": "tenant",
								"offset": 0,
								"slot": "1",
								"type": "t_address"
							},
							{
								"astId": 26,
								"contract": "HomeConnect/HouseRental.sol:HouseRental",
								"label": "houseId",
								"offset": 0,
								"slot": "2",
								"type": "t_uint256"
							},
							{
								"astId": 28,
								"contract": "HomeConnect/HouseRental.sol:HouseRental",
								"label": "startDate",
								"offset": 0,
								"slot": "3",
								"type": "t_uint256"
							},
							{
								"astId": 30,
								"contract": "HomeConnect/HouseRental.sol:HouseRental",
								"label": "endDate",
								"offset": 0,
								"slot": "4",
								"type": "t_uint256"
							},
							{
								"astId": 32,
								"contract": "HomeConnect/HouseRental.sol:HouseRental",
								"label": "dueDate",
								"offset": 0,
								"slot": "5",
								"type": "t_uint256"
							},
							{
								"astId": 34,
								"contract": "HomeConnect/HouseRental.sol:HouseRental",
								"label": "amountDue",
								"offset": 0,
								"slot": "6",
								"type": "t_uint256"
							},
							{
								"astId": 36,
								"contract": "HomeConnect/HouseRental.sol:HouseRental",
								"label": "totalAmountDue",
								"offset": 0,
								"slot": "7",
								"type": "t_uint256"
							},
							{
								"astId": 38,
								"contract": "HomeConnect/HouseRental.sol:HouseRental",
								"label": "isActive",
								"offset": 0,
								"slot": "8",
								"type": "t_uint256"
							}
						],
						"numberOfBytes": "288"
					},
					"t_struct(Request)52_storage": {
						"encoding": "inplace",
						"label": "struct HouseRental.Request",
						"members": [
							{
								"astId": 41,
								"contract": "HomeConnect/HouseRental.sol:HouseRental",
								"label": "requestId",
								"offset": 0,
								"slot": "0",
								"type": "t_uint256"
							},
							{
								"astId": 43,
								"contract": "HomeConnect/HouseRental.sol:HouseRental",
								"label": "tenant",
								"offset": 0,
								"slot": "1",
								"type": "t_address"
							},
							{
								"astId": 45,
								"contract": "HomeConnect/HouseRental.sol:HouseRental",
								"label": "houseId",
								"offset": 0,
								"slot": "2",
								"type": "t_uint256"
							},
							{
								"astId": 47,
								"contract": "HomeConnect/HouseRental.sol:HouseRental",
								"label": "startDate",
								"offset": 0,
								"slot": "3",
								"type": "t_uint256"
							},
							{
								"astId": 49,
								"contract": "HomeConnect/HouseRental.sol:HouseRental",
								"label": "endDate",
								"offset": 0,
								"slot": "4",
								"type": "t_uint256"
							},
							{
								"astId": 51,
								"contract": "HomeConnect/HouseRental.sol:HouseRental",
								"label": "isAccepted",
								"offset": 0,
								"slot": "5",
								"type": "t_uint256"
							}
						],
						"numberOfBytes": "192"
					},
					"t_uint256": {
						"encoding": "inplace",
						"label": "uint256",
						"numberOfBytes": "32"
					}
				}
			},
			"userdoc": {
				"kind": "user",
				"methods": {},
				"version": 1
			}
		}
	}
}