{
	"HomeConnect/HouseRental.sol": {
		"HouseRental": {
			"abi": [
				{
					"anonymous": false,
					"inputs": [
						{
							"indexed": false,
							"internalType": "uint256",
							"name": "houseId",
							"type": "uint256"
						},
						{
							"indexed": false,
							"internalType": "address",
							"name": "landlord",
							"type": "address"
						}
					],
					"name": "HouseListed",
					"type": "event"
				},
				{
					"anonymous": false,
					"inputs": [
						{
							"indexed": false,
							"internalType": "uint256",
							"name": "rentalId",
							"type": "uint256"
						},
						{
							"indexed": false,
							"internalType": "address",
							"name": "tenant",
							"type": "address"
						},
						{
							"indexed": false,
							"internalType": "address",
							"name": "landlord",
							"type": "address"
						},
						{
							"indexed": false,
							"internalType": "uint256",
							"name": "houseId",
							"type": "uint256"
						},
						{
							"indexed": false,
							"internalType": "uint256",
							"name": "startDate",
							"type": "uint256"
						},
						{
							"indexed": false,
							"internalType": "uint256",
							"name": "endDate",
							"type": "uint256"
						}
					],
					"name": "HouseRented",
					"type": "event"
				},
				{
					"anonymous": false,
					"inputs": [
						{
							"indexed": false,
							"internalType": "uint256",
							"name": "rentalId",
							"type": "uint256"
						},
						{
							"indexed": false,
							"internalType": "address",
							"name": "tenant",
							"type": "address"
						},
						{
							"indexed": false,
							"internalType": "uint256",
							"name": "amount",
							"type": "uint256"
						}
					],
					"name": "RentPaid",
					"type": "event"
				},
				{
					"anonymous": false,
					"inputs": [
						{
							"indexed": false,
							"internalType": "uint256",
							"name": "rentalId",
							"type": "uint256"
						},
						{
							"indexed": false,
							"internalType": "address",
							"name": "tenant",
							"type": "address"
						},
						{
							"indexed": false,
							"internalType": "uint256",
							"name": "houseId",
							"type": "uint256"
						}
					],
					"name": "RentalCompleted",
					"type": "event"
				},
				{
					"anonymous": false,
					"inputs": [
						{
							"indexed": false,
							"internalType": "uint256",
							"name": "rentalId",
							"type": "uint256"
						},
						{
							"indexed": false,
							"internalType": "address",
							"name": "tenant",
							"type": "address"
						}
					],
					"name": "RentalCompleted",
					"type": "event"
				},
				{
					"anonymous": false,
					"inputs": [
						{
							"indexed": false,
							"internalType": "address",
							"name": "landlord",
							"type": "address"
						},
						{
							"indexed": false,
							"internalType": "address",
							"name": "tenant",
							"type": "address"
						},
						{
							"indexed": false,
							"internalType": "uint256",
							"name": "housId",
							"type": "uint256"
						}
					],
					"name": "RequestAccepted",
					"type": "event"
				},
				{
					"anonymous": false,
					"inputs": [
						{
							"indexed": false,
							"internalType": "address",
							"name": "tenant",
							"type": "address"
						},
						{
							"indexed": false,
							"internalType": "uint256",
							"name": "requestId",
							"type": "uint256"
						}
					],
					"name": "RequestSent",
					"type": "event"
				},
				{
					"inputs": [
						{
							"internalType": "uint256",
							"name": "requestId",
							"type": "uint256"
						}
					],
					"name": "acceptRequest",
					"outputs": [],
					"stateMutability": "nonpayable",
					"type": "function"
				},
				{
					"inputs": [],
					"name": "getAllHouses",
					"outputs": [
						{
							"components": [
								{
									"internalType": "uint256",
									"name": "houseId",
									"type": "uint256"
								},
								{
									"internalType": "address",
									"name": "landlord",
									"type": "address"
								},
								{
									"internalType": "string",
									"name": "description",
									"type": "string"
								},
								{
									"internalType": "uint256",
									"name": "rentPerDay",
									"type": "uint256"
								},
								{
									"internalType": "uint256",
									"name": "deposit",
									"type": "uint256"
								},
								{
									"internalType": "uint256",
									"name": "paymentPeriod",
									"type": "uint256"
								},
								{
									"internalType": "uint256",
									"name": "minRentalPeriod",
									"type": "uint256"
								},
								{
									"internalType": "uint256",
									"name": "maxRentalPeriod",
									"type": "uint256"
								},
								{
									"internalType": "uint256",
									"name": "isAvailable",
									"type": "uint256"
								}
							],
							"internalType": "struct HouseRental.House[]",
							"name": "",
							"type": "tuple[]"
						}
					],
					"stateMutability": "view",
					"type": "function"
				},
				{
					"inputs": [],
					"name": "getRentalData",
					"outputs": [
						{
							"components": [
								{
									"internalType": "uint256",
									"name": "rentalId",
									"type": "uint256"
								},
								{
									"internalType": "address",
									"name": "tenant",
									"type": "address"
								},
								{
									"internalType": "uint256",
									"name": "houseId",
									"type": "uint256"
								},
								{
									"internalType": "uint256",
									"name": "startDate",
									"type": "uint256"
								},
								{
									"internalType": "uint256",
									"name": "endDate",
									"type": "uint256"
								},
								{
									"internalType": "uint256",
									"name": "dueDate",
									"type": "uint256"
								},
								{
									"internalType": "uint256",
									"name": "amountDue",
									"type": "uint256"
								},
								{
									"internalType": "uint256",
									"name": "totalAmountDue",
									"type": "uint256"
								},
								{
									"internalType": "uint256",
									"name": "isActive",
									"type": "uint256"
								}
							],
							"internalType": "struct HouseRental.Rental[]",
							"name": "",
							"type": "tuple[]"
						}
					],
					"stateMutability": "nonpayable",
					"type": "function"
				},
				{
					"inputs": [],
					"name": "getRequests",
					"outputs": [
						{
							"components": [
								{
									"internalType": "uint256",
									"name": "requestId",
									"type": "uint256"
								},
								{
									"internalType": "address",
									"name": "tenant",
									"type": "address"
								},
								{
									"internalType": "uint256",
									"name": "houseId",
									"type": "uint256"
								},
								{
									"internalType": "uint256",
									"name": "startDate",
									"type": "uint256"
								},
								{
									"internalType": "uint256",
									"name": "endDate",
									"type": "uint256"
								},
								{
									"internalType": "uint256",
									"name": "isAccepted",
									"type": "uint256"
								}
							],
							"internalType": "struct HouseRental.Request[]",
							"name": "",
							"type": "tuple[]"
						}
					],
					"stateMutability": "view",
					"type": "function"
				},
				{
					"inputs": [
						{
							"internalType": "uint256",
							"name": "",
							"type": "uint256"
						}
					],
					"name": "houses",
					"outputs": [
						{
							"internalType": "uint256",
							"name": "houseId",
							"type": "uint256"
						},
						{
							"internalType": "address",
							"name": "landlord",
							"type": "address"
						},
						{
							"internalType": "string",
							"name": "description",
							"type": "string"
						},
						{
							"internalType": "uint256",
							"name": "rentPerDay",
							"type": "uint256"
						},
						{
							"internalType": "uint256",
							"name": "deposit",
							"type": "uint256"
						},
						{
							"internalType": "uint256",
							"name": "paymentPeriod",
							"type": "uint256"
						},
						{
							"internalType": "uint256",
							"name": "minRentalPeriod",
							"type": "uint256"
						},
						{
							"internalType": "uint256",
							"name": "maxRentalPeriod",
							"type": "uint256"
						},
						{
							"internalType": "uint256",
							"name": "isAvailable",
							"type": "uint256"
						}
					],
					"stateMutability": "view",
					"type": "function"
				},
				{
					"inputs": [
						{
							"internalType": "address",
							"name": "",
							"type": "address"
						},
						{
							"internalType": "uint256",
							"name": "",
							"type": "uint256"
						}
					],
					"name": "landlordHouses",
					"outputs": [
						{
							"internalType": "uint256",
							"name": "houseId",
							"type": "uint256"
						},
						{
							"internalType": "address",
							"name": "landlord",
							"type": "address"
						},
						{
							"internalType": "string",
							"name": "description",
							"type": "string"
						},
						{
							"internalType": "uint256",
							"name": "rentPerDay",
							"type": "uint256"
						},
						{
							"internalType": "uint256",
							"name": "deposit",
							"type": "uint256"
						},
						{
							"internalType": "uint256",
							"name": "paymentPeriod",
							"type": "uint256"
						},
						{
							"internalType": "uint256",
							"name": "minRentalPeriod",
							"type": "uint256"
						},
						{
							"internalType": "uint256",
							"name": "maxRentalPeriod",
							"type": "uint256"
						},
						{
							"internalType": "uint256",
							"name": "isAvailable",
							"type": "uint256"
						}
					],
					"stateMutability": "view",
					"type": "function"
				},
				{
					"inputs": [
						{
							"internalType": "string",
							"name": "description",
							"type": "string"
						},
						{
							"internalType": "uint256",
							"name": "rentPerDay",
							"type": "uint256"
						},
						{
							"internalType": "uint256",
							"name": "deposit",
							"type": "uint256"
						},
						{
							"internalType": "uint256",
							"name": "paymentPeriod",
							"type": "uint256"
						},
						{
							"internalType": "uint256",
							"name": "minRentalPeriod",
							"type": "uint256"
						},
						{
							"internalType": "uint256",
							"name": "maxRentalPeriod",
							"type": "uint256"
						}
					],
					"name": "listHouse",
					"outputs": [],
					"stateMutability": "nonpayable",
					"type": "function"
				},
				{
					"inputs": [
						{
							"internalType": "uint256",
							"name": "rentalId",
							"type": "uint256"
						}
					],
					"name": "payRent",
					"outputs": [],
					"stateMutability": "payable",
					"type": "function"
				},
				{
					"inputs": [
						{
							"internalType": "uint256",
							"name": "requestId",
							"type": "uint256"
						},
						{
							"internalType": "uint256",
							"name": "houseId",
							"type": "uint256"
						},
						{
							"internalType": "uint256",
							"name": "startDate",
							"type": "uint256"
						},
						{
							"internalType": "uint256",
							"name": "endDate",
							"type": "uint256"
						}
					],
					"name": "rentHouse",
					"outputs": [],
					"stateMutability": "payable",
					"type": "function"
				},
				{
					"inputs": [
						{
							"internalType": "address",
							"name": "",
							"type": "address"
						},
						{
							"internalType": "uint256",
							"name": "",
							"type": "uint256"
						}
					],
					"name": "requests",
					"outputs": [
						{
							"internalType": "uint256",
							"name": "requestId",
							"type": "uint256"
						},
						{
							"internalType": "address",
							"name": "tenant",
							"type": "address"
						},
						{
							"internalType": "uint256",
							"name": "houseId",
							"type": "uint256"
						},
						{
							"internalType": "uint256",
							"name": "startDate",
							"type": "uint256"
						},
						{
							"internalType": "uint256",
							"name": "endDate",
							"type": "uint256"
						},
						{
							"internalType": "uint256",
							"name": "isAccepted",
							"type": "uint256"
						}
					],
					"stateMutability": "view",
					"type": "function"
				},
				{
					"inputs": [
						{
							"internalType": "uint256",
							"name": "houseId",
							"type": "uint256"
						},
						{
							"internalType": "uint256",
							"name": "startDate",
							"type": "uint256"
						},
						{
							"internalType": "uint256",
							"name": "endDate",
							"type": "uint256"
						}
					],
					"name": "sendRequest",
					"outputs": [],
					"stateMutability": "nonpayable",
					"type": "function"
				},
				{
					"inputs": [
						{
							"internalType": "address",
							"name": "",
							"type": "address"
						},
						{
							"internalType": "uint256",
							"name": "",
							"type": "uint256"
						}
					],
					"name": "tenantRentals",
					"outputs": [
						{
							"internalType": "uint256",
							"name": "rentalId",
							"type": "uint256"
						},
						{
							"internalType": "address",
							"name": "tenant",
							"type": "address"
						},
						{
							"internalType": "uint256",
							"name": "houseId",
							"type": "uint256"
						},
						{
							"internalType": "uint256",
							"name": "startDate",
							"type": "uint256"
						},
						{
							"internalType": "uint256",
							"name": "endDate",
							"type": "uint256"
						},
						{
							"internalType": "uint256",
							"name": "dueDate",
							"type": "uint256"
						},
						{
							"internalType": "uint256",
							"name": "amountDue",
							"type": "uint256"
						},
						{
							"internalType": "uint256",
							"name": "totalAmountDue",
							"type": "uint256"
						},
						{
							"internalType": "uint256",
							"name": "isActive",
							"type": "uint256"
						}
					],
					"stateMutability": "view",
					"type": "function"
				},
				{
					"inputs": [
						{
							"internalType": "address",
							"name": "tenant",
							"type": "address"
						}
					],
					"name": "updateRentalData",
					"outputs": [],
					"stateMutability": "nonpayable",
					"type": "function"
				}
			],
			"devdoc": {
				"kind": "dev",
				"methods": {},
				"version": 1
			},
			"evm": {
				"assembly": "    /* \"HomeConnect/HouseRental.sol\":62:6840  contract HouseRental {... */\n  mstore(0x40, 0x80)\n  callvalue\n  dup1\n  iszero\n  tag_1\n  jumpi\n  0x00\n  dup1\n  revert\ntag_1:\n  pop\n  dataSize(sub_0)\n  dup1\n  dataOffset(sub_0)\n  0x00\n  codecopy\n  0x00\n  return\nstop\n\nsub_0: assembly {\n        /* \"HomeConnect/HouseRental.sol\":62:6840  contract HouseRental {... */\n      mstore(0x40, 0x80)\n      jumpi(tag_1, lt(calldatasize, 0x04))\n      shr(0xe0, calldataload(0x00))\n      dup1\n      0x8f7d8e73\n      gt\n      tag_15\n      jumpi\n      dup1\n      0xb5c3005c\n      gt\n      tag_16\n      jumpi\n      dup1\n      0xb5c3005c\n      eq\n      tag_11\n      jumpi\n      dup1\n      0xd87deea8\n      eq\n      tag_12\n      jumpi\n      dup1\n      0xd9e8843f\n      eq\n      tag_13\n      jumpi\n      dup1\n      0xdc388605\n      eq\n      tag_14\n      jumpi\n      jump(tag_1)\n    tag_16:\n      dup1\n      0x8f7d8e73\n      eq\n      tag_8\n      jumpi\n      dup1\n      0x9ecebe2a\n      eq\n      tag_9\n      jumpi\n      dup1\n      0xaeda852f\n      eq\n      tag_10\n      jumpi\n      jump(tag_1)\n    tag_15:\n      dup1\n      0x296da249\n      eq\n      tag_2\n      jumpi\n      dup1\n      0x337a8e3c\n      eq\n      tag_3\n      jumpi\n      dup1\n      0x39e110e1\n      eq\n      tag_4\n      jumpi\n      dup1\n      0x4ba1f098\n      eq\n      tag_5\n      jumpi\n      dup1\n      0x7607d62f\n      eq\n      tag_6\n      jumpi\n      dup1\n      0x8813ce12\n      eq\n      tag_7\n      jumpi\n    tag_1:\n      0x00\n      dup1\n      revert\n        /* \"HomeConnect/HouseRental.sol\":1582:2242  function listHouse(string memory description, uint256 rentPerDay, uint256 deposit,... */\n    tag_2:\n      callvalue\n      dup1\n      iszero\n      tag_17\n      jumpi\n      0x00\n      dup1\n      revert\n    tag_17:\n      pop\n      tag_18\n      0x04\n      dup1\n      calldatasize\n      sub\n      dup2\n      add\n      swap1\n      tag_19\n      swap2\n      swap1\n      tag_20\n      jump\t// in\n    tag_19:\n      tag_21\n      jump\t// in\n    tag_18:\n      stop\n        /* \"HomeConnect/HouseRental.sol\":4975:6013  function updateRentalData(address tenant) public  {... */\n    tag_3:\n      callvalue\n      dup1\n      iszero\n      tag_22\n      jumpi\n      0x00\n      dup1\n      revert\n    tag_22:\n      pop\n      tag_23\n      0x04\n      dup1\n      calldatasize\n      sub\n      dup2\n      add\n      swap1\n      tag_24\n      swap2\n      swap1\n      tag_25\n      jump\t// in\n    tag_24:\n      tag_26\n      jump\t// in\n    tag_23:\n      stop\n        /* \"HomeConnect/HouseRental.sol\":920:969  mapping(address => House[]) public landlordHouses */\n    tag_4:\n      callvalue\n      dup1\n      iszero\n      tag_27\n      jumpi\n      0x00\n      dup1\n      revert\n    tag_27:\n      pop\n      tag_28\n      0x04\n      dup1\n      calldatasize\n      sub\n      dup2\n      add\n      swap1\n      tag_29\n      swap2\n      swap1\n      tag_30\n      jump\t// in\n    tag_29:\n      tag_31\n      jump\t// in\n    tag_28:\n      mload(0x40)\n      tag_32\n      swap10\n      swap9\n      swap8\n      swap7\n      swap6\n      swap5\n      swap4\n      swap3\n      swap2\n      swap1\n      tag_33\n      jump\t// in\n    tag_32:\n      mload(0x40)\n      dup1\n      swap2\n      sub\n      swap1\n      return\n        /* \"HomeConnect/HouseRental.sol\":3119:3545  function acceptRequest (uint256 requestId) public {... */\n    tag_5:\n      callvalue\n      dup1\n      iszero\n      tag_34\n      jumpi\n      0x00\n      dup1\n      revert\n    tag_34:\n      pop\n      tag_35\n      0x04\n      dup1\n      calldatasize\n      sub\n      dup2\n      add\n      swap1\n      tag_36\n      swap2\n      swap1\n      tag_37\n      jump\t// in\n    tag_36:\n      tag_38\n      jump\t// in\n    tag_35:\n      stop\n        /* \"HomeConnect/HouseRental.sol\":976:1025  mapping(address => Rental[]) public tenantRentals */\n    tag_6:\n      callvalue\n      dup1\n      iszero\n      tag_39\n      jumpi\n      0x00\n      dup1\n      revert\n    tag_39:\n      pop\n      tag_40\n      0x04\n      dup1\n      calldatasize\n      sub\n      dup2\n      add\n      swap1\n      tag_41\n      swap2\n      swap1\n      tag_30\n      jump\t// in\n    tag_41:\n      tag_42\n      jump\t// in\n    tag_40:\n      mload(0x40)\n      tag_43\n      swap10\n      swap9\n      swap8\n      swap7\n      swap6\n      swap5\n      swap4\n      swap3\n      swap2\n      swap1\n      tag_44\n      jump\t// in\n    tag_43:\n      mload(0x40)\n      dup1\n      swap2\n      sub\n      swap1\n      return\n        /* \"HomeConnect/HouseRental.sol\":3011:3115  function getRequests () public view returns (Request[] memory) {... */\n    tag_7:\n      callvalue\n      dup1\n      iszero\n      tag_45\n      jumpi\n      0x00\n      dup1\n      revert\n    tag_45:\n      pop\n      tag_46\n      tag_47\n      jump\t// in\n    tag_46:\n      mload(0x40)\n      tag_48\n      swap2\n      swap1\n      tag_49\n      jump\t// in\n    tag_48:\n      mload(0x40)\n      dup1\n      swap2\n      sub\n      swap1\n      return\n        /* \"HomeConnect/HouseRental.sol\":3551:4971  function rentHouse(uint256 requestId, uint256 houseId, uint256 startDate, uint256 endDate) public payable {... */\n    tag_8:\n      tag_50\n      0x04\n      dup1\n      calldatasize\n      sub\n      dup2\n      add\n      swap1\n      tag_51\n      swap2\n      swap1\n      tag_52\n      jump\t// in\n    tag_51:\n      tag_53\n      jump\t// in\n    tag_50:\n      stop\n        /* \"HomeConnect/HouseRental.sol\":868:913  mapping(address => Request[]) public requests */\n    tag_9:\n      callvalue\n      dup1\n      iszero\n      tag_54\n      jumpi\n      0x00\n      dup1\n      revert\n    tag_54:\n      pop\n      tag_55\n      0x04\n      dup1\n      calldatasize\n      sub\n      dup2\n      add\n      swap1\n      tag_56\n      swap2\n      swap1\n      tag_30\n      jump\t// in\n    tag_56:\n      tag_57\n      jump\t// in\n    tag_55:\n      mload(0x40)\n      tag_58\n      swap7\n      swap6\n      swap5\n      swap4\n      swap3\n      swap2\n      swap1\n      tag_59\n      jump\t// in\n    tag_58:\n      mload(0x40)\n      dup1\n      swap2\n      sub\n      swap1\n      return\n        /* \"HomeConnect/HouseRental.sol\":840:861  House[] public houses */\n    tag_10:\n      callvalue\n      dup1\n      iszero\n      tag_60\n      jumpi\n      0x00\n      dup1\n      revert\n    tag_60:\n      pop\n      tag_61\n      0x04\n      dup1\n      calldatasize\n      sub\n      dup2\n      add\n      swap1\n      tag_62\n      swap2\n      swap1\n      tag_37\n      jump\t// in\n    tag_62:\n      tag_63\n      jump\t// in\n    tag_61:\n      mload(0x40)\n      tag_64\n      swap10\n      swap9\n      swap8\n      swap7\n      swap6\n      swap5\n      swap4\n      swap3\n      swap2\n      swap1\n      tag_33\n      jump\t// in\n    tag_64:\n      mload(0x40)\n      dup1\n      swap2\n      sub\n      swap1\n      return\n        /* \"HomeConnect/HouseRental.sol\":2358:3007  function  sendRequest (uint256 houseId,uint256 startDate, uint256 endDate) public {... */\n    tag_11:\n      callvalue\n      dup1\n      iszero\n      tag_65\n      jumpi\n      0x00\n      dup1\n      revert\n    tag_65:\n      pop\n      tag_66\n      0x04\n      dup1\n      calldatasize\n      sub\n      dup2\n      add\n      swap1\n      tag_67\n      swap2\n      swap1\n      tag_68\n      jump\t// in\n    tag_67:\n      tag_69\n      jump\t// in\n    tag_66:\n      stop\n        /* \"HomeConnect/HouseRental.sol\":2246:2332  function getAllHouses() public view returns(House[] memory){... */\n    tag_12:\n      callvalue\n      dup1\n      iszero\n      tag_70\n      jumpi\n      0x00\n      dup1\n      revert\n    tag_70:\n      pop\n      tag_71\n      tag_72\n      jump\t// in\n    tag_71:\n      mload(0x40)\n      tag_73\n      swap2\n      swap1\n      tag_74\n      jump\t// in\n    tag_73:\n      mload(0x40)\n      dup1\n      swap2\n      sub\n      swap1\n      return\n        /* \"HomeConnect/HouseRental.sol\":6158:6817  function payRent(uint256 rentalId) public payable {... */\n    tag_13:\n      tag_75\n      0x04\n      dup1\n      calldatasize\n      sub\n      dup2\n      add\n      swap1\n      tag_76\n      swap2\n      swap1\n      tag_37\n      jump\t// in\n    tag_76:\n      tag_77\n      jump\t// in\n    tag_75:\n      stop\n        /* \"HomeConnect/HouseRental.sol\":6017:6154  function getRentalData() public returns (Rental[] memory) {... */\n    tag_14:\n      callvalue\n      dup1\n      iszero\n      tag_78\n      jumpi\n      0x00\n      dup1\n      revert\n    tag_78:\n      pop\n      tag_79\n      tag_80\n      jump\t// in\n    tag_79:\n      mload(0x40)\n      tag_81\n      swap2\n      swap1\n      tag_82\n      jump\t// in\n    tag_81:\n      mload(0x40)\n      dup1\n      swap2\n      sub\n      swap1\n      return\n        /* \"HomeConnect/HouseRental.sol\":1582:2242  function listHouse(string memory description, uint256 rentPerDay, uint256 deposit,... */\n    tag_21:\n        /* \"HomeConnect/HouseRental.sol\":1770:1785  uint256 houseId */\n      0x00\n        /* \"HomeConnect/HouseRental.sol\":1788:1794  houses */\n      dup1\n        /* \"HomeConnect/HouseRental.sol\":1788:1801  houses.length */\n      dup1\n      sload\n      swap1\n      pop\n        /* \"HomeConnect/HouseRental.sol\":1770:1801  uint256 houseId = houses.length */\n      swap1\n      pop\n        /* \"HomeConnect/HouseRental.sol\":1809:1815  houses */\n      0x00\n        /* \"HomeConnect/HouseRental.sol\":1821:2138  House({... */\n      mload(0x40)\n      dup1\n      0x0120\n      add\n      0x40\n      mstore\n      dup1\n        /* \"HomeConnect/HouseRental.sol\":1847:1854  houseId */\n      dup4\n        /* \"HomeConnect/HouseRental.sol\":1821:2138  House({... */\n      dup2\n      mstore\n      0x20\n      add\n        /* \"HomeConnect/HouseRental.sol\":1875:1885  msg.sender */\n      caller\n        /* \"HomeConnect/HouseRental.sol\":1821:2138  House({... */\n      0xffffffffffffffffffffffffffffffffffffffff\n      and\n      dup2\n      mstore\n      0x20\n      add\n        /* \"HomeConnect/HouseRental.sol\":1909:1920  description */\n      dup10\n        /* \"HomeConnect/HouseRental.sol\":1821:2138  House({... */\n      dup2\n      mstore\n      0x20\n      add\n        /* \"HomeConnect/HouseRental.sol\":1943:1953  rentPerDay */\n      dup9\n        /* \"HomeConnect/HouseRental.sol\":1821:2138  House({... */\n      dup2\n      mstore\n      0x20\n      add\n        /* \"HomeConnect/HouseRental.sol\":1973:1980  deposit */\n      dup8\n        /* \"HomeConnect/HouseRental.sol\":1821:2138  House({... */\n      dup2\n      mstore\n      0x20\n      add\n        /* \"HomeConnect/HouseRental.sol\":2006:2019  paymentPeriod */\n      dup7\n        /* \"HomeConnect/HouseRental.sol\":1821:2138  House({... */\n      dup2\n      mstore\n      0x20\n      add\n        /* \"HomeConnect/HouseRental.sol\":2047:2062  minRentalPeriod */\n      dup6\n        /* \"HomeConnect/HouseRental.sol\":1821:2138  House({... */\n      dup2\n      mstore\n      0x20\n      add\n        /* \"HomeConnect/HouseRental.sol\":2090:2105  maxRentalPeriod */\n      dup5\n        /* \"HomeConnect/HouseRental.sol\":1821:2138  House({... */\n      dup2\n      mstore\n      0x20\n      add\n        /* \"HomeConnect/HouseRental.sol\":2129:2130  1 */\n      0x01\n        /* \"HomeConnect/HouseRental.sol\":1821:2138  House({... */\n      dup2\n      mstore\n      pop\n        /* \"HomeConnect/HouseRental.sol\":1809:2139  houses.push(House({... */\n      swap1\n      dup1\n      0x01\n      dup2\n      sload\n      add\n      dup1\n      dup3\n      sstore\n      dup1\n      swap2\n      pop\n      pop\n      0x01\n      swap1\n      sub\n      swap1\n      0x00\n      mstore\n      keccak256(0x00, 0x20)\n      swap1\n      0x09\n      mul\n      add\n      0x00\n      swap1\n      swap2\n      swap1\n      swap2\n      swap1\n      swap2\n      pop\n      0x00\n      dup3\n      add\n      mload\n      dup2\n      0x00\n      add\n      sstore\n      0x20\n      dup3\n      add\n      mload\n      dup2\n      0x01\n      add\n      exp(0x0100, 0x00)\n      dup2\n      sload\n      dup2\n      0xffffffffffffffffffffffffffffffffffffffff\n      mul\n      not\n      and\n      swap1\n      dup4\n      0xffffffffffffffffffffffffffffffffffffffff\n      and\n      mul\n      or\n      swap1\n      sstore\n      pop\n      0x40\n      dup3\n      add\n      mload\n      dup2\n      0x02\n      add\n      swap1\n      dup2\n      tag_85\n      swap2\n      swap1\n      tag_86\n      jump\t// in\n    tag_85:\n      pop\n      0x60\n      dup3\n      add\n      mload\n      dup2\n      0x03\n      add\n      sstore\n      0x80\n      dup3\n      add\n      mload\n      dup2\n      0x04\n      add\n      sstore\n      0xa0\n      dup3\n      add\n      mload\n      dup2\n      0x05\n      add\n      sstore\n      0xc0\n      dup3\n      add\n      mload\n      dup2\n      0x06\n      add\n      sstore\n      0xe0\n      dup3\n      add\n      mload\n      dup2\n      0x07\n      add\n      sstore\n      0x0100\n      dup3\n      add\n      mload\n      dup2\n      0x08\n      add\n      sstore\n      pop\n      pop\n        /* \"HomeConnect/HouseRental.sol\":2146:2160  landlordHouses */\n      0x02\n        /* \"HomeConnect/HouseRental.sol\":2146:2172  landlordHouses[msg.sender] */\n      0x00\n        /* \"HomeConnect/HouseRental.sol\":2161:2171  msg.sender */\n      caller\n        /* \"HomeConnect/HouseRental.sol\":2146:2172  landlordHouses[msg.sender] */\n      0xffffffffffffffffffffffffffffffffffffffff\n      and\n      0xffffffffffffffffffffffffffffffffffffffff\n      and\n      dup2\n      mstore\n      0x20\n      add\n      swap1\n      dup2\n      mstore\n      0x20\n      add\n      0x00\n      keccak256\n        /* \"HomeConnect/HouseRental.sol\":2178:2184  houses */\n      0x00\n        /* \"HomeConnect/HouseRental.sol\":2185:2192  houseId */\n      dup3\n        /* \"HomeConnect/HouseRental.sol\":2178:2193  houses[houseId] */\n      dup2\n      sload\n      dup2\n      lt\n      tag_87\n      jumpi\n      tag_88\n      tag_89\n      jump\t// in\n    tag_88:\n    tag_87:\n      swap1\n      0x00\n      mstore\n      keccak256(0x00, 0x20)\n      swap1\n      0x09\n      mul\n      add\n        /* \"HomeConnect/HouseRental.sol\":2146:2194  landlordHouses[msg.sender].push(houses[houseId]) */\n      swap1\n      dup1\n      0x01\n      dup2\n      sload\n      add\n      dup1\n      dup3\n      sstore\n      dup1\n      swap2\n      pop\n      pop\n      0x01\n      swap1\n      sub\n      swap1\n      0x00\n      mstore\n      keccak256(0x00, 0x20)\n      swap1\n      0x09\n      mul\n      add\n      0x00\n      swap1\n      swap2\n      swap1\n      swap2\n      swap1\n      swap2\n      pop\n      0x00\n      dup3\n      add\n      sload\n      dup2\n      0x00\n      add\n      sstore\n      0x01\n      dup3\n      add\n      0x00\n      swap1\n      sload\n      swap1\n      0x0100\n      exp\n      swap1\n      div\n      0xffffffffffffffffffffffffffffffffffffffff\n      and\n      dup2\n      0x01\n      add\n      exp(0x0100, 0x00)\n      dup2\n      sload\n      dup2\n      0xffffffffffffffffffffffffffffffffffffffff\n      mul\n      not\n      and\n      swap1\n      dup4\n      0xffffffffffffffffffffffffffffffffffffffff\n      and\n      mul\n      or\n      swap1\n      sstore\n      pop\n      0x02\n      dup3\n      add\n      dup2\n      0x02\n      add\n      swap1\n      dup2\n      tag_92\n      swap2\n      swap1\n      tag_93\n      jump\t// in\n    tag_92:\n      pop\n      0x03\n      dup3\n      add\n      sload\n      dup2\n      0x03\n      add\n      sstore\n      0x04\n      dup3\n      add\n      sload\n      dup2\n      0x04\n      add\n      sstore\n      0x05\n      dup3\n      add\n      sload\n      dup2\n      0x05\n      add\n      sstore\n      0x06\n      dup3\n      add\n      sload\n      dup2\n      0x06\n      add\n      sstore\n      0x07\n      dup3\n      add\n      sload\n      dup2\n      0x07\n      add\n      sstore\n      0x08\n      dup3\n      add\n      sload\n      dup2\n      0x08\n      add\n      sstore\n      pop\n      pop\n        /* \"HomeConnect/HouseRental.sol\":2206:2238  HouseListed(houseId, msg.sender) */\n      0x940aaeb497467fb446ec8c9138170d69447f46abda147045ef232ebf4515229f\n        /* \"HomeConnect/HouseRental.sol\":2218:2225  houseId */\n      dup2\n        /* \"HomeConnect/HouseRental.sol\":2227:2237  msg.sender */\n      caller\n        /* \"HomeConnect/HouseRental.sol\":2206:2238  HouseListed(houseId, msg.sender) */\n      mload(0x40)\n      tag_94\n      swap3\n      swap2\n      swap1\n      tag_95\n      jump\t// in\n    tag_94:\n      mload(0x40)\n      dup1\n      swap2\n      sub\n      swap1\n      log1\n        /* \"HomeConnect/HouseRental.sol\":1763:2242  {... */\n      pop\n        /* \"HomeConnect/HouseRental.sol\":1582:2242  function listHouse(string memory description, uint256 rentPerDay, uint256 deposit,... */\n      pop\n      pop\n      pop\n      pop\n      pop\n      pop\n      jump\t// out\n        /* \"HomeConnect/HouseRental.sol\":4975:6013  function updateRentalData(address tenant) public  {... */\n    tag_26:\n        /* \"HomeConnect/HouseRental.sol\":5032:5051  uint256 currentDate */\n      0x00\n        /* \"HomeConnect/HouseRental.sol\":5054:5069  block.timestamp */\n      timestamp\n        /* \"HomeConnect/HouseRental.sol\":5032:5069  uint256 currentDate = block.timestamp */\n      swap1\n      pop\n        /* \"HomeConnect/HouseRental.sol\":5083:5092  uint256 i */\n      0x00\n        /* \"HomeConnect/HouseRental.sol\":5078:6005  for (uint256 i = 0; i < tenantRentals[tenant].length; i++) {... */\n    tag_97:\n        /* \"HomeConnect/HouseRental.sol\":5102:5115  tenantRentals */\n      0x03\n        /* \"HomeConnect/HouseRental.sol\":5102:5123  tenantRentals[tenant] */\n      0x00\n        /* \"HomeConnect/HouseRental.sol\":5116:5122  tenant */\n      dup5\n        /* \"HomeConnect/HouseRental.sol\":5102:5123  tenantRentals[tenant] */\n      0xffffffffffffffffffffffffffffffffffffffff\n      and\n      0xffffffffffffffffffffffffffffffffffffffff\n      and\n      dup2\n      mstore\n      0x20\n      add\n      swap1\n      dup2\n      mstore\n      0x20\n      add\n      0x00\n      keccak256\n        /* \"HomeConnect/HouseRental.sol\":5102:5130  tenantRentals[tenant].length */\n      dup1\n      sload\n      swap1\n      pop\n        /* \"HomeConnect/HouseRental.sol\":5098:5099  i */\n      dup2\n        /* \"HomeConnect/HouseRental.sol\":5098:5130  i < tenantRentals[tenant].length */\n      lt\n        /* \"HomeConnect/HouseRental.sol\":5078:6005  for (uint256 i = 0; i < tenantRentals[tenant].length; i++) {... */\n      iszero\n      tag_98\n      jumpi\n        /* \"HomeConnect/HouseRental.sol\":5188:5189  1 */\n      0x01\n        /* \"HomeConnect/HouseRental.sol\":5153:5166  tenantRentals */\n      0x03\n        /* \"HomeConnect/HouseRental.sol\":5153:5174  tenantRentals[tenant] */\n      0x00\n        /* \"HomeConnect/HouseRental.sol\":5167:5173  tenant */\n      dup6\n        /* \"HomeConnect/HouseRental.sol\":5153:5174  tenantRentals[tenant] */\n      0xffffffffffffffffffffffffffffffffffffffff\n      and\n      0xffffffffffffffffffffffffffffffffffffffff\n      and\n      dup2\n      mstore\n      0x20\n      add\n      swap1\n      dup2\n      mstore\n      0x20\n      add\n      0x00\n      keccak256\n        /* \"HomeConnect/HouseRental.sol\":5175:5176  i */\n      dup3\n        /* \"HomeConnect/HouseRental.sol\":5153:5177  tenantRentals[tenant][i] */\n      dup2\n      sload\n      dup2\n      lt\n      tag_100\n      jumpi\n      tag_101\n      tag_89\n      jump\t// in\n    tag_101:\n    tag_100:\n      swap1\n      0x00\n      mstore\n      keccak256(0x00, 0x20)\n      swap1\n      0x09\n      mul\n      add\n        /* \"HomeConnect/HouseRental.sol\":5153:5186  tenantRentals[tenant][i].isActive */\n      0x08\n      add\n      sload\n        /* \"HomeConnect/HouseRental.sol\":5153:5189  tenantRentals[tenant][i].isActive==1 */\n      sub\n        /* \"HomeConnect/HouseRental.sol\":5150:5998  if(tenantRentals[tenant][i].isActive==1){... */\n      tag_103\n      jumpi\n        /* \"HomeConnect/HouseRental.sol\":5205:5220  uint256 dueDate */\n      0x00\n        /* \"HomeConnect/HouseRental.sol\":5223:5236  tenantRentals */\n      0x03\n        /* \"HomeConnect/HouseRental.sol\":5223:5244  tenantRentals[tenant] */\n      0x00\n        /* \"HomeConnect/HouseRental.sol\":5237:5243  tenant */\n      dup6\n        /* \"HomeConnect/HouseRental.sol\":5223:5244  tenantRentals[tenant] */\n      0xffffffffffffffffffffffffffffffffffffffff\n      and\n      0xffffffffffffffffffffffffffffffffffffffff\n      and\n      dup2\n      mstore\n      0x20\n      add\n      swap1\n      dup2\n      mstore\n      0x20\n      add\n      0x00\n      keccak256\n        /* \"HomeConnect/HouseRental.sol\":5245:5246  i */\n      dup3\n        /* \"HomeConnect/HouseRental.sol\":5223:5247  tenantRentals[tenant][i] */\n      dup2\n      sload\n      dup2\n      lt\n      tag_104\n      jumpi\n      tag_105\n      tag_89\n      jump\t// in\n    tag_105:\n    tag_104:\n      swap1\n      0x00\n      mstore\n      keccak256(0x00, 0x20)\n      swap1\n      0x09\n      mul\n      add\n        /* \"HomeConnect/HouseRental.sol\":5223:5255  tenantRentals[tenant][i].dueDate */\n      0x05\n      add\n      sload\n        /* \"HomeConnect/HouseRental.sol\":5205:5255  uint256 dueDate = tenantRentals[tenant][i].dueDate */\n      swap1\n      pop\n        /* \"HomeConnect/HouseRental.sol\":5284:5987  while(currentDate > dueDate){... */\n    tag_107:\n        /* \"HomeConnect/HouseRental.sol\":5304:5311  dueDate */\n      dup1\n        /* \"HomeConnect/HouseRental.sol\":5290:5301  currentDate */\n      dup4\n        /* \"HomeConnect/HouseRental.sol\":5290:5311  currentDate > dueDate */\n      gt\n        /* \"HomeConnect/HouseRental.sol\":5284:5987  while(currentDate > dueDate){... */\n      iszero\n      tag_108\n      jumpi\n        /* \"HomeConnect/HouseRental.sol\":5331:5351  Rental memory rental */\n      0x00\n        /* \"HomeConnect/HouseRental.sol\":5354:5367  tenantRentals */\n      0x03\n        /* \"HomeConnect/HouseRental.sol\":5354:5375  tenantRentals[tenant] */\n      0x00\n        /* \"HomeConnect/HouseRental.sol\":5368:5374  tenant */\n      dup7\n        /* \"HomeConnect/HouseRental.sol\":5354:5375  tenantRentals[tenant] */\n      0xffffffffffffffffffffffffffffffffffffffff\n      and\n      0xffffffffffffffffffffffffffffffffffffffff\n      and\n      dup2\n      mstore\n      0x20\n      add\n      swap1\n      dup2\n      mstore\n      0x20\n      add\n      0x00\n      keccak256\n        /* \"HomeConnect/HouseRental.sol\":5376:5377  i */\n      dup4\n        /* \"HomeConnect/HouseRental.sol\":5354:5378  tenantRentals[tenant][i] */\n      dup2\n      sload\n      dup2\n      lt\n      tag_109\n      jumpi\n      tag_110\n      tag_89\n      jump\t// in\n    tag_110:\n    tag_109:\n      swap1\n      0x00\n      mstore\n      keccak256(0x00, 0x20)\n      swap1\n      0x09\n      mul\n      add\n        /* \"HomeConnect/HouseRental.sol\":5331:5378  Rental memory rental = tenantRentals[tenant][i] */\n      mload(0x40)\n      dup1\n      0x0120\n      add\n      0x40\n      mstore\n      swap1\n      dup2\n      0x00\n      dup3\n      add\n      sload\n      dup2\n      mstore\n      0x20\n      add\n      0x01\n      dup3\n      add\n      0x00\n      swap1\n      sload\n      swap1\n      0x0100\n      exp\n      swap1\n      div\n      0xffffffffffffffffffffffffffffffffffffffff\n      and\n      0xffffffffffffffffffffffffffffffffffffffff\n      and\n      0xffffffffffffffffffffffffffffffffffffffff\n      and\n      dup2\n      mstore\n      0x20\n      add\n      0x02\n      dup3\n      add\n      sload\n      dup2\n      mstore\n      0x20\n      add\n      0x03\n      dup3\n      add\n      sload\n      dup2\n      mstore\n      0x20\n      add\n      0x04\n      dup3\n      add\n      sload\n      dup2\n      mstore\n      0x20\n      add\n      0x05\n      dup3\n      add\n      sload\n      dup2\n      mstore\n      0x20\n      add\n      0x06\n      dup3\n      add\n      sload\n      dup2\n      mstore\n      0x20\n      add\n      0x07\n      dup3\n      add\n      sload\n      dup2\n      mstore\n      0x20\n      add\n      0x08\n      dup3\n      add\n      sload\n      dup2\n      mstore\n      pop\n      pop\n      swap1\n      pop\n        /* \"HomeConnect/HouseRental.sol\":5397:5412  uint256 houseId */\n      0x00\n        /* \"HomeConnect/HouseRental.sol\":5415:5421  rental */\n      dup2\n        /* \"HomeConnect/HouseRental.sol\":5415:5429  rental.houseId */\n      0x40\n      add\n      mload\n        /* \"HomeConnect/HouseRental.sol\":5397:5429  uint256 houseId = rental.houseId */\n      swap1\n      pop\n        /* \"HomeConnect/HouseRental.sol\":5448:5469  uint256 paymentPeriod */\n      0x00\n        /* \"HomeConnect/HouseRental.sol\":5472:5478  houses */\n      dup1\n        /* \"HomeConnect/HouseRental.sol\":5479:5486  houseId */\n      dup3\n        /* \"HomeConnect/HouseRental.sol\":5472:5487  houses[houseId] */\n      dup2\n      sload\n      dup2\n      lt\n      tag_112\n      jumpi\n      tag_113\n      tag_89\n      jump\t// in\n    tag_113:\n    tag_112:\n      swap1\n      0x00\n      mstore\n      keccak256(0x00, 0x20)\n      swap1\n      0x09\n      mul\n      add\n        /* \"HomeConnect/HouseRental.sol\":5472:5501  houses[houseId].paymentPeriod */\n      0x05\n      add\n      sload\n        /* \"HomeConnect/HouseRental.sol\":5448:5501  uint256 paymentPeriod = houses[houseId].paymentPeriod */\n      swap1\n      pop\n        /* \"HomeConnect/HouseRental.sol\":5520:5538  uint256 rentPerDay */\n      0x00\n        /* \"HomeConnect/HouseRental.sol\":5541:5547  houses */\n      dup1\n        /* \"HomeConnect/HouseRental.sol\":5548:5555  houseId */\n      dup4\n        /* \"HomeConnect/HouseRental.sol\":5541:5556  houses[houseId] */\n      dup2\n      sload\n      dup2\n      lt\n      tag_115\n      jumpi\n      tag_116\n      tag_89\n      jump\t// in\n    tag_116:\n    tag_115:\n      swap1\n      0x00\n      mstore\n      keccak256(0x00, 0x20)\n      swap1\n      0x09\n      mul\n      add\n        /* \"HomeConnect/HouseRental.sol\":5541:5567  houses[houseId].rentPerDay */\n      0x03\n      add\n      sload\n        /* \"HomeConnect/HouseRental.sol\":5520:5567  uint256 rentPerDay = houses[houseId].rentPerDay */\n      swap1\n      pop\n        /* \"HomeConnect/HouseRental.sol\":5635:5637  60 */\n      0x3c\n        /* \"HomeConnect/HouseRental.sol\":5621:5634  paymentPeriod */\n      dup3\n        /* \"HomeConnect/HouseRental.sol\":5621:5637  paymentPeriod*60 */\n      tag_118\n      swap2\n      swap1\n      tag_119\n      jump\t// in\n    tag_118:\n        /* \"HomeConnect/HouseRental.sol\":5586:5599  tenantRentals */\n      0x03\n        /* \"HomeConnect/HouseRental.sol\":5586:5607  tenantRentals[tenant] */\n      0x00\n        /* \"HomeConnect/HouseRental.sol\":5600:5606  tenant */\n      dup11\n        /* \"HomeConnect/HouseRental.sol\":5586:5607  tenantRentals[tenant] */\n      0xffffffffffffffffffffffffffffffffffffffff\n      and\n      0xffffffffffffffffffffffffffffffffffffffff\n      and\n      dup2\n      mstore\n      0x20\n      add\n      swap1\n      dup2\n      mstore\n      0x20\n      add\n      0x00\n      keccak256\n        /* \"HomeConnect/HouseRental.sol\":5608:5609  i */\n      dup8\n        /* \"HomeConnect/HouseRental.sol\":5586:5610  tenantRentals[tenant][i] */\n      dup2\n      sload\n      dup2\n      lt\n      tag_120\n      jumpi\n      tag_121\n      tag_89\n      jump\t// in\n    tag_121:\n    tag_120:\n      swap1\n      0x00\n      mstore\n      keccak256(0x00, 0x20)\n      swap1\n      0x09\n      mul\n      add\n        /* \"HomeConnect/HouseRental.sol\":5586:5618  tenantRentals[tenant][i].dueDate */\n      0x05\n      add\n      0x00\n        /* \"HomeConnect/HouseRental.sol\":5586:5637  tenantRentals[tenant][i].dueDate+= paymentPeriod*60 */\n      dup3\n      dup3\n      sload\n      tag_123\n      swap2\n      swap1\n      tag_124\n      jump\t// in\n    tag_123:\n      swap3\n      pop\n      pop\n      dup2\n      swap1\n      sstore\n      pop\n        /* \"HomeConnect/HouseRental.sol\":5707:5717  rentPerDay */\n      dup1\n        /* \"HomeConnect/HouseRental.sol\":5693:5706  paymentPeriod */\n      dup3\n        /* \"HomeConnect/HouseRental.sol\":5693:5717  paymentPeriod*rentPerDay */\n      tag_125\n      swap2\n      swap1\n      tag_119\n      jump\t// in\n    tag_125:\n        /* \"HomeConnect/HouseRental.sol\":5656:5669  tenantRentals */\n      0x03\n        /* \"HomeConnect/HouseRental.sol\":5656:5677  tenantRentals[tenant] */\n      0x00\n        /* \"HomeConnect/HouseRental.sol\":5670:5676  tenant */\n      dup11\n        /* \"HomeConnect/HouseRental.sol\":5656:5677  tenantRentals[tenant] */\n      0xffffffffffffffffffffffffffffffffffffffff\n      and\n      0xffffffffffffffffffffffffffffffffffffffff\n      and\n      dup2\n      mstore\n      0x20\n      add\n      swap1\n      dup2\n      mstore\n      0x20\n      add\n      0x00\n      keccak256\n        /* \"HomeConnect/HouseRental.sol\":5678:5679  i */\n      dup8\n        /* \"HomeConnect/HouseRental.sol\":5656:5680  tenantRentals[tenant][i] */\n      dup2\n      sload\n      dup2\n      lt\n      tag_126\n      jumpi\n      tag_127\n      tag_89\n      jump\t// in\n    tag_127:\n    tag_126:\n      swap1\n      0x00\n      mstore\n      keccak256(0x00, 0x20)\n      swap1\n      0x09\n      mul\n      add\n        /* \"HomeConnect/HouseRental.sol\":5656:5690  tenantRentals[tenant][i].amountDue */\n      0x06\n      add\n      0x00\n        /* \"HomeConnect/HouseRental.sol\":5656:5717  tenantRentals[tenant][i].amountDue+= paymentPeriod*rentPerDay */\n      dup3\n      dup3\n      sload\n      tag_129\n      swap2\n      swap1\n      tag_124\n      jump\t// in\n    tag_129:\n      swap3\n      pop\n      pop\n      dup2\n      swap1\n      sstore\n      pop\n        /* \"HomeConnect/HouseRental.sol\":5772:5785  tenantRentals */\n      0x03\n        /* \"HomeConnect/HouseRental.sol\":5772:5793  tenantRentals[tenant] */\n      0x00\n        /* \"HomeConnect/HouseRental.sol\":5786:5792  tenant */\n      dup10\n        /* \"HomeConnect/HouseRental.sol\":5772:5793  tenantRentals[tenant] */\n      0xffffffffffffffffffffffffffffffffffffffff\n      and\n      0xffffffffffffffffffffffffffffffffffffffff\n      and\n      dup2\n      mstore\n      0x20\n      add\n      swap1\n      dup2\n      mstore\n      0x20\n      add\n      0x00\n      keccak256\n        /* \"HomeConnect/HouseRental.sol\":5794:5795  i */\n      dup7\n        /* \"HomeConnect/HouseRental.sol\":5772:5796  tenantRentals[tenant][i] */\n      dup2\n      sload\n      dup2\n      lt\n      tag_130\n      jumpi\n      tag_131\n      tag_89\n      jump\t// in\n    tag_131:\n    tag_130:\n      swap1\n      0x00\n      mstore\n      keccak256(0x00, 0x20)\n      swap1\n      0x09\n      mul\n      add\n        /* \"HomeConnect/HouseRental.sol\":5772:5804  tenantRentals[tenant][i].endDate */\n      0x04\n      add\n      sload\n        /* \"HomeConnect/HouseRental.sol\":5739:5752  tenantRentals */\n      0x03\n        /* \"HomeConnect/HouseRental.sol\":5739:5760  tenantRentals[tenant] */\n      0x00\n        /* \"HomeConnect/HouseRental.sol\":5753:5759  tenant */\n      dup11\n        /* \"HomeConnect/HouseRental.sol\":5739:5760  tenantRentals[tenant] */\n      0xffffffffffffffffffffffffffffffffffffffff\n      and\n      0xffffffffffffffffffffffffffffffffffffffff\n      and\n      dup2\n      mstore\n      0x20\n      add\n      swap1\n      dup2\n      mstore\n      0x20\n      add\n      0x00\n      keccak256\n        /* \"HomeConnect/HouseRental.sol\":5761:5762  i */\n      dup8\n        /* \"HomeConnect/HouseRental.sol\":5739:5763  tenantRentals[tenant][i] */\n      dup2\n      sload\n      dup2\n      lt\n      tag_133\n      jumpi\n      tag_134\n      tag_89\n      jump\t// in\n    tag_134:\n    tag_133:\n      swap1\n      0x00\n      mstore\n      keccak256(0x00, 0x20)\n      swap1\n      0x09\n      mul\n      add\n        /* \"HomeConnect/HouseRental.sol\":5739:5771  tenantRentals[tenant][i].dueDate */\n      0x05\n      add\n      sload\n        /* \"HomeConnect/HouseRental.sol\":5739:5804  tenantRentals[tenant][i].dueDate>tenantRentals[tenant][i].endDate */\n      gt\n        /* \"HomeConnect/HouseRental.sol\":5736:5911  if(tenantRentals[tenant][i].dueDate>tenantRentals[tenant][i].endDate){... */\n      iszero\n      tag_136\n      jumpi\n        /* \"HomeConnect/HouseRental.sol\":5862:5863  0 */\n      0x00\n        /* \"HomeConnect/HouseRental.sol\":5828:5841  tenantRentals */\n      0x03\n        /* \"HomeConnect/HouseRental.sol\":5828:5849  tenantRentals[tenant] */\n      0x00\n        /* \"HomeConnect/HouseRental.sol\":5842:5848  tenant */\n      dup11\n        /* \"HomeConnect/HouseRental.sol\":5828:5849  tenantRentals[tenant] */\n      0xffffffffffffffffffffffffffffffffffffffff\n      and\n      0xffffffffffffffffffffffffffffffffffffffff\n      and\n      dup2\n      mstore\n      0x20\n      add\n      swap1\n      dup2\n      mstore\n      0x20\n      add\n      0x00\n      keccak256\n        /* \"HomeConnect/HouseRental.sol\":5850:5851  i */\n      dup8\n        /* \"HomeConnect/HouseRental.sol\":5828:5852  tenantRentals[tenant][i] */\n      dup2\n      sload\n      dup2\n      lt\n      tag_137\n      jumpi\n      tag_138\n      tag_89\n      jump\t// in\n    tag_138:\n    tag_137:\n      swap1\n      0x00\n      mstore\n      keccak256(0x00, 0x20)\n      swap1\n      0x09\n      mul\n      add\n        /* \"HomeConnect/HouseRental.sol\":5828:5861  tenantRentals[tenant][i].isActive */\n      0x08\n      add\n        /* \"HomeConnect/HouseRental.sol\":5828:5863  tenantRentals[tenant][i].isActive=0 */\n      dup2\n      swap1\n      sstore\n      pop\n        /* \"HomeConnect/HouseRental.sol\":5886:5891  break */\n      pop\n      pop\n      pop\n      pop\n      jump(tag_108)\n        /* \"HomeConnect/HouseRental.sol\":5736:5911  if(tenantRentals[tenant][i].dueDate>tenantRentals[tenant][i].endDate){... */\n    tag_136:\n        /* \"HomeConnect/HouseRental.sol\":5939:5952  tenantRentals */\n      0x03\n        /* \"HomeConnect/HouseRental.sol\":5939:5960  tenantRentals[tenant] */\n      0x00\n        /* \"HomeConnect/HouseRental.sol\":5953:5959  tenant */\n      dup10\n        /* \"HomeConnect/HouseRental.sol\":5939:5960  tenantRentals[tenant] */\n      0xffffffffffffffffffffffffffffffffffffffff\n      and\n      0xffffffffffffffffffffffffffffffffffffffff\n      and\n      dup2\n      mstore\n      0x20\n      add\n      swap1\n      dup2\n      mstore\n      0x20\n      add\n      0x00\n      keccak256\n        /* \"HomeConnect/HouseRental.sol\":5961:5962  i */\n      dup7\n        /* \"HomeConnect/HouseRental.sol\":5939:5963  tenantRentals[tenant][i] */\n      dup2\n      sload\n      dup2\n      lt\n      tag_140\n      jumpi\n      tag_141\n      tag_89\n      jump\t// in\n    tag_141:\n    tag_140:\n      swap1\n      0x00\n      mstore\n      keccak256(0x00, 0x20)\n      swap1\n      0x09\n      mul\n      add\n        /* \"HomeConnect/HouseRental.sol\":5939:5971  tenantRentals[tenant][i].dueDate */\n      0x05\n      add\n      sload\n        /* \"HomeConnect/HouseRental.sol\":5929:5971  dueDate = tenantRentals[tenant][i].dueDate */\n      swap5\n      pop\n        /* \"HomeConnect/HouseRental.sol\":5312:5987  {... */\n      pop\n      pop\n      pop\n      pop\n        /* \"HomeConnect/HouseRental.sol\":5284:5987  while(currentDate > dueDate){... */\n      jump(tag_107)\n    tag_108:\n        /* \"HomeConnect/HouseRental.sol\":5190:5998  {... */\n      pop\n        /* \"HomeConnect/HouseRental.sol\":5150:5998  if(tenantRentals[tenant][i].isActive==1){... */\n    tag_103:\n        /* \"HomeConnect/HouseRental.sol\":5132:5135  i++ */\n      dup1\n      dup1\n      0x01\n      add\n      swap2\n      pop\n      pop\n        /* \"HomeConnect/HouseRental.sol\":5078:6005  for (uint256 i = 0; i < tenantRentals[tenant].length; i++) {... */\n      jump(tag_97)\n    tag_98:\n      pop\n        /* \"HomeConnect/HouseRental.sol\":5025:6013  {... */\n      pop\n        /* \"HomeConnect/HouseRental.sol\":4975:6013  function updateRentalData(address tenant) public  {... */\n      pop\n      jump\t// out\n        /* \"HomeConnect/HouseRental.sol\":920:969  mapping(address => House[]) public landlordHouses */\n    tag_31:\n      mstore(0x20, 0x02)\n      dup2\n      0x00\n      mstore\n      keccak256(0x00, 0x40)\n      dup2\n      dup2\n      sload\n      dup2\n      lt\n      tag_143\n      jumpi\n      0x00\n      dup1\n      revert\n    tag_143:\n      swap1\n      0x00\n      mstore\n      keccak256(0x00, 0x20)\n      swap1\n      0x09\n      mul\n      add\n      0x00\n      swap2\n      pop\n      swap2\n      pop\n      pop\n      dup1\n      0x00\n      add\n      sload\n      swap1\n      dup1\n      0x01\n      add\n      0x00\n      swap1\n      sload\n      swap1\n      0x0100\n      exp\n      swap1\n      div\n      0xffffffffffffffffffffffffffffffffffffffff\n      and\n      swap1\n      dup1\n      0x02\n      add\n      dup1\n      sload\n      tag_145\n      swap1\n      tag_146\n      jump\t// in\n    tag_145:\n      dup1\n      0x1f\n      add\n      0x20\n      dup1\n      swap2\n      div\n      mul\n      0x20\n      add\n      mload(0x40)\n      swap1\n      dup2\n      add\n      0x40\n      mstore\n      dup1\n      swap3\n      swap2\n      swap1\n      dup2\n      dup2\n      mstore\n      0x20\n      add\n      dup3\n      dup1\n      sload\n      tag_147\n      swap1\n      tag_146\n      jump\t// in\n    tag_147:\n      dup1\n      iszero\n      tag_148\n      jumpi\n      dup1\n      0x1f\n      lt\n      tag_149\n      jumpi\n      0x0100\n      dup1\n      dup4\n      sload\n      div\n      mul\n      dup4\n      mstore\n      swap2\n      0x20\n      add\n      swap2\n      jump(tag_148)\n    tag_149:\n      dup3\n      add\n      swap2\n      swap1\n      0x00\n      mstore\n      keccak256(0x00, 0x20)\n      swap1\n    tag_150:\n      dup2\n      sload\n      dup2\n      mstore\n      swap1\n      0x01\n      add\n      swap1\n      0x20\n      add\n      dup1\n      dup4\n      gt\n      tag_150\n      jumpi\n      dup3\n      swap1\n      sub\n      0x1f\n      and\n      dup3\n      add\n      swap2\n    tag_148:\n      pop\n      pop\n      pop\n      pop\n      pop\n      swap1\n      dup1\n      0x03\n      add\n      sload\n      swap1\n      dup1\n      0x04\n      add\n      sload\n      swap1\n      dup1\n      0x05\n      add\n      sload\n      swap1\n      dup1\n      0x06\n      add\n      sload\n      swap1\n      dup1\n      0x07\n      add\n      sload\n      swap1\n      dup1\n      0x08\n      add\n      sload\n      swap1\n      pop\n      dup10\n      jump\t// out\n        /* \"HomeConnect/HouseRental.sol\":3119:3545  function acceptRequest (uint256 requestId) public {... */\n    tag_38:\n        /* \"HomeConnect/HouseRental.sol\":3176:3191  uint256 houseId */\n      0x00\n        /* \"HomeConnect/HouseRental.sol\":3194:3202  requests */\n      0x01\n        /* \"HomeConnect/HouseRental.sol\":3194:3214  requests[msg.sender] */\n      0x00\n        /* \"HomeConnect/HouseRental.sol\":3203:3213  msg.sender */\n      caller\n        /* \"HomeConnect/HouseRental.sol\":3194:3214  requests[msg.sender] */\n      0xffffffffffffffffffffffffffffffffffffffff\n      and\n      0xffffffffffffffffffffffffffffffffffffffff\n      and\n      dup2\n      mstore\n      0x20\n      add\n      swap1\n      dup2\n      mstore\n      0x20\n      add\n      0x00\n      keccak256\n        /* \"HomeConnect/HouseRental.sol\":3215:3224  requestId */\n      dup3\n        /* \"HomeConnect/HouseRental.sol\":3194:3225  requests[msg.sender][requestId] */\n      dup2\n      sload\n      dup2\n      lt\n      tag_152\n      jumpi\n      tag_153\n      tag_89\n      jump\t// in\n    tag_153:\n    tag_152:\n      swap1\n      0x00\n      mstore\n      keccak256(0x00, 0x20)\n      swap1\n      0x06\n      mul\n      add\n        /* \"HomeConnect/HouseRental.sol\":3194:3233  requests[msg.sender][requestId].houseId */\n      0x02\n      add\n      sload\n        /* \"HomeConnect/HouseRental.sol\":3176:3233  uint256 houseId = requests[msg.sender][requestId].houseId */\n      swap1\n      pop\n        /* \"HomeConnect/HouseRental.sol\":3279:3280  1 */\n      0x01\n        /* \"HomeConnect/HouseRental.sol\":3248:3254  houses */\n      0x00\n        /* \"HomeConnect/HouseRental.sol\":3255:3262  houseId */\n      dup3\n        /* \"HomeConnect/HouseRental.sol\":3248:3263  houses[houseId] */\n      dup2\n      sload\n      dup2\n      lt\n      tag_155\n      jumpi\n      tag_156\n      tag_89\n      jump\t// in\n    tag_156:\n    tag_155:\n      swap1\n      0x00\n      mstore\n      keccak256(0x00, 0x20)\n      swap1\n      0x09\n      mul\n      add\n        /* \"HomeConnect/HouseRental.sol\":3248:3275  houses[houseId].isAvailable */\n      0x08\n      add\n      sload\n        /* \"HomeConnect/HouseRental.sol\":3248:3280  houses[houseId].isAvailable == 1 */\n      eq\n        /* \"HomeConnect/HouseRental.sol\":3240:3327  require(houses[houseId].isAvailable == 1, \"another request has already been accepted!\") */\n      tag_158\n      jumpi\n      mload(0x40)\n      0x08c379a000000000000000000000000000000000000000000000000000000000\n      dup2\n      mstore\n      0x04\n      add\n      tag_159\n      swap1\n      tag_160\n      jump\t// in\n    tag_159:\n      mload(0x40)\n      dup1\n      swap2\n      sub\n      swap1\n      revert\n    tag_158:\n        /* \"HomeConnect/HouseRental.sol\":3334:3348  address tenant */\n      0x00\n        /* \"HomeConnect/HouseRental.sol\":3351:3359  requests */\n      0x01\n        /* \"HomeConnect/HouseRental.sol\":3351:3371  requests[msg.sender] */\n      0x00\n        /* \"HomeConnect/HouseRental.sol\":3360:3370  msg.sender */\n      caller\n        /* \"HomeConnect/HouseRental.sol\":3351:3371  requests[msg.sender] */\n      0xffffffffffffffffffffffffffffffffffffffff\n      and\n      0xffffffffffffffffffffffffffffffffffffffff\n      and\n      dup2\n      mstore\n      0x20\n      add\n      swap1\n      dup2\n      mstore\n      0x20\n      add\n      0x00\n      keccak256\n        /* \"HomeConnect/HouseRental.sol\":3372:3381  requestId */\n      dup4\n        /* \"HomeConnect/HouseRental.sol\":3351:3382  requests[msg.sender][requestId] */\n      dup2\n      sload\n      dup2\n      lt\n      tag_161\n      jumpi\n      tag_162\n      tag_89\n      jump\t// in\n    tag_162:\n    tag_161:\n      swap1\n      0x00\n      mstore\n      keccak256(0x00, 0x20)\n      swap1\n      0x06\n      mul\n      add\n        /* \"HomeConnect/HouseRental.sol\":3351:3389  requests[msg.sender][requestId].tenant */\n      0x01\n      add\n      0x00\n      swap1\n      sload\n      swap1\n      0x0100\n      exp\n      swap1\n      div\n      0xffffffffffffffffffffffffffffffffffffffff\n      and\n        /* \"HomeConnect/HouseRental.sol\":3334:3389  address tenant = requests[msg.sender][requestId].tenant */\n      swap1\n      pop\n        /* \"HomeConnect/HouseRental.sol\":3441:3442  1 */\n      0x01\n        /* \"HomeConnect/HouseRental.sol\":3396:3404  requests */\n      dup1\n        /* \"HomeConnect/HouseRental.sol\":3396:3416  requests[msg.sender] */\n      0x00\n        /* \"HomeConnect/HouseRental.sol\":3405:3415  msg.sender */\n      caller\n        /* \"HomeConnect/HouseRental.sol\":3396:3416  requests[msg.sender] */\n      0xffffffffffffffffffffffffffffffffffffffff\n      and\n      0xffffffffffffffffffffffffffffffffffffffff\n      and\n      dup2\n      mstore\n      0x20\n      add\n      swap1\n      dup2\n      mstore\n      0x20\n      add\n      0x00\n      keccak256\n        /* \"HomeConnect/HouseRental.sol\":3417:3426  requestId */\n      dup5\n        /* \"HomeConnect/HouseRental.sol\":3396:3427  requests[msg.sender][requestId] */\n      dup2\n      sload\n      dup2\n      lt\n      tag_164\n      jumpi\n      tag_165\n      tag_89\n      jump\t// in\n    tag_165:\n    tag_164:\n      swap1\n      0x00\n      mstore\n      keccak256(0x00, 0x20)\n      swap1\n      0x06\n      mul\n      add\n        /* \"HomeConnect/HouseRental.sol\":3396:3438  requests[msg.sender][requestId].isAccepted */\n      0x05\n      add\n        /* \"HomeConnect/HouseRental.sol\":3396:3442  requests[msg.sender][requestId].isAccepted = 1 */\n      dup2\n      swap1\n      sstore\n      pop\n        /* \"HomeConnect/HouseRental.sol\":3480:3481  2 */\n      0x02\n        /* \"HomeConnect/HouseRental.sol\":3450:3456  houses */\n      0x00\n        /* \"HomeConnect/HouseRental.sol\":3457:3464  houseId */\n      dup4\n        /* \"HomeConnect/HouseRental.sol\":3450:3465  houses[houseId] */\n      dup2\n      sload\n      dup2\n      lt\n      tag_167\n      jumpi\n      tag_168\n      tag_89\n      jump\t// in\n    tag_168:\n    tag_167:\n      swap1\n      0x00\n      mstore\n      keccak256(0x00, 0x20)\n      swap1\n      0x09\n      mul\n      add\n        /* \"HomeConnect/HouseRental.sol\":3450:3477  houses[houseId].isAvailable */\n      0x08\n      add\n        /* \"HomeConnect/HouseRental.sol\":3450:3481  houses[houseId].isAvailable = 2 */\n      dup2\n      swap1\n      sstore\n      pop\n        /* \"HomeConnect/HouseRental.sol\":3494:3539  RequestAccepted (msg.sender, tenant, houseId) */\n      0xd0e9a8bd0419492ff92821e0c185c3727b503f71880830c1122a578619af8e75\n        /* \"HomeConnect/HouseRental.sol\":3511:3521  msg.sender */\n      caller\n        /* \"HomeConnect/HouseRental.sol\":3523:3529  tenant */\n      dup3\n        /* \"HomeConnect/HouseRental.sol\":3531:3538  houseId */\n      dup5\n        /* \"HomeConnect/HouseRental.sol\":3494:3539  RequestAccepted (msg.sender, tenant, houseId) */\n      mload(0x40)\n      tag_170\n      swap4\n      swap3\n      swap2\n      swap1\n      tag_171\n      jump\t// in\n    tag_170:\n      mload(0x40)\n      dup1\n      swap2\n      sub\n      swap1\n      log1\n        /* \"HomeConnect/HouseRental.sol\":3169:3545  {... */\n      pop\n      pop\n        /* \"HomeConnect/HouseRental.sol\":3119:3545  function acceptRequest (uint256 requestId) public {... */\n      pop\n      jump\t// out\n        /* \"HomeConnect/HouseRental.sol\":976:1025  mapping(address => Rental[]) public tenantRentals */\n    tag_42:\n      mstore(0x20, 0x03)\n      dup2\n      0x00\n      mstore\n      keccak256(0x00, 0x40)\n      dup2\n      dup2\n      sload\n      dup2\n      lt\n      tag_172\n      jumpi\n      0x00\n      dup1\n      revert\n    tag_172:\n      swap1\n      0x00\n      mstore\n      keccak256(0x00, 0x20)\n      swap1\n      0x09\n      mul\n      add\n      0x00\n      swap2\n      pop\n      swap2\n      pop\n      pop\n      dup1\n      0x00\n      add\n      sload\n      swap1\n      dup1\n      0x01\n      add\n      0x00\n      swap1\n      sload\n      swap1\n      0x0100\n      exp\n      swap1\n      div\n      0xffffffffffffffffffffffffffffffffffffffff\n      and\n      swap1\n      dup1\n      0x02\n      add\n      sload\n      swap1\n      dup1\n      0x03\n      add\n      sload\n      swap1\n      dup1\n      0x04\n      add\n      sload\n      swap1\n      dup1\n      0x05\n      add\n      sload\n      swap1\n      dup1\n      0x06\n      add\n      sload\n      swap1\n      dup1\n      0x07\n      add\n      sload\n      swap1\n      dup1\n      0x08\n      add\n      sload\n      swap1\n      pop\n      dup10\n      jump\t// out\n        /* \"HomeConnect/HouseRental.sol\":3011:3115  function getRequests () public view returns (Request[] memory) {... */\n    tag_47:\n        /* \"HomeConnect/HouseRental.sol\":3056:3072  Request[] memory */\n      0x60\n        /* \"HomeConnect/HouseRental.sol\":3090:3098  requests */\n      0x01\n        /* \"HomeConnect/HouseRental.sol\":3090:3110  requests[msg.sender] */\n      0x00\n        /* \"HomeConnect/HouseRental.sol\":3099:3109  msg.sender */\n      caller\n        /* \"HomeConnect/HouseRental.sol\":3090:3110  requests[msg.sender] */\n      0xffffffffffffffffffffffffffffffffffffffff\n      and\n      0xffffffffffffffffffffffffffffffffffffffff\n      and\n      dup2\n      mstore\n      0x20\n      add\n      swap1\n      dup2\n      mstore\n      0x20\n      add\n      0x00\n      keccak256\n        /* \"HomeConnect/HouseRental.sol\":3083:3110  return requests[msg.sender] */\n      dup1\n      sload\n      dup1\n      0x20\n      mul\n      0x20\n      add\n      mload(0x40)\n      swap1\n      dup2\n      add\n      0x40\n      mstore\n      dup1\n      swap3\n      swap2\n      swap1\n      dup2\n      dup2\n      mstore\n      0x20\n      add\n      0x00\n      swap1\n    tag_175:\n      dup3\n      dup3\n      lt\n      iszero\n      tag_176\n      jumpi\n      dup4\n      dup3\n      swap1\n      0x00\n      mstore\n      keccak256(0x00, 0x20)\n      swap1\n      0x06\n      mul\n      add\n      mload(0x40)\n      dup1\n      0xc0\n      add\n      0x40\n      mstore\n      swap1\n      dup2\n      0x00\n      dup3\n      add\n      sload\n      dup2\n      mstore\n      0x20\n      add\n      0x01\n      dup3\n      add\n      0x00\n      swap1\n      sload\n      swap1\n      0x0100\n      exp\n      swap1\n      div\n      0xffffffffffffffffffffffffffffffffffffffff\n      and\n      0xffffffffffffffffffffffffffffffffffffffff\n      and\n      0xffffffffffffffffffffffffffffffffffffffff\n      and\n      dup2\n      mstore\n      0x20\n      add\n      0x02\n      dup3\n      add\n      sload\n      dup2\n      mstore\n      0x20\n      add\n      0x03\n      dup3\n      add\n      sload\n      dup2\n      mstore\n      0x20\n      add\n      0x04\n      dup3\n      add\n      sload\n      dup2\n      mstore\n      0x20\n      add\n      0x05\n      dup3\n      add\n      sload\n      dup2\n      mstore\n      pop\n      pop\n      dup2\n      mstore\n      0x20\n      add\n      swap1\n      0x01\n      add\n      swap1\n      jump(tag_175)\n    tag_176:\n      pop\n      pop\n      pop\n      pop\n      swap1\n      pop\n        /* \"HomeConnect/HouseRental.sol\":3011:3115  function getRequests () public view returns (Request[] memory) {... */\n      swap1\n      jump\t// out\n        /* \"HomeConnect/HouseRental.sol\":3551:4971  function rentHouse(uint256 requestId, uint256 houseId, uint256 startDate, uint256 endDate) public payable {... */\n    tag_53:\n        /* \"HomeConnect/HouseRental.sol\":3664:3680  address landlord */\n      0x00\n        /* \"HomeConnect/HouseRental.sol\":3682:3688  houses */\n      dup1\n        /* \"HomeConnect/HouseRental.sol\":3689:3696  houseId */\n      dup5\n        /* \"HomeConnect/HouseRental.sol\":3682:3697  houses[houseId] */\n      dup2\n      sload\n      dup2\n      lt\n      tag_179\n      jumpi\n      tag_180\n      tag_89\n      jump\t// in\n    tag_180:\n    tag_179:\n      swap1\n      0x00\n      mstore\n      keccak256(0x00, 0x20)\n      swap1\n      0x09\n      mul\n      add\n        /* \"HomeConnect/HouseRental.sol\":3682:3706  houses[houseId].landlord */\n      0x01\n      add\n      0x00\n      swap1\n      sload\n      swap1\n      0x0100\n      exp\n      swap1\n      div\n      0xffffffffffffffffffffffffffffffffffffffff\n      and\n        /* \"HomeConnect/HouseRental.sol\":3664:3706  address landlord= houses[houseId].landlord */\n      swap1\n      pop\n        /* \"HomeConnect/HouseRental.sol\":3766:3767  1 */\n      0x01\n        /* \"HomeConnect/HouseRental.sol\":3722:3730  requests */\n      dup1\n        /* \"HomeConnect/HouseRental.sol\":3722:3740  requests[landlord] */\n      0x00\n        /* \"HomeConnect/HouseRental.sol\":3731:3739  landlord */\n      dup4\n        /* \"HomeConnect/HouseRental.sol\":3722:3740  requests[landlord] */\n      0xffffffffffffffffffffffffffffffffffffffff\n      and\n      0xffffffffffffffffffffffffffffffffffffffff\n      and\n      dup2\n      mstore\n      0x20\n      add\n      swap1\n      dup2\n      mstore\n      0x20\n      add\n      0x00\n      keccak256\n        /* \"HomeConnect/HouseRental.sol\":3741:3750  requestId */\n      dup7\n        /* \"HomeConnect/HouseRental.sol\":3722:3751  requests[landlord][requestId] */\n      dup2\n      sload\n      dup2\n      lt\n      tag_182\n      jumpi\n      tag_183\n      tag_89\n      jump\t// in\n    tag_183:\n    tag_182:\n      swap1\n      0x00\n      mstore\n      keccak256(0x00, 0x20)\n      swap1\n      0x06\n      mul\n      add\n        /* \"HomeConnect/HouseRental.sol\":3722:3762  requests[landlord][requestId].isAccepted */\n      0x05\n      add\n      sload\n        /* \"HomeConnect/HouseRental.sol\":3722:3767  requests[landlord][requestId].isAccepted == 1 */\n      eq\n        /* \"HomeConnect/HouseRental.sol\":3714:3805  require(requests[landlord][requestId].isAccepted == 1, \"your request hasn't been accepted\") */\n      tag_185\n      jumpi\n      mload(0x40)\n      0x08c379a000000000000000000000000000000000000000000000000000000000\n      dup2\n      mstore\n      0x04\n      add\n      tag_186\n      swap1\n      tag_187\n      jump\t// in\n    tag_186:\n      mload(0x40)\n      dup1\n      swap2\n      sub\n      swap1\n      revert\n    tag_185:\n        /* \"HomeConnect/HouseRental.sol\":3812:3833  uint256 paymentPeriod */\n      0x00\n        /* \"HomeConnect/HouseRental.sol\":3836:3842  houses */\n      dup1\n        /* \"HomeConnect/HouseRental.sol\":3843:3850  houseId */\n      dup6\n        /* \"HomeConnect/HouseRental.sol\":3836:3851  houses[houseId] */\n      dup2\n      sload\n      dup2\n      lt\n      tag_188\n      jumpi\n      tag_189\n      tag_89\n      jump\t// in\n    tag_189:\n    tag_188:\n      swap1\n      0x00\n      mstore\n      keccak256(0x00, 0x20)\n      swap1\n      0x09\n      mul\n      add\n        /* \"HomeConnect/HouseRental.sol\":3836:3865  houses[houseId].paymentPeriod */\n      0x05\n      add\n      sload\n        /* \"HomeConnect/HouseRental.sol\":3812:3865  uint256 paymentPeriod = houses[houseId].paymentPeriod */\n      swap1\n      pop\n        /* \"HomeConnect/HouseRental.sol\":3873:3891  uint256 rentPerDay */\n      0x00\n        /* \"HomeConnect/HouseRental.sol\":3893:3899  houses */\n      dup1\n        /* \"HomeConnect/HouseRental.sol\":3900:3907  houseId */\n      dup7\n        /* \"HomeConnect/HouseRental.sol\":3893:3908  houses[houseId] */\n      dup2\n      sload\n      dup2\n      lt\n      tag_191\n      jumpi\n      tag_192\n      tag_89\n      jump\t// in\n    tag_192:\n    tag_191:\n      swap1\n      0x00\n      mstore\n      keccak256(0x00, 0x20)\n      swap1\n      0x09\n      mul\n      add\n        /* \"HomeConnect/HouseRental.sol\":3893:3919  houses[houseId].rentPerDay */\n      0x03\n      add\n      sload\n        /* \"HomeConnect/HouseRental.sol\":3873:3919  uint256 rentPerDay= houses[houseId].rentPerDay */\n      swap1\n      pop\n        /* \"HomeConnect/HouseRental.sol\":3927:3942  uint256 deposit */\n      0x00\n        /* \"HomeConnect/HouseRental.sol\":3945:3951  houses */\n      dup1\n        /* \"HomeConnect/HouseRental.sol\":3952:3959  houseId */\n      dup8\n        /* \"HomeConnect/HouseRental.sol\":3945:3960  houses[houseId] */\n      dup2\n      sload\n      dup2\n      lt\n      tag_194\n      jumpi\n      tag_195\n      tag_89\n      jump\t// in\n    tag_195:\n    tag_194:\n      swap1\n      0x00\n      mstore\n      keccak256(0x00, 0x20)\n      swap1\n      0x09\n      mul\n      add\n        /* \"HomeConnect/HouseRental.sol\":3945:3968  houses[houseId].deposit */\n      0x04\n      add\n      sload\n        /* \"HomeConnect/HouseRental.sol\":3927:3968  uint256 deposit = houses[houseId].deposit */\n      swap1\n      pop\n        /* \"HomeConnect/HouseRental.sol\":4024:4031  deposit */\n      dup1\n        /* \"HomeConnect/HouseRental.sol\":4008:4021  paymentPeriod */\n      dup4\n        /* \"HomeConnect/HouseRental.sol\":3996:4006  rentPerDay */\n      dup4\n        /* \"HomeConnect/HouseRental.sol\":3996:4021  rentPerDay *paymentPeriod */\n      tag_197\n      swap2\n      swap1\n      tag_119\n      jump\t// in\n    tag_197:\n        /* \"HomeConnect/HouseRental.sol\":3996:4031  rentPerDay *paymentPeriod + deposit */\n      tag_198\n      swap2\n      swap1\n      tag_124\n      jump\t// in\n    tag_198:\n        /* \"HomeConnect/HouseRental.sol\":3983:3992  msg.value */\n      callvalue\n        /* \"HomeConnect/HouseRental.sol\":3983:4031  msg.value == rentPerDay *paymentPeriod + deposit */\n      eq\n        /* \"HomeConnect/HouseRental.sol\":3975:4054  require(msg.value == rentPerDay *paymentPeriod + deposit, \"Incorrect payment \") */\n      tag_199\n      jumpi\n      mload(0x40)\n      0x08c379a000000000000000000000000000000000000000000000000000000000\n      dup2\n      mstore\n      0x04\n      add\n      tag_200\n      swap1\n      tag_201\n      jump\t// in\n    tag_200:\n      mload(0x40)\n      dup1\n      swap2\n      sub\n      swap1\n      revert\n    tag_199:\n        /* \"HomeConnect/HouseRental.sol\":4120:4143  uint256 numberOfPeriods */\n      0x00\n        /* \"HomeConnect/HouseRental.sol\":4190:4191  1 */\n      0x01\n        /* \"HomeConnect/HouseRental.sol\":4175:4188  paymentPeriod */\n      dup5\n        /* \"HomeConnect/HouseRental.sol\":4171:4173  60 */\n      0x3c\n        /* \"HomeConnect/HouseRental.sol\":4158:4167  startDate */\n      dup10\n        /* \"HomeConnect/HouseRental.sol\":4148:4155  endDate */\n      dup10\n        /* \"HomeConnect/HouseRental.sol\":4148:4167  endDate - startDate */\n      tag_202\n      swap2\n      swap1\n      tag_203\n      jump\t// in\n    tag_202:\n        /* \"HomeConnect/HouseRental.sol\":4147:4173  (endDate - startDate) / 60 */\n      tag_204\n      swap2\n      swap1\n      tag_205\n      jump\t// in\n    tag_204:\n        /* \"HomeConnect/HouseRental.sol\":4147:4188  (endDate - startDate) / 60/ paymentPeriod */\n      tag_206\n      swap2\n      swap1\n      tag_205\n      jump\t// in\n    tag_206:\n        /* \"HomeConnect/HouseRental.sol\":4146:4191  ((endDate - startDate) / 60/ paymentPeriod)+1 */\n      tag_207\n      swap2\n      swap1\n      tag_124\n      jump\t// in\n    tag_207:\n        /* \"HomeConnect/HouseRental.sol\":4120:4191  uint256 numberOfPeriods = ((endDate - startDate) / 60/ paymentPeriod)+1 */\n      swap1\n      pop\n        /* \"HomeConnect/HouseRental.sol\":4198:4213  uint256 dueDate */\n      0x00\n        /* \"HomeConnect/HouseRental.sol\":4243:4245  60 */\n      0x3c\n        /* \"HomeConnect/HouseRental.sol\":4228:4241  paymentPeriod */\n      dup6\n        /* \"HomeConnect/HouseRental.sol\":4228:4245  paymentPeriod* 60 */\n      tag_208\n      swap2\n      swap1\n      tag_119\n      jump\t// in\n    tag_208:\n        /* \"HomeConnect/HouseRental.sol\":4216:4225  startDate */\n      dup9\n        /* \"HomeConnect/HouseRental.sol\":4216:4245  startDate + paymentPeriod* 60 */\n      tag_209\n      swap2\n      swap1\n      tag_124\n      jump\t// in\n    tag_209:\n        /* \"HomeConnect/HouseRental.sol\":4198:4245  uint256 dueDate = startDate + paymentPeriod* 60 */\n      swap1\n      pop\n        /* \"HomeConnect/HouseRental.sol\":4253:4275  uint256 totalAmountDue */\n      0x00\n        /* \"HomeConnect/HouseRental.sol\":4314:4324  rentPerDay */\n      dup5\n        /* \"HomeConnect/HouseRental.sol\":4298:4311  paymentPeriod */\n      dup7\n        /* \"HomeConnect/HouseRental.sol\":4295:4296  1 */\n      0x01\n        /* \"HomeConnect/HouseRental.sol\":4279:4294  numberOfPeriods */\n      dup6\n        /* \"HomeConnect/HouseRental.sol\":4279:4296  numberOfPeriods-1 */\n      tag_210\n      swap2\n      swap1\n      tag_203\n      jump\t// in\n    tag_210:\n        /* \"HomeConnect/HouseRental.sol\":4278:4311  (numberOfPeriods-1)*paymentPeriod */\n      tag_211\n      swap2\n      swap1\n      tag_119\n      jump\t// in\n    tag_211:\n        /* \"HomeConnect/HouseRental.sol\":4278:4324  (numberOfPeriods-1)*paymentPeriod * rentPerDay */\n      tag_212\n      swap2\n      swap1\n      tag_119\n      jump\t// in\n    tag_212:\n        /* \"HomeConnect/HouseRental.sol\":4253:4324  uint256 totalAmountDue = (numberOfPeriods-1)*paymentPeriod * rentPerDay */\n      swap1\n      pop\n        /* \"HomeConnect/HouseRental.sol\":4332:4348  uint256 rentalId */\n      0x00\n        /* \"HomeConnect/HouseRental.sol\":4351:4364  tenantRentals */\n      0x03\n        /* \"HomeConnect/HouseRental.sol\":4351:4376  tenantRentals[msg.sender] */\n      0x00\n        /* \"HomeConnect/HouseRental.sol\":4365:4375  msg.sender */\n      caller\n        /* \"HomeConnect/HouseRental.sol\":4351:4376  tenantRentals[msg.sender] */\n      0xffffffffffffffffffffffffffffffffffffffff\n      and\n      0xffffffffffffffffffffffffffffffffffffffff\n      and\n      dup2\n      mstore\n      0x20\n      add\n      swap1\n      dup2\n      mstore\n      0x20\n      add\n      0x00\n      keccak256\n        /* \"HomeConnect/HouseRental.sol\":4351:4383  tenantRentals[msg.sender].length */\n      dup1\n      sload\n      swap1\n      pop\n        /* \"HomeConnect/HouseRental.sol\":4332:4383  uint256 rentalId = tenantRentals[msg.sender].length */\n      swap1\n      pop\n        /* \"HomeConnect/HouseRental.sol\":4390:4403  tenantRentals */\n      0x03\n        /* \"HomeConnect/HouseRental.sol\":4390:4415  tenantRentals[msg.sender] */\n      0x00\n        /* \"HomeConnect/HouseRental.sol\":4404:4414  msg.sender */\n      caller\n        /* \"HomeConnect/HouseRental.sol\":4390:4415  tenantRentals[msg.sender] */\n      0xffffffffffffffffffffffffffffffffffffffff\n      and\n      0xffffffffffffffffffffffffffffffffffffffff\n      and\n      dup2\n      mstore\n      0x20\n      add\n      swap1\n      dup2\n      mstore\n      0x20\n      add\n      0x00\n      keccak256\n        /* \"HomeConnect/HouseRental.sol\":4421:4692  Rental({... */\n      mload(0x40)\n      dup1\n      0x0120\n      add\n      0x40\n      mstore\n      dup1\n        /* \"HomeConnect/HouseRental.sol\":4449:4457  rentalId */\n      dup4\n        /* \"HomeConnect/HouseRental.sol\":4421:4692  Rental({... */\n      dup2\n      mstore\n      0x20\n      add\n        /* \"HomeConnect/HouseRental.sol\":4476:4486  msg.sender */\n      caller\n        /* \"HomeConnect/HouseRental.sol\":4421:4692  Rental({... */\n      0xffffffffffffffffffffffffffffffffffffffff\n      and\n      dup2\n      mstore\n      0x20\n      add\n        /* \"HomeConnect/HouseRental.sol\":4506:4513  houseId */\n      dup14\n        /* \"HomeConnect/HouseRental.sol\":4421:4692  Rental({... */\n      dup2\n      mstore\n      0x20\n      add\n        /* \"HomeConnect/HouseRental.sol\":4535:4544  startDate */\n      dup13\n        /* \"HomeConnect/HouseRental.sol\":4421:4692  Rental({... */\n      dup2\n      mstore\n      0x20\n      add\n        /* \"HomeConnect/HouseRental.sol\":4564:4571  endDate */\n      dup12\n        /* \"HomeConnect/HouseRental.sol\":4421:4692  Rental({... */\n      dup2\n      mstore\n      0x20\n      add\n        /* \"HomeConnect/HouseRental.sol\":4591:4598  dueDate */\n      dup6\n        /* \"HomeConnect/HouseRental.sol\":4421:4692  Rental({... */\n      dup2\n      mstore\n      0x20\n      add\n        /* \"HomeConnect/HouseRental.sol\":4620:4621  0 */\n      0x00\n        /* \"HomeConnect/HouseRental.sol\":4421:4692  Rental({... */\n      dup2\n      mstore\n      0x20\n      add\n        /* \"HomeConnect/HouseRental.sol\":4648:4662  totalAmountDue */\n      dup5\n        /* \"HomeConnect/HouseRental.sol\":4421:4692  Rental({... */\n      dup2\n      mstore\n      0x20\n      add\n        /* \"HomeConnect/HouseRental.sol\":4683:4684  1 */\n      0x01\n        /* \"HomeConnect/HouseRental.sol\":4421:4692  Rental({... */\n      dup2\n      mstore\n      pop\n        /* \"HomeConnect/HouseRental.sol\":4390:4693  tenantRentals[msg.sender].push(Rental({... */\n      swap1\n      dup1\n      0x01\n      dup2\n      sload\n      add\n      dup1\n      dup3\n      sstore\n      dup1\n      swap2\n      pop\n      pop\n      0x01\n      swap1\n      sub\n      swap1\n      0x00\n      mstore\n      keccak256(0x00, 0x20)\n      swap1\n      0x09\n      mul\n      add\n      0x00\n      swap1\n      swap2\n      swap1\n      swap2\n      swap1\n      swap2\n      pop\n      0x00\n      dup3\n      add\n      mload\n      dup2\n      0x00\n      add\n      sstore\n      0x20\n      dup3\n      add\n      mload\n      dup2\n      0x01\n      add\n      exp(0x0100, 0x00)\n      dup2\n      sload\n      dup2\n      0xffffffffffffffffffffffffffffffffffffffff\n      mul\n      not\n      and\n      swap1\n      dup4\n      0xffffffffffffffffffffffffffffffffffffffff\n      and\n      mul\n      or\n      swap1\n      sstore\n      pop\n      0x40\n      dup3\n      add\n      mload\n      dup2\n      0x02\n      add\n      sstore\n      0x60\n      dup3\n      add\n      mload\n      dup2\n      0x03\n      add\n      sstore\n      0x80\n      dup3\n      add\n      mload\n      dup2\n      0x04\n      add\n      sstore\n      0xa0\n      dup3\n      add\n      mload\n      dup2\n      0x05\n      add\n      sstore\n      0xc0\n      dup3\n      add\n      mload\n      dup2\n      0x06\n      add\n      sstore\n      0xe0\n      dup3\n      add\n      mload\n      dup2\n      0x07\n      add\n      sstore\n      0x0100\n      dup3\n      add\n      mload\n      dup2\n      0x08\n      add\n      sstore\n      pop\n      pop\n        /* \"HomeConnect/HouseRental.sol\":4732:4733  0 */\n      0x00\n        /* \"HomeConnect/HouseRental.sol\":4702:4708  houses */\n      dup1\n        /* \"HomeConnect/HouseRental.sol\":4709:4716  houseId */\n      dup13\n        /* \"HomeConnect/HouseRental.sol\":4702:4717  houses[houseId] */\n      dup2\n      sload\n      dup2\n      lt\n      tag_214\n      jumpi\n      tag_215\n      tag_89\n      jump\t// in\n    tag_215:\n    tag_214:\n      swap1\n      0x00\n      mstore\n      keccak256(0x00, 0x20)\n      swap1\n      0x09\n      mul\n      add\n        /* \"HomeConnect/HouseRental.sol\":4702:4729  houses[houseId].isAvailable */\n      0x08\n      add\n        /* \"HomeConnect/HouseRental.sol\":4702:4733  houses[houseId].isAvailable = 0 */\n      dup2\n      swap1\n      sstore\n      pop\n        /* \"HomeConnect/HouseRental.sol\":4754:4760  houses */\n      0x00\n        /* \"HomeConnect/HouseRental.sol\":4761:4768  houseId */\n      dup12\n        /* \"HomeConnect/HouseRental.sol\":4754:4769  houses[houseId] */\n      dup2\n      sload\n      dup2\n      lt\n      tag_217\n      jumpi\n      tag_218\n      tag_89\n      jump\t// in\n    tag_218:\n    tag_217:\n      swap1\n      0x00\n      mstore\n      keccak256(0x00, 0x20)\n      swap1\n      0x09\n      mul\n      add\n        /* \"HomeConnect/HouseRental.sol\":4754:4778  houses[houseId].landlord */\n      0x01\n      add\n      0x00\n      swap1\n      sload\n      swap1\n      0x0100\n      exp\n      swap1\n      div\n      0xffffffffffffffffffffffffffffffffffffffff\n      and\n        /* \"HomeConnect/HouseRental.sol\":4746:4788  payable(houses[houseId].landlord).transfer */\n      0xffffffffffffffffffffffffffffffffffffffff\n      and\n        /* \"HomeConnect/HouseRental.sol\":4746:4825  payable(houses[houseId].landlord).transfer(msg.value - houses[houseId].deposit) */\n      0x08fc\n        /* \"HomeConnect/HouseRental.sol\":4801:4807  houses */\n      0x00\n        /* \"HomeConnect/HouseRental.sol\":4808:4815  houseId */\n      dup14\n        /* \"HomeConnect/HouseRental.sol\":4801:4816  houses[houseId] */\n      dup2\n      sload\n      dup2\n      lt\n      tag_220\n      jumpi\n      tag_221\n      tag_89\n      jump\t// in\n    tag_221:\n    tag_220:\n      swap1\n      0x00\n      mstore\n      keccak256(0x00, 0x20)\n      swap1\n      0x09\n      mul\n      add\n        /* \"HomeConnect/HouseRental.sol\":4801:4824  houses[houseId].deposit */\n      0x04\n      add\n      sload\n        /* \"HomeConnect/HouseRental.sol\":4789:4798  msg.value */\n      callvalue\n        /* \"HomeConnect/HouseRental.sol\":4789:4824  msg.value - houses[houseId].deposit */\n      tag_223\n      swap2\n      swap1\n      tag_203\n      jump\t// in\n    tag_223:\n        /* \"HomeConnect/HouseRental.sol\":4746:4825  payable(houses[houseId].landlord).transfer(msg.value - houses[houseId].deposit) */\n      swap1\n      dup2\n      iszero\n      mul\n      swap1\n      mload(0x40)\n      0x00\n      mload(0x40)\n      dup1\n      dup4\n      sub\n      dup2\n      dup6\n      dup9\n      dup9\n      call\n      swap4\n      pop\n      pop\n      pop\n      pop\n      iszero\n      dup1\n      iszero\n      tag_225\n      jumpi\n      returndatasize\n      0x00\n      dup1\n      returndatacopy\n      revert(0x00, returndatasize)\n    tag_225:\n      pop\n        /* \"HomeConnect/HouseRental.sol\":4895:4967  HouseRented(rentalId, msg.sender, landlord, houseId, startDate, endDate) */\n      0xb80f428704aea624db48e5fa450e946b9e04a896c332c3fb87ddb996f046958f\n        /* \"HomeConnect/HouseRental.sol\":4907:4915  rentalId */\n      dup2\n        /* \"HomeConnect/HouseRental.sol\":4917:4927  msg.sender */\n      caller\n        /* \"HomeConnect/HouseRental.sol\":4929:4937  landlord */\n      dup11\n        /* \"HomeConnect/HouseRental.sol\":4939:4946  houseId */\n      dup15\n        /* \"HomeConnect/HouseRental.sol\":4948:4957  startDate */\n      dup15\n        /* \"HomeConnect/HouseRental.sol\":4959:4966  endDate */\n      dup15\n        /* \"HomeConnect/HouseRental.sol\":4895:4967  HouseRented(rentalId, msg.sender, landlord, houseId, startDate, endDate) */\n      mload(0x40)\n      tag_226\n      swap7\n      swap6\n      swap5\n      swap4\n      swap3\n      swap2\n      swap1\n      tag_227\n      jump\t// in\n    tag_226:\n      mload(0x40)\n      dup1\n      swap2\n      sub\n      swap1\n      log1\n        /* \"HomeConnect/HouseRental.sol\":3657:4971  {... */\n      pop\n      pop\n      pop\n      pop\n      pop\n      pop\n      pop\n      pop\n        /* \"HomeConnect/HouseRental.sol\":3551:4971  function rentHouse(uint256 requestId, uint256 houseId, uint256 startDate, uint256 endDate) public payable {... */\n      pop\n      pop\n      pop\n      pop\n      jump\t// out\n        /* \"HomeConnect/HouseRental.sol\":868:913  mapping(address => Request[]) public requests */\n    tag_57:\n      mstore(0x20, 0x01)\n      dup2\n      0x00\n      mstore\n      keccak256(0x00, 0x40)\n      dup2\n      dup2\n      sload\n      dup2\n      lt\n      tag_228\n      jumpi\n      0x00\n      dup1\n      revert\n    tag_228:\n      swap1\n      0x00\n      mstore\n      keccak256(0x00, 0x20)\n      swap1\n      0x06\n      mul\n      add\n      0x00\n      swap2\n      pop\n      swap2\n      pop\n      pop\n      dup1\n      0x00\n      add\n      sload\n      swap1\n      dup1\n      0x01\n      add\n      0x00\n      swap1\n      sload\n      swap1\n      0x0100\n      exp\n      swap1\n      div\n      0xffffffffffffffffffffffffffffffffffffffff\n      and\n      swap1\n      dup1\n      0x02\n      add\n      sload\n      swap1\n      dup1\n      0x03\n      add\n      sload\n      swap1\n      dup1\n      0x04\n      add\n      sload\n      swap1\n      dup1\n      0x05\n      add\n      sload\n      swap1\n      pop\n      dup7\n      jump\t// out\n        /* \"HomeConnect/HouseRental.sol\":840:861  House[] public houses */\n    tag_63:\n      0x00\n      dup2\n      dup2\n      sload\n      dup2\n      lt\n      tag_230\n      jumpi\n      0x00\n      dup1\n      revert\n    tag_230:\n      swap1\n      0x00\n      mstore\n      keccak256(0x00, 0x20)\n      swap1\n      0x09\n      mul\n      add\n      0x00\n      swap2\n      pop\n      swap1\n      pop\n      dup1\n      0x00\n      add\n      sload\n      swap1\n      dup1\n      0x01\n      add\n      0x00\n      swap1\n      sload\n      swap1\n      0x0100\n      exp\n      swap1\n      div\n      0xffffffffffffffffffffffffffffffffffffffff\n      and\n      swap1\n      dup1\n      0x02\n      add\n      dup1\n      sload\n      tag_232\n      swap1\n      tag_146\n      jump\t// in\n    tag_232:\n      dup1\n      0x1f\n      add\n      0x20\n      dup1\n      swap2\n      div\n      mul\n      0x20\n      add\n      mload(0x40)\n      swap1\n      dup2\n      add\n      0x40\n      mstore\n      dup1\n      swap3\n      swap2\n      swap1\n      dup2\n      dup2\n      mstore\n      0x20\n      add\n      dup3\n      dup1\n      sload\n      tag_233\n      swap1\n      tag_146\n      jump\t// in\n    tag_233:\n      dup1\n      iszero\n      tag_234\n      jumpi\n      dup1\n      0x1f\n      lt\n      tag_235\n      jumpi\n      0x0100\n      dup1\n      dup4\n      sload\n      div\n      mul\n      dup4\n      mstore\n      swap2\n      0x20\n      add\n      swap2\n      jump(tag_234)\n    tag_235:\n      dup3\n      add\n      swap2\n      swap1\n      0x00\n      mstore\n      keccak256(0x00, 0x20)\n      swap1\n    tag_236:\n      dup2\n      sload\n      dup2\n      mstore\n      swap1\n      0x01\n      add\n      swap1\n      0x20\n      add\n      dup1\n      dup4\n      gt\n      tag_236\n      jumpi\n      dup3\n      swap1\n      sub\n      0x1f\n      and\n      dup3\n      add\n      swap2\n    tag_234:\n      pop\n      pop\n      pop\n      pop\n      pop\n      swap1\n      dup1\n      0x03\n      add\n      sload\n      swap1\n      dup1\n      0x04\n      add\n      sload\n      swap1\n      dup1\n      0x05\n      add\n      sload\n      swap1\n      dup1\n      0x06\n      add\n      sload\n      swap1\n      dup1\n      0x07\n      add\n      sload\n      swap1\n      dup1\n      0x08\n      add\n      sload\n      swap1\n      pop\n      dup10\n      jump\t// out\n        /* \"HomeConnect/HouseRental.sol\":2358:3007  function  sendRequest (uint256 houseId,uint256 startDate, uint256 endDate) public {... */\n    tag_69:\n        /* \"HomeConnect/HouseRental.sol\":2486:2487  1 */\n      0x01\n        /* \"HomeConnect/HouseRental.sol\":2455:2461  houses */\n      0x00\n        /* \"HomeConnect/HouseRental.sol\":2462:2469  houseId */\n      dup5\n        /* \"HomeConnect/HouseRental.sol\":2455:2470  houses[houseId] */\n      dup2\n      sload\n      dup2\n      lt\n      tag_238\n      jumpi\n      tag_239\n      tag_89\n      jump\t// in\n    tag_239:\n    tag_238:\n      swap1\n      0x00\n      mstore\n      keccak256(0x00, 0x20)\n      swap1\n      0x09\n      mul\n      add\n        /* \"HomeConnect/HouseRental.sol\":2455:2482  houses[houseId].isAvailable */\n      0x08\n      add\n      sload\n        /* \"HomeConnect/HouseRental.sol\":2455:2487  houses[houseId].isAvailable == 1 */\n      eq\n        /* \"HomeConnect/HouseRental.sol\":2447:2514  require(houses[houseId].isAvailable == 1, \"House is not available\") */\n      tag_241\n      jumpi\n      mload(0x40)\n      0x08c379a000000000000000000000000000000000000000000000000000000000\n      dup2\n      mstore\n      0x04\n      add\n      tag_242\n      swap1\n      tag_243\n      jump\t// in\n    tag_242:\n      mload(0x40)\n      dup1\n      swap2\n      sub\n      swap1\n      revert\n    tag_241:\n        /* \"HomeConnect/HouseRental.sol\":2521:2541  uint256 rentalPeriod */\n      0x00\n        /* \"HomeConnect/HouseRental.sol\":2564:2566  60 */\n      0x3c\n        /* \"HomeConnect/HouseRental.sol\":2553:2562  startDate */\n      dup4\n        /* \"HomeConnect/HouseRental.sol\":2545:2552  endDate */\n      dup4\n        /* \"HomeConnect/HouseRental.sol\":2545:2562  endDate-startDate */\n      tag_244\n      swap2\n      swap1\n      tag_203\n      jump\t// in\n    tag_244:\n        /* \"HomeConnect/HouseRental.sol\":2544:2566  (endDate-startDate)/60 */\n      tag_245\n      swap2\n      swap1\n      tag_205\n      jump\t// in\n    tag_245:\n        /* \"HomeConnect/HouseRental.sol\":2521:2566  uint256 rentalPeriod = (endDate-startDate)/60 */\n      swap1\n      pop\n        /* \"HomeConnect/HouseRental.sol\":2615:2627  rentalPeriod */\n      dup1\n        /* \"HomeConnect/HouseRental.sol\":2583:2589  houses */\n      0x00\n        /* \"HomeConnect/HouseRental.sol\":2590:2597  houseId */\n      dup6\n        /* \"HomeConnect/HouseRental.sol\":2583:2598  houses[houseId] */\n      dup2\n      sload\n      dup2\n      lt\n      tag_246\n      jumpi\n      tag_247\n      tag_89\n      jump\t// in\n    tag_247:\n    tag_246:\n      swap1\n      0x00\n      mstore\n      keccak256(0x00, 0x20)\n      swap1\n      0x09\n      mul\n      add\n        /* \"HomeConnect/HouseRental.sol\":2583:2614  houses[houseId].maxRentalPeriod */\n      0x07\n      add\n      sload\n        /* \"HomeConnect/HouseRental.sol\":2583:2627  houses[houseId].maxRentalPeriod>rentalPeriod */\n      gt\n        /* \"HomeConnect/HouseRental.sol\":2583:2675  houses[houseId].maxRentalPeriod>rentalPeriod && rentalPeriod>houses[houseId].minRentalPeriod */\n      dup1\n      iszero\n      tag_249\n      jumpi\n      pop\n        /* \"HomeConnect/HouseRental.sol\":2644:2650  houses */\n      0x00\n        /* \"HomeConnect/HouseRental.sol\":2651:2658  houseId */\n      dup5\n        /* \"HomeConnect/HouseRental.sol\":2644:2659  houses[houseId] */\n      dup2\n      sload\n      dup2\n      lt\n      tag_250\n      jumpi\n      tag_251\n      tag_89\n      jump\t// in\n    tag_251:\n    tag_250:\n      swap1\n      0x00\n      mstore\n      keccak256(0x00, 0x20)\n      swap1\n      0x09\n      mul\n      add\n        /* \"HomeConnect/HouseRental.sol\":2644:2675  houses[houseId].minRentalPeriod */\n      0x06\n      add\n      sload\n        /* \"HomeConnect/HouseRental.sol\":2631:2643  rentalPeriod */\n      dup2\n        /* \"HomeConnect/HouseRental.sol\":2631:2675  rentalPeriod>houses[houseId].minRentalPeriod */\n      gt\n        /* \"HomeConnect/HouseRental.sol\":2583:2675  houses[houseId].maxRentalPeriod>rentalPeriod && rentalPeriod>houses[houseId].minRentalPeriod */\n    tag_249:\n        /* \"HomeConnect/HouseRental.sol\":2575:2698  require(houses[houseId].maxRentalPeriod>rentalPeriod && rentalPeriod>houses[houseId].minRentalPeriod,\"wrong rental period\") */\n      tag_253\n      jumpi\n      mload(0x40)\n      0x08c379a000000000000000000000000000000000000000000000000000000000\n      dup2\n      mstore\n      0x04\n      add\n      tag_254\n      swap1\n      tag_255\n      jump\t// in\n    tag_254:\n      mload(0x40)\n      dup1\n      swap2\n      sub\n      swap1\n      revert\n    tag_253:\n        /* \"HomeConnect/HouseRental.sol\":2705:2721  address landlord */\n      0x00\n        /* \"HomeConnect/HouseRental.sol\":2724:2730  houses */\n      dup1\n        /* \"HomeConnect/HouseRental.sol\":2731:2738  houseId */\n      dup6\n        /* \"HomeConnect/HouseRental.sol\":2724:2739  houses[houseId] */\n      dup2\n      sload\n      dup2\n      lt\n      tag_256\n      jumpi\n      tag_257\n      tag_89\n      jump\t// in\n    tag_257:\n    tag_256:\n      swap1\n      0x00\n      mstore\n      keccak256(0x00, 0x20)\n      swap1\n      0x09\n      mul\n      add\n        /* \"HomeConnect/HouseRental.sol\":2724:2748  houses[houseId].landlord */\n      0x01\n      add\n      0x00\n      swap1\n      sload\n      swap1\n      0x0100\n      exp\n      swap1\n      div\n      0xffffffffffffffffffffffffffffffffffffffff\n      and\n        /* \"HomeConnect/HouseRental.sol\":2705:2748  address landlord = houses[houseId].landlord */\n      swap1\n      pop\n        /* \"HomeConnect/HouseRental.sol\":2757:2774  uint256 requestId */\n      0x00\n        /* \"HomeConnect/HouseRental.sol\":2777:2785  requests */\n      0x01\n        /* \"HomeConnect/HouseRental.sol\":2777:2795  requests[landlord] */\n      0x00\n        /* \"HomeConnect/HouseRental.sol\":2786:2794  landlord */\n      dup4\n        /* \"HomeConnect/HouseRental.sol\":2777:2795  requests[landlord] */\n      0xffffffffffffffffffffffffffffffffffffffff\n      and\n      0xffffffffffffffffffffffffffffffffffffffff\n      and\n      dup2\n      mstore\n      0x20\n      add\n      swap1\n      dup2\n      mstore\n      0x20\n      add\n      0x00\n      keccak256\n        /* \"HomeConnect/HouseRental.sol\":2777:2802  requests[landlord].length */\n      dup1\n      sload\n      swap1\n      pop\n        /* \"HomeConnect/HouseRental.sol\":2757:2802  uint256 requestId = requests[landlord].length */\n      swap1\n      pop\n        /* \"HomeConnect/HouseRental.sol\":2810:2818  requests */\n      0x01\n        /* \"HomeConnect/HouseRental.sol\":2810:2828  requests[landlord] */\n      0x00\n        /* \"HomeConnect/HouseRental.sol\":2819:2827  landlord */\n      dup4\n        /* \"HomeConnect/HouseRental.sol\":2810:2828  requests[landlord] */\n      0xffffffffffffffffffffffffffffffffffffffff\n      and\n      0xffffffffffffffffffffffffffffffffffffffff\n      and\n      dup2\n      mstore\n      0x20\n      add\n      swap1\n      dup2\n      mstore\n      0x20\n      add\n      0x00\n      keccak256\n        /* \"HomeConnect/HouseRental.sol\":2834:2956  Request({requestId: requestId,tenant: msg.sender, houseId: houseId, startDate: startDate, endDate: endDate, isAccepted:0}) */\n      mload(0x40)\n      dup1\n      0xc0\n      add\n      0x40\n      mstore\n      dup1\n        /* \"HomeConnect/HouseRental.sol\":2854:2863  requestId */\n      dup4\n        /* \"HomeConnect/HouseRental.sol\":2834:2956  Request({requestId: requestId,tenant: msg.sender, houseId: houseId, startDate: startDate, endDate: endDate, isAccepted:0}) */\n      dup2\n      mstore\n      0x20\n      add\n        /* \"HomeConnect/HouseRental.sol\":2872:2882  msg.sender */\n      caller\n        /* \"HomeConnect/HouseRental.sol\":2834:2956  Request({requestId: requestId,tenant: msg.sender, houseId: houseId, startDate: startDate, endDate: endDate, isAccepted:0}) */\n      0xffffffffffffffffffffffffffffffffffffffff\n      and\n      dup2\n      mstore\n      0x20\n      add\n        /* \"HomeConnect/HouseRental.sol\":2893:2900  houseId */\n      dup9\n        /* \"HomeConnect/HouseRental.sol\":2834:2956  Request({requestId: requestId,tenant: msg.sender, houseId: houseId, startDate: startDate, endDate: endDate, isAccepted:0}) */\n      dup2\n      mstore\n      0x20\n      add\n        /* \"HomeConnect/HouseRental.sol\":2913:2922  startDate */\n      dup8\n        /* \"HomeConnect/HouseRental.sol\":2834:2956  Request({requestId: requestId,tenant: msg.sender, houseId: houseId, startDate: startDate, endDate: endDate, isAccepted:0}) */\n      dup2\n      mstore\n      0x20\n      add\n        /* \"HomeConnect/HouseRental.sol\":2933:2940  endDate */\n      dup7\n        /* \"HomeConnect/HouseRental.sol\":2834:2956  Request({requestId: requestId,tenant: msg.sender, houseId: houseId, startDate: startDate, endDate: endDate, isAccepted:0}) */\n      dup2\n      mstore\n      0x20\n      add\n        /* \"HomeConnect/HouseRental.sol\":2953:2954  0 */\n      0x00\n        /* \"HomeConnect/HouseRental.sol\":2834:2956  Request({requestId: requestId,tenant: msg.sender, houseId: houseId, startDate: startDate, endDate: endDate, isAccepted:0}) */\n      dup2\n      mstore\n      pop\n        /* \"HomeConnect/HouseRental.sol\":2810:2957  requests[landlord].push(Request({requestId: requestId,tenant: msg.sender, houseId: houseId, startDate: startDate, endDate: endDate, isAccepted:0})) */\n      swap1\n      dup1\n      0x01\n      dup2\n      sload\n      add\n      dup1\n      dup3\n      sstore\n      dup1\n      swap2\n      pop\n      pop\n      0x01\n      swap1\n      sub\n      swap1\n      0x00\n      mstore\n      keccak256(0x00, 0x20)\n      swap1\n      0x06\n      mul\n      add\n      0x00\n      swap1\n      swap2\n      swap1\n      swap2\n      swap1\n      swap2\n      pop\n      0x00\n      dup3\n      add\n      mload\n      dup2\n      0x00\n      add\n      sstore\n      0x20\n      dup3\n      add\n      mload\n      dup2\n      0x01\n      add\n      exp(0x0100, 0x00)\n      dup2\n      sload\n      dup2\n      0xffffffffffffffffffffffffffffffffffffffff\n      mul\n      not\n      and\n      swap1\n      dup4\n      0xffffffffffffffffffffffffffffffffffffffff\n      and\n      mul\n      or\n      swap1\n      sstore\n      pop\n      0x40\n      dup3\n      add\n      mload\n      dup2\n      0x02\n      add\n      sstore\n      0x60\n      dup3\n      add\n      mload\n      dup2\n      0x03\n      add\n      sstore\n      0x80\n      dup3\n      add\n      mload\n      dup2\n      0x04\n      add\n      sstore\n      0xa0\n      dup3\n      add\n      mload\n      dup2\n      0x05\n      add\n      sstore\n      pop\n      pop\n        /* \"HomeConnect/HouseRental.sol\":2969:3003  RequestSent(msg.sender, requestId) */\n      0x0c27e43af6588b65dccc4465720ef720b7cf45f5fba352df8607ae1cfea9089b\n        /* \"HomeConnect/HouseRental.sol\":2981:2991  msg.sender */\n      caller\n        /* \"HomeConnect/HouseRental.sol\":2993:3002  requestId */\n      dup3\n        /* \"HomeConnect/HouseRental.sol\":2969:3003  RequestSent(msg.sender, requestId) */\n      mload(0x40)\n      tag_260\n      swap3\n      swap2\n      swap1\n      tag_261\n      jump\t// in\n    tag_260:\n      mload(0x40)\n      dup1\n      swap2\n      sub\n      swap1\n      log1\n        /* \"HomeConnect/HouseRental.sol\":2440:3007  {... */\n      pop\n      pop\n      pop\n        /* \"HomeConnect/HouseRental.sol\":2358:3007  function  sendRequest (uint256 houseId,uint256 startDate, uint256 endDate) public {... */\n      pop\n      pop\n      pop\n      jump\t// out\n        /* \"HomeConnect/HouseRental.sol\":2246:2332  function getAllHouses() public view returns(House[] memory){... */\n    tag_72:\n        /* \"HomeConnect/HouseRental.sol\":2290:2304  House[] memory */\n      0x60\n        /* \"HomeConnect/HouseRental.sol\":2321:2327  houses */\n      0x00\n        /* \"HomeConnect/HouseRental.sol\":2314:2327  return houses */\n      dup1\n      sload\n      dup1\n      0x20\n      mul\n      0x20\n      add\n      mload(0x40)\n      swap1\n      dup2\n      add\n      0x40\n      mstore\n      dup1\n      swap3\n      swap2\n      swap1\n      dup2\n      dup2\n      mstore\n      0x20\n      add\n      0x00\n      swap1\n    tag_263:\n      dup3\n      dup3\n      lt\n      iszero\n      tag_264\n      jumpi\n      dup4\n      dup3\n      swap1\n      0x00\n      mstore\n      keccak256(0x00, 0x20)\n      swap1\n      0x09\n      mul\n      add\n      mload(0x40)\n      dup1\n      0x0120\n      add\n      0x40\n      mstore\n      swap1\n      dup2\n      0x00\n      dup3\n      add\n      sload\n      dup2\n      mstore\n      0x20\n      add\n      0x01\n      dup3\n      add\n      0x00\n      swap1\n      sload\n      swap1\n      0x0100\n      exp\n      swap1\n      div\n      0xffffffffffffffffffffffffffffffffffffffff\n      and\n      0xffffffffffffffffffffffffffffffffffffffff\n      and\n      0xffffffffffffffffffffffffffffffffffffffff\n      and\n      dup2\n      mstore\n      0x20\n      add\n      0x02\n      dup3\n      add\n      dup1\n      sload\n      tag_266\n      swap1\n      tag_146\n      jump\t// in\n    tag_266:\n      dup1\n      0x1f\n      add\n      0x20\n      dup1\n      swap2\n      div\n      mul\n      0x20\n      add\n      mload(0x40)\n      swap1\n      dup2\n      add\n      0x40\n      mstore\n      dup1\n      swap3\n      swap2\n      swap1\n      dup2\n      dup2\n      mstore\n      0x20\n      add\n      dup3\n      dup1\n      sload\n      tag_267\n      swap1\n      tag_146\n      jump\t// in\n    tag_267:\n      dup1\n      iszero\n      tag_268\n      jumpi\n      dup1\n      0x1f\n      lt\n      tag_269\n      jumpi\n      0x0100\n      dup1\n      dup4\n      sload\n      div\n      mul\n      dup4\n      mstore\n      swap2\n      0x20\n      add\n      swap2\n      jump(tag_268)\n    tag_269:\n      dup3\n      add\n      swap2\n      swap1\n      0x00\n      mstore\n      keccak256(0x00, 0x20)\n      swap1\n    tag_270:\n      dup2\n      sload\n      dup2\n      mstore\n      swap1\n      0x01\n      add\n      swap1\n      0x20\n      add\n      dup1\n      dup4\n      gt\n      tag_270\n      jumpi\n      dup3\n      swap1\n      sub\n      0x1f\n      and\n      dup3\n      add\n      swap2\n    tag_268:\n      pop\n      pop\n      pop\n      pop\n      pop\n      dup2\n      mstore\n      0x20\n      add\n      0x03\n      dup3\n      add\n      sload\n      dup2\n      mstore\n      0x20\n      add\n      0x04\n      dup3\n      add\n      sload\n      dup2\n      mstore\n      0x20\n      add\n      0x05\n      dup3\n      add\n      sload\n      dup2\n      mstore\n      0x20\n      add\n      0x06\n      dup3\n      add\n      sload\n      dup2\n      mstore\n      0x20\n      add\n      0x07\n      dup3\n      add\n      sload\n      dup2\n      mstore\n      0x20\n      add\n      0x08\n      dup3\n      add\n      sload\n      dup2\n      mstore\n      pop\n      pop\n      dup2\n      mstore\n      0x20\n      add\n      swap1\n      0x01\n      add\n      swap1\n      jump(tag_263)\n    tag_264:\n      pop\n      pop\n      pop\n      pop\n      swap1\n      pop\n        /* \"HomeConnect/HouseRental.sol\":2246:2332  function getAllHouses() public view returns(House[] memory){... */\n      swap1\n      jump\t// out\n        /* \"HomeConnect/HouseRental.sol\":6158:6817  function payRent(uint256 rentalId) public payable {... */\n    tag_77:\n        /* \"HomeConnect/HouseRental.sol\":6273:6274  0 */\n      0x00\n        /* \"HomeConnect/HouseRental.sol\":6225:6238  tenantRentals */\n      0x03\n        /* \"HomeConnect/HouseRental.sol\":6225:6250  tenantRentals[msg.sender] */\n      0x00\n        /* \"HomeConnect/HouseRental.sol\":6239:6249  msg.sender */\n      caller\n        /* \"HomeConnect/HouseRental.sol\":6225:6250  tenantRentals[msg.sender] */\n      0xffffffffffffffffffffffffffffffffffffffff\n      and\n      0xffffffffffffffffffffffffffffffffffffffff\n      and\n      dup2\n      mstore\n      0x20\n      add\n      swap1\n      dup2\n      mstore\n      0x20\n      add\n      0x00\n      keccak256\n        /* \"HomeConnect/HouseRental.sol\":6251:6259  rentalId */\n      dup3\n        /* \"HomeConnect/HouseRental.sol\":6225:6260  tenantRentals[msg.sender][rentalId] */\n      dup2\n      sload\n      dup2\n      lt\n      tag_272\n      jumpi\n      tag_273\n      tag_89\n      jump\t// in\n    tag_273:\n    tag_272:\n      swap1\n      0x00\n      mstore\n      keccak256(0x00, 0x20)\n      swap1\n      0x09\n      mul\n      add\n        /* \"HomeConnect/HouseRental.sol\":6225:6270  tenantRentals[msg.sender][rentalId].amountDue */\n      0x06\n      add\n      sload\n        /* \"HomeConnect/HouseRental.sol\":6225:6274  tenantRentals[msg.sender][rentalId].amountDue > 0 */\n      gt\n        /* \"HomeConnect/HouseRental.sol\":6217:6312  require(tenantRentals[msg.sender][rentalId].amountDue > 0, \"You don't have an amount due yet!\") */\n      tag_275\n      jumpi\n      mload(0x40)\n      0x08c379a000000000000000000000000000000000000000000000000000000000\n      dup2\n      mstore\n      0x04\n      add\n      tag_276\n      swap1\n      tag_277\n      jump\t// in\n    tag_276:\n      mload(0x40)\n      dup1\n      swap2\n      sub\n      swap1\n      revert\n    tag_275:\n        /* \"HomeConnect/HouseRental.sol\":6319:6334  uint256 houseId */\n      0x00\n        /* \"HomeConnect/HouseRental.sol\":6337:6350  tenantRentals */\n      0x03\n        /* \"HomeConnect/HouseRental.sol\":6337:6362  tenantRentals[msg.sender] */\n      0x00\n        /* \"HomeConnect/HouseRental.sol\":6351:6361  msg.sender */\n      caller\n        /* \"HomeConnect/HouseRental.sol\":6337:6362  tenantRentals[msg.sender] */\n      0xffffffffffffffffffffffffffffffffffffffff\n      and\n      0xffffffffffffffffffffffffffffffffffffffff\n      and\n      dup2\n      mstore\n      0x20\n      add\n      swap1\n      dup2\n      mstore\n      0x20\n      add\n      0x00\n      keccak256\n        /* \"HomeConnect/HouseRental.sol\":6363:6371  rentalId */\n      dup3\n        /* \"HomeConnect/HouseRental.sol\":6337:6372  tenantRentals[msg.sender][rentalId] */\n      dup2\n      sload\n      dup2\n      lt\n      tag_278\n      jumpi\n      tag_279\n      tag_89\n      jump\t// in\n    tag_279:\n    tag_278:\n      swap1\n      0x00\n      mstore\n      keccak256(0x00, 0x20)\n      swap1\n      0x09\n      mul\n      add\n        /* \"HomeConnect/HouseRental.sol\":6337:6380  tenantRentals[msg.sender][rentalId].houseId */\n      0x02\n      add\n      sload\n        /* \"HomeConnect/HouseRental.sol\":6319:6380  uint256 houseId = tenantRentals[msg.sender][rentalId].houseId */\n      swap1\n      pop\n        /* \"HomeConnect/HouseRental.sol\":6395:6401  houses */\n      0x00\n        /* \"HomeConnect/HouseRental.sol\":6402:6409  houseId */\n      dup2\n        /* \"HomeConnect/HouseRental.sol\":6395:6410  houses[houseId] */\n      dup2\n      sload\n      dup2\n      lt\n      tag_281\n      jumpi\n      tag_282\n      tag_89\n      jump\t// in\n    tag_282:\n    tag_281:\n      swap1\n      0x00\n      mstore\n      keccak256(0x00, 0x20)\n      swap1\n      0x09\n      mul\n      add\n        /* \"HomeConnect/HouseRental.sol\":6395:6419  houses[houseId].landlord */\n      0x01\n      add\n      0x00\n      swap1\n      sload\n      swap1\n      0x0100\n      exp\n      swap1\n      div\n      0xffffffffffffffffffffffffffffffffffffffff\n      and\n        /* \"HomeConnect/HouseRental.sol\":6387:6429  payable(houses[houseId].landlord).transfer */\n      0xffffffffffffffffffffffffffffffffffffffff\n      and\n        /* \"HomeConnect/HouseRental.sol\":6387:6440  payable(houses[houseId].landlord).transfer(msg.value) */\n      0x08fc\n        /* \"HomeConnect/HouseRental.sol\":6430:6439  msg.value */\n      callvalue\n        /* \"HomeConnect/HouseRental.sol\":6387:6440  payable(houses[houseId].landlord).transfer(msg.value) */\n      swap1\n      dup2\n      iszero\n      mul\n      swap1\n      mload(0x40)\n      0x00\n      mload(0x40)\n      dup1\n      dup4\n      sub\n      dup2\n      dup6\n      dup9\n      dup9\n      call\n      swap4\n      pop\n      pop\n      pop\n      pop\n      iszero\n      dup1\n      iszero\n      tag_285\n      jumpi\n      returndatasize\n      0x00\n      dup1\n      returndatacopy\n      revert(0x00, returndatasize)\n    tag_285:\n      pop\n        /* \"HomeConnect/HouseRental.sol\":6494:6503  msg.value */\n      callvalue\n        /* \"HomeConnect/HouseRental.sol\":6447:6460  tenantRentals */\n      0x03\n        /* \"HomeConnect/HouseRental.sol\":6447:6472  tenantRentals[msg.sender] */\n      0x00\n        /* \"HomeConnect/HouseRental.sol\":6461:6471  msg.sender */\n      caller\n        /* \"HomeConnect/HouseRental.sol\":6447:6472  tenantRentals[msg.sender] */\n      0xffffffffffffffffffffffffffffffffffffffff\n      and\n      0xffffffffffffffffffffffffffffffffffffffff\n      and\n      dup2\n      mstore\n      0x20\n      add\n      swap1\n      dup2\n      mstore\n      0x20\n      add\n      0x00\n      keccak256\n        /* \"HomeConnect/HouseRental.sol\":6473:6481  rentalId */\n      dup4\n        /* \"HomeConnect/HouseRental.sol\":6447:6482  tenantRentals[msg.sender][rentalId] */\n      dup2\n      sload\n      dup2\n      lt\n      tag_286\n      jumpi\n      tag_287\n      tag_89\n      jump\t// in\n    tag_287:\n    tag_286:\n      swap1\n      0x00\n      mstore\n      keccak256(0x00, 0x20)\n      swap1\n      0x09\n      mul\n      add\n        /* \"HomeConnect/HouseRental.sol\":6447:6492  tenantRentals[msg.sender][rentalId].amountDue */\n      0x06\n      add\n      0x00\n        /* \"HomeConnect/HouseRental.sol\":6447:6503  tenantRentals[msg.sender][rentalId].amountDue-=msg.value */\n      dup3\n      dup3\n      sload\n      tag_289\n      swap2\n      swap1\n      tag_203\n      jump\t// in\n    tag_289:\n      swap3\n      pop\n      pop\n      dup2\n      swap1\n      sstore\n      pop\n        /* \"HomeConnect/HouseRental.sol\":6563:6572  msg.value */\n      callvalue\n        /* \"HomeConnect/HouseRental.sol\":6511:6524  tenantRentals */\n      0x03\n        /* \"HomeConnect/HouseRental.sol\":6511:6536  tenantRentals[msg.sender] */\n      0x00\n        /* \"HomeConnect/HouseRental.sol\":6525:6535  msg.sender */\n      caller\n        /* \"HomeConnect/HouseRental.sol\":6511:6536  tenantRentals[msg.sender] */\n      0xffffffffffffffffffffffffffffffffffffffff\n      and\n      0xffffffffffffffffffffffffffffffffffffffff\n      and\n      dup2\n      mstore\n      0x20\n      add\n      swap1\n      dup2\n      mstore\n      0x20\n      add\n      0x00\n      keccak256\n        /* \"HomeConnect/HouseRental.sol\":6537:6545  rentalId */\n      dup4\n        /* \"HomeConnect/HouseRental.sol\":6511:6546  tenantRentals[msg.sender][rentalId] */\n      dup2\n      sload\n      dup2\n      lt\n      tag_290\n      jumpi\n      tag_291\n      tag_89\n      jump\t// in\n    tag_291:\n    tag_290:\n      swap1\n      0x00\n      mstore\n      keccak256(0x00, 0x20)\n      swap1\n      0x09\n      mul\n      add\n        /* \"HomeConnect/HouseRental.sol\":6511:6561  tenantRentals[msg.sender][rentalId].totalAmountDue */\n      0x07\n      add\n      0x00\n        /* \"HomeConnect/HouseRental.sol\":6511:6572  tenantRentals[msg.sender][rentalId].totalAmountDue-=msg.value */\n      dup3\n      dup3\n      sload\n      tag_293\n      swap2\n      swap1\n      tag_203\n      jump\t// in\n    tag_293:\n      swap3\n      pop\n      pop\n      dup2\n      swap1\n      sstore\n      pop\n        /* \"HomeConnect/HouseRental.sol\":6585:6624  RentPaid(rentalId,msg.sender,msg.value) */\n      0x63e55317e25c0cab3a2de23ee0e244496daea0c1c2b8e272bbc01722b96bb9ae\n        /* \"HomeConnect/HouseRental.sol\":6594:6602  rentalId */\n      dup3\n        /* \"HomeConnect/HouseRental.sol\":6603:6613  msg.sender */\n      caller\n        /* \"HomeConnect/HouseRental.sol\":6614:6623  msg.value */\n      callvalue\n        /* \"HomeConnect/HouseRental.sol\":6585:6624  RentPaid(rentalId,msg.sender,msg.value) */\n      mload(0x40)\n      tag_294\n      swap4\n      swap3\n      swap2\n      swap1\n      tag_295\n      jump\t// in\n    tag_294:\n      mload(0x40)\n      dup1\n      swap2\n      sub\n      swap1\n      log1\n        /* \"HomeConnect/HouseRental.sol\":6689:6690  0 */\n      0x00\n        /* \"HomeConnect/HouseRental.sol\":6637:6650  tenantRentals */\n      0x03\n        /* \"HomeConnect/HouseRental.sol\":6637:6662  tenantRentals[msg.sender] */\n      0x00\n        /* \"HomeConnect/HouseRental.sol\":6651:6661  msg.sender */\n      caller\n        /* \"HomeConnect/HouseRental.sol\":6637:6662  tenantRentals[msg.sender] */\n      0xffffffffffffffffffffffffffffffffffffffff\n      and\n      0xffffffffffffffffffffffffffffffffffffffff\n      and\n      dup2\n      mstore\n      0x20\n      add\n      swap1\n      dup2\n      mstore\n      0x20\n      add\n      0x00\n      keccak256\n        /* \"HomeConnect/HouseRental.sol\":6663:6671  rentalId */\n      dup4\n        /* \"HomeConnect/HouseRental.sol\":6637:6672  tenantRentals[msg.sender][rentalId] */\n      dup2\n      sload\n      dup2\n      lt\n      tag_296\n      jumpi\n      tag_297\n      tag_89\n      jump\t// in\n    tag_297:\n    tag_296:\n      swap1\n      0x00\n      mstore\n      keccak256(0x00, 0x20)\n      swap1\n      0x09\n      mul\n      add\n        /* \"HomeConnect/HouseRental.sol\":6637:6687  tenantRentals[msg.sender][rentalId].totalAmountDue */\n      0x07\n      add\n      sload\n        /* \"HomeConnect/HouseRental.sol\":6637:6690  tenantRentals[msg.sender][rentalId].totalAmountDue==0 */\n      sub\n        /* \"HomeConnect/HouseRental.sol\":6633:6814  if (tenantRentals[msg.sender][rentalId].totalAmountDue==0){... */\n      tag_299\n      jumpi\n        /* \"HomeConnect/HouseRental.sol\":6706:6716  msg.sender */\n      caller\n        /* \"HomeConnect/HouseRental.sol\":6698:6726  payable(msg.sender).transfer */\n      0xffffffffffffffffffffffffffffffffffffffff\n      and\n        /* \"HomeConnect/HouseRental.sol\":6698:6751  payable(msg.sender).transfer(houses[houseId].deposit) */\n      0x08fc\n        /* \"HomeConnect/HouseRental.sol\":6727:6733  houses */\n      0x00\n        /* \"HomeConnect/HouseRental.sol\":6734:6741  houseId */\n      dup4\n        /* \"HomeConnect/HouseRental.sol\":6727:6742  houses[houseId] */\n      dup2\n      sload\n      dup2\n      lt\n      tag_300\n      jumpi\n      tag_301\n      tag_89\n      jump\t// in\n    tag_301:\n    tag_300:\n      swap1\n      0x00\n      mstore\n      keccak256(0x00, 0x20)\n      swap1\n      0x09\n      mul\n      add\n        /* \"HomeConnect/HouseRental.sol\":6727:6750  houses[houseId].deposit */\n      0x04\n      add\n      sload\n        /* \"HomeConnect/HouseRental.sol\":6698:6751  payable(msg.sender).transfer(houses[houseId].deposit) */\n      swap1\n      dup2\n      iszero\n      mul\n      swap1\n      mload(0x40)\n      0x00\n      mload(0x40)\n      dup1\n      dup4\n      sub\n      dup2\n      dup6\n      dup9\n      dup9\n      call\n      swap4\n      pop\n      pop\n      pop\n      pop\n      iszero\n      dup1\n      iszero\n      tag_304\n      jumpi\n      returndatasize\n      0x00\n      dup1\n      returndatacopy\n      revert(0x00, returndatasize)\n    tag_304:\n      pop\n        /* \"HomeConnect/HouseRental.sol\":6767:6804  RentalCompleted(rentalId, msg.sender) */\n      0xc8891cc8407e9bc09a78421bd234c3fd57d71a2cc5f1ac6d5602070add66d0dd\n        /* \"HomeConnect/HouseRental.sol\":6783:6791  rentalId */\n      dup3\n        /* \"HomeConnect/HouseRental.sol\":6793:6803  msg.sender */\n      caller\n        /* \"HomeConnect/HouseRental.sol\":6767:6804  RentalCompleted(rentalId, msg.sender) */\n      mload(0x40)\n      tag_305\n      swap3\n      swap2\n      swap1\n      tag_95\n      jump\t// in\n    tag_305:\n      mload(0x40)\n      dup1\n      swap2\n      sub\n      swap1\n      log1\n        /* \"HomeConnect/HouseRental.sol\":6633:6814  if (tenantRentals[msg.sender][rentalId].totalAmountDue==0){... */\n    tag_299:\n        /* \"HomeConnect/HouseRental.sol\":6208:6817  {... */\n      pop\n        /* \"HomeConnect/HouseRental.sol\":6158:6817  function payRent(uint256 rentalId) public payable {... */\n      pop\n      jump\t// out\n        /* \"HomeConnect/HouseRental.sol\":6017:6154  function getRentalData() public returns (Rental[] memory) {... */\n    tag_80:\n        /* \"HomeConnect/HouseRental.sol\":6058:6073  Rental[] memory */\n      0x60\n        /* \"HomeConnect/HouseRental.sol\":6083:6111  updateRentalData(msg.sender) */\n      tag_307\n        /* \"HomeConnect/HouseRental.sol\":6100:6110  msg.sender */\n      caller\n        /* \"HomeConnect/HouseRental.sol\":6083:6099  updateRentalData */\n      tag_26\n        /* \"HomeConnect/HouseRental.sol\":6083:6111  updateRentalData(msg.sender) */\n      jump\t// in\n    tag_307:\n        /* \"HomeConnect/HouseRental.sol\":6124:6137  tenantRentals */\n      0x03\n        /* \"HomeConnect/HouseRental.sol\":6124:6149  tenantRentals[msg.sender] */\n      0x00\n        /* \"HomeConnect/HouseRental.sol\":6138:6148  msg.sender */\n      caller\n        /* \"HomeConnect/HouseRental.sol\":6124:6149  tenantRentals[msg.sender] */\n      0xffffffffffffffffffffffffffffffffffffffff\n      and\n      0xffffffffffffffffffffffffffffffffffffffff\n      and\n      dup2\n      mstore\n      0x20\n      add\n      swap1\n      dup2\n      mstore\n      0x20\n      add\n      0x00\n      keccak256\n        /* \"HomeConnect/HouseRental.sol\":6117:6149  return tenantRentals[msg.sender] */\n      dup1\n      sload\n      dup1\n      0x20\n      mul\n      0x20\n      add\n      mload(0x40)\n      swap1\n      dup2\n      add\n      0x40\n      mstore\n      dup1\n      swap3\n      swap2\n      swap1\n      dup2\n      dup2\n      mstore\n      0x20\n      add\n      0x00\n      swap1\n    tag_308:\n      dup3\n      dup3\n      lt\n      iszero\n      tag_309\n      jumpi\n      dup4\n      dup3\n      swap1\n      0x00\n      mstore\n      keccak256(0x00, 0x20)\n      swap1\n      0x09\n      mul\n      add\n      mload(0x40)\n      dup1\n      0x0120\n      add\n      0x40\n      mstore\n      swap1\n      dup2\n      0x00\n      dup3\n      add\n      sload\n      dup2\n      mstore\n      0x20\n      add\n      0x01\n      dup3\n      add\n      0x00\n      swap1\n      sload\n      swap1\n      0x0100\n      exp\n      swap1\n      div\n      0xffffffffffffffffffffffffffffffffffffffff\n      and\n      0xffffffffffffffffffffffffffffffffffffffff\n      and\n      0xffffffffffffffffffffffffffffffffffffffff\n      and\n      dup2\n      mstore\n      0x20\n      add\n      0x02\n      dup3\n      add\n      sload\n      dup2\n      mstore\n      0x20\n      add\n      0x03\n      dup3\n      add\n      sload\n      dup2\n      mstore\n      0x20\n      add\n      0x04\n      dup3\n      add\n      sload\n      dup2\n      mstore\n      0x20\n      add\n      0x05\n      dup3\n      add\n      sload\n      dup2\n      mstore\n      0x20\n      add\n      0x06\n      dup3\n      add\n      sload\n      dup2\n      mstore\n      0x20\n      add\n      0x07\n      dup3\n      add\n      sload\n      dup2\n      mstore\n      0x20\n      add\n      0x08\n      dup3\n      add\n      sload\n      dup2\n      mstore\n      pop\n      pop\n      dup2\n      mstore\n      0x20\n      add\n      swap1\n      0x01\n      add\n      swap1\n      jump(tag_308)\n    tag_309:\n      pop\n      pop\n      pop\n      pop\n      swap1\n      pop\n        /* \"HomeConnect/HouseRental.sol\":6017:6154  function getRentalData() public returns (Rental[] memory) {... */\n      swap1\n      jump\t// out\n        /* \"#utility.yul\":7:82   */\n    tag_311:\n        /* \"#utility.yul\":40:46   */\n      0x00\n        /* \"#utility.yul\":73:75   */\n      0x40\n        /* \"#utility.yul\":67:76   */\n      mload\n        /* \"#utility.yul\":57:76   */\n      swap1\n      pop\n        /* \"#utility.yul\":7:82   */\n      swap1\n      jump\t// out\n        /* \"#utility.yul\":88:205   */\n    tag_312:\n        /* \"#utility.yul\":197:198   */\n      0x00\n        /* \"#utility.yul\":194:195   */\n      dup1\n        /* \"#utility.yul\":187:199   */\n      revert\n        /* \"#utility.yul\":211:328   */\n    tag_313:\n        /* \"#utility.yul\":320:321   */\n      0x00\n        /* \"#utility.yul\":317:318   */\n      dup1\n        /* \"#utility.yul\":310:322   */\n      revert\n        /* \"#utility.yul\":334:451   */\n    tag_314:\n        /* \"#utility.yul\":443:444   */\n      0x00\n        /* \"#utility.yul\":440:441   */\n      dup1\n        /* \"#utility.yul\":433:445   */\n      revert\n        /* \"#utility.yul\":457:574   */\n    tag_315:\n        /* \"#utility.yul\":566:567   */\n      0x00\n        /* \"#utility.yul\":563:564   */\n      dup1\n        /* \"#utility.yul\":556:568   */\n      revert\n        /* \"#utility.yul\":580:682   */\n    tag_316:\n        /* \"#utility.yul\":621:627   */\n      0x00\n        /* \"#utility.yul\":672:674   */\n      0x1f\n        /* \"#utility.yul\":668:675   */\n      not\n        /* \"#utility.yul\":663:665   */\n      0x1f\n        /* \"#utility.yul\":656:661   */\n      dup4\n        /* \"#utility.yul\":652:666   */\n      add\n        /* \"#utility.yul\":648:676   */\n      and\n        /* \"#utility.yul\":638:676   */\n      swap1\n      pop\n        /* \"#utility.yul\":580:682   */\n      swap2\n      swap1\n      pop\n      jump\t// out\n        /* \"#utility.yul\":688:868   */\n    tag_317:\n        /* \"#utility.yul\":736:813   */\n      0x4e487b7100000000000000000000000000000000000000000000000000000000\n        /* \"#utility.yul\":733:734   */\n      0x00\n        /* \"#utility.yul\":726:814   */\n      mstore\n        /* \"#utility.yul\":833:837   */\n      0x41\n        /* \"#utility.yul\":830:831   */\n      0x04\n        /* \"#utility.yul\":823:838   */\n      mstore\n        /* \"#utility.yul\":857:861   */\n      0x24\n        /* \"#utility.yul\":854:855   */\n      0x00\n        /* \"#utility.yul\":847:862   */\n      revert\n        /* \"#utility.yul\":874:1155   */\n    tag_318:\n        /* \"#utility.yul\":957:984   */\n      tag_402\n        /* \"#utility.yul\":979:983   */\n      dup3\n        /* \"#utility.yul\":957:984   */\n      tag_316\n      jump\t// in\n    tag_402:\n        /* \"#utility.yul\":949:955   */\n      dup2\n        /* \"#utility.yul\":945:985   */\n      add\n        /* \"#utility.yul\":1087:1093   */\n      dup2\n        /* \"#utility.yul\":1075:1085   */\n      dup2\n        /* \"#utility.yul\":1072:1094   */\n      lt\n        /* \"#utility.yul\":1051:1069   */\n      0xffffffffffffffff\n        /* \"#utility.yul\":1039:1049   */\n      dup3\n        /* \"#utility.yul\":1036:1070   */\n      gt\n        /* \"#utility.yul\":1033:1095   */\n      or\n        /* \"#utility.yul\":1030:1118   */\n      iszero\n      tag_403\n      jumpi\n        /* \"#utility.yul\":1098:1116   */\n      tag_404\n      tag_317\n      jump\t// in\n    tag_404:\n        /* \"#utility.yul\":1030:1118   */\n    tag_403:\n        /* \"#utility.yul\":1138:1148   */\n      dup1\n        /* \"#utility.yul\":1134:1136   */\n      0x40\n        /* \"#utility.yul\":1127:1149   */\n      mstore\n        /* \"#utility.yul\":917:1155   */\n      pop\n        /* \"#utility.yul\":874:1155   */\n      pop\n      pop\n      jump\t// out\n        /* \"#utility.yul\":1161:1290   */\n    tag_319:\n        /* \"#utility.yul\":1195:1201   */\n      0x00\n        /* \"#utility.yul\":1222:1242   */\n      tag_406\n      tag_311\n      jump\t// in\n    tag_406:\n        /* \"#utility.yul\":1212:1242   */\n      swap1\n      pop\n        /* \"#utility.yul\":1251:1284   */\n      tag_407\n        /* \"#utility.yul\":1279:1283   */\n      dup3\n        /* \"#utility.yul\":1271:1277   */\n      dup3\n        /* \"#utility.yul\":1251:1284   */\n      tag_318\n      jump\t// in\n    tag_407:\n        /* \"#utility.yul\":1161:1290   */\n      swap2\n      swap1\n      pop\n      jump\t// out\n        /* \"#utility.yul\":1296:1604   */\n    tag_320:\n        /* \"#utility.yul\":1358:1362   */\n      0x00\n        /* \"#utility.yul\":1448:1466   */\n      0xffffffffffffffff\n        /* \"#utility.yul\":1440:1446   */\n      dup3\n        /* \"#utility.yul\":1437:1467   */\n      gt\n        /* \"#utility.yul\":1434:1490   */\n      iszero\n      tag_409\n      jumpi\n        /* \"#utility.yul\":1470:1488   */\n      tag_410\n      tag_317\n      jump\t// in\n    tag_410:\n        /* \"#utility.yul\":1434:1490   */\n    tag_409:\n        /* \"#utility.yul\":1508:1537   */\n      tag_411\n        /* \"#utility.yul\":1530:1536   */\n      dup3\n        /* \"#utility.yul\":1508:1537   */\n      tag_316\n      jump\t// in\n    tag_411:\n        /* \"#utility.yul\":1500:1537   */\n      swap1\n      pop\n        /* \"#utility.yul\":1592:1596   */\n      0x20\n        /* \"#utility.yul\":1586:1590   */\n      dup2\n        /* \"#utility.yul\":1582:1597   */\n      add\n        /* \"#utility.yul\":1574:1597   */\n      swap1\n      pop\n        /* \"#utility.yul\":1296:1604   */\n      swap2\n      swap1\n      pop\n      jump\t// out\n        /* \"#utility.yul\":1610:1756   */\n    tag_321:\n        /* \"#utility.yul\":1707:1713   */\n      dup3\n        /* \"#utility.yul\":1702:1705   */\n      dup2\n        /* \"#utility.yul\":1697:1700   */\n      dup4\n        /* \"#utility.yul\":1684:1714   */\n      calldatacopy\n        /* \"#utility.yul\":1748:1749   */\n      0x00\n        /* \"#utility.yul\":1739:1745   */\n      dup4\n        /* \"#utility.yul\":1734:1737   */\n      dup4\n        /* \"#utility.yul\":1730:1746   */\n      add\n        /* \"#utility.yul\":1723:1750   */\n      mstore\n        /* \"#utility.yul\":1610:1756   */\n      pop\n      pop\n      pop\n      jump\t// out\n        /* \"#utility.yul\":1762:2187   */\n    tag_322:\n        /* \"#utility.yul\":1840:1845   */\n      0x00\n        /* \"#utility.yul\":1865:1931   */\n      tag_414\n        /* \"#utility.yul\":1881:1930   */\n      tag_415\n        /* \"#utility.yul\":1923:1929   */\n      dup5\n        /* \"#utility.yul\":1881:1930   */\n      tag_320\n      jump\t// in\n    tag_415:\n        /* \"#utility.yul\":1865:1931   */\n      tag_319\n      jump\t// in\n    tag_414:\n        /* \"#utility.yul\":1856:1931   */\n      swap1\n      pop\n        /* \"#utility.yul\":1954:1960   */\n      dup3\n        /* \"#utility.yul\":1947:1952   */\n      dup2\n        /* \"#utility.yul\":1940:1961   */\n      mstore\n        /* \"#utility.yul\":1992:1996   */\n      0x20\n        /* \"#utility.yul\":1985:1990   */\n      dup2\n        /* \"#utility.yul\":1981:1997   */\n      add\n        /* \"#utility.yul\":2030:2033   */\n      dup5\n        /* \"#utility.yul\":2021:2027   */\n      dup5\n        /* \"#utility.yul\":2016:2019   */\n      dup5\n        /* \"#utility.yul\":2012:2028   */\n      add\n        /* \"#utility.yul\":2009:2034   */\n      gt\n        /* \"#utility.yul\":2006:2118   */\n      iszero\n      tag_416\n      jumpi\n        /* \"#utility.yul\":2037:2116   */\n      tag_417\n      tag_315\n      jump\t// in\n    tag_417:\n        /* \"#utility.yul\":2006:2118   */\n    tag_416:\n        /* \"#utility.yul\":2127:2181   */\n      tag_418\n        /* \"#utility.yul\":2174:2180   */\n      dup5\n        /* \"#utility.yul\":2169:2172   */\n      dup3\n        /* \"#utility.yul\":2164:2167   */\n      dup6\n        /* \"#utility.yul\":2127:2181   */\n      tag_321\n      jump\t// in\n    tag_418:\n        /* \"#utility.yul\":1846:2187   */\n      pop\n        /* \"#utility.yul\":1762:2187   */\n      swap4\n      swap3\n      pop\n      pop\n      pop\n      jump\t// out\n        /* \"#utility.yul\":2207:2547   */\n    tag_323:\n        /* \"#utility.yul\":2263:2268   */\n      0x00\n        /* \"#utility.yul\":2312:2315   */\n      dup3\n        /* \"#utility.yul\":2305:2309   */\n      0x1f\n        /* \"#utility.yul\":2297:2303   */\n      dup4\n        /* \"#utility.yul\":2293:2310   */\n      add\n        /* \"#utility.yul\":2289:2316   */\n      slt\n        /* \"#utility.yul\":2279:2401   */\n      tag_420\n      jumpi\n        /* \"#utility.yul\":2320:2399   */\n      tag_421\n      tag_314\n      jump\t// in\n    tag_421:\n        /* \"#utility.yul\":2279:2401   */\n    tag_420:\n        /* \"#utility.yul\":2437:2443   */\n      dup2\n        /* \"#utility.yul\":2424:2444   */\n      calldataload\n        /* \"#utility.yul\":2462:2541   */\n      tag_422\n        /* \"#utility.yul\":2537:2540   */\n      dup5\n        /* \"#utility.yul\":2529:2535   */\n      dup3\n        /* \"#utility.yul\":2522:2526   */\n      0x20\n        /* \"#utility.yul\":2514:2520   */\n      dup7\n        /* \"#utility.yul\":2510:2527   */\n      add\n        /* \"#utility.yul\":2462:2541   */\n      tag_322\n      jump\t// in\n    tag_422:\n        /* \"#utility.yul\":2453:2541   */\n      swap2\n      pop\n        /* \"#utility.yul\":2269:2547   */\n      pop\n        /* \"#utility.yul\":2207:2547   */\n      swap3\n      swap2\n      pop\n      pop\n      jump\t// out\n        /* \"#utility.yul\":2553:2630   */\n    tag_324:\n        /* \"#utility.yul\":2590:2597   */\n      0x00\n        /* \"#utility.yul\":2619:2624   */\n      dup2\n        /* \"#utility.yul\":2608:2624   */\n      swap1\n      pop\n        /* \"#utility.yul\":2553:2630   */\n      swap2\n      swap1\n      pop\n      jump\t// out\n        /* \"#utility.yul\":2636:2758   */\n    tag_325:\n        /* \"#utility.yul\":2709:2733   */\n      tag_425\n        /* \"#utility.yul\":2727:2732   */\n      dup2\n        /* \"#utility.yul\":2709:2733   */\n      tag_324\n      jump\t// in\n    tag_425:\n        /* \"#utility.yul\":2702:2707   */\n      dup2\n        /* \"#utility.yul\":2699:2734   */\n      eq\n        /* \"#utility.yul\":2689:2752   */\n      tag_426\n      jumpi\n        /* \"#utility.yul\":2748:2749   */\n      0x00\n        /* \"#utility.yul\":2745:2746   */\n      dup1\n        /* \"#utility.yul\":2738:2750   */\n      revert\n        /* \"#utility.yul\":2689:2752   */\n    tag_426:\n        /* \"#utility.yul\":2636:2758   */\n      pop\n      jump\t// out\n        /* \"#utility.yul\":2764:2903   */\n    tag_326:\n        /* \"#utility.yul\":2810:2815   */\n      0x00\n        /* \"#utility.yul\":2848:2854   */\n      dup2\n        /* \"#utility.yul\":2835:2855   */\n      calldataload\n        /* \"#utility.yul\":2826:2855   */\n      swap1\n      pop\n        /* \"#utility.yul\":2864:2897   */\n      tag_428\n        /* \"#utility.yul\":2891:2896   */\n      dup2\n        /* \"#utility.yul\":2864:2897   */\n      tag_325\n      jump\t// in\n    tag_428:\n        /* \"#utility.yul\":2764:2903   */\n      swap3\n      swap2\n      pop\n      pop\n      jump\t// out\n        /* \"#utility.yul\":2909:4146   */\n    tag_20:\n        /* \"#utility.yul\":3023:3029   */\n      0x00\n        /* \"#utility.yul\":3031:3037   */\n      dup1\n        /* \"#utility.yul\":3039:3045   */\n      0x00\n        /* \"#utility.yul\":3047:3053   */\n      dup1\n        /* \"#utility.yul\":3055:3061   */\n      0x00\n        /* \"#utility.yul\":3063:3069   */\n      dup1\n        /* \"#utility.yul\":3112:3115   */\n      0xc0\n        /* \"#utility.yul\":3100:3109   */\n      dup8\n        /* \"#utility.yul\":3091:3098   */\n      dup10\n        /* \"#utility.yul\":3087:3110   */\n      sub\n        /* \"#utility.yul\":3083:3116   */\n      slt\n        /* \"#utility.yul\":3080:3200   */\n      iszero\n      tag_430\n      jumpi\n        /* \"#utility.yul\":3119:3198   */\n      tag_431\n      tag_312\n      jump\t// in\n    tag_431:\n        /* \"#utility.yul\":3080:3200   */\n    tag_430:\n        /* \"#utility.yul\":3267:3268   */\n      0x00\n        /* \"#utility.yul\":3256:3265   */\n      dup8\n        /* \"#utility.yul\":3252:3269   */\n      add\n        /* \"#utility.yul\":3239:3270   */\n      calldataload\n        /* \"#utility.yul\":3297:3315   */\n      0xffffffffffffffff\n        /* \"#utility.yul\":3289:3295   */\n      dup2\n        /* \"#utility.yul\":3286:3316   */\n      gt\n        /* \"#utility.yul\":3283:3400   */\n      iszero\n      tag_432\n      jumpi\n        /* \"#utility.yul\":3319:3398   */\n      tag_433\n      tag_313\n      jump\t// in\n    tag_433:\n        /* \"#utility.yul\":3283:3400   */\n    tag_432:\n        /* \"#utility.yul\":3424:3487   */\n      tag_434\n        /* \"#utility.yul\":3479:3486   */\n      dup10\n        /* \"#utility.yul\":3470:3476   */\n      dup3\n        /* \"#utility.yul\":3459:3468   */\n      dup11\n        /* \"#utility.yul\":3455:3477   */\n      add\n        /* \"#utility.yul\":3424:3487   */\n      tag_323\n      jump\t// in\n    tag_434:\n        /* \"#utility.yul\":3414:3487   */\n      swap7\n      pop\n        /* \"#utility.yul\":3210:3497   */\n      pop\n        /* \"#utility.yul\":3536:3538   */\n      0x20\n        /* \"#utility.yul\":3562:3615   */\n      tag_435\n        /* \"#utility.yul\":3607:3614   */\n      dup10\n        /* \"#utility.yul\":3598:3604   */\n      dup3\n        /* \"#utility.yul\":3587:3596   */\n      dup11\n        /* \"#utility.yul\":3583:3605   */\n      add\n        /* \"#utility.yul\":3562:3615   */\n      tag_326\n      jump\t// in\n    tag_435:\n        /* \"#utility.yul\":3552:3615   */\n      swap6\n      pop\n        /* \"#utility.yul\":3507:3625   */\n      pop\n        /* \"#utility.yul\":3664:3666   */\n      0x40\n        /* \"#utility.yul\":3690:3743   */\n      tag_436\n        /* \"#utility.yul\":3735:3742   */\n      dup10\n        /* \"#utility.yul\":3726:3732   */\n      dup3\n        /* \"#utility.yul\":3715:3724   */\n      dup11\n        /* \"#utility.yul\":3711:3733   */\n      add\n        /* \"#utility.yul\":3690:3743   */\n      tag_326\n      jump\t// in\n    tag_436:\n        /* \"#utility.yul\":3680:3743   */\n      swap5\n      pop\n        /* \"#utility.yul\":3635:3753   */\n      pop\n        /* \"#utility.yul\":3792:3794   */\n      0x60\n        /* \"#utility.yul\":3818:3871   */\n      tag_437\n        /* \"#utility.yul\":3863:3870   */\n      dup10\n        /* \"#utility.yul\":3854:3860   */\n      dup3\n        /* \"#utility.yul\":3843:3852   */\n      dup11\n        /* \"#utility.yul\":3839:3861   */\n      add\n        /* \"#utility.yul\":3818:3871   */\n      tag_326\n      jump\t// in\n    tag_437:\n        /* \"#utility.yul\":3808:3871   */\n      swap4\n      pop\n        /* \"#utility.yul\":3763:3881   */\n      pop\n        /* \"#utility.yul\":3920:3923   */\n      0x80\n        /* \"#utility.yul\":3947:4000   */\n      tag_438\n        /* \"#utility.yul\":3992:3999   */\n      dup10\n        /* \"#utility.yul\":3983:3989   */\n      dup3\n        /* \"#utility.yul\":3972:3981   */\n      dup11\n        /* \"#utility.yul\":3968:3990   */\n      add\n        /* \"#utility.yul\":3947:4000   */\n      tag_326\n      jump\t// in\n    tag_438:\n        /* \"#utility.yul\":3937:4000   */\n      swap3\n      pop\n        /* \"#utility.yul\":3891:4010   */\n      pop\n        /* \"#utility.yul\":4049:4052   */\n      0xa0\n        /* \"#utility.yul\":4076:4129   */\n      tag_439\n        /* \"#utility.yul\":4121:4128   */\n      dup10\n        /* \"#utility.yul\":4112:4118   */\n      dup3\n        /* \"#utility.yul\":4101:4110   */\n      dup11\n        /* \"#utility.yul\":4097:4119   */\n      add\n        /* \"#utility.yul\":4076:4129   */\n      tag_326\n      jump\t// in\n    tag_439:\n        /* \"#utility.yul\":4066:4129   */\n      swap2\n      pop\n        /* \"#utility.yul\":4020:4139   */\n      pop\n        /* \"#utility.yul\":2909:4146   */\n      swap3\n      swap6\n      pop\n      swap3\n      swap6\n      pop\n      swap3\n      swap6\n      jump\t// out\n        /* \"#utility.yul\":4152:4278   */\n    tag_327:\n        /* \"#utility.yul\":4189:4196   */\n      0x00\n        /* \"#utility.yul\":4229:4271   */\n      0xffffffffffffffffffffffffffffffffffffffff\n        /* \"#utility.yul\":4222:4227   */\n      dup3\n        /* \"#utility.yul\":4218:4272   */\n      and\n        /* \"#utility.yul\":4207:4272   */\n      swap1\n      pop\n        /* \"#utility.yul\":4152:4278   */\n      swap2\n      swap1\n      pop\n      jump\t// out\n        /* \"#utility.yul\":4284:4380   */\n    tag_328:\n        /* \"#utility.yul\":4321:4328   */\n      0x00\n        /* \"#utility.yul\":4350:4374   */\n      tag_442\n        /* \"#utility.yul\":4368:4373   */\n      dup3\n        /* \"#utility.yul\":4350:4374   */\n      tag_327\n      jump\t// in\n    tag_442:\n        /* \"#utility.yul\":4339:4374   */\n      swap1\n      pop\n        /* \"#utility.yul\":4284:4380   */\n      swap2\n      swap1\n      pop\n      jump\t// out\n        /* \"#utility.yul\":4386:4508   */\n    tag_329:\n        /* \"#utility.yul\":4459:4483   */\n      tag_444\n        /* \"#utility.yul\":4477:4482   */\n      dup2\n        /* \"#utility.yul\":4459:4483   */\n      tag_328\n      jump\t// in\n    tag_444:\n        /* \"#utility.yul\":4452:4457   */\n      dup2\n        /* \"#utility.yul\":4449:4484   */\n      eq\n        /* \"#utility.yul\":4439:4502   */\n      tag_445\n      jumpi\n        /* \"#utility.yul\":4498:4499   */\n      0x00\n        /* \"#utility.yul\":4495:4496   */\n      dup1\n        /* \"#utility.yul\":4488:4500   */\n      revert\n        /* \"#utility.yul\":4439:4502   */\n    tag_445:\n        /* \"#utility.yul\":4386:4508   */\n      pop\n      jump\t// out\n        /* \"#utility.yul\":4514:4653   */\n    tag_330:\n        /* \"#utility.yul\":4560:4565   */\n      0x00\n        /* \"#utility.yul\":4598:4604   */\n      dup2\n        /* \"#utility.yul\":4585:4605   */\n      calldataload\n        /* \"#utility.yul\":4576:4605   */\n      swap1\n      pop\n        /* \"#utility.yul\":4614:4647   */\n      tag_447\n        /* \"#utility.yul\":4641:4646   */\n      dup2\n        /* \"#utility.yul\":4614:4647   */\n      tag_329\n      jump\t// in\n    tag_447:\n        /* \"#utility.yul\":4514:4653   */\n      swap3\n      swap2\n      pop\n      pop\n      jump\t// out\n        /* \"#utility.yul\":4659:4988   */\n    tag_25:\n        /* \"#utility.yul\":4718:4724   */\n      0x00\n        /* \"#utility.yul\":4767:4769   */\n      0x20\n        /* \"#utility.yul\":4755:4764   */\n      dup3\n        /* \"#utility.yul\":4746:4753   */\n      dup5\n        /* \"#utility.yul\":4742:4765   */\n      sub\n        /* \"#utility.yul\":4738:4770   */\n      slt\n        /* \"#utility.yul\":4735:4854   */\n      iszero\n      tag_449\n      jumpi\n        /* \"#utility.yul\":4773:4852   */\n      tag_450\n      tag_312\n      jump\t// in\n    tag_450:\n        /* \"#utility.yul\":4735:4854   */\n    tag_449:\n        /* \"#utility.yul\":4893:4894   */\n      0x00\n        /* \"#utility.yul\":4918:4971   */\n      tag_451\n        /* \"#utility.yul\":4963:4970   */\n      dup5\n        /* \"#utility.yul\":4954:4960   */\n      dup3\n        /* \"#utility.yul\":4943:4952   */\n      dup6\n        /* \"#utility.yul\":4939:4961   */\n      add\n        /* \"#utility.yul\":4918:4971   */\n      tag_330\n      jump\t// in\n    tag_451:\n        /* \"#utility.yul\":4908:4971   */\n      swap2\n      pop\n        /* \"#utility.yul\":4864:4981   */\n      pop\n        /* \"#utility.yul\":4659:4988   */\n      swap3\n      swap2\n      pop\n      pop\n      jump\t// out\n        /* \"#utility.yul\":4994:5468   */\n    tag_30:\n        /* \"#utility.yul\":5062:5068   */\n      0x00\n        /* \"#utility.yul\":5070:5076   */\n      dup1\n        /* \"#utility.yul\":5119:5121   */\n      0x40\n        /* \"#utility.yul\":5107:5116   */\n      dup4\n        /* \"#utility.yul\":5098:5105   */\n      dup6\n        /* \"#utility.yul\":5094:5117   */\n      sub\n        /* \"#utility.yul\":5090:5122   */\n      slt\n        /* \"#utility.yul\":5087:5206   */\n      iszero\n      tag_453\n      jumpi\n        /* \"#utility.yul\":5125:5204   */\n      tag_454\n      tag_312\n      jump\t// in\n    tag_454:\n        /* \"#utility.yul\":5087:5206   */\n    tag_453:\n        /* \"#utility.yul\":5245:5246   */\n      0x00\n        /* \"#utility.yul\":5270:5323   */\n      tag_455\n        /* \"#utility.yul\":5315:5322   */\n      dup6\n        /* \"#utility.yul\":5306:5312   */\n      dup3\n        /* \"#utility.yul\":5295:5304   */\n      dup7\n        /* \"#utility.yul\":5291:5313   */\n      add\n        /* \"#utility.yul\":5270:5323   */\n      tag_330\n      jump\t// in\n    tag_455:\n        /* \"#utility.yul\":5260:5323   */\n      swap3\n      pop\n        /* \"#utility.yul\":5216:5333   */\n      pop\n        /* \"#utility.yul\":5372:5374   */\n      0x20\n        /* \"#utility.yul\":5398:5451   */\n      tag_456\n        /* \"#utility.yul\":5443:5450   */\n      dup6\n        /* \"#utility.yul\":5434:5440   */\n      dup3\n        /* \"#utility.yul\":5423:5432   */\n      dup7\n        /* \"#utility.yul\":5419:5441   */\n      add\n        /* \"#utility.yul\":5398:5451   */\n      tag_326\n      jump\t// in\n    tag_456:\n        /* \"#utility.yul\":5388:5451   */\n      swap2\n      pop\n        /* \"#utility.yul\":5343:5461   */\n      pop\n        /* \"#utility.yul\":4994:5468   */\n      swap3\n      pop\n      swap3\n      swap1\n      pop\n      jump\t// out\n        /* \"#utility.yul\":5474:5592   */\n    tag_331:\n        /* \"#utility.yul\":5561:5585   */\n      tag_458\n        /* \"#utility.yul\":5579:5584   */\n      dup2\n        /* \"#utility.yul\":5561:5585   */\n      tag_324\n      jump\t// in\n    tag_458:\n        /* \"#utility.yul\":5556:5559   */\n      dup3\n        /* \"#utility.yul\":5549:5586   */\n      mstore\n        /* \"#utility.yul\":5474:5592   */\n      pop\n      pop\n      jump\t// out\n        /* \"#utility.yul\":5598:5716   */\n    tag_332:\n        /* \"#utility.yul\":5685:5709   */\n      tag_460\n        /* \"#utility.yul\":5703:5708   */\n      dup2\n        /* \"#utility.yul\":5685:5709   */\n      tag_328\n      jump\t// in\n    tag_460:\n        /* \"#utility.yul\":5680:5683   */\n      dup3\n        /* \"#utility.yul\":5673:5710   */\n      mstore\n        /* \"#utility.yul\":5598:5716   */\n      pop\n      pop\n      jump\t// out\n        /* \"#utility.yul\":5722:5821   */\n    tag_333:\n        /* \"#utility.yul\":5774:5780   */\n      0x00\n        /* \"#utility.yul\":5808:5813   */\n      dup2\n        /* \"#utility.yul\":5802:5814   */\n      mload\n        /* \"#utility.yul\":5792:5814   */\n      swap1\n      pop\n        /* \"#utility.yul\":5722:5821   */\n      swap2\n      swap1\n      pop\n      jump\t// out\n        /* \"#utility.yul\":5827:5996   */\n    tag_334:\n        /* \"#utility.yul\":5911:5922   */\n      0x00\n        /* \"#utility.yul\":5945:5951   */\n      dup3\n        /* \"#utility.yul\":5940:5943   */\n      dup3\n        /* \"#utility.yul\":5933:5952   */\n      mstore\n        /* \"#utility.yul\":5985:5989   */\n      0x20\n        /* \"#utility.yul\":5980:5983   */\n      dup3\n        /* \"#utility.yul\":5976:5990   */\n      add\n        /* \"#utility.yul\":5961:5990   */\n      swap1\n      pop\n        /* \"#utility.yul\":5827:5996   */\n      swap3\n      swap2\n      pop\n      pop\n      jump\t// out\n        /* \"#utility.yul\":6002:6248   */\n    tag_335:\n        /* \"#utility.yul\":6083:6084   */\n      0x00\n        /* \"#utility.yul\":6093:6206   */\n    tag_464:\n        /* \"#utility.yul\":6107:6113   */\n      dup4\n        /* \"#utility.yul\":6104:6105   */\n      dup2\n        /* \"#utility.yul\":6101:6114   */\n      lt\n        /* \"#utility.yul\":6093:6206   */\n      iszero\n      tag_466\n      jumpi\n        /* \"#utility.yul\":6192:6193   */\n      dup1\n        /* \"#utility.yul\":6187:6190   */\n      dup3\n        /* \"#utility.yul\":6183:6194   */\n      add\n        /* \"#utility.yul\":6177:6195   */\n      mload\n        /* \"#utility.yul\":6173:6174   */\n      dup2\n        /* \"#utility.yul\":6168:6171   */\n      dup5\n        /* \"#utility.yul\":6164:6175   */\n      add\n        /* \"#utility.yul\":6157:6196   */\n      mstore\n        /* \"#utility.yul\":6129:6131   */\n      0x20\n        /* \"#utility.yul\":6126:6127   */\n      dup2\n        /* \"#utility.yul\":6122:6132   */\n      add\n        /* \"#utility.yul\":6117:6132   */\n      swap1\n      pop\n        /* \"#utility.yul\":6093:6206   */\n      jump(tag_464)\n    tag_466:\n        /* \"#utility.yul\":6240:6241   */\n      0x00\n        /* \"#utility.yul\":6231:6237   */\n      dup5\n        /* \"#utility.yul\":6226:6229   */\n      dup5\n        /* \"#utility.yul\":6222:6238   */\n      add\n        /* \"#utility.yul\":6215:6242   */\n      mstore\n        /* \"#utility.yul\":6064:6248   */\n      pop\n        /* \"#utility.yul\":6002:6248   */\n      pop\n      pop\n      pop\n      jump\t// out\n        /* \"#utility.yul\":6254:6631   */\n    tag_336:\n        /* \"#utility.yul\":6342:6345   */\n      0x00\n        /* \"#utility.yul\":6370:6409   */\n      tag_468\n        /* \"#utility.yul\":6403:6408   */\n      dup3\n        /* \"#utility.yul\":6370:6409   */\n      tag_333\n      jump\t// in\n    tag_468:\n        /* \"#utility.yul\":6425:6496   */\n      tag_469\n        /* \"#utility.yul\":6489:6495   */\n      dup2\n        /* \"#utility.yul\":6484:6487   */\n      dup6\n        /* \"#utility.yul\":6425:6496   */\n      tag_334\n      jump\t// in\n    tag_469:\n        /* \"#utility.yul\":6418:6496   */\n      swap4\n      pop\n        /* \"#utility.yul\":6505:6570   */\n      tag_470\n        /* \"#utility.yul\":6563:6569   */\n      dup2\n        /* \"#utility.yul\":6558:6561   */\n      dup6\n        /* \"#utility.yul\":6551:6555   */\n      0x20\n        /* \"#utility.yul\":6544:6549   */\n      dup7\n        /* \"#utility.yul\":6540:6556   */\n      add\n        /* \"#utility.yul\":6505:6570   */\n      tag_335\n      jump\t// in\n    tag_470:\n        /* \"#utility.yul\":6595:6624   */\n      tag_471\n        /* \"#utility.yul\":6617:6623   */\n      dup2\n        /* \"#utility.yul\":6595:6624   */\n      tag_316\n      jump\t// in\n    tag_471:\n        /* \"#utility.yul\":6590:6593   */\n      dup5\n        /* \"#utility.yul\":6586:6625   */\n      add\n        /* \"#utility.yul\":6579:6625   */\n      swap2\n      pop\n        /* \"#utility.yul\":6346:6631   */\n      pop\n        /* \"#utility.yul\":6254:6631   */\n      swap3\n      swap2\n      pop\n      pop\n      jump\t// out\n        /* \"#utility.yul\":6637:7836   */\n    tag_33:\n        /* \"#utility.yul\":6974:6978   */\n      0x00\n        /* \"#utility.yul\":7012:7015   */\n      0x0120\n        /* \"#utility.yul\":7001:7010   */\n      dup3\n        /* \"#utility.yul\":6997:7016   */\n      add\n        /* \"#utility.yul\":6989:7016   */\n      swap1\n      pop\n        /* \"#utility.yul\":7026:7097   */\n      tag_473\n        /* \"#utility.yul\":7094:7095   */\n      0x00\n        /* \"#utility.yul\":7083:7092   */\n      dup4\n        /* \"#utility.yul\":7079:7096   */\n      add\n        /* \"#utility.yul\":7070:7076   */\n      dup13\n        /* \"#utility.yul\":7026:7097   */\n      tag_331\n      jump\t// in\n    tag_473:\n        /* \"#utility.yul\":7107:7179   */\n      tag_474\n        /* \"#utility.yul\":7175:7177   */\n      0x20\n        /* \"#utility.yul\":7164:7173   */\n      dup4\n        /* \"#utility.yul\":7160:7178   */\n      add\n        /* \"#utility.yul\":7151:7157   */\n      dup12\n        /* \"#utility.yul\":7107:7179   */\n      tag_332\n      jump\t// in\n    tag_474:\n        /* \"#utility.yul\":7226:7235   */\n      dup2\n        /* \"#utility.yul\":7220:7224   */\n      dup2\n        /* \"#utility.yul\":7216:7236   */\n      sub\n        /* \"#utility.yul\":7211:7213   */\n      0x40\n        /* \"#utility.yul\":7200:7209   */\n      dup4\n        /* \"#utility.yul\":7196:7214   */\n      add\n        /* \"#utility.yul\":7189:7237   */\n      mstore\n        /* \"#utility.yul\":7254:7332   */\n      tag_475\n        /* \"#utility.yul\":7327:7331   */\n      dup2\n        /* \"#utility.yul\":7318:7324   */\n      dup11\n        /* \"#utility.yul\":7254:7332   */\n      tag_336\n      jump\t// in\n    tag_475:\n        /* \"#utility.yul\":7246:7332   */\n      swap1\n      pop\n        /* \"#utility.yul\":7342:7414   */\n      tag_476\n        /* \"#utility.yul\":7410:7412   */\n      0x60\n        /* \"#utility.yul\":7399:7408   */\n      dup4\n        /* \"#utility.yul\":7395:7413   */\n      add\n        /* \"#utility.yul\":7386:7392   */\n      dup10\n        /* \"#utility.yul\":7342:7414   */\n      tag_331\n      jump\t// in\n    tag_476:\n        /* \"#utility.yul\":7424:7497   */\n      tag_477\n        /* \"#utility.yul\":7492:7495   */\n      0x80\n        /* \"#utility.yul\":7481:7490   */\n      dup4\n        /* \"#utility.yul\":7477:7496   */\n      add\n        /* \"#utility.yul\":7468:7474   */\n      dup9\n        /* \"#utility.yul\":7424:7497   */\n      tag_331\n      jump\t// in\n    tag_477:\n        /* \"#utility.yul\":7507:7580   */\n      tag_478\n        /* \"#utility.yul\":7575:7578   */\n      0xa0\n        /* \"#utility.yul\":7564:7573   */\n      dup4\n        /* \"#utility.yul\":7560:7579   */\n      add\n        /* \"#utility.yul\":7551:7557   */\n      dup8\n        /* \"#utility.yul\":7507:7580   */\n      tag_331\n      jump\t// in\n    tag_478:\n        /* \"#utility.yul\":7590:7663   */\n      tag_479\n        /* \"#utility.yul\":7658:7661   */\n      0xc0\n        /* \"#utility.yul\":7647:7656   */\n      dup4\n        /* \"#utility.yul\":7643:7662   */\n      add\n        /* \"#utility.yul\":7634:7640   */\n      dup7\n        /* \"#utility.yul\":7590:7663   */\n      tag_331\n      jump\t// in\n    tag_479:\n        /* \"#utility.yul\":7673:7746   */\n      tag_480\n        /* \"#utility.yul\":7741:7744   */\n      0xe0\n        /* \"#utility.yul\":7730:7739   */\n      dup4\n        /* \"#utility.yul\":7726:7745   */\n      add\n        /* \"#utility.yul\":7717:7723   */\n      dup6\n        /* \"#utility.yul\":7673:7746   */\n      tag_331\n      jump\t// in\n    tag_480:\n        /* \"#utility.yul\":7756:7829   */\n      tag_481\n        /* \"#utility.yul\":7824:7827   */\n      0x0100\n        /* \"#utility.yul\":7813:7822   */\n      dup4\n        /* \"#utility.yul\":7809:7828   */\n      add\n        /* \"#utility.yul\":7800:7806   */\n      dup5\n        /* \"#utility.yul\":7756:7829   */\n      tag_331\n      jump\t// in\n    tag_481:\n        /* \"#utility.yul\":6637:7836   */\n      swap11\n      swap10\n      pop\n      pop\n      pop\n      pop\n      pop\n      pop\n      pop\n      pop\n      pop\n      pop\n      jump\t// out\n        /* \"#utility.yul\":7842:8171   */\n    tag_37:\n        /* \"#utility.yul\":7901:7907   */\n      0x00\n        /* \"#utility.yul\":7950:7952   */\n      0x20\n        /* \"#utility.yul\":7938:7947   */\n      dup3\n        /* \"#utility.yul\":7929:7936   */\n      dup5\n        /* \"#utility.yul\":7925:7948   */\n      sub\n        /* \"#utility.yul\":7921:7953   */\n      slt\n        /* \"#utility.yul\":7918:8037   */\n      iszero\n      tag_483\n      jumpi\n        /* \"#utility.yul\":7956:8035   */\n      tag_484\n      tag_312\n      jump\t// in\n    tag_484:\n        /* \"#utility.yul\":7918:8037   */\n    tag_483:\n        /* \"#utility.yul\":8076:8077   */\n      0x00\n        /* \"#utility.yul\":8101:8154   */\n      tag_485\n        /* \"#utility.yul\":8146:8153   */\n      dup5\n        /* \"#utility.yul\":8137:8143   */\n      dup3\n        /* \"#utility.yul\":8126:8135   */\n      dup6\n        /* \"#utility.yul\":8122:8144   */\n      add\n        /* \"#utility.yul\":8101:8154   */\n      tag_326\n      jump\t// in\n    tag_485:\n        /* \"#utility.yul\":8091:8154   */\n      swap2\n      pop\n        /* \"#utility.yul\":8047:8164   */\n      pop\n        /* \"#utility.yul\":7842:8171   */\n      swap3\n      swap2\n      pop\n      pop\n      jump\t// out\n        /* \"#utility.yul\":8177:9285   */\n    tag_44:\n        /* \"#utility.yul\":8494:8498   */\n      0x00\n        /* \"#utility.yul\":8532:8535   */\n      0x0120\n        /* \"#utility.yul\":8521:8530   */\n      dup3\n        /* \"#utility.yul\":8517:8536   */\n      add\n        /* \"#utility.yul\":8509:8536   */\n      swap1\n      pop\n        /* \"#utility.yul\":8546:8617   */\n      tag_487\n        /* \"#utility.yul\":8614:8615   */\n      0x00\n        /* \"#utility.yul\":8603:8612   */\n      dup4\n        /* \"#utility.yul\":8599:8616   */\n      add\n        /* \"#utility.yul\":8590:8596   */\n      dup13\n        /* \"#utility.yul\":8546:8617   */\n      tag_331\n      jump\t// in\n    tag_487:\n        /* \"#utility.yul\":8627:8699   */\n      tag_488\n        /* \"#utility.yul\":8695:8697   */\n      0x20\n        /* \"#utility.yul\":8684:8693   */\n      dup4\n        /* \"#utility.yul\":8680:8698   */\n      add\n        /* \"#utility.yul\":8671:8677   */\n      dup12\n        /* \"#utility.yul\":8627:8699   */\n      tag_332\n      jump\t// in\n    tag_488:\n        /* \"#utility.yul\":8709:8781   */\n      tag_489\n        /* \"#utility.yul\":8777:8779   */\n      0x40\n        /* \"#utility.yul\":8766:8775   */\n      dup4\n        /* \"#utility.yul\":8762:8780   */\n      add\n        /* \"#utility.yul\":8753:8759   */\n      dup11\n        /* \"#utility.yul\":8709:8781   */\n      tag_331\n      jump\t// in\n    tag_489:\n        /* \"#utility.yul\":8791:8863   */\n      tag_490\n        /* \"#utility.yul\":8859:8861   */\n      0x60\n        /* \"#utility.yul\":8848:8857   */\n      dup4\n        /* \"#utility.yul\":8844:8862   */\n      add\n        /* \"#utility.yul\":8835:8841   */\n      dup10\n        /* \"#utility.yul\":8791:8863   */\n      tag_331\n      jump\t// in\n    tag_490:\n        /* \"#utility.yul\":8873:8946   */\n      tag_491\n        /* \"#utility.yul\":8941:8944   */\n      0x80\n        /* \"#utility.yul\":8930:8939   */\n      dup4\n        /* \"#utility.yul\":8926:8945   */\n      add\n        /* \"#utility.yul\":8917:8923   */\n      dup9\n        /* \"#utility.yul\":8873:8946   */\n      tag_331\n      jump\t// in\n    tag_491:\n        /* \"#utility.yul\":8956:9029   */\n      tag_492\n        /* \"#utility.yul\":9024:9027   */\n      0xa0\n        /* \"#utility.yul\":9013:9022   */\n      dup4\n        /* \"#utility.yul\":9009:9028   */\n      add\n        /* \"#utility.yul\":9000:9006   */\n      dup8\n        /* \"#utility.yul\":8956:9029   */\n      tag_331\n      jump\t// in\n    tag_492:\n        /* \"#utility.yul\":9039:9112   */\n      tag_493\n        /* \"#utility.yul\":9107:9110   */\n      0xc0\n        /* \"#utility.yul\":9096:9105   */\n      dup4\n        /* \"#utility.yul\":9092:9111   */\n      add\n        /* \"#utility.yul\":9083:9089   */\n      dup7\n        /* \"#utility.yul\":9039:9112   */\n      tag_331\n      jump\t// in\n    tag_493:\n        /* \"#utility.yul\":9122:9195   */\n      tag_494\n        /* \"#utility.yul\":9190:9193   */\n      0xe0\n        /* \"#utility.yul\":9179:9188   */\n      dup4\n        /* \"#utility.yul\":9175:9194   */\n      add\n        /* \"#utility.yul\":9166:9172   */\n      dup6\n        /* \"#utility.yul\":9122:9195   */\n      tag_331\n      jump\t// in\n    tag_494:\n        /* \"#utility.yul\":9205:9278   */\n      tag_495\n        /* \"#utility.yul\":9273:9276   */\n      0x0100\n        /* \"#utility.yul\":9262:9271   */\n      dup4\n        /* \"#utility.yul\":9258:9277   */\n      add\n        /* \"#utility.yul\":9249:9255   */\n      dup5\n        /* \"#utility.yul\":9205:9278   */\n      tag_331\n      jump\t// in\n    tag_495:\n        /* \"#utility.yul\":8177:9285   */\n      swap11\n      swap10\n      pop\n      pop\n      pop\n      pop\n      pop\n      pop\n      pop\n      pop\n      pop\n      pop\n      jump\t// out\n        /* \"#utility.yul\":9291:9428   */\n    tag_337:\n        /* \"#utility.yul\":9381:9387   */\n      0x00\n        /* \"#utility.yul\":9415:9420   */\n      dup2\n        /* \"#utility.yul\":9409:9421   */\n      mload\n        /* \"#utility.yul\":9399:9421   */\n      swap1\n      pop\n        /* \"#utility.yul\":9291:9428   */\n      swap2\n      swap1\n      pop\n      jump\t// out\n        /* \"#utility.yul\":9434:9641   */\n    tag_338:\n        /* \"#utility.yul\":9556:9567   */\n      0x00\n        /* \"#utility.yul\":9590:9596   */\n      dup3\n        /* \"#utility.yul\":9585:9588   */\n      dup3\n        /* \"#utility.yul\":9578:9597   */\n      mstore\n        /* \"#utility.yul\":9630:9634   */\n      0x20\n        /* \"#utility.yul\":9625:9628   */\n      dup3\n        /* \"#utility.yul\":9621:9635   */\n      add\n        /* \"#utility.yul\":9606:9635   */\n      swap1\n      pop\n        /* \"#utility.yul\":9434:9641   */\n      swap3\n      swap2\n      pop\n      pop\n      jump\t// out\n        /* \"#utility.yul\":9647:9802   */\n    tag_339:\n        /* \"#utility.yul\":9737:9741   */\n      0x00\n        /* \"#utility.yul\":9760:9763   */\n      dup2\n        /* \"#utility.yul\":9752:9763   */\n      swap1\n      pop\n        /* \"#utility.yul\":9790:9794   */\n      0x20\n        /* \"#utility.yul\":9785:9788   */\n      dup3\n        /* \"#utility.yul\":9781:9795   */\n      add\n        /* \"#utility.yul\":9773:9795   */\n      swap1\n      pop\n        /* \"#utility.yul\":9647:9802   */\n      swap2\n      swap1\n      pop\n      jump\t// out\n        /* \"#utility.yul\":9808:9916   */\n    tag_340:\n        /* \"#utility.yul\":9885:9909   */\n      tag_500\n        /* \"#utility.yul\":9903:9908   */\n      dup2\n        /* \"#utility.yul\":9885:9909   */\n      tag_324\n      jump\t// in\n    tag_500:\n        /* \"#utility.yul\":9880:9883   */\n      dup3\n        /* \"#utility.yul\":9873:9910   */\n      mstore\n        /* \"#utility.yul\":9808:9916   */\n      pop\n      pop\n      jump\t// out\n        /* \"#utility.yul\":9922:10030   */\n    tag_341:\n        /* \"#utility.yul\":9999:10023   */\n      tag_502\n        /* \"#utility.yul\":10017:10022   */\n      dup2\n        /* \"#utility.yul\":9999:10023   */\n      tag_328\n      jump\t// in\n    tag_502:\n        /* \"#utility.yul\":9994:9997   */\n      dup3\n        /* \"#utility.yul\":9987:10024   */\n      mstore\n        /* \"#utility.yul\":9922:10030   */\n      pop\n      pop\n      jump\t// out\n        /* \"#utility.yul\":10100:11313   */\n    tag_342:\n        /* \"#utility.yul\":10233:10237   */\n      0xc0\n        /* \"#utility.yul\":10228:10231   */\n      dup3\n        /* \"#utility.yul\":10224:10238   */\n      add\n        /* \"#utility.yul\":10325:10329   */\n      0x00\n        /* \"#utility.yul\":10318:10323   */\n      dup3\n        /* \"#utility.yul\":10314:10330   */\n      add\n        /* \"#utility.yul\":10308:10331   */\n      mload\n        /* \"#utility.yul\":10344:10407   */\n      tag_504\n        /* \"#utility.yul\":10401:10405   */\n      0x00\n        /* \"#utility.yul\":10396:10399   */\n      dup6\n        /* \"#utility.yul\":10392:10406   */\n      add\n        /* \"#utility.yul\":10378:10390   */\n      dup3\n        /* \"#utility.yul\":10344:10407   */\n      tag_340\n      jump\t// in\n    tag_504:\n        /* \"#utility.yul\":10248:10417   */\n      pop\n        /* \"#utility.yul\":10501:10505   */\n      0x20\n        /* \"#utility.yul\":10494:10499   */\n      dup3\n        /* \"#utility.yul\":10490:10506   */\n      add\n        /* \"#utility.yul\":10484:10507   */\n      mload\n        /* \"#utility.yul\":10520:10583   */\n      tag_505\n        /* \"#utility.yul\":10577:10581   */\n      0x20\n        /* \"#utility.yul\":10572:10575   */\n      dup6\n        /* \"#utility.yul\":10568:10582   */\n      add\n        /* \"#utility.yul\":10554:10566   */\n      dup3\n        /* \"#utility.yul\":10520:10583   */\n      tag_341\n      jump\t// in\n    tag_505:\n        /* \"#utility.yul\":10427:10593   */\n      pop\n        /* \"#utility.yul\":10678:10682   */\n      0x40\n        /* \"#utility.yul\":10671:10676   */\n      dup3\n        /* \"#utility.yul\":10667:10683   */\n      add\n        /* \"#utility.yul\":10661:10684   */\n      mload\n        /* \"#utility.yul\":10697:10760   */\n      tag_506\n        /* \"#utility.yul\":10754:10758   */\n      0x40\n        /* \"#utility.yul\":10749:10752   */\n      dup6\n        /* \"#utility.yul\":10745:10759   */\n      add\n        /* \"#utility.yul\":10731:10743   */\n      dup3\n        /* \"#utility.yul\":10697:10760   */\n      tag_340\n      jump\t// in\n    tag_506:\n        /* \"#utility.yul\":10603:10770   */\n      pop\n        /* \"#utility.yul\":10857:10861   */\n      0x60\n        /* \"#utility.yul\":10850:10855   */\n      dup3\n        /* \"#utility.yul\":10846:10862   */\n      add\n        /* \"#utility.yul\":10840:10863   */\n      mload\n        /* \"#utility.yul\":10876:10939   */\n      tag_507\n        /* \"#utility.yul\":10933:10937   */\n      0x60\n        /* \"#utility.yul\":10928:10931   */\n      dup6\n        /* \"#utility.yul\":10924:10938   */\n      add\n        /* \"#utility.yul\":10910:10922   */\n      dup3\n        /* \"#utility.yul\":10876:10939   */\n      tag_340\n      jump\t// in\n    tag_507:\n        /* \"#utility.yul\":10780:10949   */\n      pop\n        /* \"#utility.yul\":11034:11038   */\n      0x80\n        /* \"#utility.yul\":11027:11032   */\n      dup3\n        /* \"#utility.yul\":11023:11039   */\n      add\n        /* \"#utility.yul\":11017:11040   */\n      mload\n        /* \"#utility.yul\":11053:11116   */\n      tag_508\n        /* \"#utility.yul\":11110:11114   */\n      0x80\n        /* \"#utility.yul\":11105:11108   */\n      dup6\n        /* \"#utility.yul\":11101:11115   */\n      add\n        /* \"#utility.yul\":11087:11099   */\n      dup3\n        /* \"#utility.yul\":11053:11116   */\n      tag_340\n      jump\t// in\n    tag_508:\n        /* \"#utility.yul\":10959:11126   */\n      pop\n        /* \"#utility.yul\":11214:11218   */\n      0xa0\n        /* \"#utility.yul\":11207:11212   */\n      dup3\n        /* \"#utility.yul\":11203:11219   */\n      add\n        /* \"#utility.yul\":11197:11220   */\n      mload\n        /* \"#utility.yul\":11233:11296   */\n      tag_509\n        /* \"#utility.yul\":11290:11294   */\n      0xa0\n        /* \"#utility.yul\":11285:11288   */\n      dup6\n        /* \"#utility.yul\":11281:11295   */\n      add\n        /* \"#utility.yul\":11267:11279   */\n      dup3\n        /* \"#utility.yul\":11233:11296   */\n      tag_340\n      jump\t// in\n    tag_509:\n        /* \"#utility.yul\":11136:11306   */\n      pop\n        /* \"#utility.yul\":10202:11313   */\n      pop\n        /* \"#utility.yul\":10100:11313   */\n      pop\n      pop\n      jump\t// out\n        /* \"#utility.yul\":11319:11590   */\n    tag_343:\n        /* \"#utility.yul\":11434:11444   */\n      0x00\n        /* \"#utility.yul\":11455:11547   */\n      tag_511\n        /* \"#utility.yul\":11543:11546   */\n      dup4\n        /* \"#utility.yul\":11535:11541   */\n      dup4\n        /* \"#utility.yul\":11455:11547   */\n      tag_342\n      jump\t// in\n    tag_511:\n        /* \"#utility.yul\":11579:11583   */\n      0xc0\n        /* \"#utility.yul\":11574:11577   */\n      dup4\n        /* \"#utility.yul\":11570:11584   */\n      add\n        /* \"#utility.yul\":11556:11584   */\n      swap1\n      pop\n        /* \"#utility.yul\":11319:11590   */\n      swap3\n      swap2\n      pop\n      pop\n      jump\t// out\n        /* \"#utility.yul\":11596:11732   */\n    tag_344:\n        /* \"#utility.yul\":11689:11693   */\n      0x00\n        /* \"#utility.yul\":11721:11725   */\n      0x20\n        /* \"#utility.yul\":11716:11719   */\n      dup3\n        /* \"#utility.yul\":11712:11726   */\n      add\n        /* \"#utility.yul\":11704:11726   */\n      swap1\n      pop\n        /* \"#utility.yul\":11596:11732   */\n      swap2\n      swap1\n      pop\n      jump\t// out\n        /* \"#utility.yul\":11806:12722   */\n    tag_345:\n        /* \"#utility.yul\":11971:11974   */\n      0x00\n        /* \"#utility.yul\":12000:12077   */\n      tag_514\n        /* \"#utility.yul\":12071:12076   */\n      dup3\n        /* \"#utility.yul\":12000:12077   */\n      tag_337\n      jump\t// in\n    tag_514:\n        /* \"#utility.yul\":12093:12202   */\n      tag_515\n        /* \"#utility.yul\":12195:12201   */\n      dup2\n        /* \"#utility.yul\":12190:12193   */\n      dup6\n        /* \"#utility.yul\":12093:12202   */\n      tag_338\n      jump\t// in\n    tag_515:\n        /* \"#utility.yul\":12086:12202   */\n      swap4\n      pop\n        /* \"#utility.yul\":12226:12305   */\n      tag_516\n        /* \"#utility.yul\":12299:12304   */\n      dup4\n        /* \"#utility.yul\":12226:12305   */\n      tag_339\n      jump\t// in\n    tag_516:\n        /* \"#utility.yul\":12328:12335   */\n      dup1\n        /* \"#utility.yul\":12359:12360   */\n      0x00\n        /* \"#utility.yul\":12344:12697   */\n    tag_517:\n        /* \"#utility.yul\":12369:12375   */\n      dup4\n        /* \"#utility.yul\":12366:12367   */\n      dup2\n        /* \"#utility.yul\":12363:12376   */\n      lt\n        /* \"#utility.yul\":12344:12697   */\n      iszero\n      tag_519\n      jumpi\n        /* \"#utility.yul\":12445:12451   */\n      dup2\n        /* \"#utility.yul\":12439:12452   */\n      mload\n        /* \"#utility.yul\":12472:12581   */\n      tag_520\n        /* \"#utility.yul\":12577:12580   */\n      dup9\n        /* \"#utility.yul\":12562:12575   */\n      dup3\n        /* \"#utility.yul\":12472:12581   */\n      tag_343\n      jump\t// in\n    tag_520:\n        /* \"#utility.yul\":12465:12581   */\n      swap8\n      pop\n        /* \"#utility.yul\":12604:12687   */\n      tag_521\n        /* \"#utility.yul\":12680:12686   */\n      dup4\n        /* \"#utility.yul\":12604:12687   */\n      tag_344\n      jump\t// in\n    tag_521:\n        /* \"#utility.yul\":12594:12687   */\n      swap3\n      pop\n        /* \"#utility.yul\":12404:12697   */\n      pop\n        /* \"#utility.yul\":12391:12392   */\n      0x01\n        /* \"#utility.yul\":12388:12389   */\n      dup2\n        /* \"#utility.yul\":12384:12393   */\n      add\n        /* \"#utility.yul\":12379:12393   */\n      swap1\n      pop\n        /* \"#utility.yul\":12344:12697   */\n      jump(tag_517)\n    tag_519:\n        /* \"#utility.yul\":12348:12362   */\n      pop\n        /* \"#utility.yul\":12713:12716   */\n      dup6\n        /* \"#utility.yul\":12706:12716   */\n      swap4\n      pop\n        /* \"#utility.yul\":11976:12722   */\n      pop\n      pop\n      pop\n        /* \"#utility.yul\":11806:12722   */\n      swap3\n      swap2\n      pop\n      pop\n      jump\t// out\n        /* \"#utility.yul\":12728:13193   */\n    tag_49:\n        /* \"#utility.yul\":12917:12921   */\n      0x00\n        /* \"#utility.yul\":12955:12957   */\n      0x20\n        /* \"#utility.yul\":12944:12953   */\n      dup3\n        /* \"#utility.yul\":12940:12958   */\n      add\n        /* \"#utility.yul\":12932:12958   */\n      swap1\n      pop\n        /* \"#utility.yul\":13004:13013   */\n      dup2\n        /* \"#utility.yul\":12998:13002   */\n      dup2\n        /* \"#utility.yul\":12994:13014   */\n      sub\n        /* \"#utility.yul\":12990:12991   */\n      0x00\n        /* \"#utility.yul\":12979:12988   */\n      dup4\n        /* \"#utility.yul\":12975:12992   */\n      add\n        /* \"#utility.yul\":12968:13015   */\n      mstore\n        /* \"#utility.yul\":13032:13186   */\n      tag_523\n        /* \"#utility.yul\":13181:13185   */\n      dup2\n        /* \"#utility.yul\":13172:13178   */\n      dup5\n        /* \"#utility.yul\":13032:13186   */\n      tag_345\n      jump\t// in\n    tag_523:\n        /* \"#utility.yul\":13024:13186   */\n      swap1\n      pop\n        /* \"#utility.yul\":12728:13193   */\n      swap3\n      swap2\n      pop\n      pop\n      jump\t// out\n        /* \"#utility.yul\":13199:13964   */\n    tag_52:\n        /* \"#utility.yul\":13285:13291   */\n      0x00\n        /* \"#utility.yul\":13293:13299   */\n      dup1\n        /* \"#utility.yul\":13301:13307   */\n      0x00\n        /* \"#utility.yul\":13309:13315   */\n      dup1\n        /* \"#utility.yul\":13358:13361   */\n      0x80\n        /* \"#utility.yul\":13346:13355   */\n      dup6\n        /* \"#utility.yul\":13337:13344   */\n      dup8\n        /* \"#utility.yul\":13333:13356   */\n      sub\n        /* \"#utility.yul\":13329:13362   */\n      slt\n        /* \"#utility.yul\":13326:13446   */\n      iszero\n      tag_525\n      jumpi\n        /* \"#utility.yul\":13365:13444   */\n      tag_526\n      tag_312\n      jump\t// in\n    tag_526:\n        /* \"#utility.yul\":13326:13446   */\n    tag_525:\n        /* \"#utility.yul\":13485:13486   */\n      0x00\n        /* \"#utility.yul\":13510:13563   */\n      tag_527\n        /* \"#utility.yul\":13555:13562   */\n      dup8\n        /* \"#utility.yul\":13546:13552   */\n      dup3\n        /* \"#utility.yul\":13535:13544   */\n      dup9\n        /* \"#utility.yul\":13531:13553   */\n      add\n        /* \"#utility.yul\":13510:13563   */\n      tag_326\n      jump\t// in\n    tag_527:\n        /* \"#utility.yul\":13500:13563   */\n      swap5\n      pop\n        /* \"#utility.yul\":13456:13573   */\n      pop\n        /* \"#utility.yul\":13612:13614   */\n      0x20\n        /* \"#utility.yul\":13638:13691   */\n      tag_528\n        /* \"#utility.yul\":13683:13690   */\n      dup8\n        /* \"#utility.yul\":13674:13680   */\n      dup3\n        /* \"#utility.yul\":13663:13672   */\n      dup9\n        /* \"#utility.yul\":13659:13681   */\n      add\n        /* \"#utility.yul\":13638:13691   */\n      tag_326\n      jump\t// in\n    tag_528:\n        /* \"#utility.yul\":13628:13691   */\n      swap4\n      pop\n        /* \"#utility.yul\":13583:13701   */\n      pop\n        /* \"#utility.yul\":13740:13742   */\n      0x40\n        /* \"#utility.yul\":13766:13819   */\n      tag_529\n        /* \"#utility.yul\":13811:13818   */\n      dup8\n        /* \"#utility.yul\":13802:13808   */\n      dup3\n        /* \"#utility.yul\":13791:13800   */\n      dup9\n        /* \"#utility.yul\":13787:13809   */\n      add\n        /* \"#utility.yul\":13766:13819   */\n      tag_326\n      jump\t// in\n    tag_529:\n        /* \"#utility.yul\":13756:13819   */\n      swap3\n      pop\n        /* \"#utility.yul\":13711:13829   */\n      pop\n        /* \"#utility.yul\":13868:13870   */\n      0x60\n        /* \"#utility.yul\":13894:13947   */\n      tag_530\n        /* \"#utility.yul\":13939:13946   */\n      dup8\n        /* \"#utility.yul\":13930:13936   */\n      dup3\n        /* \"#utility.yul\":13919:13928   */\n      dup9\n        /* \"#utility.yul\":13915:13937   */\n      add\n        /* \"#utility.yul\":13894:13947   */\n      tag_326\n      jump\t// in\n    tag_530:\n        /* \"#utility.yul\":13884:13947   */\n      swap2\n      pop\n        /* \"#utility.yul\":13839:13957   */\n      pop\n        /* \"#utility.yul\":13199:13964   */\n      swap3\n      swap6\n      swap2\n      swap5\n      pop\n      swap3\n      pop\n      jump\t// out\n        /* \"#utility.yul\":13970:14745   */\n    tag_59:\n        /* \"#utility.yul\":14203:14207   */\n      0x00\n        /* \"#utility.yul\":14241:14244   */\n      0xc0\n        /* \"#utility.yul\":14230:14239   */\n      dup3\n        /* \"#utility.yul\":14226:14245   */\n      add\n        /* \"#utility.yul\":14218:14245   */\n      swap1\n      pop\n        /* \"#utility.yul\":14255:14326   */\n      tag_532\n        /* \"#utility.yul\":14323:14324   */\n      0x00\n        /* \"#utility.yul\":14312:14321   */\n      dup4\n        /* \"#utility.yul\":14308:14325   */\n      add\n        /* \"#utility.yul\":14299:14305   */\n      dup10\n        /* \"#utility.yul\":14255:14326   */\n      tag_331\n      jump\t// in\n    tag_532:\n        /* \"#utility.yul\":14336:14408   */\n      tag_533\n        /* \"#utility.yul\":14404:14406   */\n      0x20\n        /* \"#utility.yul\":14393:14402   */\n      dup4\n        /* \"#utility.yul\":14389:14407   */\n      add\n        /* \"#utility.yul\":14380:14386   */\n      dup9\n        /* \"#utility.yul\":14336:14408   */\n      tag_332\n      jump\t// in\n    tag_533:\n        /* \"#utility.yul\":14418:14490   */\n      tag_534\n        /* \"#utility.yul\":14486:14488   */\n      0x40\n        /* \"#utility.yul\":14475:14484   */\n      dup4\n        /* \"#utility.yul\":14471:14489   */\n      add\n        /* \"#utility.yul\":14462:14468   */\n      dup8\n        /* \"#utility.yul\":14418:14490   */\n      tag_331\n      jump\t// in\n    tag_534:\n        /* \"#utility.yul\":14500:14572   */\n      tag_535\n        /* \"#utility.yul\":14568:14570   */\n      0x60\n        /* \"#utility.yul\":14557:14566   */\n      dup4\n        /* \"#utility.yul\":14553:14571   */\n      add\n        /* \"#utility.yul\":14544:14550   */\n      dup7\n        /* \"#utility.yul\":14500:14572   */\n      tag_331\n      jump\t// in\n    tag_535:\n        /* \"#utility.yul\":14582:14655   */\n      tag_536\n        /* \"#utility.yul\":14650:14653   */\n      0x80\n        /* \"#utility.yul\":14639:14648   */\n      dup4\n        /* \"#utility.yul\":14635:14654   */\n      add\n        /* \"#utility.yul\":14626:14632   */\n      dup6\n        /* \"#utility.yul\":14582:14655   */\n      tag_331\n      jump\t// in\n    tag_536:\n        /* \"#utility.yul\":14665:14738   */\n      tag_537\n        /* \"#utility.yul\":14733:14736   */\n      0xa0\n        /* \"#utility.yul\":14722:14731   */\n      dup4\n        /* \"#utility.yul\":14718:14737   */\n      add\n        /* \"#utility.yul\":14709:14715   */\n      dup5\n        /* \"#utility.yul\":14665:14738   */\n      tag_331\n      jump\t// in\n    tag_537:\n        /* \"#utility.yul\":13970:14745   */\n      swap8\n      swap7\n      pop\n      pop\n      pop\n      pop\n      pop\n      pop\n      pop\n      jump\t// out\n        /* \"#utility.yul\":14751:15370   */\n    tag_68:\n        /* \"#utility.yul\":14828:14834   */\n      0x00\n        /* \"#utility.yul\":14836:14842   */\n      dup1\n        /* \"#utility.yul\":14844:14850   */\n      0x00\n        /* \"#utility.yul\":14893:14895   */\n      0x60\n        /* \"#utility.yul\":14881:14890   */\n      dup5\n        /* \"#utility.yul\":14872:14879   */\n      dup7\n        /* \"#utility.yul\":14868:14891   */\n      sub\n        /* \"#utility.yul\":14864:14896   */\n      slt\n        /* \"#utility.yul\":14861:14980   */\n      iszero\n      tag_539\n      jumpi\n        /* \"#utility.yul\":14899:14978   */\n      tag_540\n      tag_312\n      jump\t// in\n    tag_540:\n        /* \"#utility.yul\":14861:14980   */\n    tag_539:\n        /* \"#utility.yul\":15019:15020   */\n      0x00\n        /* \"#utility.yul\":15044:15097   */\n      tag_541\n        /* \"#utility.yul\":15089:15096   */\n      dup7\n        /* \"#utility.yul\":15080:15086   */\n      dup3\n        /* \"#utility.yul\":15069:15078   */\n      dup8\n        /* \"#utility.yul\":15065:15087   */\n      add\n        /* \"#utility.yul\":15044:15097   */\n      tag_326\n      jump\t// in\n    tag_541:\n        /* \"#utility.yul\":15034:15097   */\n      swap4\n      pop\n        /* \"#utility.yul\":14990:15107   */\n      pop\n        /* \"#utility.yul\":15146:15148   */\n      0x20\n        /* \"#utility.yul\":15172:15225   */\n      tag_542\n        /* \"#utility.yul\":15217:15224   */\n      dup7\n        /* \"#utility.yul\":15208:15214   */\n      dup3\n        /* \"#utility.yul\":15197:15206   */\n      dup8\n        /* \"#utility.yul\":15193:15215   */\n      add\n        /* \"#utility.yul\":15172:15225   */\n      tag_326\n      jump\t// in\n    tag_542:\n        /* \"#utility.yul\":15162:15225   */\n      swap3\n      pop\n        /* \"#utility.yul\":15117:15235   */\n      pop\n        /* \"#utility.yul\":15274:15276   */\n      0x40\n        /* \"#utility.yul\":15300:15353   */\n      tag_543\n        /* \"#utility.yul\":15345:15352   */\n      dup7\n        /* \"#utility.yul\":15336:15342   */\n      dup3\n        /* \"#utility.yul\":15325:15334   */\n      dup8\n        /* \"#utility.yul\":15321:15343   */\n      add\n        /* \"#utility.yul\":15300:15353   */\n      tag_326\n      jump\t// in\n    tag_543:\n        /* \"#utility.yul\":15290:15353   */\n      swap2\n      pop\n        /* \"#utility.yul\":15245:15363   */\n      pop\n        /* \"#utility.yul\":14751:15370   */\n      swap3\n      pop\n      swap3\n      pop\n      swap3\n      jump\t// out\n        /* \"#utility.yul\":15376:15511   */\n    tag_346:\n        /* \"#utility.yul\":15464:15470   */\n      0x00\n        /* \"#utility.yul\":15498:15503   */\n      dup2\n        /* \"#utility.yul\":15492:15504   */\n      mload\n        /* \"#utility.yul\":15482:15504   */\n      swap1\n      pop\n        /* \"#utility.yul\":15376:15511   */\n      swap2\n      swap1\n      pop\n      jump\t// out\n        /* \"#utility.yul\":15517:15722   */\n    tag_347:\n        /* \"#utility.yul\":15637:15648   */\n      0x00\n        /* \"#utility.yul\":15671:15677   */\n      dup3\n        /* \"#utility.yul\":15666:15669   */\n      dup3\n        /* \"#utility.yul\":15659:15678   */\n      mstore\n        /* \"#utility.yul\":15711:15715   */\n      0x20\n        /* \"#utility.yul\":15706:15709   */\n      dup3\n        /* \"#utility.yul\":15702:15716   */\n      add\n        /* \"#utility.yul\":15687:15716   */\n      swap1\n      pop\n        /* \"#utility.yul\":15517:15722   */\n      swap3\n      swap2\n      pop\n      pop\n      jump\t// out\n        /* \"#utility.yul\":15728:15881   */\n    tag_348:\n        /* \"#utility.yul\":15816:15820   */\n      0x00\n        /* \"#utility.yul\":15839:15842   */\n      dup2\n        /* \"#utility.yul\":15831:15842   */\n      swap1\n      pop\n        /* \"#utility.yul\":15869:15873   */\n      0x20\n        /* \"#utility.yul\":15864:15867   */\n      dup3\n        /* \"#utility.yul\":15860:15874   */\n      add\n        /* \"#utility.yul\":15852:15874   */\n      swap1\n      pop\n        /* \"#utility.yul\":15728:15881   */\n      swap2\n      swap1\n      pop\n      jump\t// out\n        /* \"#utility.yul\":15887:16046   */\n    tag_349:\n        /* \"#utility.yul\":15961:15972   */\n      0x00\n        /* \"#utility.yul\":15995:16001   */\n      dup3\n        /* \"#utility.yul\":15990:15993   */\n      dup3\n        /* \"#utility.yul\":15983:16002   */\n      mstore\n        /* \"#utility.yul\":16035:16039   */\n      0x20\n        /* \"#utility.yul\":16030:16033   */\n      dup3\n        /* \"#utility.yul\":16026:16040   */\n      add\n        /* \"#utility.yul\":16011:16040   */\n      swap1\n      pop\n        /* \"#utility.yul\":15887:16046   */\n      swap3\n      swap2\n      pop\n      pop\n      jump\t// out\n        /* \"#utility.yul\":16052:16409   */\n    tag_350:\n        /* \"#utility.yul\":16130:16133   */\n      0x00\n        /* \"#utility.yul\":16158:16197   */\n      tag_549\n        /* \"#utility.yul\":16191:16196   */\n      dup3\n        /* \"#utility.yul\":16158:16197   */\n      tag_333\n      jump\t// in\n    tag_549:\n        /* \"#utility.yul\":16213:16274   */\n      tag_550\n        /* \"#utility.yul\":16267:16273   */\n      dup2\n        /* \"#utility.yul\":16262:16265   */\n      dup6\n        /* \"#utility.yul\":16213:16274   */\n      tag_349\n      jump\t// in\n    tag_550:\n        /* \"#utility.yul\":16206:16274   */\n      swap4\n      pop\n        /* \"#utility.yul\":16283:16348   */\n      tag_551\n        /* \"#utility.yul\":16341:16347   */\n      dup2\n        /* \"#utility.yul\":16336:16339   */\n      dup6\n        /* \"#utility.yul\":16329:16333   */\n      0x20\n        /* \"#utility.yul\":16322:16327   */\n      dup7\n        /* \"#utility.yul\":16318:16334   */\n      add\n        /* \"#utility.yul\":16283:16348   */\n      tag_335\n      jump\t// in\n    tag_551:\n        /* \"#utility.yul\":16373:16402   */\n      tag_552\n        /* \"#utility.yul\":16395:16401   */\n      dup2\n        /* \"#utility.yul\":16373:16402   */\n      tag_316\n      jump\t// in\n    tag_552:\n        /* \"#utility.yul\":16368:16371   */\n      dup5\n        /* \"#utility.yul\":16364:16403   */\n      add\n        /* \"#utility.yul\":16357:16403   */\n      swap2\n      pop\n        /* \"#utility.yul\":16134:16409   */\n      pop\n        /* \"#utility.yul\":16052:16409   */\n      swap3\n      swap2\n      pop\n      pop\n      jump\t// out\n        /* \"#utility.yul\":16475:18348   */\n    tag_351:\n        /* \"#utility.yul\":16576:16579   */\n      0x00\n        /* \"#utility.yul\":16612:16618   */\n      0x0120\n        /* \"#utility.yul\":16607:16610   */\n      dup4\n        /* \"#utility.yul\":16603:16619   */\n      add\n        /* \"#utility.yul\":16704:16708   */\n      0x00\n        /* \"#utility.yul\":16697:16702   */\n      dup4\n        /* \"#utility.yul\":16693:16709   */\n      add\n        /* \"#utility.yul\":16687:16710   */\n      mload\n        /* \"#utility.yul\":16723:16786   */\n      tag_554\n        /* \"#utility.yul\":16780:16784   */\n      0x00\n        /* \"#utility.yul\":16775:16778   */\n      dup7\n        /* \"#utility.yul\":16771:16785   */\n      add\n        /* \"#utility.yul\":16757:16769   */\n      dup3\n        /* \"#utility.yul\":16723:16786   */\n      tag_340\n      jump\t// in\n    tag_554:\n        /* \"#utility.yul\":16629:16796   */\n      pop\n        /* \"#utility.yul\":16882:16886   */\n      0x20\n        /* \"#utility.yul\":16875:16880   */\n      dup4\n        /* \"#utility.yul\":16871:16887   */\n      add\n        /* \"#utility.yul\":16865:16888   */\n      mload\n        /* \"#utility.yul\":16901:16964   */\n      tag_555\n        /* \"#utility.yul\":16958:16962   */\n      0x20\n        /* \"#utility.yul\":16953:16956   */\n      dup7\n        /* \"#utility.yul\":16949:16963   */\n      add\n        /* \"#utility.yul\":16935:16947   */\n      dup3\n        /* \"#utility.yul\":16901:16964   */\n      tag_341\n      jump\t// in\n    tag_555:\n        /* \"#utility.yul\":16806:16974   */\n      pop\n        /* \"#utility.yul\":17063:17067   */\n      0x40\n        /* \"#utility.yul\":17056:17061   */\n      dup4\n        /* \"#utility.yul\":17052:17068   */\n      add\n        /* \"#utility.yul\":17046:17069   */\n      mload\n        /* \"#utility.yul\":17116:17119   */\n      dup5\n        /* \"#utility.yul\":17110:17114   */\n      dup3\n        /* \"#utility.yul\":17106:17120   */\n      sub\n        /* \"#utility.yul\":17099:17103   */\n      0x40\n        /* \"#utility.yul\":17094:17097   */\n      dup7\n        /* \"#utility.yul\":17090:17104   */\n      add\n        /* \"#utility.yul\":17083:17121   */\n      mstore\n        /* \"#utility.yul\":17142:17215   */\n      tag_556\n        /* \"#utility.yul\":17210:17214   */\n      dup3\n        /* \"#utility.yul\":17196:17208   */\n      dup3\n        /* \"#utility.yul\":17142:17215   */\n      tag_350\n      jump\t// in\n    tag_556:\n        /* \"#utility.yul\":17134:17215   */\n      swap2\n      pop\n        /* \"#utility.yul\":16984:17226   */\n      pop\n        /* \"#utility.yul\":17314:17318   */\n      0x60\n        /* \"#utility.yul\":17307:17312   */\n      dup4\n        /* \"#utility.yul\":17303:17319   */\n      add\n        /* \"#utility.yul\":17297:17320   */\n      mload\n        /* \"#utility.yul\":17333:17396   */\n      tag_557\n        /* \"#utility.yul\":17390:17394   */\n      0x60\n        /* \"#utility.yul\":17385:17388   */\n      dup7\n        /* \"#utility.yul\":17381:17395   */\n      add\n        /* \"#utility.yul\":17367:17379   */\n      dup3\n        /* \"#utility.yul\":17333:17396   */\n      tag_340\n      jump\t// in\n    tag_557:\n        /* \"#utility.yul\":17236:17406   */\n      pop\n        /* \"#utility.yul\":17491:17495   */\n      0x80\n        /* \"#utility.yul\":17484:17489   */\n      dup4\n        /* \"#utility.yul\":17480:17496   */\n      add\n        /* \"#utility.yul\":17474:17497   */\n      mload\n        /* \"#utility.yul\":17510:17573   */\n      tag_558\n        /* \"#utility.yul\":17567:17571   */\n      0x80\n        /* \"#utility.yul\":17562:17565   */\n      dup7\n        /* \"#utility.yul\":17558:17572   */\n      add\n        /* \"#utility.yul\":17544:17556   */\n      dup3\n        /* \"#utility.yul\":17510:17573   */\n      tag_340\n      jump\t// in\n    tag_558:\n        /* \"#utility.yul\":17416:17583   */\n      pop\n        /* \"#utility.yul\":17674:17678   */\n      0xa0\n        /* \"#utility.yul\":17667:17672   */\n      dup4\n        /* \"#utility.yul\":17663:17679   */\n      add\n        /* \"#utility.yul\":17657:17680   */\n      mload\n        /* \"#utility.yul\":17693:17756   */\n      tag_559\n        /* \"#utility.yul\":17750:17754   */\n      0xa0\n        /* \"#utility.yul\":17745:17748   */\n      dup7\n        /* \"#utility.yul\":17741:17755   */\n      add\n        /* \"#utility.yul\":17727:17739   */\n      dup3\n        /* \"#utility.yul\":17693:17756   */\n      tag_340\n      jump\t// in\n    tag_559:\n        /* \"#utility.yul\":17593:17766   */\n      pop\n        /* \"#utility.yul\":17859:17863   */\n      0xc0\n        /* \"#utility.yul\":17852:17857   */\n      dup4\n        /* \"#utility.yul\":17848:17864   */\n      add\n        /* \"#utility.yul\":17842:17865   */\n      mload\n        /* \"#utility.yul\":17878:17941   */\n      tag_560\n        /* \"#utility.yul\":17935:17939   */\n      0xc0\n        /* \"#utility.yul\":17930:17933   */\n      dup7\n        /* \"#utility.yul\":17926:17940   */\n      add\n        /* \"#utility.yul\":17912:17924   */\n      dup3\n        /* \"#utility.yul\":17878:17941   */\n      tag_340\n      jump\t// in\n    tag_560:\n        /* \"#utility.yul\":17776:17951   */\n      pop\n        /* \"#utility.yul\":18044:18048   */\n      0xe0\n        /* \"#utility.yul\":18037:18042   */\n      dup4\n        /* \"#utility.yul\":18033:18049   */\n      add\n        /* \"#utility.yul\":18027:18050   */\n      mload\n        /* \"#utility.yul\":18063:18126   */\n      tag_561\n        /* \"#utility.yul\":18120:18124   */\n      0xe0\n        /* \"#utility.yul\":18115:18118   */\n      dup7\n        /* \"#utility.yul\":18111:18125   */\n      add\n        /* \"#utility.yul\":18097:18109   */\n      dup3\n        /* \"#utility.yul\":18063:18126   */\n      tag_340\n      jump\t// in\n    tag_561:\n        /* \"#utility.yul\":17961:18136   */\n      pop\n        /* \"#utility.yul\":18225:18231   */\n      0x0100\n        /* \"#utility.yul\":18218:18223   */\n      dup4\n        /* \"#utility.yul\":18214:18232   */\n      add\n        /* \"#utility.yul\":18208:18233   */\n      mload\n        /* \"#utility.yul\":18246:18311   */\n      tag_562\n        /* \"#utility.yul\":18303:18309   */\n      0x0100\n        /* \"#utility.yul\":18298:18301   */\n      dup7\n        /* \"#utility.yul\":18294:18310   */\n      add\n        /* \"#utility.yul\":18280:18292   */\n      dup3\n        /* \"#utility.yul\":18246:18311   */\n      tag_340\n      jump\t// in\n    tag_562:\n        /* \"#utility.yul\":18146:18321   */\n      pop\n        /* \"#utility.yul\":18338:18342   */\n      dup1\n        /* \"#utility.yul\":18331:18342   */\n      swap2\n      pop\n        /* \"#utility.yul\":16581:18348   */\n      pop\n        /* \"#utility.yul\":16475:18348   */\n      swap3\n      swap2\n      pop\n      pop\n      jump\t// out\n        /* \"#utility.yul\":18354:18594   */\n    tag_352:\n        /* \"#utility.yul\":18465:18475   */\n      0x00\n        /* \"#utility.yul\":18500:18588   */\n      tag_564\n        /* \"#utility.yul\":18584:18587   */\n      dup4\n        /* \"#utility.yul\":18576:18582   */\n      dup4\n        /* \"#utility.yul\":18500:18588   */\n      tag_351\n      jump\t// in\n    tag_564:\n        /* \"#utility.yul\":18486:18588   */\n      swap1\n      pop\n        /* \"#utility.yul\":18354:18594   */\n      swap3\n      swap2\n      pop\n      pop\n      jump\t// out\n        /* \"#utility.yul\":18600:18734   */\n    tag_353:\n        /* \"#utility.yul\":18691:18695   */\n      0x00\n        /* \"#utility.yul\":18723:18727   */\n      0x20\n        /* \"#utility.yul\":18718:18721   */\n      dup3\n        /* \"#utility.yul\":18714:18728   */\n      add\n        /* \"#utility.yul\":18706:18728   */\n      swap1\n      pop\n        /* \"#utility.yul\":18600:18734   */\n      swap2\n      swap1\n      pop\n      jump\t// out\n        /* \"#utility.yul\":18804:19883   */\n    tag_354:\n        /* \"#utility.yul\":18965:18968   */\n      0x00\n        /* \"#utility.yul\":18994:19069   */\n      tag_567\n        /* \"#utility.yul\":19063:19068   */\n      dup3\n        /* \"#utility.yul\":18994:19069   */\n      tag_346\n      jump\t// in\n    tag_567:\n        /* \"#utility.yul\":19085:19192   */\n      tag_568\n        /* \"#utility.yul\":19185:19191   */\n      dup2\n        /* \"#utility.yul\":19180:19183   */\n      dup6\n        /* \"#utility.yul\":19085:19192   */\n      tag_347\n      jump\t// in\n    tag_568:\n        /* \"#utility.yul\":19078:19192   */\n      swap4\n      pop\n        /* \"#utility.yul\":19218:19221   */\n      dup4\n        /* \"#utility.yul\":19263:19267   */\n      0x20\n        /* \"#utility.yul\":19255:19261   */\n      dup3\n        /* \"#utility.yul\":19251:19268   */\n      mul\n        /* \"#utility.yul\":19246:19249   */\n      dup6\n        /* \"#utility.yul\":19242:19269   */\n      add\n        /* \"#utility.yul\":19293:19370   */\n      tag_569\n        /* \"#utility.yul\":19364:19369   */\n      dup6\n        /* \"#utility.yul\":19293:19370   */\n      tag_348\n      jump\t// in\n    tag_569:\n        /* \"#utility.yul\":19393:19400   */\n      dup1\n        /* \"#utility.yul\":19424:19425   */\n      0x00\n        /* \"#utility.yul\":19409:19838   */\n    tag_570:\n        /* \"#utility.yul\":19434:19440   */\n      dup6\n        /* \"#utility.yul\":19431:19432   */\n      dup2\n        /* \"#utility.yul\":19428:19441   */\n      lt\n        /* \"#utility.yul\":19409:19838   */\n      iszero\n      tag_572\n      jumpi\n        /* \"#utility.yul\":19505:19514   */\n      dup5\n        /* \"#utility.yul\":19499:19503   */\n      dup5\n        /* \"#utility.yul\":19495:19515   */\n      sub\n        /* \"#utility.yul\":19490:19493   */\n      dup10\n        /* \"#utility.yul\":19483:19516   */\n      mstore\n        /* \"#utility.yul\":19556:19562   */\n      dup2\n        /* \"#utility.yul\":19550:19563   */\n      mload\n        /* \"#utility.yul\":19584:19690   */\n      tag_573\n        /* \"#utility.yul\":19685:19689   */\n      dup6\n        /* \"#utility.yul\":19670:19683   */\n      dup3\n        /* \"#utility.yul\":19584:19690   */\n      tag_352\n      jump\t// in\n    tag_573:\n        /* \"#utility.yul\":19576:19690   */\n      swap5\n      pop\n        /* \"#utility.yul\":19713:19794   */\n      tag_574\n        /* \"#utility.yul\":19787:19793   */\n      dup4\n        /* \"#utility.yul\":19713:19794   */\n      tag_353\n      jump\t// in\n    tag_574:\n        /* \"#utility.yul\":19703:19794   */\n      swap3\n      pop\n        /* \"#utility.yul\":19823:19827   */\n      0x20\n        /* \"#utility.yul\":19818:19821   */\n      dup11\n        /* \"#utility.yul\":19814:19828   */\n      add\n        /* \"#utility.yul\":19807:19828   */\n      swap10\n      pop\n        /* \"#utility.yul\":19469:19838   */\n      pop\n        /* \"#utility.yul\":19456:19457   */\n      0x01\n        /* \"#utility.yul\":19453:19454   */\n      dup2\n        /* \"#utility.yul\":19449:19458   */\n      add\n        /* \"#utility.yul\":19444:19458   */\n      swap1\n      pop\n        /* \"#utility.yul\":19409:19838   */\n      jump(tag_570)\n    tag_572:\n        /* \"#utility.yul\":19413:19427   */\n      pop\n        /* \"#utility.yul\":19854:19858   */\n      dup3\n        /* \"#utility.yul\":19847:19858   */\n      swap8\n      pop\n        /* \"#utility.yul\":19874:19877   */\n      dup8\n        /* \"#utility.yul\":19867:19877   */\n      swap6\n      pop\n        /* \"#utility.yul\":18970:19883   */\n      pop\n      pop\n      pop\n      pop\n      pop\n        /* \"#utility.yul\":18804:19883   */\n      swap3\n      swap2\n      pop\n      pop\n      jump\t// out\n        /* \"#utility.yul\":19889:20346   */\n    tag_74:\n        /* \"#utility.yul\":20074:20078   */\n      0x00\n        /* \"#utility.yul\":20112:20114   */\n      0x20\n        /* \"#utility.yul\":20101:20110   */\n      dup3\n        /* \"#utility.yul\":20097:20115   */\n      add\n        /* \"#utility.yul\":20089:20115   */\n      swap1\n      pop\n        /* \"#utility.yul\":20161:20170   */\n      dup2\n        /* \"#utility.yul\":20155:20159   */\n      dup2\n        /* \"#utility.yul\":20151:20171   */\n      sub\n        /* \"#utility.yul\":20147:20148   */\n      0x00\n        /* \"#utility.yul\":20136:20145   */\n      dup4\n        /* \"#utility.yul\":20132:20149   */\n      add\n        /* \"#utility.yul\":20125:20172   */\n      mstore\n        /* \"#utility.yul\":20189:20339   */\n      tag_576\n        /* \"#utility.yul\":20334:20338   */\n      dup2\n        /* \"#utility.yul\":20325:20331   */\n      dup5\n        /* \"#utility.yul\":20189:20339   */\n      tag_354\n      jump\t// in\n    tag_576:\n        /* \"#utility.yul\":20181:20339   */\n      swap1\n      pop\n        /* \"#utility.yul\":19889:20346   */\n      swap3\n      swap2\n      pop\n      pop\n      jump\t// out\n        /* \"#utility.yul\":20352:20488   */\n    tag_355:\n        /* \"#utility.yul\":20441:20447   */\n      0x00\n        /* \"#utility.yul\":20475:20480   */\n      dup2\n        /* \"#utility.yul\":20469:20481   */\n      mload\n        /* \"#utility.yul\":20459:20481   */\n      swap1\n      pop\n        /* \"#utility.yul\":20352:20488   */\n      swap2\n      swap1\n      pop\n      jump\t// out\n        /* \"#utility.yul\":20494:20700   */\n    tag_356:\n        /* \"#utility.yul\":20615:20626   */\n      0x00\n        /* \"#utility.yul\":20649:20655   */\n      dup3\n        /* \"#utility.yul\":20644:20647   */\n      dup3\n        /* \"#utility.yul\":20637:20656   */\n      mstore\n        /* \"#utility.yul\":20689:20693   */\n      0x20\n        /* \"#utility.yul\":20684:20687   */\n      dup3\n        /* \"#utility.yul\":20680:20694   */\n      add\n        /* \"#utility.yul\":20665:20694   */\n      swap1\n      pop\n        /* \"#utility.yul\":20494:20700   */\n      swap3\n      swap2\n      pop\n      pop\n      jump\t// out\n        /* \"#utility.yul\":20706:20860   */\n    tag_357:\n        /* \"#utility.yul\":20795:20799   */\n      0x00\n        /* \"#utility.yul\":20818:20821   */\n      dup2\n        /* \"#utility.yul\":20810:20821   */\n      swap1\n      pop\n        /* \"#utility.yul\":20848:20852   */\n      0x20\n        /* \"#utility.yul\":20843:20846   */\n      dup3\n        /* \"#utility.yul\":20839:20853   */\n      add\n        /* \"#utility.yul\":20831:20853   */\n      swap1\n      pop\n        /* \"#utility.yul\":20706:20860   */\n      swap2\n      swap1\n      pop\n      jump\t// out\n        /* \"#utility.yul\":20928:22682   */\n    tag_358:\n        /* \"#utility.yul\":21059:21065   */\n      0x0120\n        /* \"#utility.yul\":21054:21057   */\n      dup3\n        /* \"#utility.yul\":21050:21066   */\n      add\n        /* \"#utility.yul\":21152:21156   */\n      0x00\n        /* \"#utility.yul\":21145:21150   */\n      dup3\n        /* \"#utility.yul\":21141:21157   */\n      add\n        /* \"#utility.yul\":21135:21158   */\n      mload\n        /* \"#utility.yul\":21171:21234   */\n      tag_581\n        /* \"#utility.yul\":21228:21232   */\n      0x00\n        /* \"#utility.yul\":21223:21226   */\n      dup6\n        /* \"#utility.yul\":21219:21233   */\n      add\n        /* \"#utility.yul\":21205:21217   */\n      dup3\n        /* \"#utility.yul\":21171:21234   */\n      tag_340\n      jump\t// in\n    tag_581:\n        /* \"#utility.yul\":21076:21244   */\n      pop\n        /* \"#utility.yul\":21328:21332   */\n      0x20\n        /* \"#utility.yul\":21321:21326   */\n      dup3\n        /* \"#utility.yul\":21317:21333   */\n      add\n        /* \"#utility.yul\":21311:21334   */\n      mload\n        /* \"#utility.yul\":21347:21410   */\n      tag_582\n        /* \"#utility.yul\":21404:21408   */\n      0x20\n        /* \"#utility.yul\":21399:21402   */\n      dup6\n        /* \"#utility.yul\":21395:21409   */\n      add\n        /* \"#utility.yul\":21381:21393   */\n      dup3\n        /* \"#utility.yul\":21347:21410   */\n      tag_341\n      jump\t// in\n    tag_582:\n        /* \"#utility.yul\":21254:21420   */\n      pop\n        /* \"#utility.yul\":21505:21509   */\n      0x40\n        /* \"#utility.yul\":21498:21503   */\n      dup3\n        /* \"#utility.yul\":21494:21510   */\n      add\n        /* \"#utility.yul\":21488:21511   */\n      mload\n        /* \"#utility.yul\":21524:21587   */\n      tag_583\n        /* \"#utility.yul\":21581:21585   */\n      0x40\n        /* \"#utility.yul\":21576:21579   */\n      dup6\n        /* \"#utility.yul\":21572:21586   */\n      add\n        /* \"#utility.yul\":21558:21570   */\n      dup3\n        /* \"#utility.yul\":21524:21587   */\n      tag_340\n      jump\t// in\n    tag_583:\n        /* \"#utility.yul\":21430:21597   */\n      pop\n        /* \"#utility.yul\":21684:21688   */\n      0x60\n        /* \"#utility.yul\":21677:21682   */\n      dup3\n        /* \"#utility.yul\":21673:21689   */\n      add\n        /* \"#utility.yul\":21667:21690   */\n      mload\n        /* \"#utility.yul\":21703:21766   */\n      tag_584\n        /* \"#utility.yul\":21760:21764   */\n      0x60\n        /* \"#utility.yul\":21755:21758   */\n      dup6\n        /* \"#utility.yul\":21751:21765   */\n      add\n        /* \"#utility.yul\":21737:21749   */\n      dup3\n        /* \"#utility.yul\":21703:21766   */\n      tag_340\n      jump\t// in\n    tag_584:\n        /* \"#utility.yul\":21607:21776   */\n      pop\n        /* \"#utility.yul\":21861:21865   */\n      0x80\n        /* \"#utility.yul\":21854:21859   */\n      dup3\n        /* \"#utility.yul\":21850:21866   */\n      add\n        /* \"#utility.yul\":21844:21867   */\n      mload\n        /* \"#utility.yul\":21880:21943   */\n      tag_585\n        /* \"#utility.yul\":21937:21941   */\n      0x80\n        /* \"#utility.yul\":21932:21935   */\n      dup6\n        /* \"#utility.yul\":21928:21942   */\n      add\n        /* \"#utility.yul\":21914:21926   */\n      dup3\n        /* \"#utility.yul\":21880:21943   */\n      tag_340\n      jump\t// in\n    tag_585:\n        /* \"#utility.yul\":21786:21953   */\n      pop\n        /* \"#utility.yul\":22038:22042   */\n      0xa0\n        /* \"#utility.yul\":22031:22036   */\n      dup3\n        /* \"#utility.yul\":22027:22043   */\n      add\n        /* \"#utility.yul\":22021:22044   */\n      mload\n        /* \"#utility.yul\":22057:22120   */\n      tag_586\n        /* \"#utility.yul\":22114:22118   */\n      0xa0\n        /* \"#utility.yul\":22109:22112   */\n      dup6\n        /* \"#utility.yul\":22105:22119   */\n      add\n        /* \"#utility.yul\":22091:22103   */\n      dup3\n        /* \"#utility.yul\":22057:22120   */\n      tag_340\n      jump\t// in\n    tag_586:\n        /* \"#utility.yul\":21963:22130   */\n      pop\n        /* \"#utility.yul\":22217:22221   */\n      0xc0\n        /* \"#utility.yul\":22210:22215   */\n      dup3\n        /* \"#utility.yul\":22206:22222   */\n      add\n        /* \"#utility.yul\":22200:22223   */\n      mload\n        /* \"#utility.yul\":22236:22299   */\n      tag_587\n        /* \"#utility.yul\":22293:22297   */\n      0xc0\n        /* \"#utility.yul\":22288:22291   */\n      dup6\n        /* \"#utility.yul\":22284:22298   */\n      add\n        /* \"#utility.yul\":22270:22282   */\n      dup3\n        /* \"#utility.yul\":22236:22299   */\n      tag_340\n      jump\t// in\n    tag_587:\n        /* \"#utility.yul\":22140:22309   */\n      pop\n        /* \"#utility.yul\":22401:22405   */\n      0xe0\n        /* \"#utility.yul\":22394:22399   */\n      dup3\n        /* \"#utility.yul\":22390:22406   */\n      add\n        /* \"#utility.yul\":22384:22407   */\n      mload\n        /* \"#utility.yul\":22420:22483   */\n      tag_588\n        /* \"#utility.yul\":22477:22481   */\n      0xe0\n        /* \"#utility.yul\":22472:22475   */\n      dup6\n        /* \"#utility.yul\":22468:22482   */\n      add\n        /* \"#utility.yul\":22454:22466   */\n      dup3\n        /* \"#utility.yul\":22420:22483   */\n      tag_340\n      jump\t// in\n    tag_588:\n        /* \"#utility.yul\":22319:22493   */\n      pop\n        /* \"#utility.yul\":22579:22585   */\n      0x0100\n        /* \"#utility.yul\":22572:22577   */\n      dup3\n        /* \"#utility.yul\":22568:22586   */\n      add\n        /* \"#utility.yul\":22562:22587   */\n      mload\n        /* \"#utility.yul\":22600:22665   */\n      tag_589\n        /* \"#utility.yul\":22657:22663   */\n      0x0100\n        /* \"#utility.yul\":22652:22655   */\n      dup6\n        /* \"#utility.yul\":22648:22664   */\n      add\n        /* \"#utility.yul\":22634:22646   */\n      dup3\n        /* \"#utility.yul\":22600:22665   */\n      tag_340\n      jump\t// in\n    tag_589:\n        /* \"#utility.yul\":22503:22675   */\n      pop\n        /* \"#utility.yul\":21028:22682   */\n      pop\n        /* \"#utility.yul\":20928:22682   */\n      pop\n      pop\n      jump\t// out\n        /* \"#utility.yul\":22688:22957   */\n    tag_359:\n        /* \"#utility.yul\":22801:22811   */\n      0x00\n        /* \"#utility.yul\":22822:22912   */\n      tag_591\n        /* \"#utility.yul\":22908:22911   */\n      dup4\n        /* \"#utility.yul\":22900:22906   */\n      dup4\n        /* \"#utility.yul\":22822:22912   */\n      tag_358\n      jump\t// in\n    tag_591:\n        /* \"#utility.yul\":22944:22950   */\n      0x0120\n        /* \"#utility.yul\":22939:22942   */\n      dup4\n        /* \"#utility.yul\":22935:22951   */\n      add\n        /* \"#utility.yul\":22921:22951   */\n      swap1\n      pop\n        /* \"#utility.yul\":22688:22957   */\n      swap3\n      swap2\n      pop\n      pop\n      jump\t// out\n        /* \"#utility.yul\":22963:23098   */\n    tag_360:\n        /* \"#utility.yul\":23055:23059   */\n      0x00\n        /* \"#utility.yul\":23087:23091   */\n      0x20\n        /* \"#utility.yul\":23082:23085   */\n      dup3\n        /* \"#utility.yul\":23078:23092   */\n      add\n        /* \"#utility.yul\":23070:23092   */\n      swap1\n      pop\n        /* \"#utility.yul\":22963:23098   */\n      swap2\n      swap1\n      pop\n      jump\t// out\n        /* \"#utility.yul\":23170:24078   */\n    tag_361:\n        /* \"#utility.yul\":23333:23336   */\n      0x00\n        /* \"#utility.yul\":23362:23438   */\n      tag_594\n        /* \"#utility.yul\":23432:23437   */\n      dup3\n        /* \"#utility.yul\":23362:23438   */\n      tag_355\n      jump\t// in\n    tag_594:\n        /* \"#utility.yul\":23454:23562   */\n      tag_595\n        /* \"#utility.yul\":23555:23561   */\n      dup2\n        /* \"#utility.yul\":23550:23553   */\n      dup6\n        /* \"#utility.yul\":23454:23562   */\n      tag_356\n      jump\t// in\n    tag_595:\n        /* \"#utility.yul\":23447:23562   */\n      swap4\n      pop\n        /* \"#utility.yul\":23586:23664   */\n      tag_596\n        /* \"#utility.yul\":23658:23663   */\n      dup4\n        /* \"#utility.yul\":23586:23664   */\n      tag_357\n      jump\t// in\n    tag_596:\n        /* \"#utility.yul\":23687:23694   */\n      dup1\n        /* \"#utility.yul\":23718:23719   */\n      0x00\n        /* \"#utility.yul\":23703:24053   */\n    tag_597:\n        /* \"#utility.yul\":23728:23734   */\n      dup4\n        /* \"#utility.yul\":23725:23726   */\n      dup2\n        /* \"#utility.yul\":23722:23735   */\n      lt\n        /* \"#utility.yul\":23703:24053   */\n      iszero\n      tag_599\n      jumpi\n        /* \"#utility.yul\":23804:23810   */\n      dup2\n        /* \"#utility.yul\":23798:23811   */\n      mload\n        /* \"#utility.yul\":23831:23938   */\n      tag_600\n        /* \"#utility.yul\":23934:23937   */\n      dup9\n        /* \"#utility.yul\":23919:23932   */\n      dup3\n        /* \"#utility.yul\":23831:23938   */\n      tag_359\n      jump\t// in\n    tag_600:\n        /* \"#utility.yul\":23824:23938   */\n      swap8\n      pop\n        /* \"#utility.yul\":23961:24043   */\n      tag_601\n        /* \"#utility.yul\":24036:24042   */\n      dup4\n        /* \"#utility.yul\":23961:24043   */\n      tag_360\n      jump\t// in\n    tag_601:\n        /* \"#utility.yul\":23951:24043   */\n      swap3\n      pop\n        /* \"#utility.yul\":23763:24053   */\n      pop\n        /* \"#utility.yul\":23750:23751   */\n      0x01\n        /* \"#utility.yul\":23747:23748   */\n      dup2\n        /* \"#utility.yul\":23743:23752   */\n      add\n        /* \"#utility.yul\":23738:23752   */\n      swap1\n      pop\n        /* \"#utility.yul\":23703:24053   */\n      jump(tag_597)\n    tag_599:\n        /* \"#utility.yul\":23707:23721   */\n      pop\n        /* \"#utility.yul\":24069:24072   */\n      dup6\n        /* \"#utility.yul\":24062:24072   */\n      swap4\n      pop\n        /* \"#utility.yul\":23338:24078   */\n      pop\n      pop\n      pop\n        /* \"#utility.yul\":23170:24078   */\n      swap3\n      swap2\n      pop\n      pop\n      jump\t// out\n        /* \"#utility.yul\":24084:24545   */\n    tag_82:\n        /* \"#utility.yul\":24271:24275   */\n      0x00\n        /* \"#utility.yul\":24309:24311   */\n      0x20\n        /* \"#utility.yul\":24298:24307   */\n      dup3\n        /* \"#utility.yul\":24294:24312   */\n      add\n        /* \"#utility.yul\":24286:24312   */\n      swap1\n      pop\n        /* \"#utility.yul\":24358:24367   */\n      dup2\n        /* \"#utility.yul\":24352:24356   */\n      dup2\n        /* \"#utility.yul\":24348:24368   */\n      sub\n        /* \"#utility.yul\":24344:24345   */\n      0x00\n        /* \"#utility.yul\":24333:24342   */\n      dup4\n        /* \"#utility.yul\":24329:24346   */\n      add\n        /* \"#utility.yul\":24322:24369   */\n      mstore\n        /* \"#utility.yul\":24386:24538   */\n      tag_603\n        /* \"#utility.yul\":24533:24537   */\n      dup2\n        /* \"#utility.yul\":24524:24530   */\n      dup5\n        /* \"#utility.yul\":24386:24538   */\n      tag_361\n      jump\t// in\n    tag_603:\n        /* \"#utility.yul\":24378:24538   */\n      swap1\n      pop\n        /* \"#utility.yul\":24084:24545   */\n      swap3\n      swap2\n      pop\n      pop\n      jump\t// out\n        /* \"#utility.yul\":24551:24731   */\n    tag_362:\n        /* \"#utility.yul\":24599:24676   */\n      0x4e487b7100000000000000000000000000000000000000000000000000000000\n        /* \"#utility.yul\":24596:24597   */\n      0x00\n        /* \"#utility.yul\":24589:24677   */\n      mstore\n        /* \"#utility.yul\":24696:24700   */\n      0x22\n        /* \"#utility.yul\":24693:24694   */\n      0x04\n        /* \"#utility.yul\":24686:24701   */\n      mstore\n        /* \"#utility.yul\":24720:24724   */\n      0x24\n        /* \"#utility.yul\":24717:24718   */\n      0x00\n        /* \"#utility.yul\":24710:24725   */\n      revert\n        /* \"#utility.yul\":24737:25057   */\n    tag_146:\n        /* \"#utility.yul\":24781:24787   */\n      0x00\n        /* \"#utility.yul\":24818:24819   */\n      0x02\n        /* \"#utility.yul\":24812:24816   */\n      dup3\n        /* \"#utility.yul\":24808:24820   */\n      div\n        /* \"#utility.yul\":24798:24820   */\n      swap1\n      pop\n        /* \"#utility.yul\":24865:24866   */\n      0x01\n        /* \"#utility.yul\":24859:24863   */\n      dup3\n        /* \"#utility.yul\":24855:24867   */\n      and\n        /* \"#utility.yul\":24886:24904   */\n      dup1\n        /* \"#utility.yul\":24876:24957   */\n      tag_606\n      jumpi\n        /* \"#utility.yul\":24942:24946   */\n      0x7f\n        /* \"#utility.yul\":24934:24940   */\n      dup3\n        /* \"#utility.yul\":24930:24947   */\n      and\n        /* \"#utility.yul\":24920:24947   */\n      swap2\n      pop\n        /* \"#utility.yul\":24876:24957   */\n    tag_606:\n        /* \"#utility.yul\":25004:25006   */\n      0x20\n        /* \"#utility.yul\":24996:25002   */\n      dup3\n        /* \"#utility.yul\":24993:25007   */\n      lt\n        /* \"#utility.yul\":24973:24991   */\n      dup2\n        /* \"#utility.yul\":24970:25008   */\n      sub\n        /* \"#utility.yul\":24967:25051   */\n      tag_607\n      jumpi\n        /* \"#utility.yul\":25023:25041   */\n      tag_608\n      tag_362\n      jump\t// in\n    tag_608:\n        /* \"#utility.yul\":24967:25051   */\n    tag_607:\n        /* \"#utility.yul\":24788:25057   */\n      pop\n        /* \"#utility.yul\":24737:25057   */\n      swap2\n      swap1\n      pop\n      jump\t// out\n        /* \"#utility.yul\":25063:25204   */\n    tag_363:\n        /* \"#utility.yul\":25112:25116   */\n      0x00\n        /* \"#utility.yul\":25135:25138   */\n      dup2\n        /* \"#utility.yul\":25127:25138   */\n      swap1\n      pop\n        /* \"#utility.yul\":25158:25161   */\n      dup2\n        /* \"#utility.yul\":25155:25156   */\n      0x00\n        /* \"#utility.yul\":25148:25162   */\n      mstore\n        /* \"#utility.yul\":25192:25196   */\n      0x20\n        /* \"#utility.yul\":25189:25190   */\n      0x00\n        /* \"#utility.yul\":25179:25197   */\n      keccak256\n        /* \"#utility.yul\":25171:25197   */\n      swap1\n      pop\n        /* \"#utility.yul\":25063:25204   */\n      swap2\n      swap1\n      pop\n      jump\t// out\n        /* \"#utility.yul\":25210:25303   */\n    tag_364:\n        /* \"#utility.yul\":25247:25253   */\n      0x00\n        /* \"#utility.yul\":25294:25296   */\n      0x20\n        /* \"#utility.yul\":25289:25291   */\n      0x1f\n        /* \"#utility.yul\":25282:25287   */\n      dup4\n        /* \"#utility.yul\":25278:25292   */\n      add\n        /* \"#utility.yul\":25274:25297   */\n      div\n        /* \"#utility.yul\":25264:25297   */\n      swap1\n      pop\n        /* \"#utility.yul\":25210:25303   */\n      swap2\n      swap1\n      pop\n      jump\t// out\n        /* \"#utility.yul\":25309:25416   */\n    tag_365:\n        /* \"#utility.yul\":25353:25361   */\n      0x00\n        /* \"#utility.yul\":25403:25408   */\n      dup3\n        /* \"#utility.yul\":25397:25401   */\n      dup3\n        /* \"#utility.yul\":25393:25409   */\n      shl\n        /* \"#utility.yul\":25372:25409   */\n      swap1\n      pop\n        /* \"#utility.yul\":25309:25416   */\n      swap3\n      swap2\n      pop\n      pop\n      jump\t// out\n        /* \"#utility.yul\":25422:25815   */\n    tag_366:\n        /* \"#utility.yul\":25491:25497   */\n      0x00\n        /* \"#utility.yul\":25541:25542   */\n      0x08\n        /* \"#utility.yul\":25529:25539   */\n      dup4\n        /* \"#utility.yul\":25525:25543   */\n      mul\n        /* \"#utility.yul\":25564:25661   */\n      tag_613\n        /* \"#utility.yul\":25594:25660   */\n      0xffffffffffffffffffffffffffffffffffffffffffffffffffffffffffffffff\n        /* \"#utility.yul\":25583:25592   */\n      dup3\n        /* \"#utility.yul\":25564:25661   */\n      tag_365\n      jump\t// in\n    tag_613:\n        /* \"#utility.yul\":25682:25721   */\n      tag_614\n        /* \"#utility.yul\":25712:25720   */\n      dup7\n        /* \"#utility.yul\":25701:25710   */\n      dup4\n        /* \"#utility.yul\":25682:25721   */\n      tag_365\n      jump\t// in\n    tag_614:\n        /* \"#utility.yul\":25670:25721   */\n      swap6\n      pop\n        /* \"#utility.yul\":25754:25758   */\n      dup1\n        /* \"#utility.yul\":25750:25759   */\n      not\n        /* \"#utility.yul\":25743:25748   */\n      dup5\n        /* \"#utility.yul\":25739:25760   */\n      and\n        /* \"#utility.yul\":25730:25760   */\n      swap4\n      pop\n        /* \"#utility.yul\":25803:25807   */\n      dup1\n        /* \"#utility.yul\":25793:25801   */\n      dup7\n        /* \"#utility.yul\":25789:25808   */\n      and\n        /* \"#utility.yul\":25782:25787   */\n      dup5\n        /* \"#utility.yul\":25779:25809   */\n      or\n        /* \"#utility.yul\":25769:25809   */\n      swap3\n      pop\n        /* \"#utility.yul\":25498:25815   */\n      pop\n      pop\n        /* \"#utility.yul\":25422:25815   */\n      swap4\n      swap3\n      pop\n      pop\n      pop\n      jump\t// out\n        /* \"#utility.yul\":25821:25881   */\n    tag_367:\n        /* \"#utility.yul\":25849:25852   */\n      0x00\n        /* \"#utility.yul\":25870:25875   */\n      dup2\n        /* \"#utility.yul\":25863:25875   */\n      swap1\n      pop\n        /* \"#utility.yul\":25821:25881   */\n      swap2\n      swap1\n      pop\n      jump\t// out\n        /* \"#utility.yul\":25887:26029   */\n    tag_368:\n        /* \"#utility.yul\":25937:25946   */\n      0x00\n        /* \"#utility.yul\":25970:26023   */\n      tag_617\n        /* \"#utility.yul\":25988:26022   */\n      tag_618\n        /* \"#utility.yul\":25997:26021   */\n      tag_619\n        /* \"#utility.yul\":26015:26020   */\n      dup5\n        /* \"#utility.yul\":25997:26021   */\n      tag_324\n      jump\t// in\n    tag_619:\n        /* \"#utility.yul\":25988:26022   */\n      tag_367\n      jump\t// in\n    tag_618:\n        /* \"#utility.yul\":25970:26023   */\n      tag_324\n      jump\t// in\n    tag_617:\n        /* \"#utility.yul\":25957:26023   */\n      swap1\n      pop\n        /* \"#utility.yul\":25887:26029   */\n      swap2\n      swap1\n      pop\n      jump\t// out\n        /* \"#utility.yul\":26035:26110   */\n    tag_369:\n        /* \"#utility.yul\":26078:26081   */\n      0x00\n        /* \"#utility.yul\":26099:26104   */\n      dup2\n        /* \"#utility.yul\":26092:26104   */\n      swap1\n      pop\n        /* \"#utility.yul\":26035:26110   */\n      swap2\n      swap1\n      pop\n      jump\t// out\n        /* \"#utility.yul\":26116:26385   */\n    tag_370:\n        /* \"#utility.yul\":26226:26265   */\n      tag_622\n        /* \"#utility.yul\":26257:26264   */\n      dup4\n        /* \"#utility.yul\":26226:26265   */\n      tag_368\n      jump\t// in\n    tag_622:\n        /* \"#utility.yul\":26287:26378   */\n      tag_623\n        /* \"#utility.yul\":26336:26377   */\n      tag_624\n        /* \"#utility.yul\":26360:26376   */\n      dup3\n        /* \"#utility.yul\":26336:26377   */\n      tag_369\n      jump\t// in\n    tag_624:\n        /* \"#utility.yul\":26328:26334   */\n      dup5\n        /* \"#utility.yul\":26321:26325   */\n      dup5\n        /* \"#utility.yul\":26315:26326   */\n      sload\n        /* \"#utility.yul\":26287:26378   */\n      tag_366\n      jump\t// in\n    tag_623:\n        /* \"#utility.yul\":26281:26285   */\n      dup3\n        /* \"#utility.yul\":26274:26379   */\n      sstore\n        /* \"#utility.yul\":26192:26385   */\n      pop\n        /* \"#utility.yul\":26116:26385   */\n      pop\n      pop\n      pop\n      jump\t// out\n        /* \"#utility.yul\":26391:26464   */\n    tag_371:\n        /* \"#utility.yul\":26436:26439   */\n      0x00\n        /* \"#utility.yul\":26391:26464   */\n      swap1\n      jump\t// out\n        /* \"#utility.yul\":26470:26659   */\n    tag_372:\n        /* \"#utility.yul\":26547:26579   */\n      tag_627\n      tag_371\n      jump\t// in\n    tag_627:\n        /* \"#utility.yul\":26588:26653   */\n      tag_628\n        /* \"#utility.yul\":26646:26652   */\n      dup2\n        /* \"#utility.yul\":26638:26644   */\n      dup5\n        /* \"#utility.yul\":26632:26636   */\n      dup5\n        /* \"#utility.yul\":26588:26653   */\n      tag_370\n      jump\t// in\n    tag_628:\n        /* \"#utility.yul\":26523:26659   */\n      pop\n        /* \"#utility.yul\":26470:26659   */\n      pop\n      pop\n      jump\t// out\n        /* \"#utility.yul\":26665:26851   */\n    tag_373:\n        /* \"#utility.yul\":26725:26845   */\n    tag_630:\n        /* \"#utility.yul\":26742:26745   */\n      dup2\n        /* \"#utility.yul\":26735:26740   */\n      dup2\n        /* \"#utility.yul\":26732:26746   */\n      lt\n        /* \"#utility.yul\":26725:26845   */\n      iszero\n      tag_632\n      jumpi\n        /* \"#utility.yul\":26796:26835   */\n      tag_633\n        /* \"#utility.yul\":26833:26834   */\n      0x00\n        /* \"#utility.yul\":26826:26831   */\n      dup3\n        /* \"#utility.yul\":26796:26835   */\n      tag_372\n      jump\t// in\n    tag_633:\n        /* \"#utility.yul\":26769:26770   */\n      0x01\n        /* \"#utility.yul\":26762:26767   */\n      dup2\n        /* \"#utility.yul\":26758:26771   */\n      add\n        /* \"#utility.yul\":26749:26771   */\n      swap1\n      pop\n        /* \"#utility.yul\":26725:26845   */\n      jump(tag_630)\n    tag_632:\n        /* \"#utility.yul\":26665:26851   */\n      pop\n      pop\n      jump\t// out\n        /* \"#utility.yul\":26857:27400   */\n    tag_374:\n        /* \"#utility.yul\":26958:26960   */\n      0x1f\n        /* \"#utility.yul\":26953:26956   */\n      dup3\n        /* \"#utility.yul\":26950:26961   */\n      gt\n        /* \"#utility.yul\":26947:27393   */\n      iszero\n      tag_635\n      jumpi\n        /* \"#utility.yul\":26992:27030   */\n      tag_636\n        /* \"#utility.yul\":27024:27029   */\n      dup2\n        /* \"#utility.yul\":26992:27030   */\n      tag_363\n      jump\t// in\n    tag_636:\n        /* \"#utility.yul\":27076:27105   */\n      tag_637\n        /* \"#utility.yul\":27094:27104   */\n      dup5\n        /* \"#utility.yul\":27076:27105   */\n      tag_364\n      jump\t// in\n    tag_637:\n        /* \"#utility.yul\":27066:27074   */\n      dup2\n        /* \"#utility.yul\":27062:27106   */\n      add\n        /* \"#utility.yul\":27259:27261   */\n      0x20\n        /* \"#utility.yul\":27247:27257   */\n      dup6\n        /* \"#utility.yul\":27244:27262   */\n      lt\n        /* \"#utility.yul\":27241:27290   */\n      iszero\n      tag_638\n      jumpi\n        /* \"#utility.yul\":27280:27288   */\n      dup2\n        /* \"#utility.yul\":27265:27288   */\n      swap1\n      pop\n        /* \"#utility.yul\":27241:27290   */\n    tag_638:\n        /* \"#utility.yul\":27303:27383   */\n      tag_639\n        /* \"#utility.yul\":27359:27381   */\n      tag_640\n        /* \"#utility.yul\":27377:27380   */\n      dup6\n        /* \"#utility.yul\":27359:27381   */\n      tag_364\n      jump\t// in\n    tag_640:\n        /* \"#utility.yul\":27349:27357   */\n      dup4\n        /* \"#utility.yul\":27345:27382   */\n      add\n        /* \"#utility.yul\":27332:27343   */\n      dup3\n        /* \"#utility.yul\":27303:27383   */\n      tag_373\n      jump\t// in\n    tag_639:\n        /* \"#utility.yul\":26962:27393   */\n      pop\n      pop\n        /* \"#utility.yul\":26947:27393   */\n    tag_635:\n        /* \"#utility.yul\":26857:27400   */\n      pop\n      pop\n      pop\n      jump\t// out\n        /* \"#utility.yul\":27406:27523   */\n    tag_375:\n        /* \"#utility.yul\":27460:27468   */\n      0x00\n        /* \"#utility.yul\":27510:27515   */\n      dup3\n        /* \"#utility.yul\":27504:27508   */\n      dup3\n        /* \"#utility.yul\":27500:27516   */\n      shr\n        /* \"#utility.yul\":27479:27516   */\n      swap1\n      pop\n        /* \"#utility.yul\":27406:27523   */\n      swap3\n      swap2\n      pop\n      pop\n      jump\t// out\n        /* \"#utility.yul\":27529:27698   */\n    tag_376:\n        /* \"#utility.yul\":27573:27579   */\n      0x00\n        /* \"#utility.yul\":27606:27657   */\n      tag_643\n        /* \"#utility.yul\":27654:27655   */\n      0x00\n        /* \"#utility.yul\":27650:27656   */\n      not\n        /* \"#utility.yul\":27642:27647   */\n      dup5\n        /* \"#utility.yul\":27639:27640   */\n      0x08\n        /* \"#utility.yul\":27635:27648   */\n      mul\n        /* \"#utility.yul\":27606:27657   */\n      tag_375\n      jump\t// in\n    tag_643:\n        /* \"#utility.yul\":27602:27658   */\n      not\n        /* \"#utility.yul\":27687:27691   */\n      dup1\n        /* \"#utility.yul\":27681:27685   */\n      dup4\n        /* \"#utility.yul\":27677:27692   */\n      and\n        /* \"#utility.yul\":27667:27692   */\n      swap2\n      pop\n        /* \"#utility.yul\":27580:27698   */\n      pop\n        /* \"#utility.yul\":27529:27698   */\n      swap3\n      swap2\n      pop\n      pop\n      jump\t// out\n        /* \"#utility.yul\":27703:27998   */\n    tag_377:\n        /* \"#utility.yul\":27779:27783   */\n      0x00\n        /* \"#utility.yul\":27925:27954   */\n      tag_645\n        /* \"#utility.yul\":27950:27953   */\n      dup4\n        /* \"#utility.yul\":27944:27948   */\n      dup4\n        /* \"#utility.yul\":27925:27954   */\n      tag_376\n      jump\t// in\n    tag_645:\n        /* \"#utility.yul\":27917:27954   */\n      swap2\n      pop\n        /* \"#utility.yul\":27987:27990   */\n      dup3\n        /* \"#utility.yul\":27984:27985   */\n      0x02\n        /* \"#utility.yul\":27980:27991   */\n      mul\n        /* \"#utility.yul\":27974:27978   */\n      dup3\n        /* \"#utility.yul\":27971:27992   */\n      or\n        /* \"#utility.yul\":27963:27992   */\n      swap1\n      pop\n        /* \"#utility.yul\":27703:27998   */\n      swap3\n      swap2\n      pop\n      pop\n      jump\t// out\n        /* \"#utility.yul\":28003:29398   */\n    tag_86:\n        /* \"#utility.yul\":28120:28157   */\n      tag_647\n        /* \"#utility.yul\":28153:28156   */\n      dup3\n        /* \"#utility.yul\":28120:28157   */\n      tag_333\n      jump\t// in\n    tag_647:\n        /* \"#utility.yul\":28222:28240   */\n      0xffffffffffffffff\n        /* \"#utility.yul\":28214:28220   */\n      dup2\n        /* \"#utility.yul\":28211:28241   */\n      gt\n        /* \"#utility.yul\":28208:28264   */\n      iszero\n      tag_648\n      jumpi\n        /* \"#utility.yul\":28244:28262   */\n      tag_649\n      tag_317\n      jump\t// in\n    tag_649:\n        /* \"#utility.yul\":28208:28264   */\n    tag_648:\n        /* \"#utility.yul\":28288:28326   */\n      tag_650\n        /* \"#utility.yul\":28320:28324   */\n      dup3\n        /* \"#utility.yul\":28314:28325   */\n      sload\n        /* \"#utility.yul\":28288:28326   */\n      tag_146\n      jump\t// in\n    tag_650:\n        /* \"#utility.yul\":28373:28440   */\n      tag_651\n        /* \"#utility.yul\":28433:28439   */\n      dup3\n        /* \"#utility.yul\":28425:28431   */\n      dup3\n        /* \"#utility.yul\":28419:28423   */\n      dup6\n        /* \"#utility.yul\":28373:28440   */\n      tag_374\n      jump\t// in\n    tag_651:\n        /* \"#utility.yul\":28467:28468   */\n      0x00\n        /* \"#utility.yul\":28491:28495   */\n      0x20\n        /* \"#utility.yul\":28478:28495   */\n      swap1\n      pop\n        /* \"#utility.yul\":28523:28525   */\n      0x1f\n        /* \"#utility.yul\":28515:28521   */\n      dup4\n        /* \"#utility.yul\":28512:28526   */\n      gt\n        /* \"#utility.yul\":28540:28541   */\n      0x01\n        /* \"#utility.yul\":28535:29153   */\n      dup2\n      eq\n      tag_653\n      jumpi\n        /* \"#utility.yul\":29197:29198   */\n      0x00\n        /* \"#utility.yul\":29214:29220   */\n      dup5\n        /* \"#utility.yul\":29211:29288   */\n      iszero\n      tag_654\n      jumpi\n        /* \"#utility.yul\":29263:29272   */\n      dup3\n        /* \"#utility.yul\":29258:29261   */\n      dup8\n        /* \"#utility.yul\":29254:29273   */\n      add\n        /* \"#utility.yul\":29248:29274   */\n      mload\n        /* \"#utility.yul\":29239:29274   */\n      swap1\n      pop\n        /* \"#utility.yul\":29211:29288   */\n    tag_654:\n        /* \"#utility.yul\":29314:29381   */\n      tag_655\n        /* \"#utility.yul\":29374:29380   */\n      dup6\n        /* \"#utility.yul\":29367:29372   */\n      dup3\n        /* \"#utility.yul\":29314:29381   */\n      tag_377\n      jump\t// in\n    tag_655:\n        /* \"#utility.yul\":29308:29312   */\n      dup7\n        /* \"#utility.yul\":29301:29382   */\n      sstore\n        /* \"#utility.yul\":29170:29392   */\n      pop\n        /* \"#utility.yul\":28505:29392   */\n      jump(tag_652)\n        /* \"#utility.yul\":28535:29153   */\n    tag_653:\n        /* \"#utility.yul\":28587:28591   */\n      0x1f\n        /* \"#utility.yul\":28583:28592   */\n      not\n        /* \"#utility.yul\":28575:28581   */\n      dup5\n        /* \"#utility.yul\":28571:28593   */\n      and\n        /* \"#utility.yul\":28621:28658   */\n      tag_656\n        /* \"#utility.yul\":28653:28657   */\n      dup7\n        /* \"#utility.yul\":28621:28658   */\n      tag_363\n      jump\t// in\n    tag_656:\n        /* \"#utility.yul\":28680:28681   */\n      0x00\n        /* \"#utility.yul\":28694:28902   */\n    tag_657:\n        /* \"#utility.yul\":28708:28715   */\n      dup3\n        /* \"#utility.yul\":28705:28706   */\n      dup2\n        /* \"#utility.yul\":28702:28716   */\n      lt\n        /* \"#utility.yul\":28694:28902   */\n      iszero\n      tag_659\n      jumpi\n        /* \"#utility.yul\":28787:28796   */\n      dup5\n        /* \"#utility.yul\":28782:28785   */\n      dup10\n        /* \"#utility.yul\":28778:28797   */\n      add\n        /* \"#utility.yul\":28772:28798   */\n      mload\n        /* \"#utility.yul\":28764:28770   */\n      dup3\n        /* \"#utility.yul\":28757:28799   */\n      sstore\n        /* \"#utility.yul\":28838:28839   */\n      0x01\n        /* \"#utility.yul\":28830:28836   */\n      dup3\n        /* \"#utility.yul\":28826:28840   */\n      add\n        /* \"#utility.yul\":28816:28840   */\n      swap2\n      pop\n        /* \"#utility.yul\":28885:28887   */\n      0x20\n        /* \"#utility.yul\":28874:28883   */\n      dup6\n        /* \"#utility.yul\":28870:28888   */\n      add\n        /* \"#utility.yul\":28857:28888   */\n      swap5\n      pop\n        /* \"#utility.yul\":28731:28735   */\n      0x20\n        /* \"#utility.yul\":28728:28729   */\n      dup2\n        /* \"#utility.yul\":28724:28736   */\n      add\n        /* \"#utility.yul\":28719:28736   */\n      swap1\n      pop\n        /* \"#utility.yul\":28694:28902   */\n      jump(tag_657)\n    tag_659:\n        /* \"#utility.yul\":28930:28936   */\n      dup7\n        /* \"#utility.yul\":28921:28928   */\n      dup4\n        /* \"#utility.yul\":28918:28937   */\n      lt\n        /* \"#utility.yul\":28915:29094   */\n      iszero\n      tag_660\n      jumpi\n        /* \"#utility.yul\":28988:28997   */\n      dup5\n        /* \"#utility.yul\":28983:28986   */\n      dup10\n        /* \"#utility.yul\":28979:28998   */\n      add\n        /* \"#utility.yul\":28973:28999   */\n      mload\n        /* \"#utility.yul\":29031:29079   */\n      tag_661\n        /* \"#utility.yul\":29073:29077   */\n      0x1f\n        /* \"#utility.yul\":29065:29071   */\n      dup10\n        /* \"#utility.yul\":29061:29078   */\n      and\n        /* \"#utility.yul\":29050:29059   */\n      dup3\n        /* \"#utility.yul\":29031:29079   */\n      tag_376\n      jump\t// in\n    tag_661:\n        /* \"#utility.yul\":29023:29029   */\n      dup4\n        /* \"#utility.yul\":29016:29080   */\n      sstore\n        /* \"#utility.yul\":28938:29094   */\n      pop\n        /* \"#utility.yul\":28915:29094   */\n    tag_660:\n        /* \"#utility.yul\":29140:29141   */\n      0x01\n        /* \"#utility.yul\":29136:29137   */\n      0x02\n        /* \"#utility.yul\":29128:29134   */\n      dup9\n        /* \"#utility.yul\":29124:29138   */\n      mul\n        /* \"#utility.yul\":29120:29142   */\n      add\n        /* \"#utility.yul\":29114:29118   */\n      dup9\n        /* \"#utility.yul\":29107:29143   */\n      sstore\n        /* \"#utility.yul\":28542:29153   */\n      pop\n      pop\n      pop\n        /* \"#utility.yul\":28505:29392   */\n    tag_652:\n      pop\n        /* \"#utility.yul\":28095:29398   */\n      pop\n      pop\n      pop\n        /* \"#utility.yul\":28003:29398   */\n      pop\n      pop\n      jump\t// out\n        /* \"#utility.yul\":29404:29584   */\n    tag_89:\n        /* \"#utility.yul\":29452:29529   */\n      0x4e487b7100000000000000000000000000000000000000000000000000000000\n        /* \"#utility.yul\":29449:29450   */\n      0x00\n        /* \"#utility.yul\":29442:29530   */\n      mstore\n        /* \"#utility.yul\":29549:29553   */\n      0x32\n        /* \"#utility.yul\":29546:29547   */\n      0x04\n        /* \"#utility.yul\":29539:29554   */\n      mstore\n        /* \"#utility.yul\":29573:29577   */\n      0x24\n        /* \"#utility.yul\":29570:29571   */\n      0x00\n        /* \"#utility.yul\":29563:29578   */\n      revert\n        /* \"#utility.yul\":29590:29739   */\n    tag_378:\n        /* \"#utility.yul\":29639:29645   */\n      0x00\n        /* \"#utility.yul\":29673:29678   */\n      dup2\n        /* \"#utility.yul\":29667:29679   */\n      sload\n        /* \"#utility.yul\":29657:29679   */\n      swap1\n      pop\n        /* \"#utility.yul\":29699:29732   */\n      tag_664\n        /* \"#utility.yul\":29725:29731   */\n      dup2\n        /* \"#utility.yul\":29699:29732   */\n      tag_146\n      jump\t// in\n    tag_664:\n        /* \"#utility.yul\":29689:29732   */\n      swap1\n      pop\n        /* \"#utility.yul\":29590:29739   */\n      swap2\n      swap1\n      pop\n      jump\t// out\n        /* \"#utility.yul\":29745:31196   */\n    tag_93:\n        /* \"#utility.yul\":29856:29859   */\n      dup2\n        /* \"#utility.yul\":29850:29854   */\n      dup2\n        /* \"#utility.yul\":29847:29860   */\n      sub\n        /* \"#utility.yul\":29844:29870   */\n      tag_666\n      jumpi\n        /* \"#utility.yul\":29863:29868   */\n      pop\n      pop\n      jump(tag_665)\n        /* \"#utility.yul\":29844:29870   */\n    tag_666:\n        /* \"#utility.yul\":29894:29928   */\n      tag_667\n        /* \"#utility.yul\":29924:29927   */\n      dup3\n        /* \"#utility.yul\":29894:29928   */\n      tag_378\n      jump\t// in\n    tag_667:\n        /* \"#utility.yul\":29993:30011   */\n      0xffffffffffffffff\n        /* \"#utility.yul\":29985:29991   */\n      dup2\n        /* \"#utility.yul\":29982:30012   */\n      gt\n        /* \"#utility.yul\":29979:30035   */\n      iszero\n      tag_668\n      jumpi\n        /* \"#utility.yul\":30015:30033   */\n      tag_669\n      tag_317\n      jump\t// in\n    tag_669:\n        /* \"#utility.yul\":29979:30035   */\n    tag_668:\n        /* \"#utility.yul\":30059:30097   */\n      tag_670\n        /* \"#utility.yul\":30091:30095   */\n      dup3\n        /* \"#utility.yul\":30085:30096   */\n      sload\n        /* \"#utility.yul\":30059:30097   */\n      tag_146\n      jump\t// in\n    tag_670:\n        /* \"#utility.yul\":30144:30211   */\n      tag_671\n        /* \"#utility.yul\":30204:30210   */\n      dup3\n        /* \"#utility.yul\":30196:30202   */\n      dup3\n        /* \"#utility.yul\":30190:30194   */\n      dup6\n        /* \"#utility.yul\":30144:30211   */\n      tag_374\n      jump\t// in\n    tag_671:\n        /* \"#utility.yul\":30238:30239   */\n      0x00\n        /* \"#utility.yul\":30267:30269   */\n      0x1f\n        /* \"#utility.yul\":30259:30265   */\n      dup4\n        /* \"#utility.yul\":30256:30270   */\n      gt\n        /* \"#utility.yul\":30284:30285   */\n      0x01\n        /* \"#utility.yul\":30279:30951   */\n      dup2\n      eq\n      tag_673\n      jumpi\n        /* \"#utility.yul\":30995:30996   */\n      0x00\n        /* \"#utility.yul\":31012:31018   */\n      dup5\n        /* \"#utility.yul\":31009:31086   */\n      iszero\n      tag_674\n      jumpi\n        /* \"#utility.yul\":31061:31070   */\n      dup3\n        /* \"#utility.yul\":31056:31059   */\n      dup8\n        /* \"#utility.yul\":31052:31071   */\n      add\n        /* \"#utility.yul\":31046:31072   */\n      sload\n        /* \"#utility.yul\":31037:31072   */\n      swap1\n      pop\n        /* \"#utility.yul\":31009:31086   */\n    tag_674:\n        /* \"#utility.yul\":31112:31179   */\n      tag_675\n        /* \"#utility.yul\":31172:31178   */\n      dup6\n        /* \"#utility.yul\":31165:31170   */\n      dup3\n        /* \"#utility.yul\":31112:31179   */\n      tag_377\n      jump\t// in\n    tag_675:\n        /* \"#utility.yul\":31106:31110   */\n      dup7\n        /* \"#utility.yul\":31099:31180   */\n      sstore\n        /* \"#utility.yul\":30968:31190   */\n      pop\n        /* \"#utility.yul\":30249:31190   */\n      jump(tag_672)\n        /* \"#utility.yul\":30279:30951   */\n    tag_673:\n        /* \"#utility.yul\":30331:30335   */\n      0x1f\n        /* \"#utility.yul\":30327:30336   */\n      not\n        /* \"#utility.yul\":30319:30325   */\n      dup5\n        /* \"#utility.yul\":30315:30337   */\n      and\n        /* \"#utility.yul\":30357:30393   */\n      tag_676\n        /* \"#utility.yul\":30389:30392   */\n      dup8\n        /* \"#utility.yul\":30357:30393   */\n      tag_363\n      jump\t// in\n    tag_676:\n        /* \"#utility.yul\":30350:30393   */\n      swap7\n      pop\n        /* \"#utility.yul\":30420:30457   */\n      tag_677\n        /* \"#utility.yul\":30452:30456   */\n      dup7\n        /* \"#utility.yul\":30420:30457   */\n      tag_363\n      jump\t// in\n    tag_677:\n        /* \"#utility.yul\":30479:30480   */\n      0x00\n        /* \"#utility.yul\":30493:30700   */\n    tag_678:\n        /* \"#utility.yul\":30507:30514   */\n      dup3\n        /* \"#utility.yul\":30504:30505   */\n      dup2\n        /* \"#utility.yul\":30501:30515   */\n      lt\n        /* \"#utility.yul\":30493:30700   */\n      iszero\n      tag_680\n      jumpi\n        /* \"#utility.yul\":30586:30595   */\n      dup5\n        /* \"#utility.yul\":30581:30584   */\n      dup10\n        /* \"#utility.yul\":30577:30596   */\n      add\n        /* \"#utility.yul\":30571:30597   */\n      sload\n        /* \"#utility.yul\":30563:30569   */\n      dup3\n        /* \"#utility.yul\":30556:30598   */\n      sstore\n        /* \"#utility.yul\":30637:30638   */\n      0x01\n        /* \"#utility.yul\":30629:30635   */\n      dup3\n        /* \"#utility.yul\":30625:30639   */\n      add\n        /* \"#utility.yul\":30615:30639   */\n      swap2\n      pop\n        /* \"#utility.yul\":30684:30685   */\n      0x01\n        /* \"#utility.yul\":30673:30682   */\n      dup6\n        /* \"#utility.yul\":30669:30686   */\n      add\n        /* \"#utility.yul\":30656:30686   */\n      swap5\n      pop\n        /* \"#utility.yul\":30530:30534   */\n      0x20\n        /* \"#utility.yul\":30527:30528   */\n      dup2\n        /* \"#utility.yul\":30523:30535   */\n      add\n        /* \"#utility.yul\":30518:30535   */\n      swap1\n      pop\n        /* \"#utility.yul\":30493:30700   */\n      jump(tag_678)\n    tag_680:\n        /* \"#utility.yul\":30728:30734   */\n      dup7\n        /* \"#utility.yul\":30719:30726   */\n      dup4\n        /* \"#utility.yul\":30716:30735   */\n      lt\n        /* \"#utility.yul\":30713:30892   */\n      iszero\n      tag_681\n      jumpi\n        /* \"#utility.yul\":30786:30795   */\n      dup5\n        /* \"#utility.yul\":30781:30784   */\n      dup10\n        /* \"#utility.yul\":30777:30796   */\n      add\n        /* \"#utility.yul\":30771:30797   */\n      sload\n        /* \"#utility.yul\":30829:30877   */\n      tag_682\n        /* \"#utility.yul\":30871:30875   */\n      0x1f\n        /* \"#utility.yul\":30863:30869   */\n      dup10\n        /* \"#utility.yul\":30859:30876   */\n      and\n        /* \"#utility.yul\":30848:30857   */\n      dup3\n        /* \"#utility.yul\":30829:30877   */\n      tag_376\n      jump\t// in\n    tag_682:\n        /* \"#utility.yul\":30821:30827   */\n      dup4\n        /* \"#utility.yul\":30814:30878   */\n      sstore\n        /* \"#utility.yul\":30736:30892   */\n      pop\n        /* \"#utility.yul\":30713:30892   */\n    tag_681:\n        /* \"#utility.yul\":30938:30939   */\n      0x01\n        /* \"#utility.yul\":30934:30935   */\n      0x02\n        /* \"#utility.yul\":30926:30932   */\n      dup9\n        /* \"#utility.yul\":30922:30936   */\n      mul\n        /* \"#utility.yul\":30918:30940   */\n      add\n        /* \"#utility.yul\":30912:30916   */\n      dup9\n        /* \"#utility.yul\":30905:30941   */\n      sstore\n        /* \"#utility.yul\":30286:30951   */\n      pop\n      pop\n      pop\n        /* \"#utility.yul\":30249:31190   */\n    tag_672:\n      pop\n        /* \"#utility.yul\":29834:31196   */\n      pop\n      pop\n      pop\n        /* \"#utility.yul\":29745:31196   */\n      pop\n      pop\n    tag_665:\n      jump\t// out\n        /* \"#utility.yul\":31202:31534   */\n    tag_95:\n        /* \"#utility.yul\":31323:31327   */\n      0x00\n        /* \"#utility.yul\":31361:31363   */\n      0x40\n        /* \"#utility.yul\":31350:31359   */\n      dup3\n        /* \"#utility.yul\":31346:31364   */\n      add\n        /* \"#utility.yul\":31338:31364   */\n      swap1\n      pop\n        /* \"#utility.yul\":31374:31445   */\n      tag_684\n        /* \"#utility.yul\":31442:31443   */\n      0x00\n        /* \"#utility.yul\":31431:31440   */\n      dup4\n        /* \"#utility.yul\":31427:31444   */\n      add\n        /* \"#utility.yul\":31418:31424   */\n      dup6\n        /* \"#utility.yul\":31374:31445   */\n      tag_331\n      jump\t// in\n    tag_684:\n        /* \"#utility.yul\":31455:31527   */\n      tag_685\n        /* \"#utility.yul\":31523:31525   */\n      0x20\n        /* \"#utility.yul\":31512:31521   */\n      dup4\n        /* \"#utility.yul\":31508:31526   */\n      add\n        /* \"#utility.yul\":31499:31505   */\n      dup5\n        /* \"#utility.yul\":31455:31527   */\n      tag_332\n      jump\t// in\n    tag_685:\n        /* \"#utility.yul\":31202:31534   */\n      swap4\n      swap3\n      pop\n      pop\n      pop\n      jump\t// out\n        /* \"#utility.yul\":31540:31720   */\n    tag_379:\n        /* \"#utility.yul\":31588:31665   */\n      0x4e487b7100000000000000000000000000000000000000000000000000000000\n        /* \"#utility.yul\":31585:31586   */\n      0x00\n        /* \"#utility.yul\":31578:31666   */\n      mstore\n        /* \"#utility.yul\":31685:31689   */\n      0x11\n        /* \"#utility.yul\":31682:31683   */\n      0x04\n        /* \"#utility.yul\":31675:31690   */\n      mstore\n        /* \"#utility.yul\":31709:31713   */\n      0x24\n        /* \"#utility.yul\":31706:31707   */\n      0x00\n        /* \"#utility.yul\":31699:31714   */\n      revert\n        /* \"#utility.yul\":31726:32136   */\n    tag_119:\n        /* \"#utility.yul\":31766:31773   */\n      0x00\n        /* \"#utility.yul\":31789:31809   */\n      tag_688\n        /* \"#utility.yul\":31807:31808   */\n      dup3\n        /* \"#utility.yul\":31789:31809   */\n      tag_324\n      jump\t// in\n    tag_688:\n        /* \"#utility.yul\":31784:31809   */\n      swap2\n      pop\n        /* \"#utility.yul\":31823:31843   */\n      tag_689\n        /* \"#utility.yul\":31841:31842   */\n      dup4\n        /* \"#utility.yul\":31823:31843   */\n      tag_324\n      jump\t// in\n    tag_689:\n        /* \"#utility.yul\":31818:31843   */\n      swap3\n      pop\n        /* \"#utility.yul\":31878:31879   */\n      dup3\n        /* \"#utility.yul\":31875:31876   */\n      dup3\n        /* \"#utility.yul\":31871:31880   */\n      mul\n        /* \"#utility.yul\":31900:31930   */\n      tag_690\n        /* \"#utility.yul\":31918:31929   */\n      dup2\n        /* \"#utility.yul\":31900:31930   */\n      tag_324\n      jump\t// in\n    tag_690:\n        /* \"#utility.yul\":31889:31930   */\n      swap2\n      pop\n        /* \"#utility.yul\":32079:32080   */\n      dup3\n        /* \"#utility.yul\":32070:32077   */\n      dup3\n        /* \"#utility.yul\":32066:32081   */\n      div\n        /* \"#utility.yul\":32063:32064   */\n      dup5\n        /* \"#utility.yul\":32060:32082   */\n      eq\n        /* \"#utility.yul\":32040:32041   */\n      dup4\n        /* \"#utility.yul\":32033:32042   */\n      iszero\n        /* \"#utility.yul\":32013:32096   */\n      or\n        /* \"#utility.yul\":31990:32129   */\n      tag_691\n      jumpi\n        /* \"#utility.yul\":32109:32127   */\n      tag_692\n      tag_379\n      jump\t// in\n    tag_692:\n        /* \"#utility.yul\":31990:32129   */\n    tag_691:\n        /* \"#utility.yul\":31774:32136   */\n      pop\n        /* \"#utility.yul\":31726:32136   */\n      swap3\n      swap2\n      pop\n      pop\n      jump\t// out\n        /* \"#utility.yul\":32142:32333   */\n    tag_124:\n        /* \"#utility.yul\":32182:32185   */\n      0x00\n        /* \"#utility.yul\":32201:32221   */\n      tag_694\n        /* \"#utility.yul\":32219:32220   */\n      dup3\n        /* \"#utility.yul\":32201:32221   */\n      tag_324\n      jump\t// in\n    tag_694:\n        /* \"#utility.yul\":32196:32221   */\n      swap2\n      pop\n        /* \"#utility.yul\":32235:32255   */\n      tag_695\n        /* \"#utility.yul\":32253:32254   */\n      dup4\n        /* \"#utility.yul\":32235:32255   */\n      tag_324\n      jump\t// in\n    tag_695:\n        /* \"#utility.yul\":32230:32255   */\n      swap3\n      pop\n        /* \"#utility.yul\":32278:32279   */\n      dup3\n        /* \"#utility.yul\":32275:32276   */\n      dup3\n        /* \"#utility.yul\":32271:32280   */\n      add\n        /* \"#utility.yul\":32264:32280   */\n      swap1\n      pop\n        /* \"#utility.yul\":32299:32302   */\n      dup1\n        /* \"#utility.yul\":32296:32297   */\n      dup3\n        /* \"#utility.yul\":32293:32303   */\n      gt\n        /* \"#utility.yul\":32290:32326   */\n      iszero\n      tag_696\n      jumpi\n        /* \"#utility.yul\":32306:32324   */\n      tag_697\n      tag_379\n      jump\t// in\n    tag_697:\n        /* \"#utility.yul\":32290:32326   */\n    tag_696:\n        /* \"#utility.yul\":32142:32333   */\n      swap3\n      swap2\n      pop\n      pop\n      jump\t// out\n        /* \"#utility.yul\":32339:32568   */\n    tag_380:\n        /* \"#utility.yul\":32479:32513   */\n      0x616e6f7468657220726571756573742068617320616c7265616479206265656e\n        /* \"#utility.yul\":32475:32476   */\n      0x00\n        /* \"#utility.yul\":32467:32473   */\n      dup3\n        /* \"#utility.yul\":32463:32477   */\n      add\n        /* \"#utility.yul\":32456:32514   */\n      mstore\n        /* \"#utility.yul\":32548:32560   */\n      0x2061636365707465642100000000000000000000000000000000000000000000\n        /* \"#utility.yul\":32543:32545   */\n      0x20\n        /* \"#utility.yul\":32535:32541   */\n      dup3\n        /* \"#utility.yul\":32531:32546   */\n      add\n        /* \"#utility.yul\":32524:32561   */\n      mstore\n        /* \"#utility.yul\":32339:32568   */\n      pop\n      jump\t// out\n        /* \"#utility.yul\":32574:32940   */\n    tag_381:\n        /* \"#utility.yul\":32716:32719   */\n      0x00\n        /* \"#utility.yul\":32737:32804   */\n      tag_700\n        /* \"#utility.yul\":32801:32803   */\n      0x2a\n        /* \"#utility.yul\":32796:32799   */\n      dup4\n        /* \"#utility.yul\":32737:32804   */\n      tag_334\n      jump\t// in\n    tag_700:\n        /* \"#utility.yul\":32730:32804   */\n      swap2\n      pop\n        /* \"#utility.yul\":32813:32906   */\n      tag_701\n        /* \"#utility.yul\":32902:32905   */\n      dup3\n        /* \"#utility.yul\":32813:32906   */\n      tag_380\n      jump\t// in\n    tag_701:\n        /* \"#utility.yul\":32931:32933   */\n      0x40\n        /* \"#utility.yul\":32926:32929   */\n      dup3\n        /* \"#utility.yul\":32922:32934   */\n      add\n        /* \"#utility.yul\":32915:32934   */\n      swap1\n      pop\n        /* \"#utility.yul\":32574:32940   */\n      swap2\n      swap1\n      pop\n      jump\t// out\n        /* \"#utility.yul\":32946:33365   */\n    tag_160:\n        /* \"#utility.yul\":33112:33116   */\n      0x00\n        /* \"#utility.yul\":33150:33152   */\n      0x20\n        /* \"#utility.yul\":33139:33148   */\n      dup3\n        /* \"#utility.yul\":33135:33153   */\n      add\n        /* \"#utility.yul\":33127:33153   */\n      swap1\n      pop\n        /* \"#utility.yul\":33199:33208   */\n      dup2\n        /* \"#utility.yul\":33193:33197   */\n      dup2\n        /* \"#utility.yul\":33189:33209   */\n      sub\n        /* \"#utility.yul\":33185:33186   */\n      0x00\n        /* \"#utility.yul\":33174:33183   */\n      dup4\n        /* \"#utility.yul\":33170:33187   */\n      add\n        /* \"#utility.yul\":33163:33210   */\n      mstore\n        /* \"#utility.yul\":33227:33358   */\n      tag_703\n        /* \"#utility.yul\":33353:33357   */\n      dup2\n        /* \"#utility.yul\":33227:33358   */\n      tag_381\n      jump\t// in\n    tag_703:\n        /* \"#utility.yul\":33219:33358   */\n      swap1\n      pop\n        /* \"#utility.yul\":32946:33365   */\n      swap2\n      swap1\n      pop\n      jump\t// out\n        /* \"#utility.yul\":33371:33813   */\n    tag_171:\n        /* \"#utility.yul\":33520:33524   */\n      0x00\n        /* \"#utility.yul\":33558:33560   */\n      0x60\n        /* \"#utility.yul\":33547:33556   */\n      dup3\n        /* \"#utility.yul\":33543:33561   */\n      add\n        /* \"#utility.yul\":33535:33561   */\n      swap1\n      pop\n        /* \"#utility.yul\":33571:33642   */\n      tag_705\n        /* \"#utility.yul\":33639:33640   */\n      0x00\n        /* \"#utility.yul\":33628:33637   */\n      dup4\n        /* \"#utility.yul\":33624:33641   */\n      add\n        /* \"#utility.yul\":33615:33621   */\n      dup7\n        /* \"#utility.yul\":33571:33642   */\n      tag_332\n      jump\t// in\n    tag_705:\n        /* \"#utility.yul\":33652:33724   */\n      tag_706\n        /* \"#utility.yul\":33720:33722   */\n      0x20\n        /* \"#utility.yul\":33709:33718   */\n      dup4\n        /* \"#utility.yul\":33705:33723   */\n      add\n        /* \"#utility.yul\":33696:33702   */\n      dup6\n        /* \"#utility.yul\":33652:33724   */\n      tag_332\n      jump\t// in\n    tag_706:\n        /* \"#utility.yul\":33734:33806   */\n      tag_707\n        /* \"#utility.yul\":33802:33804   */\n      0x40\n        /* \"#utility.yul\":33791:33800   */\n      dup4\n        /* \"#utility.yul\":33787:33805   */\n      add\n        /* \"#utility.yul\":33778:33784   */\n      dup5\n        /* \"#utility.yul\":33734:33806   */\n      tag_331\n      jump\t// in\n    tag_707:\n        /* \"#utility.yul\":33371:33813   */\n      swap5\n      swap4\n      pop\n      pop\n      pop\n      pop\n      jump\t// out\n        /* \"#utility.yul\":33819:34039   */\n    tag_382:\n        /* \"#utility.yul\":33959:33993   */\n      0x796f75722072657175657374206861736e2774206265656e2061636365707465\n        /* \"#utility.yul\":33955:33956   */\n      0x00\n        /* \"#utility.yul\":33947:33953   */\n      dup3\n        /* \"#utility.yul\":33943:33957   */\n      add\n        /* \"#utility.yul\":33936:33994   */\n      mstore\n        /* \"#utility.yul\":34028:34031   */\n      0x6400000000000000000000000000000000000000000000000000000000000000\n        /* \"#utility.yul\":34023:34025   */\n      0x20\n        /* \"#utility.yul\":34015:34021   */\n      dup3\n        /* \"#utility.yul\":34011:34026   */\n      add\n        /* \"#utility.yul\":34004:34032   */\n      mstore\n        /* \"#utility.yul\":33819:34039   */\n      pop\n      jump\t// out\n        /* \"#utility.yul\":34045:34411   */\n    tag_383:\n        /* \"#utility.yul\":34187:34190   */\n      0x00\n        /* \"#utility.yul\":34208:34275   */\n      tag_710\n        /* \"#utility.yul\":34272:34274   */\n      0x21\n        /* \"#utility.yul\":34267:34270   */\n      dup4\n        /* \"#utility.yul\":34208:34275   */\n      tag_334\n      jump\t// in\n    tag_710:\n        /* \"#utility.yul\":34201:34275   */\n      swap2\n      pop\n        /* \"#utility.yul\":34284:34377   */\n      tag_711\n        /* \"#utility.yul\":34373:34376   */\n      dup3\n        /* \"#utility.yul\":34284:34377   */\n      tag_382\n      jump\t// in\n    tag_711:\n        /* \"#utility.yul\":34402:34404   */\n      0x40\n        /* \"#utility.yul\":34397:34400   */\n      dup3\n        /* \"#utility.yul\":34393:34405   */\n      add\n        /* \"#utility.yul\":34386:34405   */\n      swap1\n      pop\n        /* \"#utility.yul\":34045:34411   */\n      swap2\n      swap1\n      pop\n      jump\t// out\n        /* \"#utility.yul\":34417:34836   */\n    tag_187:\n        /* \"#utility.yul\":34583:34587   */\n      0x00\n        /* \"#utility.yul\":34621:34623   */\n      0x20\n        /* \"#utility.yul\":34610:34619   */\n      dup3\n        /* \"#utility.yul\":34606:34624   */\n      add\n        /* \"#utility.yul\":34598:34624   */\n      swap1\n      pop\n        /* \"#utility.yul\":34670:34679   */\n      dup2\n        /* \"#utility.yul\":34664:34668   */\n      dup2\n        /* \"#utility.yul\":34660:34680   */\n      sub\n        /* \"#utility.yul\":34656:34657   */\n      0x00\n        /* \"#utility.yul\":34645:34654   */\n      dup4\n        /* \"#utility.yul\":34641:34658   */\n      add\n        /* \"#utility.yul\":34634:34681   */\n      mstore\n        /* \"#utility.yul\":34698:34829   */\n      tag_713\n        /* \"#utility.yul\":34824:34828   */\n      dup2\n        /* \"#utility.yul\":34698:34829   */\n      tag_383\n      jump\t// in\n    tag_713:\n        /* \"#utility.yul\":34690:34829   */\n      swap1\n      pop\n        /* \"#utility.yul\":34417:34836   */\n      swap2\n      swap1\n      pop\n      jump\t// out\n        /* \"#utility.yul\":34842:35010   */\n    tag_384:\n        /* \"#utility.yul\":34982:35002   */\n      0x496e636f7272656374207061796d656e74200000000000000000000000000000\n        /* \"#utility.yul\":34978:34979   */\n      0x00\n        /* \"#utility.yul\":34970:34976   */\n      dup3\n        /* \"#utility.yul\":34966:34980   */\n      add\n        /* \"#utility.yul\":34959:35003   */\n      mstore\n        /* \"#utility.yul\":34842:35010   */\n      pop\n      jump\t// out\n        /* \"#utility.yul\":35016:35382   */\n    tag_385:\n        /* \"#utility.yul\":35158:35161   */\n      0x00\n        /* \"#utility.yul\":35179:35246   */\n      tag_716\n        /* \"#utility.yul\":35243:35245   */\n      0x12\n        /* \"#utility.yul\":35238:35241   */\n      dup4\n        /* \"#utility.yul\":35179:35246   */\n      tag_334\n      jump\t// in\n    tag_716:\n        /* \"#utility.yul\":35172:35246   */\n      swap2\n      pop\n        /* \"#utility.yul\":35255:35348   */\n      tag_717\n        /* \"#utility.yul\":35344:35347   */\n      dup3\n        /* \"#utility.yul\":35255:35348   */\n      tag_384\n      jump\t// in\n    tag_717:\n        /* \"#utility.yul\":35373:35375   */\n      0x20\n        /* \"#utility.yul\":35368:35371   */\n      dup3\n        /* \"#utility.yul\":35364:35376   */\n      add\n        /* \"#utility.yul\":35357:35376   */\n      swap1\n      pop\n        /* \"#utility.yul\":35016:35382   */\n      swap2\n      swap1\n      pop\n      jump\t// out\n        /* \"#utility.yul\":35388:35807   */\n    tag_201:\n        /* \"#utility.yul\":35554:35558   */\n      0x00\n        /* \"#utility.yul\":35592:35594   */\n      0x20\n        /* \"#utility.yul\":35581:35590   */\n      dup3\n        /* \"#utility.yul\":35577:35595   */\n      add\n        /* \"#utility.yul\":35569:35595   */\n      swap1\n      pop\n        /* \"#utility.yul\":35641:35650   */\n      dup2\n        /* \"#utility.yul\":35635:35639   */\n      dup2\n        /* \"#utility.yul\":35631:35651   */\n      sub\n        /* \"#utility.yul\":35627:35628   */\n      0x00\n        /* \"#utility.yul\":35616:35625   */\n      dup4\n        /* \"#utility.yul\":35612:35629   */\n      add\n        /* \"#utility.yul\":35605:35652   */\n      mstore\n        /* \"#utility.yul\":35669:35800   */\n      tag_719\n        /* \"#utility.yul\":35795:35799   */\n      dup2\n        /* \"#utility.yul\":35669:35800   */\n      tag_385\n      jump\t// in\n    tag_719:\n        /* \"#utility.yul\":35661:35800   */\n      swap1\n      pop\n        /* \"#utility.yul\":35388:35807   */\n      swap2\n      swap1\n      pop\n      jump\t// out\n        /* \"#utility.yul\":35813:36007   */\n    tag_203:\n        /* \"#utility.yul\":35853:35857   */\n      0x00\n        /* \"#utility.yul\":35873:35893   */\n      tag_721\n        /* \"#utility.yul\":35891:35892   */\n      dup3\n        /* \"#utility.yul\":35873:35893   */\n      tag_324\n      jump\t// in\n    tag_721:\n        /* \"#utility.yul\":35868:35893   */\n      swap2\n      pop\n        /* \"#utility.yul\":35907:35927   */\n      tag_722\n        /* \"#utility.yul\":35925:35926   */\n      dup4\n        /* \"#utility.yul\":35907:35927   */\n      tag_324\n      jump\t// in\n    tag_722:\n        /* \"#utility.yul\":35902:35927   */\n      swap3\n      pop\n        /* \"#utility.yul\":35951:35952   */\n      dup3\n        /* \"#utility.yul\":35948:35949   */\n      dup3\n        /* \"#utility.yul\":35944:35953   */\n      sub\n        /* \"#utility.yul\":35936:35953   */\n      swap1\n      pop\n        /* \"#utility.yul\":35975:35976   */\n      dup2\n        /* \"#utility.yul\":35969:35973   */\n      dup2\n        /* \"#utility.yul\":35966:35977   */\n      gt\n        /* \"#utility.yul\":35963:36000   */\n      iszero\n      tag_723\n      jumpi\n        /* \"#utility.yul\":35980:35998   */\n      tag_724\n      tag_379\n      jump\t// in\n    tag_724:\n        /* \"#utility.yul\":35963:36000   */\n    tag_723:\n        /* \"#utility.yul\":35813:36007   */\n      swap3\n      swap2\n      pop\n      pop\n      jump\t// out\n        /* \"#utility.yul\":36013:36193   */\n    tag_386:\n        /* \"#utility.yul\":36061:36138   */\n      0x4e487b7100000000000000000000000000000000000000000000000000000000\n        /* \"#utility.yul\":36058:36059   */\n      0x00\n        /* \"#utility.yul\":36051:36139   */\n      mstore\n        /* \"#utility.yul\":36158:36162   */\n      0x12\n        /* \"#utility.yul\":36155:36156   */\n      0x04\n        /* \"#utility.yul\":36148:36163   */\n      mstore\n        /* \"#utility.yul\":36182:36186   */\n      0x24\n        /* \"#utility.yul\":36179:36180   */\n      0x00\n        /* \"#utility.yul\":36172:36187   */\n      revert\n        /* \"#utility.yul\":36199:36384   */\n    tag_205:\n        /* \"#utility.yul\":36239:36240   */\n      0x00\n        /* \"#utility.yul\":36256:36276   */\n      tag_727\n        /* \"#utility.yul\":36274:36275   */\n      dup3\n        /* \"#utility.yul\":36256:36276   */\n      tag_324\n      jump\t// in\n    tag_727:\n        /* \"#utility.yul\":36251:36276   */\n      swap2\n      pop\n        /* \"#utility.yul\":36290:36310   */\n      tag_728\n        /* \"#utility.yul\":36308:36309   */\n      dup4\n        /* \"#utility.yul\":36290:36310   */\n      tag_324\n      jump\t// in\n    tag_728:\n        /* \"#utility.yul\":36285:36310   */\n      swap3\n      pop\n        /* \"#utility.yul\":36329:36330   */\n      dup3\n        /* \"#utility.yul\":36319:36354   */\n      tag_729\n      jumpi\n        /* \"#utility.yul\":36334:36352   */\n      tag_730\n      tag_386\n      jump\t// in\n    tag_730:\n        /* \"#utility.yul\":36319:36354   */\n    tag_729:\n        /* \"#utility.yul\":36376:36377   */\n      dup3\n        /* \"#utility.yul\":36373:36374   */\n      dup3\n        /* \"#utility.yul\":36369:36378   */\n      div\n        /* \"#utility.yul\":36364:36378   */\n      swap1\n      pop\n        /* \"#utility.yul\":36199:36384   */\n      swap3\n      swap2\n      pop\n      pop\n      jump\t// out\n        /* \"#utility.yul\":36390:37165   */\n    tag_227:\n        /* \"#utility.yul\":36623:36627   */\n      0x00\n        /* \"#utility.yul\":36661:36664   */\n      0xc0\n        /* \"#utility.yul\":36650:36659   */\n      dup3\n        /* \"#utility.yul\":36646:36665   */\n      add\n        /* \"#utility.yul\":36638:36665   */\n      swap1\n      pop\n        /* \"#utility.yul\":36675:36746   */\n      tag_732\n        /* \"#utility.yul\":36743:36744   */\n      0x00\n        /* \"#utility.yul\":36732:36741   */\n      dup4\n        /* \"#utility.yul\":36728:36745   */\n      add\n        /* \"#utility.yul\":36719:36725   */\n      dup10\n        /* \"#utility.yul\":36675:36746   */\n      tag_331\n      jump\t// in\n    tag_732:\n        /* \"#utility.yul\":36756:36828   */\n      tag_733\n        /* \"#utility.yul\":36824:36826   */\n      0x20\n        /* \"#utility.yul\":36813:36822   */\n      dup4\n        /* \"#utility.yul\":36809:36827   */\n      add\n        /* \"#utility.yul\":36800:36806   */\n      dup9\n        /* \"#utility.yul\":36756:36828   */\n      tag_332\n      jump\t// in\n    tag_733:\n        /* \"#utility.yul\":36838:36910   */\n      tag_734\n        /* \"#utility.yul\":36906:36908   */\n      0x40\n        /* \"#utility.yul\":36895:36904   */\n      dup4\n        /* \"#utility.yul\":36891:36909   */\n      add\n        /* \"#utility.yul\":36882:36888   */\n      dup8\n        /* \"#utility.yul\":36838:36910   */\n      tag_332\n      jump\t// in\n    tag_734:\n        /* \"#utility.yul\":36920:36992   */\n      tag_735\n        /* \"#utility.yul\":36988:36990   */\n      0x60\n        /* \"#utility.yul\":36977:36986   */\n      dup4\n        /* \"#utility.yul\":36973:36991   */\n      add\n        /* \"#utility.yul\":36964:36970   */\n      dup7\n        /* \"#utility.yul\":36920:36992   */\n      tag_331\n      jump\t// in\n    tag_735:\n        /* \"#utility.yul\":37002:37075   */\n      tag_736\n        /* \"#utility.yul\":37070:37073   */\n      0x80\n        /* \"#utility.yul\":37059:37068   */\n      dup4\n        /* \"#utility.yul\":37055:37074   */\n      add\n        /* \"#utility.yul\":37046:37052   */\n      dup6\n        /* \"#utility.yul\":37002:37075   */\n      tag_331\n      jump\t// in\n    tag_736:\n        /* \"#utility.yul\":37085:37158   */\n      tag_737\n        /* \"#utility.yul\":37153:37156   */\n      0xa0\n        /* \"#utility.yul\":37142:37151   */\n      dup4\n        /* \"#utility.yul\":37138:37157   */\n      add\n        /* \"#utility.yul\":37129:37135   */\n      dup5\n        /* \"#utility.yul\":37085:37158   */\n      tag_331\n      jump\t// in\n    tag_737:\n        /* \"#utility.yul\":36390:37165   */\n      swap8\n      swap7\n      pop\n      pop\n      pop\n      pop\n      pop\n      pop\n      pop\n      jump\t// out\n        /* \"#utility.yul\":37171:37343   */\n    tag_387:\n        /* \"#utility.yul\":37311:37335   */\n      0x486f757365206973206e6f7420617661696c61626c6500000000000000000000\n        /* \"#utility.yul\":37307:37308   */\n      0x00\n        /* \"#utility.yul\":37299:37305   */\n      dup3\n        /* \"#utility.yul\":37295:37309   */\n      add\n        /* \"#utility.yul\":37288:37336   */\n      mstore\n        /* \"#utility.yul\":37171:37343   */\n      pop\n      jump\t// out\n        /* \"#utility.yul\":37349:37715   */\n    tag_388:\n        /* \"#utility.yul\":37491:37494   */\n      0x00\n        /* \"#utility.yul\":37512:37579   */\n      tag_740\n        /* \"#utility.yul\":37576:37578   */\n      0x16\n        /* \"#utility.yul\":37571:37574   */\n      dup4\n        /* \"#utility.yul\":37512:37579   */\n      tag_334\n      jump\t// in\n    tag_740:\n        /* \"#utility.yul\":37505:37579   */\n      swap2\n      pop\n        /* \"#utility.yul\":37588:37681   */\n      tag_741\n        /* \"#utility.yul\":37677:37680   */\n      dup3\n        /* \"#utility.yul\":37588:37681   */\n      tag_387\n      jump\t// in\n    tag_741:\n        /* \"#utility.yul\":37706:37708   */\n      0x20\n        /* \"#utility.yul\":37701:37704   */\n      dup3\n        /* \"#utility.yul\":37697:37709   */\n      add\n        /* \"#utility.yul\":37690:37709   */\n      swap1\n      pop\n        /* \"#utility.yul\":37349:37715   */\n      swap2\n      swap1\n      pop\n      jump\t// out\n        /* \"#utility.yul\":37721:38140   */\n    tag_243:\n        /* \"#utility.yul\":37887:37891   */\n      0x00\n        /* \"#utility.yul\":37925:37927   */\n      0x20\n        /* \"#utility.yul\":37914:37923   */\n      dup3\n        /* \"#utility.yul\":37910:37928   */\n      add\n        /* \"#utility.yul\":37902:37928   */\n      swap1\n      pop\n        /* \"#utility.yul\":37974:37983   */\n      dup2\n        /* \"#utility.yul\":37968:37972   */\n      dup2\n        /* \"#utility.yul\":37964:37984   */\n      sub\n        /* \"#utility.yul\":37960:37961   */\n      0x00\n        /* \"#utility.yul\":37949:37958   */\n      dup4\n        /* \"#utility.yul\":37945:37962   */\n      add\n        /* \"#utility.yul\":37938:37985   */\n      mstore\n        /* \"#utility.yul\":38002:38133   */\n      tag_743\n        /* \"#utility.yul\":38128:38132   */\n      dup2\n        /* \"#utility.yul\":38002:38133   */\n      tag_388\n      jump\t// in\n    tag_743:\n        /* \"#utility.yul\":37994:38133   */\n      swap1\n      pop\n        /* \"#utility.yul\":37721:38140   */\n      swap2\n      swap1\n      pop\n      jump\t// out\n        /* \"#utility.yul\":38146:38315   */\n    tag_389:\n        /* \"#utility.yul\":38286:38307   */\n      0x77726f6e672072656e74616c20706572696f6400000000000000000000000000\n        /* \"#utility.yul\":38282:38283   */\n      0x00\n        /* \"#utility.yul\":38274:38280   */\n      dup3\n        /* \"#utility.yul\":38270:38284   */\n      add\n        /* \"#utility.yul\":38263:38308   */\n      mstore\n        /* \"#utility.yul\":38146:38315   */\n      pop\n      jump\t// out\n        /* \"#utility.yul\":38321:38687   */\n    tag_390:\n        /* \"#utility.yul\":38463:38466   */\n      0x00\n        /* \"#utility.yul\":38484:38551   */\n      tag_746\n        /* \"#utility.yul\":38548:38550   */\n      0x13\n        /* \"#utility.yul\":38543:38546   */\n      dup4\n        /* \"#utility.yul\":38484:38551   */\n      tag_334\n      jump\t// in\n    tag_746:\n        /* \"#utility.yul\":38477:38551   */\n      swap2\n      pop\n        /* \"#utility.yul\":38560:38653   */\n      tag_747\n        /* \"#utility.yul\":38649:38652   */\n      dup3\n        /* \"#utility.yul\":38560:38653   */\n      tag_389\n      jump\t// in\n    tag_747:\n        /* \"#utility.yul\":38678:38680   */\n      0x20\n        /* \"#utility.yul\":38673:38676   */\n      dup3\n        /* \"#utility.yul\":38669:38681   */\n      add\n        /* \"#utility.yul\":38662:38681   */\n      swap1\n      pop\n        /* \"#utility.yul\":38321:38687   */\n      swap2\n      swap1\n      pop\n      jump\t// out\n        /* \"#utility.yul\":38693:39112   */\n    tag_255:\n        /* \"#utility.yul\":38859:38863   */\n      0x00\n        /* \"#utility.yul\":38897:38899   */\n      0x20\n        /* \"#utility.yul\":38886:38895   */\n      dup3\n        /* \"#utility.yul\":38882:38900   */\n      add\n        /* \"#utility.yul\":38874:38900   */\n      swap1\n      pop\n        /* \"#utility.yul\":38946:38955   */\n      dup2\n        /* \"#utility.yul\":38940:38944   */\n      dup2\n        /* \"#utility.yul\":38936:38956   */\n      sub\n        /* \"#utility.yul\":38932:38933   */\n      0x00\n        /* \"#utility.yul\":38921:38930   */\n      dup4\n        /* \"#utility.yul\":38917:38934   */\n      add\n        /* \"#utility.yul\":38910:38957   */\n      mstore\n        /* \"#utility.yul\":38974:39105   */\n      tag_749\n        /* \"#utility.yul\":39100:39104   */\n      dup2\n        /* \"#utility.yul\":38974:39105   */\n      tag_390\n      jump\t// in\n    tag_749:\n        /* \"#utility.yul\":38966:39105   */\n      swap1\n      pop\n        /* \"#utility.yul\":38693:39112   */\n      swap2\n      swap1\n      pop\n      jump\t// out\n        /* \"#utility.yul\":39118:39450   */\n    tag_261:\n        /* \"#utility.yul\":39239:39243   */\n      0x00\n        /* \"#utility.yul\":39277:39279   */\n      0x40\n        /* \"#utility.yul\":39266:39275   */\n      dup3\n        /* \"#utility.yul\":39262:39280   */\n      add\n        /* \"#utility.yul\":39254:39280   */\n      swap1\n      pop\n        /* \"#utility.yul\":39290:39361   */\n      tag_751\n        /* \"#utility.yul\":39358:39359   */\n      0x00\n        /* \"#utility.yul\":39347:39356   */\n      dup4\n        /* \"#utility.yul\":39343:39360   */\n      add\n        /* \"#utility.yul\":39334:39340   */\n      dup6\n        /* \"#utility.yul\":39290:39361   */\n      tag_332\n      jump\t// in\n    tag_751:\n        /* \"#utility.yul\":39371:39443   */\n      tag_752\n        /* \"#utility.yul\":39439:39441   */\n      0x20\n        /* \"#utility.yul\":39428:39437   */\n      dup4\n        /* \"#utility.yul\":39424:39442   */\n      add\n        /* \"#utility.yul\":39415:39421   */\n      dup5\n        /* \"#utility.yul\":39371:39443   */\n      tag_331\n      jump\t// in\n    tag_752:\n        /* \"#utility.yul\":39118:39450   */\n      swap4\n      swap3\n      pop\n      pop\n      pop\n      jump\t// out\n        /* \"#utility.yul\":39456:39676   */\n    tag_391:\n        /* \"#utility.yul\":39596:39630   */\n      0x596f7520646f6e2774206861766520616e20616d6f756e742064756520796574\n        /* \"#utility.yul\":39592:39593   */\n      0x00\n        /* \"#utility.yul\":39584:39590   */\n      dup3\n        /* \"#utility.yul\":39580:39594   */\n      add\n        /* \"#utility.yul\":39573:39631   */\n      mstore\n        /* \"#utility.yul\":39665:39668   */\n      0x2100000000000000000000000000000000000000000000000000000000000000\n        /* \"#utility.yul\":39660:39662   */\n      0x20\n        /* \"#utility.yul\":39652:39658   */\n      dup3\n        /* \"#utility.yul\":39648:39663   */\n      add\n        /* \"#utility.yul\":39641:39669   */\n      mstore\n        /* \"#utility.yul\":39456:39676   */\n      pop\n      jump\t// out\n        /* \"#utility.yul\":39682:40048   */\n    tag_392:\n        /* \"#utility.yul\":39824:39827   */\n      0x00\n        /* \"#utility.yul\":39845:39912   */\n      tag_755\n        /* \"#utility.yul\":39909:39911   */\n      0x21\n        /* \"#utility.yul\":39904:39907   */\n      dup4\n        /* \"#utility.yul\":39845:39912   */\n      tag_334\n      jump\t// in\n    tag_755:\n        /* \"#utility.yul\":39838:39912   */\n      swap2\n      pop\n        /* \"#utility.yul\":39921:40014   */\n      tag_756\n        /* \"#utility.yul\":40010:40013   */\n      dup3\n        /* \"#utility.yul\":39921:40014   */\n      tag_391\n      jump\t// in\n    tag_756:\n        /* \"#utility.yul\":40039:40041   */\n      0x40\n        /* \"#utility.yul\":40034:40037   */\n      dup3\n        /* \"#utility.yul\":40030:40042   */\n      add\n        /* \"#utility.yul\":40023:40042   */\n      swap1\n      pop\n        /* \"#utility.yul\":39682:40048   */\n      swap2\n      swap1\n      pop\n      jump\t// out\n        /* \"#utility.yul\":40054:40473   */\n    tag_277:\n        /* \"#utility.yul\":40220:40224   */\n      0x00\n        /* \"#utility.yul\":40258:40260   */\n      0x20\n        /* \"#utility.yul\":40247:40256   */\n      dup3\n        /* \"#utility.yul\":40243:40261   */\n      add\n        /* \"#utility.yul\":40235:40261   */\n      swap1\n      pop\n        /* \"#utility.yul\":40307:40316   */\n      dup2\n        /* \"#utility.yul\":40301:40305   */\n      dup2\n        /* \"#utility.yul\":40297:40317   */\n      sub\n        /* \"#utility.yul\":40293:40294   */\n      0x00\n        /* \"#utility.yul\":40282:40291   */\n      dup4\n        /* \"#utility.yul\":40278:40295   */\n      add\n        /* \"#utility.yul\":40271:40318   */\n      mstore\n        /* \"#utility.yul\":40335:40466   */\n      tag_758\n        /* \"#utility.yul\":40461:40465   */\n      dup2\n        /* \"#utility.yul\":40335:40466   */\n      tag_392\n      jump\t// in\n    tag_758:\n        /* \"#utility.yul\":40327:40466   */\n      swap1\n      pop\n        /* \"#utility.yul\":40054:40473   */\n      swap2\n      swap1\n      pop\n      jump\t// out\n        /* \"#utility.yul\":40479:40921   */\n    tag_295:\n        /* \"#utility.yul\":40628:40632   */\n      0x00\n        /* \"#utility.yul\":40666:40668   */\n      0x60\n        /* \"#utility.yul\":40655:40664   */\n      dup3\n        /* \"#utility.yul\":40651:40669   */\n      add\n        /* \"#utility.yul\":40643:40669   */\n      swap1\n      pop\n        /* \"#utility.yul\":40679:40750   */\n      tag_760\n        /* \"#utility.yul\":40747:40748   */\n      0x00\n        /* \"#utility.yul\":40736:40745   */\n      dup4\n        /* \"#utility.yul\":40732:40749   */\n      add\n        /* \"#utility.yul\":40723:40729   */\n      dup7\n        /* \"#utility.yul\":40679:40750   */\n      tag_331\n      jump\t// in\n    tag_760:\n        /* \"#utility.yul\":40760:40832   */\n      tag_761\n        /* \"#utility.yul\":40828:40830   */\n      0x20\n        /* \"#utility.yul\":40817:40826   */\n      dup4\n        /* \"#utility.yul\":40813:40831   */\n      add\n        /* \"#utility.yul\":40804:40810   */\n      dup6\n        /* \"#utility.yul\":40760:40832   */\n      tag_332\n      jump\t// in\n    tag_761:\n        /* \"#utility.yul\":40842:40914   */\n      tag_762\n        /* \"#utility.yul\":40910:40912   */\n      0x40\n        /* \"#utility.yul\":40899:40908   */\n      dup4\n        /* \"#utility.yul\":40895:40913   */\n      add\n        /* \"#utility.yul\":40886:40892   */\n      dup5\n        /* \"#utility.yul\":40842:40914   */\n      tag_331\n      jump\t// in\n    tag_762:\n        /* \"#utility.yul\":40479:40921   */\n      swap5\n      swap4\n      pop\n      pop\n      pop\n      pop\n      jump\t// out\n\n    auxdata: 0xa2646970667358221220e9e268ad006bef22e78f093c1e22cdb4d9f09dbc5c641b7cf90cf16631d5f50064736f6c63430008160033\n}\n",
				"bytecode": {
					"linkReferences": {},
					"object": "608060405234801561000f575f80fd5b506133708061001d5f395ff3fe6080604052600436106100c1575f3560e01c80638f7d8e731161007e578063b5c3005c11610058578063b5c3005c14610290578063d87deea8146102b8578063d9e8843f146102e2578063dc388605146102fe576100c1565b80638f7d8e73146101ef5780639ecebe2a1461020b578063aeda852f1461024c576100c1565b8063296da249146100c5578063337a8e3c146100ed57806339e110e1146101155780634ba1f098146101595780637607d62f146101815780638813ce12146101c5575b5f80fd5b3480156100d0575f80fd5b506100eb60048036038101906100e69190612103565b610328565b005b3480156100f8575f80fd5b50610113600480360381019061010e9190612202565b6105d5565b005b348015610120575f80fd5b5061013b6004803603810190610136919061222d565b610b03565b60405161015099989796959493929190612303565b60405180910390f35b348015610164575f80fd5b5061017f600480360381019061017a9190612395565b610c0c565b005b34801561018c575f80fd5b506101a760048036038101906101a2919061222d565b610e1f565b6040516101bc999897969594939291906123c0565b60405180910390f35b3480156101d0575f80fd5b506101d9610ea2565b6040516101e6919061258a565b60405180910390f35b610209600480360381019061020491906125aa565b610fbf565b005b348015610216575f80fd5b50610231600480360381019061022c919061222d565b61149e565b6040516102439695949392919061260e565b60405180910390f35b348015610257575f80fd5b50610272600480360381019061026d9190612395565b61150f565b60405161028799989796959493929190612303565b60405180910390f35b34801561029b575f80fd5b506102b660048036038101906102b1919061266d565b61160c565b005b3480156102c3575f80fd5b506102cc611905565b6040516102d99190612882565b60405180910390f35b6102fc60048036038101906102f79190612395565b611a8b565b005b348015610309575f80fd5b50610312611e3e565b60405161031f9190612a00565b60405180910390f35b5f808054905090505f6040518061012001604052808381526020013373ffffffffffffffffffffffffffffffffffffffff1681526020018981526020018881526020018781526020018681526020018581526020018481526020016001815250908060018154018082558091505060019003905f5260205f2090600902015f909190919091505f820151815f01556020820151816001015f6101000a81548173ffffffffffffffffffffffffffffffffffffffff021916908373ffffffffffffffffffffffffffffffffffffffff16021790555060408201518160020190816104119190612c1a565b50606082015181600301556080820151816004015560a0820151816005015560c0820151816006015560e082015181600701556101008201518160080155505060025f3373ffffffffffffffffffffffffffffffffffffffff1673ffffffffffffffffffffffffffffffffffffffff1681526020019081526020015f205f82815481106104a1576104a0612ce9565b5b905f5260205f209060090201908060018154018082558091505060019003905f5260205f2090600902015f909190919091505f820154815f0155600182015f9054906101000a900473ffffffffffffffffffffffffffffffffffffffff16816001015f6101000a81548173ffffffffffffffffffffffffffffffffffffffff021916908373ffffffffffffffffffffffffffffffffffffffff160217905550600282018160020190816105549190612d2b565b5060038201548160030155600482015481600401556005820154816005015560068201548160060155600782015481600701556008820154816008015550507f940aaeb497467fb446ec8c9138170d69447f46abda147045ef232ebf4515229f81336040516105c4929190612e10565b60405180910390a150505050505050565b5f4290505f5b60035f8473ffffffffffffffffffffffffffffffffffffffff1673ffffffffffffffffffffffffffffffffffffffff1681526020019081526020015f2080549050811015610afe57600160035f8573ffffffffffffffffffffffffffffffffffffffff1673ffffffffffffffffffffffffffffffffffffffff1681526020019081526020015f20828154811061067457610673612ce9565b5b905f5260205f2090600902016008015403610af1575f60035f8573ffffffffffffffffffffffffffffffffffffffff1673ffffffffffffffffffffffffffffffffffffffff1681526020019081526020015f2082815481106106d9576106d8612ce9565b5b905f5260205f2090600902016005015490505b80831115610aef575f60035f8673ffffffffffffffffffffffffffffffffffffffff1673ffffffffffffffffffffffffffffffffffffffff1681526020019081526020015f20838154811061074457610743612ce9565b5b905f5260205f209060090201604051806101200160405290815f8201548152602001600182015f9054906101000a900473ffffffffffffffffffffffffffffffffffffffff1673ffffffffffffffffffffffffffffffffffffffff1673ffffffffffffffffffffffffffffffffffffffff16815260200160028201548152602001600382015481526020016004820154815260200160058201548152602001600682015481526020016007820154815260200160088201548152505090505f816040015190505f80828154811061081e5761081d612ce9565b5b905f5260205f2090600902016005015490505f80838154811061084457610843612ce9565b5b905f5260205f209060090201600301549050603c826108639190612e64565b60035f8a73ffffffffffffffffffffffffffffffffffffffff1673ffffffffffffffffffffffffffffffffffffffff1681526020019081526020015f2087815481106108b2576108b1612ce9565b5b905f5260205f2090600902016005015f8282546108cf9190612ea5565b9250508190555080826108e29190612e64565b60035f8a73ffffffffffffffffffffffffffffffffffffffff1673ffffffffffffffffffffffffffffffffffffffff1681526020019081526020015f20878154811061093157610930612ce9565b5b905f5260205f2090600902016006015f82825461094e9190612ea5565b9250508190555060035f8973ffffffffffffffffffffffffffffffffffffffff1673ffffffffffffffffffffffffffffffffffffffff1681526020019081526020015f2086815481106109a4576109a3612ce9565b5b905f5260205f2090600902016004015460035f8a73ffffffffffffffffffffffffffffffffffffffff1673ffffffffffffffffffffffffffffffffffffffff1681526020019081526020015f208781548110610a0357610a02612ce9565b5b905f5260205f209060090201600501541115610a85575f60035f8a73ffffffffffffffffffffffffffffffffffffffff1673ffffffffffffffffffffffffffffffffffffffff1681526020019081526020015f208781548110610a6957610a68612ce9565b5b905f5260205f2090600902016008018190555050505050610aef565b60035f8973ffffffffffffffffffffffffffffffffffffffff1673ffffffffffffffffffffffffffffffffffffffff1681526020019081526020015f208681548110610ad457610ad3612ce9565b5b905f5260205f209060090201600501549450505050506106ec565b505b80806001019150506105db565b505050565b6002602052815f5260405f208181548110610b1c575f80fd5b905f5260205f2090600902015f9150915050805f015490806001015f9054906101000a900473ffffffffffffffffffffffffffffffffffffffff1690806002018054610b6790612a4d565b80601f0160208091040260200160405190810160405280929190818152602001828054610b9390612a4d565b8015610bde5780601f10610bb557610100808354040283529160200191610bde565b820191905f5260205f20905b815481529060010190602001808311610bc157829003601f168201915b5050505050908060030154908060040154908060050154908060060154908060070154908060080154905089565b5f60015f3373ffffffffffffffffffffffffffffffffffffffff1673ffffffffffffffffffffffffffffffffffffffff1681526020019081526020015f208281548110610c5c57610c5b612ce9565b5b905f5260205f20906006020160020154905060015f8281548110610c8357610c82612ce9565b5b905f5260205f2090600902016008015414610cd3576040517f08c379a0000000000000000000000000000000000000000000000000000000008152600401610cca90612f48565b60405180910390fd5b5f60015f3373ffffffffffffffffffffffffffffffffffffffff1673ffffffffffffffffffffffffffffffffffffffff1681526020019081526020015f208381548110610d2357610d22612ce9565b5b905f5260205f2090600602016001015f9054906101000a900473ffffffffffffffffffffffffffffffffffffffff1690506001805f3373ffffffffffffffffffffffffffffffffffffffff1673ffffffffffffffffffffffffffffffffffffffff1681526020019081526020015f208481548110610da457610da3612ce9565b5b905f5260205f2090600602016005018190555060025f8381548110610dcc57610dcb612ce9565b5b905f5260205f209060090201600801819055507fd0e9a8bd0419492ff92821e0c185c3727b503f71880830c1122a578619af8e75338284604051610e1293929190612f66565b60405180910390a1505050565b6003602052815f5260405f208181548110610e38575f80fd5b905f5260205f2090600902015f9150915050805f015490806001015f9054906101000a900473ffffffffffffffffffffffffffffffffffffffff16908060020154908060030154908060040154908060050154908060060154908060070154908060080154905089565b606060015f3373ffffffffffffffffffffffffffffffffffffffff1673ffffffffffffffffffffffffffffffffffffffff1681526020019081526020015f20805480602002602001604051908101604052809291908181526020015f905b82821015610fb6578382905f5260205f2090600602016040518060c00160405290815f8201548152602001600182015f9054906101000a900473ffffffffffffffffffffffffffffffffffffffff1673ffffffffffffffffffffffffffffffffffffffff1673ffffffffffffffffffffffffffffffffffffffff16815260200160028201548152602001600382015481526020016004820154815260200160058201548152505081526020019060010190610f00565b50505050905090565b5f808481548110610fd357610fd2612ce9565b5b905f5260205f2090600902016001015f9054906101000a900473ffffffffffffffffffffffffffffffffffffffff1690506001805f8373ffffffffffffffffffffffffffffffffffffffff1673ffffffffffffffffffffffffffffffffffffffff1681526020019081526020015f20868154811061105457611053612ce9565b5b905f5260205f20906006020160050154146110a4576040517f08c379a000000000000000000000000000000000000000000000000000000000815260040161109b9061300b565b60405180910390fd5b5f8085815481106110b8576110b7612ce9565b5b905f5260205f2090600902016005015490505f8086815481106110de576110dd612ce9565b5b905f5260205f2090600902016003015490505f80878154811061110457611103612ce9565b5b905f5260205f2090600902016004015490508083836111239190612e64565b61112d9190612ea5565b341461116e576040517f08c379a000000000000000000000000000000000000000000000000000000000815260040161116590613073565b60405180910390fd5b5f600184603c89896111809190613091565b61118a91906130f1565b61119491906130f1565b61119e9190612ea5565b90505f603c856111ae9190612e64565b886111b99190612ea5565b90505f84866001856111cb9190613091565b6111d59190612e64565b6111df9190612e64565b90505f60035f3373ffffffffffffffffffffffffffffffffffffffff1673ffffffffffffffffffffffffffffffffffffffff1681526020019081526020015f2080549050905060035f3373ffffffffffffffffffffffffffffffffffffffff1673ffffffffffffffffffffffffffffffffffffffff1681526020019081526020015f206040518061012001604052808381526020013373ffffffffffffffffffffffffffffffffffffffff1681526020018d81526020018c81526020018b81526020018581526020015f81526020018481526020016001815250908060018154018082558091505060019003905f5260205f2090600902015f909190919091505f820151815f01556020820151816001015f6101000a81548173ffffffffffffffffffffffffffffffffffffffff021916908373ffffffffffffffffffffffffffffffffffffffff16021790555060408201518160020155606082015181600301556080820151816004015560a0820151816005015560c0820151816006015560e08201518160070155610100820151816008015550505f808c8154811061138a57611389612ce9565b5b905f5260205f209060090201600801819055505f8b815481106113b0576113af612ce9565b5b905f5260205f2090600902016001015f9054906101000a900473ffffffffffffffffffffffffffffffffffffffff1673ffffffffffffffffffffffffffffffffffffffff166108fc5f8d8154811061140b5761140a612ce9565b5b905f5260205f20906009020160040154346114269190613091565b90811502906040515f60405180830381858888f1935050505015801561144e573d5f803e3d5ffd5b507fb80f428704aea624db48e5fa450e946b9e04a896c332c3fb87ddb996f046958f81338a8e8e8e60405161148896959493929190613121565b60405180910390a1505050505050505050505050565b6001602052815f5260405f2081815481106114b7575f80fd5b905f5260205f2090600602015f9150915050805f015490806001015f9054906101000a900473ffffffffffffffffffffffffffffffffffffffff16908060020154908060030154908060040154908060050154905086565b5f818154811061151d575f80fd5b905f5260205f2090600902015f91509050805f015490806001015f9054906101000a900473ffffffffffffffffffffffffffffffffffffffff169080600201805461156790612a4d565b80601f016020809104026020016040519081016040528092919081815260200182805461159390612a4d565b80156115de5780601f106115b5576101008083540402835291602001916115de565b820191905f5260205f20905b8154815290600101906020018083116115c157829003601f168201915b5050505050908060030154908060040154908060050154908060060154908060070154908060080154905089565b60015f848154811061162157611620612ce9565b5b905f5260205f2090600902016008015414611671576040517f08c379a0000000000000000000000000000000000000000000000000000000008152600401611668906131ca565b60405180910390fd5b5f603c83836116809190613091565b61168a91906130f1565b9050805f85815481106116a05761169f612ce9565b5b905f5260205f209060090201600701541180156116de57505f84815481106116cb576116ca612ce9565b5b905f5260205f2090600902016006015481115b61171d576040517f08c379a000000000000000000000000000000000000000000000000000000000815260040161171490613232565b60405180910390fd5b5f80858154811061173157611730612ce9565b5b905f5260205f2090600902016001015f9054906101000a900473ffffffffffffffffffffffffffffffffffffffff1690505f60015f8373ffffffffffffffffffffffffffffffffffffffff1673ffffffffffffffffffffffffffffffffffffffff1681526020019081526020015f2080549050905060015f8373ffffffffffffffffffffffffffffffffffffffff1673ffffffffffffffffffffffffffffffffffffffff1681526020019081526020015f206040518060c001604052808381526020013373ffffffffffffffffffffffffffffffffffffffff1681526020018881526020018781526020018681526020015f815250908060018154018082558091505060019003905f5260205f2090600602015f909190919091505f820151815f01556020820151816001015f6101000a81548173ffffffffffffffffffffffffffffffffffffffff021916908373ffffffffffffffffffffffffffffffffffffffff16021790555060408201518160020155606082015181600301556080820151816004015560a0820151816005015550507f0c27e43af6588b65dccc4465720ef720b7cf45f5fba352df8607ae1cfea9089b33826040516118f5929190613250565b60405180910390a1505050505050565b60605f805480602002602001604051908101604052809291908181526020015f905b82821015611a82578382905f5260205f209060090201604051806101200160405290815f8201548152602001600182015f9054906101000a900473ffffffffffffffffffffffffffffffffffffffff1673ffffffffffffffffffffffffffffffffffffffff1673ffffffffffffffffffffffffffffffffffffffff1681526020016002820180546119b790612a4d565b80601f01602080910402602001604051908101604052809291908181526020018280546119e390612a4d565b8015611a2e5780601f10611a0557610100808354040283529160200191611a2e565b820191905f5260205f20905b815481529060010190602001808311611a1157829003601f168201915b50505050508152602001600382015481526020016004820154815260200160058201548152602001600682015481526020016007820154815260200160088201548152505081526020019060010190611927565b50505050905090565b5f60035f3373ffffffffffffffffffffffffffffffffffffffff1673ffffffffffffffffffffffffffffffffffffffff1681526020019081526020015f208281548110611adb57611ada612ce9565b5b905f5260205f2090600902016006015411611b2b576040517f08c379a0000000000000000000000000000000000000000000000000000000008152600401611b22906132e7565b60405180910390fd5b5f60035f3373ffffffffffffffffffffffffffffffffffffffff1673ffffffffffffffffffffffffffffffffffffffff1681526020019081526020015f208281548110611b7b57611b7a612ce9565b5b905f5260205f2090600902016002015490505f8181548110611ba057611b9f612ce9565b5b905f5260205f2090600902016001015f9054906101000a900473ffffffffffffffffffffffffffffffffffffffff1673ffffffffffffffffffffffffffffffffffffffff166108fc3490811502906040515f60405180830381858888f19350505050158015611c11573d5f803e3d5ffd5b503460035f3373ffffffffffffffffffffffffffffffffffffffff1673ffffffffffffffffffffffffffffffffffffffff1681526020019081526020015f208381548110611c6257611c61612ce9565b5b905f5260205f2090600902016006015f828254611c7f9190613091565b925050819055503460035f3373ffffffffffffffffffffffffffffffffffffffff1673ffffffffffffffffffffffffffffffffffffffff1681526020019081526020015f208381548110611cd657611cd5612ce9565b5b905f5260205f2090600902016007015f828254611cf39190613091565b925050819055507f63e55317e25c0cab3a2de23ee0e244496daea0c1c2b8e272bbc01722b96bb9ae823334604051611d2d93929190613305565b60405180910390a15f60035f3373ffffffffffffffffffffffffffffffffffffffff1673ffffffffffffffffffffffffffffffffffffffff1681526020019081526020015f208381548110611d8557611d84612ce9565b5b905f5260205f2090600902016007015403611e3a573373ffffffffffffffffffffffffffffffffffffffff166108fc5f8381548110611dc757611dc6612ce9565b5b905f5260205f2090600902016004015490811502906040515f60405180830381858888f19350505050158015611dff573d5f803e3d5ffd5b507fc8891cc8407e9bc09a78421bd234c3fd57d71a2cc5f1ac6d5602070add66d0dd8233604051611e31929190612e10565b60405180910390a15b5050565b6060611e49336105d5565b60035f3373ffffffffffffffffffffffffffffffffffffffff1673ffffffffffffffffffffffffffffffffffffffff1681526020019081526020015f20805480602002602001604051908101604052809291908181526020015f905b82821015611f7a578382905f5260205f209060090201604051806101200160405290815f8201548152602001600182015f9054906101000a900473ffffffffffffffffffffffffffffffffffffffff1673ffffffffffffffffffffffffffffffffffffffff1673ffffffffffffffffffffffffffffffffffffffff16815260200160028201548152602001600382015481526020016004820154815260200160058201548152602001600682015481526020016007820154815260200160088201548152505081526020019060010190611ea5565b50505050905090565b5f604051905090565b5f80fd5b5f80fd5b5f80fd5b5f80fd5b5f601f19601f8301169050919050565b7f4e487b71000000000000000000000000000000000000000000000000000000005f52604160045260245ffd5b611fe282611f9c565b810181811067ffffffffffffffff8211171561200157612000611fac565b5b80604052505050565b5f612013611f83565b905061201f8282611fd9565b919050565b5f67ffffffffffffffff82111561203e5761203d611fac565b5b61204782611f9c565b9050602081019050919050565b828183375f83830152505050565b5f61207461206f84612024565b61200a565b9050828152602081018484840111156120905761208f611f98565b5b61209b848285612054565b509392505050565b5f82601f8301126120b7576120b6611f94565b5b81356120c7848260208601612062565b91505092915050565b5f819050919050565b6120e2816120d0565b81146120ec575f80fd5b50565b5f813590506120fd816120d9565b92915050565b5f805f805f8060c0878903121561211d5761211c611f8c565b5b5f87013567ffffffffffffffff81111561213a57612139611f90565b5b61214689828a016120a3565b965050602061215789828a016120ef565b955050604061216889828a016120ef565b945050606061217989828a016120ef565b935050608061218a89828a016120ef565b92505060a061219b89828a016120ef565b9150509295509295509295565b5f73ffffffffffffffffffffffffffffffffffffffff82169050919050565b5f6121d1826121a8565b9050919050565b6121e1816121c7565b81146121eb575f80fd5b50565b5f813590506121fc816121d8565b92915050565b5f6020828403121561221757612216611f8c565b5b5f612224848285016121ee565b91505092915050565b5f806040838503121561224357612242611f8c565b5b5f612250858286016121ee565b9250506020612261858286016120ef565b9150509250929050565b612274816120d0565b82525050565b612283816121c7565b82525050565b5f81519050919050565b5f82825260208201905092915050565b5f5b838110156122c05780820151818401526020810190506122a5565b5f8484015250505050565b5f6122d582612289565b6122df8185612293565b93506122ef8185602086016122a3565b6122f881611f9c565b840191505092915050565b5f610120820190506123175f83018c61226b565b612324602083018b61227a565b8181036040830152612336818a6122cb565b9050612345606083018961226b565b612352608083018861226b565b61235f60a083018761226b565b61236c60c083018661226b565b61237960e083018561226b565b61238761010083018461226b565b9a9950505050505050505050565b5f602082840312156123aa576123a9611f8c565b5b5f6123b7848285016120ef565b91505092915050565b5f610120820190506123d45f83018c61226b565b6123e1602083018b61227a565b6123ee604083018a61226b565b6123fb606083018961226b565b612408608083018861226b565b61241560a083018761226b565b61242260c083018661226b565b61242f60e083018561226b565b61243d61010083018461226b565b9a9950505050505050505050565b5f81519050919050565b5f82825260208201905092915050565b5f819050602082019050919050565b61247d816120d0565b82525050565b61248c816121c7565b82525050565b60c082015f8201516124a65f850182612474565b5060208201516124b96020850182612483565b5060408201516124cc6040850182612474565b5060608201516124df6060850182612474565b5060808201516124f26080850182612474565b5060a082015161250560a0850182612474565b50505050565b5f6125168383612492565b60c08301905092915050565b5f602082019050919050565b5f6125388261244b565b6125428185612455565b935061254d83612465565b805f5b8381101561257d578151612564888261250b565b975061256f83612522565b925050600181019050612550565b5085935050505092915050565b5f6020820190508181035f8301526125a2818461252e565b905092915050565b5f805f80608085870312156125c2576125c1611f8c565b5b5f6125cf878288016120ef565b94505060206125e0878288016120ef565b93505060406125f1878288016120ef565b9250506060612602878288016120ef565b91505092959194509250565b5f60c0820190506126215f83018961226b565b61262e602083018861227a565b61263b604083018761226b565b612648606083018661226b565b612655608083018561226b565b61266260a083018461226b565b979650505050505050565b5f805f6060848603121561268457612683611f8c565b5b5f612691868287016120ef565b93505060206126a2868287016120ef565b92505060406126b3868287016120ef565b9150509250925092565b5f81519050919050565b5f82825260208201905092915050565b5f819050602082019050919050565b5f82825260208201905092915050565b5f61270082612289565b61270a81856126e6565b935061271a8185602086016122a3565b61272381611f9c565b840191505092915050565b5f61012083015f8301516127445f860182612474565b5060208301516127576020860182612483565b506040830151848203604086015261276f82826126f6565b91505060608301516127846060860182612474565b5060808301516127976080860182612474565b5060a08301516127aa60a0860182612474565b5060c08301516127bd60c0860182612474565b5060e08301516127d060e0860182612474565b506101008301516127e5610100860182612474565b508091505092915050565b5f6127fb838361272e565b905092915050565b5f602082019050919050565b5f612819826126bd565b61282381856126c7565b935083602082028501612835856126d7565b805f5b85811015612870578484038952815161285185826127f0565b945061285c83612803565b925060208a01995050600181019050612838565b50829750879550505050505092915050565b5f6020820190508181035f83015261289a818461280f565b905092915050565b5f81519050919050565b5f82825260208201905092915050565b5f819050602082019050919050565b61012082015f8201516128e05f850182612474565b5060208201516128f36020850182612483565b5060408201516129066040850182612474565b5060608201516129196060850182612474565b50608082015161292c6080850182612474565b5060a082015161293f60a0850182612474565b5060c082015161295260c0850182612474565b5060e082015161296560e0850182612474565b5061010082015161297a610100850182612474565b50505050565b5f61298b83836128cb565b6101208301905092915050565b5f602082019050919050565b5f6129ae826128a2565b6129b881856128ac565b93506129c3836128bc565b805f5b838110156129f35781516129da8882612980565b97506129e583612998565b9250506001810190506129c6565b5085935050505092915050565b5f6020820190508181035f830152612a1881846129a4565b905092915050565b7f4e487b71000000000000000000000000000000000000000000000000000000005f52602260045260245ffd5b5f6002820490506001821680612a6457607f821691505b602082108103612a7757612a76612a20565b5b50919050565b5f819050815f5260205f209050919050565b5f6020601f8301049050919050565b5f82821b905092915050565b5f60088302612ad97fffffffffffffffffffffffffffffffffffffffffffffffffffffffffffffffff82612a9e565b612ae38683612a9e565b95508019841693508086168417925050509392505050565b5f819050919050565b5f612b1e612b19612b14846120d0565b612afb565b6120d0565b9050919050565b5f819050919050565b612b3783612b04565b612b4b612b4382612b25565b848454612aaa565b825550505050565b5f90565b612b5f612b53565b612b6a818484612b2e565b505050565b5b81811015612b8d57612b825f82612b57565b600181019050612b70565b5050565b601f821115612bd257612ba381612a7d565b612bac84612a8f565b81016020851015612bbb578190505b612bcf612bc785612a8f565b830182612b6f565b50505b505050565b5f82821c905092915050565b5f612bf25f1984600802612bd7565b1980831691505092915050565b5f612c0a8383612be3565b9150826002028217905092915050565b612c2382612289565b67ffffffffffffffff811115612c3c57612c3b611fac565b5b612c468254612a4d565b612c51828285612b91565b5f60209050601f831160018114612c82575f8415612c70578287015190505b612c7a8582612bff565b865550612ce1565b601f198416612c9086612a7d565b5f5b82811015612cb757848901518255600182019150602085019450602081019050612c92565b86831015612cd45784890151612cd0601f891682612be3565b8355505b6001600288020188555050505b505050505050565b7f4e487b71000000000000000000000000000000000000000000000000000000005f52603260045260245ffd5b5f81549050612d2481612a4d565b9050919050565b818103612d39575050612e0e565b612d4282612d16565b67ffffffffffffffff811115612d5b57612d5a611fac565b5b612d658254612a4d565b612d70828285612b91565b5f601f831160018114612d9d575f8415612d8b578287015490505b612d958582612bff565b865550612e07565b601f198416612dab87612a7d565b9650612db686612a7d565b5f5b82811015612ddd57848901548255600182019150600185019450602081019050612db8565b86831015612dfa5784890154612df6601f891682612be3565b8355505b6001600288020188555050505b5050505050505b565b5f604082019050612e235f83018561226b565b612e30602083018461227a565b9392505050565b7f4e487b71000000000000000000000000000000000000000000000000000000005f52601160045260245ffd5b5f612e6e826120d0565b9150612e79836120d0565b9250828202612e87816120d0565b91508282048414831517612e9e57612e9d612e37565b5b5092915050565b5f612eaf826120d0565b9150612eba836120d0565b9250828201905080821115612ed257612ed1612e37565b5b92915050565b7f616e6f7468657220726571756573742068617320616c7265616479206265656e5f8201527f2061636365707465642100000000000000000000000000000000000000000000602082015250565b5f612f32602a83612293565b9150612f3d82612ed8565b604082019050919050565b5f6020820190508181035f830152612f5f81612f26565b9050919050565b5f606082019050612f795f83018661227a565b612f86602083018561227a565b612f93604083018461226b565b949350505050565b7f796f75722072657175657374206861736e2774206265656e20616363657074655f8201527f6400000000000000000000000000000000000000000000000000000000000000602082015250565b5f612ff5602183612293565b915061300082612f9b565b604082019050919050565b5f6020820190508181035f83015261302281612fe9565b9050919050565b7f496e636f7272656374207061796d656e742000000000000000000000000000005f82015250565b5f61305d601283612293565b915061306882613029565b602082019050919050565b5f6020820190508181035f83015261308a81613051565b9050919050565b5f61309b826120d0565b91506130a6836120d0565b92508282039050818111156130be576130bd612e37565b5b92915050565b7f4e487b71000000000000000000000000000000000000000000000000000000005f52601260045260245ffd5b5f6130fb826120d0565b9150613106836120d0565b925082613116576131156130c4565b5b828204905092915050565b5f60c0820190506131345f83018961226b565b613141602083018861227a565b61314e604083018761227a565b61315b606083018661226b565b613168608083018561226b565b61317560a083018461226b565b979650505050505050565b7f486f757365206973206e6f7420617661696c61626c65000000000000000000005f82015250565b5f6131b4601683612293565b91506131bf82613180565b602082019050919050565b5f6020820190508181035f8301526131e1816131a8565b9050919050565b7f77726f6e672072656e74616c20706572696f64000000000000000000000000005f82015250565b5f61321c601383612293565b9150613227826131e8565b602082019050919050565b5f6020820190508181035f83015261324981613210565b9050919050565b5f6040820190506132635f83018561227a565b613270602083018461226b565b9392505050565b7f596f7520646f6e2774206861766520616e20616d6f756e7420647565207965745f8201527f2100000000000000000000000000000000000000000000000000000000000000602082015250565b5f6132d1602183612293565b91506132dc82613277565b604082019050919050565b5f6020820190508181035f8301526132fe816132c5565b9050919050565b5f6060820190506133185f83018661226b565b613325602083018561227a565b613332604083018461226b565b94935050505056fea2646970667358221220e9e268ad006bef22e78f093c1e22cdb4d9f09dbc5c641b7cf90cf16631d5f50064736f6c63430008160033",
					"opcodes": "PUSH1 0x80 PUSH1 0x40 MSTORE CALLVALUE DUP1 ISZERO PUSH2 0xF JUMPI PUSH0 DUP1 REVERT JUMPDEST POP PUSH2 0x3370 DUP1 PUSH2 0x1D PUSH0 CODECOPY PUSH0 RETURN INVALID PUSH1 0x80 PUSH1 0x40 MSTORE PUSH1 0x4 CALLDATASIZE LT PUSH2 0xC1 JUMPI PUSH0 CALLDATALOAD PUSH1 0xE0 SHR DUP1 PUSH4 0x8F7D8E73 GT PUSH2 0x7E JUMPI DUP1 PUSH4 0xB5C3005C GT PUSH2 0x58 JUMPI DUP1 PUSH4 0xB5C3005C EQ PUSH2 0x290 JUMPI DUP1 PUSH4 0xD87DEEA8 EQ PUSH2 0x2B8 JUMPI DUP1 PUSH4 0xD9E8843F EQ PUSH2 0x2E2 JUMPI DUP1 PUSH4 0xDC388605 EQ PUSH2 0x2FE JUMPI PUSH2 0xC1 JUMP JUMPDEST DUP1 PUSH4 0x8F7D8E73 EQ PUSH2 0x1EF JUMPI DUP1 PUSH4 0x9ECEBE2A EQ PUSH2 0x20B JUMPI DUP1 PUSH4 0xAEDA852F EQ PUSH2 0x24C JUMPI PUSH2 0xC1 JUMP JUMPDEST DUP1 PUSH4 0x296DA249 EQ PUSH2 0xC5 JUMPI DUP1 PUSH4 0x337A8E3C EQ PUSH2 0xED JUMPI DUP1 PUSH4 0x39E110E1 EQ PUSH2 0x115 JUMPI DUP1 PUSH4 0x4BA1F098 EQ PUSH2 0x159 JUMPI DUP1 PUSH4 0x7607D62F EQ PUSH2 0x181 JUMPI DUP1 PUSH4 0x8813CE12 EQ PUSH2 0x1C5 JUMPI JUMPDEST PUSH0 DUP1 REVERT JUMPDEST CALLVALUE DUP1 ISZERO PUSH2 0xD0 JUMPI PUSH0 DUP1 REVERT JUMPDEST POP PUSH2 0xEB PUSH1 0x4 DUP1 CALLDATASIZE SUB DUP2 ADD SWAP1 PUSH2 0xE6 SWAP2 SWAP1 PUSH2 0x2103 JUMP JUMPDEST PUSH2 0x328 JUMP JUMPDEST STOP JUMPDEST CALLVALUE DUP1 ISZERO PUSH2 0xF8 JUMPI PUSH0 DUP1 REVERT JUMPDEST POP PUSH2 0x113 PUSH1 0x4 DUP1 CALLDATASIZE SUB DUP2 ADD SWAP1 PUSH2 0x10E SWAP2 SWAP1 PUSH2 0x2202 JUMP JUMPDEST PUSH2 0x5D5 JUMP JUMPDEST STOP JUMPDEST CALLVALUE DUP1 ISZERO PUSH2 0x120 JUMPI PUSH0 DUP1 REVERT JUMPDEST POP PUSH2 0x13B PUSH1 0x4 DUP1 CALLDATASIZE SUB DUP2 ADD SWAP1 PUSH2 0x136 SWAP2 SWAP1 PUSH2 0x222D JUMP JUMPDEST PUSH2 0xB03 JUMP JUMPDEST PUSH1 0x40 MLOAD PUSH2 0x150 SWAP10 SWAP9 SWAP8 SWAP7 SWAP6 SWAP5 SWAP4 SWAP3 SWAP2 SWAP1 PUSH2 0x2303 JUMP JUMPDEST PUSH1 0x40 MLOAD DUP1 SWAP2 SUB SWAP1 RETURN JUMPDEST CALLVALUE DUP1 ISZERO PUSH2 0x164 JUMPI PUSH0 DUP1 REVERT JUMPDEST POP PUSH2 0x17F PUSH1 0x4 DUP1 CALLDATASIZE SUB DUP2 ADD SWAP1 PUSH2 0x17A SWAP2 SWAP1 PUSH2 0x2395 JUMP JUMPDEST PUSH2 0xC0C JUMP JUMPDEST STOP JUMPDEST CALLVALUE DUP1 ISZERO PUSH2 0x18C JUMPI PUSH0 DUP1 REVERT JUMPDEST POP PUSH2 0x1A7 PUSH1 0x4 DUP1 CALLDATASIZE SUB DUP2 ADD SWAP1 PUSH2 0x1A2 SWAP2 SWAP1 PUSH2 0x222D JUMP JUMPDEST PUSH2 0xE1F JUMP JUMPDEST PUSH1 0x40 MLOAD PUSH2 0x1BC SWAP10 SWAP9 SWAP8 SWAP7 SWAP6 SWAP5 SWAP4 SWAP3 SWAP2 SWAP1 PUSH2 0x23C0 JUMP JUMPDEST PUSH1 0x40 MLOAD DUP1 SWAP2 SUB SWAP1 RETURN JUMPDEST CALLVALUE DUP1 ISZERO PUSH2 0x1D0 JUMPI PUSH0 DUP1 REVERT JUMPDEST POP PUSH2 0x1D9 PUSH2 0xEA2 JUMP JUMPDEST PUSH1 0x40 MLOAD PUSH2 0x1E6 SWAP2 SWAP1 PUSH2 0x258A JUMP JUMPDEST PUSH1 0x40 MLOAD DUP1 SWAP2 SUB SWAP1 RETURN JUMPDEST PUSH2 0x209 PUSH1 0x4 DUP1 CALLDATASIZE SUB DUP2 ADD SWAP1 PUSH2 0x204 SWAP2 SWAP1 PUSH2 0x25AA JUMP JUMPDEST PUSH2 0xFBF JUMP JUMPDEST STOP JUMPDEST CALLVALUE DUP1 ISZERO PUSH2 0x216 JUMPI PUSH0 DUP1 REVERT JUMPDEST POP PUSH2 0x231 PUSH1 0x4 DUP1 CALLDATASIZE SUB DUP2 ADD SWAP1 PUSH2 0x22C SWAP2 SWAP1 PUSH2 0x222D JUMP JUMPDEST PUSH2 0x149E JUMP JUMPDEST PUSH1 0x40 MLOAD PUSH2 0x243 SWAP7 SWAP6 SWAP5 SWAP4 SWAP3 SWAP2 SWAP1 PUSH2 0x260E JUMP JUMPDEST PUSH1 0x40 MLOAD DUP1 SWAP2 SUB SWAP1 RETURN JUMPDEST CALLVALUE DUP1 ISZERO PUSH2 0x257 JUMPI PUSH0 DUP1 REVERT JUMPDEST POP PUSH2 0x272 PUSH1 0x4 DUP1 CALLDATASIZE SUB DUP2 ADD SWAP1 PUSH2 0x26D SWAP2 SWAP1 PUSH2 0x2395 JUMP JUMPDEST PUSH2 0x150F JUMP JUMPDEST PUSH1 0x40 MLOAD PUSH2 0x287 SWAP10 SWAP9 SWAP8 SWAP7 SWAP6 SWAP5 SWAP4 SWAP3 SWAP2 SWAP1 PUSH2 0x2303 JUMP JUMPDEST PUSH1 0x40 MLOAD DUP1 SWAP2 SUB SWAP1 RETURN JUMPDEST CALLVALUE DUP1 ISZERO PUSH2 0x29B JUMPI PUSH0 DUP1 REVERT JUMPDEST POP PUSH2 0x2B6 PUSH1 0x4 DUP1 CALLDATASIZE SUB DUP2 ADD SWAP1 PUSH2 0x2B1 SWAP2 SWAP1 PUSH2 0x266D JUMP JUMPDEST PUSH2 0x160C JUMP JUMPDEST STOP JUMPDEST CALLVALUE DUP1 ISZERO PUSH2 0x2C3 JUMPI PUSH0 DUP1 REVERT JUMPDEST POP PUSH2 0x2CC PUSH2 0x1905 JUMP JUMPDEST PUSH1 0x40 MLOAD PUSH2 0x2D9 SWAP2 SWAP1 PUSH2 0x2882 JUMP JUMPDEST PUSH1 0x40 MLOAD DUP1 SWAP2 SUB SWAP1 RETURN JUMPDEST PUSH2 0x2FC PUSH1 0x4 DUP1 CALLDATASIZE SUB DUP2 ADD SWAP1 PUSH2 0x2F7 SWAP2 SWAP1 PUSH2 0x2395 JUMP JUMPDEST PUSH2 0x1A8B JUMP JUMPDEST STOP JUMPDEST CALLVALUE DUP1 ISZERO PUSH2 0x309 JUMPI PUSH0 DUP1 REVERT JUMPDEST POP PUSH2 0x312 PUSH2 0x1E3E JUMP JUMPDEST PUSH1 0x40 MLOAD PUSH2 0x31F SWAP2 SWAP1 PUSH2 0x2A00 JUMP JUMPDEST PUSH1 0x40 MLOAD DUP1 SWAP2 SUB SWAP1 RETURN JUMPDEST PUSH0 DUP1 DUP1 SLOAD SWAP1 POP SWAP1 POP PUSH0 PUSH1 0x40 MLOAD DUP1 PUSH2 0x120 ADD PUSH1 0x40 MSTORE DUP1 DUP4 DUP2 MSTORE PUSH1 0x20 ADD CALLER PUSH20 0xFFFFFFFFFFFFFFFFFFFFFFFFFFFFFFFFFFFFFFFF AND DUP2 MSTORE PUSH1 0x20 ADD DUP10 DUP2 MSTORE PUSH1 0x20 ADD DUP9 DUP2 MSTORE PUSH1 0x20 ADD DUP8 DUP2 MSTORE PUSH1 0x20 ADD DUP7 DUP2 MSTORE PUSH1 0x20 ADD DUP6 DUP2 MSTORE PUSH1 0x20 ADD DUP5 DUP2 MSTORE PUSH1 0x20 ADD PUSH1 0x1 DUP2 MSTORE POP SWAP1 DUP1 PUSH1 0x1 DUP2 SLOAD ADD DUP1 DUP3 SSTORE DUP1 SWAP2 POP POP PUSH1 0x1 SWAP1 SUB SWAP1 PUSH0 MSTORE PUSH1 0x20 PUSH0 KECCAK256 SWAP1 PUSH1 0x9 MUL ADD PUSH0 SWAP1 SWAP2 SWAP1 SWAP2 SWAP1 SWAP2 POP PUSH0 DUP3 ADD MLOAD DUP2 PUSH0 ADD SSTORE PUSH1 0x20 DUP3 ADD MLOAD DUP2 PUSH1 0x1 ADD PUSH0 PUSH2 0x100 EXP DUP2 SLOAD DUP2 PUSH20 0xFFFFFFFFFFFFFFFFFFFFFFFFFFFFFFFFFFFFFFFF MUL NOT AND SWAP1 DUP4 PUSH20 0xFFFFFFFFFFFFFFFFFFFFFFFFFFFFFFFFFFFFFFFF AND MUL OR SWAP1 SSTORE POP PUSH1 0x40 DUP3 ADD MLOAD DUP2 PUSH1 0x2 ADD SWAP1 DUP2 PUSH2 0x411 SWAP2 SWAP1 PUSH2 0x2C1A JUMP JUMPDEST POP PUSH1 0x60 DUP3 ADD MLOAD DUP2 PUSH1 0x3 ADD SSTORE PUSH1 0x80 DUP3 ADD MLOAD DUP2 PUSH1 0x4 ADD SSTORE PUSH1 0xA0 DUP3 ADD MLOAD DUP2 PUSH1 0x5 ADD SSTORE PUSH1 0xC0 DUP3 ADD MLOAD DUP2 PUSH1 0x6 ADD SSTORE PUSH1 0xE0 DUP3 ADD MLOAD DUP2 PUSH1 0x7 ADD SSTORE PUSH2 0x100 DUP3 ADD MLOAD DUP2 PUSH1 0x8 ADD SSTORE POP POP PUSH1 0x2 PUSH0 CALLER PUSH20 0xFFFFFFFFFFFFFFFFFFFFFFFFFFFFFFFFFFFFFFFF AND PUSH20 0xFFFFFFFFFFFFFFFFFFFFFFFFFFFFFFFFFFFFFFFF AND DUP2 MSTORE PUSH1 0x20 ADD SWAP1 DUP2 MSTORE PUSH1 0x20 ADD PUSH0 KECCAK256 PUSH0 DUP3 DUP2 SLOAD DUP2 LT PUSH2 0x4A1 JUMPI PUSH2 0x4A0 PUSH2 0x2CE9 JUMP JUMPDEST JUMPDEST SWAP1 PUSH0 MSTORE PUSH1 0x20 PUSH0 KECCAK256 SWAP1 PUSH1 0x9 MUL ADD SWAP1 DUP1 PUSH1 0x1 DUP2 SLOAD ADD DUP1 DUP3 SSTORE DUP1 SWAP2 POP POP PUSH1 0x1 SWAP1 SUB SWAP1 PUSH0 MSTORE PUSH1 0x20 PUSH0 KECCAK256 SWAP1 PUSH1 0x9 MUL ADD PUSH0 SWAP1 SWAP2 SWAP1 SWAP2 SWAP1 SWAP2 POP PUSH0 DUP3 ADD SLOAD DUP2 PUSH0 ADD SSTORE PUSH1 0x1 DUP3 ADD PUSH0 SWAP1 SLOAD SWAP1 PUSH2 0x100 EXP SWAP1 DIV PUSH20 0xFFFFFFFFFFFFFFFFFFFFFFFFFFFFFFFFFFFFFFFF AND DUP2 PUSH1 0x1 ADD PUSH0 PUSH2 0x100 EXP DUP2 SLOAD DUP2 PUSH20 0xFFFFFFFFFFFFFFFFFFFFFFFFFFFFFFFFFFFFFFFF MUL NOT AND SWAP1 DUP4 PUSH20 0xFFFFFFFFFFFFFFFFFFFFFFFFFFFFFFFFFFFFFFFF AND MUL OR SWAP1 SSTORE POP PUSH1 0x2 DUP3 ADD DUP2 PUSH1 0x2 ADD SWAP1 DUP2 PUSH2 0x554 SWAP2 SWAP1 PUSH2 0x2D2B JUMP JUMPDEST POP PUSH1 0x3 DUP3 ADD SLOAD DUP2 PUSH1 0x3 ADD SSTORE PUSH1 0x4 DUP3 ADD SLOAD DUP2 PUSH1 0x4 ADD SSTORE PUSH1 0x5 DUP3 ADD SLOAD DUP2 PUSH1 0x5 ADD SSTORE PUSH1 0x6 DUP3 ADD SLOAD DUP2 PUSH1 0x6 ADD SSTORE PUSH1 0x7 DUP3 ADD SLOAD DUP2 PUSH1 0x7 ADD SSTORE PUSH1 0x8 DUP3 ADD SLOAD DUP2 PUSH1 0x8 ADD SSTORE POP POP PUSH32 0x940AAEB497467FB446EC8C9138170D69447F46ABDA147045EF232EBF4515229F DUP2 CALLER PUSH1 0x40 MLOAD PUSH2 0x5C4 SWAP3 SWAP2 SWAP1 PUSH2 0x2E10 JUMP JUMPDEST PUSH1 0x40 MLOAD DUP1 SWAP2 SUB SWAP1 LOG1 POP POP POP POP POP POP POP JUMP JUMPDEST PUSH0 TIMESTAMP SWAP1 POP PUSH0 JUMPDEST PUSH1 0x3 PUSH0 DUP5 PUSH20 0xFFFFFFFFFFFFFFFFFFFFFFFFFFFFFFFFFFFFFFFF AND PUSH20 0xFFFFFFFFFFFFFFFFFFFFFFFFFFFFFFFFFFFFFFFF AND DUP2 MSTORE PUSH1 0x20 ADD SWAP1 DUP2 MSTORE PUSH1 0x20 ADD PUSH0 KECCAK256 DUP1 SLOAD SWAP1 POP DUP2 LT ISZERO PUSH2 0xAFE JUMPI PUSH1 0x1 PUSH1 0x3 PUSH0 DUP6 PUSH20 0xFFFFFFFFFFFFFFFFFFFFFFFFFFFFFFFFFFFFFFFF AND PUSH20 0xFFFFFFFFFFFFFFFFFFFFFFFFFFFFFFFFFFFFFFFF AND DUP2 MSTORE PUSH1 0x20 ADD SWAP1 DUP2 MSTORE PUSH1 0x20 ADD PUSH0 KECCAK256 DUP3 DUP2 SLOAD DUP2 LT PUSH2 0x674 JUMPI PUSH2 0x673 PUSH2 0x2CE9 JUMP JUMPDEST JUMPDEST SWAP1 PUSH0 MSTORE PUSH1 0x20 PUSH0 KECCAK256 SWAP1 PUSH1 0x9 MUL ADD PUSH1 0x8 ADD SLOAD SUB PUSH2 0xAF1 JUMPI PUSH0 PUSH1 0x3 PUSH0 DUP6 PUSH20 0xFFFFFFFFFFFFFFFFFFFFFFFFFFFFFFFFFFFFFFFF AND PUSH20 0xFFFFFFFFFFFFFFFFFFFFFFFFFFFFFFFFFFFFFFFF AND DUP2 MSTORE PUSH1 0x20 ADD SWAP1 DUP2 MSTORE PUSH1 0x20 ADD PUSH0 KECCAK256 DUP3 DUP2 SLOAD DUP2 LT PUSH2 0x6D9 JUMPI PUSH2 0x6D8 PUSH2 0x2CE9 JUMP JUMPDEST JUMPDEST SWAP1 PUSH0 MSTORE PUSH1 0x20 PUSH0 KECCAK256 SWAP1 PUSH1 0x9 MUL ADD PUSH1 0x5 ADD SLOAD SWAP1 POP JUMPDEST DUP1 DUP4 GT ISZERO PUSH2 0xAEF JUMPI PUSH0 PUSH1 0x3 PUSH0 DUP7 PUSH20 0xFFFFFFFFFFFFFFFFFFFFFFFFFFFFFFFFFFFFFFFF AND PUSH20 0xFFFFFFFFFFFFFFFFFFFFFFFFFFFFFFFFFFFFFFFF AND DUP2 MSTORE PUSH1 0x20 ADD SWAP1 DUP2 MSTORE PUSH1 0x20 ADD PUSH0 KECCAK256 DUP4 DUP2 SLOAD DUP2 LT PUSH2 0x744 JUMPI PUSH2 0x743 PUSH2 0x2CE9 JUMP JUMPDEST JUMPDEST SWAP1 PUSH0 MSTORE PUSH1 0x20 PUSH0 KECCAK256 SWAP1 PUSH1 0x9 MUL ADD PUSH1 0x40 MLOAD DUP1 PUSH2 0x120 ADD PUSH1 0x40 MSTORE SWAP1 DUP2 PUSH0 DUP3 ADD SLOAD DUP2 MSTORE PUSH1 0x20 ADD PUSH1 0x1 DUP3 ADD PUSH0 SWAP1 SLOAD SWAP1 PUSH2 0x100 EXP SWAP1 DIV PUSH20 0xFFFFFFFFFFFFFFFFFFFFFFFFFFFFFFFFFFFFFFFF AND PUSH20 0xFFFFFFFFFFFFFFFFFFFFFFFFFFFFFFFFFFFFFFFF AND PUSH20 0xFFFFFFFFFFFFFFFFFFFFFFFFFFFFFFFFFFFFFFFF AND DUP2 MSTORE PUSH1 0x20 ADD PUSH1 0x2 DUP3 ADD SLOAD DUP2 MSTORE PUSH1 0x20 ADD PUSH1 0x3 DUP3 ADD SLOAD DUP2 MSTORE PUSH1 0x20 ADD PUSH1 0x4 DUP3 ADD SLOAD DUP2 MSTORE PUSH1 0x20 ADD PUSH1 0x5 DUP3 ADD SLOAD DUP2 MSTORE PUSH1 0x20 ADD PUSH1 0x6 DUP3 ADD SLOAD DUP2 MSTORE PUSH1 0x20 ADD PUSH1 0x7 DUP3 ADD SLOAD DUP2 MSTORE PUSH1 0x20 ADD PUSH1 0x8 DUP3 ADD SLOAD DUP2 MSTORE POP POP SWAP1 POP PUSH0 DUP2 PUSH1 0x40 ADD MLOAD SWAP1 POP PUSH0 DUP1 DUP3 DUP2 SLOAD DUP2 LT PUSH2 0x81E JUMPI PUSH2 0x81D PUSH2 0x2CE9 JUMP JUMPDEST JUMPDEST SWAP1 PUSH0 MSTORE PUSH1 0x20 PUSH0 KECCAK256 SWAP1 PUSH1 0x9 MUL ADD PUSH1 0x5 ADD SLOAD SWAP1 POP PUSH0 DUP1 DUP4 DUP2 SLOAD DUP2 LT PUSH2 0x844 JUMPI PUSH2 0x843 PUSH2 0x2CE9 JUMP JUMPDEST JUMPDEST SWAP1 PUSH0 MSTORE PUSH1 0x20 PUSH0 KECCAK256 SWAP1 PUSH1 0x9 MUL ADD PUSH1 0x3 ADD SLOAD SWAP1 POP PUSH1 0x3C DUP3 PUSH2 0x863 SWAP2 SWAP1 PUSH2 0x2E64 JUMP JUMPDEST PUSH1 0x3 PUSH0 DUP11 PUSH20 0xFFFFFFFFFFFFFFFFFFFFFFFFFFFFFFFFFFFFFFFF AND PUSH20 0xFFFFFFFFFFFFFFFFFFFFFFFFFFFFFFFFFFFFFFFF AND DUP2 MSTORE PUSH1 0x20 ADD SWAP1 DUP2 MSTORE PUSH1 0x20 ADD PUSH0 KECCAK256 DUP8 DUP2 SLOAD DUP2 LT PUSH2 0x8B2 JUMPI PUSH2 0x8B1 PUSH2 0x2CE9 JUMP JUMPDEST JUMPDEST SWAP1 PUSH0 MSTORE PUSH1 0x20 PUSH0 KECCAK256 SWAP1 PUSH1 0x9 MUL ADD PUSH1 0x5 ADD PUSH0 DUP3 DUP3 SLOAD PUSH2 0x8CF SWAP2 SWAP1 PUSH2 0x2EA5 JUMP JUMPDEST SWAP3 POP POP DUP2 SWAP1 SSTORE POP DUP1 DUP3 PUSH2 0x8E2 SWAP2 SWAP1 PUSH2 0x2E64 JUMP JUMPDEST PUSH1 0x3 PUSH0 DUP11 PUSH20 0xFFFFFFFFFFFFFFFFFFFFFFFFFFFFFFFFFFFFFFFF AND PUSH20 0xFFFFFFFFFFFFFFFFFFFFFFFFFFFFFFFFFFFFFFFF AND DUP2 MSTORE PUSH1 0x20 ADD SWAP1 DUP2 MSTORE PUSH1 0x20 ADD PUSH0 KECCAK256 DUP8 DUP2 SLOAD DUP2 LT PUSH2 0x931 JUMPI PUSH2 0x930 PUSH2 0x2CE9 JUMP JUMPDEST JUMPDEST SWAP1 PUSH0 MSTORE PUSH1 0x20 PUSH0 KECCAK256 SWAP1 PUSH1 0x9 MUL ADD PUSH1 0x6 ADD PUSH0 DUP3 DUP3 SLOAD PUSH2 0x94E SWAP2 SWAP1 PUSH2 0x2EA5 JUMP JUMPDEST SWAP3 POP POP DUP2 SWAP1 SSTORE POP PUSH1 0x3 PUSH0 DUP10 PUSH20 0xFFFFFFFFFFFFFFFFFFFFFFFFFFFFFFFFFFFFFFFF AND PUSH20 0xFFFFFFFFFFFFFFFFFFFFFFFFFFFFFFFFFFFFFFFF AND DUP2 MSTORE PUSH1 0x20 ADD SWAP1 DUP2 MSTORE PUSH1 0x20 ADD PUSH0 KECCAK256 DUP7 DUP2 SLOAD DUP2 LT PUSH2 0x9A4 JUMPI PUSH2 0x9A3 PUSH2 0x2CE9 JUMP JUMPDEST JUMPDEST SWAP1 PUSH0 MSTORE PUSH1 0x20 PUSH0 KECCAK256 SWAP1 PUSH1 0x9 MUL ADD PUSH1 0x4 ADD SLOAD PUSH1 0x3 PUSH0 DUP11 PUSH20 0xFFFFFFFFFFFFFFFFFFFFFFFFFFFFFFFFFFFFFFFF AND PUSH20 0xFFFFFFFFFFFFFFFFFFFFFFFFFFFFFFFFFFFFFFFF AND DUP2 MSTORE PUSH1 0x20 ADD SWAP1 DUP2 MSTORE PUSH1 0x20 ADD PUSH0 KECCAK256 DUP8 DUP2 SLOAD DUP2 LT PUSH2 0xA03 JUMPI PUSH2 0xA02 PUSH2 0x2CE9 JUMP JUMPDEST JUMPDEST SWAP1 PUSH0 MSTORE PUSH1 0x20 PUSH0 KECCAK256 SWAP1 PUSH1 0x9 MUL ADD PUSH1 0x5 ADD SLOAD GT ISZERO PUSH2 0xA85 JUMPI PUSH0 PUSH1 0x3 PUSH0 DUP11 PUSH20 0xFFFFFFFFFFFFFFFFFFFFFFFFFFFFFFFFFFFFFFFF AND PUSH20 0xFFFFFFFFFFFFFFFFFFFFFFFFFFFFFFFFFFFFFFFF AND DUP2 MSTORE PUSH1 0x20 ADD SWAP1 DUP2 MSTORE PUSH1 0x20 ADD PUSH0 KECCAK256 DUP8 DUP2 SLOAD DUP2 LT PUSH2 0xA69 JUMPI PUSH2 0xA68 PUSH2 0x2CE9 JUMP JUMPDEST JUMPDEST SWAP1 PUSH0 MSTORE PUSH1 0x20 PUSH0 KECCAK256 SWAP1 PUSH1 0x9 MUL ADD PUSH1 0x8 ADD DUP2 SWAP1 SSTORE POP POP POP POP POP PUSH2 0xAEF JUMP JUMPDEST PUSH1 0x3 PUSH0 DUP10 PUSH20 0xFFFFFFFFFFFFFFFFFFFFFFFFFFFFFFFFFFFFFFFF AND PUSH20 0xFFFFFFFFFFFFFFFFFFFFFFFFFFFFFFFFFFFFFFFF AND DUP2 MSTORE PUSH1 0x20 ADD SWAP1 DUP2 MSTORE PUSH1 0x20 ADD PUSH0 KECCAK256 DUP7 DUP2 SLOAD DUP2 LT PUSH2 0xAD4 JUMPI PUSH2 0xAD3 PUSH2 0x2CE9 JUMP JUMPDEST JUMPDEST SWAP1 PUSH0 MSTORE PUSH1 0x20 PUSH0 KECCAK256 SWAP1 PUSH1 0x9 MUL ADD PUSH1 0x5 ADD SLOAD SWAP5 POP POP POP POP POP PUSH2 0x6EC JUMP JUMPDEST POP JUMPDEST DUP1 DUP1 PUSH1 0x1 ADD SWAP2 POP POP PUSH2 0x5DB JUMP JUMPDEST POP POP POP JUMP JUMPDEST PUSH1 0x2 PUSH1 0x20 MSTORE DUP2 PUSH0 MSTORE PUSH1 0x40 PUSH0 KECCAK256 DUP2 DUP2 SLOAD DUP2 LT PUSH2 0xB1C JUMPI PUSH0 DUP1 REVERT JUMPDEST SWAP1 PUSH0 MSTORE PUSH1 0x20 PUSH0 KECCAK256 SWAP1 PUSH1 0x9 MUL ADD PUSH0 SWAP2 POP SWAP2 POP POP DUP1 PUSH0 ADD SLOAD SWAP1 DUP1 PUSH1 0x1 ADD PUSH0 SWAP1 SLOAD SWAP1 PUSH2 0x100 EXP SWAP1 DIV PUSH20 0xFFFFFFFFFFFFFFFFFFFFFFFFFFFFFFFFFFFFFFFF AND SWAP1 DUP1 PUSH1 0x2 ADD DUP1 SLOAD PUSH2 0xB67 SWAP1 PUSH2 0x2A4D JUMP JUMPDEST DUP1 PUSH1 0x1F ADD PUSH1 0x20 DUP1 SWAP2 DIV MUL PUSH1 0x20 ADD PUSH1 0x40 MLOAD SWAP1 DUP2 ADD PUSH1 0x40 MSTORE DUP1 SWAP3 SWAP2 SWAP1 DUP2 DUP2 MSTORE PUSH1 0x20 ADD DUP3 DUP1 SLOAD PUSH2 0xB93 SWAP1 PUSH2 0x2A4D JUMP JUMPDEST DUP1 ISZERO PUSH2 0xBDE JUMPI DUP1 PUSH1 0x1F LT PUSH2 0xBB5 JUMPI PUSH2 0x100 DUP1 DUP4 SLOAD DIV MUL DUP4 MSTORE SWAP2 PUSH1 0x20 ADD SWAP2 PUSH2 0xBDE JUMP JUMPDEST DUP3 ADD SWAP2 SWAP1 PUSH0 MSTORE PUSH1 0x20 PUSH0 KECCAK256 SWAP1 JUMPDEST DUP2 SLOAD DUP2 MSTORE SWAP1 PUSH1 0x1 ADD SWAP1 PUSH1 0x20 ADD DUP1 DUP4 GT PUSH2 0xBC1 JUMPI DUP3 SWAP1 SUB PUSH1 0x1F AND DUP3 ADD SWAP2 JUMPDEST POP POP POP POP POP SWAP1 DUP1 PUSH1 0x3 ADD SLOAD SWAP1 DUP1 PUSH1 0x4 ADD SLOAD SWAP1 DUP1 PUSH1 0x5 ADD SLOAD SWAP1 DUP1 PUSH1 0x6 ADD SLOAD SWAP1 DUP1 PUSH1 0x7 ADD SLOAD SWAP1 DUP1 PUSH1 0x8 ADD SLOAD SWAP1 POP DUP10 JUMP JUMPDEST PUSH0 PUSH1 0x1 PUSH0 CALLER PUSH20 0xFFFFFFFFFFFFFFFFFFFFFFFFFFFFFFFFFFFFFFFF AND PUSH20 0xFFFFFFFFFFFFFFFFFFFFFFFFFFFFFFFFFFFFFFFF AND DUP2 MSTORE PUSH1 0x20 ADD SWAP1 DUP2 MSTORE PUSH1 0x20 ADD PUSH0 KECCAK256 DUP3 DUP2 SLOAD DUP2 LT PUSH2 0xC5C JUMPI PUSH2 0xC5B PUSH2 0x2CE9 JUMP JUMPDEST JUMPDEST SWAP1 PUSH0 MSTORE PUSH1 0x20 PUSH0 KECCAK256 SWAP1 PUSH1 0x6 MUL ADD PUSH1 0x2 ADD SLOAD SWAP1 POP PUSH1 0x1 PUSH0 DUP3 DUP2 SLOAD DUP2 LT PUSH2 0xC83 JUMPI PUSH2 0xC82 PUSH2 0x2CE9 JUMP JUMPDEST JUMPDEST SWAP1 PUSH0 MSTORE PUSH1 0x20 PUSH0 KECCAK256 SWAP1 PUSH1 0x9 MUL ADD PUSH1 0x8 ADD SLOAD EQ PUSH2 0xCD3 JUMPI PUSH1 0x40 MLOAD PUSH32 0x8C379A000000000000000000000000000000000000000000000000000000000 DUP2 MSTORE PUSH1 0x4 ADD PUSH2 0xCCA SWAP1 PUSH2 0x2F48 JUMP JUMPDEST PUSH1 0x40 MLOAD DUP1 SWAP2 SUB SWAP1 REVERT JUMPDEST PUSH0 PUSH1 0x1 PUSH0 CALLER PUSH20 0xFFFFFFFFFFFFFFFFFFFFFFFFFFFFFFFFFFFFFFFF AND PUSH20 0xFFFFFFFFFFFFFFFFFFFFFFFFFFFFFFFFFFFFFFFF AND DUP2 MSTORE PUSH1 0x20 ADD SWAP1 DUP2 MSTORE PUSH1 0x20 ADD PUSH0 KECCAK256 DUP4 DUP2 SLOAD DUP2 LT PUSH2 0xD23 JUMPI PUSH2 0xD22 PUSH2 0x2CE9 JUMP JUMPDEST JUMPDEST SWAP1 PUSH0 MSTORE PUSH1 0x20 PUSH0 KECCAK256 SWAP1 PUSH1 0x6 MUL ADD PUSH1 0x1 ADD PUSH0 SWAP1 SLOAD SWAP1 PUSH2 0x100 EXP SWAP1 DIV PUSH20 0xFFFFFFFFFFFFFFFFFFFFFFFFFFFFFFFFFFFFFFFF AND SWAP1 POP PUSH1 0x1 DUP1 PUSH0 CALLER PUSH20 0xFFFFFFFFFFFFFFFFFFFFFFFFFFFFFFFFFFFFFFFF AND PUSH20 0xFFFFFFFFFFFFFFFFFFFFFFFFFFFFFFFFFFFFFFFF AND DUP2 MSTORE PUSH1 0x20 ADD SWAP1 DUP2 MSTORE PUSH1 0x20 ADD PUSH0 KECCAK256 DUP5 DUP2 SLOAD DUP2 LT PUSH2 0xDA4 JUMPI PUSH2 0xDA3 PUSH2 0x2CE9 JUMP JUMPDEST JUMPDEST SWAP1 PUSH0 MSTORE PUSH1 0x20 PUSH0 KECCAK256 SWAP1 PUSH1 0x6 MUL ADD PUSH1 0x5 ADD DUP2 SWAP1 SSTORE POP PUSH1 0x2 PUSH0 DUP4 DUP2 SLOAD DUP2 LT PUSH2 0xDCC JUMPI PUSH2 0xDCB PUSH2 0x2CE9 JUMP JUMPDEST JUMPDEST SWAP1 PUSH0 MSTORE PUSH1 0x20 PUSH0 KECCAK256 SWAP1 PUSH1 0x9 MUL ADD PUSH1 0x8 ADD DUP2 SWAP1 SSTORE POP PUSH32 0xD0E9A8BD0419492FF92821E0C185C3727B503F71880830C1122A578619AF8E75 CALLER DUP3 DUP5 PUSH1 0x40 MLOAD PUSH2 0xE12 SWAP4 SWAP3 SWAP2 SWAP1 PUSH2 0x2F66 JUMP JUMPDEST PUSH1 0x40 MLOAD DUP1 SWAP2 SUB SWAP1 LOG1 POP POP POP JUMP JUMPDEST PUSH1 0x3 PUSH1 0x20 MSTORE DUP2 PUSH0 MSTORE PUSH1 0x40 PUSH0 KECCAK256 DUP2 DUP2 SLOAD DUP2 LT PUSH2 0xE38 JUMPI PUSH0 DUP1 REVERT JUMPDEST SWAP1 PUSH0 MSTORE PUSH1 0x20 PUSH0 KECCAK256 SWAP1 PUSH1 0x9 MUL ADD PUSH0 SWAP2 POP SWAP2 POP POP DUP1 PUSH0 ADD SLOAD SWAP1 DUP1 PUSH1 0x1 ADD PUSH0 SWAP1 SLOAD SWAP1 PUSH2 0x100 EXP SWAP1 DIV PUSH20 0xFFFFFFFFFFFFFFFFFFFFFFFFFFFFFFFFFFFFFFFF AND SWAP1 DUP1 PUSH1 0x2 ADD SLOAD SWAP1 DUP1 PUSH1 0x3 ADD SLOAD SWAP1 DUP1 PUSH1 0x4 ADD SLOAD SWAP1 DUP1 PUSH1 0x5 ADD SLOAD SWAP1 DUP1 PUSH1 0x6 ADD SLOAD SWAP1 DUP1 PUSH1 0x7 ADD SLOAD SWAP1 DUP1 PUSH1 0x8 ADD SLOAD SWAP1 POP DUP10 JUMP JUMPDEST PUSH1 0x60 PUSH1 0x1 PUSH0 CALLER PUSH20 0xFFFFFFFFFFFFFFFFFFFFFFFFFFFFFFFFFFFFFFFF AND PUSH20 0xFFFFFFFFFFFFFFFFFFFFFFFFFFFFFFFFFFFFFFFF AND DUP2 MSTORE PUSH1 0x20 ADD SWAP1 DUP2 MSTORE PUSH1 0x20 ADD PUSH0 KECCAK256 DUP1 SLOAD DUP1 PUSH1 0x20 MUL PUSH1 0x20 ADD PUSH1 0x40 MLOAD SWAP1 DUP2 ADD PUSH1 0x40 MSTORE DUP1 SWAP3 SWAP2 SWAP1 DUP2 DUP2 MSTORE PUSH1 0x20 ADD PUSH0 SWAP1 JUMPDEST DUP3 DUP3 LT ISZERO PUSH2 0xFB6 JUMPI DUP4 DUP3 SWAP1 PUSH0 MSTORE PUSH1 0x20 PUSH0 KECCAK256 SWAP1 PUSH1 0x6 MUL ADD PUSH1 0x40 MLOAD DUP1 PUSH1 0xC0 ADD PUSH1 0x40 MSTORE SWAP1 DUP2 PUSH0 DUP3 ADD SLOAD DUP2 MSTORE PUSH1 0x20 ADD PUSH1 0x1 DUP3 ADD PUSH0 SWAP1 SLOAD SWAP1 PUSH2 0x100 EXP SWAP1 DIV PUSH20 0xFFFFFFFFFFFFFFFFFFFFFFFFFFFFFFFFFFFFFFFF AND PUSH20 0xFFFFFFFFFFFFFFFFFFFFFFFFFFFFFFFFFFFFFFFF AND PUSH20 0xFFFFFFFFFFFFFFFFFFFFFFFFFFFFFFFFFFFFFFFF AND DUP2 MSTORE PUSH1 0x20 ADD PUSH1 0x2 DUP3 ADD SLOAD DUP2 MSTORE PUSH1 0x20 ADD PUSH1 0x3 DUP3 ADD SLOAD DUP2 MSTORE PUSH1 0x20 ADD PUSH1 0x4 DUP3 ADD SLOAD DUP2 MSTORE PUSH1 0x20 ADD PUSH1 0x5 DUP3 ADD SLOAD DUP2 MSTORE POP POP DUP2 MSTORE PUSH1 0x20 ADD SWAP1 PUSH1 0x1 ADD SWAP1 PUSH2 0xF00 JUMP JUMPDEST POP POP POP POP SWAP1 POP SWAP1 JUMP JUMPDEST PUSH0 DUP1 DUP5 DUP2 SLOAD DUP2 LT PUSH2 0xFD3 JUMPI PUSH2 0xFD2 PUSH2 0x2CE9 JUMP JUMPDEST JUMPDEST SWAP1 PUSH0 MSTORE PUSH1 0x20 PUSH0 KECCAK256 SWAP1 PUSH1 0x9 MUL ADD PUSH1 0x1 ADD PUSH0 SWAP1 SLOAD SWAP1 PUSH2 0x100 EXP SWAP1 DIV PUSH20 0xFFFFFFFFFFFFFFFFFFFFFFFFFFFFFFFFFFFFFFFF AND SWAP1 POP PUSH1 0x1 DUP1 PUSH0 DUP4 PUSH20 0xFFFFFFFFFFFFFFFFFFFFFFFFFFFFFFFFFFFFFFFF AND PUSH20 0xFFFFFFFFFFFFFFFFFFFFFFFFFFFFFFFFFFFFFFFF AND DUP2 MSTORE PUSH1 0x20 ADD SWAP1 DUP2 MSTORE PUSH1 0x20 ADD PUSH0 KECCAK256 DUP7 DUP2 SLOAD DUP2 LT PUSH2 0x1054 JUMPI PUSH2 0x1053 PUSH2 0x2CE9 JUMP JUMPDEST JUMPDEST SWAP1 PUSH0 MSTORE PUSH1 0x20 PUSH0 KECCAK256 SWAP1 PUSH1 0x6 MUL ADD PUSH1 0x5 ADD SLOAD EQ PUSH2 0x10A4 JUMPI PUSH1 0x40 MLOAD PUSH32 0x8C379A000000000000000000000000000000000000000000000000000000000 DUP2 MSTORE PUSH1 0x4 ADD PUSH2 0x109B SWAP1 PUSH2 0x300B JUMP JUMPDEST PUSH1 0x40 MLOAD DUP1 SWAP2 SUB SWAP1 REVERT JUMPDEST PUSH0 DUP1 DUP6 DUP2 SLOAD DUP2 LT PUSH2 0x10B8 JUMPI PUSH2 0x10B7 PUSH2 0x2CE9 JUMP JUMPDEST JUMPDEST SWAP1 PUSH0 MSTORE PUSH1 0x20 PUSH0 KECCAK256 SWAP1 PUSH1 0x9 MUL ADD PUSH1 0x5 ADD SLOAD SWAP1 POP PUSH0 DUP1 DUP7 DUP2 SLOAD DUP2 LT PUSH2 0x10DE JUMPI PUSH2 0x10DD PUSH2 0x2CE9 JUMP JUMPDEST JUMPDEST SWAP1 PUSH0 MSTORE PUSH1 0x20 PUSH0 KECCAK256 SWAP1 PUSH1 0x9 MUL ADD PUSH1 0x3 ADD SLOAD SWAP1 POP PUSH0 DUP1 DUP8 DUP2 SLOAD DUP2 LT PUSH2 0x1104 JUMPI PUSH2 0x1103 PUSH2 0x2CE9 JUMP JUMPDEST JUMPDEST SWAP1 PUSH0 MSTORE PUSH1 0x20 PUSH0 KECCAK256 SWAP1 PUSH1 0x9 MUL ADD PUSH1 0x4 ADD SLOAD SWAP1 POP DUP1 DUP4 DUP4 PUSH2 0x1123 SWAP2 SWAP1 PUSH2 0x2E64 JUMP JUMPDEST PUSH2 0x112D SWAP2 SWAP1 PUSH2 0x2EA5 JUMP JUMPDEST CALLVALUE EQ PUSH2 0x116E JUMPI PUSH1 0x40 MLOAD PUSH32 0x8C379A000000000000000000000000000000000000000000000000000000000 DUP2 MSTORE PUSH1 0x4 ADD PUSH2 0x1165 SWAP1 PUSH2 0x3073 JUMP JUMPDEST PUSH1 0x40 MLOAD DUP1 SWAP2 SUB SWAP1 REVERT JUMPDEST PUSH0 PUSH1 0x1 DUP5 PUSH1 0x3C DUP10 DUP10 PUSH2 0x1180 SWAP2 SWAP1 PUSH2 0x3091 JUMP JUMPDEST PUSH2 0x118A SWAP2 SWAP1 PUSH2 0x30F1 JUMP JUMPDEST PUSH2 0x1194 SWAP2 SWAP1 PUSH2 0x30F1 JUMP JUMPDEST PUSH2 0x119E SWAP2 SWAP1 PUSH2 0x2EA5 JUMP JUMPDEST SWAP1 POP PUSH0 PUSH1 0x3C DUP6 PUSH2 0x11AE SWAP2 SWAP1 PUSH2 0x2E64 JUMP JUMPDEST DUP9 PUSH2 0x11B9 SWAP2 SWAP1 PUSH2 0x2EA5 JUMP JUMPDEST SWAP1 POP PUSH0 DUP5 DUP7 PUSH1 0x1 DUP6 PUSH2 0x11CB SWAP2 SWAP1 PUSH2 0x3091 JUMP JUMPDEST PUSH2 0x11D5 SWAP2 SWAP1 PUSH2 0x2E64 JUMP JUMPDEST PUSH2 0x11DF SWAP2 SWAP1 PUSH2 0x2E64 JUMP JUMPDEST SWAP1 POP PUSH0 PUSH1 0x3 PUSH0 CALLER PUSH20 0xFFFFFFFFFFFFFFFFFFFFFFFFFFFFFFFFFFFFFFFF AND PUSH20 0xFFFFFFFFFFFFFFFFFFFFFFFFFFFFFFFFFFFFFFFF AND DUP2 MSTORE PUSH1 0x20 ADD SWAP1 DUP2 MSTORE PUSH1 0x20 ADD PUSH0 KECCAK256 DUP1 SLOAD SWAP1 POP SWAP1 POP PUSH1 0x3 PUSH0 CALLER PUSH20 0xFFFFFFFFFFFFFFFFFFFFFFFFFFFFFFFFFFFFFFFF AND PUSH20 0xFFFFFFFFFFFFFFFFFFFFFFFFFFFFFFFFFFFFFFFF AND DUP2 MSTORE PUSH1 0x20 ADD SWAP1 DUP2 MSTORE PUSH1 0x20 ADD PUSH0 KECCAK256 PUSH1 0x40 MLOAD DUP1 PUSH2 0x120 ADD PUSH1 0x40 MSTORE DUP1 DUP4 DUP2 MSTORE PUSH1 0x20 ADD CALLER PUSH20 0xFFFFFFFFFFFFFFFFFFFFFFFFFFFFFFFFFFFFFFFF AND DUP2 MSTORE PUSH1 0x20 ADD DUP14 DUP2 MSTORE PUSH1 0x20 ADD DUP13 DUP2 MSTORE PUSH1 0x20 ADD DUP12 DUP2 MSTORE PUSH1 0x20 ADD DUP6 DUP2 MSTORE PUSH1 0x20 ADD PUSH0 DUP2 MSTORE PUSH1 0x20 ADD DUP5 DUP2 MSTORE PUSH1 0x20 ADD PUSH1 0x1 DUP2 MSTORE POP SWAP1 DUP1 PUSH1 0x1 DUP2 SLOAD ADD DUP1 DUP3 SSTORE DUP1 SWAP2 POP POP PUSH1 0x1 SWAP1 SUB SWAP1 PUSH0 MSTORE PUSH1 0x20 PUSH0 KECCAK256 SWAP1 PUSH1 0x9 MUL ADD PUSH0 SWAP1 SWAP2 SWAP1 SWAP2 SWAP1 SWAP2 POP PUSH0 DUP3 ADD MLOAD DUP2 PUSH0 ADD SSTORE PUSH1 0x20 DUP3 ADD MLOAD DUP2 PUSH1 0x1 ADD PUSH0 PUSH2 0x100 EXP DUP2 SLOAD DUP2 PUSH20 0xFFFFFFFFFFFFFFFFFFFFFFFFFFFFFFFFFFFFFFFF MUL NOT AND SWAP1 DUP4 PUSH20 0xFFFFFFFFFFFFFFFFFFFFFFFFFFFFFFFFFFFFFFFF AND MUL OR SWAP1 SSTORE POP PUSH1 0x40 DUP3 ADD MLOAD DUP2 PUSH1 0x2 ADD SSTORE PUSH1 0x60 DUP3 ADD MLOAD DUP2 PUSH1 0x3 ADD SSTORE PUSH1 0x80 DUP3 ADD MLOAD DUP2 PUSH1 0x4 ADD SSTORE PUSH1 0xA0 DUP3 ADD MLOAD DUP2 PUSH1 0x5 ADD SSTORE PUSH1 0xC0 DUP3 ADD MLOAD DUP2 PUSH1 0x6 ADD SSTORE PUSH1 0xE0 DUP3 ADD MLOAD DUP2 PUSH1 0x7 ADD SSTORE PUSH2 0x100 DUP3 ADD MLOAD DUP2 PUSH1 0x8 ADD SSTORE POP POP PUSH0 DUP1 DUP13 DUP2 SLOAD DUP2 LT PUSH2 0x138A JUMPI PUSH2 0x1389 PUSH2 0x2CE9 JUMP JUMPDEST JUMPDEST SWAP1 PUSH0 MSTORE PUSH1 0x20 PUSH0 KECCAK256 SWAP1 PUSH1 0x9 MUL ADD PUSH1 0x8 ADD DUP2 SWAP1 SSTORE POP PUSH0 DUP12 DUP2 SLOAD DUP2 LT PUSH2 0x13B0 JUMPI PUSH2 0x13AF PUSH2 0x2CE9 JUMP JUMPDEST JUMPDEST SWAP1 PUSH0 MSTORE PUSH1 0x20 PUSH0 KECCAK256 SWAP1 PUSH1 0x9 MUL ADD PUSH1 0x1 ADD PUSH0 SWAP1 SLOAD SWAP1 PUSH2 0x100 EXP SWAP1 DIV PUSH20 0xFFFFFFFFFFFFFFFFFFFFFFFFFFFFFFFFFFFFFFFF AND PUSH20 0xFFFFFFFFFFFFFFFFFFFFFFFFFFFFFFFFFFFFFFFF AND PUSH2 0x8FC PUSH0 DUP14 DUP2 SLOAD DUP2 LT PUSH2 0x140B JUMPI PUSH2 0x140A PUSH2 0x2CE9 JUMP JUMPDEST JUMPDEST SWAP1 PUSH0 MSTORE PUSH1 0x20 PUSH0 KECCAK256 SWAP1 PUSH1 0x9 MUL ADD PUSH1 0x4 ADD SLOAD CALLVALUE PUSH2 0x1426 SWAP2 SWAP1 PUSH2 0x3091 JUMP JUMPDEST SWAP1 DUP2 ISZERO MUL SWAP1 PUSH1 0x40 MLOAD PUSH0 PUSH1 0x40 MLOAD DUP1 DUP4 SUB DUP2 DUP6 DUP9 DUP9 CALL SWAP4 POP POP POP POP ISZERO DUP1 ISZERO PUSH2 0x144E JUMPI RETURNDATASIZE PUSH0 DUP1 RETURNDATACOPY RETURNDATASIZE PUSH0 REVERT JUMPDEST POP PUSH32 0xB80F428704AEA624DB48E5FA450E946B9E04A896C332C3FB87DDB996F046958F DUP2 CALLER DUP11 DUP15 DUP15 DUP15 PUSH1 0x40 MLOAD PUSH2 0x1488 SWAP7 SWAP6 SWAP5 SWAP4 SWAP3 SWAP2 SWAP1 PUSH2 0x3121 JUMP JUMPDEST PUSH1 0x40 MLOAD DUP1 SWAP2 SUB SWAP1 LOG1 POP POP POP POP POP POP POP POP POP POP POP POP JUMP JUMPDEST PUSH1 0x1 PUSH1 0x20 MSTORE DUP2 PUSH0 MSTORE PUSH1 0x40 PUSH0 KECCAK256 DUP2 DUP2 SLOAD DUP2 LT PUSH2 0x14B7 JUMPI PUSH0 DUP1 REVERT JUMPDEST SWAP1 PUSH0 MSTORE PUSH1 0x20 PUSH0 KECCAK256 SWAP1 PUSH1 0x6 MUL ADD PUSH0 SWAP2 POP SWAP2 POP POP DUP1 PUSH0 ADD SLOAD SWAP1 DUP1 PUSH1 0x1 ADD PUSH0 SWAP1 SLOAD SWAP1 PUSH2 0x100 EXP SWAP1 DIV PUSH20 0xFFFFFFFFFFFFFFFFFFFFFFFFFFFFFFFFFFFFFFFF AND SWAP1 DUP1 PUSH1 0x2 ADD SLOAD SWAP1 DUP1 PUSH1 0x3 ADD SLOAD SWAP1 DUP1 PUSH1 0x4 ADD SLOAD SWAP1 DUP1 PUSH1 0x5 ADD SLOAD SWAP1 POP DUP7 JUMP JUMPDEST PUSH0 DUP2 DUP2 SLOAD DUP2 LT PUSH2 0x151D JUMPI PUSH0 DUP1 REVERT JUMPDEST SWAP1 PUSH0 MSTORE PUSH1 0x20 PUSH0 KECCAK256 SWAP1 PUSH1 0x9 MUL ADD PUSH0 SWAP2 POP SWAP1 POP DUP1 PUSH0 ADD SLOAD SWAP1 DUP1 PUSH1 0x1 ADD PUSH0 SWAP1 SLOAD SWAP1 PUSH2 0x100 EXP SWAP1 DIV PUSH20 0xFFFFFFFFFFFFFFFFFFFFFFFFFFFFFFFFFFFFFFFF AND SWAP1 DUP1 PUSH1 0x2 ADD DUP1 SLOAD PUSH2 0x1567 SWAP1 PUSH2 0x2A4D JUMP JUMPDEST DUP1 PUSH1 0x1F ADD PUSH1 0x20 DUP1 SWAP2 DIV MUL PUSH1 0x20 ADD PUSH1 0x40 MLOAD SWAP1 DUP2 ADD PUSH1 0x40 MSTORE DUP1 SWAP3 SWAP2 SWAP1 DUP2 DUP2 MSTORE PUSH1 0x20 ADD DUP3 DUP1 SLOAD PUSH2 0x1593 SWAP1 PUSH2 0x2A4D JUMP JUMPDEST DUP1 ISZERO PUSH2 0x15DE JUMPI DUP1 PUSH1 0x1F LT PUSH2 0x15B5 JUMPI PUSH2 0x100 DUP1 DUP4 SLOAD DIV MUL DUP4 MSTORE SWAP2 PUSH1 0x20 ADD SWAP2 PUSH2 0x15DE JUMP JUMPDEST DUP3 ADD SWAP2 SWAP1 PUSH0 MSTORE PUSH1 0x20 PUSH0 KECCAK256 SWAP1 JUMPDEST DUP2 SLOAD DUP2 MSTORE SWAP1 PUSH1 0x1 ADD SWAP1 PUSH1 0x20 ADD DUP1 DUP4 GT PUSH2 0x15C1 JUMPI DUP3 SWAP1 SUB PUSH1 0x1F AND DUP3 ADD SWAP2 JUMPDEST POP POP POP POP POP SWAP1 DUP1 PUSH1 0x3 ADD SLOAD SWAP1 DUP1 PUSH1 0x4 ADD SLOAD SWAP1 DUP1 PUSH1 0x5 ADD SLOAD SWAP1 DUP1 PUSH1 0x6 ADD SLOAD SWAP1 DUP1 PUSH1 0x7 ADD SLOAD SWAP1 DUP1 PUSH1 0x8 ADD SLOAD SWAP1 POP DUP10 JUMP JUMPDEST PUSH1 0x1 PUSH0 DUP5 DUP2 SLOAD DUP2 LT PUSH2 0x1621 JUMPI PUSH2 0x1620 PUSH2 0x2CE9 JUMP JUMPDEST JUMPDEST SWAP1 PUSH0 MSTORE PUSH1 0x20 PUSH0 KECCAK256 SWAP1 PUSH1 0x9 MUL ADD PUSH1 0x8 ADD SLOAD EQ PUSH2 0x1671 JUMPI PUSH1 0x40 MLOAD PUSH32 0x8C379A000000000000000000000000000000000000000000000000000000000 DUP2 MSTORE PUSH1 0x4 ADD PUSH2 0x1668 SWAP1 PUSH2 0x31CA JUMP JUMPDEST PUSH1 0x40 MLOAD DUP1 SWAP2 SUB SWAP1 REVERT JUMPDEST PUSH0 PUSH1 0x3C DUP4 DUP4 PUSH2 0x1680 SWAP2 SWAP1 PUSH2 0x3091 JUMP JUMPDEST PUSH2 0x168A SWAP2 SWAP1 PUSH2 0x30F1 JUMP JUMPDEST SWAP1 POP DUP1 PUSH0 DUP6 DUP2 SLOAD DUP2 LT PUSH2 0x16A0 JUMPI PUSH2 0x169F PUSH2 0x2CE9 JUMP JUMPDEST JUMPDEST SWAP1 PUSH0 MSTORE PUSH1 0x20 PUSH0 KECCAK256 SWAP1 PUSH1 0x9 MUL ADD PUSH1 0x7 ADD SLOAD GT DUP1 ISZERO PUSH2 0x16DE JUMPI POP PUSH0 DUP5 DUP2 SLOAD DUP2 LT PUSH2 0x16CB JUMPI PUSH2 0x16CA PUSH2 0x2CE9 JUMP JUMPDEST JUMPDEST SWAP1 PUSH0 MSTORE PUSH1 0x20 PUSH0 KECCAK256 SWAP1 PUSH1 0x9 MUL ADD PUSH1 0x6 ADD SLOAD DUP2 GT JUMPDEST PUSH2 0x171D JUMPI PUSH1 0x40 MLOAD PUSH32 0x8C379A000000000000000000000000000000000000000000000000000000000 DUP2 MSTORE PUSH1 0x4 ADD PUSH2 0x1714 SWAP1 PUSH2 0x3232 JUMP JUMPDEST PUSH1 0x40 MLOAD DUP1 SWAP2 SUB SWAP1 REVERT JUMPDEST PUSH0 DUP1 DUP6 DUP2 SLOAD DUP2 LT PUSH2 0x1731 JUMPI PUSH2 0x1730 PUSH2 0x2CE9 JUMP JUMPDEST JUMPDEST SWAP1 PUSH0 MSTORE PUSH1 0x20 PUSH0 KECCAK256 SWAP1 PUSH1 0x9 MUL ADD PUSH1 0x1 ADD PUSH0 SWAP1 SLOAD SWAP1 PUSH2 0x100 EXP SWAP1 DIV PUSH20 0xFFFFFFFFFFFFFFFFFFFFFFFFFFFFFFFFFFFFFFFF AND SWAP1 POP PUSH0 PUSH1 0x1 PUSH0 DUP4 PUSH20 0xFFFFFFFFFFFFFFFFFFFFFFFFFFFFFFFFFFFFFFFF AND PUSH20 0xFFFFFFFFFFFFFFFFFFFFFFFFFFFFFFFFFFFFFFFF AND DUP2 MSTORE PUSH1 0x20 ADD SWAP1 DUP2 MSTORE PUSH1 0x20 ADD PUSH0 KECCAK256 DUP1 SLOAD SWAP1 POP SWAP1 POP PUSH1 0x1 PUSH0 DUP4 PUSH20 0xFFFFFFFFFFFFFFFFFFFFFFFFFFFFFFFFFFFFFFFF AND PUSH20 0xFFFFFFFFFFFFFFFFFFFFFFFFFFFFFFFFFFFFFFFF AND DUP2 MSTORE PUSH1 0x20 ADD SWAP1 DUP2 MSTORE PUSH1 0x20 ADD PUSH0 KECCAK256 PUSH1 0x40 MLOAD DUP1 PUSH1 0xC0 ADD PUSH1 0x40 MSTORE DUP1 DUP4 DUP2 MSTORE PUSH1 0x20 ADD CALLER PUSH20 0xFFFFFFFFFFFFFFFFFFFFFFFFFFFFFFFFFFFFFFFF AND DUP2 MSTORE PUSH1 0x20 ADD DUP9 DUP2 MSTORE PUSH1 0x20 ADD DUP8 DUP2 MSTORE PUSH1 0x20 ADD DUP7 DUP2 MSTORE PUSH1 0x20 ADD PUSH0 DUP2 MSTORE POP SWAP1 DUP1 PUSH1 0x1 DUP2 SLOAD ADD DUP1 DUP3 SSTORE DUP1 SWAP2 POP POP PUSH1 0x1 SWAP1 SUB SWAP1 PUSH0 MSTORE PUSH1 0x20 PUSH0 KECCAK256 SWAP1 PUSH1 0x6 MUL ADD PUSH0 SWAP1 SWAP2 SWAP1 SWAP2 SWAP1 SWAP2 POP PUSH0 DUP3 ADD MLOAD DUP2 PUSH0 ADD SSTORE PUSH1 0x20 DUP3 ADD MLOAD DUP2 PUSH1 0x1 ADD PUSH0 PUSH2 0x100 EXP DUP2 SLOAD DUP2 PUSH20 0xFFFFFFFFFFFFFFFFFFFFFFFFFFFFFFFFFFFFFFFF MUL NOT AND SWAP1 DUP4 PUSH20 0xFFFFFFFFFFFFFFFFFFFFFFFFFFFFFFFFFFFFFFFF AND MUL OR SWAP1 SSTORE POP PUSH1 0x40 DUP3 ADD MLOAD DUP2 PUSH1 0x2 ADD SSTORE PUSH1 0x60 DUP3 ADD MLOAD DUP2 PUSH1 0x3 ADD SSTORE PUSH1 0x80 DUP3 ADD MLOAD DUP2 PUSH1 0x4 ADD SSTORE PUSH1 0xA0 DUP3 ADD MLOAD DUP2 PUSH1 0x5 ADD SSTORE POP POP PUSH32 0xC27E43AF6588B65DCCC4465720EF720B7CF45F5FBA352DF8607AE1CFEA9089B CALLER DUP3 PUSH1 0x40 MLOAD PUSH2 0x18F5 SWAP3 SWAP2 SWAP1 PUSH2 0x3250 JUMP JUMPDEST PUSH1 0x40 MLOAD DUP1 SWAP2 SUB SWAP1 LOG1 POP POP POP POP POP POP JUMP JUMPDEST PUSH1 0x60 PUSH0 DUP1 SLOAD DUP1 PUSH1 0x20 MUL PUSH1 0x20 ADD PUSH1 0x40 MLOAD SWAP1 DUP2 ADD PUSH1 0x40 MSTORE DUP1 SWAP3 SWAP2 SWAP1 DUP2 DUP2 MSTORE PUSH1 0x20 ADD PUSH0 SWAP1 JUMPDEST DUP3 DUP3 LT ISZERO PUSH2 0x1A82 JUMPI DUP4 DUP3 SWAP1 PUSH0 MSTORE PUSH1 0x20 PUSH0 KECCAK256 SWAP1 PUSH1 0x9 MUL ADD PUSH1 0x40 MLOAD DUP1 PUSH2 0x120 ADD PUSH1 0x40 MSTORE SWAP1 DUP2 PUSH0 DUP3 ADD SLOAD DUP2 MSTORE PUSH1 0x20 ADD PUSH1 0x1 DUP3 ADD PUSH0 SWAP1 SLOAD SWAP1 PUSH2 0x100 EXP SWAP1 DIV PUSH20 0xFFFFFFFFFFFFFFFFFFFFFFFFFFFFFFFFFFFFFFFF AND PUSH20 0xFFFFFFFFFFFFFFFFFFFFFFFFFFFFFFFFFFFFFFFF AND PUSH20 0xFFFFFFFFFFFFFFFFFFFFFFFFFFFFFFFFFFFFFFFF AND DUP2 MSTORE PUSH1 0x20 ADD PUSH1 0x2 DUP3 ADD DUP1 SLOAD PUSH2 0x19B7 SWAP1 PUSH2 0x2A4D JUMP JUMPDEST DUP1 PUSH1 0x1F ADD PUSH1 0x20 DUP1 SWAP2 DIV MUL PUSH1 0x20 ADD PUSH1 0x40 MLOAD SWAP1 DUP2 ADD PUSH1 0x40 MSTORE DUP1 SWAP3 SWAP2 SWAP1 DUP2 DUP2 MSTORE PUSH1 0x20 ADD DUP3 DUP1 SLOAD PUSH2 0x19E3 SWAP1 PUSH2 0x2A4D JUMP JUMPDEST DUP1 ISZERO PUSH2 0x1A2E JUMPI DUP1 PUSH1 0x1F LT PUSH2 0x1A05 JUMPI PUSH2 0x100 DUP1 DUP4 SLOAD DIV MUL DUP4 MSTORE SWAP2 PUSH1 0x20 ADD SWAP2 PUSH2 0x1A2E JUMP JUMPDEST DUP3 ADD SWAP2 SWAP1 PUSH0 MSTORE PUSH1 0x20 PUSH0 KECCAK256 SWAP1 JUMPDEST DUP2 SLOAD DUP2 MSTORE SWAP1 PUSH1 0x1 ADD SWAP1 PUSH1 0x20 ADD DUP1 DUP4 GT PUSH2 0x1A11 JUMPI DUP3 SWAP1 SUB PUSH1 0x1F AND DUP3 ADD SWAP2 JUMPDEST POP POP POP POP POP DUP2 MSTORE PUSH1 0x20 ADD PUSH1 0x3 DUP3 ADD SLOAD DUP2 MSTORE PUSH1 0x20 ADD PUSH1 0x4 DUP3 ADD SLOAD DUP2 MSTORE PUSH1 0x20 ADD PUSH1 0x5 DUP3 ADD SLOAD DUP2 MSTORE PUSH1 0x20 ADD PUSH1 0x6 DUP3 ADD SLOAD DUP2 MSTORE PUSH1 0x20 ADD PUSH1 0x7 DUP3 ADD SLOAD DUP2 MSTORE PUSH1 0x20 ADD PUSH1 0x8 DUP3 ADD SLOAD DUP2 MSTORE POP POP DUP2 MSTORE PUSH1 0x20 ADD SWAP1 PUSH1 0x1 ADD SWAP1 PUSH2 0x1927 JUMP JUMPDEST POP POP POP POP SWAP1 POP SWAP1 JUMP JUMPDEST PUSH0 PUSH1 0x3 PUSH0 CALLER PUSH20 0xFFFFFFFFFFFFFFFFFFFFFFFFFFFFFFFFFFFFFFFF AND PUSH20 0xFFFFFFFFFFFFFFFFFFFFFFFFFFFFFFFFFFFFFFFF AND DUP2 MSTORE PUSH1 0x20 ADD SWAP1 DUP2 MSTORE PUSH1 0x20 ADD PUSH0 KECCAK256 DUP3 DUP2 SLOAD DUP2 LT PUSH2 0x1ADB JUMPI PUSH2 0x1ADA PUSH2 0x2CE9 JUMP JUMPDEST JUMPDEST SWAP1 PUSH0 MSTORE PUSH1 0x20 PUSH0 KECCAK256 SWAP1 PUSH1 0x9 MUL ADD PUSH1 0x6 ADD SLOAD GT PUSH2 0x1B2B JUMPI PUSH1 0x40 MLOAD PUSH32 0x8C379A000000000000000000000000000000000000000000000000000000000 DUP2 MSTORE PUSH1 0x4 ADD PUSH2 0x1B22 SWAP1 PUSH2 0x32E7 JUMP JUMPDEST PUSH1 0x40 MLOAD DUP1 SWAP2 SUB SWAP1 REVERT JUMPDEST PUSH0 PUSH1 0x3 PUSH0 CALLER PUSH20 0xFFFFFFFFFFFFFFFFFFFFFFFFFFFFFFFFFFFFFFFF AND PUSH20 0xFFFFFFFFFFFFFFFFFFFFFFFFFFFFFFFFFFFFFFFF AND DUP2 MSTORE PUSH1 0x20 ADD SWAP1 DUP2 MSTORE PUSH1 0x20 ADD PUSH0 KECCAK256 DUP3 DUP2 SLOAD DUP2 LT PUSH2 0x1B7B JUMPI PUSH2 0x1B7A PUSH2 0x2CE9 JUMP JUMPDEST JUMPDEST SWAP1 PUSH0 MSTORE PUSH1 0x20 PUSH0 KECCAK256 SWAP1 PUSH1 0x9 MUL ADD PUSH1 0x2 ADD SLOAD SWAP1 POP PUSH0 DUP2 DUP2 SLOAD DUP2 LT PUSH2 0x1BA0 JUMPI PUSH2 0x1B9F PUSH2 0x2CE9 JUMP JUMPDEST JUMPDEST SWAP1 PUSH0 MSTORE PUSH1 0x20 PUSH0 KECCAK256 SWAP1 PUSH1 0x9 MUL ADD PUSH1 0x1 ADD PUSH0 SWAP1 SLOAD SWAP1 PUSH2 0x100 EXP SWAP1 DIV PUSH20 0xFFFFFFFFFFFFFFFFFFFFFFFFFFFFFFFFFFFFFFFF AND PUSH20 0xFFFFFFFFFFFFFFFFFFFFFFFFFFFFFFFFFFFFFFFF AND PUSH2 0x8FC CALLVALUE SWAP1 DUP2 ISZERO MUL SWAP1 PUSH1 0x40 MLOAD PUSH0 PUSH1 0x40 MLOAD DUP1 DUP4 SUB DUP2 DUP6 DUP9 DUP9 CALL SWAP4 POP POP POP POP ISZERO DUP1 ISZERO PUSH2 0x1C11 JUMPI RETURNDATASIZE PUSH0 DUP1 RETURNDATACOPY RETURNDATASIZE PUSH0 REVERT JUMPDEST POP CALLVALUE PUSH1 0x3 PUSH0 CALLER PUSH20 0xFFFFFFFFFFFFFFFFFFFFFFFFFFFFFFFFFFFFFFFF AND PUSH20 0xFFFFFFFFFFFFFFFFFFFFFFFFFFFFFFFFFFFFFFFF AND DUP2 MSTORE PUSH1 0x20 ADD SWAP1 DUP2 MSTORE PUSH1 0x20 ADD PUSH0 KECCAK256 DUP4 DUP2 SLOAD DUP2 LT PUSH2 0x1C62 JUMPI PUSH2 0x1C61 PUSH2 0x2CE9 JUMP JUMPDEST JUMPDEST SWAP1 PUSH0 MSTORE PUSH1 0x20 PUSH0 KECCAK256 SWAP1 PUSH1 0x9 MUL ADD PUSH1 0x6 ADD PUSH0 DUP3 DUP3 SLOAD PUSH2 0x1C7F SWAP2 SWAP1 PUSH2 0x3091 JUMP JUMPDEST SWAP3 POP POP DUP2 SWAP1 SSTORE POP CALLVALUE PUSH1 0x3 PUSH0 CALLER PUSH20 0xFFFFFFFFFFFFFFFFFFFFFFFFFFFFFFFFFFFFFFFF AND PUSH20 0xFFFFFFFFFFFFFFFFFFFFFFFFFFFFFFFFFFFFFFFF AND DUP2 MSTORE PUSH1 0x20 ADD SWAP1 DUP2 MSTORE PUSH1 0x20 ADD PUSH0 KECCAK256 DUP4 DUP2 SLOAD DUP2 LT PUSH2 0x1CD6 JUMPI PUSH2 0x1CD5 PUSH2 0x2CE9 JUMP JUMPDEST JUMPDEST SWAP1 PUSH0 MSTORE PUSH1 0x20 PUSH0 KECCAK256 SWAP1 PUSH1 0x9 MUL ADD PUSH1 0x7 ADD PUSH0 DUP3 DUP3 SLOAD PUSH2 0x1CF3 SWAP2 SWAP1 PUSH2 0x3091 JUMP JUMPDEST SWAP3 POP POP DUP2 SWAP1 SSTORE POP PUSH32 0x63E55317E25C0CAB3A2DE23EE0E244496DAEA0C1C2B8E272BBC01722B96BB9AE DUP3 CALLER CALLVALUE PUSH1 0x40 MLOAD PUSH2 0x1D2D SWAP4 SWAP3 SWAP2 SWAP1 PUSH2 0x3305 JUMP JUMPDEST PUSH1 0x40 MLOAD DUP1 SWAP2 SUB SWAP1 LOG1 PUSH0 PUSH1 0x3 PUSH0 CALLER PUSH20 0xFFFFFFFFFFFFFFFFFFFFFFFFFFFFFFFFFFFFFFFF AND PUSH20 0xFFFFFFFFFFFFFFFFFFFFFFFFFFFFFFFFFFFFFFFF AND DUP2 MSTORE PUSH1 0x20 ADD SWAP1 DUP2 MSTORE PUSH1 0x20 ADD PUSH0 KECCAK256 DUP4 DUP2 SLOAD DUP2 LT PUSH2 0x1D85 JUMPI PUSH2 0x1D84 PUSH2 0x2CE9 JUMP JUMPDEST JUMPDEST SWAP1 PUSH0 MSTORE PUSH1 0x20 PUSH0 KECCAK256 SWAP1 PUSH1 0x9 MUL ADD PUSH1 0x7 ADD SLOAD SUB PUSH2 0x1E3A JUMPI CALLER PUSH20 0xFFFFFFFFFFFFFFFFFFFFFFFFFFFFFFFFFFFFFFFF AND PUSH2 0x8FC PUSH0 DUP4 DUP2 SLOAD DUP2 LT PUSH2 0x1DC7 JUMPI PUSH2 0x1DC6 PUSH2 0x2CE9 JUMP JUMPDEST JUMPDEST SWAP1 PUSH0 MSTORE PUSH1 0x20 PUSH0 KECCAK256 SWAP1 PUSH1 0x9 MUL ADD PUSH1 0x4 ADD SLOAD SWAP1 DUP2 ISZERO MUL SWAP1 PUSH1 0x40 MLOAD PUSH0 PUSH1 0x40 MLOAD DUP1 DUP4 SUB DUP2 DUP6 DUP9 DUP9 CALL SWAP4 POP POP POP POP ISZERO DUP1 ISZERO PUSH2 0x1DFF JUMPI RETURNDATASIZE PUSH0 DUP1 RETURNDATACOPY RETURNDATASIZE PUSH0 REVERT JUMPDEST POP PUSH32 0xC8891CC8407E9BC09A78421BD234C3FD57D71A2CC5F1AC6D5602070ADD66D0DD DUP3 CALLER PUSH1 0x40 MLOAD PUSH2 0x1E31 SWAP3 SWAP2 SWAP1 PUSH2 0x2E10 JUMP JUMPDEST PUSH1 0x40 MLOAD DUP1 SWAP2 SUB SWAP1 LOG1 JUMPDEST POP POP JUMP JUMPDEST PUSH1 0x60 PUSH2 0x1E49 CALLER PUSH2 0x5D5 JUMP JUMPDEST PUSH1 0x3 PUSH0 CALLER PUSH20 0xFFFFFFFFFFFFFFFFFFFFFFFFFFFFFFFFFFFFFFFF AND PUSH20 0xFFFFFFFFFFFFFFFFFFFFFFFFFFFFFFFFFFFFFFFF AND DUP2 MSTORE PUSH1 0x20 ADD SWAP1 DUP2 MSTORE PUSH1 0x20 ADD PUSH0 KECCAK256 DUP1 SLOAD DUP1 PUSH1 0x20 MUL PUSH1 0x20 ADD PUSH1 0x40 MLOAD SWAP1 DUP2 ADD PUSH1 0x40 MSTORE DUP1 SWAP3 SWAP2 SWAP1 DUP2 DUP2 MSTORE PUSH1 0x20 ADD PUSH0 SWAP1 JUMPDEST DUP3 DUP3 LT ISZERO PUSH2 0x1F7A JUMPI DUP4 DUP3 SWAP1 PUSH0 MSTORE PUSH1 0x20 PUSH0 KECCAK256 SWAP1 PUSH1 0x9 MUL ADD PUSH1 0x40 MLOAD DUP1 PUSH2 0x120 ADD PUSH1 0x40 MSTORE SWAP1 DUP2 PUSH0 DUP3 ADD SLOAD DUP2 MSTORE PUSH1 0x20 ADD PUSH1 0x1 DUP3 ADD PUSH0 SWAP1 SLOAD SWAP1 PUSH2 0x100 EXP SWAP1 DIV PUSH20 0xFFFFFFFFFFFFFFFFFFFFFFFFFFFFFFFFFFFFFFFF AND PUSH20 0xFFFFFFFFFFFFFFFFFFFFFFFFFFFFFFFFFFFFFFFF AND PUSH20 0xFFFFFFFFFFFFFFFFFFFFFFFFFFFFFFFFFFFFFFFF AND DUP2 MSTORE PUSH1 0x20 ADD PUSH1 0x2 DUP3 ADD SLOAD DUP2 MSTORE PUSH1 0x20 ADD PUSH1 0x3 DUP3 ADD SLOAD DUP2 MSTORE PUSH1 0x20 ADD PUSH1 0x4 DUP3 ADD SLOAD DUP2 MSTORE PUSH1 0x20 ADD PUSH1 0x5 DUP3 ADD SLOAD DUP2 MSTORE PUSH1 0x20 ADD PUSH1 0x6 DUP3 ADD SLOAD DUP2 MSTORE PUSH1 0x20 ADD PUSH1 0x7 DUP3 ADD SLOAD DUP2 MSTORE PUSH1 0x20 ADD PUSH1 0x8 DUP3 ADD SLOAD DUP2 MSTORE POP POP DUP2 MSTORE PUSH1 0x20 ADD SWAP1 PUSH1 0x1 ADD SWAP1 PUSH2 0x1EA5 JUMP JUMPDEST POP POP POP POP SWAP1 POP SWAP1 JUMP JUMPDEST PUSH0 PUSH1 0x40 MLOAD SWAP1 POP SWAP1 JUMP JUMPDEST PUSH0 DUP1 REVERT JUMPDEST PUSH0 DUP1 REVERT JUMPDEST PUSH0 DUP1 REVERT JUMPDEST PUSH0 DUP1 REVERT JUMPDEST PUSH0 PUSH1 0x1F NOT PUSH1 0x1F DUP4 ADD AND SWAP1 POP SWAP2 SWAP1 POP JUMP JUMPDEST PUSH32 0x4E487B7100000000000000000000000000000000000000000000000000000000 PUSH0 MSTORE PUSH1 0x41 PUSH1 0x4 MSTORE PUSH1 0x24 PUSH0 REVERT JUMPDEST PUSH2 0x1FE2 DUP3 PUSH2 0x1F9C JUMP JUMPDEST DUP2 ADD DUP2 DUP2 LT PUSH8 0xFFFFFFFFFFFFFFFF DUP3 GT OR ISZERO PUSH2 0x2001 JUMPI PUSH2 0x2000 PUSH2 0x1FAC JUMP JUMPDEST JUMPDEST DUP1 PUSH1 0x40 MSTORE POP POP POP JUMP JUMPDEST PUSH0 PUSH2 0x2013 PUSH2 0x1F83 JUMP JUMPDEST SWAP1 POP PUSH2 0x201F DUP3 DUP3 PUSH2 0x1FD9 JUMP JUMPDEST SWAP2 SWAP1 POP JUMP JUMPDEST PUSH0 PUSH8 0xFFFFFFFFFFFFFFFF DUP3 GT ISZERO PUSH2 0x203E JUMPI PUSH2 0x203D PUSH2 0x1FAC JUMP JUMPDEST JUMPDEST PUSH2 0x2047 DUP3 PUSH2 0x1F9C JUMP JUMPDEST SWAP1 POP PUSH1 0x20 DUP2 ADD SWAP1 POP SWAP2 SWAP1 POP JUMP JUMPDEST DUP3 DUP2 DUP4 CALLDATACOPY PUSH0 DUP4 DUP4 ADD MSTORE POP POP POP JUMP JUMPDEST PUSH0 PUSH2 0x2074 PUSH2 0x206F DUP5 PUSH2 0x2024 JUMP JUMPDEST PUSH2 0x200A JUMP JUMPDEST SWAP1 POP DUP3 DUP2 MSTORE PUSH1 0x20 DUP2 ADD DUP5 DUP5 DUP5 ADD GT ISZERO PUSH2 0x2090 JUMPI PUSH2 0x208F PUSH2 0x1F98 JUMP JUMPDEST JUMPDEST PUSH2 0x209B DUP5 DUP3 DUP6 PUSH2 0x2054 JUMP JUMPDEST POP SWAP4 SWAP3 POP POP POP JUMP JUMPDEST PUSH0 DUP3 PUSH1 0x1F DUP4 ADD SLT PUSH2 0x20B7 JUMPI PUSH2 0x20B6 PUSH2 0x1F94 JUMP JUMPDEST JUMPDEST DUP2 CALLDATALOAD PUSH2 0x20C7 DUP5 DUP3 PUSH1 0x20 DUP7 ADD PUSH2 0x2062 JUMP JUMPDEST SWAP2 POP POP SWAP3 SWAP2 POP POP JUMP JUMPDEST PUSH0 DUP2 SWAP1 POP SWAP2 SWAP1 POP JUMP JUMPDEST PUSH2 0x20E2 DUP2 PUSH2 0x20D0 JUMP JUMPDEST DUP2 EQ PUSH2 0x20EC JUMPI PUSH0 DUP1 REVERT JUMPDEST POP JUMP JUMPDEST PUSH0 DUP2 CALLDATALOAD SWAP1 POP PUSH2 0x20FD DUP2 PUSH2 0x20D9 JUMP JUMPDEST SWAP3 SWAP2 POP POP JUMP JUMPDEST PUSH0 DUP1 PUSH0 DUP1 PUSH0 DUP1 PUSH1 0xC0 DUP8 DUP10 SUB SLT ISZERO PUSH2 0x211D JUMPI PUSH2 0x211C PUSH2 0x1F8C JUMP JUMPDEST JUMPDEST PUSH0 DUP8 ADD CALLDATALOAD PUSH8 0xFFFFFFFFFFFFFFFF DUP2 GT ISZERO PUSH2 0x213A JUMPI PUSH2 0x2139 PUSH2 0x1F90 JUMP JUMPDEST JUMPDEST PUSH2 0x2146 DUP10 DUP3 DUP11 ADD PUSH2 0x20A3 JUMP JUMPDEST SWAP7 POP POP PUSH1 0x20 PUSH2 0x2157 DUP10 DUP3 DUP11 ADD PUSH2 0x20EF JUMP JUMPDEST SWAP6 POP POP PUSH1 0x40 PUSH2 0x2168 DUP10 DUP3 DUP11 ADD PUSH2 0x20EF JUMP JUMPDEST SWAP5 POP POP PUSH1 0x60 PUSH2 0x2179 DUP10 DUP3 DUP11 ADD PUSH2 0x20EF JUMP JUMPDEST SWAP4 POP POP PUSH1 0x80 PUSH2 0x218A DUP10 DUP3 DUP11 ADD PUSH2 0x20EF JUMP JUMPDEST SWAP3 POP POP PUSH1 0xA0 PUSH2 0x219B DUP10 DUP3 DUP11 ADD PUSH2 0x20EF JUMP JUMPDEST SWAP2 POP POP SWAP3 SWAP6 POP SWAP3 SWAP6 POP SWAP3 SWAP6 JUMP JUMPDEST PUSH0 PUSH20 0xFFFFFFFFFFFFFFFFFFFFFFFFFFFFFFFFFFFFFFFF DUP3 AND SWAP1 POP SWAP2 SWAP1 POP JUMP JUMPDEST PUSH0 PUSH2 0x21D1 DUP3 PUSH2 0x21A8 JUMP JUMPDEST SWAP1 POP SWAP2 SWAP1 POP JUMP JUMPDEST PUSH2 0x21E1 DUP2 PUSH2 0x21C7 JUMP JUMPDEST DUP2 EQ PUSH2 0x21EB JUMPI PUSH0 DUP1 REVERT JUMPDEST POP JUMP JUMPDEST PUSH0 DUP2 CALLDATALOAD SWAP1 POP PUSH2 0x21FC DUP2 PUSH2 0x21D8 JUMP JUMPDEST SWAP3 SWAP2 POP POP JUMP JUMPDEST PUSH0 PUSH1 0x20 DUP3 DUP5 SUB SLT ISZERO PUSH2 0x2217 JUMPI PUSH2 0x2216 PUSH2 0x1F8C JUMP JUMPDEST JUMPDEST PUSH0 PUSH2 0x2224 DUP5 DUP3 DUP6 ADD PUSH2 0x21EE JUMP JUMPDEST SWAP2 POP POP SWAP3 SWAP2 POP POP JUMP JUMPDEST PUSH0 DUP1 PUSH1 0x40 DUP4 DUP6 SUB SLT ISZERO PUSH2 0x2243 JUMPI PUSH2 0x2242 PUSH2 0x1F8C JUMP JUMPDEST JUMPDEST PUSH0 PUSH2 0x2250 DUP6 DUP3 DUP7 ADD PUSH2 0x21EE JUMP JUMPDEST SWAP3 POP POP PUSH1 0x20 PUSH2 0x2261 DUP6 DUP3 DUP7 ADD PUSH2 0x20EF JUMP JUMPDEST SWAP2 POP POP SWAP3 POP SWAP3 SWAP1 POP JUMP JUMPDEST PUSH2 0x2274 DUP2 PUSH2 0x20D0 JUMP JUMPDEST DUP3 MSTORE POP POP JUMP JUMPDEST PUSH2 0x2283 DUP2 PUSH2 0x21C7 JUMP JUMPDEST DUP3 MSTORE POP POP JUMP JUMPDEST PUSH0 DUP2 MLOAD SWAP1 POP SWAP2 SWAP1 POP JUMP JUMPDEST PUSH0 DUP3 DUP3 MSTORE PUSH1 0x20 DUP3 ADD SWAP1 POP SWAP3 SWAP2 POP POP JUMP JUMPDEST PUSH0 JUMPDEST DUP4 DUP2 LT ISZERO PUSH2 0x22C0 JUMPI DUP1 DUP3 ADD MLOAD DUP2 DUP5 ADD MSTORE PUSH1 0x20 DUP2 ADD SWAP1 POP PUSH2 0x22A5 JUMP JUMPDEST PUSH0 DUP5 DUP5 ADD MSTORE POP POP POP POP JUMP JUMPDEST PUSH0 PUSH2 0x22D5 DUP3 PUSH2 0x2289 JUMP JUMPDEST PUSH2 0x22DF DUP2 DUP6 PUSH2 0x2293 JUMP JUMPDEST SWAP4 POP PUSH2 0x22EF DUP2 DUP6 PUSH1 0x20 DUP7 ADD PUSH2 0x22A3 JUMP JUMPDEST PUSH2 0x22F8 DUP2 PUSH2 0x1F9C JUMP JUMPDEST DUP5 ADD SWAP2 POP POP SWAP3 SWAP2 POP POP JUMP JUMPDEST PUSH0 PUSH2 0x120 DUP3 ADD SWAP1 POP PUSH2 0x2317 PUSH0 DUP4 ADD DUP13 PUSH2 0x226B JUMP JUMPDEST PUSH2 0x2324 PUSH1 0x20 DUP4 ADD DUP12 PUSH2 0x227A JUMP JUMPDEST DUP2 DUP2 SUB PUSH1 0x40 DUP4 ADD MSTORE PUSH2 0x2336 DUP2 DUP11 PUSH2 0x22CB JUMP JUMPDEST SWAP1 POP PUSH2 0x2345 PUSH1 0x60 DUP4 ADD DUP10 PUSH2 0x226B JUMP JUMPDEST PUSH2 0x2352 PUSH1 0x80 DUP4 ADD DUP9 PUSH2 0x226B JUMP JUMPDEST PUSH2 0x235F PUSH1 0xA0 DUP4 ADD DUP8 PUSH2 0x226B JUMP JUMPDEST PUSH2 0x236C PUSH1 0xC0 DUP4 ADD DUP7 PUSH2 0x226B JUMP JUMPDEST PUSH2 0x2379 PUSH1 0xE0 DUP4 ADD DUP6 PUSH2 0x226B JUMP JUMPDEST PUSH2 0x2387 PUSH2 0x100 DUP4 ADD DUP5 PUSH2 0x226B JUMP JUMPDEST SWAP11 SWAP10 POP POP POP POP POP POP POP POP POP POP JUMP JUMPDEST PUSH0 PUSH1 0x20 DUP3 DUP5 SUB SLT ISZERO PUSH2 0x23AA JUMPI PUSH2 0x23A9 PUSH2 0x1F8C JUMP JUMPDEST JUMPDEST PUSH0 PUSH2 0x23B7 DUP5 DUP3 DUP6 ADD PUSH2 0x20EF JUMP JUMPDEST SWAP2 POP POP SWAP3 SWAP2 POP POP JUMP JUMPDEST PUSH0 PUSH2 0x120 DUP3 ADD SWAP1 POP PUSH2 0x23D4 PUSH0 DUP4 ADD DUP13 PUSH2 0x226B JUMP JUMPDEST PUSH2 0x23E1 PUSH1 0x20 DUP4 ADD DUP12 PUSH2 0x227A JUMP JUMPDEST PUSH2 0x23EE PUSH1 0x40 DUP4 ADD DUP11 PUSH2 0x226B JUMP JUMPDEST PUSH2 0x23FB PUSH1 0x60 DUP4 ADD DUP10 PUSH2 0x226B JUMP JUMPDEST PUSH2 0x2408 PUSH1 0x80 DUP4 ADD DUP9 PUSH2 0x226B JUMP JUMPDEST PUSH2 0x2415 PUSH1 0xA0 DUP4 ADD DUP8 PUSH2 0x226B JUMP JUMPDEST PUSH2 0x2422 PUSH1 0xC0 DUP4 ADD DUP7 PUSH2 0x226B JUMP JUMPDEST PUSH2 0x242F PUSH1 0xE0 DUP4 ADD DUP6 PUSH2 0x226B JUMP JUMPDEST PUSH2 0x243D PUSH2 0x100 DUP4 ADD DUP5 PUSH2 0x226B JUMP JUMPDEST SWAP11 SWAP10 POP POP POP POP POP POP POP POP POP POP JUMP JUMPDEST PUSH0 DUP2 MLOAD SWAP1 POP SWAP2 SWAP1 POP JUMP JUMPDEST PUSH0 DUP3 DUP3 MSTORE PUSH1 0x20 DUP3 ADD SWAP1 POP SWAP3 SWAP2 POP POP JUMP JUMPDEST PUSH0 DUP2 SWAP1 POP PUSH1 0x20 DUP3 ADD SWAP1 POP SWAP2 SWAP1 POP JUMP JUMPDEST PUSH2 0x247D DUP2 PUSH2 0x20D0 JUMP JUMPDEST DUP3 MSTORE POP POP JUMP JUMPDEST PUSH2 0x248C DUP2 PUSH2 0x21C7 JUMP JUMPDEST DUP3 MSTORE POP POP JUMP JUMPDEST PUSH1 0xC0 DUP3 ADD PUSH0 DUP3 ADD MLOAD PUSH2 0x24A6 PUSH0 DUP6 ADD DUP3 PUSH2 0x2474 JUMP JUMPDEST POP PUSH1 0x20 DUP3 ADD MLOAD PUSH2 0x24B9 PUSH1 0x20 DUP6 ADD DUP3 PUSH2 0x2483 JUMP JUMPDEST POP PUSH1 0x40 DUP3 ADD MLOAD PUSH2 0x24CC PUSH1 0x40 DUP6 ADD DUP3 PUSH2 0x2474 JUMP JUMPDEST POP PUSH1 0x60 DUP3 ADD MLOAD PUSH2 0x24DF PUSH1 0x60 DUP6 ADD DUP3 PUSH2 0x2474 JUMP JUMPDEST POP PUSH1 0x80 DUP3 ADD MLOAD PUSH2 0x24F2 PUSH1 0x80 DUP6 ADD DUP3 PUSH2 0x2474 JUMP JUMPDEST POP PUSH1 0xA0 DUP3 ADD MLOAD PUSH2 0x2505 PUSH1 0xA0 DUP6 ADD DUP3 PUSH2 0x2474 JUMP JUMPDEST POP POP POP POP JUMP JUMPDEST PUSH0 PUSH2 0x2516 DUP4 DUP4 PUSH2 0x2492 JUMP JUMPDEST PUSH1 0xC0 DUP4 ADD SWAP1 POP SWAP3 SWAP2 POP POP JUMP JUMPDEST PUSH0 PUSH1 0x20 DUP3 ADD SWAP1 POP SWAP2 SWAP1 POP JUMP JUMPDEST PUSH0 PUSH2 0x2538 DUP3 PUSH2 0x244B JUMP JUMPDEST PUSH2 0x2542 DUP2 DUP6 PUSH2 0x2455 JUMP JUMPDEST SWAP4 POP PUSH2 0x254D DUP4 PUSH2 0x2465 JUMP JUMPDEST DUP1 PUSH0 JUMPDEST DUP4 DUP2 LT ISZERO PUSH2 0x257D JUMPI DUP2 MLOAD PUSH2 0x2564 DUP9 DUP3 PUSH2 0x250B JUMP JUMPDEST SWAP8 POP PUSH2 0x256F DUP4 PUSH2 0x2522 JUMP JUMPDEST SWAP3 POP POP PUSH1 0x1 DUP2 ADD SWAP1 POP PUSH2 0x2550 JUMP JUMPDEST POP DUP6 SWAP4 POP POP POP POP SWAP3 SWAP2 POP POP JUMP JUMPDEST PUSH0 PUSH1 0x20 DUP3 ADD SWAP1 POP DUP2 DUP2 SUB PUSH0 DUP4 ADD MSTORE PUSH2 0x25A2 DUP2 DUP5 PUSH2 0x252E JUMP JUMPDEST SWAP1 POP SWAP3 SWAP2 POP POP JUMP JUMPDEST PUSH0 DUP1 PUSH0 DUP1 PUSH1 0x80 DUP6 DUP8 SUB SLT ISZERO PUSH2 0x25C2 JUMPI PUSH2 0x25C1 PUSH2 0x1F8C JUMP JUMPDEST JUMPDEST PUSH0 PUSH2 0x25CF DUP8 DUP3 DUP9 ADD PUSH2 0x20EF JUMP JUMPDEST SWAP5 POP POP PUSH1 0x20 PUSH2 0x25E0 DUP8 DUP3 DUP9 ADD PUSH2 0x20EF JUMP JUMPDEST SWAP4 POP POP PUSH1 0x40 PUSH2 0x25F1 DUP8 DUP3 DUP9 ADD PUSH2 0x20EF JUMP JUMPDEST SWAP3 POP POP PUSH1 0x60 PUSH2 0x2602 DUP8 DUP3 DUP9 ADD PUSH2 0x20EF JUMP JUMPDEST SWAP2 POP POP SWAP3 SWAP6 SWAP2 SWAP5 POP SWAP3 POP JUMP JUMPDEST PUSH0 PUSH1 0xC0 DUP3 ADD SWAP1 POP PUSH2 0x2621 PUSH0 DUP4 ADD DUP10 PUSH2 0x226B JUMP JUMPDEST PUSH2 0x262E PUSH1 0x20 DUP4 ADD DUP9 PUSH2 0x227A JUMP JUMPDEST PUSH2 0x263B PUSH1 0x40 DUP4 ADD DUP8 PUSH2 0x226B JUMP JUMPDEST PUSH2 0x2648 PUSH1 0x60 DUP4 ADD DUP7 PUSH2 0x226B JUMP JUMPDEST PUSH2 0x2655 PUSH1 0x80 DUP4 ADD DUP6 PUSH2 0x226B JUMP JUMPDEST PUSH2 0x2662 PUSH1 0xA0 DUP4 ADD DUP5 PUSH2 0x226B JUMP JUMPDEST SWAP8 SWAP7 POP POP POP POP POP POP POP JUMP JUMPDEST PUSH0 DUP1 PUSH0 PUSH1 0x60 DUP5 DUP7 SUB SLT ISZERO PUSH2 0x2684 JUMPI PUSH2 0x2683 PUSH2 0x1F8C JUMP JUMPDEST JUMPDEST PUSH0 PUSH2 0x2691 DUP7 DUP3 DUP8 ADD PUSH2 0x20EF JUMP JUMPDEST SWAP4 POP POP PUSH1 0x20 PUSH2 0x26A2 DUP7 DUP3 DUP8 ADD PUSH2 0x20EF JUMP JUMPDEST SWAP3 POP POP PUSH1 0x40 PUSH2 0x26B3 DUP7 DUP3 DUP8 ADD PUSH2 0x20EF JUMP JUMPDEST SWAP2 POP POP SWAP3 POP SWAP3 POP SWAP3 JUMP JUMPDEST PUSH0 DUP2 MLOAD SWAP1 POP SWAP2 SWAP1 POP JUMP JUMPDEST PUSH0 DUP3 DUP3 MSTORE PUSH1 0x20 DUP3 ADD SWAP1 POP SWAP3 SWAP2 POP POP JUMP JUMPDEST PUSH0 DUP2 SWAP1 POP PUSH1 0x20 DUP3 ADD SWAP1 POP SWAP2 SWAP1 POP JUMP JUMPDEST PUSH0 DUP3 DUP3 MSTORE PUSH1 0x20 DUP3 ADD SWAP1 POP SWAP3 SWAP2 POP POP JUMP JUMPDEST PUSH0 PUSH2 0x2700 DUP3 PUSH2 0x2289 JUMP JUMPDEST PUSH2 0x270A DUP2 DUP6 PUSH2 0x26E6 JUMP JUMPDEST SWAP4 POP PUSH2 0x271A DUP2 DUP6 PUSH1 0x20 DUP7 ADD PUSH2 0x22A3 JUMP JUMPDEST PUSH2 0x2723 DUP2 PUSH2 0x1F9C JUMP JUMPDEST DUP5 ADD SWAP2 POP POP SWAP3 SWAP2 POP POP JUMP JUMPDEST PUSH0 PUSH2 0x120 DUP4 ADD PUSH0 DUP4 ADD MLOAD PUSH2 0x2744 PUSH0 DUP7 ADD DUP3 PUSH2 0x2474 JUMP JUMPDEST POP PUSH1 0x20 DUP4 ADD MLOAD PUSH2 0x2757 PUSH1 0x20 DUP7 ADD DUP3 PUSH2 0x2483 JUMP JUMPDEST POP PUSH1 0x40 DUP4 ADD MLOAD DUP5 DUP3 SUB PUSH1 0x40 DUP7 ADD MSTORE PUSH2 0x276F DUP3 DUP3 PUSH2 0x26F6 JUMP JUMPDEST SWAP2 POP POP PUSH1 0x60 DUP4 ADD MLOAD PUSH2 0x2784 PUSH1 0x60 DUP7 ADD DUP3 PUSH2 0x2474 JUMP JUMPDEST POP PUSH1 0x80 DUP4 ADD MLOAD PUSH2 0x2797 PUSH1 0x80 DUP7 ADD DUP3 PUSH2 0x2474 JUMP JUMPDEST POP PUSH1 0xA0 DUP4 ADD MLOAD PUSH2 0x27AA PUSH1 0xA0 DUP7 ADD DUP3 PUSH2 0x2474 JUMP JUMPDEST POP PUSH1 0xC0 DUP4 ADD MLOAD PUSH2 0x27BD PUSH1 0xC0 DUP7 ADD DUP3 PUSH2 0x2474 JUMP JUMPDEST POP PUSH1 0xE0 DUP4 ADD MLOAD PUSH2 0x27D0 PUSH1 0xE0 DUP7 ADD DUP3 PUSH2 0x2474 JUMP JUMPDEST POP PUSH2 0x100 DUP4 ADD MLOAD PUSH2 0x27E5 PUSH2 0x100 DUP7 ADD DUP3 PUSH2 0x2474 JUMP JUMPDEST POP DUP1 SWAP2 POP POP SWAP3 SWAP2 POP POP JUMP JUMPDEST PUSH0 PUSH2 0x27FB DUP4 DUP4 PUSH2 0x272E JUMP JUMPDEST SWAP1 POP SWAP3 SWAP2 POP POP JUMP JUMPDEST PUSH0 PUSH1 0x20 DUP3 ADD SWAP1 POP SWAP2 SWAP1 POP JUMP JUMPDEST PUSH0 PUSH2 0x2819 DUP3 PUSH2 0x26BD JUMP JUMPDEST PUSH2 0x2823 DUP2 DUP6 PUSH2 0x26C7 JUMP JUMPDEST SWAP4 POP DUP4 PUSH1 0x20 DUP3 MUL DUP6 ADD PUSH2 0x2835 DUP6 PUSH2 0x26D7 JUMP JUMPDEST DUP1 PUSH0 JUMPDEST DUP6 DUP2 LT ISZERO PUSH2 0x2870 JUMPI DUP5 DUP5 SUB DUP10 MSTORE DUP2 MLOAD PUSH2 0x2851 DUP6 DUP3 PUSH2 0x27F0 JUMP JUMPDEST SWAP5 POP PUSH2 0x285C DUP4 PUSH2 0x2803 JUMP JUMPDEST SWAP3 POP PUSH1 0x20 DUP11 ADD SWAP10 POP POP PUSH1 0x1 DUP2 ADD SWAP1 POP PUSH2 0x2838 JUMP JUMPDEST POP DUP3 SWAP8 POP DUP8 SWAP6 POP POP POP POP POP POP SWAP3 SWAP2 POP POP JUMP JUMPDEST PUSH0 PUSH1 0x20 DUP3 ADD SWAP1 POP DUP2 DUP2 SUB PUSH0 DUP4 ADD MSTORE PUSH2 0x289A DUP2 DUP5 PUSH2 0x280F JUMP JUMPDEST SWAP1 POP SWAP3 SWAP2 POP POP JUMP JUMPDEST PUSH0 DUP2 MLOAD SWAP1 POP SWAP2 SWAP1 POP JUMP JUMPDEST PUSH0 DUP3 DUP3 MSTORE PUSH1 0x20 DUP3 ADD SWAP1 POP SWAP3 SWAP2 POP POP JUMP JUMPDEST PUSH0 DUP2 SWAP1 POP PUSH1 0x20 DUP3 ADD SWAP1 POP SWAP2 SWAP1 POP JUMP JUMPDEST PUSH2 0x120 DUP3 ADD PUSH0 DUP3 ADD MLOAD PUSH2 0x28E0 PUSH0 DUP6 ADD DUP3 PUSH2 0x2474 JUMP JUMPDEST POP PUSH1 0x20 DUP3 ADD MLOAD PUSH2 0x28F3 PUSH1 0x20 DUP6 ADD DUP3 PUSH2 0x2483 JUMP JUMPDEST POP PUSH1 0x40 DUP3 ADD MLOAD PUSH2 0x2906 PUSH1 0x40 DUP6 ADD DUP3 PUSH2 0x2474 JUMP JUMPDEST POP PUSH1 0x60 DUP3 ADD MLOAD PUSH2 0x2919 PUSH1 0x60 DUP6 ADD DUP3 PUSH2 0x2474 JUMP JUMPDEST POP PUSH1 0x80 DUP3 ADD MLOAD PUSH2 0x292C PUSH1 0x80 DUP6 ADD DUP3 PUSH2 0x2474 JUMP JUMPDEST POP PUSH1 0xA0 DUP3 ADD MLOAD PUSH2 0x293F PUSH1 0xA0 DUP6 ADD DUP3 PUSH2 0x2474 JUMP JUMPDEST POP PUSH1 0xC0 DUP3 ADD MLOAD PUSH2 0x2952 PUSH1 0xC0 DUP6 ADD DUP3 PUSH2 0x2474 JUMP JUMPDEST POP PUSH1 0xE0 DUP3 ADD MLOAD PUSH2 0x2965 PUSH1 0xE0 DUP6 ADD DUP3 PUSH2 0x2474 JUMP JUMPDEST POP PUSH2 0x100 DUP3 ADD MLOAD PUSH2 0x297A PUSH2 0x100 DUP6 ADD DUP3 PUSH2 0x2474 JUMP JUMPDEST POP POP POP POP JUMP JUMPDEST PUSH0 PUSH2 0x298B DUP4 DUP4 PUSH2 0x28CB JUMP JUMPDEST PUSH2 0x120 DUP4 ADD SWAP1 POP SWAP3 SWAP2 POP POP JUMP JUMPDEST PUSH0 PUSH1 0x20 DUP3 ADD SWAP1 POP SWAP2 SWAP1 POP JUMP JUMPDEST PUSH0 PUSH2 0x29AE DUP3 PUSH2 0x28A2 JUMP JUMPDEST PUSH2 0x29B8 DUP2 DUP6 PUSH2 0x28AC JUMP JUMPDEST SWAP4 POP PUSH2 0x29C3 DUP4 PUSH2 0x28BC JUMP JUMPDEST DUP1 PUSH0 JUMPDEST DUP4 DUP2 LT ISZERO PUSH2 0x29F3 JUMPI DUP2 MLOAD PUSH2 0x29DA DUP9 DUP3 PUSH2 0x2980 JUMP JUMPDEST SWAP8 POP PUSH2 0x29E5 DUP4 PUSH2 0x2998 JUMP JUMPDEST SWAP3 POP POP PUSH1 0x1 DUP2 ADD SWAP1 POP PUSH2 0x29C6 JUMP JUMPDEST POP DUP6 SWAP4 POP POP POP POP SWAP3 SWAP2 POP POP JUMP JUMPDEST PUSH0 PUSH1 0x20 DUP3 ADD SWAP1 POP DUP2 DUP2 SUB PUSH0 DUP4 ADD MSTORE PUSH2 0x2A18 DUP2 DUP5 PUSH2 0x29A4 JUMP JUMPDEST SWAP1 POP SWAP3 SWAP2 POP POP JUMP JUMPDEST PUSH32 0x4E487B7100000000000000000000000000000000000000000000000000000000 PUSH0 MSTORE PUSH1 0x22 PUSH1 0x4 MSTORE PUSH1 0x24 PUSH0 REVERT JUMPDEST PUSH0 PUSH1 0x2 DUP3 DIV SWAP1 POP PUSH1 0x1 DUP3 AND DUP1 PUSH2 0x2A64 JUMPI PUSH1 0x7F DUP3 AND SWAP2 POP JUMPDEST PUSH1 0x20 DUP3 LT DUP2 SUB PUSH2 0x2A77 JUMPI PUSH2 0x2A76 PUSH2 0x2A20 JUMP JUMPDEST JUMPDEST POP SWAP2 SWAP1 POP JUMP JUMPDEST PUSH0 DUP2 SWAP1 POP DUP2 PUSH0 MSTORE PUSH1 0x20 PUSH0 KECCAK256 SWAP1 POP SWAP2 SWAP1 POP JUMP JUMPDEST PUSH0 PUSH1 0x20 PUSH1 0x1F DUP4 ADD DIV SWAP1 POP SWAP2 SWAP1 POP JUMP JUMPDEST PUSH0 DUP3 DUP3 SHL SWAP1 POP SWAP3 SWAP2 POP POP JUMP JUMPDEST PUSH0 PUSH1 0x8 DUP4 MUL PUSH2 0x2AD9 PUSH32 0xFFFFFFFFFFFFFFFFFFFFFFFFFFFFFFFFFFFFFFFFFFFFFFFFFFFFFFFFFFFFFFFF DUP3 PUSH2 0x2A9E JUMP JUMPDEST PUSH2 0x2AE3 DUP7 DUP4 PUSH2 0x2A9E JUMP JUMPDEST SWAP6 POP DUP1 NOT DUP5 AND SWAP4 POP DUP1 DUP7 AND DUP5 OR SWAP3 POP POP POP SWAP4 SWAP3 POP POP POP JUMP JUMPDEST PUSH0 DUP2 SWAP1 POP SWAP2 SWAP1 POP JUMP JUMPDEST PUSH0 PUSH2 0x2B1E PUSH2 0x2B19 PUSH2 0x2B14 DUP5 PUSH2 0x20D0 JUMP JUMPDEST PUSH2 0x2AFB JUMP JUMPDEST PUSH2 0x20D0 JUMP JUMPDEST SWAP1 POP SWAP2 SWAP1 POP JUMP JUMPDEST PUSH0 DUP2 SWAP1 POP SWAP2 SWAP1 POP JUMP JUMPDEST PUSH2 0x2B37 DUP4 PUSH2 0x2B04 JUMP JUMPDEST PUSH2 0x2B4B PUSH2 0x2B43 DUP3 PUSH2 0x2B25 JUMP JUMPDEST DUP5 DUP5 SLOAD PUSH2 0x2AAA JUMP JUMPDEST DUP3 SSTORE POP POP POP POP JUMP JUMPDEST PUSH0 SWAP1 JUMP JUMPDEST PUSH2 0x2B5F PUSH2 0x2B53 JUMP JUMPDEST PUSH2 0x2B6A DUP2 DUP5 DUP5 PUSH2 0x2B2E JUMP JUMPDEST POP POP POP JUMP JUMPDEST JUMPDEST DUP2 DUP2 LT ISZERO PUSH2 0x2B8D JUMPI PUSH2 0x2B82 PUSH0 DUP3 PUSH2 0x2B57 JUMP JUMPDEST PUSH1 0x1 DUP2 ADD SWAP1 POP PUSH2 0x2B70 JUMP JUMPDEST POP POP JUMP JUMPDEST PUSH1 0x1F DUP3 GT ISZERO PUSH2 0x2BD2 JUMPI PUSH2 0x2BA3 DUP2 PUSH2 0x2A7D JUMP JUMPDEST PUSH2 0x2BAC DUP5 PUSH2 0x2A8F JUMP JUMPDEST DUP2 ADD PUSH1 0x20 DUP6 LT ISZERO PUSH2 0x2BBB JUMPI DUP2 SWAP1 POP JUMPDEST PUSH2 0x2BCF PUSH2 0x2BC7 DUP6 PUSH2 0x2A8F JUMP JUMPDEST DUP4 ADD DUP3 PUSH2 0x2B6F JUMP JUMPDEST POP POP JUMPDEST POP POP POP JUMP JUMPDEST PUSH0 DUP3 DUP3 SHR SWAP1 POP SWAP3 SWAP2 POP POP JUMP JUMPDEST PUSH0 PUSH2 0x2BF2 PUSH0 NOT DUP5 PUSH1 0x8 MUL PUSH2 0x2BD7 JUMP JUMPDEST NOT DUP1 DUP4 AND SWAP2 POP POP SWAP3 SWAP2 POP POP JUMP JUMPDEST PUSH0 PUSH2 0x2C0A DUP4 DUP4 PUSH2 0x2BE3 JUMP JUMPDEST SWAP2 POP DUP3 PUSH1 0x2 MUL DUP3 OR SWAP1 POP SWAP3 SWAP2 POP POP JUMP JUMPDEST PUSH2 0x2C23 DUP3 PUSH2 0x2289 JUMP JUMPDEST PUSH8 0xFFFFFFFFFFFFFFFF DUP2 GT ISZERO PUSH2 0x2C3C JUMPI PUSH2 0x2C3B PUSH2 0x1FAC JUMP JUMPDEST JUMPDEST PUSH2 0x2C46 DUP3 SLOAD PUSH2 0x2A4D JUMP JUMPDEST PUSH2 0x2C51 DUP3 DUP3 DUP6 PUSH2 0x2B91 JUMP JUMPDEST PUSH0 PUSH1 0x20 SWAP1 POP PUSH1 0x1F DUP4 GT PUSH1 0x1 DUP2 EQ PUSH2 0x2C82 JUMPI PUSH0 DUP5 ISZERO PUSH2 0x2C70 JUMPI DUP3 DUP8 ADD MLOAD SWAP1 POP JUMPDEST PUSH2 0x2C7A DUP6 DUP3 PUSH2 0x2BFF JUMP JUMPDEST DUP7 SSTORE POP PUSH2 0x2CE1 JUMP JUMPDEST PUSH1 0x1F NOT DUP5 AND PUSH2 0x2C90 DUP7 PUSH2 0x2A7D JUMP JUMPDEST PUSH0 JUMPDEST DUP3 DUP2 LT ISZERO PUSH2 0x2CB7 JUMPI DUP5 DUP10 ADD MLOAD DUP3 SSTORE PUSH1 0x1 DUP3 ADD SWAP2 POP PUSH1 0x20 DUP6 ADD SWAP5 POP PUSH1 0x20 DUP2 ADD SWAP1 POP PUSH2 0x2C92 JUMP JUMPDEST DUP7 DUP4 LT ISZERO PUSH2 0x2CD4 JUMPI DUP5 DUP10 ADD MLOAD PUSH2 0x2CD0 PUSH1 0x1F DUP10 AND DUP3 PUSH2 0x2BE3 JUMP JUMPDEST DUP4 SSTORE POP JUMPDEST PUSH1 0x1 PUSH1 0x2 DUP9 MUL ADD DUP9 SSTORE POP POP POP JUMPDEST POP POP POP POP POP POP JUMP JUMPDEST PUSH32 0x4E487B7100000000000000000000000000000000000000000000000000000000 PUSH0 MSTORE PUSH1 0x32 PUSH1 0x4 MSTORE PUSH1 0x24 PUSH0 REVERT JUMPDEST PUSH0 DUP2 SLOAD SWAP1 POP PUSH2 0x2D24 DUP2 PUSH2 0x2A4D JUMP JUMPDEST SWAP1 POP SWAP2 SWAP1 POP JUMP JUMPDEST DUP2 DUP2 SUB PUSH2 0x2D39 JUMPI POP POP PUSH2 0x2E0E JUMP JUMPDEST PUSH2 0x2D42 DUP3 PUSH2 0x2D16 JUMP JUMPDEST PUSH8 0xFFFFFFFFFFFFFFFF DUP2 GT ISZERO PUSH2 0x2D5B JUMPI PUSH2 0x2D5A PUSH2 0x1FAC JUMP JUMPDEST JUMPDEST PUSH2 0x2D65 DUP3 SLOAD PUSH2 0x2A4D JUMP JUMPDEST PUSH2 0x2D70 DUP3 DUP3 DUP6 PUSH2 0x2B91 JUMP JUMPDEST PUSH0 PUSH1 0x1F DUP4 GT PUSH1 0x1 DUP2 EQ PUSH2 0x2D9D JUMPI PUSH0 DUP5 ISZERO PUSH2 0x2D8B JUMPI DUP3 DUP8 ADD SLOAD SWAP1 POP JUMPDEST PUSH2 0x2D95 DUP6 DUP3 PUSH2 0x2BFF JUMP JUMPDEST DUP7 SSTORE POP PUSH2 0x2E07 JUMP JUMPDEST PUSH1 0x1F NOT DUP5 AND PUSH2 0x2DAB DUP8 PUSH2 0x2A7D JUMP JUMPDEST SWAP7 POP PUSH2 0x2DB6 DUP7 PUSH2 0x2A7D JUMP JUMPDEST PUSH0 JUMPDEST DUP3 DUP2 LT ISZERO PUSH2 0x2DDD JUMPI DUP5 DUP10 ADD SLOAD DUP3 SSTORE PUSH1 0x1 DUP3 ADD SWAP2 POP PUSH1 0x1 DUP6 ADD SWAP5 POP PUSH1 0x20 DUP2 ADD SWAP1 POP PUSH2 0x2DB8 JUMP JUMPDEST DUP7 DUP4 LT ISZERO PUSH2 0x2DFA JUMPI DUP5 DUP10 ADD SLOAD PUSH2 0x2DF6 PUSH1 0x1F DUP10 AND DUP3 PUSH2 0x2BE3 JUMP JUMPDEST DUP4 SSTORE POP JUMPDEST PUSH1 0x1 PUSH1 0x2 DUP9 MUL ADD DUP9 SSTORE POP POP POP JUMPDEST POP POP POP POP POP POP JUMPDEST JUMP JUMPDEST PUSH0 PUSH1 0x40 DUP3 ADD SWAP1 POP PUSH2 0x2E23 PUSH0 DUP4 ADD DUP6 PUSH2 0x226B JUMP JUMPDEST PUSH2 0x2E30 PUSH1 0x20 DUP4 ADD DUP5 PUSH2 0x227A JUMP JUMPDEST SWAP4 SWAP3 POP POP POP JUMP JUMPDEST PUSH32 0x4E487B7100000000000000000000000000000000000000000000000000000000 PUSH0 MSTORE PUSH1 0x11 PUSH1 0x4 MSTORE PUSH1 0x24 PUSH0 REVERT JUMPDEST PUSH0 PUSH2 0x2E6E DUP3 PUSH2 0x20D0 JUMP JUMPDEST SWAP2 POP PUSH2 0x2E79 DUP4 PUSH2 0x20D0 JUMP JUMPDEST SWAP3 POP DUP3 DUP3 MUL PUSH2 0x2E87 DUP2 PUSH2 0x20D0 JUMP JUMPDEST SWAP2 POP DUP3 DUP3 DIV DUP5 EQ DUP4 ISZERO OR PUSH2 0x2E9E JUMPI PUSH2 0x2E9D PUSH2 0x2E37 JUMP JUMPDEST JUMPDEST POP SWAP3 SWAP2 POP POP JUMP JUMPDEST PUSH0 PUSH2 0x2EAF DUP3 PUSH2 0x20D0 JUMP JUMPDEST SWAP2 POP PUSH2 0x2EBA DUP4 PUSH2 0x20D0 JUMP JUMPDEST SWAP3 POP DUP3 DUP3 ADD SWAP1 POP DUP1 DUP3 GT ISZERO PUSH2 0x2ED2 JUMPI PUSH2 0x2ED1 PUSH2 0x2E37 JUMP JUMPDEST JUMPDEST SWAP3 SWAP2 POP POP JUMP JUMPDEST PUSH32 0x616E6F7468657220726571756573742068617320616C7265616479206265656E PUSH0 DUP3 ADD MSTORE PUSH32 0x2061636365707465642100000000000000000000000000000000000000000000 PUSH1 0x20 DUP3 ADD MSTORE POP JUMP JUMPDEST PUSH0 PUSH2 0x2F32 PUSH1 0x2A DUP4 PUSH2 0x2293 JUMP JUMPDEST SWAP2 POP PUSH2 0x2F3D DUP3 PUSH2 0x2ED8 JUMP JUMPDEST PUSH1 0x40 DUP3 ADD SWAP1 POP SWAP2 SWAP1 POP JUMP JUMPDEST PUSH0 PUSH1 0x20 DUP3 ADD SWAP1 POP DUP2 DUP2 SUB PUSH0 DUP4 ADD MSTORE PUSH2 0x2F5F DUP2 PUSH2 0x2F26 JUMP JUMPDEST SWAP1 POP SWAP2 SWAP1 POP JUMP JUMPDEST PUSH0 PUSH1 0x60 DUP3 ADD SWAP1 POP PUSH2 0x2F79 PUSH0 DUP4 ADD DUP7 PUSH2 0x227A JUMP JUMPDEST PUSH2 0x2F86 PUSH1 0x20 DUP4 ADD DUP6 PUSH2 0x227A JUMP JUMPDEST PUSH2 0x2F93 PUSH1 0x40 DUP4 ADD DUP5 PUSH2 0x226B JUMP JUMPDEST SWAP5 SWAP4 POP POP POP POP JUMP JUMPDEST PUSH32 0x796F75722072657175657374206861736E2774206265656E2061636365707465 PUSH0 DUP3 ADD MSTORE PUSH32 0x6400000000000000000000000000000000000000000000000000000000000000 PUSH1 0x20 DUP3 ADD MSTORE POP JUMP JUMPDEST PUSH0 PUSH2 0x2FF5 PUSH1 0x21 DUP4 PUSH2 0x2293 JUMP JUMPDEST SWAP2 POP PUSH2 0x3000 DUP3 PUSH2 0x2F9B JUMP JUMPDEST PUSH1 0x40 DUP3 ADD SWAP1 POP SWAP2 SWAP1 POP JUMP JUMPDEST PUSH0 PUSH1 0x20 DUP3 ADD SWAP1 POP DUP2 DUP2 SUB PUSH0 DUP4 ADD MSTORE PUSH2 0x3022 DUP2 PUSH2 0x2FE9 JUMP JUMPDEST SWAP1 POP SWAP2 SWAP1 POP JUMP JUMPDEST PUSH32 0x496E636F7272656374207061796D656E74200000000000000000000000000000 PUSH0 DUP3 ADD MSTORE POP JUMP JUMPDEST PUSH0 PUSH2 0x305D PUSH1 0x12 DUP4 PUSH2 0x2293 JUMP JUMPDEST SWAP2 POP PUSH2 0x3068 DUP3 PUSH2 0x3029 JUMP JUMPDEST PUSH1 0x20 DUP3 ADD SWAP1 POP SWAP2 SWAP1 POP JUMP JUMPDEST PUSH0 PUSH1 0x20 DUP3 ADD SWAP1 POP DUP2 DUP2 SUB PUSH0 DUP4 ADD MSTORE PUSH2 0x308A DUP2 PUSH2 0x3051 JUMP JUMPDEST SWAP1 POP SWAP2 SWAP1 POP JUMP JUMPDEST PUSH0 PUSH2 0x309B DUP3 PUSH2 0x20D0 JUMP JUMPDEST SWAP2 POP PUSH2 0x30A6 DUP4 PUSH2 0x20D0 JUMP JUMPDEST SWAP3 POP DUP3 DUP3 SUB SWAP1 POP DUP2 DUP2 GT ISZERO PUSH2 0x30BE JUMPI PUSH2 0x30BD PUSH2 0x2E37 JUMP JUMPDEST JUMPDEST SWAP3 SWAP2 POP POP JUMP JUMPDEST PUSH32 0x4E487B7100000000000000000000000000000000000000000000000000000000 PUSH0 MSTORE PUSH1 0x12 PUSH1 0x4 MSTORE PUSH1 0x24 PUSH0 REVERT JUMPDEST PUSH0 PUSH2 0x30FB DUP3 PUSH2 0x20D0 JUMP JUMPDEST SWAP2 POP PUSH2 0x3106 DUP4 PUSH2 0x20D0 JUMP JUMPDEST SWAP3 POP DUP3 PUSH2 0x3116 JUMPI PUSH2 0x3115 PUSH2 0x30C4 JUMP JUMPDEST JUMPDEST DUP3 DUP3 DIV SWAP1 POP SWAP3 SWAP2 POP POP JUMP JUMPDEST PUSH0 PUSH1 0xC0 DUP3 ADD SWAP1 POP PUSH2 0x3134 PUSH0 DUP4 ADD DUP10 PUSH2 0x226B JUMP JUMPDEST PUSH2 0x3141 PUSH1 0x20 DUP4 ADD DUP9 PUSH2 0x227A JUMP JUMPDEST PUSH2 0x314E PUSH1 0x40 DUP4 ADD DUP8 PUSH2 0x227A JUMP JUMPDEST PUSH2 0x315B PUSH1 0x60 DUP4 ADD DUP7 PUSH2 0x226B JUMP JUMPDEST PUSH2 0x3168 PUSH1 0x80 DUP4 ADD DUP6 PUSH2 0x226B JUMP JUMPDEST PUSH2 0x3175 PUSH1 0xA0 DUP4 ADD DUP5 PUSH2 0x226B JUMP JUMPDEST SWAP8 SWAP7 POP POP POP POP POP POP POP JUMP JUMPDEST PUSH32 0x486F757365206973206E6F7420617661696C61626C6500000000000000000000 PUSH0 DUP3 ADD MSTORE POP JUMP JUMPDEST PUSH0 PUSH2 0x31B4 PUSH1 0x16 DUP4 PUSH2 0x2293 JUMP JUMPDEST SWAP2 POP PUSH2 0x31BF DUP3 PUSH2 0x3180 JUMP JUMPDEST PUSH1 0x20 DUP3 ADD SWAP1 POP SWAP2 SWAP1 POP JUMP JUMPDEST PUSH0 PUSH1 0x20 DUP3 ADD SWAP1 POP DUP2 DUP2 SUB PUSH0 DUP4 ADD MSTORE PUSH2 0x31E1 DUP2 PUSH2 0x31A8 JUMP JUMPDEST SWAP1 POP SWAP2 SWAP1 POP JUMP JUMPDEST PUSH32 0x77726F6E672072656E74616C20706572696F6400000000000000000000000000 PUSH0 DUP3 ADD MSTORE POP JUMP JUMPDEST PUSH0 PUSH2 0x321C PUSH1 0x13 DUP4 PUSH2 0x2293 JUMP JUMPDEST SWAP2 POP PUSH2 0x3227 DUP3 PUSH2 0x31E8 JUMP JUMPDEST PUSH1 0x20 DUP3 ADD SWAP1 POP SWAP2 SWAP1 POP JUMP JUMPDEST PUSH0 PUSH1 0x20 DUP3 ADD SWAP1 POP DUP2 DUP2 SUB PUSH0 DUP4 ADD MSTORE PUSH2 0x3249 DUP2 PUSH2 0x3210 JUMP JUMPDEST SWAP1 POP SWAP2 SWAP1 POP JUMP JUMPDEST PUSH0 PUSH1 0x40 DUP3 ADD SWAP1 POP PUSH2 0x3263 PUSH0 DUP4 ADD DUP6 PUSH2 0x227A JUMP JUMPDEST PUSH2 0x3270 PUSH1 0x20 DUP4 ADD DUP5 PUSH2 0x226B JUMP JUMPDEST SWAP4 SWAP3 POP POP POP JUMP JUMPDEST PUSH32 0x596F7520646F6E2774206861766520616E20616D6F756E742064756520796574 PUSH0 DUP3 ADD MSTORE PUSH32 0x2100000000000000000000000000000000000000000000000000000000000000 PUSH1 0x20 DUP3 ADD MSTORE POP JUMP JUMPDEST PUSH0 PUSH2 0x32D1 PUSH1 0x21 DUP4 PUSH2 0x2293 JUMP JUMPDEST SWAP2 POP PUSH2 0x32DC DUP3 PUSH2 0x3277 JUMP JUMPDEST PUSH1 0x40 DUP3 ADD SWAP1 POP SWAP2 SWAP1 POP JUMP JUMPDEST PUSH0 PUSH1 0x20 DUP3 ADD SWAP1 POP DUP2 DUP2 SUB PUSH0 DUP4 ADD MSTORE PUSH2 0x32FE DUP2 PUSH2 0x32C5 JUMP JUMPDEST SWAP1 POP SWAP2 SWAP1 POP JUMP JUMPDEST PUSH0 PUSH1 0x60 DUP3 ADD SWAP1 POP PUSH2 0x3318 PUSH0 DUP4 ADD DUP7 PUSH2 0x226B JUMP JUMPDEST PUSH2 0x3325 PUSH1 0x20 DUP4 ADD DUP6 PUSH2 0x227A JUMP JUMPDEST PUSH2 0x3332 PUSH1 0x40 DUP4 ADD DUP5 PUSH2 0x226B JUMP JUMPDEST SWAP5 SWAP4 POP POP POP POP JUMP INVALID LOG2 PUSH5 0x6970667358 0x22 SLT KECCAK256 0xE9 0xE2 PUSH9 0xAD006BEF22E78F093C 0x1E 0x22 0xCD 0xB4 0xD9 CREATE SWAP14 0xBC 0x5C PUSH5 0x1B7CF90CF1 PUSH7 0x31D5F50064736F PUSH13 0x63430008160033000000000000 "
				},
				"gasEstimates": {
					"creation": {
						"codeDepositCost": "2633600",
						"executionCost": "2852",
						"totalCost": "2636452"
					},
					"external": {
						"acceptRequest(uint256)": "infinite",
						"getAllHouses()": "infinite",
						"getRentalData()": "infinite",
						"getRequests()": "infinite",
						"houses(uint256)": "infinite",
						"landlordHouses(address,uint256)": "infinite",
						"listHouse(string,uint256,uint256,uint256,uint256,uint256)": "infinite",
						"payRent(uint256)": "infinite",
						"rentHouse(uint256,uint256,uint256,uint256)": "infinite",
						"requests(address,uint256)": "infinite",
						"sendRequest(uint256,uint256,uint256)": "infinite",
						"tenantRentals(address,uint256)": "infinite",
						"updateRentalData(address)": "infinite"
					}
				},
				"methodIdentifiers": {
					"acceptRequest(uint256)": "4ba1f098",
					"getAllHouses()": "d87deea8",
					"getRentalData()": "dc388605",
					"getRequests()": "8813ce12",
					"houses(uint256)": "aeda852f",
					"landlordHouses(address,uint256)": "39e110e1",
					"listHouse(string,uint256,uint256,uint256,uint256,uint256)": "296da249",
					"payRent(uint256)": "d9e8843f",
					"rentHouse(uint256,uint256,uint256,uint256)": "8f7d8e73",
					"requests(address,uint256)": "9ecebe2a",
					"sendRequest(uint256,uint256,uint256)": "b5c3005c",
					"tenantRentals(address,uint256)": "7607d62f",
					"updateRentalData(address)": "337a8e3c"
				}
			},
			"storageLayout": {
				"storage": [
					{
						"astId": 56,
						"contract": "HomeConnect/HouseRental.sol:HouseRental",
						"label": "houses",
						"offset": 0,
						"slot": "0",
						"type": "t_array(t_struct(House)20_storage)dyn_storage"
					},
					{
						"astId": 62,
						"contract": "HomeConnect/HouseRental.sol:HouseRental",
						"label": "requests",
						"offset": 0,
						"slot": "1",
						"type": "t_mapping(t_address,t_array(t_struct(Request)52_storage)dyn_storage)"
					},
					{
						"astId": 68,
						"contract": "HomeConnect/HouseRental.sol:HouseRental",
						"label": "landlordHouses",
						"offset": 0,
						"slot": "2",
						"type": "t_mapping(t_address,t_array(t_struct(House)20_storage)dyn_storage)"
					},
					{
						"astId": 74,
						"contract": "HomeConnect/HouseRental.sol:HouseRental",
						"label": "tenantRentals",
						"offset": 0,
						"slot": "3",
						"type": "t_mapping(t_address,t_array(t_struct(Rental)39_storage)dyn_storage)"
					}
				],
				"types": {
					"t_address": {
						"encoding": "inplace",
						"label": "address",
						"numberOfBytes": "20"
					},
					"t_array(t_struct(House)20_storage)dyn_storage": {
						"base": "t_struct(House)20_storage",
						"encoding": "dynamic_array",
						"label": "struct HouseRental.House[]",
						"numberOfBytes": "32"
					},
					"t_array(t_struct(Rental)39_storage)dyn_storage": {
						"base": "t_struct(Rental)39_storage",
						"encoding": "dynamic_array",
						"label": "struct HouseRental.Rental[]",
						"numberOfBytes": "32"
					},
					"t_array(t_struct(Request)52_storage)dyn_storage": {
						"base": "t_struct(Request)52_storage",
						"encoding": "dynamic_array",
						"label": "struct HouseRental.Request[]",
						"numberOfBytes": "32"
					},
					"t_mapping(t_address,t_array(t_struct(House)20_storage)dyn_storage)": {
						"encoding": "mapping",
						"key": "t_address",
						"label": "mapping(address => struct HouseRental.House[])",
						"numberOfBytes": "32",
						"value": "t_array(t_struct(House)20_storage)dyn_storage"
					},
					"t_mapping(t_address,t_array(t_struct(Rental)39_storage)dyn_storage)": {
						"encoding": "mapping",
						"key": "t_address",
						"label": "mapping(address => struct HouseRental.Rental[])",
						"numberOfBytes": "32",
						"value": "t_array(t_struct(Rental)39_storage)dyn_storage"
					},
					"t_mapping(t_address,t_array(t_struct(Request)52_storage)dyn_storage)": {
						"encoding": "mapping",
						"key": "t_address",
						"label": "mapping(address => struct HouseRental.Request[])",
						"numberOfBytes": "32",
						"value": "t_array(t_struct(Request)52_storage)dyn_storage"
					},
					"t_string_storage": {
						"encoding": "bytes",
						"label": "string",
						"numberOfBytes": "32"
					},
					"t_struct(House)20_storage": {
						"encoding": "inplace",
						"label": "struct HouseRental.House",
						"members": [
							{
								"astId": 3,
								"contract": "HomeConnect/HouseRental.sol:HouseRental",
								"label": "houseId",
								"offset": 0,
								"slot": "0",
								"type": "t_uint256"
							},
							{
								"astId": 5,
								"contract": "HomeConnect/HouseRental.sol:HouseRental",
								"label": "landlord",
								"offset": 0,
								"slot": "1",
								"type": "t_address"
							},
							{
								"astId": 7,
								"contract": "HomeConnect/HouseRental.sol:HouseRental",
								"label": "description",
								"offset": 0,
								"slot": "2",
								"type": "t_string_storage"
							},
							{
								"astId": 9,
								"contract": "HomeConnect/HouseRental.sol:HouseRental",
								"label": "rentPerDay",
								"offset": 0,
								"slot": "3",
								"type": "t_uint256"
							},
							{
								"astId": 11,
								"contract": "HomeConnect/HouseRental.sol:HouseRental",
								"label": "deposit",
								"offset": 0,
								"slot": "4",
								"type": "t_uint256"
							},
							{
								"astId": 13,
								"contract": "HomeConnect/HouseRental.sol:HouseRental",
								"label": "paymentPeriod",
								"offset": 0,
								"slot": "5",
								"type": "t_uint256"
							},
							{
								"astId": 15,
								"contract": "HomeConnect/HouseRental.sol:HouseRental",
								"label": "minRentalPeriod",
								"offset": 0,
								"slot": "6",
								"type": "t_uint256"
							},
							{
								"astId": 17,
								"contract": "HomeConnect/HouseRental.sol:HouseRental",
								"label": "maxRentalPeriod",
								"offset": 0,
								"slot": "7",
								"type": "t_uint256"
							},
							{
								"astId": 19,
								"contract": "HomeConnect/HouseRental.sol:HouseRental",
								"label": "isAvailable",
								"offset": 0,
								"slot": "8",
								"type": "t_uint256"
							}
						],
						"numberOfBytes": "288"
					},
					"t_struct(Rental)39_storage": {
						"encoding": "inplace",
						"label": "struct HouseRental.Rental",
						"members": [
							{
								"astId": 22,
								"contract": "HomeConnect/HouseRental.sol:HouseRental",
								"label": "rentalId",
								"offset": 0,
								"slot": "0",
								"type": "t_uint256"
							},
							{
								"astId": 24,
								"contract": "HomeConnect/HouseRental.sol:HouseRental",
								"label": "tenant",
								"offset": 0,
								"slot": "1",
								"type": "t_address"
							},
							{
								"astId": 26,
								"contract": "HomeConnect/HouseRental.sol:HouseRental",
								"label": "houseId",
								"offset": 0,
								"slot": "2",
								"type": "t_uint256"
							},
							{
								"astId": 28,
								"contract": "HomeConnect/HouseRental.sol:HouseRental",
								"label": "startDate",
								"offset": 0,
								"slot": "3",
								"type": "t_uint256"
							},
							{
								"astId": 30,
								"contract": "HomeConnect/HouseRental.sol:HouseRental",
								"label": "endDate",
								"offset": 0,
								"slot": "4",
								"type": "t_uint256"
							},
							{
								"astId": 32,
								"contract": "HomeConnect/HouseRental.sol:HouseRental",
								"label": "dueDate",
								"offset": 0,
								"slot": "5",
								"type": "t_uint256"
							},
							{
								"astId": 34,
								"contract": "HomeConnect/HouseRental.sol:HouseRental",
								"label": "amountDue",
								"offset": 0,
								"slot": "6",
								"type": "t_uint256"
							},
							{
								"astId": 36,
								"contract": "HomeConnect/HouseRental.sol:HouseRental",
								"label": "totalAmountDue",
								"offset": 0,
								"slot": "7",
								"type": "t_uint256"
							},
							{
								"astId": 38,
								"contract": "HomeConnect/HouseRental.sol:HouseRental",
								"label": "isActive",
								"offset": 0,
								"slot": "8",
								"type": "t_uint256"
							}
						],
						"numberOfBytes": "288"
					},
					"t_struct(Request)52_storage": {
						"encoding": "inplace",
						"label": "struct HouseRental.Request",
						"members": [
							{
								"astId": 41,
								"contract": "HomeConnect/HouseRental.sol:HouseRental",
								"label": "requestId",
								"offset": 0,
								"slot": "0",
								"type": "t_uint256"
							},
							{
								"astId": 43,
								"contract": "HomeConnect/HouseRental.sol:HouseRental",
								"label": "tenant",
								"offset": 0,
								"slot": "1",
								"type": "t_address"
							},
							{
								"astId": 45,
								"contract": "HomeConnect/HouseRental.sol:HouseRental",
								"label": "houseId",
								"offset": 0,
								"slot": "2",
								"type": "t_uint256"
							},
							{
								"astId": 47,
								"contract": "HomeConnect/HouseRental.sol:HouseRental",
								"label": "startDate",
								"offset": 0,
								"slot": "3",
								"type": "t_uint256"
							},
							{
								"astId": 49,
								"contract": "HomeConnect/HouseRental.sol:HouseRental",
								"label": "endDate",
								"offset": 0,
								"slot": "4",
								"type": "t_uint256"
							},
							{
								"astId": 51,
								"contract": "HomeConnect/HouseRental.sol:HouseRental",
								"label": "isAccepted",
								"offset": 0,
								"slot": "5",
								"type": "t_uint256"
							}
						],
						"numberOfBytes": "192"
					},
					"t_uint256": {
						"encoding": "inplace",
						"label": "uint256",
						"numberOfBytes": "32"
					}
				}
			},
			"userdoc": {
				"kind": "user",
				"methods": {},
				"version": 1
			}
		}
	}
}